:100000000C9400070C9428070C9428070C942807DC
:100010000C9428070C9428070C9428070C942807A4
:100020000C9428070C9428070C9428070C94280794
:100030000C9428070C9428070C9428070C94280784
:100040000C9465220C9428070C9433220C940D22F6
:100050000C9428070C9428070C9428070C94280764
:100060000C9428070C9428074E414E494E49545988
:10007000494E46CDCCCC3D0AD7233C17B7D1387773
:10008000CC2B329595E6241FB14F0A000020410089
:1000900000C84200401C4620BCBE4CCA1B0E5AAED3
:1000A000C59D7400407A10F35A00A0724E180900E2
:1000B00010A5D4E80000E87648170000E40B5402CD
:1000C0000000CA9A3B000000E1F505000080969808
:1000D00000000040420F000000A086010000001058
:1000E0002700000000E8030000000064000000009A
:1000F000000A00000000000100000000002C76D87B
:1001000088DC674F0823DFC1DFAE59E1B1B796E560
:10011000E3E453C63AE651997696E8E6C28426EBC4
:10012000898C9B62ED407C6FFCEFBC9C9F40F2BAD7
:10013000A56FA5F490055A2AF75C936B6CF9676D6F
:10014000C11BFCE0E40D47FEF520E6B500D0ED90C4
:100150002E0300943577050080841E080000204E91
:100160000A000000C80C333333330F986E1283112A
:1001700041EF8D2114893BE65516CFFEE6DB18D101
:10018000844B381BF77C1D901DA4BBE424203284D3
:10019000725E228100C9F124ECA1E53D27005EBC1E
:1001A000E2613FDD83C29C7E20A3FD1F419DC321F0
:1001B0007FFCA2401E5F01E3BD3E6082DC237D9F89
:1001C000C1421CFEA0E1BF5D0380DE3C62BEE002D6
:1001D0005CDF81633D7C22C09E1D43A1FF4618FA6F
:1001E000A427799BC584DA3866E5BB5907DB8567A8
:1001F00039BAE406581947A5FB7826C49A653BD955
:1002000087045AB8E6A7F91B45C6987A24F8A6448D
:100210001A99C7257B3A6486D85B05E7B98CD2303A
:100220006EEDB3510F4E10F2AC2F7193CD114FAD57
:10023000F3702ECC92D38D6F31B2EC0E50AFF11320
:100240004DCE90722C6D33D18F0C52B0EE326C8E3D
:10025000D0530DEFB1F0AE4C1291CF2D73CA9476FE
:1002600028ABF517490856B4EA6937D58B5709EB1F
:10027000B536688AD495CB2977F4AA4816E9B755DC
:100280000B88D6346A2B7597C94A14F6A8742AC805
:1002900096154BA9F7B6E80A54D7896B35000000CC
:1002A0000800020100000304070000000000000035
:1002B0000000000000250028002B000000000024A2
:1002C0000027002A0049502D416472657373652030
:1002D0006465732045746865726E65742D54686535
:1002E000726D6F73746174733A004275696C642047
:1002F000312E302E34207A2031382E205365702054
:100300003230323100576562616E77656E64756EAA
:10031000672065727374656C6C743A204D617274F9
:10032000696E2043686C65626F766563004854545B
:10033000502F312E3120343034204E6F7420466FD0
:10034000756E64003C2F68746D6C3E003C2F626FCC
:1003500064793E003C623E556D6C656974756E67EC
:10036000202E2E2E20426974746520776172746588
:100370006E3C2F623E3C2F63656E7465723E003C9E
:1003800068333E3C666F6E7420636F6C6F723D27FE
:10039000726564273E45696E6765676562656E656F
:1003A00020446174656E2073696E64206B65696EAC
:1003B00065205A61686C656E202121212042697494
:1003C00074652076657273756368656E2053696520
:1003D000206573206E6163682064657220556D6CC2
:1003E000656974756E672065726E6575742E3C2F35
:1003F000666F6E743E3C2F68333E003C63656E74DE
:1004000065723E3C68333E44657220536572766582
:10041000722068617420446174656E20766F6D206F
:10042000466F726D756C617220657268616C74657F
:100430006E3A3C2F68333E003C626F64793E003C6C
:100440002F686561643E003C7469746C653E485475
:10045000545020776562736572766572202D204155
:10046000726475696E6F202B2045746865726E65C5
:10047000743C2F7469746C653E003C6D657461203A
:10048000687474702D65717569763D275265667262
:100490006573682720636F6E74656E743D27353B06
:1004A0002075726C3D2F27202F3E003C6D657461D6
:1004B00020636861727365743D277574662D3827F3
:1004C0003E003C686561643E003C68746D6C3E00B3
:1004D0003C21444F43545950452068746D6C3E0094
:1004E000436F6E74656E742D547970653A2074652F
:1004F00078742F68746D6C00485454502F312E312D
:1005000020323030204F4B0042656E75747A657230
:1005100065696E676162652066C3BC722054617351
:10052000746520666E616D65322028487973746544
:10053000726573652920697374206B65696E652027
:100540005A61686C210042656E75747A65726569DE
:100550006E676162652066C3BC7220546173746506
:1005600020666E616D6520285A69656C74656D70D2
:100570006572617475722920697374206B65696E88
:1005800065205A61686C21007D00224163747561A9
:100590006C5F54656D7065726174757265223A00A6
:1005A0002C00225461726765745F54656D706572CA
:1005B0006174757265223A002C0022487973746563
:1005C0007265736973223A007B00436F6E74656EC7
:1005D000742D547970653A206170706C6963617430
:1005E000696F6E2F6A736F6E00485454502F312E0E
:1005F0003120323030204F4B003C2F68746D6C3E00
:10060000003C2F626F64793E003C2F63656E746519
:10061000723E003C68343E467265696520566572DC
:1006200073696F6E202D20312E302E342062756953
:100630006C643A2031382E205365702E20323032CF
:10064000313C2F68343E003C68333E4175746F7214
:100650003A204D617274696E2043686C65626F76F2
:100660006563202D206D617274696E69757339360A
:1006700040676D61696C2E636F6D202D2068747406
:1006800070733A2F2F6D617274696E6975733936A4
:100690002E6769746875622E696F2F7465726D6F4D
:1006A000737461742D65746865726E65742F64650A
:1006B0002F3C2F68333E00730020006D002000683F
:1006C00000200064003C623E557074696D653A20FC
:1006D0003C2F623E003C68723E0020C2B043003CAA
:1006E000623E416B7475656C6C652054656D706518
:1006F00072617475722064657320445331384232DC
:10070000302D53656E736F72733A3C2F623E20003A
:100710003C6469762069643D22636F756E74646F12
:10072000776E223E3C2F6469763E003C623E3C661A
:100730006F6E7420636F6C6F723D27726564273E25
:1007400041757367616E673A204175733C2F666F20
:100750006E743E3C2F623E003C623E3C666F6E749F
:1007600020636F6C6F723D27677265656E273E412F
:10077000757367616E673A2045696E3C2F666F6ED0
:10078000743E3C2F623E003C2F666F726D3E3C68AB
:10079000723E003C696E70757420747970653D27F7
:1007A0007375626D69742720636C6173733D276292
:1007B000746E2062746E2D73756363657373272086
:1007C00076616C75653D2753636872656962656E15
:1007D000273E003C666F726D20616374696F6E3DE9
:1007E000272F616374696F6E2E68746D6C27206D9E
:1007F0006574686F643D27676574273E003C6365D8
:100800006E7465723E3C68333E446174656E20666A
:10081000C3BC722057656273657276657220656924
:100820006E676562656E20287769726420696D2045
:10083000454550524F4D2067657370656963686523
:100840007274293A3C2F68333E003C626F64793EF3
:10085000003C2F686561643E003C7469746C653EC1
:100860004854545020776562736572766572202D06
:100870002041726475696E6F202B20457468657223
:100880006E65743C2F7469746C653E003C2F736315
:10089000726970743E007D2C2031303030293B006D
:1008A00074696D656C656674202D3D20313B007D5B
:1008B00000646F63756D656E742E676574456C6555
:1008C0006D656E74427949642822636F756E746435
:1008D0006F776E22292E696E6E657248544D4C20DA
:1008E0003D2074696D656C656674202B2022205351
:1008F000656B756E64656E207A756D20416B7475DD
:10090000616C6973696572656E223B007D20656C60
:100910007365207B00646F63756D656E742E67650B
:1009200074456C656D656E74427949642822636F05
:10093000756E74646F776E22292E696E6E657248CB
:10094000544D4C203D2022416B7475616C69736974
:100950006572756E672E2E2E223B00636C65617288
:10096000496E74657276616C28646F776E6C6F6126
:100970006454696D6572293B0069662874696D6508
:100980006C656674203C3D2030297B0076617220C6
:10099000646F776E6C6F616454696D6572203D2081
:1009A000736574496E74657276616C2866756E63E2
:1009B00074696F6E28297B007661722074696D6599
:1009C0006C656674203D2033303B003C7363726974
:1009D000707420747970653D27746578742F6A612E
:1009E0007661736372697074273E003C6C696E6B4C
:1009F0002072656C3D277374796C657368656574E6
:100A00002720687265663D2768747470733A2F2FCB
:100A10006D617863646E2E626F6F7473747261704F
:100A200063646E2E636F6D2F626F6F747374726187
:100A3000702F332E342E312F6373732F626F6F74C8
:100A400073747261702E6D696E2E637373273E002E
:100A50003C6D657461206E616D653D2776696577D3
:100A6000706F72742720636F6E74656E743D2777A4
:100A7000696474683D6465766963652D776964743B
:100A8000682C20696E697469616C2D7363616C6593
:100A90003D31273E003C6D65746120687474702D93
:100AA00065717569763D27526566726573682720A2
:100AB000636F6E74656E743D273330273B202F3E85
:100AC000003C6D657461206E616D653D27617574D4
:100AD000686F722720636F6E74656E743D274D6179
:100AE0007274696E2043686C65626F766563273E39
:100AF000003C6D65746120636861727365743D27A5
:100B00007574662D38273E003C2F736372697074CC
:100B10003E00736D6172746C6F6F6B2827696E692C
:100B200074272C20276462353065666539666666F1
:100B30003238306131376462353262383262653260
:100B40003231323430636262643364626527293B38
:100B5000007D2928646F63756D656E74293B0063A1
:100B60002E636861727365743D277574662D38272E
:100B70003B632E7372633D2768747470733A2F2F32
:100B80007265632E736D6172746C6F6F6B2E636F21
:100B90006D2F7265636F726465722E6A73273B688E
:100BA0002E617070656E644368696C642863293BCC
:100BB0000076617220633D642E63726561746545E1
:100BC0006C656D656E74282773637269707427296C
:100BD0003B6F2E6170693D6E65772041727261795D
:100BE00028293B632E6173796E633D747275653B92
:100BF000632E747970653D27746578742F6A617609
:100C000061736372697074273B00766172206F3D77
:100C1000736D6172746C6F6F6B3D66756E63746932
:100C20006F6E28297B206F2E6170692E7075736836
:100C300028617267756D656E7473297D2C683D64DB
:100C40002E676574456C656D656E74734279546189
:100C5000674E616D6528276865616427295B305D93
:100C60003B0077696E646F772E736D6172746C6F81
:100C70006F6B7C7C2866756E6374696F6E2864295F
:100C8000207B003C73637269707420747970653DD9
:100C900027746578742F6A61766173637269707402
:100CA000273E003C686561643E003C68746D6C3EA4
:100CB000003C21444F43545950452068746D6C3EAC
:100CC00000436F6E74656E742D547970653A2074AC
:100CD0006578742F68746D6C00485454502F312E11
:100CE0003120323030204F4B00416B7475656C6C95
:100CF00065204C65697374756E6720646573204B5D
:100D0000657373656C733A200044696520446966B5
:100D1000666572656E7A207A7769736368656E209E
:100D2000536F6C6C2D20756E64204973742D54655F
:100D30006D70657261747572206C69656774206E80
:100D40006963687420C3BC626572206F6465722039
:100D5000756E74657220646572204879737465726B
:100D60006573652E204465722041757367616E67F7
:100D7000737A757374616E6420C3A46E6465727453
:100D80002073696368206E696368742E004175730F
:100D900067616E67206175730041757367616E6787
:100DA0002065696E0049502D41647265737365203A
:100DB0006465732045746865726E65742D5468654A
:100DC000726D6F73746174733A0000000000230049
:100DD000260029000404040404040404020202029C
:100DE00002020303030303030102040810204080EE
:100DF000010204081020010204081020AF22502F25
:100E000011241FBECFEFD8E0DEBFCDBF12E0A0E0BF
:100E1000B1E0E2EBF1E702C005900D92A03DB10711
:100E2000D9F724E0A0EDB2E001C01D92A338B207CB
:100E3000E1F716E0CFEFD6E004C02197FE010E9453
:100E40009A36CE3FD107C9F70E9487230C94CC383D
:100E50000C9400008CBD9DBD089520E3FC0120830F
:100E60003296862F82958F706F706A3030F4605D95
:100E70006293682F8111F5CF0895695CF9CFFC0169
:100E8000818D928D08950895FC012481358162172A
:100E9000730748F480819181009729F0860F971F8E
:100EA000FC018081089580E00895DB0114964D9146
:100EB0005C9115976D917C91DC01ED91FC91028024
:100EC000F381E02D0994EF92FF920F931F93CF933C
:100ED000DF938C017B01D0E0C0E0F701EC0FFD1F38
:100EE0006491662361F0D801ED91FC910190F0814D
:100EF000E02DC8010995892B11F02196EECFCE0186
:100F0000DF91CF911F910F91FF90EF900895AF92D5
:100F1000BF92CF92DF92EF92FF920F931F93CF93E6
:100F2000DF936C017B018B01040F151FEB015E0148
:100F3000AE18BF08C017D10759F06991D601ED91DD
:100F4000FC910190F081E02DC6010995892B79F77C
:100F5000C501DF91CF911F910F91FF90EF90DF902E
:100F6000CF90BF90AF900895FC01538D448D252FF5
:100F700030E0842F90E0821B930B541710F0CF9633
:100F8000089501970895FC01918D828D981761F065
:100F9000A28DAE0FBF2FB11D5D968C91928D9F5F7C
:100FA0009F73928F90E008958FEF9FEF0895FC015B
:100FB000918D828D981731F0828DE80FF11D858D0E
:100FC00090E008958FEF9FEF0895FC01918D228DA1
:100FD000892F90E0805C9F4F821B91098F73992726
:100FE000089585E793E00E94E50721E0892B09F445
:100FF00020E0822F089580E090E0892B29F00E9464
:10100000F10781110C9400000895FC01A48DA80F34
:10101000B92FB11DA35ABF4F2C91848D90E001963A
:101020008F739927848FA689B7892C93A089B1895A
:101030008C91837080648C93938D848D981306C0FB
:101040000288F389E02D80818F7D80830895EF925F
:10105000FF920F931F93CF93DF93EC0181E0888F72
:101060009B8D8C8D98131AC0E889F989808185FF42
:1010700015C09FB7F894EE89FF896083E889F989E4
:1010800080818370806480839FBF81E090E0DF91E6
:10109000CF911F910F91FF90EF900895F62E0B8D39
:1010A00010E00F5F1F4F0F731127E02E8C8D8E11F4
:1010B0000CC00FB607FCFACFE889F989808185FF5B
:1010C000F5CFCE010E940508F1CFEB8DEC0FFD2F7F
:1010D000F11DE35AFF4FF0829FB7F8940B8FEA8916
:1010E000FB8980818062CFCFCF93DF93EC01888D25
:1010F0008823B9F0AA89BB89E889F9898C9185FD93
:1011000003C0808186FD0DC00FB607FCF7CF8C9120
:1011100085FFF2CF808185FFEDCFCE010E940508CB
:10112000E9CFDF91CF91089590E0FC01E356FD4FA8
:101130002491FC01E851F24F3491FC01EC52F24F42
:10114000E491EE23C9F0222339F0233001F1A8F411
:10115000213019F1223029F1F0E0EE0FFF1FEF549A
:10116000FD4FA591B4918FB7F894EC91611126C011
:1011700030953E233C938FBF08952730A9F0283047
:10118000C9F0243049F7809180008F7D03C08091A1
:1011900080008F7780938000DFCF84B58F7784BD08
:1011A000DBCF84B58F7DFBCF8091B0008F778093AC
:1011B000B000D2CF8091B0008F7DF9CF3E2BDACF37
:1011C000CF93DF9390E0FC01E851F24F24918C52D1
:1011D000924FFC0184918823D1F090E0880F991FF1
:1011E000FC01E554FD4FA591B491FC01EF54FD4F76
:1011F000C591D49161110EC09FB7F8948C91E22FE4
:10120000E0958E238C932881E223E8839FBFDF91B2
:10121000CF9108958FB7F894EC91E22BEC938FBFA8
:10122000F6CF3FB7F8948091D6029091D702A09163
:10123000D802B091D90226B5A89B05C02F3F19F05E
:101240000196A11DB11D3FBFBA2FA92F982F882746
:10125000BC01CD01620F711D811D911D42E0660F21
:10126000771F881F991F4A95D1F708958F929F92F3
:10127000AF92BF92CF92DF92EF92FF926B017C010F
:101280000E9411094B015C01C114D104E104F10475
:10129000B9F00E941109681979098A099B09683E09
:1012A00073408105910580F321E0C21AD108E1085D
:1012B000F10888EE880E83E0981EA11CB11CE4CFD3
:1012C000FF90EF90DF90CF90BF90AF909F908F9066
:1012D00008952FB7F8946091D2027091D302809153
:1012E000D4029091D5022FBF0895DC0180E06150B7
:1012F00038F0ED91E827F0E0E356FE4F8491F7CF08
:101300000895DC012C911196ED91FC91F894818166
:10131000822B81839281322F30959323928387E0B1
:1013200090E00197F1F781818323818383E290E04C
:101330000197F1F790817894EFECF0E03197F1F7B5
:10134000922381E009F480E00895FC0190810180FE
:10135000F281E02D292F209560FF14C0F89482813E
:10136000822382838181892B8183A3E2B0E011975C
:10137000F1F78281982B9283789487ED90E0019722
:10138000F1F70895F8948281822382838181892BE9
:101390008183AFEFB0E01197F1F78281982B9283B0
:1013A00078948FE090E0EBCFDF92EF92FF920F9373
:1013B0001F93CF93DF93EC01D62EE42E08E010E0CC
:1013C000FF24F39461E08D2D8F2109F460E0CE01BC
:1013D0000E94A509FF0C01501109A1F7E11010C0EE
:1013E000F894E981FA8191818881809589238183AC
:1013F000E981FA819281888180958923828378941A
:10140000DF91CF911F910F91FF90EF90DF900895A2
:10141000EF92FF920F931F93CF93DF938C017B0189
:1014200040E065E50E94D409E70188E0E80EF11C80
:10143000699140E0C8010E94D409CE15DF05C1F7CB
:10144000DF91CF911F910F91FF90EF900895FC01D4
:1014500090810180F281E02DF8948181292F2095DF
:101460008223818378943DE743E050E0315029F1B5
:10147000DA011197F1F780818923C1F3F894828111
:10148000822382838181892B81837894ABE7B7E0C3
:101490001197F1F7F894818182238183A3E1B1E070
:1014A0001197F1F78081982381E009F080E078942A
:1014B000E3E6F6E03197F1F7089580E00895AF9202
:1014C000BF92CF92DF92EF92FF920F931F93CF9331
:1014D000DF938B01BC018091590490915A040E94C2
:1014E000080A40E06EEB8091590490915A040E94E2
:1014F000D409E801680189E0C80ED11CA090590404
:10150000B0905A0488E0E82EF12C10E001E0C5010B
:101510000E9481098111102B000F81E0E81AF10867
:10152000B1F71993CC16DD0649F7809159049091D3
:101530005A040E94270A91E0813009F090E0892F37
:10154000DF91CF911F910F91FF90EF90DF90CF909F
:10155000BF90AF9008950F931F93CF93DF93CDB7B4
:10156000DEB729970FB6F894DEBF0FBECDBF8C0152
:101570008091590490915A040E94270A811102C057
:1015800080E01FC0BE016F5F7F4FC8010E945F0AED
:101590008823B1F368E0CE0101960E947509998510
:1015A0008913EECF8D818F33B9F020F48F3141F75D
:1015B00089E007C08F3521F08F3711F78CE001C02B
:1015C0008BE029960FB6F894DEBF0FBECDBFDF913A
:1015D000CF911F910F9108958AE0F3CFFC012081F4
:1015E0002EBD9B012150310941F051810DB407FE00
:1015F000FDCF4EB55EBD4193F5CF61507109860FA9
:10160000971F0DB407FEFDCF2EB5FC012083089572
:10161000E091DB02F091DC0280819091DA02892B6B
:1016200080830895E091DB02F091DC02908180914B
:10163000DA0280958923808308958EBD00000DB461
:1016400007FEFDCF8EB50895AF92BF92CF92DF9285
:10165000EF92FF920F931F93CF93DF93CDB7DEB737
:1016600028970FB6F894DEBF0FBECDBF8C017B016B
:101670006A01809174038333E1F45801A40EB51E0E
:10168000A016B10609F46FC00E94120B80EF0E94F1
:101690001D0B812F0E941D0B802F0E941D0B0F5FC1
:1016A0001F4FF70181917F010E941D0B0E94080BC3
:1016B000E7CF5B01A40EB51E8433C1F40E94120B68
:1016C00019830A838D2D80688B83CC8264E070E05F
:1016D000CE0101960E94EE0AAE14BF0409F441C087
:1016E000F70181917F010E941D0BF6CF0E94120B22
:1016F0000F3F110509F028F419820A8384E08B83D7
:101700000CC017FD17C019820A8333E016950795A0
:101710003A95E1F7007E0C600B8386E0C816D10491
:10172000A0F5F701DE011496EA15FB0599F0819109
:101730008D93FACFC80126E0969587952A95E1F713
:10174000807E19830A830115104C10F48461D7CF71
:101750008C61D5CFB6016D5F7F4FCE0101960E949F
:10176000EE0A0E94080BC60128960FB6F894DEBF59
:101770000FBECDBFDF91CF911F910F91FF90EF90E2
:10178000DF90CF90BF90AF90089563E070E0CE01FE
:1017900001960E94EE0AF70181917F010E941D0BC4
:1017A000AE14BF04C1F7DDCFCF93DF931F92CDB747
:1017B000DEB7898341E050E0BE016F5F7F4F90E06C
:1017C00080E00E94240B0F90DF91CF91089590E06C
:1017D00020917403233339F40C96982F990F990FA5
:1017E000990F80E008954896F8CFDA01E091DE0283
:1017F000F0E0FE2FEE27E60FF71F90E0982F8827E6
:10180000A901BD018E0F9F1F0C94240BCF93DF9372
:1018100000D0CDB7DEB779836A8322E030E0AE0135
:101820004F5F5F4F60E170E00E94F50B0F900F90EB
:10183000DF91CF910895CF93DF9300D0CDB7DEB77E
:1018400079836A8322E030E0AE014F5F5F4F64E04E
:1018500070E00E94F50B0F900F90DF91CF910895EB
:10186000CF93DF931F92CDB7DEB72091DE0230E039
:10187000322F2227260F371F90E0982F8827498381
:1018800041E050E0BE016F5F7F4F820F931F0E94C7
:10189000240B0F90DF91CF910895CF93DF931F9288
:1018A000CDB7DEB76983DC01ED91FC910280F38155
:1018B000E02D41E050E0BE016F5F7F4F09950F9032
:1018C000DF91CF910895CF93DF931F92CDB7DEB70D
:1018D0006983DC01ED91FC910280F381E02D41E010
:1018E00050E0BE016F5F7F4F09950F90DF91CF9160
:1018F0000895FC019485FB018485981303C081E061
:10190000943008F080E00895CF93DF931F92CDB715
:10191000DEB76983DC01ED91FC910280F381E02D5B
:1019200041E050E0BE016F5F7F4F09950F90DF915E
:10193000CF910895FC01768765870895DC01ED91CC
:10194000FC91068CF78DE02D099591E0892708958B
:10195000862F089581E08627089521E0FC01848583
:10196000843008F020E0822F089544E050E0BC016C
:101970008FE090E00C94240B0895FF920F931F9337
:10198000CF93DF93EB01FC01178A168A2A8121117C
:1019900009C02B81211106C02C81211103C02D818A
:1019A000222301F141155105E9F08A01FC01F08C77
:1019B00080E591E00E942A07AE014E5F5F4F24E070
:1019C00030E06CE070E08F2D0E94F50BB8018F2D98
:1019D0000E94060C81E090E0DF91CF911F910F9162
:1019E000FF90089580E0F7CFFC01848595850895E8
:1019F000FC0184899589089524E931E0FC01318353
:101A00002083FB014089518962897389FC014283EB
:101A10005383648375830895DC01ED91FC91048CFC
:101A2000F58DE02D0994089590E080E0089580916F
:101A3000590490915A040E94270A40E06CEC80916E
:101A4000590490915A040E94D4094091540464E4CA
:101A50008091590490915A040E94D40980915604AF
:101A60008823A1F0E0915504E9506EEE72E0E33076
:101A700038F4F0E0EE0FFF1FE858FE4F60817181EF
:101A8000072E000C880B990B0C9436090895BF9211
:101A9000CF92DF92EF92FF920F931F93CF93DF933A
:101AA000EC01B62EC72EED84E11004C00E94270A77
:101AB00081110EC01B861D861C8680E0DF91CF91B0
:101AC0001F910F91FF90EF90DF90CF90BF900895FE
:101AD00040E060EFCE010E94D409D12C01E011E07A
:101AE000CE010E948109F82ECE010E94810991E069
:101AF000F91218C0813099F51134E0F2EB86E1104B
:101B000002C081E08D878B818823A1F22396EB2D83
:101B1000FC2DCF01089629912193E817F907D9F7F1
:101B200081E0CCCFED2DF0E0F8120FC08B851817B7
:101B3000A0F4DE01AE0FBF1F13968C91802379F4C1
:101B4000F12C193008F41C87E12EEC0FFD1F838166
:101B5000902F9095892383830AC08113F1CFFE01D2
:101B6000ED0DF11D8381802B8383FF24F3946F2D72
:101B7000CE010E94A5091F5F000F11F4D39401E06C
:101B800087E08D1508F0ACCFB7CFAF92BF92CF9260
:101B9000DF92EF92FF920F931F93CF93DF9300D0CA
:101BA00000D0CDB7DEB78C016B017A018091740350
:101BB0008333E9F45B016801C40ED51EC016D1065B
:101BC000A9F10E94120B8FE00E941D0B812F0E9431
:101BD0001D0B802F0E941D0B0F5F1F4F80E00E9486
:101BE0001D0BF50181935F010E94080BE7CF843341
:101BF00069F50E94120B19830A838F2D8F778B83CF
:101C0000EC8264E070E0CE0101960E94EE0AA7012A
:101C100070E060E0C6010E949838E114F10421F000
:101C2000B701C6010E94EE0A0E94080BC7010F907F
:101C30000F900F900F90DF91CF911F910F91FF9018
:101C4000EF90DF90CF90BF90AF9008950E94120B5D
:101C50000F3F110509F030F419820A831B8263E0FB
:101C600070E0D1CF17FD0BC019820A8333E01695BF
:101C700007953A95E1F7007E08600B83F0CFC80125
:101C800026E0969587952A95E1F7807E19830A8349
:101C90000115104C18F480618B83E1CF8861FCCF73
:101CA000CF93DF931F92CDB7DEB72091DE0230E0F5
:101CB000322F2227260F371F90E0982F882741E0E8
:101CC00050E0BE016F5F7F4F820F931F0E94C50DD2
:101CD00089810F90DF91CF910895CF93C82F462F20
:101CE00061E070E00E94300C61E070E08C2F0E9497
:101CF000500E8111F9CFCF910895CF93C82F80E571
:101D000091E00E942A0768E070E08C2FCF910C943C
:101D10006D0ECF93C82F80E591E00E942A0760E105
:101D200070E08C2FCF910C946D0ECF93DF93EC016C
:101D3000888D843020F40E94890E84E0888FDF91A2
:101D4000CF91089563E070E00C94500ECF93C82FAC
:101D500080E591E00E942A078C2FCF910C94A20E6F
:101D6000EF92FF920F931F93CF937C010CE613E049
:101D7000C0E0F801219131918F01F70184819581B3
:101D80002817390729F0CF5FC43099F780E006C0E3
:101D90008C2F0E94A60E8431B1F781E0CF911F9164
:101DA0000F91FF90EF900895CF93DF93EC018C8516
:101DB0008430D0F40E94A60E843189F0882379F013
:101DC000883169F021E08C3159F4E881F98100848F
:101DD000F185E02DCE01099521E0892B09F420E061
:101DE000822FDF91CF91089580E0FBCFCF92DF92D9
:101DF000EF92FF92CF93DF93EC018C85843068F4EF
:101E00000E947D0E0E9469096B017C018C850E94F5
:101E1000A60E811109C084E08C87DF91CF91FF90DD
:101E2000EF90DF90CF90089561E070E080E090E067
:101E30000E9436090E946909AB01BC014C195D0979
:101E40006E097F098D859E85B0E0A0E0481759078F
:101E50006A077B07D8F28C850E94890EDCCFCF936E
:101E6000FC01C08D80E591E00E942A0760E270E0ED
:101E70008C2F0E946D0E62E070E08C2F0E94500E3D
:101E800084FD16C062E070E08C2F0E94500E83FF2C
:101E90000AC048E162E070E08C2F0E94300C80E0C4
:101EA00090E0CF91089580E591E00E942A07E3CF6A
:101EB00040E162E070E08C2F0E94300C81E0F0CFB6
:101EC000CF93DF931F92CDB7DEB741E050E0BE0164
:101ED0006F5F7F4F90E080E00E94C50D89810F9079
:101EE000DF91CF910895CF93DF93C4E1D0E00E94BA
:101EF000600F882361F061E070E080E090E00E9474
:101F000036092197A1F780E0DF91CF91089581E014
:101F1000FBCF1F93CF93DF931F92CDB7DEB7182F60
:101F200080E591E00E942A07812F0E94E70B27E0BD
:101F3000129FF0011124E05BFC4F22813381377046
:101F400041E050E0BE016F5F7F4F820F931F0E9400
:101F5000C50D89810F90DF91CF911F910895FC01EC
:101F6000808D843040F4218D328D232B21F00E940E
:101F7000890F90E008958FEF9FEF0895CF93DF933F
:101F8000FC012485243028F08FEF9FEFDF91CF9163
:101F90000895EC010190F081E02D0084F185E02DA1
:101FA0000995892B89F38C850E94890F90E0EECFEB
:101FB000DA01E091DE02F0E0FE2FEE27E60FF71FD8
:101FC00090E0982F8827A901BD018E0F9F1F0C94C8
:101FD000C50D8F929F92AF92BF92CF92DF92EF92F8
:101FE000FF921F93CF93DF93CDB7DEB72C970FB639
:101FF000F894DEBF0FBECDBF2091740314E02223FE
:1020000029F16B017C0180E591E00E942A075E01C5
:1020100027E0A20EB11C450110E0812F0E94A20E04
:10202000F40181934F01882349F11F5F1430A9F710
:1020300010E0F50181915F018D31D9F08831C9F04F
:102040008A518230B0F01F5F143099F7812F2C969F
:102050000FB6F894DEBF0FBECDBFDF91CF911F91B9
:10206000FF90EF90DF90CF90BF90AF909F908F90B8
:10207000089560E170E0812F0E946D0EA12EB12CB9
:10208000F501EE0FFF1FE459FC4F1182108283EE21
:1020900093E00197F1F742E870E060E0812F0E9441
:1020A000300C4FEF62E070E0812F0E94300CB601DF
:1020B000C114D10491F48091060190910701019619
:1020C0008115F0EC9F0708F45CC0909307018093A2
:1020D00006016091060170910701812F0E941B0C7F
:1020E00086E0E2E1F1E0DE01119601900D928A9521
:1020F000E1F7F70183818F778C8384818D838581DC
:102100008E83A7014E5F5F4F24E030E06CE070E00B
:10211000812F0E94F50BB601812F0E94060C26E04C
:1021200030E0AE014F5F5F4F66E070E0812F0E94AC
:10213000F50B61E070E0812F0E946D0E27E02A9D73
:10214000C0012B9D900D11249C01205B3C4F790117
:10215000F9011182108222E030E0AE01455F5F4F4D
:1021600068E270E0812F0E94D80F8B859C859827AC
:1021700089279827F7019383828316821582148218
:1021800065CF80E090ECA1CFCF92DF92EF92FF92EB
:102190000F931F93CF93DF9300D000D000D0CDB723
:1021A000DEB78C016B017A01FC01808D843010F464
:1021B0000E94890E84E991E09A838983F6018281E5
:1021C0009381A481B5818B839C83AD83BE83B7014A
:1021D000CE0101960E94E90FF801808F8430A0F4AF
:1021E000F586E486128E118E81E026960FB6F8945D
:1021F000DEBF0FBECDBFDF91CF911F910F91FF903A
:10220000EF90DF90CF90089580E0EFCFAF92BF9234
:10221000CF92DF92EF92FF920F931F93CF93DF93B2
:1022200000D000D000D0CDB7DEB7082F6B0180E51D
:1022300091E00E942A079E012F5F3F4F79015901CB
:1022400010E0812F0E94A20EF50181935F01882387
:1022500041F11F5F1430A9F710E0F70181917F0170
:102260008D31D1F08831C1F08A518230A8F01F5FE2
:10227000143099F7812F26960FB6F894DEBF0FBE63
:10228000CDBFDF91CF911F910F91FF90EF90DF9025
:10229000CF90BF90AF90089560E170E0812F0E94D1
:1022A0006D0EE12EF12CF701EE0FFF1FE459FC4FEC
:1022B0001182108283EE93E00197F1F7402F70E0D6
:1022C00060E0812F0E94300C4FEF62E070E0812FC0
:1022D0000E94300CB601CD2889F4809106019091BE
:1022E000070101968115F0EC9F0798F19093070183
:1022F000809306016091060170910701812F0E9471
:102300001B0C61E070E0812F0E946D0E27E02E9D76
:10231000C0012F9D900D11249C01205B3C4F790141
:10232000F9011182108222E030E0AE014B5F5F4F75
:1023300068E270E0812F0E94D80F8D819E819827DE
:1023400089279827F7019383828316821582148246
:1023500091CF80E090ECCACFCF92DF92EF92FF92C4
:102360001F93CF93DF93EC017B016A018C8584304E
:1023700048F40E94A60E882319F08C850E947D0ED9
:1023800084E08C87F70182819381A481B5810097D5
:10239000A105B10551F490E080E0DF91CF911F914C
:1023A000FF90EF90DF90CF9008958F3F9F4FAF4FFA
:1023B000BF4F89F380917403811103C084E08C873F
:1023C000EACF70E060E081E20E940611182F8C874E
:1023D000843008F780E591E00E942A07A7014E5F4C
:1023E0005F4F24E030E06CE070E0812F0E94F50B3D
:1023F000B601812F0E94060C64E070E0812F0E94DC
:102400006D0E0E9469096B017C018C850E94A60EED
:10241000873109F18C31F9F0882309F4BCCF0E948F
:102420006909AB01BC014C195D096E097F098D85F5
:102430009E85B0E0A0E084179507A607B70738F09F
:1024400061E070E080E090E00E943609DECF8C858C
:102450000E94890EB3CF81E090E09FCF0F931F932E
:10246000CF93DF93EC018B01888D843010F40E94B0
:10247000890E80917403811107C094E0988FDF91D9
:10248000CF911F910F910895B80182E00E9406112B
:10249000888F843030F41D870C871A8E198E81E066
:1024A000EECF80E0ECCF0F931F93CF932091740376
:1024B000222349F18C01FC016481758181E20E9433
:1024C0000611C82F8430F8F480E591E00E942A07B5
:1024D0008C2F0E94A20E833131F08C2FCF911F914F
:1024E0000F910C947D0E62E070E08C2F0E946D0EB7
:1024F000F80184819581EC2FF0E0EE0FFF1FE45985
:10250000FC4F91838083CF911F910F9108957F920B
:102510008F929F92AF92BF92CF92DF92EF92FF92F3
:102520000F931F93CF93DF9300D0CDB7DEB7782EF4
:102530008B014A01590122E030E0AE014F5F5F4F4D
:1025400064E270E00E94D80FE980FA80FE24EF2454
:10255000FE24E00EF11E9701377040917403072DA1
:1025600010E0433309F042C0085F1F4F102F0027CF
:10257000110F110F110FC901800F911F4733C9F1BE
:10258000A9014A0D5B1D4130584098F160E078E0A8
:102590006B01C21AD30AA601B4010E94240BA50143
:1025A0004C195D09B4016C0D7D1DC8010E94240BFE
:1025B000EA0CFB1CF982EA8222E030E0AE014F5FB8
:1025C0005F4F64E270E0872D0E94F50B0F900F9033
:1025D000DF91CF911F910F91FF90EF90DF90CF90FF
:1025E000BF90AF909F908F907F900895005F1F4F96
:1025F000BDCFA501B401DACFEF92FF921F93CF9325
:10260000DF9300D0CDB7DEB7182F22E030E0AE0167
:102610004F5F5F4F60E270E00E94D80FE980FA8060
:10262000FE24EF24FE2422E030E0AE014F5F5F4F36
:1026300060E270E0812F0E94D80F89819A819827EB
:1026400089279827E816F90689F487E0189FF00192
:102650001124E05BFC4FF582E482C7010F900F90DC
:10266000DF91CF911F91FF90EF9008957C01DBCF18
:102670001F93CF93DF93182F80E591E00E942A07E4
:10268000812F0E94FC12EC01812F0E94A20E873143
:1026900021F08C3111F0D0E0C0E0CE01DF91CF917C
:1026A0001F910895CF93DF93EC018C85843060F403
:1026B0000E94A60E873111F08C3131F48C850E9476
:1026C00038138115984088F3DF91CF910895FC016C
:1026D0008485843010F40C94381390E080E00895E1
:1026E000CF92DF92EF92FF921F93CF93DF93182F39
:1026F0007B01EA014130584010F0C0E0D8E080E5AD
:1027000091E00E942A07812F0E94FC126C01812F08
:102710000E94A20E873111F08C3121F5CC16DD0616
:1027200070F380E591E00E942A079E01A70170E006
:1027300060E0812F0E94871260E270E0812F0E948A
:102740006D0E62E070E0812F0E94500E84FD0DC07E
:10275000812F0E94A20E8823B9F080E591E00E94AB
:102760002A07EFCFD0E0C0E0DCCF40E162E070E0CC
:10277000812F0E94300CCE01DF91CF911F91FF90ED
:10278000EF90DF90CF900895D0E0C0E0F4CF0F93AA
:102790001F93CF93DF938C01EA01FC018485843081
:1027A00048F40E947013892B39F481E090E0F8011D
:1027B00093838283D0E0C0E0CE01DF91CF911F915F
:1027C0000F9108959F92AF92BF92CF92DF92EF92B6
:1027D000FF920F931F93CF93DF938C015B01942E95
:1027E000E52EFC01C688D788F08C80E591E00E9438
:1027F0002A078F2D0E94FC12C92DDE2D8C179D07F4
:1028000008F4EC019E01A501B6018F2D0E948712EC
:10281000F801868997898C0F9D1F978B868BCE0137
:10282000DF91CF911F910F91FF90EF90DF90CF90AC
:10283000BF90AF909F900895FF920F931F93CF93F7
:10284000DF9300D0CDB7DEB7F82E22E030E0AE0146
:102850004F5F5F4F66E270E00E94D80F09811A81D6
:1028600010270127102722E030E0AE014F5F5F4FB5
:1028700066E270E08F2D0E94D80F89819A81982797
:10288000892798270817190749F4C8010F900F9056
:10289000DF91CF911F910F91FF9008958C01E3CFAD
:1028A0001F93CF93DF93182F87E0189FE001112427
:1028B000C05BDC4F88819981009761F480E591E0ED
:1028C0000E942A07812F0E941C142E81821B9109CD
:1028D00099838883DF91CF911F910895AF92BF9222
:1028E000CF92DF92EF92FF920F931F93CF93DF93DC
:1028F000EC017B0180917403811120C01B821A823C
:1029000088EE93E0A0E0B0E08C839D83AE83BF832C
:102910008CE191E09983888384E08C8788EE93E052
:102920009E878D87CE01DF91CF911F910F91FF90F0
:10293000EF90DF90CF90BF90AF9008958CE6C82EB7
:1029400083E0D82E10E094E0B92EA12CD6012D9171
:102950003D916D01F701848195812817390791F424
:10296000812F0E94A60E082F873111F08C3139F586
:10297000812F0E945014892B59F50C3119F4812FA5
:102980000E947D0E1F5F143009F7A11008C0D70107
:10299000ED91FC910084F185E02DC70109951B8222
:1029A0001A8288EE93E0A0E0B0E08C839D83AE8332
:1029B000BF838CE191E099838883BC86AFCF84315B
:1029C00049F08111DFCFF601329711821082DACF00
:1029D000B12ED8CFAA24A394D5CF8F929F92AF9235
:1029E000BF92CF92DF92EF92FF921F93CF93DF932C
:1029F000CDB7DEB72F970FB6F894DEBF0FBECDBFB1
:102A00005C014B017A01809174038823A1F1B50127
:102A1000CE0101960E946E148CE6C82E83E0D82E5B
:102A200010E0F601219131916F01F50184819581CA
:102A30002817390751F4812F0E94A60E873129F4F7
:102A4000A701B401812F0E9470131F5F143049F752
:102A5000C7012F960FB6F894DEBF0FBECDBFDF9132
:102A6000CF911F91FF90EF90DF90CF90BF90AF90EC
:102A70009F908F900895F12CE12CEACFFC01848582
:102A8000843010F40C94501490E080E008954F923C
:102A90005F927F928F929F92AF92BF92CF92DF927E
:102AA000EF92FF920F931F93CF93DF9300D0CDB798
:102AB000DEB7782E6B014A01A82EB12C27E0829F49
:102AC000C0011124FC01E05BFC4F7F0100811181FA
:102AD00080E591E00E942A070815190554F4872D16
:102AE0000E941C14F70126818C01021B110911831D
:102AF00000830115110519F5872D0E94A20E84315E
:102B000059F0882349F001E010E08C3111F410E015
:102B100000E0119501951109C8010F900F90DF9108
:102B2000CF911F910F91FF90EF90DF90CF90BF90CA
:102B3000AF909F908F907F905F904F9008958016F8
:102B400091060CF4840187E08A9DF0018B9DF00DC5
:102B50001124E05BFC4FE280F380C114D10451F1F9
:102B60002701F7E05F22872D0E94E70B840D951D5A
:102B700020917403273309F453C09801240D351DA7
:102B80002130384008F44CC020E038E04901841876
:102B90009508A401B6010E94C50D2601480C591CD8
:102BA0006801C818D908872D0E94E70BA601B20159
:102BB0000E94C50DE00EF11E87E08A9DF0018B9DFD
:102BC000F00D1124E05BFC4FF382E2822081318121
:102BD000201B310B318320838681800F912F911D23
:102BE0008A3F910510F4232BF1F487E08A9DF001D0
:102BF0008B9DF00D1124E05BFC4F1682F982EA8276
:102C000022E030E0AE014F5F5F4F68E270E0872D59
:102C10000E94F50B60E470E0872D0E946D0E7CCF62
:102C2000A801B601C5CF868377CFCF93DF93FC0190
:102C3000218D328D2115310529F48FEF9FEFDF9122
:102C4000CF910895EC01808D4217530708F0A90138
:102C50000E9447151816190684F7298D3A8D281BEE
:102C6000390B3A8F298FEBCF0F931F93CF93DF93BD
:102C70001F92CDB7DEB7FC01218D328D232B41F49D
:102C80008FEF9FEF0F90DF91CF911F910F910895DC
:102C90008C0141E050E0BE016F5F7F4FFC01808DF1
:102CA0000E944715181619065CF7F801818D928D60
:102CB0000197928F818F898190E0E4CFCF93DF934A
:102CC0001F92CDB7DEB741E050E0BE016F5F7F4F8E
:102CD000FC0184850E9447151816190634F4898171
:102CE00090E00F90DF91CF9108958FEF9FEFF9CF94
:102CF0000F931F93CF93DF93EC010E9469096887BC
:102D000079878A879B87CE010E945E1697FF15C040
:102D10000E946909088519852A853B85601B710B0E
:102D2000820B930B0C811D812E813F8160177107EF
:102D30008207930740F38FEF9FEFDF91CF911F91B1
:102D40000F910895FC018485843010F40C9447158C
:102D500090E080E008950F931F93CF93DF9300D00E
:102D6000CDB7DEB7FC0124852430E0F48C0180E58A
:102D700091E00E942A0722E030E0AE014F5F5F4FF2
:102D800060E170E0F80184850E94D80F89819A8102
:102D90009827892798270F900F90DF91CF911F9147
:102DA0000F91089590E080E0F6CF0F931F93CF939B
:102DB000DF9300D0CDB7DEB7FC0124852430E0F4EA
:102DC0008C0180E591E00E942A0722E030E0AE010C
:102DD0004F5F5F4F64E070E0F80184850E94D80F78
:102DE00089819A819827892798270F900F90DF91E2
:102DF000CF911F910F91089590E080E0F6CFDC0114
:102E000084E991E08D939D9384E0FB0101900D9204
:102E10008A95E1F70895EF92FF920F931F93CF9356
:102E2000DF9300D000D0CDB7DEB78C017B01FB0172
:102E300084858430A8F084E991E0F801918380834F
:102E40001282138214821582C8010F900F900F9086
:102E50000F90DF91CF911F910F91FF90EF90089508
:102E600080E591E00E942A0724E030E0AE014F5F48
:102E70005F4F6CE070E0F70184850E94D80FBE01BF
:102E80006F5F7F4FC8010E94FF16DECF0F931F9325
:102E9000CF93DF93CDB7DEB728970FB6F894DEBF98
:102EA0000FBECDBF8C01D80159964D915C915A97B8
:102EB0004115510551F0ED91FC91048CF58DE02DFB
:102EC00070E060E0C8010995EECFF801808D0E94A6
:102ED0005014892BB1F148E050E0BE016F5F7F4F85
:102EE000D80158968C910E94471518161906F4F4CB
:102EF000D801509684E0FE01319601900D928A959A
:102F0000E1F78D8190E0982F88272E81820F911D07
:102F1000F801958B848B8F81282F30E0322F222768
:102F20008885820F932F911D928F818F28960FB6DF
:102F3000F894DEBF0FBECDBFDF91CF911F910F91EF
:102F4000089590E080E0F2CF4F925F926F927F926F
:102F50008F929F92AF92BF92CF92DF92EF92FF92A9
:102F60000F931F93CF93DF93CDB7DEB763970FB661
:102F7000F894DEBF0FBECDBF7C016B013A01FB01AF
:102F800020E090E080E06AE03191332309F461C0F1
:102F900040ED430F4A3008F04DC0689FA001699F83
:102FA000500D1124CA01C097830F911D37FD9A95CA
:102FB0008F3F910549F340F3F701428153816481CA
:102FC000758180913E0490913F04A0914004B0919E
:102FD0004104481759076A077B0709F40DC28701A6
:102FE000085F1F4F0E9469096F7077277C5FC801D7
:102FF0000E942E12813009F004C284E991E09A8384
:103000008983F70182819381A481B5818B839C831D
:10301000AD83BE8345E350E0BE016F5F7F4FC801C3
:103020000E94BD0C892BA9F5D12CC12CC8010E948E
:10303000950E17C03E3209F0BFCF233009F4BCCF44
:10304000D301A20FB11D12968C932F5F90E080E008
:103050009BCF233009F0B0CFF3018583CC24C394F8
:10306000D12CC60163960FB6F894DEBF0FBECDBF5C
:10307000DF91CF911F910F91FF90EF90DF90CF9054
:10308000BF90AF909F908F907F906F905F904F9088
:1030900008950E946909F7017783668342E050E052
:1030A000B7016A5F7F4FC8010E94E21381E090E0A0
:1030B0009A83898342E050E0BE016F5F7F4FC80171
:1030C0000E94E21380E091E09A83898342E050E01D
:1030D000BE016F5F7F4FC8010E94E2131A821982FE
:1030E00042E050E0BE016F5F7F4FC8010E94E213D3
:1030F00042E050E0BE016F5F7F4FC8010E94E213C3
:1031000042E050E0BE016F5F7F4FC8010E94E213B2
:103110005601F6018081882301F16501F601819154
:103120002F01882311F08E32B1F446018A189B08D2
:103130001814190474F48D8641E050E0BE01635FF9
:103140007F4FC8010E94E213A401B501C8010E948B
:10315000E2135201DECF6201E1CF1D8641E050E073
:10316000BE01635F7F4FC8010E94E213C12CDD24C2
:10317000D394DA82C98242E050E0BE016F5F7F4F94
:10318000C8010E94E213DA82C98242E050E0BE0127
:103190006F5F7F4FC8010E94E213C8010E942F0F8A
:1031A000892B09F441CFF3E0AF2EB12C230122E0AB
:1031B000420E511CD4C0F701428153816481758154
:1031C000808D918DA28DB38D481759076A077B07B3
:1031D00009F008C1848D958DC59709F003C181A1BF
:1031E00092A15DEFC52EDD24DA940C970CF4ADC0EE
:1031F0004CE050E0BE016F5F7F4FC8010E94151682
:103200008B819C819827892798279A8B898BF70136
:103210004681578129813A814217530709F0E7C057
:1032200097FFE5C08F7092703BEFC32EDD24DA94D8
:10323000892B09F08AC06F807884762467247624ED
:103240002AEFC22EDD24DA946114710409F47DC0E2
:10325000D12CC12C8D819E81982789279827C8164B
:10326000D906F8F441E050E0BE01635F7F4FC8012A
:103270000E9415164D85442331F050E070E060E067
:10328000C8010E9415168D858111ECCF44E050E0F5
:1032900070E060E0C8010E941516FFEFCF1ADF0A48
:1032A000D9CF912C812C41E050E0BE016D5E7F4F63
:1032B000C8010E9415164B89842F807C09F06CC0D0
:1032C000442331F050E070E060E0C8010E94151620
:1032D0008B898111E8CF42E050E0BE01615F7F4FF2
:1032E000C8010E94151642E050E0BE01635F7F4FA7
:1032F000C8010E94151644E050E070E060E0C8018B
:103300000E94151642E050E0BE016F5E7F4FC8017B
:103310000E9415168F85988949895A89811591408F
:1033200009F043C0CD84DE84DC24CD24DC2481E09C
:10333000C816D104D1F54115544009F04AC044E003
:1033400050E0B201C8010E94151621E0A21AB1088E
:1033500009F46CCEFFEFCF16DF0609F067CE0E94AE
:1033600069093B014C01C8010E944617181619064D
:103370000CF421CF0E946909661977098809990917
:10338000693873418105910548F562E370E080E09A
:1033900090E00E943609E7CF41E050E070E060E045
:1033A000C8010E9415161B8A93CF5427452754271E
:1033B00070E060E0C8010E941516FFEF8F1A9F0AA7
:1033C0006814790409F06FCF96EFC92EDD24DA94E2
:1033D000BCCFE7EFCE2EDD24DA94B7CFCC24CA944D
:1033E000DC2CB3CF6EEFC62EDD24DA94AECF4CEFDB
:1033F000C42EDD24DA94A9CF8EEFC82EDD24DA9412
:1034000030CED12CC12C2DCECF92DF92EF92FF92F5
:103410000F931F93CF93DF93CDB7DEB7AF970FB660
:10342000F894DEBF0FBECDBF7C016A0104E911E054
:103430001A8309831C861B8688EE93E0A0E0B0E027
:103440008D879E87AF87B88B8AE491E09A878987BA
:10345000188F0F8B198E1A8E1B8E1C8E84E089A3F9
:103460001BA70AA71CA61DA61EA61FA68091320494
:1034700090913304A0913404B09135048EA39FA39E
:10348000A8A7B9A78B839C83AD83BE8318861F82B0
:10349000AE01465D5F4FCE0101960E94A4178130B8
:1034A0009105B1F4D701ED91FC910488F589E02DE7
:1034B0001DA30CA38CA59DA5AEA5BFA58EA39FA300
:1034C000A8A7B9A7A601BE016C5D7F4FC7010995EA
:1034D000AF960FB6F894DEBF0FBECDBFDF91CF9190
:1034E0001F910F91FF90EF90DF90CF900895CF92B2
:1034F000DF92EF92FF920F931F93CF93DF93CDB79D
:10350000DEB7AF970FB6F894DEBF0FBECDBF8C010C
:103510006B017A0184E991E09A8389831B821C8282
:103520001D821E821C861B8648EE53E060E070E020
:103530004D875E876F87788B2AE431E03A87298749
:10354000988F8F8B198E1A8E1B8E1C8E24E029A3C8
:103550009BA78AA71CA61DA61EA61FA6D8011C965F
:103560008C91843060F40E94A60E882321F0F8012B
:1035700084850E947D0E84E0D8011C968C938091F6
:10358000320490913304A0913404B09135048EA399
:103590009FA3A8A7B9A78B839C83AD83BE831886FE
:1035A0001F82AE01465D5F4FB601CE0101960E94BB
:1035B000A4170097C1F0D801ED91FC910684F7851E
:1035C000E02D84E991E09DA38CA38CA59DA5AEA5DB
:1035D000BFA58EA39FA3A8A7B9A7A701BE016C5D35
:1035E0007F4FC8010995AF960FB6F894DEBF0FBEA6
:1035F000CDBFDF91CF911F910F91FF90EF90DF90A2
:10360000CF900895FB0101900020E9F73197AF01B9
:10361000461B570BDC01ED91FC910280F381E02DFC
:1036200009948F929F92AF92BF92EF92FF920F9365
:103630001F93CF93DF93CDB7DEB7A1970FB6F89462
:10364000DEBF0FBECDBF7C01FA01CB0119A2223033
:1036500008F42AE08E010F5D1F4F822E912CB12CB1
:10366000A12CBF01A50194010E949435F901CA0162
:103670006A300CF5605DD8016E938D01232B242BED
:10368000252B79F790E080E0109721F0BD01C7016C
:103690000E94021BA1960FB6F894DEBF0FBECDBFED
:1036A000DF91CF911F910F91FF90EF90BF90AF905E
:1036B0009F908F900895695CDECF8F929F92AF921A
:1036C000BF92CF92DF92EF92FF920F931F93CF930F
:1036D000DF937C01EB016C0182E0C80ED11C470135
:1036E000E5E08E0E911C10E000E0F60141916F01C3
:1036F00050E070E060E02AE0CE010E94111B5C0106
:10370000E881F9810190F081E02D6EE2CE0109950A
:103710008A0D9B1D080F191FC814D90431F7F70132
:10372000458150E070E060E02AE0CE010E94111B6C
:10373000800F911FDF91CF911F910F91FF90EF901C
:10374000DF90CF90BF90AF909F908F90089566EAE2
:1037500071E00C94021BCF93DF9365E773E00E9446
:103760005D1BEC0185E793E00E94A71B8C0F9D1F5A
:10377000DF91CF9108950F931F93CF93DF93EC01C7
:103780000E9455078C01CE010E94A71B800F911F3C
:10379000DF91CF911F910F9108950F931F93CF93B6
:1037A000DF93EC010E9463078C01CE010E94A71BEE
:1037B000800F911FDF91CF911F910F910895FC0110
:1037C00024813581232B31F421E0FB01672B49F45F
:1037D000822F0895808191816115710539F421E06E
:1037E000FC0180818823A1F320E0F2CF0E949F3862
:1037F00021E0892B69F3F8CF7F928F929F92AF924D
:10380000BF92CF92DF92EF92FF920F931F93CF93CD
:10381000DF93CDB7DEB7A6970FB6F894DEBF0FBE25
:10382000CDBF8C01762E942E852E20E2A22ECE01C5
:1038300001967C01DC01EA2D1D92EA95E9F7680109
:10384000F3E4CF0ED11C84E991E09AA389A38FEF12
:103850008BA38CA38DA38EA343E450E0BE016F5DC8
:103860007F4FC6010E94BD0C019609F4BFC081E0E4
:1038700089838A8386E0B82EBB821C82D801149685
:103880006D917D918D919C9117970E947F366D83EC
:103890007E838F83988789869A8680E890E09C87CC
:1038A0008B874CE150E0B701C6010E94E213FE0194
:1038B00037968AE1DF011D928A95E9F74801B8E061
:1038C0008B0E911CF401D70101900D92BA94E1F78F
:1038D00040E150E0B701C6010E94E213F7011192E6
:1038E000AA94E9F796E0A92EB12C40E250E0B70186
:1038F000C6010E94E213F1E0AF1AB108B1F783E606
:10390000898392E89A8393E59B838C8385E38D83F7
:1039100081E08E837F829DE3988797E099878A87ED
:1039200086E0F401DE011B9601900D928A95E1F785
:103930008CE0898B8A8B69EA71E0CE0143960E9404
:10394000A838D8011B966C91CE0149960E942D078C
:10395000F8016485CE014B960E942D07D8011D9673
:103960006C91CE014D960E942D074EE150E0B701BB
:10397000C6010E94E213B3E07B121EC082E389837A
:1039800084E08A83F80196859B8397859C83908940
:103990009D8391899E8396E39F838887828D898703
:1039A000838D8A87848D8B87858D8C874CE050E052
:1039B000B701C6010E94E21387E3898386E08A8308
:1039C00091E09B8393E09C838D838FE08E838AE3D9
:1039D0008F838BE388878FEF898749E050E0B701B9
:1039E000C6010E94E213C6010E942F0FA6960FB6D1
:1039F000F894DEBF0FBECDBFDF91CF911F910F9125
:103A0000FF90EF90DF90CF90BF90AF909F908F90FE
:103A10007F9008950F931F93CF93DF93EC018881DC
:103A20009981009759F02A813B812617370730F09A
:103A300081E0DF91CF911F910F9108958B016F5F0E
:103A40007F4F0E94C537009759F0998388831B8365
:103A50000A832C813D81232B59F7FC011082E8CF8A
:103A600080E0E7CFEF92FF920F931F93CF93DF9306
:103A70006115710541F480E0DF91CF911F910F91A5
:103A8000FF90EF90089541155105B1F07B01EC01D5
:103A90000C811D81040F151FB8010E940A1D882387
:103AA00051F3288139818C819D81B701820F931F49
:103AB0000E94A8381D830C8381E0DECFCF93DF9373
:103AC000EC0188819981009711F00E943C3719829E
:103AD00018821D821C821B821A82DF91CF91089569
:103AE000CF93DF93EC01FB0101900020E9F73197C0
:103AF000AF01461B570B0E94321D811103C0CE013E
:103B00000E945E1DCE01DF91CF910895CF93DF9388
:103B1000EC01FB0144815581608171810E94321D5D
:103B2000811103C0CE010E945E1DCE01DF91CF91B5
:103B30000895EF92FF920F931F93CF93DF93EC01C1
:103B40007B018A01BA010E940A1D81110BC0CE01BE
:103B50000E945E1DCE01DF91CF911F910F91FF90CA
:103B6000EF9008951D830C83B701888199810E948D
:103B7000A838F0CFFB0101900020E9F73197AF01A1
:103B8000461B570B0C94991DCF93DF93EC01FB015F
:103B90008617970749F0608171816115710541F0C1
:103BA000448155810E94991DCE01DF91CF910895E6
:103BB0000E945E1DF9CFFC011182108213821282D5
:103BC000158214826115710551F0FB0101900020EE
:103BD000E9F73197AF01461B570B0C94991D0895D7
:103BE000FC0180819181009711F00C943C3708957D
:103BF000CF92DF92FF920F931F93CF93DF9300D06A
:103C000000D000D0CDB7DEB78C0168EA71E0CE01FC
:103C100001960E94DB1D70E060E0C8010E9444072D
:103C20008B3211F08D3281F5F801848195810297F4
:103C300028F06081718161157105F1F41092D00254
:103C400060ED72E0CE0101960E94BA1DCD80DE804B
:103C500010E000E0F12C0C151D0509F1B801CE01B2
:103C600001960E9444078E32A9F4F11016C0FF2479
:103C7000F3940F5F1F4FEFCF6F5F7F4F19F7CE01A8
:103C800001960E945E1DE2CFB801CE0101960E940E
:103C9000C41DDCCF80538A3060F310E001C011E016
:103CA000CE0101960E94F01D812F26960FB6F89442
:103CB000DEBF0FBECDBFDF91CF911F910F91FF905F
:103CC000DF90CF9008953F924F925F926F927F92D4
:103CD0008F929F92AF92BF92CF92DF92EF92FF921C
:103CE0000F931F93CF93DF93CDB7DEB7EA970FB64D
:103CF000F894DEBF0FBECDBF7C012A013B016901F4
:103D00000E9469094B015C0187010D5B1F4FC801CF
:103D10000E944617181619069CF00E946909681936
:103D200079098A099B09461657066806790608F438
:103D300066C162E370E080E090E00E943609E7CF60
:103D400042E250E0BE016F5F7F4FC8010E9415162E
:103D500089818230D1F0312C832DEA960FB6F89408
:103D6000DEBF0FBECDBFDF91CF911F910F91FF90AE
:103D7000EF90DF90CF90BF90AF909F908F907F900B
:103D80006F905F904F903F900895F80184899589D6
:103D90008334910501F76D817E818F8198850E9422
:103DA0007F364B015C01F60180829182A282B38250
:103DB00046E050E0B701685F7F4FCE014D960E940C
:103DC0008238892B41F6F70180819181A281B381EC
:103DD00088169906AA06BB0608F4BDCF8481958192
:103DE000A681B78188159905AA05BB0508F4B3CF4C
:103DF00089899A89AB89BC8986879787A08BB18B83
:103E00004EEC50E070E060E0C8010E941516312CC5
:103E1000C701829698AB8FA7F701B696FAABE9ABCC
:103E200008969CAB8BAB67019AE1C90ED11CBD967D
:103E3000FEABEDABC701429698AF8FABFD97FAAFE3
:103E4000E9AF4701FEE18F0E911CF801818D928D43
:103E5000181619060CF080CFC8010E94341683335F
:103E6000910509F4B2C014F58130910509F464C0DC
:103E700044F4892B51F3C8010E943416AC01552734
:103E800075C08330910509F462C00697A1F7C80197
:103E90000E943416B82E44E050E0B401C8010E94DC
:103EA0001516EB2DE450FF0BAF0160C08A3391056E
:103EB00009F45FC084F585339105B1F1C697D9F651
:103EC000C8010E9434165C01B601CE0189960E9499
:103ED000FF168BA59CA5ADA5BEA5892B8A2B8B2B88
:103EE000B1F0EDA9FEA94080518062807380B601D7
:103EF000CE0183960E94FF168DA19EA1AFA1B8A509
:103F0000A501481659066A067B0609F0B8CF44E0B9
:103F100050E0B60118C08B33910509F440C08F3FC3
:103F2000910509F492CFA7CFC8010E943416C801A9
:103F30000E943416382E89CFC8010E94341644E0FE
:103F400050E06FA978ADC8010E9415167ECFC80158
:103F50000E943416B82E44E050E069AD7AADC80135
:103F60000E9415168B2D8450990BAC0170E060E017
:103F7000EACFC8010E94341644E050E069A97AA94A
:103F8000C8010E941516F70166A177A180A591A529
:103F90000E947F3666A377A380A791A756CFC8015A
:103FA0000E94341644E050E06BA97CA9C8010E942D
:103FB0001516F70162A573A584A595A50E947F3605
:103FC00062A773A784A795A740CFC8010E943416A3
:103FD00044E050E06FA578A9C8010E941516F701CA
:103FE00062A173A184A195A10E947F3662A373A3ED
:103FF00084A395A366A777A780AB91AB26CF332484
:104000003A94AACE2F923F924F925F926F927F92F4
:104010008F929F92AF92BF92CF92DF92EF92FF92D8
:104020000F931F93CF93DF9300D000D000D0CDB774
:10403000DEB78C010E94BE2F2FEC37E040E050E04D
:104040000E942B35DC01CB010196A11DB11DF801A9
:1040500084839583A683B78380839183A283B3836C
:104060005801F3E4AF0EB11CC5010E94950E64E443
:1040700070E0C5010E942E12882309F445C10E94F8
:1040800069092B013C01480182E4880E911C48EE2D
:10409000C42E43E0D42EE12CF12C52E0252E1E82BA
:1040A0001D82D4018C918330B1F1811166C0F80179
:1040B00084819581A681B7810196A11DB11D84835C
:1040C0009583A683B7830E946909641975098609D7
:1040D0009709A70196010E949435A90161E0C801E2
:1040E0000E94FC1B81E0D4018C938D819E810197FD
:1040F000C1F20E9469096419750986099709D801F6
:10410000D6962D913D914D915C91D9972617370701
:104110004807590720F6C5010E94950EF8018481D1
:104120009581A681B7810196A11DB11D84839583D8
:10413000A683B7830E946909F801FE9660837183A4
:10414000828393838D819E8126960FB6F894DEBF7D
:104150000FBECDBFDF91CF911F910F91FF90EF90D8
:10416000DF90CF90BF90AF909F908F907F906F9097
:104170005F904F903F902F9008958430F1F4F801B4
:1041800084819581A681B7810196A11DB11D84838B
:104190009583A683B7830E94690964197509860906
:1041A0009709A70196010E949435A90163E0C8010F
:1041B0000E94FC1BD4012C9298CF813051F5F8015C
:1041C00042AD53AD64AD75AD9E012F5F3F4FC80149
:1041D0000E94631E382EF2E08F1390C089819A816D
:1041E000AB81BC81F80184839583A683B7830E9449
:1041F00069096419750986099709A70196010E9442
:104200009435A90163E0C8010E94FC1BD4013C92D3
:104210006CCF823009F069CFF80142AD53AD64AD87
:1042200075AD9E012F5F3F4FC8010E94631E382E5F
:10423000F5E08F135DC0E3E0D401EC93F80182A1B7
:1042400093A1A4A1B5A1892B8A2B8B2B41F484E8DF
:1042500093E0A0E0B0E082A393A3A4A3B5A3F801E8
:1042600086A197A1A0A5B1A5892B8A2B8B2B61F4E0
:1042700082A193A1A4A1B5A1B695A795979587957D
:1042800086A397A3A0A7B1A7F80182A593A5A4A58B
:10429000B5A5892B8A2B8B2BA9F482A193A1A4A16C
:1042A000B5A1AC01BD0123E076956795579547957B
:1042B0002A95D1F7841B950BA60BB70B82A793A762
:1042C000A4A7B5A7F80186A197A1A0A5B1A586A727
:1042D00097A7A0ABB1AB82A593A5A4A5B5A582ABCA
:1042E00093ABA4ABB5AB81E090E09E838D83FDCE14
:1042F00096E0891303C0D4011C92F7CEBFEF3B12A6
:10430000F4CEF4011082F1CE1E821D821BCFAF923B
:10431000BF92CF92DF92EF92FF920F931F93CF93B2
:10432000DF93CDB7DEB7C456D1090FB6F894DEBF20
:104330000FBECDBF6C01062F660F110BC8010E9486
:1043400015359E012F5F3F4F79015901021B130B59
:10435000F501EE19FF09882349F0C8018A0D9B1D5C
:104360000E941535F50181935F01F2CFEE0DFF1D1F
:104370001082B701C6010E94DB1DC601CC59DF4F78
:104380000FB6F894DEBF0FBECDBFDF91CF911F9166
:104390000F91FF90EF90DF90CF90BF90AF90089576
:1043A000CF92DF92EF92FF920F931F93CF93DF9301
:1043B0007B01DB011496CD90DC90D0E0C0E0082FAB
:1043C000880F110BCC15DD05D4F4F701848195819C
:1043D000C817D90728F40190F081E02D309761F4D7
:1043E0001092D002E0EDF2E06081C8018C0F9D1FB9
:1043F0000E941D352196E6CFEC0FFD1FF5CF60E042
:10440000C8018C0D9D1DDF91CF911F910F91FF90E1
:10441000EF90DF90CF900C941D351F920F920FB646
:104420000F9211242F933F934F935F936F937F933A
:104430008F939F93AF93BF93EF93FF9385E793E0A1
:104440000E940508FF91EF91BF91AF919F918F91CD
:104450007F916F915F914F913F912F910F900FBE80
:104460000F901F9018951F920F920FB60F92112464
:104470002F938F939F93EF93FF93E0918503F09198
:1044800086038081E0918B03F0918C0382FD1BC039
:10449000908180918E038F5F8F7320918F0382179D
:1044A00041F0E0918E03F0E0EB58FC4F958F809344
:1044B0008E03FF91EF919F918F912F910F900FBEDF
:1044C0000F901F9018958081F4CF1F920F920FB616
:1044D0000F9211242F933F938F939F93AF93BF938A
:1044E0008091D2029091D302A091D402B091D502D2
:1044F0003091D10223E0230F2D3758F50196A11DED
:10450000B11D2093D1028093D2029093D302A09345
:10451000D402B093D5028091D6029091D702A09197
:10452000D802B091D9020196A11DB11D8093D60287
:104530009093D702A093D802B093D902BF91AF91C4
:104540009F918F913F912F910F900FBE0F901F90D1
:10455000189526E8230F0296A11DB11DD2CFE5E7DD
:10456000F3E01382128288EE93E0A0E0B0E084834F
:104570009583A683B78382E891E09183808385EC5D
:1045800090E09587848784EC90E09787868780EC1D
:1045900090E0918B808B81EC90E0938B828B82EC0E
:1045A00090E0958B848B86EC90E0978B868B118EB8
:1045B000128E138E148EE2E1F4E084E991E091838F
:1045C00080831282138214821582E8E1F4E09183E1
:1045D00080831282138214821582EEE1F4E09183CB
:1045E00080831282138214821582E4E2F4E09183C4
:1045F00080831282138214821582EAE2F4E09183AE
:1046000080831282138214821582E6E3F4E09183A0
:1046100080831282138214821582E0E3F4E0918396
:1046200080831282138214821582ECE3F4E091837A
:1046300080831282138214821582E2E4F4E0918373
:1046400080831282138214821582E5E7F4E091835D
:104650008083128213821482158260E085E00E94BA
:10466000E008EDEEFDE0E491A7E6B4E0EC93E9EDBF
:10467000FDE0E491F0E0EE0FFF1FE653F24F85916D
:10468000949112969C938E9311971B961C921B9754
:104690001D961C921D971C961C921C971A961C9294
:1046A0001A9719961C92199718961C921897179694
:1046B0001C92179716961C92169715961C92159792
:1046C00014961C92149713961C921397E4E5F4E049
:1046D00083E497E0928B818BB683A583148210824A
:1046E00089E0818381E082838383EEE4F4E01382B6
:1046F00012828AE991E09183808380E590E095833E
:10470000848368EA71E088E494E00C94DB1DCF9325
:10471000DF93CDB7DEB7CC55D1090FB6F894DEBF25
:104720000FBECDBF789484B5826084BD84B58160AE
:1047300084BD85B5826085BD85B5816085BD80916C
:104740006E00816080936E001092810080918100E4
:1047500082608093810080918100816080938100DC
:10476000809180008160809380008091B10084609E
:104770008093B1008091B00081608093B0008091FF
:104780007A00846080937A0080917A0082608093BE
:104790007A0080917A00816080937A0080917A001B
:1047A000806880937A001092C1006AE0CE01C196C1
:1047B0000E94872164E6CE0182960E94872168EAE2
:1047C00071E0CE01C1960E94DF1B811108C070E02C
:1047D00060E0CE01C1960E94DF1B882381F060EB70
:1047E00071E0CE0101960E94DB1DBE016F5F7F4F1D
:1047F0008AE00E94D021CE0101960E94F01D68EA55
:1048000071E0CE0182960E94DF1B811108C070E02A
:1048100060E0CE0182960E94DF1B882381F061EB6D
:1048200071E0CE0101960E94DB1DBE016F5F7F4FDC
:1048300084E60E94D021CE0101960E94F01DE091F5
:104840005904F0915A04138615861486128611862F
:1048500010861782168215821482138210925804D1
:1048600001E0BE016F5F7F4F8091590490915A041F
:104870000E94470D882309F455C067E0CE010196D8
:104880000E94750998858913ECCF80915404811199
:1048900028C08091590490915A040E94270ABE01B1
:1048A0006F5F7F4F8091590490915A040E94080ACB
:1048B00040E064EB8091590490915A040E94D4091D
:1048C0008091590490915A040E948109182F809177
:1048D000590490915A040E94270A111102C00093B2
:1048E0005404109155048981803111F40C944A2F9D
:1048F000CE0101960E94AB0A811750F480915504B5
:1049000080935504809158048F5F80935804A9CFF9
:104910008981803111F48CE0F3CFCE0101960E94A1
:10492000AB0AEECF61E086E00E94E00861E086E03D
:104930000E949408E0918503F091860382E08083D1
:10494000E0918103F09182031082E0918303F09162
:10495000840380E1808310928D03E0918903F091BC
:104960008A0386E08083E0918703F0918803808149
:1049700080618083E0918703F09188038081886063
:104980008083E0918703F091880380818068808331
:10499000E0918703F091880380818F7D80830E945E
:1049A000170D60ED77E080E090E00E94360980917D
:1049B0003E0381112AC0109226031092250388EE2F
:1049C00093E0A0E0B0E08093270390932803A093A6
:1049D0002903B0932A038AE491E0909324038093FF
:1049E000230384E991E09093320380933103109282
:1049F000330310923403109235031092360384E08F
:104A000080933B0381E080933E0380EE92E090939D
:104A10004703809346038091DF028111ADC060E3BC
:104A200072E080E090E00E943609DFB6F8940EED67
:104A30001DE092EFE92E9DE0F92E8091DD028111BB
:104A400025C0F8018491F7019491E82FF0E0EE0F72
:104A5000FF1FE554FD4FA591B4918C91982321F44B
:104A600061E08AE00E94940861E08AE00E94E00828
:104A70008CB580618CBD8CB580648CBD61E08DE0AF
:104A80000E94E00861E08BE00E94E0088091DD0276
:104A90008F5F8093DD02DFBEF8010491E02FF0E02C
:104AA000EE0FFF1FEF54FD4F859194919093DC0220
:104AB0008093DB02F701E490E092DA0261E08AE0A1
:104AC0000E94E0080E94080B80E591E00E942A07FE
:104AD00084E38093740380E80E94D40B0E94730FD8
:104AE000882309F4F5C088E00E94D40B0E94600F6F
:104AF000883009F0EDC080E10E94D40B0E94600F65
:104B0000803109F0E5C080E00E94D40B0E94600F64
:104B1000182F8111DDC041E050E0BE016F5F7F4F73
:104B20008FE190E00E94C50D8981833009F0D0C0EB
:104B300080E48093DE0242E06EE170E0812F0E940B
:104B4000300C42E06FE170E0812F0E94300C1F5F5B
:104B5000143089F740E06EE170E0812F0E94300C44
:104B600040E06FE170E0812F0E94300C1F5F183031
:104B700089F781E08093DF0280E591E00E942A07B7
:104B800046E050E060E071E089E090E00E94240B94
:104B900084E991E09A8389831B821C821D821E8294
:104BA000CE0103960E94B50C809146039091470375
:104BB000DC0192961D921D921D921C929597FC010C
:104BC00016A217A210A611A69A961D921D921D92CA
:104BD0001C929D9740E65AEE60E070E046AB57AB02
:104BE00060AF71AF40EA5FE060E070E0DA964D934D
:104BF0005D936D937C93DD973E9624E1DF011D92DA
:104C00002A95E9F726E0E0E0F1E0DC011896019052
:104C10000D922A95E1F7FC01EE5BFF4F10820E9496
:104C20000220019709F0C1C080E591E00E942A07A7
:104C30000091460310914703B801625F7F4FCE0198
:104C400001960E94FF16CE0103960E94B50CB80192
:104C50006A5E7F4FCE0101960E94FF1644E050E04D
:104C6000BE016D5F7F4F81E090E00E94240BB80190
:104C70006E5E7F4FCE0101960E94FF1644E050E029
:104C8000BE016D5F7F4F85E090E00E94240BB8016C
:104C9000625E7F4FCE0101960E94FF168B819C8140
:104CA000AD81BE818093320490933304A093340489
:104CB000B09335040E9411097F7380910601909191
:104CC00007016827792770930701609306016DC07B
:104CD00087E38093740380E80E94D40B0E94730FD3
:104CE000882329F188E00E94D40B0E94600F88304D
:104CF000F1F480E10E94D40B0E94600F182F8031E4
:104D0000B1F480E00E94D40B0E94600F81110FC0AB
:104D100041E050E0BE016F5F7F4F89E390E00E9469
:104D2000C50D8981843019F41093DE0222CF83E30C
:104D30008093740380E80E94D40B0E94730F882331
:104D400091F180E10E94D40B0E94600F803159F5EF
:104D500082E10E94D40B0E94600F823121F580E035
:104D60000E94D40B0E94600F81111DC084E08093CB
:104D7000DE0215E561961FAF619741E050E0BE018C
:104D8000605B7F4F8BE190E00E94240B60961FAF29
:104D9000609741E050E0BE01615B7F4F8AE190E0A7
:104DA0000E94240BE6CE109274038EE494E00E94DD
:104DB000531265E073E085E793E00E94CD1B6AEE35
:104DC00072E085E793E00E94CD1B65EC72E085E719
:104DD00093E00E94CD1B84E991E09A8389831B8232
:104DE0001C821D821E8280E591E00E942A0744E019
:104DF00050E0BE016D5F7F4F8FE090E00E94C50DD7
:104E0000CE0101960E94AB1B88E199E20FB6F8949F
:104E1000A895809360000FBE90936000CE018296AB
:104E20000E94F01DCE01C1960E94F01DA8950E941F
:104E3000690900914C0310914D0320914E0330916C
:104E40004F03601B710B820B930B6031774281051E
:104E5000910528F4012B022B032B09F076C10E9447
:104E6000690960934C0370934D0380934E039093B4
:104E70004F0365EA7DE085E793E00E94CD1B84E95E
:104E800091E09A8389831B821C821D821E8280E5A9
:104E900091E00E942A0744E050E0BE016D5F7F4F21
:104EA0008FE090E00E94C50DCE0101960E94AB1BE1
:104EB000E0915904F0915A041386158614861286DF
:104EC0001186108617821682158214821382BE0103
:104ED0006E5D7F4F8091590490915A040E94470D56
:104EE00081116AC160E070E08EEF92EC609348033C
:104EF0007093490380934A0390934B036AE0CE0179
:104F0000C1960E94872164E6CE0182960E94872185
:104F100089A99AA9812C912C5401009721F00E9413
:104F200016304B015C018AA19BA1C12CD12C7601CA
:104F3000009721F00E9416306B017C0120914803FC
:104F40003091490340914A0350914B03C501B4018C
:104F50000E94C5354B015C01A70196010E94613694
:104F600018160CF089C169E97DE085E793E00E949D
:104F7000CD1B66EB71E088E494E00E94BA1D60E00E
:104F800086E00E949408E0904603F0904703E11405
:104F9000F10409F4D0C00E9469094B015C0167016A
:104FA0008EE3C80ED11CF60180819181A281B3816C
:104FB000A5019401281B390B4A0B5B0BCA01B901EF
:104FC000683E33E0730781059105A0F128EE33E0D8
:104FD00040E050E00E949435861A970AA80AB90A60
:104FE000D6018D929D92AD92BC921397F70186A542
:104FF00097A5A0A9B1A949015A01880C991CAA1C1E
:10500000BB1C88159905AA05BB0508F05FC116A64B
:1050100017A610AA11AAF70182A993A9A4A9B5A954
:1050200088159905AA05BB0508F059C112AA13AA4B
:1050300014AA15AAF70186A597A5A0A9B1A9892B3D
:105040008A2B8B2B09F054C1EE5BFF4F808183309C
:1050500009F04EC184E08083C7010E9402200196BE
:10506000D701D2964D915D916D917C91D597452B4D
:10507000462B472BA1F4F701EE5BFF4F2081233035
:1050800011F021110CC01082F7013E9684E1DF017E
:105090001D928A95E9F7C7010E940220039682308B
:1050A000910519F0049709F046C080E591E00E944F
:1050B0002A07E0904603F0904703B701625F7F4FF5
:1050C000CE0101960E94FF16CE0103960E94B50CF8
:1050D000B7016A5E7F4FCE0101960E94FF1644E041
:1050E00050E0BE016D5F7F4F81E090E00E94240B95
:1050F000B7016E5E7F4FCE0101960E94FF1644E01D
:1051000050E0BE016D5F7F4F85E090E00E94240B70
:10511000B701625E7F4FCE0101960E94FF168B8120
:105120009C81AD81BE818093320490933304A0931F
:105130003404B09335040E94170DCE0182960E946C
:10514000F01DCE01C1960E94F01D6EE474E0CE0108
:1051500082960E946E148EA5843008F08BC6CE0114
:1051600082960E94D40E882309F484C6CE018296CA
:105170000E943E15892B99F32DB63EB668EA71E080
:10518000CE01875B9F4F0E94DB1DCE0182960E945D
:10519000781697FDB0C08A30910509F4ACC08983B8
:1051A0001A8241E050E0BE016F5F7F4FCE01875B06
:1051B0009F4F0E94321DE9CF67E0CE0182960E9488
:1051C000750999A589138ECE8091590490915A043E
:1051D0000E94270A882309F485CEBE016F5F7F4FA6
:1051E000CE0182960E945F0A882309F47BCE68E094
:1051F000CE0101960E9475099985891373CE6A8143
:1052000070E0762F6627770F770F770F2981E8E018
:105210002E9F90011124262B372B8AA18031D1F4A7
:10522000688570E08F81AB01481B5109CA019695D2
:10523000982F8827979587950E946B36CB014097CA
:10524000B901F3E0660F771FFA95E1F760789C01EA
:10525000260F371F213854EE35070CF443CEB90121
:10526000330F880B990B0E94F53320E030E040E0CB
:105270005CE30E9454343ACEC701B6019058A501B0
:1052800094010E946136181674F46DE87DE085E79C
:1052900093E00E94CD1B6AEB71E088E494E00E94E9
:1052A000BA1D61E06DCE69E07DE085E793E00E9484
:1052B000CD1B69EE7CE085E793E00E94630768E41C
:1052C00074E085E793E00E94BB1B5DCE821B930BCD
:1052D000A40BB50B86A797A7A0ABB1AB9CCE821B46
:1052E000930BA40BB50B82AB93ABA4ABB5ABA2CE27
:1052F00090E080E0B5CE2F96EEACFFAC2F97C701C3
:105300000196EDB7FEB7E81BF90B0FB6F894FEBF98
:105310000FBEEDBF2DB73EB72F5F3F4F6901E114C0
:10532000F10479F031E0E31AF1082B966EAD7FAD10
:105330002B97A701C6010E94BD38F601EE0DFF1D97
:10534000108266E771E0C6010E941A3066E771E0DC
:1053500090E080E00E941A307C01BC01CE010196F1
:105360000E94DB1D6EEB71E0CE0101960E94DF1BF7
:10537000182FCE0101960E94F01D112309F4F2C2EC
:105380000E94690920E03CE546E255E00E94943520
:1053900065962CAF3DAF4EAF5FAF65970E94690930
:1053A00020E03CE546E255E00E94943520E83EEEE0
:1053B00046E350E00E94943569962CAF3DAF4EAF66
:1053C0005FAF69970E94690920E03CE546E255E03D
:1053D0000E94943520E83EEE46E350E00E9494356A
:1053E00020E63AEE40E050E00E9494356D962CAFF6
:1053F0003DAF4EAF5FAF6D970E94690920E03CE57D
:1054000046E255E00E94943520E83EEE46E350E047
:105410000E94943520E63AEE40E050E00E94943538
:1054200028EE33E040E050E00E94943549015A01F3
:1054300069ED7CE0CE0182960E94CD1B61EC7CE0A0
:10544000CE0182960E94CD1BCE0182960E94A71BA0
:1054500061EB7CE0CE0182960E94CD1B6AEA7CE083
:10546000CE0182960E94CD1B63EA7CE0CE0182963B
:105470000E94CD1B63E87CE0CE0182960E94CD1B8A
:1054800062E67CE0CE0182960E94CD1B6AE07CE061
:10549000CE0182960E94CD1B61EB7BE0CE0182960D
:1054A0000E94CD1B6FE57BE0CE0182960E94CD1B52
:1054B00061E57BE0CE0182960E94CD1B62E17BE03C
:1054C000CE0182960E94CD1B68E07BE0CE018296E1
:1054D0000E94CD1B61EF7AE0CE0182960E94CD1B27
:1054E00061EC7AE0CE0182960E94CD1B65E97AE0FC
:1054F000CE0182960E94CD1B60E57AE0CE018296B5
:105500000E94CD1B6BEE79E0CE0182960E94CD1BEE
:105510006BEC79E0CE0182960E94CD1B68EB79E0BE
:10552000CE0182960E94CD1B6CE879E0CE01829676
:105530000E94CD1B69E779E0CE0182960E94CD1BC7
:105540006BE579E0CE0182960E94CD1B65E179E0A2
:10555000CE0182960E94CD1B6CE079E0CE0182964E
:105560000E94CD1B61EB78E0CE0182960E94CD1B9C
:105570006FEA78E0CE0182960E94CD1B60EA78E067
:10558000CE0182960E94CD1B66E978E0CE0182961C
:105590000E94CD1B6CE878E0CE0182960E94CD1B64
:1055A00069E578E0CE0182960E94CD1B61E578E046
:1055B000CE0182960E94CD1B6AE478E0CE018296ED
:1055C0000E94CD1B6DEF77E0CE0182960E94CD1B2D
:1055D00063ED77E0CE0182960E94CD1B6AE0CE019A
:1055E00001960E94872160EC71E0CE01C1960E9475
:1055F000DB1DBE016F5F7F4FCE01C1960E94861DED
:105600006CE072E00E94701DBC01CE0182960E9487
:10561000BB1BCE01C1960E94F01DCE0101960E94D7
:10562000F01D64E6CE0101960E94872162E172E0DE
:10563000CE01C1960E94DB1DBE016F5F7F4FCE0180
:10564000C1960E94861D6CE072E00E94701DBC0134
:10565000CE0182960E94BB1BCE01C1960E94F01D16
:10566000CE0101960E94F01D63E977E0CE0182969B
:105670000E94CD1B67E877E0CE0182960E94CD1B89
:1056800066EB71E088E494E00E94DF1B882331F030
:1056900068E577E0CE0182960E94CD1B6AEB71E04F
:1056A00088E494E00E94DF1B882331F06BE277E00E
:1056B000CE0182960E94CD1B60E177E0CE018296FA
:1056C0000E94CD1B6FED76E0CE0182960E946307AB
:1056D000C0904803D0904903E0904A03F0904B03F8
:1056E000A7019601C701B6010E9466366BE572E01C
:1056F00081111BC026013701E89477F82FEF3FEFA7
:105700004FE75FE7C301B2010E9466368111ACC06A
:105710002FEF3FEF4FE75FE7C301B2010E94EE3387
:1057200018160CF0A1C06FE572E0CE0182960E94BF
:10573000021B6AED76E0CE0182960E94CD1B65EDDC
:1057400076E0CE0182960E94630765EC76E0CE019A
:1057500082960E9463072AE065964CAD5DAD6EAD02
:105760007FAD6597CE0182960E94111B63EC76E0B7
:10577000CE0182960E94630761EC76E0CE018296AC
:105780000E9463072AE069964CAD5DAD6EAD7FADBA
:105790006997CE0182960E94111B6FEB76E0CE01D5
:1057A00082960E9463076DEB76E0CE0182960E949E
:1057B00063072AE06D964CAD5DAD6EAD7FAD6D9724
:1057C000CE0182960E94111B6BEB76E0CE01829691
:1057D0000E94630769EB76E0CE0182960E94630720
:1057E0002AE0B501A401CE0182960E94111B67EB4D
:1057F00076E0CE0182960E94630767E476E0CE01F0
:1058000082960E94CD1B63E176E0CE0182960E94D3
:10581000CD1B69E076E0CE0182960E94CD1B61E04F
:1058200076E0CE0182960E94CD1B69EF75E0CE0135
:1058300082960E94CD1B61E070E080E090E00E94C3
:105840003609CE0182960E94F60ECE0182960E9403
:105850005213CE01875B9F4F0E94F01D0FB6F89444
:105860003EBE0FBE2DBE7BCC2FEF3FEF4FE75FE478
:10587000C701B6010E94613618161CF463E672E097
:1058800054CF2FEF3FEF4FE75FECC701B6010E9407
:10589000EE3387FDF3CF20E030E0A901C701B60168
:1058A0000E94EE3387FF09C06DE2CE0182960E940E
:1058B000840CF7FAF094F7F8F0942AE037ED43EA15
:1058C0005BE3C701B6010E94C6352B013C010E9473
:1058D00032366B017C010E94F3339B01AC01C301A2
:1058E000B2010E94C5352B013C012AE0B701A60197
:1058F000CE0182960E94111B6EE2CE0182960E941A
:10590000840C20E030E040E251E4C301B2010E9487
:1059100054342B013C010E9432366B01F12CE12CF6
:105920002AE0B701A601CE0182960E94111BC70191
:10593000B6010E94F3339B01AC01C301B2010E9486
:10594000C53520E030E040E251E40E9454340E942A
:105950003236AB0170E060E02AE0CE0182960E9410
:10596000111BE7CEB701CE0101960E94DB1D67E651
:1059700072E0CE0101960E94DF1B182FCE01019626
:105980000E94F01D112309F483C069EE75E0CE0179
:1059900082960E94CD1B6AEC75E0CE0182960E9431
:1059A000CD1BCE0182960E94A71B68EC75E0CE014C
:1059B00082960E94CD1B6AEB75E0CE0182960E9412
:1059C000630764E6CE0101960E948721BE016F5FE6
:1059D0007F4FCE0182960E945507CE0101960E940C
:1059E000F01D68EB75E0CE0182960E94CD1B62EA45
:1059F00075E0CE0182960E9463076AE0CE010196AF
:105A00000E948721BE016F5F7F4FCE0182960E9468
:105A10005507CE0101960E94F01D60EA75E0CE01A7
:105A200082960E94CD1B6AE875E0CE0182960E94A4
:105A30006307609148037091490380914A039091F4
:105A40004B031AAA19AA1CAA1BAA1EAA1DAA8E01D8
:105A50000F5F1F4F22E044E00E94542F009799F0FF
:105A6000BC01CE01C1960E94BA1DBE016F5C7F4F82
:105A7000CE0182960E94BB1BCE01C1960E94F01DF2
:105A800068E875E0D4CECE01C1960E945E1DEDCFD0
:105A9000B701CE0101960E94DB1D66E772E0CE01E0
:105AA00001960E94DF1B182FCE0101960E94F01D67
:105AB000112329F0CE0182960E94F60ECACEB701BC
:105AC000CE018D5B9F4F0E94DB1D63E872E0CE012B
:105AD00001960E94DB1D4D815E8129968EAD9FADA2
