:100000000C9400070C9428070C9428070C942807DC
:100010000C9428070C9428070C9428070C942807A4
:100020000C9428070C9428070C9428070C94280794
:100030000C9428070C9428070C9428070C94280784
:100040000C94D91A0C9428070C94A71A0C94811AB2
:100050000C9428070C9428070C9428070C94280764
:100060000C9428070C9428074E414E494E49545988
:10007000494E46CDCCCC3D0AD7233C17B7D1387773
:10008000CC2B329595E6241FB14F0A000020410089
:1000900000C84200401C4620BCBE4CCA1B0E5AAED3
:1000A000C59D7400407A10F35A00A0724E180900E2
:1000B00010A5D4E80000E87648170000E40B5402CD
:1000C0000000CA9A3B000000E1F505000080969808
:1000D00000000040420F000000A086010000001058
:1000E0002700000000E8030000000064000000009A
:1000F000000A00000000000100000000002C76D87B
:1001000088DC674F0823DFC1DFAE59E1B1B796E560
:10011000E3E453C63AE651997696E8E6C28426EBC4
:10012000898C9B62ED407C6FFCEFBC9C9F40F2BAD7
:10013000A56FA5F490055A2AF75C936B6CF9676D6F
:10014000C11BFCE0E40D47FEF520E6B500D0ED90C4
:100150002E0300943577050080841E080000204E91
:100160000A000000C80C333333330F986E1283112A
:1001700041EF8D2114893BE65516CFFEE6DB18D101
:10018000844B381BF77C1D901DA4BBE424203284D3
:10019000725E228100C9F124ECA1E53D27005EBC1E
:1001A000E2613FDD83C29C7E20A3FD1F419DC321F0
:1001B0007FFCA2401E5F01E3BD3E6082DC237D9F89
:1001C000C1421CFEA0E1BF5D0380DE3C62BEE002D6
:1001D0005CDF81633D7C22C09E1D43A1FF4618FA6F
:1001E000A427799BC584DA3866E5BB5907DB8567A8
:1001F00039BAE406581947A5FB7826C49A653BD955
:1002000087045AB8E6A7F91B45C6987A24F8A6448D
:100210001A99C7257B3A6486D85B05E7B98CD2303A
:100220006EEDB3510F4E10F2AC2F7193CD114FAD57
:10023000F3702ECC92D38D6F31B2EC0E50AFF11320
:100240004DCE90722C6D33D18F0C52B0EE326C8E3D
:10025000D0530DEFB1F0AE4C1291CF2D73CA9476FE
:1002600028ABF517490856B4EA6937D58B5709EB1F
:10027000B536688AD495CB2977F4AA4816E9B755DC
:100280000B88D6346A2B7597C94A14F6A8742AC805
:1002900096154BA9F7B6E80A54D7896B35000000CC
:1002A00000250028002B00000000080002010000CB
:1002B000030407000000000000000049502D4164C5
:1002C0007265737365206465732045746865726E2A
:1002D00065742D546865726D6F73746174733A0040
:1002E0004275696C6420312E302E34207A203138EA
:1002F0002E20536570203230323100576562616EB6
:1003000077656E64756E672065727374656C6C7466
:100310003A204D617274696E2043686C65626F7635
:10032000656300485454502F312E3120343034202E
:100330004E6F7420466F756E64003C2F68746D6C50
:100340003E003C2F626F64793E003C623E556D6C0E
:10035000656974756E67202E2E2E2042697474654F
:100360002077617274656E3C2F623E3C2F63656E30
:100370007465723E003C68333E3C666F6E74206369
:100380006F6C6F723D27726564273E45696E6765C5
:10039000676562656E6520446174656E2073696E81
:1003A00064206B65696E65205A61686C656E2021FA
:1003B00021212042697474652076657273756368C3
:1003C000656E20536965206573206E6163682064E3
:1003D000657220556D6C656974756E672065726E07
:1003E0006575742E3C2F666F6E743E3C2F68333EED
:1003F000003C63656E7465723E3C68333E446572D2
:10040000205365727665722068617420446174655A
:100410006E20766F6D20466F726D756C617220650F
:100420007268616C74656E3A3C2F68333E003C62C2
:100430006F64793E003C2F686561643E003C7469DE
:10044000746C653E485454502077656273657276CB
:100450006572202D2041726475696E6F202B2045D6
:10046000746865726E65743C2F7469746C653E00C7
:100470003C6D65746120687474702D657175697662
:100480003D27526566726573682720636F6E7465D9
:100490006E743D27353B2075726C3D2F27202F3E13
:1004A000003C6D65746120636861727365743D27FB
:1004B0007574662D38273E003C686561643E003CDB
:1004C00068746D6C3E003C21444F435459504520A4
:1004D00068746D6C3E00436F6E74656E742D547954
:1004E00070653A20746578742F68746D6C00485498
:1004F00054502F312E3120323030204F4B00426586
:100500006E75747A657265696E676162652066C32F
:10051000BC7220546173746520666E616D65322013
:10052000284879737465726573652920697374202E
:100530006B65696E65205A61686C210042656E7555
:10054000747A657265696E676162652066C3BC72A4
:1005500020546173746520666E616D6520285A6948
:10056000656C74656D70657261747572292069734C
:1005700074206B65696E65205A61686C21007D008E
:100580002241637475616C5F54656D70657261744E
:10059000757265223A002C00225461726765745F9F
:1005A00054656D7065726174757265223A002C0035
:1005B0002248797374657265736973223A007B000F
:1005C000436F6E74656E742D547970653A20617056
:1005D000706C69636174696F6E2F6A736F6E004827
:1005E0005454502F312E3120323030204F4B003CAC
:1005F0002F68746D6C3E003C2F626F64793E003C46
:100600002F63656E7465723E003C68343E467265C9
:1006100069652056657273696F6E202D20312E300A
:100620002E34206275696C643A2031382E2053656F
:10063000702E20323032313C2F68343E003C68331B
:100640003E4175746F723A204D617274696E204339
:10065000686C65626F766563202D206D61727469C8
:100660006E697573393640676D61696C2E636F6DA5
:10067000202D2068747470733A2F2F6D6172746925
:100680006E69757339362E6769746875622E696F85
:100690002F7465726D6F737461742D657468657203
:1006A0006E65742F64652F3C2F68333E0073002005
:1006B000006D0020006800200064003C623E557020
:1006C00074696D653A203C2F623E003C68723E00C2
:1006D00020C2B043003C623E416B7475656C6C6532
:1006E0002054656D70657261747572206465732045
:1006F000445331384232302D53656E736F72733A02
:100700003C2F623E20003C6469762069643D226390
:100710006F756E74646F776E223E3C2F6469763E0F
:10072000003C623E3C666F6E7420636F6C6F723D7E
:1007300027726564273E41757367616E673A204191
:1007400075733C2F666F6E743E3C2F623E003C62B8
:100750003E3C666F6E7420636F6C6F723D276772EC
:1007600065656E273E41757367616E673A2045691E
:100770006E3C2F666F6E743E3C2F623E003C2F66CF
:100780006F726D3E3C68723E003C696E70757420FD
:10079000747970653D277375626D69742720636C89
:1007A0006173733D2762746E2062746E2D7375637E
:1007B00063657373272076616C75653D27536368A5
:1007C00072656962656E273E003C666F726D2061DE
:1007D0006374696F6E3D272F616374696F6E2E6855
:1007E000746D6C27206D6574686F643D2767657450
:1007F000273E003C63656E7465723E3C68333E4440
:100800006174656E2066C3BC722057656273657241
:100810007665722065696E676562656E2028776906
:10082000726420696D20454550524F4D20676573B5
:100830007065696368657274293A3C2F68333E00BD
:100840003C626F64793E003C2F686561643E003C09
:100850007469746C653E48545450207765627365C2
:1008600072766572202D2041726475696E6F202B3F
:100870002045746865726E65743C2F7469746C658C
:100880003E003C2F7363726970743E007D2C2031F2
:10089000303030293B0074696D656C656674202DBD
:1008A0003D20313B007D00646F63756D656E742E75
:1008B000676574456C656D656E744279496428227C
:1008C000636F756E74646F776E22292E696E6E6524
:1008D0007248544D4C203D2074696D656C6566749A
:1008E000202B20222053656B756E64656E207A750F
:1008F0006D20416B7475616C6973696572656E22F8
:100900003B007D20656C7365207B00646F63756DB3
:10091000656E742E676574456C656D656E7442799D
:1009200049642822636F756E74646F776E22292E76
:10093000696E6E657248544D4C203D2022416B74A7
:1009400075616C6973696572756E672E2E2E223B18
:1009500000636C656172496E74657276616C2864BF
:100960006F776E6C6F616454696D6572293B0069C5
:10097000662874696D656C656674203C3D2030297D
:100980007B0076617220646F776E6C6F616454696E
:100990006D6572203D20736574496E746572766171
:1009A0006C2866756E6374696F6E28297B007661AA
:1009B000722074696D656C656674203D2033303B30
:1009C000003C73637269707420747970653D27749C
:1009D0006578742F6A617661736372697074273EFB
:1009E000003C6C696E6B2072656C3D277374796C8A
:1009F0006573686565742720687265663D2768744D
:100A00007470733A2F2F6D617863646E2E626F6F0E
:100A100074737472617063646E2E636F6D2F626F96
:100A20006F7473747261702F332E342E312F637391
:100A3000732F626F6F7473747261702E6D696E2E96
:100A4000637373273E003C6D657461206E616D6554
:100A50003D2776696577706F72742720636F6E74B7
:100A6000656E743D2777696474683D646576696373
:100A7000652D77696474682C20696E697469616C8E
:100A80002D7363616C653D31273E003C6D6574617B
:100A900020687474702D65717569763D275265669E
:100AA000726573682720636F6E74656E743D2733BB
:100AB00030273B202F3E003C6D657461206E616DD8
:100AC000653D27617574686F722720636F6E74656A
:100AD0006E743D274D617274696E2043686C656267
:100AE0006F766563273E003C6D65746120636861C5
:100AF000727365743D277574662D38273E003C2F50
:100B00007363726970743E00736D6172746C6F6FA1
:100B10006B2827696E6974272C202764623530653D
:100B200066653966666632383061313764623532FF
:100B30006238326265323231323430636262643339
:100B400064626527293B007D2928646F63756D65A4
:100B50006E74293B00632E636861727365743D2770
:100B60007574662D38273B632E7372633D27687456
:100B70007470733A2F2F7265632E736D6172746C8B
:100B80006F6F6B2E636F6D2F7265636F726465722A
:100B90002E6A73273B682E617070656E64436869C6
:100BA0006C642863293B0076617220633D642E6388
:100BB0007265617465456C656D656E742827736335
:100BC0007269707427293B6F2E6170693D6E65777D
:100BD00020417272617928293B632E6173796E63BB
:100BE0003D747275653B632E747970653D2774653D
:100BF00078742F6A617661736372697074273B0041
:100C0000766172206F3D736D6172746C6F6F6B3DB6
:100C100066756E6374696F6E28297B206F2E617014
:100C2000692E7075736828617267756D656E74736F
:100C3000297D2C683D642E676574456C656D656E15
:100C4000747342795461674E616D652827686561E8
:100C50006427295B305D3B0077696E646F772E7384
:100C60006D6172746C6F6F6B7C7C2866756E6374DB
:100C7000696F6E286429207B003C7363726970740D
:100C800020747970653D27746578742F6A61766188
:100C9000736372697074273E003C686561643E004E
:100CA0003C68746D6C3E003C21444F4354595045A0
:100CB0002068746D6C3E00436F6E74656E742D54C5
:100CC0007970653A20746578742F68746D6C00488B
:100CD0005454502F312E3120323030204F4B0041B0
:100CE0006B7475656C6C65204C65697374756E67A3
:100CF00020646573204B657373656C733A20004400
:100D0000696520446966666572656E7A207A7769DE
:100D1000736368656E20536F6C6C2D20756E642054
:100D20004973742D54656D70657261747572206CB1
:100D300069656774206E6963687420C3BC626572FC
:100D4000206F64657220756E746572206465722010
:100D50004879737465726573652E2044657220410D
:100D6000757367616E67737A757374616E6420C39F
:100D7000A46E646572742073696368206E69636829
:100D8000742E0041757367616E6720617573004151
:100D9000757367616E672065696E0049502D416407
:100DA0007265737365206465732045746865726E3F
:100DB00065742D546865726D6F73746174733A0055
:100DC00000000000240027002A000000000023008B
:100DD000260029000404040404040404020202029C
:100DE00002020303030303030102040810204080EE
:100DF000010204081020010204081020231B3825DA
:100E000011241FBECFEFD8E0DEBFCDBF12E0A0E0BF
:100E1000B1E0E0ECFBE502C005900D92A43BB10708
:100E2000D9F723E0A4EBB2E001C01D92AB3EB207BC
:100E3000E1F716E0CFEFD6E004C02197FE010E9453
:100E4000B02BCE3FD107C9F70E94FE1B0C94D32DC7
:100E50000C9400000895089521E0FC0184858830F9
:100E600009F420E0822F0895FC0124813581621766
:100E7000730748F480819181009729F0860F971FAE
:100E8000FC018081089580E00895DB0114964D9166
:100E90005C9115976D917C91DC01ED91FC91028044
:100EA000F381E02D0994EF92FF920F931F93CF935C
:100EB000DF938C017B01D0E0C0E0F701EC0FFD1F58
:100EC0006491662361F0D801ED91FC910190F0816D
:100ED000E02DC8010995892B11F02196EECFCE01A6
:100EE000DF91CF911F910F91FF90EF900895AF92F6
:100EF000BF92CF92DF92EF92FF920F931F93CF9307
:100F0000DF936C017B018B01040F151FEB015E0168
:100F1000AE18BF08C017D10759F06991D601ED91FD
:100F2000FC910190F081E02DC6010995892B79F79C
:100F3000C501DF91CF911F910F91FF90EF90DF904E
:100F4000CF90BF90AF900895FC01538D448D252F15
:100F500030E0842F90E0821B930B541710F0CF9653
:100F6000089501970895FC01918D828D981761F085
:100F7000A28DAE0FBF2FB11D5D968C91928D9F5F9C
:100F80009F73928F90E008958FEF9FEF0895FC017B
:100F9000918D828D981731F0828DE80FF11D858D2E
:100FA00090E008958FEF9FEF0895FC01918D228DC1
:100FB000892F90E0805C9F4F821B91098F73992746
:100FC00008958AED92E00E94D50721E0892B09F46B
:100FD00020E0822F089580E090E0892B29F00E9484
:100FE000E10781110C9400000895FC01A48DA80F65
:100FF000B92FB11DA35ABF4F2C91848D90E001965B
:101000008F739927848FA689B7892C93A089B1897A
:101010008C91837080648C93938D848D981306C01B
:101020000288F389E02D80818F7D80830895EF927F
:10103000FF920F931F93CF93DF93EC0181E0888F92
:101040009B8D8C8D98131AC0E889F989808185FF62
:1010500015C09FB7F894EE89FF896083E889F98904
:1010600080818370806480839FBF81E090E0DF9106
:10107000CF911F910F91FF90EF900895F62E0B8D59
:1010800010E00F5F1F4F0F731127E02E8C8D8E1114
:101090000CC00FB607FCFACFE889F989808185FF7B
:1010A000F5CFCE010E94F507F1CFEB8DEC0FFD2FB0
:1010B000F11DE35AFF4FF0829FB7F8940B8FEA8936
:1010C000FB8980818062CFCFCF93DF93EC01888D45
:1010D0008823B9F0AA89BB89E889F9898C9185FDB3
:1010E00003C0808186FD0DC00FB607FCF7CF8C9141
:1010F00085FFF2CF808185FFEDCFCE010E94F507FD
:10110000E9CFDF91CF91089590E0FC01E955FD4FC3
:101110002491FC01E851F24F3491FC01EC52F24F62
:10112000E491EE23C9F0222339F0233001F1A8F431
:10113000213019F1223029F1F0E0EE0FFF1FE356C4
:10114000FD4FA591B4918FB7F894EC91611126C031
:1011500030953E233C938FBF08952730A9F0283067
:10116000C9F0243049F7809180008F7D03C08091C1
:1011700080008F7780938000DFCF84B58F7784BD28
:10118000DBCF84B58F7DFBCF8091B0008F778093CC
:10119000B000D2CF8091B0008F7DF9CF3E2BDACF57
:1011A000CF93DF9390E0FC01E851F24F24918C52F1
:1011B000924FFC0184918823D1F090E0880F991F11
:1011C000FC01E054F24FA591B491FC01E356FD4FB0
:1011D000C591D49161110EC09FB7F8948C91E22F04
:1011E000E0958E238C932881E223E8839FBFDF91D3
:1011F000CF9108958FB7F894EC91E22BEC938FBFC9
:10120000F6CF3FB7F8948091BA029091BB02A091BB
:10121000BC02B091BD0226B5A89B05C02F3F19F0B6
:101220000196A11DB11D3FBFBA2FA92F982F882766
:10123000BC01CD01620F711D811D911D42E0660F41
:10124000771F881F991F4A95D1F708958F929F9213
:10125000AF92BF92CF92DF92EF92FF926B017C012F
:101260000E9401094B015C01C114D104E104F104A5
:10127000B9F00E940109681979098A099B09683E39
:1012800073408105910580F321E0C21AD108E1087D
:10129000F10888EE880E83E0981EA11CB11CE4CFF3
:1012A000FF90EF90DF90CF90BF90AF909F908F9086
:1012B00008952FB7F8946091B6027091B7028091AB
:1012C000B8029091B9022FBF0895DC0180E061500F
:1012D00038F0ED91E827F0E0E356FE4F8491F7CF28
:1012E0000895DC012C911196ED91FC91F894818187
:1012F000822B81839281322F30959323928387E0D2
:1013000090E00197F1F781818323818383E290E06C
:101310000197F1F790817894EFECF0E03197F1F7D5
:10132000922381E009F480E00895FC01908101801E
:10133000F281E02D292F209560FF14C0F89482815E
:10134000822382838181892B8183A3E2B0E011977C
:10135000F1F78281982B9283789487ED90E0019742
:10136000F1F70895F8948281822382838181892B09
:101370008183AFEFB0E01197F1F78281982B9283D0
:1013800078948FE090E0EBCFDF92EF92FF920F9393
:101390001F93CF93DF93EC01D62EE42E08E010E0EC
:1013A000FF24F39461E08D2D8F2109F460E0CE01DC
:1013B0000E949509FF0C01501109A1F7E11010C01E
:1013C000F894E981FA8191818881809589238183CC
:1013D000E981FA819281888180958923828378943A
:1013E000DF91CF911F910F91FF90EF90DF900895C3
:1013F000EF92FF920F931F93CF93DF938C017B01AA
:1014000040E065E50E94C409E70188E0E80EF11CB0
:10141000699140E0C8010E94C409CE15DF05C1F7FB
:10142000DF91CF911F910F91FF90EF900895FC01F4
:1014300090810180F281E02DF8948181292F2095FF
:101440008223818378943DE743E050E0315029F1D5
:10145000DA011197F1F780818923C1F3F894828131
:10146000822382838181892B81837894ABE7B7E0E3
:101470001197F1F7F894818182238183A3E1B1E090
:101480001197F1F78081982381E009F080E078944A
:10149000E3E6F6E03197F1F7089580E00895AF9222
:1014A000BF92CF92DF92EF92FF920F931F93CF9351
:1014B000DF938B01BC018091C1039091C2030E9414
:1014C000F80940E06EEB8091C1039091C2030E9445
:1014D000C409E801680189E0C80ED11CA090C103CD
:1014E000B090C20388E0E82EF12C10E001E0C501C5
:1014F0000E9471098111102B000F81E0E81AF10898
:10150000B1F71993CC16DD0649F78091C10390918C
:10151000C2030E94170A91E0813009F090E0892F00
:10152000DF91CF911F910F91FF90EF90DF90CF90BF
:10153000BF90AF9008950F931F93CF93DF93CDB7D4
:10154000DEB729970FB6F894DEBF0FBECDBF8C0172
:101550008091C1039091C2030E94170A811102C0B9
:1015600080E01FC0BE016F5F7F4FC8010E944F0A1D
:101570008823B1F368E0CE0101960E946509998540
:101580008913EECF8D818F33B9F020F48F3141F77D
:1015900089E007C08F3521F08F3711F78CE001C04B
:1015A0008BE029960FB6F894DEBF0FBECDBFDF915A
:1015B000CF911F910F9108958AE0F3CF61E0809160
:1015C000D7020C94840860E08091D7020C948408C0
:1015D00008958EBD00000DB407FEFDCF8EB50895B1
:1015E0008CBD9DBD0895DF92EF92FF920F931F93E4
:1015F000CF93DF93D82FD92EC62F7A0189018091FE
:101600007703909178030E94F00A0E94E30A8D2DDF
:101610000E94E90A8D2F0E94E90A8C2F0E94E90A94
:10162000E701E00EF11E80E00E94E90A8993EC16C2
:10163000FD06C9F70E94DE0AC801DF91CF911F9114
:101640000F91FF90EF90DF900895CF93DF93D82F05
:10165000C62F80917703909178030E94F00A0E9430
:10166000E30A80E00E94E90A8D2F0E94E90A8C2F8C
:101670000E94E90A80E00E94E90AC82F0E94DE0A5F
:101680008C2FDF91CF910895DF92EF92FF920F930D
:101690001F93CF93DF93D82FD92EC62F7A018901BC
:1016A00080917703909178030E94F00A0E94E30AE8
:1016B0008D2D0E94E90A8D2F0E94E90A8C2F0E942D
:1016C000E90AE701E00EF11ECE15DF0521F0899150
:1016D0000E94E90AF9CF0E94DE0AC801DF91CF918A
:1016E0001F910F91FF90EF90DF9008951F93CF937C
:1016F000DF93182FD62FC42F809177039091780312
:101700000E94F00A0E94E30A80E00E94E90A812F09
:101710000E94E90A8D2F0E94E90A8C2F0E94E90A93
:101720000E94DE0A81E0DF91CF911F910895CF9250
:10173000DF92EF92FF920F931F93CF93DF93CDB77A
:10174000DEB7C254D1090FB6F894DEBF0FBECDBFCD
:10175000FC0182819381A481B58123968CAF9DAFDA
:10176000AEAFBFAF239721E023962FAF23972396E9
:101770004CAD5DAD6EAD7FAD23974BAB5CAB6DAB50
:101780007EAB89AF9AAFABAFBCAF8DA79EA7AFA71B
:10179000B8AB28AB4DA55EA56FA578A94FA358A7F8
:1017A00069A77AA72EAB4BA95CA96DA97EA949A30D
:1017B0005AA36BA37CA38B8F9C8FAD8FBE8F4EE8FB
:1017C00051E05C8B4B8B3FEF3D8B3E8B3F8B188EFC
:1017D0005E874D872AA7CFA0D8A4E9A4FAA4CF8614
:1017E000D88AE98AFA8A2CA309A11AA12BA13CA1C3
:1017F00009871A872B873C875A8349838B839C836D
:10180000AD83BE8310919D031093D70268EE73E001
:1018100080E090E00E94260961E0812F0E94D008BC
:101820001FB7F8948091D602811127C0EEEDFDE03C
:101830008491E2EFFDE09491E82FF0E0EE0FFF1FBE
:10184000E054F24FA591B491EC91E92321F461E0C9
:101850008AE00E94840861E08AE00E94D0088CB58A
:1018600080618CBD8CB580648CBD61E08DE00E9490
:10187000D00861E08BE00E94D0088091D6028F5F93
:101880008093D6021FBF60E090E080E00E94250BAD
:10189000482F406864E090E080E00E94760B1CE0F6
:1018A00088E0E82EF12C42E0612F8EE190E00E946A
:1018B000760B42E0612F8FE190E00E94760BF1E021
:1018C000EF1AF108105EE114F10469F726E030E048
:1018D00046E051E064E089E090E00E94440B24E09F
:1018E00030E0AE014D5F5F4F64E08FE090E00E941A
:1018F000440B24E030E0AE01415F5F4F64E081E0E3
:1019000090E00E94440B24E030E0AE014B5E5F4F5C
:1019100064E085E090E00E94440B81E08C8789853B
:101920009A85AB85BC858093930390939403A09391
:101930009503B0939603CE5BDF4F0FB6F894DEBFEE
:101940000FBECDBFDF91CF911F910F91FF90EF9010
:10195000DF90CF9008959B018295880F807E6CE088
:10196000680FC9010C94760BCF93DF93EC01898D3E
:101970009A8D892B41F0E881F9810284F385E02D6D
:10198000CE010995F4CFDF91CF910895CF93DF93E6
:101990001F92CDB7DEB76983DC01ED91FC91028027
:1019A000F381E02D41E050E0BE016F5F7F4F09956C
:1019B0000F90DF91CF9108951F93CF93DF93FB0199
:1019C000DC0158961C921E9257972281211109C062
:1019D0002381211106C02481211103C025812223E6
:1019E00039F14115510521F1EA01DC011C961C91E8
:1019F000AF014E5F5F4F612F6295660F607E645F3F
:101A000024E030E08CE090E00E94440B4D2F60E138
:101A100070E0812F0E94AB0C4C2F61E170E0812FB0
:101A20000E94AB0C81E090E0DF91CF911F9108956F
:101A300090E080E0F9CFFC01818D928D0895FC014A
:101A40008589968908952EE831E0FC013183208351
:101A5000FB014189528963897489FC014283538364
:101A600064837583089580E00895CF93DF931F9278
:101A7000CDB7DEB76983DC01ED91FC910280F38183
:101A8000E02D41E050E0BE016F5F7F4F09950F9060
:101A9000DF91CF9108950895FC019485FB01848521
:101AA000981303C081E0983009F480E00895CF9343
:101AB000DF931F92CDB7DEB76983DC01ED91FC9116
:101AC0000280F381E02D41E050E0BE016F5F7F4F67
:101AD00009950F90DF91CF910895DC01ED91FC9174
:101AE000028CF38DE02D099591E0892708959B01E3
:101AF0008295880F807E68E0680FC9010C94250BE1
:101B0000CF93C82F462F61E070E00E94AB0C61E0DC
:101B100070E08C2F0E94770D8111F9CFCF9108953D
:101B2000CF93C82F60E170E00E94800D4FEF62E01C
:101B300070E08C2FCF910C94AB0C0F931F93CF932D
:101B4000DF93C82FD62F8A010E94900D4D2F70E091
:101B500060E08C2F0E94AB0C01151105B9F0412FEC
:101B600064E070E08C2F0E94AB0C402F65E070E0C9
:101B70008C2F0E94AB0C61E070E08C2F0E94800DD6
:101B800081E0DF91CF911F910F9108950091D802CC
:101B90001091D9020F5F1F4F1093D9020093D80202
:101BA000DECFCF93DF93EC018C85883061F00E940B
:101BB000900DEC85F0E0EE0FFF1FE254FD4F118217
:101BC000108288E08C87DF91CF910895BF92CF92E9
:101BD000DF92EF92FF920F931F93CF93DF93B82E74
:101BE0006B017A01890164E270E00E94770DC82FD1
:101BF00065E270E08B2D0E94770DD0E0DC2FCC27C2
:101C00008C0D9D2D911DC80FD91F6B2D6295660FF0
:101C1000607E6C5E9801A701CE010E94440BC00F4C
:101C2000D11F4D2F64E270E08B2D0E94AB0C4C2F26
:101C300065E270E08B2DDF91CF911F910F91FF90A6
:101C4000EF90DF90CF90BF900C94AB0CCF92DF92CF
:101C5000EF92FF920F931F93CF93DF93D82E7B01C8
:101C60008A01C22E68E270E00E94770DC82FD0E092
:101C7000DC2FCC2769E270E08D2D0E94770DC80F14
:101C8000D11D6D2D6295660F607E685E9801A7017B
:101C9000CE010E94F30AC11016C0C00FD11F4D2FF4
:101CA00068E270E08D2D0E94AB0C4C2F69E270E071
:101CB0008D2DDF91CF911F910F91FF90EF90DF90CD
:101CC000CF900C94AB0CDF91CF911F910F91FF90AF
:101CD000EF90DF90CF9008950F931F93CF93DF93F2
:101CE0001F92CDB7DEB78C01DC01ED91FC91008431
:101CF000F185E02D0995892B91F021E041E050E03C
:101D0000BE016F5F7F4FF80184850E94260E898196
:101D100090E00F90DF91CF911F910F9108958FEF79
:101D20009FEFF7CFCF93DF931F92CDB7DEB7FC01C4
:101D3000218D328D8FEF9FEF232B59F021E041E071
:101D400050E0BE016F5F7F4F84850E94260E89811F
:101D500090E00F90DF91CF9108951F93CF93DF9381
:101D6000182F66E270E00E94770DC82FD0E0DC2FBC
:101D7000CC2767E270E0812F0E94770D8C0F9D2F9A
:101D8000911DDF91CF911F910895FF920F931F93A3
:101D9000CF93DF93F82E10E000E08F2D0E94AD0E60
:101DA000EC01892B21F08F2D0E94AD0E8C01C01704
:101DB000D10799F7CE01DF91CF911F910F91FF903D
:101DC0000895FC018485883011F00C94C50E90E0D4
:101DD00080E008951F93CF93DF93182F60E270E0A7
:101DE0000E94770DC82FD0E0DC2FCC2761E270E095
:101DF000812F0E94770D8C0F9D2F911DDF91CF9128
:101E00001F910895FF920F931F93CF93DF93F82EA6
:101E100010E000E08F2D0E94EA0EEC01892B21F0EA
:101E20008F2D0E94EA0E8C01C017D10799F7CE01C1
:101E3000DF91CF911F910F91FF900895AF92BF92C4
:101E4000CF92DF92FF920F931F93CF93DF938C017A
:101E50005B01EA01FC01C788D08CF4848F2D0E94BD
:101E6000020F8C179D0720F48F2D0E94020FEC01AA
:101E70009E01A501B6018F2D0E94E60DF80187890C
:101E8000908D8C0F9D1F908F878BCE01DF91CF910E
:101E90001F910F91FF90DF90CF90BF90AF9008956A
:101EA000FC018485883021F063E070E00C94770DAC
:101EB00080E00895CF93DF93FC0124852830D9F08A
:101EC000EC010E94500F843189F0882379F0883129
:101ED00069F021E08C3159F4E881F9810084F185C1
:101EE000E02DCE01099521E0892B09F420E0822F15
:101EF000DF91CF91089580E0FBCFCF92DF92EF92F8
:101F0000FF92CF93DF93EC018C85883089F168E0F4
:101F100070E00E94800D0E9459096B017C01CE0186
:101F20000E94500F882391F00E9459096C197D0975
:101F30008E099F09683E73408105910538F461E080
:101F400070E080E090E00E942609E9CFCE010E9477
:101F5000500F882319F08C850E94900DEC85F0E0DD
:101F6000EE0FFF1FE254FD4F1182108288E08C8734
:101F7000DF91CF91FF90EF90DF90CF9008954F9237
:101F80005F926F927F928F929F92AF92BF92CF9209
:101F9000DF92EF92FF921F93CF93DF93CDB7DEB71F
:101FA0002D970FB6F894DEBF0FBECDBF7C019EEB20
:101FB000A92E92E0B92E10E0D12CC12C28EE422E91
:101FC00023E0522E612C712C3EE3832E31E0932EC0
:101FD0001C821B824D825E826F8278869A82898201
:101FE0001D87D5012D913D915D01F701848195817A
:101FF00028173907B1F4CE0101960E94500F8431A1
:1020000099F1CE0101960E94500F8C3151F4CE010E
:1020100001960E94E10E892B21F4CE0101960E94C7
:102020007D0F1F5F1830A1F6CD2841F4D701ED9147
:10203000FC910084F185E02DC70109952D960FB61E
:10204000F894DEBF0FBECDBFDF91CF911F91FF90FF
:10205000EF90DF90CF90BF90AF909F908F907F9048
:102060006F905F904F900895CC24C394D12CD9CF1A
:10207000CF92DF92EF92FF921F93CF93DF93182FAF
:102080006B017A010E94C50EEC010097D9F463E060
:1020900070E0812F0E94770D843159F0882349F038
:1020A000C1E0D0E08C3111F4D0E0C0E0D195C19511
:1020B000D109CE01DF91CF911F91FF90EF90DF907A
:1020C000CF900895E816F9060CF4E7011C161D06DA
:1020D00084F720E0AE01B601812F0E94260E60E455
:1020E00070E0812F0E94800DE4CFCF93DF93FC013D
:1020F000218D328D2115310529F48FEF9FEFDF916E
:10210000CF910895EC0184854217530708F0A90187
:102110000E9438101816190684F7298D3A8D281B4D
:10212000390B3A8F298FEBCF0F931F93CF93DF9308
:102130001F92CDB7DEB7FC01218D328D232B41F4E8
:102140008FEF9FEF0F90DF91CF911F910F91089527
:102150008C0141E050E0BE016F5F7F4FFC01848540
:102160000E943810181619065CF7F801818D928DBF
:102170000197928F818F898190E0E4CFFC01848563
:102180000C943810CF93DF931F92CDB7DEB741E0A8
:1021900050E0BE016F5F7F4FFC0184850E943810C4
:1021A0001816190634F4898190E00F90DF91CF91D1
:1021B00008958FEF9FEFF9CF0F931F93CF93DF9386
:1021C000EC010E945909688779878A879B87CE012D
:1021D0000E94C21097FF15C00E94590908851985F1
:1021E0002A853B85601B710B820B930B0C811D8133
:1021F0002E813F81601771078207930740F38FEFAD
:102200009FEFDF91CF911F910F910895CF93FC0124
:10221000C48560E270E08C2F0E94800D62E070E067
:102220008C2F0E94770D84FD11C062E070E08C2F2E
:102230000E94770D83FFF2CF48E162E070E08C2FBF
:102240000E94AB0C90E080E0CF91089540E162E005
:1022500070E08C2F0E94AB0C81E090E0F5CFEF9204
:10226000FF921F93CF93DF93FC012485283039F030
:1022700080E0DF91CF911F91FF90EF9008957B0157
:10228000EC0110E063E070E0812F0E94770D811176
:102290000EC01C878C85883059F3FE86ED861A8E19
:1022A000198EA70162E00E949D0D81E0E2CF883186
:1022B00081F31F5F183031F7EDCF8F929F92AF926D
:1022C000BF92CF92DF92EF92FF920F931F93CF9323
:1022D000DF93CDB7DEB72D970FB6F894DEBF0FBEF4
:1022E000CDBF7C0110E000E038EE832E33E0932E6A
:1022F000A12CB12C4EE3C42E41E0D42E1C821B82B3
:102300008D829E82AF82B886DA82C9820D87CE0125
:1023100001960E94500F811130C0F7014481558110
:1023200061E0802F0E949D0D63E070E0802F0E948D
:10233000770D833129F462E070E0802F0E94800DD8
:10234000F70184819581000F111FF801E254FD4FC0
:10235000918380832D960FB6F894DEBF0FBECDBF5C
:10236000DF91CF911F910F91FF90EF90DF90CF9071
:10237000BF90AF909F908F9008950F5F1F4F0830D0
:10238000110509F0BBCFE6CF8F929F92AF92BF921B
:10239000CF92DF92EF92FF920F931F93CF936C0136
:1023A0005B017A01FC01C485C830A1F481E090E0B2
:1023B000F60193838283F12CE12CC701CF911F9109
:1023C0000F91FF90EF90DF90CF90BF90AF909F90D4
:1023D0008F9008958A014130584010F000E018E0D5
:1023E0008C2F0E94020F4C0163E070E08C2F0E9442
:1023F000770D873111F08C3109F58016910680F345
:102400009801A50170E060E08C2F0E94E60D60E26B
:1024100070E08C2F0E94800D62E070E08C2F0E9493
:10242000770D84FD0EC063E070E08C2F0E94770D65
:102430008111F2CF8C2F0E94900DB8CF10E000E0F8
:10244000DFCF40E162E070E08C2F0E94AB0C012BEB
:1024500009F0B3CFABCF3F924F925F926F927F92D2
:102460008F929F92AF92BF92CF92DF92EF92FF92A4
:102470000F931F93CF93DF93CDB7DEB72D970FB692
:10248000F894DEBF0FBECDBF6C015B014A010E9414
:10249000BF0F8EEBE82E82E0F82E312C10E000E02A
:1024A00098EE492E93E0592E612C712C1C821B82D0
:1024B0004D825E826F8278868EE391E09A83898373
:1024C0003D86F701219131917F01F601848195814B
:1024D0002817390771F4CE0101960E94500F8731F9
:1024E00041F4A401B501CE0101960E94C411080F68
:1024F000191F3394F8E03F12D9CFC8012D960FB6BB
:10250000F894DEBF0FBECDBFDF91CF911F910F9129
:10251000FF90EF90DF90CF90BF90AF909F908F9003
:102520007F906F905F904F903F900895DF92EF9271
:10253000FF920F931F93CF93DF93FC0124852830E4
:1025400051F090E080E0DF91CF911F910F91FF90CB
:10255000EF90DF9008957A01EB018C01D12C63E0BC
:1025600070E08D2D0E94770D811128C0F801D4866E
:10257000F8018485883029F3209100013091010110
:102580002F5F3F4F19F130930101209300014091DB
:1025900000015091010161E00E949D0D8A818F3FF1
:1025A000C1F48B818F3F01F58C818F3FE9F48D81E0
:1025B0008F3FD1F488E0F8018487C3CF8B7F8831C7
:1025C000A9F2D394F8E0DF12CACFD2CF20E034E0F2
:1025D000DACF811109C08B81811106C08C818111F4
:1025E00003C08D81882331F3E114F10419F3F8015C
:1025F000D484AE014E5F5F4F6D2D6295660F607E95
:10260000645F24E030E08CE090E00E94440B4F2DAA
:1026100060E170E08D2D0E94AB0C4E2D61E170E009
:102620008D2D0E94AB0C64E070E08D2D0E94800D1A
:10263000C8010E94500F873161F061E070E080E0D6
:1026400090E00E942609C8010E94500F8111F0CF2E
:10265000B1CF81E090E077CF90E080E00895DC0199
:10266000ED91FC91048CF58DE02D09948091C103CE
:102670009091C2030E94170A40E06CEC8091C10364
:102680009091C2030E94C4094091BC0364E480910C
:10269000C1039091C2030E94C4098091BE038823A4
:1026A000A1F0E091BD03E9506EEE72E0E33038F442
:1026B000F0E0EE0FFF1FEC59FE4F60817181072E95
:1026C000000C880B990B0C9426090895BF92CF92A9
:1026D000DF92EF92FF920F931F93CF93DF93EC0162
:1026E000B62EC72EED84E11004C00E94170A811196
:1026F0000EC01B861D861C8680E0DF91CF911F9146
:102700000F91FF90EF90DF90CF90BF90089540E041
:1027100060EFCE010E94C409D12C01E011E0CE018E
:102720000E947109F82ECE010E94710991E0F91200
:1027300018C0813099F51134E0F2EB86E11002C047
:1027400081E08D878B818823A1F22396EB2DFC2DD0
:10275000CF01089629912193E817F907D9F781E06D
:10276000CCCFED2DF0E0F8120FC08B851817A0F438
:10277000DE01AE0FBF1F13968C91802379F4F12CEC
:10278000193008F41C87E12EEC0FFD1F8381902F78
:102790009095892383830AC08113F1CFFE01ED0D4B
:1027A000F11D8381802B8383FF24F3946F2DCE0151
:1027B0000E9495091F5F000F11F4D39401E087E098
:1027C0008D1508F0ACCFB7CF0F931F93CF93DF9346
:1027D000CDB7DEB728970FB6F894DEBF0FBECDBFDA
:1027E0008C01DC01ED91FC910680F781E02D0995CB
:1027F000F80184850E94C50E892BB1F148E050E0B4
:10280000BE016F5F7F4FD8011C968C910E943810DB
:1028100018161906F4F4D801519684E0FE01319699
:1028200001900D928A95E1F78D8190E0982F88278D
:102830002E81820F911DF801968B858B8F81282F19
:1028400030E0322F22278885820F932F911D928F9F
:10285000818F28960FB6F894DEBF0FBECDBFDF91F3
:10286000CF911F910F91089590E080E0F2CF4F92A9
:102870005F926F927F928F929F92AF92BF92CF9210
:10288000DF92EF92FF920F931F93CF93DF93CDB719
:10289000DEB763970FB6F894DEBF0FBECDBF7C01E5
:1028A0006B013A01FB01DB018D918111FDCF30E01D
:1028B00020E090E080E05AE04191442301F184302F
:1028C00091050CF042C04E3269F42F3F310509F0FA
:1028D000E4F5D301A80FB91F12962C93019630E0AE
:1028E00020E0EACF529FB001539F700D1124242F96
:1028F000440F330B20533109260F371FDDCF2F3FF5
:10290000310509F014F584309105FCF4680E791E48
:10291000F3012283CC24C394D12CC60163960FB655
:10292000F894DEBF0FBECDBFDF91CF911F910F9105
:10293000FF90EF90DF90CF90BF90AF909F908F90DF
:102940007F906F905F904F900895F701428153817F
:10295000648175818091A6039091A703A091A8033B
:10296000B091A903481759076A077B0709F400C209
:102970008701085F1F4F0E9459096F7077277C5F9E
:10298000C8010E942F11813009F0F7C18EE891E053
:102990009A838983F70182819381A481B5818B8396
:1029A0009C83AD83BE8345E350E0BE016F5F7F4FE4
:1029B000C8010E94DC0C892B31F4D12CC12CC80138
:1029C0000E94D10DAACF0E945909F701778366832F
:1029D00042E050E0B7016A5F7F4FC8010E941E0FBE
:1029E00081E090E09A83898342E050E0BE016F5F0E
:1029F0007F4FC8010E941E0F80E091E09A83898377
:102A000042E050E0BE016F5F7F4FC8010E941E0F81
:102A10001A82198242E050E0BE016F5F7F4FC80109
:102A20000E941E0F42E050E0BE016F5F7F4FC80161
:102A30000E941E0F42E050E0BE016F5F7F4FC80151
:102A40000E941E0F5601F6018081882301F1650165
:102A5000F60181912F01882311F08E32B1F44601E5
:102A60008A189B081814190474F48D8641E050E00C
:102A7000BE01635F7F4FC8010E941E0FA401B50114
:102A8000C8010E941E0F5201DECF6201E1CF1D86F8
:102A900041E050E0BE01635F7F4FC8010E941E0FFE
:102AA000C12CDD24D394DA82C98242E050E0BE0119
:102AB0006F5F7F4FC8010E941E0FDA82C98242E019
:102AC00050E0BE016F5F7F4FC8010E941E0FC8011A
:102AD0000E940611892B09F470CFF3E0AF2EB12CC0
:102AE000230122E0420E511C43C0F7014281538171
:102AF00064817581818D928DA38DB48D481759079E
:102B00006A077B0709F02AC1858D968DC59709F064
:102B100025C181A192A10C970CF425C14CE050E095
:102B2000BE016F5F7F4FC8010E9475108B819C8131
:102B30009827892798279A8B898BF7014681578197
:102B400029813A814217530711F497FD2FC0C8011C
:102B50000E94B40CECEFCE2EDD24DA9481E0A81AAA
:102B6000B10809F42CCFFFEFCF16DF0609F027CF0D
:102B70000E9459093B014C01C8010E94E413181638
:102B800019060CF4B2CF0E94590966197709880911
:102B90009909693873418105910508F0DBC062E34A
:102BA00070E080E090E00E942609E6CF8F7092707E
:102BB000892B41F0C8010E94B40C7BEFC72EDD24A5
:102BC000DA94CCCF6F807884762467247624D12C55
:102BD000C12C61147104D1F4C8010E94B40C6AEFD5
:102BE000C62EDD24DA94BACF8D85811117C0C801B5
:102BF0000E949410C8010E949410C8010E94941071
:102C0000C8010E949410FFEFCF1ADF0A8D819E81C8
:102C1000982789279827C816D906A8F441E050E0DC
:102C2000BE01635F7F4FC8010E9475108D858823A8
:102C3000D9F28D859FEF980F9D878823A9F2C8014F
:102C40000E949410F6CF912C812C41E050E0BE01FF
:102C50006D5E7F4FC8010E9475108B89982F907C04
:102C600061F4882389F08B899FEF980F9B8B8823D1
:102C700041F0C8010E949410F6CFC8010E94941040
:102C80001B8A8B898111E1CF42E050E0BE01615F78
:102C90007F4FC8010E94751042E050E0BE01635FA3
:102CA0007F4FC8010E947510C8010E949410C8018E
:102CB0000E949410C8010E949410C8010E949410B0
:102CC00042E050E0BE016F5E7F4FC8010E94751068
:102CD0008F85988981159140E9F4CD84DE84DC24C8
:102CE000CD24DC2481E0C816D104A1F489899A8915
:102CF0008115944041F0C8010E94B40C57EFC52ED5
:102D0000DD24DA942BCF44E050E0B201C8010E94E8
:102D1000751024CFD12CC12C89899A8998278927AD
:102D20009827C816D90638F4C8010E949410FFEFFE
:102D3000CF1ADF0AF1CF2FEF821A920A68147904B2
:102D400009F083CFC8010E94B40C46EFC42EDD24E5
:102D5000DA9404CFCC24CA94DC2C00CF2EEFC22E00
:102D6000DD24DA94FBCE9DEFC92EDD24DA94F6CE75
:102D70008EEFC82EDD24DA94D0CDD12CC12CCDCD50
:102D8000CF92DF92EF92FF920F931F93CF93DF9337
:102D9000CDB7DEB7AF970FB6F894DEBF0FBECDBF8D
:102DA0007C016A010EE811E01A8309831C861B86E8
:102DB00088EE93E0A0E0B0E08D879E87AF87B88B68
:102DC00086E191E09A87898788E08D8B198F088F3B
:102DD0001A8E1B8E1C8E1D8E1BA70AA71CA61DA655
:102DE0001EA61FA68091930390919403A091950332
:102DF000B09196038EA39FA3A8A7B9A78B839C83AA
:102E0000AD83BE8318861F82AE01465D5F4FCE0143
:102E100001960E94371481309105B1F4D701ED91EC
:102E2000FC910488F589E02D1DA30CA38CA59DA51C
:102E3000AEA5BFA58EA39FA3A8A7B9A7A601BE0153
:102E40006C5D7F4FC7010995AF960FB6F894DEBF52
:102E50000FBECDBFDF91CF911F910F91FF90EF90EB
:102E6000DF90CF900895CF92DF92EF92FF920F9371
:102E70001F93CF93DF93CDB7DEB7AF970FB6F8941C
:102E8000DEBF0FBECDBF7C016A010EE811E01A83E0
:102E900009831C861B8688EE93E0A0E0B0E08D8756
:102EA0009E87AF87B88B86E191E09A87898788E013
:102EB0008D8B198F088F1A8E1B8E1C8E1D8E1BA753
:102EC0000AA71CA61DA61EA61FA68091930390917B
:102ED0009403A0919503B09196038EA39FA3A8A7F6
:102EE000B9A78B839C83AD83BE8318861F82AE01F6
:102EF000465D5F4FCE0101960E94371481309105E7
:102F0000B1F4D701ED91FC910684F785E02D1DA366
:102F10000CA38CA59DA5AEA5BFA58EA39FA3A8A716
:102F2000B9A7A601BE016C5D7F4FC7010995AF9699
:102F30000FB6F894DEBF0FBECDBFDF91CF911F91CA
:102F40000F91FF90EF90DF90CF9008950E94982D01
:102F5000FB0101900020E9F73197AF01461B570BA9
:102F6000DC01ED91FC910280F381E02D09948F92B8
:102F70009F92AF92BF92EF92FF920F931F93CF93C6
:102F8000DF93CDB7DEB7A1970FB6F894DEBF0FBEC3
:102F9000CDBF7C01FA01CB0119A2223008F42AE04E
:102FA0008E010F5D1F4F822E912CB12CA12CBF01E1
:102FB000A50194010E94B12AF901CA016A300CF5F9
:102FC000605DD8016E938D01232B242B252B79F77F
:102FD00090E080E0109721F0BD01C7010E94A81782
:102FE000A1960FB6F894DEBF0FBECDBFDF91CF9193
:102FF0001F910F91FF90EF90BF90AF909F908F9097
:103000000895695CDECF8F929F92AF92BF92CF926C
:10301000DF92EF92FF920F931F93CF93DF937C0188
:10302000EB016C0182E0C80ED11C4701E5E08E0E79
:10303000911C10E000E0F60141916F0150E070E05A
:1030400060E02AE0CE010E94B7175C01E881F981B7
:103050000190F081E02D6EE2CE0109958A0D9B1D55
:10306000080F191FC814D90431F7F701458150E042
:1030700070E060E02AE0CE010E94B717800F911F38
:10308000DF91CF911F910F91FF90EF90DF90CF9044
:10309000BF90AF909F908F90089560E971E00C947D
:1030A000A817CF93DF936AED72E00E940318EC013A
:1030B0008AED92E00E944D188C0F9D1FDF91CF91F9
:1030C00008950F931F93CF93DF93EC010E94450760
:1030D0008C01CE010E944D18800F911FDF91CF917E
:1030E0001F910F9108950F931F93CF93DF93EC01DE
:1030F0000E9453078C01CE010E944D18800F911F32
:10310000DF91CF911F910F910895FC0124813581AA
:10311000232B31F421E0FB01672B49F4822F089522
:10312000808191816115710539F421E0FC01808174
:103130008823A1F320E0F2CF0E94A62D21E0892B65
:1031400069F3F8CF0F931F93CF93DF93EC0188813E
:103150009981009759F02A813B812617370730F073
:1031600081E0DF91CF911F910F9108958B016F5FE7
:103170007F4F0E94DB2C009759F0998388831B8333
:103180000A832C813D81232B59F7FC011082E8CF63
:1031900080E0E7CFEF92FF920F931F93CF93DF93DF
:1031A0006115710541F480E0DF91CF911F910F917E
:1031B000FF90EF90089541155105B1F07B01EC01AE
:1031C0000C811D81040F151FB8010E94A2188823CD
:1031D00051F3288139818C819D81B701820F931F22
:1031E0000E94AF2D1D830C8381E0DECFCF93DF9350
:1031F000EC0188819981009711F00E94522C19826C
:1032000018821D821C821B821A82DF91CF91089541
:10321000CF93DF93EC01FB0101900020E9F7319798
:10322000AF01461B570B0E94CA18811103C0CE0183
:103230000E94F618CE01DF91CF910895CF93DF93CE
:10324000EC01FB0144815581608171810E94CA18A3
:10325000811103C0CE010E94F618CE01DF91CF91FB
:103260000895EF92FF920F931F93CF93DF93EC019A
:103270007B018A01BA010E94A21881110BC0CE0104
:103280000E94F618CE01DF91CF911F910F91FF9010
:10329000EF9008951D830C83B701888199810E9466
:1032A000AF2DF0CFFB0101900020E9F73197AF017E
:1032B000461B570B0C943119CF93DF93EC01FB01A4
:1032C0008617970749F0608171816115710541F09A
:1032D000448155810E943119CE01DF91CF9108952B
:1032E0000E94F618F9CFFC0111821082138212821B
:1032F000158214826115710551F0FB0101900020C7
:10330000E9F73197AF01461B570B0C94311908951B
:10331000FC0180819181009711F00C94522C08954A
:10332000CF92DF92FF920F931F93CF93DF9300D042
:1033300000D000D0CDB7DEB78C0162E971E0CE01DC
:1033400001960E94731970E060E0C8010E94340782
:103350008B3211F08D3281F5F801848195810297CD
:1033600028F06081718161157105F1F41092B40249
:1033700064EB72E0CE0101960E945219CD80DE808E
:1033800010E000E0F12C0C151D0509F1B801CE018B
:1033900001960E9434078E32A9F4F11016C0FF2462
:1033A000F3940F5F1F4FEFCF6F5F7F4F19F7CE0181
:1033B00001960E94F618E2CFB801CE0101960E9454
:1033C0005C19DCCF80538A3060F310E001C011E05B
:1033D000CE0101960E948819812F26960FB6F89487
:1033E000DEBF0FBECDBFDF91CF911F910F91FF9038
:1033F000DF90CF900895AF92BF92CF92DF92EF927D
:10340000FF920F931F93CF93DF93CDB7DEB7C456D0
:10341000D1090FB6F894DEBF0FBECDBF6C01062FE9
:10342000660F110BC8010E94592A9E012F5F3F4F62
:1034300079015901021B130BF501EE19FF098823CD
:1034400049F0C8018A0D9B1D0E94592AF5018193FC
:103450005F01F2CFEE0DFF1D1082B701C6010E9481
:103460007319C601CC59DF4F0FB6F894DEBF0FBEFB
:10347000CDBFDF91CF911F910F91FF90EF90DF9023
:10348000CF90BF90AF900895CF92DF92EF92FF92CE
:103490000F931F93CF93DF937B01DB011496CD90A5
:1034A000DC90D0E0C0E0082F880F110BCC15DD05B3
:1034B000D4F4F70184819581C817D90728F40190C5
:1034C000F081E02D309761F41092B402E4EBF2E069
:1034D0006081C8018C0F9D1F0E94612A2196E6CF52
:1034E000EC0FFD1FF5CF60E0C8018C0D9D1DDF9135
:1034F000CF911F910F91FF90EF90DF90CF900C94A0
:10350000612A1F920F920FB60F9211242F933F93AF
:103510004F935F936F937F938F939F93AF93BF93DB
:10352000EF93FF938AED92E00E94F507FF91EF91F0
:10353000BF91AF919F918F917F916F915F914F91CB
:103540003F912F910F900FBE0F901F9018951F92D3
:103550000F920FB60F9211242F938F939F93EF9397
:10356000FF93E091EA02F091EB028081E091F0029A
:10357000F091F10282FD1BC090818091F3028F5F78
:103580008F732091F402821741F0E091F302F0E092
:10359000E652FD4F958F8093F302FF91EF919F913B
:1035A0008F912F910F900FBE0F901F9018958081D3
:1035B000F4CF1F920F920FB60F9211242F933F93C7
:1035C0008F939F93AF93BF938091B6029091B70270
:1035D000A091B802B091B9023091B50223E0230F57
:1035E0002D3758F50196A11DB11D2093B50280938A
:1035F000B6029093B702A093B802B093B90280913B
:10360000BA029091BB02A091BC02B091BD0201969A
:10361000A11DB11D8093BA029093BB02A093BC027E
:10362000B093BD02BF91AF919F918F913F912F9128
:103630000F900FBE0F901F90189526E8230F02964B
:10364000A11DB11DD2CFCF93EAEDF2E01382128219
:1036500088EE93E0A0E0B0E084839583A683B783EF
:103660008EE691E09183808385EC90E09587848756
:1036700084EC90E09787868780EC90E0918B808B3C
:1036800081EC90E0938B828B82EC90E0958B848B25
:1036900086EC90E0978B868B118E128E138E148E93
:1036A000E7E7F3E080E58083C1E0C183E9E7F3E089
:1036B0008EE891E0918380831282138214821582B6
:1036C000EFE7F3E0918380831282138214821582E4
:1036D000E5E8F3E0918380831282138214821582DD
:1036E000EBE8F3E0918380831282138214821582C7
:1036F000EEE9F3E0918380831282138214821582B3
:10370000E1E9F3E0918380831282138214821582AF
:10371000138612862AE02487E4EAF3E0918380830B
:103720001282138214821582EAEAF3E09183808385
:103730001282138214821582EDEDF3E0918380836F
:10374000128213821482158260E085E00E94D00804
:10375000EDEEFDE0E491AFECB3E0EC93E9EDFDE0DC
:10376000E491F0E0EE0FFF1FE653F24F8591949144
:1037700012969C938E9311971B961C921B971D96E5
:103780001C921D971C961C921C971A961C921A97B5
:1037900019961C92199718961C92189717961C92B6
:1037A000179716961C92169715961C9215971496B5
:1037B0001C92149713961C921397ECEBF3E08AE299
:1037C00097E0928B818BB683A5831482108289E067
:1037D0008183C283C383E6EBF3E01382128280E825
:1037E00091E09183808380E590E09583848362E912
:1037F00071E080EB93E0CF910C947319CF93DF933A
:10380000CDB7DEB7C855D1090FB6F894DEBF0FBEED
:10381000CDBF789484B5826084BD84B5816084BD59
:1038200085B5826085BD85B5816085BD80916E005E
:10383000816080936E00109281008091810082608F
:1038400080938100809181008160809381008091CC
:1038500080008160809380008091B10084608093BB
:10386000B1008091B00081608093B00080917A00B7
:10387000846080937A0080917A00826080937A00DD
:1038800080917A00816080937A0080917A008068CC
:1038900080937A001092C1006AE0CE018F960E9458
:1038A000FB1964E6CE0182960E94FB1962E971E081
:1038B000CE018F960E948518811108C070E060E0EB
:1038C000CE018F960E948518882381F063E971E00C
:1038D000CE0101960E947319BE016F5F7F4F8AE08F
:1038E0000E94441ACE0101960E94881962E971E093
:1038F000CE0182960E948518811108C070E060E0B8
:10390000CE0182960E948518882381F064E971E0D7
:10391000CE0101960E947319BE016F5F7F4F84E64E
:103920000E94441ACE0101960E948819E091C103B9
:10393000F091C203138615861486128611861086AE
:10394000178216821582148213821092C00301E03E
:10395000BE016F5F7F4F8091C1039091C2030E94AF
:103960006613882309F455C067E0CE0101960E94D2
:10397000650998858913ECCF8091BC03811128C01B
:103980008091C1039091C2030E94170ABE016F5F2C
:103990007F4F8091C1039091C2030E94F80940E0DB
:1039A00064EB8091C1039091C2030E94C40980918D
:1039B000C1039091C2030E947109182F8091C10325
:1039C0009091C2030E94170A111102C00093BC0318
:1039D0001091BD038981803111F40C943225CE0100
:1039E00001960E949B0A811750F48091BD03809339
:1039F000BD038091C0038F5F8093C003A9CF8981ED
:103A0000803111F48CE0F3CFCE0101960E949B0A25
:103A1000EECF61E086E00E94D00861E086E00E947F
:103A20008408E091EA02F091EB0282E08083E09169
:103A3000E602F091E7021082E091E802F091E902DB
:103A400080E180831092F202E091EE02F091EF02A9
:103A500086E08083E091EC02F091ED02808180614C
:103A60008083E091EC02F091ED0280818860808398
:103A7000E091EC02F091ED02808180688083E0911A
:103A8000EC02F091ED0280818F7D80830E943613DD
:103A900060ED77E080E090E00E9426090EE811E0FA
:103AA0001A8309838091020190910301A09104017E
:103AB000B09105018B839C83AD83BE83CE010196BB
:103AC0000E94970B86EB93E00E945D116BEF72E012
:103AD0008AED92E00E94731860EE72E08AED92E047
:103AE0000E9473186BEB72E08AED92E00E947318EB
:103AF0001A8309831B821C821D821E8224E030E00F
:103B0000AE014D5F5F4F60E08FE090E00E94F30AEE
:103B1000CE0101960E94511888E199E20FB6F894FF
:103B2000A895809360000FBE90936000CE018296AE
:103B30000E948819CE018F960E948819A8950E942C
:103B40005909C090D202D090D302E090D402F090F4
:103B5000D5026C197D098E099F0960317742810574
:103B6000910528F4CD28CE28CF2809F09BC00E94CB
:103B700059096093D2027093D3028093D402909338
:103B8000D5026BE97DE08AED92E00E9473188EE821
:103B900091E09A8389831B821C821D821E8224E00D
:103BA00030E0AE014D5F5F4F60E08FE090E00E943B
:103BB000F30ACE0101960E945118E091C103F091E1
:103BC000C203138615861486128611861086178204
:103BD0001682158214821382BE016E5D7F4F809122
:103BE000C1039091C2030E9466138111DCC060E0A2
:103BF00070E08EEF92EC6093CE027093CF028093D0
:103C0000D0029093D1026AE0CE0182960E94FB1905
:103C100064E6CE0101960E94FB198AA19BA1812C2A
:103C2000912C5401009721F00E945A254B015C0110
:103C300089819A81C12CD12C7601009721F00E94B4
:103C40005A256B017C012091CE023091CF02409128
:103C5000D0025091D102C501B4010E94E22A4B0169
:103C60005C01A70196010E947E2B18160CF0FBC088
:103C70006FE87DE08AED92E00E94731869E971E0D7
:103C800080EB93E00E94521960E086E00E94840875
:103C90000E943613CE0101960E948819CE018296A9
:103CA0000E94881986EB93E00E94BF0F8EEBE82EEE
:103CB00082E0F82E10E098EE892E93E0992EA12C48
:103CC000B12C2EE3C22E21E0D22E1C821B828D82CB
:103CD0009E82AF82B886DA82C9821D87F701219160
:103CE00031917F018091BA039091BB032817390766
:103CF00009F0EAC0CE0101960E94500F873109F009
:103D0000DCC0CE0101960E94E10E892B09F4DCC0D3
:103D10008B819C819DA38CA38D819E81AF81B88571
:103D20008EA39FA3A8A7B9A789859A85AB85BC85D3
:103D30008AA79BA7ACA7BDA78EE391E09BA38AA30C
:103D40008D858EA78EA5883009F47FC6CE01829618
:103D50000E945A0F882309F478C6CE0182960E94E9
:103D6000E10E892B99F32DB63EB662E971E0CE01E2
:103D7000895B9F4F0E947319CE0182960E94DC10CE
:103D800097FDB6C08A30910509F4B2C089831A82C2
:103D900041E050E0BE016F5F7F4FCE01895B9F4FD6
:103DA0000E94CA18E9CF67E0CE0182960E94650999
:103DB00099A589131CCF8091C1039091C2030E94E1
:103DC000170A882309F413CFBE016F5F7F4FCE011E
:103DD00082960E944F0A882309F409CF68E0CE0139
:103DE00001960E9465099985891301CF6A8170E067
:103DF000762F6627770F770F770F298148E0249F6A
:103E000090011124262B372B8AA18031D1F46885AB
:103E100070E08F81FB01E81BF109CF019695982F87
:103E20008827979587950E94882BCB014097B901E9
:103E300053E0660F771F5A95E1F760789C01260FD3
:103E4000371F2138F4EE3F070CF4D1CEB901330F00
:103E5000880B990B0E94392920E030E040E05CE3B8
:103E60000E949829C8CEC701B6019058A5019401B7
:103E70000E947E2B181674F463E87DE08AED92E0D0
:103E80000E9473186DE971E080EB93E00E94521973
:103E900061E0FBCE6FEF7CE08AED92E00E94731848
:103EA0006FED7CE08AED92E00E94530760EB73E0D7
:103EB0008AED92E00E946118EBCECE0101960E943D
:103EC000500F8C3109F41DCF1F5F183009F0FDCE63
:103ED0001DA21CA288EE93E0A0E0B0E08EA39FA3F9
:103EE000A8A7B9A78EE391E09BA38AA31EA72ACF18
:103EF0002D96EEACFFAC2D97C70101962DB73EB7BE
:103F0000281B390B0FB6F8943EBF0FBE2DBF4DB71F
:103F10005EB74F5F5F4F6A01E114F10479F051E041
:103F2000E51AF10829966EAD7FAD2997A701C60164
:103F30000E94C42DF601EE0DFF1D108262E671E0B5
:103F4000C6010E945E2562E671E090E080E00E947A
:103F50005E257C01BC01CE0101960E94731961EAC5
:103F600071E0CE0101960E948518182FCE010196AE
:103F70000E948819112309F4EEC20E94590920E019
:103F80003CE546E255E00E94B12A61962CAF3DAF78
:103F90004EAF5FAF61970E94590920E03CE546E2D1
:103FA00055E00E94B12A20E83EEE46E350E00E9430
:103FB000B12A65962CAF3DAF4EAF5FAF65970E94BB
:103FC000590920E03CE546E255E00E94B12A20E88C
:103FD0003EEE46E350E00E94B12A20E63AEE40E091
:103FE00050E00E94B12A69962CAF3DAF4EAF5FAF53
:103FF00069970E94590920E03CE546E255E00E949D
:10400000B12A20E83EEE46E350E00E94B12A20E6C5
:104010003AEE40E050E00E94B12A28EE33E040E062
:1040200050E00E94B12A49015A016FEC7CE0CE01B8
:1040300082960E94731867EB7CE0CE0182960E9404
:104040007318CE0182960E944D1867EA7CE0CE017B
:1040500082960E94731860EA7CE0CE0182960E94EC
:10406000731869E97CE0CE0182960E94731869E7B3
:104070007CE0CE0182960E94731868E57CE0CE0158
:1040800082960E94731860E07CE0CE0182960E94C6
:10409000731867EA7BE0CE0182960E94731865E58B
:1040A0007BE0CE0182960E94731867E47BE0CE012C
:1040B00082960E94731868E07BE0CE0182960E948F
:1040C00073186EEF7AE0CE0182960E94731867EE45
:1040D0007AE0CE0182960E94731867EB7AE0CE01F7
:1040E00082960E9473186BE87AE0CE0182960E9455
:1040F000731866E47AE0CE0182960E94731861EE2E
:1041000079E0CE0182960E94731861EC79E0CE01CD
:1041100082960E9473186EEA79E0CE0182960E9420
:10412000731862E879E0CE0182960E9473186FE6F8
:1041300079E0CE0182960E94731861E579E0CE01A4
:1041400082960E9473186BE079E0CE0182960E94FD
:10415000731862E079E0CE0182960E94731867EAD4
:1041600078E0CE0182960E94731865EA78E0CE016D
:1041700082960E94731866E978E0CE0182960E94CA
:1041800073186CE878E0CE0182960E94731862E89A
:1041900078E0CE0182960E9473186FE478E0CE0139
:1041A00082960E94731867E478E0CE0182960E949E
:1041B000731860E478E0CE0182960E94731863EF72
:1041C00077E0CE0182960E94731869EC77E0CE0109
:1041D00082960E9473186AE0CE0101960E94FB1934
:1041E00063EA71E0CE018F960E947319BE016F5F82
:1041F0007F4FCE018F960E941E196FEE71E00E94D4
:104200000819BC01CE0182960E946118CE018F96DA
:104210000E948819CE0101960E94881964E6CE0199
:1042200001960E94FB1965EF71E0CE018F960E9406
:104230007319BE016F5F7F4FCE018F960E941E19CA
:104240006FEE71E00E940819BC01CE0182960E94B7
:104250006118CE018F960E948819CE0101960E94A6
:10426000881969E877E0CE0182960E9473186DE79D
:1042700077E0CE0182960E94731869E971E080EBC5
:1042800093E00E948518882331F06EE477E0CE0138
:1042900082960E9473186DE971E080EB93E00E94B2
:1042A0008518882331F061E277E0CE0182960E9482
:1042B000731866E077E0CE0182960E94731865ED70
:1042C00076E0CE0182960E945307C090CE02D09035
:1042D000CF02E090D002F090D102A7019601C70171
:1042E000B6010E94832B6EE372E081111BC0260190
:1042F0003701E89477F82FEF3FEF4FE75FE7C3010F
:10430000B2010E94832B8111A8C02FEF3FEF4FE72E
:104310005FE7C301B2010E94322918160CF09DC05C
:1043200062E472E0CE0182960E94A81760ED76E00A
:10433000CE0182960E9473186BEC76E0CE018296D5
:104340000E9453076BEB76E0CE0182960E945307E2
:104350002AE061964CAD5DAD6EAD7FAD6197CE014B
:1043600082960E94B71769EB76E0CE0182960E9492
:10437000530767EB76E0CE0182960E9453072AE04E
:1043800065964CAD5DAD6EAD7FAD6597CE01829605
:104390000E94B71765EB76E0CE0182960E94530724
:1043A00063EB76E0CE0182960E9453072AE069967D
:1043B0004CAD5DAD6EAD7FAD6997CE0182960E942A
:1043C000B71761EB76E0CE0182960E9453076FEA41
:1043D00076E0CE0182960E9453072AE0B501A4013F
:1043E000CE0182960E94B7176DEA76E0CE018296E2
:1043F0000E9453076DE376E0CE0182960E94731807
:1044000069E076E0CE0182960E9473186FEF75E046
:10441000CE0182960E94731867EF75E0CE018296F6
:104420000E9473186FEE75E0CE0182960E94731899
:1044300061E070E080E090E00E942609CE01829663
:104440000E947D0FCE01895B9F4F0E9488190FB695
:10445000F8943EBE0FBE2DBE79CC2FEF3FEF4FE755
:104460005FE4C701B6010E947E2B18161CF466E4B7
:1044700072E058CF2FEF3FEF4FE75FECC701B60177
:104480000E94322987FDF3CF20E030E0A901C70167
:10449000B6010E94322987FF09C06DE2CE018296E3
:1044A0000E94570DF7FAF094F7F8F0942AE037EDF0
:1044B00043EA5BE3C701B6010E94E32A2B013C01FA
:1044C0000E944F2B6B017C010E9437299B01AC019C
:1044D000C301B2010E94E22A2B013C012AE0B7018C
:1044E000A601CE0182960E94B7176EE2CE01829697
:1044F0000E94570D20E030E040E251E4C301B201D8
:104500000E9498292B013C010E944F2B6B01F12C3A
:10451000E12C2AE0B701A601CE0182960E94B717CE
:10452000C701B6010E9437299B01AC01C301B2014A
:104530000E94E22A20E030E040E251E40E94982903
:104540000E944F2BAB0170E060E02AE0CE01829622
:104550000E94B717EBCEB701CE0101960E947319E6
:104560006AE472E0CE0101960E948518182FCE01F0
:1045700001960E948819112309F483C06FED75E03C
:10458000CE0182960E94731860EC75E0CE0182968F
:104590000E947318CE0182960E944D186EEB75E052
:1045A000CE0182960E94731860EB75E0CE01829670
:1045B0000E94530764E6CE0101960E94FB19BE01DA
:1045C0006F5F7F4FCE0182960E944507CE01019614
:1045D0000E9488196EEA75E0CE0182960E947318D7
:1045E00068E975E0CE0182960E9453076AE0CE0129
:1045F00001960E94FB19BE016F5F7F4FCE0182962C
:104600000E944507CE0101960E94881966E975E06F
:10461000CE0182960E94731860E875E0CE01829602
:104620000E9453076091CE027091CF028091D00218
:104630009091D10218AA1FA61AAA19AA1CAA1BAAED
:104640008E010F5F1F4F22E044E00E943C2500973F
:1046500099F0BC01CE018F960E945219BE01615D96
:104660007F4FCE0182960E946118CE018F960E94E4
:1046700088196EE775E0D8CECE018F960E94F618A5
:10468000EDCFB701CE0101960E94731969E572E082
:10469000CE0101960E948518182FCE0101960E9426
:1046A00088191111CBCEB701CE018F5B9F4F0E94AD
:1046B000731966E672E0CE0101960E9473194D816E
:1046C0005E8127968EAD9FAD27978417950788F05A
:1046D00023968EAD9FAD2397009759F069817A811B
:1046E0006115710531F00E94B62D11E0892B09F09A
:1046F00010E0CE0101960E948819112309F490C19F
:1047000060E671E0C7010E945E25009729F0BC01B8
:104710008AED92E00E94A8178AED92E00E944D185F
:1047200060E671E090E080E00E945E256EE571E059
:104730000E945E256C016EE571E090E080E00E94D1
:104740005E257C016CE571E0C6010E945E256CE58A
:1047500071E090E080E00E945E256C016CE571E004
:10476000C7010E945E256CE571E090E080E00E9448
:104770005E257C01B601CE01CB960E947319B7016C
:10478000CE01C5960E9473191A8219821C821B825F
:104790001E821D82BE01655C7F4FCE0101960E9484
:1047A0005C19CE0101960E949019182FCE01019636
:1047B0000E948819112309F4DEC0B601CE010196CA
:1047C0000E947319BE016F5F7F4F8AE00E94441AF6
:1047D000CE0101960E9488191A8219821C821B82BE
:1047E0001E821D82BE016B5C7F4FCE0101960E942E
:1047F0005C19CE0101960E949019182FCE010196E6
:104800000E948819112309F4BDC0B701CE01019699
:104810000E947319BE016F5F7F4F84E60E94441AA5
:10482000CE0101960E9488196EEE74E0CE01829648
:104830000E94731866ED74E0CE0182960E94731890
:10484000CE0182960E944D1866EC74E0CE018296ED
:104850000E9473186FEB74E0CE0182960E94731869
:1048600068EB74E0CE0182960E94731861EA74E0EE
:10487000CE0182960E94731860E774E0CE018296A2
:104880000E9473186DE374E0CE0182960E94731843
:1048900065E374E0CE0182960E9473186EE274E0C4
:1048A000CE0182960E94731861EF73E0CE0182966A
:1048B0000E9473181A8219821C821B821E821D821A
:1048C000BE016B5C7F4FCE0101960E945C19CE0148
:1048D00001960E94901911E08823B9F018AA1FA62A
:1048E0001AAA19AA1CAA1BAABE016B5C7F4FCE0193
:1048F0008F960E945C19CE018F960E94901911E04C
:104900001827CE018F960E948819CE0101960E9429
:1049100088191123F1F165E773E0CE0182960E94B8
:1049200073186AE473E0CE0182960E94731862E401
:1049300073E0CE0182960E9473186AE373E0CE01A1
:1049400082960E94731861E070E080E090E00E941F
:104950002609CE0182960E947D0FCE01C5960E9447
:104960008819CE01CB960E948819CE018F5B9F4F8C
:104970000E94881967CD6CE375E08AED92E00E9491
:1049800073182ACF6EEF74E08AED92E00E947318DC
:104990004BCFB601CE0101960E94731963E772E016
:1049A000CE018F960E947319BE016F5F7F4FCE01BB
:1049B0008F960E941E1965E972E00E940819BC01D9
:1049C000CE0182960E946118CE018F960E948819AE
:1049D000CE0101960E948819B701CE0101960E946E
:1049E00073196BE972E0CE018F960E947319BE01B4
:1049F0006F5F7F4FCE018F960E941E1965E972E0AE
:104A00000E940819BC01CE0182960E946118CE0155
:104A10008F960E948819CE0101960E94881981CF35
:104A200063E273E0CE0182960E947318CE018296F3
:104A30000E944D1861E070E080E090E00E9426093D
:104A4000CE0182960E947D0F90CF80E090E0892B6E
:104A500009F474C80E94E107882309F46FC80E9412
:104A600000006CC81D3010F00C94F51C0C94021D55
:104A700080EB93E00C948819EF920F931F93CF93E0
:104A8000DF93E80134E047FD34E1042E000C550BC0
:104A900057FF03C0519541955109E32E022F242F52
:104AA000AE010E948A25CE01DF91CF911F910F9117
:104AB000EF900895662777270C94E92643EE53E09C
:104AC0000E9463250895FA01A191B081009719F41D
:104AD0001097E1F0CD01DC01CD010D90002011F423
:104AE000C00113C0FB012191222319F02015D9F731
:104AF000F3CFFB012191201519F41E92119606C0E7
:104B00002223C1F70D900020A1F7D001FA01A19353
:104B1000B0830895A9E0B0E0E0E9F5E20C94802AC2
:104B20006A01F22EB02E102FFBE3AF2EA01608F470
:104B30001BE31F5F012F27E0AE014F5F5F4F0E9415
:104B40003928BC018981982F9970913009F43FC0B0
:104B50009BE2E1FC04C09E2D9170E0FC3AC05E2D0A
:104B60005071E82FE87083FF46C084E0911101C0C6
:104B700083E0EF2DE81B8F1508F0E0E0D6018E2FC3
:104B800020E2552351F1992329F0D6019C93C601C7
:104B900001966C0196012D5F3F4FE2FE24C08EE42A
:104BA000D6018C9391E411969C93119712968C9355
:104BB000D9018E2F90E281111BC0E20FF32FF11D5E
:104BC00010828EEF9FEF2996ECE00C949C2A9DE2D8
:104BD000C6CF90E2C4CF2D9381508111FCCFCE0E71
:104BE000D11CE0E0D0CF8EE6D6018C9391E6DBCFEE
:104BF0009D938150E0CF482F447082FF3DC084E0F8
:104C0000911101C083E08F1510F4EF2DE81BD60140
:104C10008E2F20E2552309F1992329F0D6019C9388
:104C2000C60101966C0196012D5F3F4FE2FE1BC04D
:104C300089E4D6018C938EE411968C93119786E4C7
:104C400012968C93D9018E2F90E2882309F4B5CF68
:104C50009D938150FACF2D9381508111FCCFCE0EC0
:104C6000D11CE0E0D9CF89E6D6018C938EE611966F
:104C70008C93119786E6E4CF9B0177FF02C030E06A
:104C800020E0A1E0B0E0911102C0B0E0A0E0F901A5
:104C90003196AE0FBF1F8B2C912CBB2009F461C045
:104CA0005401EFEFAE1ABE0AAA0DBB1DFA161B0681
:104CB00019F014F04F2D4A1B511188C0E3FC59C064
:104CC0007601A42FB0E2A1114FC0C40ED11C9923CC
:104CD00009F45BC040E0D6011196F60190836D01A6
:104CE000552309F448C0012F060F9A81582F50719F
:104CF00084FF03C0913309F4015010160CF047C033
:104D0000093008F008E0EEE2FE2E5B01A01AB108BF
:104D100085019194819491082F3F320729F4D6019F
:104D2000FC92F60131966F016217730794F1021736
:104D300013077CF5DB01A21BB30BAA24A394B12CAF
:104D4000AC0EBD1EAA0DBB1D11968C9121503109D0
:104D5000D601119628153905F4F0F60180836D010E
:104D6000DBCFB12CA12CA0CFF701B1937F01A150D3
:104D7000AACF9111B0CFD601942F50E302C05D931A
:104D800091509111FCCFC40ED11C40E0ACCF01E09A
:104D9000BACF80E3DBCF6217730731F4963388F420
:104DA000953311F4552369F0F6018083FD01842FBA
:104DB00090E2811108C0A40FB11D1C9290E080E028
:104DC00002CF81E3F1CF91938150F3CF911183CF43
:104DD0008ACFB0E0A0E0EFEEF6E20C94802A5C010E
:104DE0007B016115710519F0DB018D939C938501A1
:104DF0000F5F1F4FF501D0818D2F90E00E94112988
:104E00006C01892BB9F5DD32B9F50F5F1F4FD50164
:104E10001196DC91C1E05801F1E0AF1AB10843E00E
:104E200050E060E770E0C5010E941A29892B69F5FE
:104E3000680182E0C80ED11C45E050E06BE670E0EE
:104E4000C6010E941A29892B21F4680197E0C90E36
:104E5000D11CE114F10419F0D701CD92DC9260E08D
:104E600070E080E89FEFC111FFC060E070E080E873
:104E70009FE7FAC05801BBCFDB3229F485010E5FF2
:104E80001F4FF501D181C0E0C6CF43E050E068E696
:104E900070E0C5010E941A29892BE9F0F80110E0A1
:104EA00000E020E030E0A9015F01B0ED8B2E8D0E17
:104EB00089E08815C8F19C2E689491F88C2F887031
:104EC000C2FF16C0811102C00F5F1F4F3196D5017E
:104ED000DC91C92DE9CFE114F10429F00E5F1F4FD9
:104EE000F7011183008360E070E080EC9FE7BCC0B5
:104EF000882311F001501109A5E0B0E00E946F2A4B
:104F00009B01AC01220F331F441F551F280D311D7B
:104F1000411D511D283999E93907490799E1590778
:104F2000A8F2C6609C2ED2CFAEEF8A1206C0C3FD97
:104F30003CC09C2E689493F8C9CFDF7DD534A9F589
:104F400080818D3239F4C061DF011296818162E087
:104F500070E006C0DF018B32C1F3119661E070E0B2
:104F600080535D01A61AB70A8A30F8F4E0E8CE163D
:104F7000ECE0DE065CF4B601660F771F660F771F64
:104F8000C60ED71ECC0CDD1CC80ED11C5D01FFEF78
:104F9000AF1ABF0A8C9180538A30A8F1C4FF03C0B6
:104FA000D194C194D1080C0D1D1DC1FF09C0E1149D
:104FB000F10431F081E0A81AB108D701AD92BC929A
:104FC000CA01B9010E943729C370C33009F490584F
:104FD0004B015C0120E030E0A9010E9432298823C6
:104FE00009F440C0CFE9D0E017FF05C01195019545
:104FF0001109C7E8D0E06E01B8E1CB1AD10880E210
:10500000E82EF12C0FC0D501B1CFFE0125913591CD
:10501000459154910E191F09C501B4010E949829A8
:105020004B015C01D501C4010E151F0574F72497CF
:10503000F594E794CC16DD06A9F78A2F880F8B2FFD
:10504000881F8F3F49F020E030E0A901C501B4017D
:105050000E943229811106C082E290E09093E6031B
:105060008093E503C501B401CDB7DEB7ECE00C9445
:105070009C2A283008F027E03327DA01990F311DE8
:1050800087FD916000966105710539F432602E5FED
:105090003D9330E32A95E1F708959F3F30F0803843
:1050A0007105610509F03C5F3C5F3D93913008F06C
:1050B0008068911DDF93CF931F930F93FF92EF9220
:1050C000192F987F9695E92F96959695E90FFF27CA
:1050D000E350FF4F99273327EE24FF24A701E70170
:1050E00005900894079428F4360FE71EF81E491F10
:1050F000511D660F771F881F991F0694A1F7059011
:10510000079428F4E70EF81E491F561FC11D770F9C
:10511000881F991F661F0694A1F70590079428F42D
:10512000F80E491F561FC71FD11D880F991F661FF4
:10513000771F0694A1F70590079420F4490F561F96
:10514000C71FD81F990F661F771F881F0694A9F7DE
:1051500084911095177041F0D695C795579547954E
:10516000F794E7941A95C1F7E3EAF0E06894159094
:10517000159135916591959105907FE27395E118B0
:10518000F10A430B560BC90BD009C0F7E10CF11E15
:10519000431F561FC91FD01D7EF4703311F48A952A
:1051A000E6CFE894015030F0080F0AF40027021708
:1051B00008F4202F2395022F7A3328F079E37D938A
:1051C0002A95E9F710C07D932A9589F6069497955C
:1051D0006795379517951794E118F10A430B560B0D
:1051E000C90BD00998F023957E9173957A3308F016
:1051F00070E37C932013B8F77E9170617D9330F05B
:10520000839571E37D9370E32A95E1F71124EF9084
:10521000FF900F911F91CF91DF91992787FD909576
:10522000089591110C94052A803219F08950855007
:10523000C8F70895FB01DC014150504088F08D9182
:1052400081341CF08B350CF4805E659161341CF068
:105250006B350CF4605E861B611171F3990B089538
:10526000881BFCCF0E94742908F481E00895E8941B
:1052700009C097FB3EF490958095709561957F4F9E
:105280008F4F9F4F9923A9F0F92F96E9BB2793954C
:10529000F695879577956795B795F111F8CFFAF45C
:1052A000BB0F11F460FF1BC06F5F7F4F8F4F9F4F8D
:1052B00016C0882311F096E911C0772321F09EE8EB
:1052C000872F762F05C0662371F096E8862F70E051
:1052D00060E02AF09A95660F771F881FDAF7880F2B
:1052E0009695879597F90895990F0008550FAA0B81
:1052F000E0E8FEEF16161706E807F907C0F01216E9
:105300001306E407F50798F0621B730B840B950BEB
:1053100039F40A2661F0232B242B252B21F4089540
:105320000A2609F4A140A6958FEF811D811D0895DD
:105330000E94AB290C941F2A0E94112A38F00E9467
:10534000182A20F0952311F00C94082A0C940E2AA8
:1053500011240C94532A0E94302A70F3959FC1F3B4
:10536000950F50E0551F629FF001729FBB27F00D13
:10537000B11D639FAA27F00DB11DAA1F649F662768
:10538000B00DA11D661F829F2227B00DA11D621FB7
:10539000739FB00DA11D621F839FA00D611D221F71
:1053A000749F3327A00D611D231F849F600D211D55
:1053B000822F762F6A2F11249F5750409AF0F1F0D8
:1053C00088234AF0EE0FFF1FBB1F661F771F881F41
:1053D00091505040A9F79E3F510580F00C94082A47
:1053E0000C94532A5F3FE4F3983ED4F38695779567
:1053F0006795B795F795E7959F5FC1F7FE2B880FE7
:10540000911D9695879597F908959927882708956E
:1054100097F99F6780E870E060E008959FEF80EC67
:10542000089500240A94161617061806090608950A
:1054300000240A9412161306140605060895092E70
:105440000394000C11F4882352F0BB0F40F4BF2BDF
:1054500011F460FF04C06F5F7F4F8F4F9F4F08951F
:1054600057FD9058440F551F59F05F3F71F0479515
:10547000880F97FB991F61F09F3F79F087950895FA
:10548000121613061406551FF2CF4695F1DF08C019
:10549000161617061806991FF1CF86957105610536
:1054A00008940895E894BB2766277727CB0197F9DE
:1054B0000895F999FECF92BD81BDF89A992780B5DC
:1054C0000895262FF999FECF1FBA92BD81BD20BD48
:1054D0000FB6F894FA9AF99A0FBE019608950E94B1
:1054E000D32AA59F900DB49F900DA49F800D911D70
:1054F000112408952F923F924F925F926F927F9264
:105500008F929F92AF92BF92CF92DF92EF92FF92D3
:105510000F931F93CF93DF93CDB7DEB7CA1BDB0B7F
:105520000FB6F894DEBF0FBECDBF09942A88398824
:1055300048885F846E847D848C849B84AA84B9842B
:10554000C884DF80EE80FD800C811B81AA81B98137
:10555000CE0FD11D0FB6F894DEBF0FBECDBFED014B
:105560000895A1E21A2EAA1BBB1BFD010DC0AA1FA4
:10557000BB1FEE1FFF1FA217B307E407F50720F0BC
:10558000A21BB30BE40BF50B661F771F881F991F37
:105590001A9469F760957095809590959B01AC0180
:1055A000BD01CF010895A29FB001B39FC001A39F89
:1055B000700D811D1124911DB29F700D811D11244C
:1055C000911D08955058BB27AA270E94FA2A0C94CF
:1055D0001F2A0E94112A38F00E94182A20F039F45C
:1055E0009F3F19F426F40C940E2A0EF4E095E7FB85
:1055F0000C94082AE92F0E94302A58F3BA17620740
:1056000073078407950720F079F4A6F50C94522AC5
:105610000EF4E0950B2EBA2FA02D0B01B9019001CD
:105620000C01CA01A0011124FF27591B99F0593F11
:1056300050F4503E68F11A16F040A22F232F342F59
:105640004427585FF3CF469537952795A795F040A7
:105650005395C9F77EF41F16BA0B620B730B840BBC
:10566000BAF09150A1F0FF0FBB1F661F771F881F74
:10567000C2F70EC0BA0F621F731F841F48F48795CC
:1056800077956795B795F7959E3F08F0B0CF9395BE
:10569000880F08F09927EE0F9795879508950E9437
:1056A000382A88F09F5798F0B92F9927B751B0F052
:1056B000E1F0660F771F881F991F1AF0BA95C9F796
:1056C00014C0B13091F00E94522AB1E008950C94B8
:1056D000522A672F782F8827B85F39F0B93FCCF36B
:1056E000869577956795B395D9F73EF49095809513
:1056F000709561957F4F8F4F9F4F08950E94742939
:1057000008F48FEF08950E947429880B990B08956F
:1057100097FB072E16F4009407D077FD09D00E945E
:105720009C2B07FC05D03EF4909581959F4F0895E2
:10573000709561957F4F0895AA1BBB1B51E107C06F
:10574000AA1FBB1FA617B70710F0A61BB70B881F11
:10575000991F5A95A9F780959095BC01CD010895A0
:10576000EE0FFF1F0590F491E02D09940F931F9306
:10577000CF93DF938230910510F482E090E0E091C6
:10578000E903F091EA0330E020E0B0E0A0E03097D8
:1057900099F42115310509F44AC0281B390B24302E
:1057A0003105D8F58A819B816115710589F1FB016D
:1057B00093838283FE0111C0408151810281138154
:1057C00048175907E0F04817590799F4109761F006
:1057D00012960C93129713961C933296CF01DF9179
:1057E000CF911F910F9108950093E9031093EA035D
:1057F000F4CF2115310551F04217530738F0A901B4
:10580000DB019A01BD01DF01F801C1CFEF01F9CF42
:105810009093EA038093E903CDCFFE01E20FF31FDB
:10582000819391932250310939832883D7CF2091D6
:10583000E7033091E803232B41F420910E013091CE
:105840000F013093E8032093E70320910C0130917E
:105850000D012115310541F42DB73EB740911001DE
:1058600050911101241B350BE091E703F091E803FF
:10587000E217F307A0F42E1B3F0B2817390778F027
:10588000AC014E5F5F4F2417350748F04E0F5F1F86
:105890005093E8034093E703819391939FCFF0E007
:1058A000E0E09CCFCF93DF930097E9F0FC013297C3
:1058B00013821282A091E903B091EA03ED0130E076
:1058C00020E01097A1F420813181820F931F209155
:1058D000E7033091E8032817390709F061C0F09316
:1058E000E803E093E703DF91CF910895EA01CE1733
:1058F000DF07E8F54A815B819E0141155105B1F74B
:10590000E901FB83EA8349915991C40FD51FEC1734
:10591000FD0761F4808191810296840F951FE90152
:1059200099838883828193819B838A83F0E0E0E07E
:1059300012968D919C9113970097B9F52D913C91FA
:105940001197CD010296820F931F2091E7033091AA
:10595000E8032817390739F6309751F51092EA0312
:105960001092E903B093E803A093E703BCCFD3837D
:10597000C28340815181840F951FC817D90761F4F4
:105980004E5F5F4F88819981480F591F5183408333
:105990008A819B81938382832115310509F0B0CFE1
:1059A000F093EA03E093E9039ECFFD01DC01C0CF51
:1059B00013821282D7CFB0E0A0E0E1EEFCE20C94BB
:1059C0007C2A8C01009751F4CB010E94B62B8C01EC
:1059D000C801CDB7DEB7E0E10C94982AFC01E60FD0
:1059E000F71F9C0122503109E217F30708F49DC00C
:1059F000D901CD91DC911197C617D70798F0C53022
:105A0000D10530F3CE0104978617970708F3C61B1C
:105A1000D70B2297C193D1936D937C93CF010E94B2
:105A2000522CD6CF5B01AC1ABD0A4C018C0E9D1EC8
:105A3000A091E903B091EA03512C412CF12CE12C07
:105A4000109731F58091E7039091E8038815990547
:105A500009F05CC04616570608F058C080910C014A
:105A600090910D01009741F48DB79EB740911001C0
:105A700050911101841B950BE817F90708F055C0E8
:105A8000F093E803E093E703F90171836083A0CF0B
:105A90008D919C91119712966C90129713967C9011
:105AA0001397A815B90559F56C0142E0C40ED11C35
:105AB000CA14DB0420F1AC014A195B09DA01129621
:105AC000159780F06282738251834083D9016D9370
:105AD0007C93E114F10471F0D7011396FC93EE93DB
