:100000000C94E4040C940C050C940C050C940C0555
:100010000C940C050C940C050C940C050C940C051C
:100020000C940C050C940C050C940C050C940C050C
:100030000C940C050C940C050C940C050C940C05FC
:100040000C94491E0C940C050C94171E0C94F11D75
:100050000C940C050C940C050C940C050C940C05DC
:100060000C940C050C940C054E414E494E495459C4
:10007000494E46CDCCCC3D0AD7233C17B7D1387773
:10008000CC2B329595E6241FB14F0A000020410089
:1000900000C84200401C4620BCBE4CCA1B0E5AAED3
:1000A000C59D7400407A10F35A00A0724E180900E2
:1000B00010A5D4E80000E87648170000E40B5402CD
:1000C0000000CA9A3B000000E1F505000080969808
:1000D00000000040420F000000A086010000001058
:1000E0002700000000E8030000000064000000009A
:1000F000000A00000000000100000000002C76D87B
:1001000088DC674F0823DFC1DFAE59E1B1B796E560
:10011000E3E453C63AE651997696E8E6C28426EBC4
:10012000898C9B62ED407C6FFCEFBC9C9F40F2BAD7
:10013000A56FA5F490055A2AF75C936B6CF9676D6F
:10014000C11BFCE0E40D47FEF520E6B500D0ED90C4
:100150002E0300943577050080841E080000204E91
:100160000A000000C80C333333330F986E1283112A
:1001700041EF8D2114893BE65516CFFEE6DB18D101
:10018000844B381BF77C1D901DA4BBE424203284D3
:10019000725E228100C9F124ECA1E53D27005EBC1E
:1001A000E2613FDD83C29C7E20A3FD1F419DC321F0
:1001B0007FFCA2401E5F01E3BD3E6082DC237D9F89
:1001C000C1421CFEA0E1BF5D0380DE3C62BEE002D6
:1001D0005CDF81633D7C22C09E1D43A1FF4618FA6F
:1001E000A427799BC584DA3866E5BB5907DB8567A8
:1001F00039BAE406581947A5FB7826C49A653BD955
:1002000087045AB8E6A7F91B45C6987A24F8A6448D
:100210001A99C7257B3A6486D85B05E7B98CD2303A
:100220006EEDB3510F4E10F2AC2F7193CD114FAD57
:10023000F3702ECC92D38D6F31B2EC0E50AFF11320
:100240004DCE90722C6D33D18F0C52B0EE326C8E3D
:10025000D0530DEFB1F0AE4C1291CF2D73CA9476FE
:1002600028ABF517490856B4EA6937D58B5709EB1F
:10027000B536688AD495CB2977F4AA4816E9B755DC
:100280000B88D6346A2B7597C94A14F6A8742AC805
:1002900096154BA9F7B6E80A54D7896B35000000CC
:1002A0000800020100000304070000000000000035
:1002B0000000000000250028002B000000000024A2
:1002C0000027002A003C2F68746D6C3E003C2F62B2
:1002D0006F64793E003C623E507265736D65726F6B
:1002E00076616E69652E2E2E2050726F73696D20B7
:1002F00063616B616A74653C2F623E3C2F63656E7F
:100300007465723E003C63656E7465723E3C683392
:100310003E536572766572207072696A616C206402
:10032000617461207A20666F726D756CC3A1726111
:100330003A3C2F68333E003C626F64793E003C2FAC
:10034000686561643E003C7469746C653E48545451
:100350005020776562736572766572202D20417238
:100360006475696E6F202B2045746865726E6574C4
:100370003C2F7469746C653E003C6D657461206847
:100380007474702D65717569763D27526566726566
:1003900073682720636F6E74656E743D27353B204C
:1003A00075726C3D2F27202F3E003C6D65746120D7
:1003B000636861727365743D277574662D38273ED6
:1003C000003C686561643E003C68746D6C3E003CB6
:1003D00021444F43545950452068746D6C3E00438E
:1003E0006F6E74656E742D547970653A20746578FB
:1003F000742F68746D6C00485454502F312E312086
:10040000323030204F4B007D002241637475616CA7
:100410005F54656D7065726174757265223A002C67
:1004200000225461726765745F54656D7065726116
:1004300074757265223A002C0022487973746572D3
:1004400065736973223A007B00436F6E74656E7446
:100450002D547970653A20746578742F68746D6CCA
:1004600000485454502F312E3120323030204F4B21
:10047000003C2F68746D6C3E003C2F626F64793EC7
:10048000003C2F63656E7465723E003C68343E56D6
:1004900065727A69612066726565202D20312E3083
:1004A0002E31206275696C643A2030322E205365FB
:1004B0007020323032303C2F68343E003C68333E8E
:1004C0004175746F723A204D617274696E20436891
:1004D0006C65626F766563202D206D617274696E44
:1004E000697573393640676D61696C2E636F6D2075
:1004F0002D2068747470733A2F2F6D617274696E59
:1005000069757339362E6769746875622E696F2F45
:100510007465726D6F737461742D65746865726E45
:1005200065742F3C2F68333E0020C2B043003C620C
:100530003E416B7475C3A16C6E61207465706C6F05
:1005400074612073656E7A6F726120445331384252
:1005500032303A3C2F623E20003C64697620696468
:100560003D22636F756E74646F776E223E3C2F641C
:1005700069763E003C623E3C666F6E7420636F6C31
:100580006F723D27726564273E56C3BD73747570E4
:100590003A205679706E7574C3BD3C2F666F6E74C9
:1005A0003E3C2F623E003C623E3C666F6E742063B0
:1005B0006F6C6F723D27677265656E273E56C3BDCF
:1005C000737475703A205A61706E7574C3BD3C2F98
:1005D000666F6E743E3C2F623E003C2F666F726DFC
:1005E0003E3C68723E003C696E7075742074797090
:1005F000653D277375626D69742720636C61737341
:100600003D2762746E2062746E2D7375636365732B
:1006100073272076616C75653D275A6170C3AD7391
:1006200061C5A5273E003C666F726D2061637469E9
:100630006F6E3D272F616374696F6E2E68746D6CE9
:1006400027206D6574686F643D27676574273E00D9
:100650003C63656E7465723E3C68333E5A6164610A
:100660006A74652064C3A174612070726520776527
:10067000627365727665722028627564C3BA2075EC
:100680006C6FC5BE656EC3A920646F20454550528E
:100690004F4D293A3C2F68333E003C626F64793EEF
:1006A000003C2F686561643E003C7469746C653E73
:1006B0004854545020776562736572766572202DB8
:1006C0002041726475696E6F202B204574686572D5
:1006D0006E65743C2F7469746C653E003C2F7363C7
:1006E000726970743E007D2C2031303030293B001F
:1006F00074696D656C656674202D3D20313B007D0D
:1007000000646F63756D656E742E676574456C6506
:100710006D656E74427949642822636F756E7464E6
:100720006F776E22292E696E6E657248544D4C208B
:100730003D2074696D656C656674202B20222073E2
:10074000656BC3BA6E6420646F207265C5A1746165
:10075000727475223B007D20656C7365207B00649C
:100760006F63756D656E742E676574456C656D6538
:100770006E74427949642822636F756E74646F7772
:100780006E22292E696E6E657248544D4C203D20B4
:10079000225265C5A1746172742E2E2E223B006315
:1007A0006C656172496E74657276616C28646F77EE
:1007B0006E6C6F616454696D6572293B00696628CF
:1007C00074696D656C656674203C3D2030297B0042
:1007D00076617220646F776E6C6F616454696D65C9
:1007E00072203D20736574496E74657276616C2861
:1007F00066756E6374696F6E28297B00766172205E
:1008000074696D656C656674203D2031303B003C39
:1008100073637269707420747970653D27746578AC
:10082000742F6A617661736372697074273E003C4D
:100830006C696E6B2072656C3D277374796C65739F
:10084000686565742720687265663D2768747470F2
:10085000733A2F2F6D617863646E2E626F6F7473BD
:100860007472617063646E2E636F6D2F626F6F744C
:1008700073747261702F332E342E312F6373732F84
:10088000626F6F7473747261702E6D696E2E637314
:1008900073273E003C6D657461206E616D653D2778
:1008A00076696577706F72742720636F6E74656EFA
:1008B000743D2777696474683D6465766963652D66
:1008C00077696474682C20696E697469616C2D7332
:1008D00063616C653D31273E003C6D657461206845
:1008E0007474702D65717569763D27526566726501
:1008F00073682720636F6E74656E743D27313027EF
:100900003B202F3E003C6D657461206E616D653D3E
:1009100027617574686F722720636F6E74656E74DB
:100920003D274D617274696E2043686C65626F7615
:100930006563273E003C6D65746120636861727376
:1009400065743D277574662D38273E003C686561E7
:10095000643E003C68746D6C3E003C21444F43543F
:100960005950452068746D6C3E00436F6E74656E1F
:10097000742D547970653A20746578742F68746D9D
:100980006C00485454502F312E3120323030204FDB
:100990004B0000000000230026002900040404048A
:1009A0000404040402020202020203030303030319
:1009B00001020408102040800102040810200102F6
:1009C00004081020931ED02911241FBECFEFD8E0B9
:1009D000DEBFCDBF13E0A0E0B1E0E2EBF6E602C07F
:1009E00005900D92A633B107D9F724E0A6E3B3E052
:1009F00001C01D92A93EB207E1F714E0C3EED4E0B6
:100A000004C02197FE010E941A31C23ED107C9F7E6
:100A10000E946B1F0C944C330C9400008CBD9DBD48
:100A2000089520E3FC0120833296862F82958F70F3
:100A30006F706A3030F4605D6293682F8111F5CF7A
:100A40000895695CF9CFFC01818D928D0895089518
:100A5000AF92BF92CF92DF92EF92FF920F931F93CC
:100A6000CF93DF936C017B018B01040F151FEB010A
:100A70005E01AE18BF08C017D10759F06991D601C1
:100A8000ED91FC910190F081E02DC6010995892B33
:100A900079F7C501DF91CF911F910F91FF90EF90F2
:100AA000DF90CF90BF90AF900895FC01538D448D9F
:100AB000252F30E0842F90E0821B930B541710F009
:100AC000CF96089501970895FC01918D828D981716
:100AD00061F0A28DAE0FBF2FB11D5D968C91928DEE
:100AE0009F5F9F73928F90E008958FEF9FEF08951F
:100AF000FC01918D828D981731F0828DE80FF11DE8
:100B0000858D90E008958FEF9FEF0895FC01918D02
:100B1000228D892F90E0805C9F4F821B91098F73FB
:100B2000992708958BED93E00E94860521E0892B9B
:100B300009F420E0822F089580E090E0892B29F0CD
:100B40000E94920581110C9400000895FC01A48D6F
:100B5000A80FB92FB11DA35ABF4F2C91848D90E0DF
:100B600001968F739927848FA689B7892C93A089C2
:100B7000B1898C91837080648C93938D848D98134C
:100B800006C00288F389E02D80818F7D80830895DF
:100B9000EF92FF920F931F93CF93DF93EC0181E0CD
:100BA000888F9B8D8C8D98131AC0E889F989808174
:100BB00085FF15C09FB7F894EE89FF896083E889A7
:100BC000F98980818370806480839FBF81E090E099
:100BD000DF91CF911F910F91FF90EF900895F62E26
:100BE0000B8D10E00F5F1F4F0F731127E02E8C8DC0
:100BF0008E110CC00FB607FCFACFE889F989808105
:100C000085FFF5CFCE010E94A605F1CFEB8DEC0F4D
:100C1000FD2FF11DE35AFF4FF0829FB7F8940B8F21
:100C2000EA89FB8980818062CFCFCF93DF93EC018B
:100C3000888D8823B9F0AA89BB89E889F9898C91C4
:100C400085FD03C0808186FD0DC00FB607FCF7CF80
:100C50008C9185FFF2CF808185FFEDCFCE010E9480
:100C6000A605E9CFDF91CF91089590E0FC01E3560E
:100C7000FD4F2491FC01E055F64F3491FC01E45600
:100C8000F64FE491EE23C9F0222339F0233001F12D
:100C9000A8F4213019F1223029F1F0E0EE0FFF1F06
:100CA000EF54FD4FA591B4918FB7F894EC91611179
:100CB00026C030953E233C938FBF08952730A9F07E
:100CC0002830C9F0243049F7809180008F7D03C01F
:100CD000809180008F7780938000DFCF84B58F77FD
:100CE00084BDDBCF84B58F7DFBCF8091B0008F7743
:100CF0008093B000D2CF8091B0008F7DF9CF3E2B92
:100D0000DACFCF93DF9390E0FC01E055F64F2491CA
:100D10008456964FFC0184918823D1F090E0880F8F
:100D2000991FFC01E554FD4FA591B491FC01EF54CE
:100D3000FD4FC591D49161110EC09FB7F8948C916D
:100D4000E22FE0958E238C932881E223E8839FBFD6
:100D5000DF91CF9108958FB7F894EC91E22BEC934B
:100D60008FBFF6CF3FB7F89480913C0390913D033D
:100D7000A0913E03B0913F0326B5A89B05C02F3F2D
:100D800019F00196A11DB11D3FBFBA2FA92F982FB1
:100D90008827BC01CD01620F711D811D911D42E0AC
:100DA000660F771F881F991F4A95D1F708958F9274
:100DB0009F92AF92BF92CF92DF92EF92FF926B0120
:100DC0007C010E94B2064B015C01C114D104E10414
:100DD000F104B9F00E94B206681979098A099B09E1
:100DE000683E73408105910580F321E0C21AD10865
:100DF000E108F10888EE880E83E0981EA11CB11C62
:100E0000E4CFFF90EF90DF90CF90BF90AF909F9096
:100E10008F9008952FB7F89460913803709139033B
:100E200080913A0390913B032FBF0895DC0180E04D
:100E3000615038F0ED91E827F0E0E356FE4F8491E1
:100E4000F7CF0895DC012C911196ED91FC91F89467
:100E50008181822B81839281322F309593239283DB
:100E600087E090E00197F1F781818323818383E21A
:100E700090E00197F1F790817894EFECF0E03197F2
:100E8000F1F7922381E009F480E00895FC0190815C
:100E90000180F281E02D292F209560FF14C0F89485
:100EA0008281822382838181892B8183A3E2B0E0C6
:100EB0001197F1F78281982B9283789487ED90E0D7
:100EC0000197F1F70895F8948281822382838181CA
:100ED000892B8183AFEFB0E01197F1F78281982BD6
:100EE000928378948FE090E0EBCFDF92EF92FF92C5
:100EF0000F931F93CF93DF93EC01D62EE42E08E0DF
:100F000010E0FF24F39461E08D2D8F2109F460E05F
:100F1000CE010E944607FF0C01501109A1F7E11014
:100F200010C0F894E981FA819181888180958923A4
:100F30008183E981FA8192818881809589238283E6
:100F40007894DF91CF911F910F91FF90EF90DF90F8
:100F50000895EF92FF920F931F93CF93DF938C012D
:100F60007B0140E065E50E947507E70188E0E80E37
:100F7000F11C699140E0C8010E947507CE15DF059C
:100F8000C1F7DF91CF911F910F91FF90EF900895DE
:100F9000FC0190810180F281E02DF8948181292F5C
:100FA00020958223818378943DE743E050E03150DF
:100FB00029F1DA011197F1F780818923C1F3F894BF
:100FC0008281822382838181892B81837894ABE71C
:100FD000B7E01197F1F7F894818182238183A3E12F
:100FE000B1E01197F1F78081982381E009F080E06A
:100FF0007894E3E6F6E03197F1F7089580E00895FC
:10100000AF92BF92CF92DF92EF92FF920F931F9316
:10101000CF93DF938B01BC018091BF049091C004FA
:101020000E94A90740E06EEB8091BF049091C0043C
:101030000E947507E801680189E0C80ED11CA090E4
:10104000BF04B090C00488E0E82EF12C10E001E06D
:10105000C5010E9422078111102B000F81E0E81AC0
:10106000F108B1F71993CC16DD0649F78091BF045A
:101070009091C0040E94C80791E0813009F090E08F
:10108000892FDF91CF911F910F91FF90EF90DF900B
:10109000CF90BF90AF9008950F931F93CF93DF939E
:1010A000CDB7DEB729970FB6F894DEBF0FBECDBF20
:1010B0008C018091BF049091C0040E94C8078111E7
:1010C00002C080E01FC0BE016F5F7F4FC8010E9459
:1010D00000088823B1F368E0CE0101960E9416074C
:1010E00099858913EECF8D818F33B9F020F48F313C
:1010F00041F789E007C08F3521F08F3711F78CE079
:1011000001C08BE029960FB6F894DEBF0FBECDBFAD
:10111000DF91CF911F910F9108958AE0F3CFFC01E9
:1011200020812EBD9B012150310941F051810DB428
:1011300007FEFDCF4EB55EBD4193F5CF61507109FD
:10114000860F971F0DB407FEFDCF2EB5FC0120833F
:101150000895E0914103F091420380819091400312
:10116000892B80830895E0914103F091420390819F
:101170008091400380958923808308958EBD00006F
:101180000DB407FEFDCF8EB50895AF92BF92CF92FA
:10119000DF92EF92FF920F931F93CF93DF93CDB720
:1011A000DEB728970FB6F894DEBF0FBECDBF8C0117
:1011B0007B016A018091DA038333E1F45801A40EC4
:1011C000B51EA016B10609F46FC00E94B30880EFE7
:1011D0000E94BE08812F0E94BE08802F0E94BE0878
:1011E0000F5F1F4FF70181917F010E94BE080E948F
:1011F000A908E7CF5B01A40EB51E8433C1F40E9499
:10120000B30819830A838D2D80688B83CC8264E0B8
:1012100070E0CE0101960E948F08AE14BF0409F45D
:1012200041C0F70181917F010E94BE08F6CF0E9464
:10123000B3080F3F110509F028F419820A8384E0EE
:101240008B830CC017FD17C019820A8333E01695F3
:1012500007953A95E1F7007E0C600B8386E0C8168F
:10126000D104A0F5F701DE011496EA15FB0599F00B
:1012700081918D93FACFC80126E0969587952A959E
:10128000E1F7807E19830A830115104C10F4846104
:10129000D7CF8C61D5CFB6016D5F7F4FCE01019660
:1012A0000E948F080E94A908C60128960FB6F894DC
:1012B000DEBF0FBECDBFDF91CF911F910F91FF9089
:1012C000EF90DF90CF90BF90AF90089563E070E013
:1012D000CE0101960E948F08F70181917F010E9443
:1012E000BE08AE14BF04C1F7DDCFCF93DF931F92CA
:1012F000CDB7DEB7898341E050E0BE016F5F7F4F1D
:1013000090E080E00E94C5080F90DF91CF91089592
:1013100090E02091DA03233339F40C96982F990F3B
:10132000990F990F80E008954896F8CFDA01E0917F
:101330004403F0E0FE2FEE27E60FF71F90E0982F12
:101340008827A901BD018E0F9F1F0C94C508CF935C
:10135000DF9300D0CDB7DEB779836A8322E030E037
:10136000AE014F5F5F4F60E170E00E9496090F9001
:101370000F90DF91CF910895CF93DF9300D0CDB739
:10138000DEB779836A8322E030E0AE014F5F5F4FC2
:1013900064E070E00E9496090F900F90DF91CF916A
:1013A0000895CF93DF931F92CDB7DEB7209144030A
:1013B00030E0322F2227260F371F90E0982F882702
:1013C000498341E050E0BE016F5F7F4F820F931F62
:1013D0000E94C5080F90DF91CF910895CF93DF93BE
:1013E0001F92CDB7DEB76983DC01ED91FC910280DD
:1013F000F381E02D41E050E0BE016F5F7F4F099522
:101400000F90DF91CF910895CF93DF931F92CDB7C7
:10141000DEB76983DC01ED91FC910280F381E02D60
:1014200041E050E0BE016F5F7F4F09950F90DF9163
:10143000CF910895FC019485FB018485981303C026
:1014400081E0943008F080E00895CF93DF931F92FD
:10145000CDB7DEB76983DC01ED91FC910280F381A9
:10146000E02D41E050E0BE016F5F7F4F09950F9086
:10147000DF91CF910895EF92FF920F931F93CF9337
:10148000DF938C017B01D0E0C0E0F701EC0FFD1F82
:101490006491662339F0C8010E94250A892B11F056
:1014A0002196F3CFCE01DF91CF911F910F91FF9045
:1014B000EF900895FC01768765870895DC01ED9132
:1014C000FC91068CF78DE02D099591E08927089510
:1014D000862F089581E08627089521E0FC01848508
:1014E000843008F020E0822F08950895FF920F9332
:1014F0001F93CF93DF93EB01FC01178A168A2A8191
:10150000211109C02B81211106C02C81211103C09A
:101510002D81222301F141155105E9F08A01FC01D9
:10152000F08C80E591E00E940E05AE014E5F5F4FAA
:1015300024E030E06CE070E08F2D0E949609B80145
:101540008F2D0E94A70981E090E0DF91CF911F913C
:101550000F91FF90089580E0F7CFFC018485958579
:101560000895FC0184899589089524E931E0FC01FE
:1015700031832083FB014089518962897389FC0191
:1015800042835383648375830895DC01ED91FC915C
:10159000048CF58DE02D0994089590E080E0089585
:1015A0008091BF049091C0040E94C80740E06CEC99
:1015B0008091BF049091C0040E9475074091BA04C5
:1015C00064E48091BF049091C0040E9475078091EB
:1015D000BC048823A1F0E091BB04E9506EEE72E0F8
:1015E000E33038F4F0E0EE0FFF1FE858FE4F608163
:1015F0007181072E000C880B990B0C94D706089567
:10160000BF92CF92DF92EF92FF920F931F93CF93EF
:10161000DF93EC01B62EC72EED84E11004C00E94CA
:10162000C80781110EC01B861D861C8680E0DF91D5
:10163000CF911F910F91FF90EF90DF90CF90BF90CF
:10164000089540E060EFCE010E947507D12C01E0C3
:1016500011E0CE010E942207F82ECE010E9422073F
:1016600091E0F91218C0813099F51134E0F2EB865F
:10167000E11002C081E08D878B818823A1F223963F
:10168000EB2DFC2DCF01089629912193E817F9073E
:10169000D9F781E0CCCFED2DF0E0F8120FC08B85AB
:1016A0001817A0F4DE01AE0FBF1F13968C91802394
:1016B00079F4F12C193008F41C87E12EEC0FFD1F92
:1016C0008381902F9095892383830AC08113F1CF62
:1016D000FE01ED0DF11D8381802B8383FF24F394A4
:1016E0006F2DCE010E9446071F5F000F11F4D394A7
:1016F00001E087E08D1508F0ACCFB7CFAF92BF9275
:10170000CF92DF92EF92FF920F931F93CF93DF93CD
:1017100000D000D0CDB7DEB78C016B017A0180918B
:10172000DA038333E9F45B016801C40ED51EC016E9
:10173000D106A9F10E94B3088FE00E94BE08812F54
:101740000E94BE08802F0E94BE080F5F1F4F80E0DE
:101750000E94BE08F50181935F010E94A908E7CFAE
:10176000843369F50E94B30819830A838F2D8F771C
:101770008B83EC8264E070E0CE0101960E948F08BA
:10178000A70170E060E0C6010E941833E114F10483
:1017900021F0B701C6010E948F080E94A908C70165
:1017A0000F900F900F900F90DF91CF911F910F919D
:1017B000FF90EF90DF90CF90BF90AF9008950E9480
:1017C000B3080F3F110509F030F419820A831B8218
:1017D00063E070E0D1CF17FD0BC019820A8333E0BC
:1017E000169507953A95E1F7007E08600B83F0CFD8
:1017F000C80126E0969587952A95E1F7807E1983A2
:101800000A830115104C18F480618B83E1CF886145
:10181000FCCFCF93DF931F92CDB7DEB72091440367
:1018200030E0322F2227260F371F90E0982F88278D
:1018300041E050E0BE016F5F7F4F820F931F0E9417
:101840007E0B89810F90DF91CF910895CF93C82FA0
:10185000462F61E070E00E94D10961E070E08C2FBA
:101860000E94090C8111F9CFCF910895CF93C82F11
:1018700080E591E00E940E0568E070E08C2FCF912A
:101880000C94260CCF93C82F80E591E00E940E05A2
:1018900060E170E08C2FCF910C94260CCF93DF93F6
:1018A000EC01888D843020F40E94420C84E0888F03
:1018B000DF91CF91089563E070E00C94090CCF9311
:1018C000C82F80E591E00E940E058C2FCF910C94DB
:1018D0005B0CEF92FF920F931F93CF937C0102ED6D
:1018E00013E0C0E0F801219131918F01F70184816B
:1018F00095812817390729F0CF5FC43099F780E028
:1019000006C08C2F0E945F0C8431B1F781E0CF912B
:101910001F910F91FF90EF900895CF93DF93EC010B
:101920008C858430D0F40E945F0C843189F0882348
:1019300079F0883169F021E08C3159F4E881F9813E
:101940000084F185E02DCE01099521E0892B09F471
:1019500020E0822FDF91CF91089580E0FBCFCF92DE
:10196000DF92EF92FF92CF93DF93EC018C8584306E
:1019700068F40E94360C0E940A076B017C018C857A
:101980000E945F0C811109C084E08C87DF91CF91A8
:10199000FF90EF90DF90CF90089561E070E080E0DD
:1019A00090E00E94D7060E940A07AB01BC014C19C7
:1019B0005D096E097F098D859E85B0E0A0E048171E
:1019C00059076A077B07D8F28C850E94420CDCCF4E
:1019D000CF93FC01C08D80E591E00E940E0560E28E
:1019E00070E08C2F0E94260C62E070E08C2F0E9429
:1019F000090C84FD16C062E070E08C2F0E94090C77
:101A000083FF0AC048E162E070E08C2F0E94D10998
:101A100080E090E0CF91089580E591E00E940E056E
:101A2000E3CF40E162E070E08C2F0E94D10981E0B9
:101A3000F0CFCF93DF931F92CDB7DEB741E050E0F8
:101A4000BE016F5F7F4F90E080E00E947E0B898136
:101A50000F90DF91CF910895CF93DF93C4E1D0E051
:101A60000E94190D882361F061E070E080E090E051
:101A70000E94D7062197A1F780E0DF91CF910895CA
:101A800081E0FBCF1F93CF93DF931F92CDB7DEB7DB
:101A9000182F80E591E00E940E05812F0E94880991
:101AA00027E0129FF0011124EA54FC4F2281338178
:101AB000377041E050E0BE016F5F7F4F820F931F90
:101AC0000E947E0B89810F90DF91CF911F91089525
:101AD000FC01808D843040F4218D328D232B21F048
:101AE0000E94420D90E008958FEF9FEF0895CF93ED
:101AF000DF93FC012485243028F08FEF9FEFDF91E6
:101B0000CF910895EC010190F081E02D0084F185E2
:101B1000E02D0995892B89F38C850E94420D90E078
:101B2000EECFDA01E0914403F0E0FE2FEE27E60F5E
:101B3000F71F90E0982F8827A901BD018E0F9F1FE6
:101B40000C947E0B8F929F92AF92BF92CF92DF92B6
:101B5000EF92FF921F93CF93DF93CDB7DEB72C9711
:101B60000FB6F894DEBF0FBECDBF2091DA0314E0AC
:101B7000222329F16B017C0180E591E00E940E0592
:101B80005E0127E0A20EB11C450110E0812F0E94EA
:101B90005B0CF40181934F01882349F11F5F1430DE
:101BA000A9F710E0F50181915F018D31D9F08831FD
:101BB000C9F08A518230B0F01F5F143099F7812F3D
:101BC0002C960FB6F894DEBF0FBECDBFDF91CF913C
:101BD0001F91FF90EF90DF90CF90BF90AF909F90BC
:101BE0008F90089560E170E0812F0E94260CA12E55
:101BF000B12CF501EE0FFF1FEE52FC4F1182108247
:101C000083EE93E00197F1F742E870E060E0812F06
:101C10000E94D1094FEF62E070E0812F0E94D1094C
:101C2000B601C114D10491F480910601909107018D
:101C300001968115F0EC9F0708F45CC090930701B2
:101C4000809306016091060170910701812F0E9427
:101C5000BC0986E0E2E1F1E0DE01119601900D920F
:101C60008A95E1F7F70183818F778C8384818D8357
:101C700085818E83A7014E5F5F4F24E030E06CE0EA
:101C800070E0812F0E949609B601812F0E94A7095A
:101C900026E030E0AE014F5F5F4F66E070E0812FDD
:101CA0000E94960961E070E0812F0E94260C27E0D7
:101CB0002A9DC0012B9D900D11249C012A543C4F5C
:101CC0007901F9011182108222E030E0AE01455F16
:101CD0005F4F68E270E0812F0E94910D8B859C859B
:101CE000982789279827F701938382831682158284
:101CF000148265CF80E090ECA1CFCF92DF92EF927B
:101D0000FF920F931F93CF93DF9300D000D000D0AA
:101D1000CDB7DEB78C016B017A01FC01808D843078
:101D200010F40E94420C84E991E09A838983F601C1
:101D300082819381A481B5818B839C83AD83BE8393
:101D4000B701CE0101960E94A20DF801808F843068
:101D5000A0F4F586E486128E118E81E026960FB6E9
:101D6000F894DEBF0FBECDBFDF91CF911F910F91D1
:101D7000FF90EF90DF90CF90089580E0EFCFAF928B
:101D8000BF92CF92DF92EF92FF920F931F93CF9368
:101D9000DF9300D000D000D0CDB7DEB7082F6B01A5
:101DA00080E591E00E940E059E012F5F3F4F790173
:101DB000590110E0812F0E945B0CF50181935F01B6
:101DC000882341F11F5F1430A9F710E0F7018191DA
:101DD0007F018D31D1F08831C1F08A518230A8F075
:101DE0001F5F143099F7812F26960FB6F894DEBF47
:101DF0000FBECDBFDF91CF911F910F91FF90EF905C
:101E0000DF90CF90BF90AF90089560E170E0812F98
:101E10000E94260CE12EF12CF701EE0FFF1FEE526F
:101E2000FC4F1182108283EE93E00197F1F7402F6F
:101E300070E060E0812F0E94D1094FEF62E070E016
:101E4000812F0E94D109B601CD2889F48091060125
:101E50009091070101968115F0EC9F0798F19093FE
:101E60000701809306016091060170910701812F9F
:101E70000E94BC0961E070E0812F0E94260C27E0DF
:101E80002E9DC0012F9D900D11249C012A543C4F82
:101E90007901F9011182108222E030E0AE014B5F3E
:101EA0005F4F68E270E0812F0E94910D8D819E81CD
:101EB000982789279827F7019383828316821582B2
:101EC000148291CF80E090ECCACFCF92DF92EF9254
:101ED000FF921F93CF93DF93EC017B016A018C8506
:101EE000843048F40E945F0C882319F08C850E948E
:101EF000360C84E08C87F70182819381A481B581BF
:101F00000097A105B10551F490E080E0DF91CF91F9
:101F10001F91FF90EF90DF90CF9008958F3F9F4FDC
:101F2000AF4FBF4F89F38091DA03811103C084E082
:101F30008C87EACF70E060E081E20E94BF0E182F2C
:101F40008C87843008F780E591E00E940E05A70198
:101F50004E5F5F4F24E030E06CE070E0812F0E9424
:101F60009609B601812F0E94A70964E070E0812FD5
:101F70000E94260C0E940A076B017C018C850E943E
:101F80005F0C873109F18C31F9F0882309F4BCCF5B
:101F90000E940A07AB01BC014C195D096E097F095B
:101FA0008D859E85B0E0A0E084179507A607B7074A
:101FB00038F061E070E080E090E00E94D706DECF6C
:101FC0008C850E94420CB3CF81E090E09FCF0F93AD
:101FD0001F93CF93DF93EC018B01888D843010F435
:101FE0000E94420C8091DA03811107C094E0988F1F
:101FF000DF91CF911F910F910895B80182E00E9467
:10200000BF0E888F843030F41D870C871A8E198E8E
:1020100081E0EECF80E0ECCF0F931F93CF93209120
:10202000DA03222349F18C01FC016481758181E28C
:102030000E94BF0EC82F8430F8F480E591E00E9422
:102040000E058C2F0E945B0C833131F08C2FCF91C9
:102050001F910F910C94360C62E070E08C2F0E945F
:10206000260CF80184819581EC2FF0E0EE0FFF1F24
:10207000EE52FC4F91838083CF911F910F91089571
:102080007F928F929F92AF92BF92CF92DF92EF9208
:10209000FF920F931F93CF93DF9300D0CDB7DEB79E
:1020A000782E8B014A01590122E030E0AE014F5FEA
:1020B0005F4F64E270E00E94910DE980FA80FE2497
:1020C000EF24FE24E00EF11E970137704091DA03F1
:1020D000072D10E0433309F042C0085F1F4F102F57
:1020E0000027110F110F110FC901800F911F4733E6
:1020F000C9F1A9014A0D5B1D4130584098F160E0DB
:1021000078E06B01C21AD30AA601B4010E94C50887
:10211000A5014C195D09B4016C0D7D1DC8010E941B
:10212000C508EA0CFB1CF982EA8222E030E0AE012D
:102130004F5F5F4F64E270E0872D0E9496090F9019
:102140000F90DF91CF911F910F91FF90EF90DF9053
:10215000CF90BF90AF909F908F907F900895005F39
:102160001F4FBDCFA501B401DACFEF92FF921F93AD
:10217000CF93DF9300D0CDB7DEB7182F22E030E049
:10218000AE014F5F5F4F60E270E00E94910DE98009
:10219000FA80FE24EF24FE2422E030E0AE014F5FFF
:1021A0005F4F60E270E0812F0E94910D89819A81DA
:1021B000982789279827E816F90689F487E0189F59
:1021C000F0011124EA54FC4FF582E482C7010F901C
:1021D0000F90DF91CF911F91FF90EF9008957C01B8
:1021E000DBCF1F93CF93DF93182F80E591E00E9400
:1021F0000E05812F0E94B510EC01812F0E945B0C0F
:10220000873121F08C3111F0D0E0C0E0CE01DF91B8
:10221000CF911F910895CF93DF93EC018C8584308B
:1022200060F40E945F0C873111F08C3131F48C85A1
:102230000E94F1108115984088F3DF91CF910895A5
:10224000FC018485843010F40C94F11090E080E05F
:102250000895CF92DF92EF92FF921F93CF93DF9377
:10226000182F7B01EA014130584010F0C0E0D8E05F
:1022700080E591E00E940E05812F0E94B5106C014F
:10228000812F0E945B0C873111F08C3121F5CC1627
:10229000DD0670F380E591E00E940E059E01A70126
:1022A00070E060E0812F0E94401060E270E0812FBA
:1022B0000E94260C62E070E0812F0E94090C84FDD0
:1022C0000DC0812F0E945B0C8823B9F080E591E05E
:1022D0000E940E05EFCFD0E0C0E0DCCF40E162E02D
:1022E00070E0812F0E94D109CE01DF91CF911F9123
:1022F000FF90EF90DF90CF900895D0E0C0E0F4CF52
:102300000F931F93CF93DF938C01EA01FC01848527
:10231000843048F40E942911892B39F481E090E03F
:10232000F80193838283D0E0C0E0CE01DF91CF91AA
:102330001F910F910895FB01448155816081718146
:102340000C9480119F92AF92BF92CF92DF92EF9246
:10235000FF920F931F93CF93DF938C015B01942E19
:10236000E52EFC01C688D788F08C80E591E00E94BC
:102370000E058F2D0E94B510C92DDE2D8C179D07DF
:1023800008F4EC019E01A501B6018F2D0E944010BA
:10239000F801868997898C0F9D1F978B868BCE01BC
:1023A000DF91CF911F910F91FF90EF90DF90CF9031
:1023B000BF90AF909F900895FF920F931F93CF937C
:1023C000DF9300D0CDB7DEB7F82E22E030E0AE01CB
:1023D0004F5F5F4F66E270E00E94910D09811A81A4
:1023E00010270127102722E030E0AE014F5F5F4F3A
:1023F00066E270E08F2D0E94910D89819A81982765
:10240000892798270817190749F4C8010F900F90DA
:10241000DF91CF911F910F91FF9008958C01E3CF31
:102420001F93CF93DF93182F87E0189FE0011124AB
:10243000CA54DC4F88819981009761F480E591E06E
:102440000E940E05812F0E94DC112E81821B9109B2
:1024500099838883DF91CF911F910895AF92BF92A6
:10246000CF92DF92EF92FF920F931F93CF93DF9360
:10247000EC017B018091DA03811120C01B821A825A
:1024800088EE93E0A0E0B0E08C839D83AE83BF83B1
:102490008CE191E09983888384E08C8788EE93E0D7
:1024A0009E878D87CE01DF91CF911F910F91FF9075
:1024B000EF90DF90CF90BF90AF90089582EDC82E3F
:1024C00083E0D82E10E094E0B92EA12CD6012D91F6
:1024D0003D916D01F701848195812817390791F4A9
:1024E000812F0E945F0C082F873111F08C3139F554
:1024F000812F0E941012892B59F50C3119F4812F6C
:102500000E94360C1F5F143009F7A11008C0D701D4
:10251000ED91FC910084F185E02DC70109951B82A6
:102520001A8288EE93E0A0E0B0E08C839D83AE83B6
:10253000BF838CE191E099838883BC86AFCF8431DF
:1025400049F08111DFCFF601329711821082DACF84
:10255000B12ED8CFAA24A394D5CF8F929F92AF92B9
:10256000BF92CF92DF92EF92FF921F93CF93DF93B0
:10257000CDB7DEB72F970FB6F894DEBF0FBECDBF35
:102580005C014B017A018091DA038823A1F1B50146
:10259000CE0101960E942E1282EDC82E83E0D82E25
:1025A00010E0F601219131916F01F501848195814F
:1025B0002817390751F4812F0E945F0C873129F4C5
:1025C000A701B401812F0E9429111F5F143049F720
:1025D000C7012F960FB6F894DEBF0FBECDBFDF91B7
:1025E000CF911F91FF90EF90DF90CF90BF90AF9071
:1025F0009F908F900895F12CE12CEACFFC01848507
:10260000843010F40C94101290E080E008954F9202
:102610005F927F928F929F92AF92BF92CF92DF9202
:10262000EF92FF920F931F93CF93DF9300D0CDB71C
:10263000DEB7782E6B014A01A82EB12C27E0829FCD
:10264000C0011124FC01EA54FC4F7F01008111817B
:1026500080E591E00E940E050815190554F4872DB8
:102660000E94DC11F70126818C01021B11091183E4
:1026700000830115110519F5872D0E945B0C84312B
:1026800059F0882349F001E010E08C3111F410E09A
:1026900000E0119501951109C8010F900F90DF918D
:1026A000CF911F910F91FF90EF90DF90CF90BF904F
:1026B000AF909F908F907F905F904F90089580167D
:1026C00091060CF4840187E08A9DF0018B9DF00D4A
:1026D0001124EA54FC4FE280F380C114D10451F17B
:1026E0002701F7E05F22872D0E948809840D951D40
:1026F0002091DA03273309F453C09801240D351DC6
:102700002130384008F44CC020E038E049018418FA
:102710009508A401B6010E947E0B2601480C591CA5
:102720006801C818D908872D0E948809A601B2013E
:102730000E947E0BE00EF11E87E08A9DF0018B9DCA
:10274000F00D1124EA54FC4FF382E28220813181A2
:10275000201B310B318320838681800F912F911DA7
:102760008A3F910510F4232BF1F487E08A9DF00154
:102770008B9DF00D1124EA54FC4F1682F982EA82F7
:1027800022E030E0AE014F5F5F4F68E270E0872DDE
:102790000E94960960E470E0872D0E94260C7CCF91
:1027A000A801B601C5CF868377CFCF93DF93FC0115
:1027B000218D328D2115310529F48FEF9FEFDF91A7
:1027C000CF910895EC01808D4217530708F0A901BD
:1027D0000E9407131816190684F7298D3A8D281BB5
:1027E000390B3A8F298FEBCF0F931F93CF93DF9342
:1027F0001F92CDB7DEB7FC01218D328D232B41F422
:102800008FEF9FEF0F90DF91CF911F910F91089560
:102810008C0141E050E0BE016F5F7F4FFC01808D75
:102820000E940713181619065CF7F801818D928D26
:102830000197928F818F898190E0E4CFCF93DF93CE
:102840001F92CDB7DEB741E050E0BE016F5F7F4F12
:10285000FC0184850E9407131816190634F4898137
:1028600090E00F90DF91CF9108958FEF9FEFF9CF18
:102870000F931F93CF93DF93EC010E940A076887A1
:1028800079878A879B87CE010E941E1497FF15C007
:102890000E940A07088519852A853B85601B710BF4
:1028A000820B930B0C811D812E813F816017710774
:1028B0008207930740F38FEF9FEFDF91CF911F9136
:1028C0000F910895FC018485843010F40C94071353
:1028D00090E080E008950F931F93CF93DF9300D093
:1028E000CDB7DEB7FC0124852430E0F48C0180E50F
:1028F00091E00E940E0522E030E0AE014F5F5F4F95
:1029000060E170E0F80184850E94910D89819A81CF
:102910009827892798270F900F90DF91CF911F91CB
:102920000F91089590E080E0F6CF0F931F93CF931F
:10293000DF9300D0CDB7DEB7FC0124852430E0F46E
:102940008C0180E591E00E940E0522E030E0AE01AE
:102950004F5F5F4F64E070E0F80184850E94910D45
:1029600089819A819827892798270F900F90DF9166
:10297000CF911F910F91089590E080E0F6CFDC0198
:1029800084E991E08D939D9384E0FB0101900D9289
:102990008A95E1F70895EF92FF920F931F93CF93DB
:1029A000DF9300D000D0CDB7DEB78C017B01FB01F7
:1029B00084858430A8F084E991E0F80191838083D4
:1029C0001282138214821582C8010F900F900F900B
:1029D0000F90DF91CF911F910F91FF90EF9008958D
:1029E00080E591E00E940E0524E030E0AE014F5FEB
:1029F0005F4F6CE070E0F70184850E94910DBE018D
:102A00006F5F7F4FC8010E94BF14DECF0F931F93EB
:102A1000CF93DF93CDB7DEB728970FB6F894DEBF1C
:102A20000FBECDBF8C01D80159964D915C915A973C
:102A30004115510551F0ED91FC91048CF58DE02D7F
:102A400070E060E0C8010995EECFF801808D0E942A
:102A50001012892BB1F148E050E0BE016F5F7F4F4B
:102A6000D80158968C910E94071318161906F4F491
:102A7000D801509684E0FE01319601900D928A951E
:102A8000E1F78D8190E0982F88272E81820F911D8C
:102A9000F801958B848B8F81282F30E0322F2227ED
:102AA0008885820F932F911D928F818F28960FB664
:102AB000F894DEBF0FBECDBFDF91CF911F910F9174
:102AC000089590E080E0F2CF4F925F926F927F92F4
:102AD0008F929F92AF92BF92CF92DF92EF92FF922E
:102AE0000F931F93CF93DF93CDB7DEB763970FB6E6
:102AF000F894DEBF0FBECDBF7C016B013A01FB0134
:102B000020E090E080E06AE03191332309F461C075
:102B100040ED430F4A3008F04DC0689FA001699F07
:102B2000500D1124CA01C097830F911D37FD9A954E
:102B30008F3F910549F340F3F7014281538164814E
:102B400075818091A4049091A504A091A604B091F0
:102B5000A704481759076A077B0709F40DC28701C4
:102B6000085F1F4F0E940A076F7077277C5FC801BC
:102B70000E94E70F813009F004C284E991E09A8352
:102B80008983F70182819381A481B5818B839C83A2
:102B9000AD83BE8345E350E0BE016F5F7F4FC80148
:102BA0000E94760A892BA9F5D12CC12CC8010E945C
:102BB0004E0C17C03E3209F0BFCF233009F4BCCF12
:102BC000D301A20FB11D12968C932F5F90E080E08D
:102BD0009BCF233009F0B0CFF3018583CC24C3947D
:102BE000D12CC60163960FB6F894DEBF0FBECDBFE1
:102BF000DF91CF911F910F91FF90EF90DF90CF90D9
:102C0000BF90AF909F908F907F906F905F904F900C
:102C100008950E940A07F7017783668342E050E037
:102C2000B7016A5F7F4FC8010E94A21181E090E066
:102C30009A83898342E050E0BE016F5F7F4FC801F5
:102C40000E94A21180E091E09A83898342E050E0E3
:102C5000BE016F5F7F4FC8010E94A2111A821982C4
:102C600042E050E0BE016F5F7F4FC8010E94A21199
:102C700042E050E0BE016F5F7F4FC8010E94A21189
:102C800042E050E0BE016F5F7F4FC8010E94A21179
:102C90005601F6018081882301F16501F6018191D9
:102CA0002F01882311F08E32B1F446018A189B0857
:102CB0001814190474F48D8641E050E0BE01635F7E
:102CC0007F4FC8010E94A211A401B501C8010E9452
:102CD000A2115201DECF6201E1CF1D8641E050E03A
:102CE000BE01635F7F4FC8010E94A211C12CDD2489
:102CF000D394DA82C98242E050E0BE016F5F7F4F19
:102D0000C8010E94A211DA82C98242E050E0BE01ED
:102D10006F5F7F4FC8010E94A211C8010E94E80C9A
:102D2000892B09F441CFF3E0AF2EB12C230122E02F
:102D3000420E511CD4C0F7014281538164817581D8
:102D4000808D918DA28DB38D481759076A077B0737
:102D500009F008C1848D958DC59709F003C181A143
:102D600092A15DEFC52EDD24DA940C970CF4ADC072
:102D70004CE050E0BE016F5F7F4FC8010E94D51349
:102D80008B819C819827892798279A8B898BF701BB
:102D90004681578129813A814217530709F0E7C0DC
:102DA00097FFE5C08F7092703BEFC32EDD24DA945D
:102DB000892B09F08AC06F80788476246724762472
:102DC0002AEFC22EDD24DA946114710409F47DC067
:102DD000D12CC12C8D819E81982789279827C816D0
:102DE000D906F8F441E050E0BE01635F7F4FC801AF
:102DF0000E94D5134D85442331F050E070E060E02F
:102E0000C8010E94D5138D858111ECCF44E050E0BC
:102E100070E060E0C8010E94D513FFEFCF1ADF0A0F
:102E2000D9CF912C812C41E050E0BE016D5E7F4FE7
:102E3000C8010E94D5134B89842F807C09F06CC097
:102E4000442331F050E070E060E0C8010E94D513E7
:102E50008B898111E8CF42E050E0BE01615F7F4F76
:102E6000C8010E94D51342E050E0BE01635F7F4F6E
:102E7000C8010E94D51344E050E070E060E0C80152
:102E80000E94D51342E050E0BE016F5E7F4FC80143
:102E90000E94D5138F85988949895A898115914057
:102EA00009F043C0CD84DE84DC24CD24DC2481E021
:102EB000C816D104D1F54115544009F04AC044E088
:102EC00050E0B201C8010E94D51321E0A21AB10856
:102ED00009F46CCEFFEFCF16DF0609F067CE0E9433
:102EE0000A073B014C01C8010E9406151816190675
:102EF0000CF421CF0E940A076619770988099909FD
:102F0000693873418105910548F562E370E080E01E
:102F100090E00E94D706E7CF41E050E070E060E02B
:102F2000C8010E94D5131B8A93CF542745275427E5
:102F300070E060E0C8010E94D513FFEF8F1A9F0A6E
:102F40006814790409F06FCF96EFC92EDD24DA9466
:102F5000BCCFE7EFCE2EDD24DA94B7CFCC24CA94D1
:102F6000DC2CB3CF6EEFC62EDD24DA94AECF4CEF5F
:102F7000C42EDD24DA94A9CF8EEFC82EDD24DA9496
:102F800030CED12CC12C2DCECF92DF92EF92FF927A
:102F90000F931F93CF93DF93CDB7DEB7AF970FB6E5
:102FA000F894DEBF0FBECDBF7C016A0104E911E0D9
:102FB0001A8309831C861B8688EE93E0A0E0B0E0AC
:102FC0008D879E87AF87B88B8AE491E09A8789873F
:102FD000188F0F8B198E1A8E1B8E1C8E84E089A37E
:102FE0001BA70AA71CA61DA61EA61FA680919804B3
:102FF00090919904A0919A04B0919B048EA39FA3F1
:10300000A8A7B9A78B839C83AD83BE8318861F8234
:10301000AE01465D5F4FCE0101960E94641581307E
:103020009105B1F4D701ED91FC910488F589E02D6B
:103030001DA30CA38CA59DA5AEA5BFA58EA39FA384
:10304000A8A7B9A7A601BE016C5D7F4FC70109956E
:10305000AF960FB6F894DEBF0FBECDBFDF91CF9114
:103060001F910F91FF90EF90DF90CF900895CF9236
:10307000DF92EF92FF920F931F93CF93DF93CDB721
:10308000DEB7AF970FB6F894DEBF0FBECDBF8C0191
:103090006B017A0184E991E09A8389831B821C8207
:1030A0001D821E821C861B8648EE53E060E070E0A5
:1030B0004D875E876F87788B2AE431E03A872987CE
:1030C000988F8F8B198E1A8E1B8E1C8E24E029A34D
:1030D0009BA78AA71CA61DA61EA61FA6D8011C96E4
:1030E0008C91843060F40E945F0C882321F0F801F9
:1030F00084850E94360C84E0D8011C968C938091C4
:10310000980490919904A0919A04B0919B048EA385
:103110009FA3A8A7B9A78B839C83AD83BE83188682
:103120001F82AE01465D5F4FB601CE0101960E943F
:1031300064150097C1F0D801ED91FC910684F785E4
:10314000E02D84E991E09DA38CA38CA59DA5AEA55F
:10315000BFA58EA39FA3A8A7B9A7A701BE016C5DB9
:103160007F4FC8010995AF960FB6F894DEBF0FBE2A
:10317000CDBFDF91CF911F910F91FF90EF90DF9026
:10318000CF900895FB0101900020E9F73197AF013E
:10319000461B570BDC01ED91FC910280F381E02D81
:1031A00009948F929F92AF92BF92EF92FF920F93EA
:1031B0001F93CF93DF93CDB7DEB7A1970FB6F894E7
:1031C000DEBF0FBECDBF7C01FA01CB0119A22230B8
:1031D00008F42AE08E010F5D1F4F822E912CB12C36
:1031E000A12CBF01A50194010E941430F901CA016C
:1031F0006A300CF5605DD8016E938D01232B242B72
:10320000252B79F790E080E0109721F0BD01C701F0
:103210000E94C218A1960FB6F894DEBF0FBECDBFB4
:10322000DF91CF911F910F91FF90EF90BF90AF90E2
:103230009F908F900895695CDECF8F929F92AF929E
:10324000BF92CF92DF92EF92FF920F931F93CF9393
:10325000DF937C01EB016C0182E0C80ED11C4701B9
:10326000E5E08E0E911C10E000E0F60141916F0147
:1032700050E070E060E02AE0CE010E94D1185C01CD
:10328000E881F9810190F081E02D6EE2CE0109958F
:103290008A0D9B1D080F191FC814D90431F7F701B7
:1032A000458150E070E060E02AE0CE010E94D11834
:1032B000800F911FDF91CF911F910F91FF90EF90A1
:1032C000DF90CF90BF90AF909F908F90089566EA67
:1032D00071E00C94C218CF93DF93D0E0C0E0009768
:1032E00031F0BC018BED93E00E94C218EC018BED34
:1032F00093E00E9467198C0F9D1FDF91CF91089575
:103300000F931F93CF93DF93EC010E949B118C01CD
:10331000CE010E946719800F911FDF91CF911F91FD
:103320000F9108950F931F93CF93DF93EC010E94A9
:103330003B0A8C01CE010E946719800F911FDF911B
:10334000CF911F910F9108957F928F929F92AF928C
:10335000BF92CF92DF92EF92FF920F931F93CF9382
:10336000DF93CDB7DEB7A6970FB6F894DEBF0FBEDA
:10337000CDBF8C01762E942E852E20E2A22ECE017A
:1033800001967C01DC01EA2D1D92EA95E9F76801BE
:10339000F3E4CF0ED11C84E991E09AA389A38FEFC7
:1033A0008BA38CA38DA38EA343E450E0BE016F5D7D
:1033B0007F4FC6010E94760A019609F4BFC081E0E2
:1033C00089838A8386E0B82EBB821C82D80114963A
:1033D0006D917D918D919C9117970E94FF306D8327
:1033E0007E838F83988789869A8680E890E09C8781
:1033F0008B874CE150E0B701C6010E94A211FE018B
:1034000037968AE1DF011D928A95E9F74801B8E015
:103410008B0E911CF401D70101900D92BA94E1F743
:1034200040E150E0B701C6010E94A211F7011192DC
:10343000AA94E9F796E0A92EB12C40E250E0B7013A
:10344000C6010E94A211F1E0AF1AB108B1F783E6FC
:10345000898392E89A8393E59B838C8385E38D83AC
:1034600081E08E837F829DE3988797E099878A87A2
:1034700086E0F401DE011B9601900D928A95E1F73A
:103480008CE0898B8A8B69EA71E0CE0143960E94B9
:103490002833D8011B966C91CE0149960E941105E4
:1034A000F8016485CE014B960E941105D8011D9646
:1034B0006C91CE014D960E9411054EE150E0B7018E
:1034C000C6010E94A211B3E07B121EC082E3898371
:1034D00084E08A83F80196859B8397859C839089F5
:1034E0009D8391899E8396E39F838887828D8987B8
:1034F000838D8A87848D8B87858D8C874CE050E007
:10350000B701C6010E94A21187E3898386E08A83FE
:1035100091E09B8393E09C838D838FE08E838AE38D
:103520008F838BE388878FEF898749E050E0B7016D
:10353000C6010E94A211C6010E94E80CA6960FB611
:10354000F894DEBF0FBECDBFDF91CF911F910F91D9
:10355000FF90EF90DF90CF90BF90AF909F908F90B3
:103560007F900895FC0124813581232B31F421E0E3
:10357000FB01672B49F4822F0895808191816115A9
:10358000710539F421E0FC0180818823A1F320E05A
:10359000F2CF0E941F3321E0892B69F3F8CF0F93FC
:1035A0001F93CF93DF93EC0188819981009759F0A5
:1035B0002A813B812617370730F081E0DF91CF91D8
:1035C0001F910F9108958B016F5F7F4F0E944532CD
:1035D000009759F0998388831B830A832C813D814E
:1035E000232B59F7FC011082E8CF80E0E7CFEF9260
:1035F000FF920F931F93CF93DF936115710541F4F1
:1036000080E0DF91CF911F910F91FF90EF9008958F
:1036100041155105B1F07B01EC010C811D81040FB6
:10362000151FB8010E94CF1A882351F328813981D0
:103630008C819D81B701820F931F0E9428331D83C7
:103640000C8381E0DECFCF93DF93EC0188819981F9
:10365000009711F00E94BC31198218821D821C82D1
:103660001B821A82DF91CF910895EF92FF920F9300
:103670001F93CF93DF93EC01198218821B821A8269
:103680001D821C826115710521F18B01FB010190E6
:103690000020E9F731977F01E61AF70AB7010E9487
:1036A000CF1A811109C0CE01DF91CF911F910F91E7
:1036B000FF90EF900C94231BFD82EC82B80188816F
:1036C0009981DF91CF911F910F91FF90EF900C9412
:1036D0002833DF91CF911F910F91FF90EF900895C4
:1036E000EF92FF920F931F93CF93DF938C017B0197
:1036F000EB0109900020E9F72197C61BD70BBE010B
:103700000E94CF1A811109C0C801DF91CF911F918A
:103710000F91FF90EF900C94231BF801D583C48385
:10372000B70180819181DF91CF911F910F91FF901F
:10373000EF900C942833CF93DF93EC01FB010190C1
:103740000020E9F73197AF01461B570B0E94F71A8B
:10375000811103C0CE010E94231BCE01DF91CF91C6
:103760000895CF93DF93EC01FB0144815581608183
:1037700071810E94F71A811103C0CE010E94231BA0
:10378000CE01DF91CF910895FC0180819181009756
:1037900011F00C94BC3108953F924F925F926F925A
:1037A0007F928F929F92AF92BF92CF92DF92EF92D1
:1037B000FF920F931F93CF93DF93CDB7DEB7EA97B6
:1037C0000FB6F894DEBF0FBECDBF7C012A013B01CE
:1037D00069010E940A074B015C0187010D5B1F4FC5
:1037E000C8010E940615181619069CF00E940A07C7
:1037F000681979098A099B094616570668067906E9
:1038000008F466C162E370E080E090E00E94D706B1
:10381000E7CF42E250E0BE016F5F7F4FC8010E94D8
:10382000D51389818230D1F0312C832DEA960FB6E1
:10383000F894DEBF0FBECDBFDF91CF911F910F91E6
:10384000FF90EF90DF90CF90BF90AF909F908F90C0
:103850007F906F905F904F903F900895F80184891A
:1038600095898334910501F76D817E818F819885DB
:103870000E94FF304B015C01F60180829182A2829E
:10388000B38246E050E0B701685F7F4FCE014D96AE
:103890000E940233892B41F6F70180819181A28138
:1038A000B38188169906AA06BB0608F4BDCF8481A9
:1038B0009581A681B78188159905AA05BB0508F4ED
:1038C000B3CF89899A89AB89BC8986879787A08B72
:1038D000B18B4EEC50E070E060E0C8010E94D5135F
:1038E000312CC701829698AB8FA7F701B696FAAB39
:1038F000E9AB08969CAB8BAB67019AE1C90ED11C72
:10390000BD96FEABEDABC701429698AF8FABFD976E
:10391000FAAFE9AF4701FEE18F0E911CF801818DEE
:10392000928D181619060CF080CFC8010E94F4136E
:103930008333910509F4B2C014F58130910509F47F
:1039400064C044F4892B51F3C8010E94F413AC0104
:10395000552775C08330910509F462C00697A1F719
:10396000C8010E94F413B82E44E050E0B401C8012D
:103970000E94D513EB2DE450FF0BAF0160C08A33DA
:10398000910509F45FC084F585339105B1F1C697BF
:10399000D9F6C8010E94F4135C01B601CE018996E4
:1039A0000E94BF148BA59CA5ADA5BEA5892B8A2B13
:1039B0008B2BB1F0EDA9FEA940805180628073800D
:1039C000B601CE0183960E94BF148DA19EA1AFA126
:1039D000B8A5A501481659066A067B0609F0B8CFB6
:1039E00044E050E0B60118C08B33910509F440C0A3
:1039F0008F3F910509F492CFA7CFC8010E94F4131D
:103A0000C8010E94F413382E89CFC8010E94F41314
:103A100044E050E06FA978ADC8010E94D5137ECF75
:103A2000C8010E94F413B82E44E050E069AD7AADAD
:103A3000C8010E94D5138B2D8450990BAC0170E006
:103A400060E0EACFC8010E94F41344E050E069A9A5
:103A50007AA9C8010E94D513F70166A177A180A5B4
:103A600091A50E94FF3066A377A380A791A756CFA8
:103A7000C8010E94F41344E050E06BA97CA9C8017E
:103A80000E94D513F70162A573A584A595A50E9490
:103A9000FF3062A773A784A795A740CFC8010E94F3
:103AA000F41344E050E06FA578A9C8010E94D51333
:103AB000F70162A173A184A195A10E94FF3062A3C6
:103AC00073A384A395A366A777A780AB91AB26CFFA
:103AD00033243A94AACEAF92BF92CF92DF92EF9264
:103AE000FF920F931F93CF93DF93CDB7DEB7C456EA
:103AF000D1090FB6F894DEBF0FBECDBF6C01062F03
:103B0000660F110BC8010E94952F9E012F5F3F4F3A
:103B100079015901021B130BF501EE19FF098823E6
:103B200049F0C8018A0D9B1D0E94952FF5018193D4
:103B30005F01F2CFEE0DFF1D1082B701C6010E949A
:103B4000351BC601CC59DF4F0FB6F894DEBF0FBE50
:103B5000CDBFDF91CF911F910F91FF90EF90DF903C
:103B6000CF90BF90AF900895CF92DF92EF92FF92E7
:103B70000F931F93CF93DF937B01DB011496CD90BE
:103B8000DC90D0E0C0E0082F880F110BCC15DD05CC
:103B9000D4F4F70184819581C817D90728F40190DE
:103BA000F081E02D309761F410923603E6E3F3E004
:103BB0006081C8018C0F9D1F0E949D2F2196E6CF2A
:103BC000EC0FFD1FF5CF60E0C8018C0D9D1DDF914E
:103BD000CF911F910F91FF90EF90DF90CF900C94B9
:103BE0009D2F1F920F920FB60F9211242F933F9388
:103BF0004F935F936F937F938F939F93AF93BF93F5
:103C0000EF93FF938BED93E00E94A605FF91EF9158
:103C1000BF91AF919F918F917F916F915F914F91E4
:103C20003F912F910F900FBE0F901F9018951F92EC
:103C30000F920FB60F9211242F938F939F93EF93B0
:103C4000FF93E091EB03F091EC038081E091F103AD
:103C5000F091F20382FD1BC090818091F4038F5F8D
:103C60008F732091F503821741F0E091F403F0E0A7
:103C7000E552FC4F958F8093F403FF91EF919F9154
:103C80008F912F910F900FBE0F901F9018958081EC
:103C9000F4CF1F920F920FB60F9211242F933F93E0
:103CA0008F939F93AF93BF93809138039091390383
:103CB000A0913A03B0913B033091370323E0230FE7
:103CC0002D3758F50196A11DB11D20933703809320
:103CD000380390933903A0933A03B0933B03809148
:103CE0003C0390913D03A0913E03B0913F030196A8
:103CF000A11DB11D80933C0390933D03A0933E030F
:103D0000B0933F03BF91AF919F918F913F912F91BE
:103D10000F900FBE0F901F90189526E8230F029664
:103D2000A11DB11DD2CFEBEDF3E01382128288EE1C
:103D300093E0A0E0B0E084839583A683B78382E814
:103D400091E09183808385EC90E09587848784EC73
:103D500090E09787868780EC90E0918B808B81EC58
:103D600090E0938B828B82EC90E0958B848B86EC39
:103D700090E0978B868B118E128E138E148EE8E74F
:103D8000F4E084E991E091838083128213821482AB
:103D90001582EEE7F4E0918380831282138214820D
:103DA0001582E4E8F4E09183808312821382148206
:103DB0001582EAE8F4E091838083128213821482F0
:103DC0001582E0E9F4E091838083128213821482E9
:103DD0001582ECE9F4E091838083128213821482CD
:103DE0001582E6E9F4E091838083128213821482C3
:103DF0001582E2EAF4E091838083128213821482B6
:103E00001582E8EAF4E0918380831282138214829F
:103E10001582EBEDF4E09183808312821382148289
:103E2000158260E085E00E948106E5EBF9E0E4910F
:103E3000ADECB4E0EC93E1EAF9E0E491F0E0EE0FF0
:103E4000FF1FEE56F64F8591949112969C938E9398
:103E500011971B961C921B971D961C921D971C96E2
:103E60001C921C971A961C921A9719961C921997D5
:103E700018961C92189717961C92179716961C92D4
:103E8000169715961C92159714961C9214971396D4
:103E90001C921397EAEBF4E087E295E0928B818B1A
:103EA000B683A5831482108289E0818381E08283B6
:103EB0008383E4EBF4E0138212828AE991E0918338
:103EC000808380E590E09583848368EA71E08EEAE0
:103ED00094E00C94351BCF93DF93CDB7DEB7C65477
:103EE000D1090FB6F894DEBF0FBECDBF789484B56C
:103EF000826084BD84B5816084BD85B5826085BDE6
:103F000085B5816085BD80916E00816080936E0073
:103F10001092810080918100826080938100809165
:103F20008100816080938100809180008160809316
:103F300080008091B10084608093B1008091B000D6
:103F400081608093B00080917A00846080937A00D1
:103F500080917A00826080937A0080917A008160FB
:103F600080937A0080917A00806880937A00109222
:103F7000C1006AE0CE01C1960E946B1D64E6CE01CD
:103F800082960E946B1D68EA71E0CE01C1960E9484
:103F9000B21A811108C070E060E0CE01C1960E94A3
:103FA000B21A882381F061EB71E0CE0101960E9484
:103FB000351BBE016F5F7F4F8AE00E94B41DCE01AA
:103FC00001960E94C41B68EA71E0CE0182960E94AD
:103FD000B21A811108C070E060E0CE0182960E94A2
:103FE000B21A882381F060EB71E0CE0101960E9445
:103FF000351BBE016F5F7F4F84E60E94B41DCE016A
:1040000001960E94C41BE091BF04F091C004138686
:1040100015861486128611861086178216821582DE
:10402000148213821092BE0401E0BE016F5F7F4FC5
:104030008091BF049091C0040E94000B882309F472
:1040400055C067E0CE0101960E9416079885891336
:10405000ECCF8091BA04811128C08091BF04909167
:10406000C0040E94C807BE016F5F7F4F8091BF04EC
:104070009091C0040E94A90740E064EB8091BF04C6
:104080009091C0040E9475078091BF049091C00474
:104090000E942207182F8091BF049091C0040E94B3
:1040A000C807111102C00093BA041091BB048981A2
:1040B000803111F40C94CA29CE0101960E944C085B
:1040C000811750F48091BB048093BB048091BE049F
:1040D0008F5F8093BE04A9CF8981803111F48CE079
:1040E000F3CFCE0101960E944C08EECF61E086E04E
:1040F0000E94810661E086E00E943506E091EB03B4
:10410000F091EC0382E08083E091E703F091E80313
:104110001082E091E903F091EA0380E1808310923C
:10412000F303E091EF03F091F00386E08083E091E8
:10413000ED03F091EE03808180618083E091ED03D7
:10414000F091EE03808188608083E091ED03F0912F
:10415000EE03808180688083E091ED03F091EE03AF
:1041600080818F7D80830E94D00A60ED77E080E0BF
:1041700090E00E94D7068091A60381112AC0109278
:104180008E0310928D0388EE93E0A0E0B0E0809360
:104190008F0390939003A0939103B09392038AE4CA
:1041A00091E090938C0380938B0384E991E090934A
:1041B0009A038093990310929B0310929C03109290
:1041C0009D0310929E0384E08093A30381E080937B
:1041D000A60388E493E0909347038093460380917D
:1041E00045038111ADC060E372E080E090E00E9481
:1041F000D706DFB6F89406EA19E0EAEBEE2EE9E01E
:10420000FE2E80914303811125C0F8018491F701AE
:104210009491E82FF0E0EE0FFF1FE554FD4FA591BC
:10422000B4918C91982321F461E08AE00E943506D4
:1042300061E08AE00E9481068CB580618CBD8CB5FE
:1042400080648CBD61E08DE00E94810661E08BE0BE
:104250000E948106809143038F5F80934303DFBEFA
:10426000F8010491E02FF0E0EE0FFF1FEF54FD4F37
:10427000859194919093420380934103F701E490D8
:10428000E092400361E08AE00E9481060E94A90852
:1042900080E591E00E940E0584E38093DA0380E8D4
:1042A0000E9475090E942C0D882309F48BC188E0B7
:1042B0000E9475090E94190D883009F083C180E1C0
:1042C0000E9475090E94190D803109F07BC180E0C0
:1042D0000E9475090E94190D182F811173C141E0C8
:1042E00050E0BE016F5F7F4F8FE190E00E947E0B38
:1042F0008981833009F066C180E48093440342E001
:104300006EE170E0812F0E94D10942E06FE170E020
:10431000812F0E94D1091F5F143089F740E06EE1C0
:1043200070E0812F0E94D10940E06FE170E0812FA1
:104330000E94D1091F5F183089F781E080934503FF
:1043400080E591E00E940E0546E050E060E071E0FB
:1043500089E090E00E94C50884E991E09A8389830E
:104360001B821C821D821E8244E050E0BE016D5FF4
:104370007F4F8FE090E00E94C508009146031091A6
:104380004703D80192961D921D921D921C929597FB
:10439000F80116A217A210A611A69A961D921D92B8
:1043A0001D921C929D9780E69AEEA0E0B0E086AB4D
:1043B00097ABA0AFB1AF80EA9FE0A0E0B0E082AFE2
:1043C00093AFA4AFB5AF3E9684E1DF011D928A950D
:1043D000E9F786E0E0E0F1E0D801189601900D924F
:1043E0008A95E1F7F801EE5BFF4F2796FFAFEEAF3E
:1043F000279710820E943E2A2FEC37E040E050E0E1
:104400000E94AB2FDC01CB010196A11DB11DF8016B
:1044100084839583A683B78380839183A283B383A8
:104420005801F3E4AF0EB11CC5010E944E0C64E4C8
:1044300070E0C5010E94E70F882309F430C10E9493
:104440000A072B013C0148EEC42E43E0D42EE12C98
:10445000F12C52E0252E912C812C2796AEADBFADCC
:1044600027978C918330D1F181111AC2F801848190
:104470009581A681B7810196A11DB11D8483958385
:10448000A683B7830E940A076419750986099709EC
:10449000A70196010E941430A90161E0C8010E94A1
:1044A000A41981E02796AEADBFAD27978C93F1E0BC
:1044B0008F16910491F20E940A0764197509860902
:1044C0009709D801D6962D913D914D915C91D99740
:1044D000261737074807590708F0BDCFC5010E94C6
:1044E0004E0CF80184819581A681B7810196A11DAA
:1044F000B11D84839583A683B7830E940A07F801C0
:10450000FE9660837183828393838A94892809F05D
:10451000C6C080E591E00E940E050091460310910F
:104520004703B801625F7F4FCE0101960E94BF141E
:1045300044E050E0BE016D5F7F4F8FE090E00E944D
:10454000C508B8016A5E7F4FCE0101960E94BF1474
:1045500044E050E0BE016D5F7F4F81E090E00E943B
:10456000C508B8016E5E7F4FCE0101960E94BF1450
:1045700044E050E0BE016D5F7F4F85E090E00E9417
:10458000C508B801625E7F4FCE0101960E94BF143C
:104590008B819C81AD81BE81809398049093990416
:1045A000A0939A04B0939B040E94B2067F738091FB
:1045B000060190910701682779277093070160939E
:1045C00006016DC087E38093DA0380E80E947509D5
:1045D0000E942C0D882329F188E00E9475090E9411
:1045E000190D8830F1F480E10E9475090E94190DBF
:1045F000182F8031B1F480E00E9475090E94190DD6
:1046000081110FC041E050E0BE016F5F7F4F89E331
:1046100090E00E947E0B8981843019F4109344034A
:104620008CCE83E38093DA0380E80E9475090E94B0
:104630002C0D882391F180E10E9475090E94190DCB
:10464000803159F582E10E9475090E94190D82316D
:1046500021F580E00E9475090E94190D81111DC08D
:1046600084E08093440315E525961FAF259741E02C
:1046700050E0BE016C5B7F4F8BE190E00E94C5086B
:1046800024961FAF249741E050E0BE016D5B7F4F41
:104690008AE190E00E94C50850CE1092DA0384EBC4
:1046A00094E00E940C1086EB91E00E946B198CEB59
:1046B00091E00E946B1984E991E09A8389831B82BF
:1046C0001C821D821E8280E591E00E940E0544E05E
:1046D00050E0BE016D5F7F4F8FE090E00E947E0B47
:1046E0006BED73E0CE0101960E941D198BED93E0F6
:1046F0000E946719CE0182960E94C41BCE01C1960A
:104700000E94C41BF0E0AF2EF0E0BF2E0E940A070B
:104710000091B2031091B3032091B4033091B5031B
:10472000601B710B820B930B603177428105910501
:1047300028F4012B022B032B09F07DC00E940A07ED
:104740006093B2037093B3038093B4039093B50363
:10475000E091BF04F091C00413861586148612867A
:104760001186108617821682158214821382BE016A
:104770006E5D7F4F8091BF049091C0040E94000B3A
:10478000811163C160E070E08EEF92EC6093AE0344
:104790007093AF038093B0039093B1036AE0CE01AE
:1047A00082960E946B1D64E6CE0101960E946B1DED
:1047B0008AA19BA1412C512C3201009721F00E942B
:1047C000962A2B013C0189819A81C12CD12C76013A
:1047D000009721F00E94962A6B017C012091AE0384
:1047E0003091AF034091B0035091B103C301B201C6
:1047F0000E9445302B013C01A70196010E94E13047
:1048000018160CF082C183ED91E00E946B1968EDDF
:1048100071E08EEA94E00E94701B60E086E00E94E6
:1048200035060E94D00ACE0101960E94C41BCE011B
:1048300082960E94C41B64EB74E0CE0182960E94B3
:104840002E128EA5843008F099C5CE0182960E9462
:104850008D0C882309F492C5CE0182960E94FE1227
:10486000892B99F38DB69EB668EA71E0CE01CD969C
:104870000E94351BCE0182960E94381497FD5BC1C1
:104880008A30910509F457C189831A8241E050E0CA
:10489000BE016F5F7F4FCE01CD960E94F71AEACF1F
:1048A000843009F5F80184819581A681B78101964C
:1048B000A11DB11D84839583A683B7830E940A0737
:1048C0006419750986099709A70196010E94143099
:1048D000A90163E0C8010E94A4192796AEADBFAD3F
:1048E00027972C92E4CD813069F5F80142AD53ADA4
:1048F00064AD75AD9E012F5F3F4FC8010E94CC1B78
:10490000382EF2E08F1398C089819A81AB81BC81E7
:10491000F80184839583A683B7830E940A076419EC
:10492000750986099709A70196010E941430A9010B
:1049300063E0C8010E94A4192796AEADBFAD2797CA
:104940003C92B5CD823009F0B2CDF80142AD53AD05
:1049500064AD75AD9E012F5F3F4FC8010E94CC1B17
:10496000382EF5E08F135FC0E3E02796AEADBFAD04
:104970002797EC93F80182A193A1A4A1B5A1892B5B
:104980008A2B8B2B41F424E833E040E050E022A353
:1049900033A344A355A3F80186A197A1A0A5B1A56F
:1049A000892B8A2B8B2B61F482A193A1A4A1B5A1A1
:1049B000B695A7959795879586A397A3A0A7B1A726
:1049C000F80182A593A5A4A5B5A5892B8A2B8B2BCD
:1049D000A9F482A193A1A4A1B5A1AC01BD0123E0DA
:1049E00076956795579547952A95D1F7841B950B32
:1049F000A60BB70B82A793A7A4A7B5A7F80186A11A
:104A000097A1A0A5B1A586A797A7A0ABB1AB82A59A
:104A100093A5A4A5B5A582AB93ABA4ABB5AB8824F5
:104A20008394912C44CDF6E08F1306C02796AEAD4B
:104A3000BFAD27971C923BCDBFEF3B1238CD2796D9
:104A4000EEADFFAD2797108232CD67E0CE018296A2
:104A50000E94160799A5891395CE8091BF04909165
:104A6000C0040E94C807882309F48CCEBE016F5F82
:104A70007F4FCE0182960E940008882309F482CEDF
:104A800068E0CE0101960E941607998589137ACEB7
:104A90006A8170E0762F6627770F770F770F29816D
:104AA00058E0259F90011124262B372B8AA18031B5
:104AB000D1F4688570E08F81DB01A81BB109CD01BD
:104AC0009695982F8827979587950E94EB30CB0174
:104AD0004097B90153E0660F771F5A95E1F7607868
:104AE0009C01260F371F2138B4EE3B070CF44ACE49
:104AF000B901330F880B990B0E94752E20E030E02E
:104B000040E05CE30E94D42E41CEC701B60190582C
:104B1000A30192010E94E13018160CF082CE8CEDB8
:104B200091E00E946B1961EE71E08EEA94E00E94C0
:104B3000701B61E073CE23960EAD1FAD2397C801A5
:104B40000196EDB7FEB7E81BF90B0FB6F894FEBF60
:104B50000FBEEDBF2DB73EB72F5F3F4F7901011557
:104B6000110561F0015011096DAD7EADA801C901BB
:104B70000E943D33F701E00FF11F108266E771E0FC
:104B8000C7010E949A2A66E771E090E080E00E94E7
:104B90009A2A8C01BC01CE0101960E94351B6AED58
:104BA00072E0CE0101960E94B21AF82ECE01019653
:104BB0000E94C41BFF2009F40BC262E879E0CE0119
:104BC00082960E9492196AE679E0CE0182960E944E
:104BD0009219CE0182960E9467196AE579E0CE01AA
:104BE00082960E94921963E579E0CE0182960E9436
:104BF00092196CE479E0CE0182960E94921965E3E5
:104C000079E0CE0182960E94921965E079E0CE01AA
:104C100082960E94921969ED78E0CE0182960E94F8
:104C2000921964E978E0CE0182960E9492196FE2AF
:104C300078E0CE0182960E9492196FE078E0CE0172
:104C400082960E9492196CEF77E0CE0182960E94C4
:104C5000921960ED77E0CE0182960E9492196DEB79
:104C600077E0CE0182960E9492196FE977E0CE013B
:104C700082960E9492196FE577E0CE0182960E949B
:104C8000921966E577E0CE0182960E94921961E062
:104C900077E0CE0182960E9492196FEF76E0CE0106
:104CA00082960E94921960EF76E0CE0182960E9471
:104CB000921966EE76E0CE0182960E9492196CED12
:104CC00076E0CE0182960E94921969EA76E0CE01E2
:104CD00082960E94921961EA76E0CE0182960E9445
:104CE00092196AE976E0CE0182960E94921960E5F7
:104CF00076E0CE0182960E94921966E276E0CE01BD
:104D000082960E9492196AE0CE0101960E946B1D64
:104D100065EE71E0CE01C1960E94351BBE016F5F4A
:104D20007F4FCE01C1960E94B11B66E572E00E94E2
:104D30009B1BBC01CE0182960E948019CE01C196B8
:104D40000E94C41BCE0101960E94C41B64E6CE01E2
:104D500001960E946B1D6CE572E0CE01C1960E9427
:104D6000351BBE016F5F7F4FCE01C1960E94B11B04
:104D700066E572E00E949B1BBC01CE0182960E94F8
:104D80008019CE01C1960E94C41BCE0101960E94DB
:104D9000C41B66EE75E0CE0182960E9492196AED00
:104DA00075E0CE0182960E94921968ED71E08EEA5C
:104DB00094E00E94B21A882331F066EA75E0CE01D1
:104DC00082960E94921961EE71E08EEA94E00E9450
:104DD000B21A882331F064E775E0CE0182960E9412
:104DE000921969E575E0CE0182960E9492196EE2F1
:104DF00075E0CE0182960E943B0AC090AE03D0902F
:104E0000AF03E090B003F090B103A7019601C70192
:104E1000B6010E94E63065EC72E081111BC02601EC
:104E20003701E89477F82FEF3FEF4FE75FE7C301D3
:104E3000B2010E94E63081114DC02FEF3FEF4FE7E6
:104E40005FE7C301B2010E946E2E18160CF042C03B
:104E500069EC72E0CE0182960E94C21869E275E0A8
:104E6000CE0182960E9492196CEB74E0CE0182967C
:104E70000E9492196BE874E0CE0182960E9492190A
:104E800061E874E0CE0182960E94921969E774E0AD
:104E9000CE0182960E94921961E774E0CE0182965B
:104EA0000E94921961E070E080E090E00E94D706D5
:104EB000CE0182960E94AF0CCE0182960E940B1109
:104EC000CE01CD960E94C41B0FB6F8949EBE0FBEB5
:104ED0008DBEBBCC2FEF3FEF4FE75FE4C701B601BC
:104EE0000E94E13018161CF46DEC72E0B3CF2FEF86
:104EF0003FEF4FE75FECC701B6010E946E2E87FDC2
:104F0000F3CF20E030E0A901C701B6010E946E2E68
:104F100087FF09C06DE2CE0182960E94250AF7FA4A
:104F2000F094F7F8F0942AE037ED43EA5BE3C70129
:104F3000B6010E9446302B013C010E94B2306B0149
:104F40007C010E94732E9B01AC01C301B2010E943F
:104F500045302B013C012AE0B701A601CE01829623
:104F60000E94D1186EE2CE0182960E94250A20E0AE
:104F700030E040E251E4C301B2010E94D42E2B0183
:104F80003C010E94B2306B01F12CE12C2AE0B70108
:104F9000A601CE0182960E94D118C701B6010E94D7
:104FA000732E9B01AC01C301B2010E94453020E089
:104FB00030E040E251E40E94D42E0E94B230AB01B6
:104FC00070E060E02AE0CE0182960E94D11846CFC0
:104FD000B801CE0101960E94351B61ED72E0CE0151
:104FE00001960E94B21AF82ECE0101960E94C41BAF
:104FF000FF2009F483C061E674E0CE0182960E942E
:10500000921969E474E0CE0182960E949219CE0151
:1050100082960E94671967E474E0CE0182960E942E
:10502000921969E374E0CE0182960E943B0A6AE01D
:10503000CE0101960E946B1DBE016F5F7F4FCE01B6
:1050400082960E949B11CE0101960E94C41B67E3C9
:1050500074E0CE0182960E94921961E274E0CE0162
:1050600082960E943B0A64E6CE0101960E946B1D67
:10507000BE016F5F7F4FCE0182960E949B11CE01D1
:1050800001960E94C41B6FE174E0CE0182960E94DB
:10509000921969E074E0CE0182960E943B0A609109
:1050A000AE037091AF038091B0039091B1031AAA3F
:1050B00019AA1CAA1BAA1EAA1DAA8E010F5F1F4FA8
:1050C00022E044E00E94D429009799F0BC01CE016F
:1050D000C1960E94701BBE016F5C7F4FCE0182960D
:1050E0000E948019CE01C1960E94C41B67E074E043
:1050F000D5CECE01C1960E94231BEDCFB801CE01C3
:1051000001960E94351B6CED72E0CE0101960E9463
:10511000B21AF82ECE0101960E94C41BFF2029F07E
:10512000CE0182960E94AF0CCBCEB801CE01C796BD
:105130000E94351B69EE72E0CE0101960E94351B7C
:105140004D815E818BAD9CAD8417950780F08FA952
:1051500098AD009761F069817A816115710539F028
:105160000E942F33FF24F394892B09F0F12CCE01F8
:1051700001960E94C41BFF2009F4FBC064E771E0A4
:10518000C8010E949A2A0E946B1964E771E090E0BE
:1051900080E00E949A2A62E771E00E949A2A7C01CC
:1051A00062E771E090E080E00E949A2A8C0160E75B
:1051B00071E0C7010E949A2A60E771E090E080E008
:1051C0000E949A2A7C0160E771E0C8010E949A2A35
:1051D00060E771E090E080E00E949A2A8C01B701BC
:1051E000CE0101960E94351BBE016F5F7F4F8AE0A2
:1051F0000E94B41DCE0101960E94C41BB801CE01CD
:1052000001960E94351BBE016F5F7F4F84E60E94AE
:10521000B41DCE0101960E94C41B67EF73E0CE015E
:1052200082960E9492196FED73E0CE0182960E94E1
:105230009219CE0182960E9467196FEC73E0CE013D
:1052400082960E94921968EC73E0CE0182960E94C9
:10525000921961EC73E0CE0182960E9492196AEA7B
:1052600073E0CE0182960E94921969E773E0CE0145
:1052700082960E94921966E473E0CE0182960E94A3
:1052800092196EE373E0CE0182960E94921967E351
:1052900073E0CE0182960E94921965E073E0CE0120
:1052A00082960E949219B701CE0101960E94351B89
:1052B00066EF72E0CE01C1960E94351BBE016F5FA2
:1052C0007F4FCE01C1960E94B11B68E173E00E943E
:1052D0009B1BBC01CE0182960E948019CE01C19613
:1052E0000E94C41BCE0101960E94C41BB801CE01CE
:1052F00001960E94351B6EE173E0CE01C1960E94BB
:10530000351BBE016F5F7F4FCE01C1960E94B11B5E
:1053100068E173E00E949B1BBC01CE0182960E9453
:105320008019CE01C1960E94C41BCE0101960E9435
:10533000C41B65ED72E0CE0182960E9492196DEC5D
:1053400072E0CE0182960E94921965EC72E0CE0165
:1053500082960E94921961E070E080E090E00E94E5
:10536000D706CE0182960E94AF0CCE0182960E9493
:105370000B11CE01C7960E94C41BA2CDA114B1048B
:1053800009F4C4C90E949205882309F4BFC90E9488
:105390000000B8C91D3010F00C9462200C946F20EE
:1053A0008EEA94E00C94C41BEF920F931F93CF935B
:1053B000DF93E80134E047FD34E1042E000C550B87
:1053C00057FF03C0519541955109E32E022F242F19
:1053D000AE010E94C62ACE01DF91CF911F910F919D
:1053E000EF9008958F929F92AF92BF92CF92DF92EB
:1053F000EF92FF92CF93DF93EC01688179818A81EC
:105400009B81611571058105910521F464E279EDB7
:105410008BE597E02DE133EF41E050E00E94AB2FA8
:1054200049015A019B01AC01A7EAB1E40E94CA2FCD
:105430006B017C01ACEEB4EFA50194010E94D82F62
:10544000C60ED71EE81EF91EF7FE06C081E0C81A78
:10545000D108E10880E8F80AC882D982EA82FB8292
:10546000C701B6019F77DF91CF91FF90EF90DF905A
:10547000CF90BF90AF909F908F9008958F929F9202
:10548000AF92BF92CF92DF92EF92FF9260910801AC
:105490007091090180910A0190910B0161157105CC
:1054A0008105910521F464E279ED8BE597E02DE12A
:1054B00033EF41E050E00E94AB2F49015A019B01BC
:1054C000AC01A7EAB1E40E94CA2F6B017C01ACEEEB
:1054D000B4EFA50194010E94D82FC60ED71EE81E76
:1054E000F91EF7FE06C081E0C81AD108E10880E87D
:1054F000F80AC0920801D0920901E0920A01F092E4
:105500000B01C701B6019F77FF90EF90DF90CF901E
:10551000BF90AF909F908F90089560930801709313
:10552000090180930A0190930B010895662777275C
:105530000C94252C41EE54E00E949F2A0895FA0114
:10554000A191B081009719F41097E1F0CD01DC0131
:10555000CD010D90002011F4C00113C0FB01219179
:10556000222319F02015D9F7F3CFFB012191201543
:1055700019F41E92119606C02223C1F70D90002047
:10558000A1F7D001FA01A193B0830895A9E0B0E09A
:10559000ECECFAE20C94E32F6A01F22EB02E102FFD
:1055A000FBE3AF2EA01608F41BE31F5F012F27E0DB
:1055B000AE014F5F5F4F0E94752DBC018981982F0E
:1055C0009970913009F43FC09BE2E1FC04C09E2D2C
:1055D0009170E0FC3AC05E2D5071E82FE87083FFB7
:1055E00046C084E0911101C083E0EF2DE81B8F15C8
:1055F00008F0E0E0D6018E2F20E2552351F19923E7
:1056000029F0D6019C93C60101966C0196012D5F8D
:105610003F4FE2FE24C08EE4D6018C9391E41196B4
:105620009C93119712968C93D9018E2F90E2811141
:105630001BC0E20FF32FF11D10828EEF9FEF299612
:10564000ECE00C94FF2F9DE2C6CF90E2C4CF2D93E7
:1056500081508111FCCFCE0ED11CE0E0D0CF8EE680
:10566000D6018C9391E6DBCF9D938150E0CF482FFC
:10567000447082FF3DC084E0911101C083E08F152A
:1056800010F4EF2DE81BD6018E2F20E2552309F1EF
:10569000992329F0D6019C93C60101966C019601CD
:1056A0002D5F3F4FE2FE1BC089E4D6018C938EE450
:1056B00011968C93119786E412968C93D9018E2FB4
:1056C00090E2882309F4B5CF9D938150FACF2D93B2
:1056D00081508111FCCFCE0ED11CE0E0D9CF89E6FC
:1056E000D6018C938EE611968C93119786E6E4CFC3
:1056F0009B0177FF02C030E020E0A1E0B0E0911113
:1057000002C0B0E0A0E0F9013196AE0FBF1F8B2CB4
:10571000912CBB2009F461C05401EFEFAE1ABE0A10
:10572000AA0DBB1DFA161B0619F014F04F2D4A1BCB
:10573000511188C0E3FC59C07601A42FB0E2A11139
:105740004FC0C40ED11C992309F45BC040E0D601C0
:105750001196F60190836D01552309F448C0012F7D
:10576000060F9A81582F507184FF03C0913309F4BA
:10577000015010160CF047C0093008F008E0EEE2C6
:10578000FE2E5B01A01AB1088501919481949108C5
:105790002F3F320729F4D601FC92F60131966F01B2
:1057A0006217730794F1021713077CF5DB01A21B44
:1057B000B30BAA24A394B12CAC0EBD1EAA0DBB1D25
:1057C00011968C9121503109D60111962815390571
:1057D000F4F0F60180836D01DBCFB12CA12CA0CFBA
:1057E000F701B1937F01A150AACF9111B0CFD6019B
:1057F000942F50E302C05D9391509111FCCFC40EE1
:10580000D11C40E0ACCF01E0BACF80E3DBCF621720
:10581000730731F4963388F4953311F4552369F006
:10582000F6018083FD01842F90E2811108C0A40F4E
:10583000B11D1C9290E080E002CF81E3F1CF919303
:105840008150F3CF911183CF8ACFB0E0A0E0EBE29B
:10585000FCE20C94E32F5C017B016115710519F0EA
:10586000DB018D939C9385010F5F1F4FF501D08164
:105870008D2F90E00E944D2E6C01892BB9F5DD3201
:10588000B9F50F5F1F4FD5011196DC91C1E05801AA
:10589000F1E0AF1AB10843E050E060E770E0C50105
:1058A0000E94562E892B69F5680182E0C80ED11C32
:1058B00045E050E06BE670E0C6010E94562E892B51
:1058C00021F4680197E0C90ED11CE114F10419F02C
:1058D000D701CD92DC9260E070E080E89FEFC111CB
:1058E000FFC060E070E080E89FE7FAC05801BBCFDE
:1058F000DB3229F485010E5F1F4FF501D181C0E035
:10590000C6CF43E050E068E670E0C5010E94562E25
:10591000892BE9F0F80110E000E020E030E0A90177
:105920005F01B0ED8B2E8D0E89E08815C8F19C2E9D
:10593000689491F88C2F8870C2FF16C0811102C044
:105940000F5F1F4F3196D501DC91C92DE9CFE114CE
:10595000F10429F00E5F1F4FF7011183008360E00F
:1059600070E080EC9FE7BCC0882311F00150110962
:10597000A5E0B0E00E94CA2F9B01AC01220F331FAB
:10598000441F551F280D311D411D511D283999E90E
:105990003907490799E15907A8F2C6609C2ED2CF72
:1059A000AEEF8A1206C0C3FD3CC09C2E689493F8EB
:1059B000C9CFDF7DD534A9F580818D3239F4C0613E
:1059C000DF011296818162E070E006C0DF018B3258
:1059D000C1F3119661E070E080535D01A61AB70A29
:1059E0008A30F8F4E0E8CE16ECE0DE065CF4B601AE
:1059F000660F771F660F771FC60ED71ECC0CDD1CF7
:105A0000C80ED11C5D01FFEFAF1ABF0A8C91805305
:105A10008A30A8F1C4FF03C0D194C194D1080C0D01
:105A20001D1DC1FF09C0E114F10431F081E0A81A85
:105A3000B108D701AD92BC92CA01B9010E94732E80
:105A4000C370C33009F490584B015C0120E030E092
:105A5000A9010E946E2E882309F440C0CFE9D0E04E
:105A600017FF05C0119501951109C7E8D0E06E0137
:105A7000B8E1CB1AD10880E2E82EF12C0FC0D50195
:105A8000B1CFFE0125913591459154910E191F0911
:105A9000C501B4010E94D42E4B015C01D501C401A3
:105AA0000E151F0574F72497F594E794CC16DD06C0
:105AB000A9F78A2F880F8B2F881F8F3F49F020E08E
:105AC00030E0A901C501B4010E946E2E811106C00B
:105AD00082E290E09093E4048093E304C501B40172
