:100000000C9405050C942D050C942D050C942D05D0
:100010000C942D050C942D050C942D050C942D0598
:100020000C942D050C942D050C942D050C942D0588
:100030000C942D050C942D050C942D050C942D0578
:100040000C9406200C942D050C94D41F0C94AE1F18
:100050000C942D050C942D050C942D050C942D0558
:100060000C942D050C942D054E414E494E49545982
:10007000494E46CDCCCC3D0AD7233C17B7D1387773
:10008000CC2B329595E6241FB14F0A000020410089
:1000900000C84200401C4620BCBE4CCA1B0E5AAED3
:1000A000C59D7400407A10F35A00A0724E180900E2
:1000B00010A5D4E80000E87648170000E40B5402CD
:1000C0000000CA9A3B000000E1F505000080969808
:1000D00000000040420F000000A086010000001058
:1000E0002700000000E8030000000064000000009A
:1000F000000A00000000000100000000002C76D87B
:1001000088DC674F0823DFC1DFAE59E1B1B796E560
:10011000E3E453C63AE651997696E8E6C28426EBC4
:10012000898C9B62ED407C6FFCEFBC9C9F40F2BAD7
:10013000A56FA5F490055A2AF75C936B6CF9676D6F
:10014000C11BFCE0E40D47FEF520E6B500D0ED90C4
:100150002E0300943577050080841E080000204E91
:100160000A000000C80C333333330F986E1283112A
:1001700041EF8D2114893BE65516CFFEE6DB18D101
:10018000844B381BF77C1D901DA4BBE424203284D3
:10019000725E228100C9F124ECA1E53D27005EBC1E
:1001A000E2613FDD83C29C7E20A3FD1F419DC321F0
:1001B0007FFCA2401E5F01E3BD3E6082DC237D9F89
:1001C000C1421CFEA0E1BF5D0380DE3C62BEE002D6
:1001D0005CDF81633D7C22C09E1D43A1FF4618FA6F
:1001E000A427799BC584DA3866E5BB5907DB8567A8
:1001F00039BAE406581947A5FB7826C49A653BD955
:1002000087045AB8E6A7F91B45C6987A24F8A6448D
:100210001A99C7257B3A6486D85B05E7B98CD2303A
:100220006EEDB3510F4E10F2AC2F7193CD114FAD57
:10023000F3702ECC92D38D6F31B2EC0E50AFF11320
:100240004DCE90722C6D33D18F0C52B0EE326C8E3D
:10025000D0530DEFB1F0AE4C1291CF2D73CA9476FE
:1002600028ABF517490856B4EA6937D58B5709EB1F
:10027000B536688AD495CB2977F4AA4816E9B755DC
:100280000B88D6346A2B7597C94A14F6A8742AC805
:1002900096154BA9F7B6E80A54D7896B35000000CC
:1002A0000800020100000304070000000000000035
:1002B0000000000000250028002B000000000024A2
:1002C0000027002A00485454502F312E312034305A
:1002D00034204E6F7420466F756E64003C2F687436
:1002E0006D6C3E003C2F626F64793E003C623E5074
:1002F0007265736D65726F76616E69652E2E2E2044
:1003000050726F73696D2063616B616A74653C2F15
:10031000623E3C2F63656E7465723E003C63656EA1
:100320007465723E3C68333E536572766572207028
:1003300072696A616C2064617461207A20666F72F0
:100340006D756CC3A172613A3C2F68333E003C620C
:100350006F64793E003C2F686561643E003C7469BF
:10036000746C653E485454502077656273657276AC
:100370006572202D2041726475696E6F202B2045B7
:10038000746865726E65743C2F7469746C653E00A8
:100390003C6D65746120687474702D657175697643
:1003A0003D27526566726573682720636F6E7465BA
:1003B0006E743D27353B2075726C3D2F27202F3EF4
:1003C000003C6D65746120636861727365743D27DC
:1003D0007574662D38273E003C686561643E003CBC
:1003E00068746D6C3E003C21444F43545950452085
:1003F00068746D6C3E00436F6E74656E742D547935
:1004000070653A20746578742F68746D6C00485478
:1004100054502F312E3120323030204F4B007D0090
:100420002241637475616C5F54656D7065726174AF
:10043000757265223A002C00225461726765745F00
:1004400054656D7065726174757265223A002C0096
:100450002248797374657265736973223A007B0070
:10046000436F6E74656E742D547970653A206170B7
:10047000706C69636174696F6E2F6A736F6E004888
:100480005454502F312E3120323030204F4B003C0D
:100490002F68746D6C3E003C2F626F64793E003CA7
:1004A0002F63656E7465723E003C68343E5665721B
:1004B0007A69612066726565202D20312E302E32DA
:1004C000206275696C643A2030312E204F637420AD
:1004D000323032303C2F68343E003C68333E417548
:1004E000746F723A204D617274696E2043686C6556
:1004F000626F766563202D206D617274696E697517
:1005000073393640676D61696C2E636F6D202D20E5
:1005100068747470733A2F2F6D617274696E6975A7
:100520007339362E6769746875622E696F2F74652A
:10053000726D6F737461742D65746865726E657425
:100540002F3C2F68333E00730020006D00200068B0
:1005500000200064003C623E557074696D653A206D
:100560003C2F623E003C68723E0020C2B043003C1B
:10057000623E416B7475C3A16C6E61207465706CD2
:100580006F74612073656E7A6F72612044533138E5
:100590004232303A3C2F623E20003C64697620694A
:1005A000643D22636F756E74646F776E223E3C2FDC
:1005B0006469763E003C623E3C666F6E7420636FF9
:1005C0006C6F723D27726564273E56C3BD737475A8
:1005D000703A205679706E7574C3BD3C2F666F6E8D
:1005E000743E3C2F623E003C623E3C666F6E74205F
:1005F000636F6C6F723D27677265656E273E56C3E9
:10060000BD737475703A205A61706E7574C3BD3CC9
:100610002F666F6E743E3C2F623E003C2F666F72F9
:100620006D3E3C68723E003C696E70757420747952
:1006300070653D277375626D69742720636C617303
:10064000733D2762746E2062746E2D7375636365EB
:100650007373272076616C75653D275A6170C3AD51
:100660007361C5A5273E003C666F726D206163749F
:10067000696F6E3D272F616374696F6E2E68746DAC
:100680006C27206D6574686F643D27676574273E2D
:10069000003C63656E7465723E3C68333E5A61642B
:1006A000616A74652064C3A17461207072652077EB
:1006B00065627365727665722028627564C3BA20BC
:1006C000756C6FC5BE656EC3A920646F204545502B
:1006D000524F4D293A3C2F68333E003C626F64799B
:1006E0003E003C2F686561643E003C7469746C6533
:1006F0003E48545450207765627365727665722067
:100700002D2041726475696E6F202B2045746865D9
:10071000726E65743C2F7469746C653E003C2F7377
:1007200063726970743E007D2C2031303030293B7B
:100730000074696D656C656674202D3D20313B0049
:100740007D00646F63756D656E742E676574456CAE
:10075000656D656E74427949642822636F756E74A5
:10076000646F776E22292E696E6E657248544D4C07
:10077000203D2074696D656C656674202B202220F5
:1007800073656BC3BA6E6420646F207265C5A17413
:1007900061727475223B007D20656C7365207B005F
:1007A000646F63756D656E742E676574456C656DF9
:1007B000656E74427949642822636F756E74646F44
:1007C000776E22292E696E6E657248544D4C203D1D
:1007D00020225265C5A1746172742E2E2E223B0018
:1007E000636C656172496E74657276616C28646FC2
:1007F000776E6C6F616454696D6572293B00696640
:100800002874696D656C656674203C3D2030297BD9
:100810000076617220646F776E6C6F616454696DED
:100820006572203D20736574496E74657276616CE3
:100830002866756E6374696F6E28297B0076617215
:100840002074696D656C656674203D2031303B0015
:100850003C73637269707420747970653D277465A8
:1008600078742F6A617661736372697074273E00D1
:100870003C6C696E6B2072656C3D277374796C6596
:1008800073686565742720687265663D27687474AF
:1008900070733A2F2F6D617863646E2E626F6F7480
:1008A000737472617063646E2E636F6D2F626F6F0D
:1008B0007473747261702F332E342E312F637373FF
:1008C0002F626F6F7473747261702E6D696E2E6318
:1008D0007373273E003C6D657461206E616D653DEC
:1008E0002776696577706F72742720636F6E746501
:1008F0006E743D2777696474683D646576696365E5
:100900002D77696474682C20696E697469616C2D37
:100910007363616C653D31273E003C6D65746120F9
:10092000687474702D65717569763D2752656672BD
:100930006573682720636F6E74656E743D27313070
:10094000273B202F3E003C6D657461206E616D6514
:100950003D27617574686F722720636F6E74656ED2
:10096000743D274D617274696E2043686C65626FD7
:10097000766563273E003C6D657461206368617233
:100980007365743D277574662D38273E003C686595
:1009900061643E003C68746D6C3E003C21444F43F2
:1009A000545950452068746D6C3E00436F6E7465F9
:1009B0006E742D547970653A20746578742F68745C
:1009C0006D6C00485454502F312E3120323030207D
:1009D0004F4B0000000000230026002900040404FF
:1009E00004040404040202020202020303030303D8
:1009F00003010204081020408001020408102001B5
:100A00000204081020005020E82B11241FBECFEF55
:100A1000D8E0DEBFCDBF13E0A0E0B1E0E2EEFAE641
:100A200002C005900D92AC33B107D9F724E0ACE3D6
:100A3000B3E001C01D92AF3EB207E1F715E0C4E09C
:100A4000D5E004C02197FE010E943233C330D107A4
:100A5000C9F70E9428210C9464350C9400008CBDC9
:100A60009DBD089520E3FC0120833296862F829558
:100A70008F706F706A3030F4605D6293682F8111FF
:100A8000F5CF0895695CF9CFFC01818D928D0895B1
:100A90000895AF92BF92CF92DF92EF92FF920F93A1
:100AA0001F93CF93DF936C017B018B01040F151F04
:100AB000EB015E01AE18BF08C017D10759F069916C
:100AC000D601ED91FC910190F081E02DC6010995D0
:100AD000892B79F7C501DF91CF911F910F91FF907D
:100AE000EF90DF90CF90BF90AF900895FC01538DB1
:100AF000448D252F30E0842F90E0821B930B5417F8
:100B000010F0CF96089501970895FC01918D828D84
:100B1000981761F0A28DAE0FBF2FB11D5D968C911D
:100B2000928D9F5F9F73928F90E008958FEF9FEF5C
:100B30000895FC01918D828D981731F0828DE80F18
:100B4000F11D858D90E008958FEF9FEF0895FC01D2
:100B5000918D228D892F90E0805C9F4F821B91099F
:100B60008F739927089581EE93E00E94A70521E0F5
:100B7000892B09F420E0822F089580E090E0892BF2
:100B800029F00E94B30581110C9400000895FC0126
:100B9000A48DA80FB92FB11DA35ABF4F2C91848DDE
:100BA00090E001968F739927848FA689B7892C933B
:100BB000A089B1898C91837080648C93938D848D8E
:100BC000981306C00288F389E02D80818F7D808391
:100BD0000895EF92FF920F931F93CF93DF93EC0151
:100BE00081E0888F9B8D8C8D98131AC0E889F989D4
:100BF000808185FF15C09FB7F894EE89FF896083D7
:100C0000E889F98980818370806480839FBF81E057
:100C100090E0DF91CF911F910F91FF90EF90089599
:100C2000F62E0B8D10E00F5F1F4F0F731127E02E74
:100C30008C8D8E110CC00FB607FCFACFE889F989AC
:100C4000808185FFF5CFCE010E94C705F1CFEB8DE6
:100C5000EC0FFD2FF11DE35AFF4FF0829FB7F89480
:100C60000B8FEA89FB8980818062CFCFCF93DF939E
:100C7000EC01888D8823B9F0AA89BB89E889F989B4
:100C80008C9185FD03C0808186FD0DC00FB607FCE9
:100C9000F7CF8C9185FFF2CF808185FFEDCFCE011C
:100CA0000E94C705E9CFDF91CF91089590E0FC0144
:100CB000E356FD4F2491FC01EF50F64F3491FC01B7
:100CC000E352F64FE491EE23C9F0222339F02330AA
:100CD00001F1A8F4213019F1223029F1F0E0EE0FF2
:100CE000FF1FEF54FD4FA591B4918FB7F894EC918D
:100CF000611126C030953E233C938FBF0895273065
:100D0000A9F02830C9F0243049F7809180008F7D08
:100D100003C0809180008F7780938000DFCF84B5FF
:100D20008F7784BDDBCF84B58F7DFBCF8091B00002
:100D30008F778093B000D2CF8091B0008F7DF9CFB4
:100D40003E2BDACFCF93DF9390E0FC01EF50F64FCC
:100D500024918352964FFC0184918823D1F090E036
:100D6000880F991FFC01E554FD4FA591B491FC013A
:100D7000EF54FD4FC591D49161110EC09FB7F89407
:100D80008C91E22FE0958E238C932881E223E883D7
:100D90009FBFDF91CF9108958FB7F894EC91E22B2C
:100DA000EC938FBFF6CF3FB7F894809142039091B8
:100DB0004303A0914403B091450326B5A89B05C009
:100DC0002F3F19F00196A11DB11D3FBFBA2FA92FCA
:100DD000982F8827BC01CD01620F711D811D911DC7
:100DE00042E0660F771F881F991F4A95D1F7089533
:100DF0008F929F92AF92BF92CF92DF92EF92FF922B
:100E00006B017C010E94D3064B015C01C114D1042B
:100E1000E104F104B9F00E94D306681979098A093E
:100E20009B09683E73408105910580F321E0C21A59
:100E3000D108E108F10888EE880E83E0981EA11C15
:100E4000B11CE4CFFF90EF90DF90CF90BF90AF90B8
:100E50009F908F9008952FB7F89460913E03709102
:100E60003F0380914003909141032FBF0895DC011F
:100E700080E0615038F0ED91E827F0E0E356FE4F56
:100E80008491F7CF0895DC012C911196ED91FC919E
:100E9000F8948181822B81839281322F3095932324
:100EA000928387E090E00197F1F78181832381832A
:100EB00083E290E00197F1F790817894EFECF0E015
:100EC0003197F1F7922381E009F480E00895FC0165
:100ED00090810180F281E02D292F209560FF14C0C0
:100EE000F8948281822382838181892B8183A3E28A
:100EF000B0E01197F1F78281982B9283789487ED77
:100F000090E00197F1F70895F8948281822382831B
:100F10008181892B8183AFEFB0E01197F1F7828156
:100F2000982B928378948FE090E0EBCFDF92EF9252
:100F3000FF920F931F93CF93DF93EC01D62EE42EF5
:100F400008E010E0FF24F39461E08D2D8F2109F477
:100F500060E0CE010E946707FF0C01501109A1F764
:100F6000E11010C0F894E981FA819181888180951F
:100F700089238183E981FA819281888180958923FF
:100F800082837894DF91CF911F910F91FF90EF9022
:100F9000DF900895EF92FF920F931F93CF93DF930B
:100FA0008C017B0140E065E50E949607E70188E03F
:100FB000E80EF11C699140E0C8010E949607CE1529
:100FC000DF05C1F7DF91CF911F910F91FF90EF9057
:100FD0000895FC0190810180F281E02DF8948181D7
:100FE000292F20958223818378943DE743E050E0C8
:100FF000315029F1DA011197F1F780818923C1F38A
:10100000F8948281822382838181892B81837894E1
:10101000ABE7B7E01197F1F7F894818182238183E0
:10102000A3E1B1E01197F1F78081982381E009F005
:1010300080E07894E3E6F6E03197F1F7089580E0F8
:101040000895AF92BF92CF92DF92EF92FF920F93EB
:101050001F93CF93DF938B01BC018091C5049091C6
:10106000C6040E94CA0740E06EEB8091C5049091CF
:10107000C6040E949607E801680189E0C80ED11CE9
:10108000A090C504B090C60488E0E82EF12C10E0D2
:1010900001E0C5010E9443078111102B000F81E080
:1010A000E81AF108B1F71993CC16DD0649F78091DB
:1010B000C5049091C6040E94E90791E0813009F0CF
:1010C00090E0892FDF91CF911F910F91FF90EF90CA
:1010D000DF90CF90BF90AF9008950F931F93CF9361
:1010E000DF93CDB7DEB729970FB6F894DEBF0FBEFA
:1010F000CDBF8C018091C5049091C6040E94E90780
:10110000811102C080E01FC0BE016F5F7F4FC80128
:101110000E9421088823B1F368E0CE0101960E9465
:10112000370799858913EECF8D818F33B9F020F47D
:101130008F3141F789E007C08F3521F08F3711F7E4
:101140008CE001C08BE029960FB6F894DEBF0FBE8D
:10115000CDBFDF91CF911F910F9108958AE0F3CF1A
:10116000FC0120812EBD9B012150310941F05181AC
:101170000DB407FEFDCF4EB55EBD4193F5CF615076
:101180007109860F971F0DB407FEFDCF2EB5FC0128
:1011900020830895E0914703F09148038081909166
:1011A0004603892B80830895E0914703F09148031B
:1011B00090818091460380958923808308958EBD18
:1011C00000000DB407FEFDCF8EB50895AF92BF921B
:1011D000CF92DF92EF92FF920F931F93CF93DF9303
:1011E000CDB7DEB728970FB6F894DEBF0FBECDBFE0
:1011F0008C017B016A018091E0038333E1F45801A3
:10120000A40EB51EA016B10609F46FC00E94D40842
:1012100080EF0E94DF08812F0E94DF08802F0E944C
:10122000DF080F5F1F4FF70181917F010E94DF08E8
:101230000E94CA08E7CF5B01A40EB51E8433C1F437
:101240000E94D40819830A838D2D80688B83CC82F9
:1012500064E070E0CE0101960E94B008AE14BF04B5
:1012600009F441C0F70181917F010E94DF08F6CFA8
:101270000E94D4080F3F110509F028F419820A834F
:1012800084E08B830CC017FD17C019820A8333E0FA
:10129000169507953A95E1F7007E0C600B8386E082
:1012A000C816D104A0F5F701DE011496EA15FB0576
:1012B00099F081918D93FACFC80126E09695879594
:1012C0002A95E1F7807E19830A830115104C10F4EA
:1012D0008461D7CF8C61D5CFB6016D5F7F4FCE01D2
:1012E00001960E94B0080E94CA08C60128960FB64F
:1012F000F894DEBF0FBECDBFDF91CF911F910F914C
:10130000FF90EF90DF90CF90BF90AF90089563E093
:1013100070E0CE0101960E94B008F70181917F0133
:101320000E94DF08AE14BF04C1F7DDCFCF93DF9377
:101330001F92CDB7DEB7898341E050E0BE016F5FF9
:101340007F4F90E080E00E94E6080F90DF91CF9100
:10135000089590E02091E003233339F40C96982F00
:10136000990F990F990F80E008954896F8CFDA0108
:10137000E0914A03F0E0FE2FEE27E60FF71F90E022
:10138000982F8827A901BD018E0F9F1F0C94E60896
:10139000CF93DF9300D0CDB7DEB779836A8322E0A5
:1013A00030E0AE014F5F5F4F60E170E00E94B7092F
:1013B0000F900F90DF91CF910895CF93DF9300D0DE
:1013C000CDB7DEB779836A8322E030E0AE014F5FAC
:1013D0005F4F64E070E00E94B7090F900F90DF91BB
:1013E000CF910895CF93DF931F92CDB7DEB72091B1
:1013F0004A0330E0322F2227260F371F90E0982F24
:101400008827498341E050E0BE016F5F7F4F820F24
:10141000931F0E94E6080F90DF91CF910895CF931C
:10142000DF931F92CDB7DEB76983DC01ED91FC91AC
:101430000280F381E02D41E050E0BE016F5F7F4FFD
:1014400009950F90DF91CF910895CF93DF931F926D
:10145000CDB7DEB76983DC01ED91FC910280F381A9
:10146000E02D41E050E0BE016F5F7F4F09950F9086
:10147000DF91CF910895FC019485FB018485981339
:1014800003C081E0943008F080E00895CF93DF93AB
:101490001F92CDB7DEB76983DC01ED91FC9102802C
:1014A000F381E02D41E050E0BE016F5F7F4F099571
:1014B0000F90DF91CF910895EF92FF920F931F93BA
:1014C000CF93DF938C017B01D0E0C0E0F701EC0FFC
:1014D000FD1F6491662339F0C8010E94460A892BDA
:1014E00011F02196F3CFCE01DF91CF911F910F9193
:1014F000FF90EF900895FC01768765870895DC01E1
:10150000ED91FC91068CF78DE02D099591E08927EE
:101510000895862F089581E08627089521E0FC0133
:101520008485843008F020E0822F089544E050E064
:10153000BC018FE090E00C94E6080895FF920F93B1
:101540001F93CF93DF93EB01FC01178A168A2A8140
:10155000211109C02B81211106C02C81211103C04A
:101560002D81222301F141155105E9F08A01FC0189
:10157000F08C80E591E00E942F05AE014E5F5F4F39
:1015800024E030E06CE070E08F2D0E94B709B801D4
:101590008F2D0E94C80981E090E0DF91CF911F91CB
:1015A0000F91FF90089580E0F7CFFC018485958529
:1015B0000895FC0184899589089524E931E0FC01AE
:1015C00031832083FB014089518962897389FC0141
:1015D00042835383648375830895DC01ED91FC910C
:1015E000048CF58DE02D0994089590E080E0089535
:1015F0008091C5049091C6040E94E90740E06CEC1C
:101600008091C5049091C6040E9496074091C00441
:1016100064E48091C5049091C6040E94960780916D
:10162000C2048823A1F0E091C104E9506EEE72E09B
:10163000E33038F4F0E0EE0FFF1FE858FE4F608112
:101640007181072E000C880B990B0C94F8060895F5
:10165000BF92CF92DF92EF92FF920F931F93CF939F
:10166000DF93EC01B62EC72EED84E11004C00E947A
:10167000E90781110EC01B861D861C8680E0DF9164
:10168000CF911F910F91FF90EF90DF90CF90BF907F
:10169000089540E060EFCE010E949607D12C01E052
:1016A00011E0CE010E944307F82ECE010E944307AD
:1016B00091E0F91218C0813099F51134E0F2EB860F
:1016C000E11002C081E08D878B818823A1F22396EF
:1016D000EB2DFC2DCF01089629912193E817F907EE
:1016E000D9F781E0CCCFED2DF0E0F8120FC08B855B
:1016F0001817A0F4DE01AE0FBF1F13968C91802344
:1017000079F4F12C193008F41C87E12EEC0FFD1F41
:101710008381902F9095892383830AC08113F1CF11
:10172000FE01ED0DF11D8381802B8383FF24F39453
:101730006F2DCE010E9467071F5F000F11F4D39435
:1017400001E087E08D1508F0ACCFB7CFAF92BF9224
:10175000CF92DF92EF92FF920F931F93CF93DF937D
:1017600000D000D0CDB7DEB78C016B017A0180913B
:10177000E0038333E9F45B016801C40ED51EC01693
:10178000D106A9F10E94D4088FE00E94DF08812FC2
:101790000E94DF08802F0E94DF080F5F1F4F80E04C
:1017A0000E94DF08F50181935F010E94CA08E7CF1C
:1017B000843369F50E94D40819830A838F2D8F77AB
:1017C0008B83EC8264E070E0CE0101960E94B00849
:1017D000A70170E060E0C6010E943035E114F10419
:1017E00021F0B701C6010E94B0080E94CA08C701D3
:1017F0000F900F900F900F90DF91CF911F910F914D
:10180000FF90EF90DF90CF90BF90AF9008950E942F
:10181000D4080F3F110509F030F419820A831B82A6
:1018200063E070E0D1CF17FD0BC019820A8333E06B
:10183000169507953A95E1F7007E08600B83F0CF87
:10184000C80126E0969587952A95E1F7807E198351
:101850000A830115104C18F480618B83E1CF8861F5
:10186000FCCFCF93DF931F92CDB7DEB720914A0311
:1018700030E0322F2227260F371F90E0982F88273D
:1018800041E050E0BE016F5F7F4F820F931F0E94C7
:10189000A60B89810F90DF91CF910895CF93C82F28
:1018A000462F61E070E00E94F20961E070E08C2F49
:1018B0000E94310C8111F9CFCF910895CF93C82F99
:1018C00080E591E00E942F0568E070E08C2FCF91B9
:1018D0000C944E0CCF93C82F80E591E00E942F0509
:1018E00060E170E08C2FCF910C944E0CCF93DF937E
:1018F000EC01888D843020F40E946A0C84E0888F8B
:10190000DF91CF91089563E070E00C94310CCF9398
:10191000C82F80E591E00E942F058C2FCF910C9469
:10192000830CEF92FF920F931F93CF937C0108EDEE
:1019300013E0C0E0F801219131918F01F70184811A
:1019400095812817390729F0CF5FC43099F780E0D7
:1019500006C08C2F0E94870C8431B1F781E0CF91B3
:101960001F910F91FF90EF900895CF93DF93EC01BB
:101970008C858430D0F40E94870C843189F08823D0
:1019800079F0883169F021E08C3159F4E881F981EE
:101990000084F185E02DCE01099521E0892B09F421
:1019A00020E0822FDF91CF91089580E0FBCFCF928E
:1019B000DF92EF92FF92CF93DF93EC018C8584301E
:1019C00068F40E945E0C0E942B076B017C018C85E1
:1019D0000E94870C811109C084E08C87DF91CF9130
:1019E000FF90EF90DF90CF90089561E070E080E08D
:1019F00090E00E94F8060E942B07AB01BC014C1935
:101A00005D096E097F098D859E85B0E0A0E04817CD
:101A100059076A077B07D8F28C850E946A0CDCCFD5
:101A2000CF93FC01C08D80E591E00E942F0560E21C
:101A300070E08C2F0E944E0C62E070E08C2F0E94B0
:101A4000310C84FD16C062E070E08C2F0E94310CD6
:101A500083FF0AC048E162E070E08C2F0E94F20927
:101A600080E090E0CF91089580E591E00E942F05FD
:101A7000E3CF40E162E070E08C2F0E94F20981E048
:101A8000F0CFCF93DF931F92CDB7DEB741E050E0A8
:101A9000BE016F5F7F4F90E080E00E94A60B8981BE
:101AA0000F90DF91CF910895CF93DF93C4E1D0E001
:101AB0000E94410D882361F061E070E080E090E0D9
:101AC0000E94F8062197A1F780E0DF91CF91089559
:101AD00081E0FBCF1F93CF93DF931F92CDB7DEB78B
:101AE000182F80E591E00E942F05812F0E94A909FF
:101AF00027E0129FF0011124E454FC4F228133812E
:101B0000377041E050E0BE016F5F7F4F820F931F3F
:101B10000E94A60B89810F90DF91CF911F910895AC
:101B2000FC01808D843040F4218D328D232B21F0F7
:101B30000E946A0D90E008958FEF9FEF0895CF9374
:101B4000DF93FC012485243028F08FEF9FEFDF9195
:101B5000CF910895EC010190F081E02D0084F18592
:101B6000E02D0995892B89F38C850E946A0D90E000
:101B7000EECFDA01E0914A03F0E0FE2FEE27E60F08
:101B8000F71F90E0982F8827A901BD018E0F9F1F96
:101B90000C94A60B8F929F92AF92BF92CF92DF923E
:101BA000EF92FF921F93CF93DF93CDB7DEB72C97C1
:101BB0000FB6F894DEBF0FBECDBF2091E00314E056
:101BC000222329F16B017C0180E591E00E942F0521
:101BD0005E0127E0A20EB11C450110E0812F0E949A
:101BE000830CF40181934F01882349F11F5F143066
:101BF000A9F710E0F50181915F018D31D9F08831AD
:101C0000C9F08A518230B0F01F5F143099F7812FEC
:101C10002C960FB6F894DEBF0FBECDBFDF91CF91EB
:101C20001F91FF90EF90DF90CF90BF90AF909F906B
:101C30008F90089560E170E0812F0E944E0CA12EDC
:101C4000B12CF501EE0FFF1FE852FC4F11821082FC
:101C500083EE93E00197F1F742E870E060E0812FB6
:101C60000E94F2094FEF62E070E0812F0E94F209BA
:101C7000B601C114D10491F480910601909107013D
:101C800001968115F0EC9F0708F45CC09093070162
:101C9000809306016091060170910701812F0E94D7
:101CA000DD0986E0E2E1F1E0DE01119601900D929E
:101CB0008A95E1F7F70183818F778C8384818D8307
:101CC00085818E83A7014E5F5F4F24E030E06CE09A
:101CD00070E0812F0E94B709B601812F0E94C809C8
:101CE00026E030E0AE014F5F5F4F66E070E0812F8D
:101CF0000E94B70961E070E0812F0E944E0C27E03E
:101D00002A9DC0012B9D900D11249C0124543C4F11
:101D10007901F9011182108222E030E0AE01455FC5
:101D20005F4F68E270E0812F0E94B90D8B859C8522
:101D3000982789279827F701938382831682158233
:101D4000148265CF80E090ECA1CFCF92DF92EF922A
:101D5000FF920F931F93CF93DF9300D000D000D05A
:101D6000CDB7DEB78C016B017A01FC01808D843028
:101D700010F40E946A0C84E991E09A838983F60149
:101D800082819381A481B5818B839C83AD83BE8343
:101D9000B701CE0101960E94CA0DF801808F8430F0
:101DA000A0F4F586E486128E118E81E026960FB699
:101DB000F894DEBF0FBECDBFDF91CF911F910F9181
:101DC000FF90EF90DF90CF90089580E0EFCFAF923B
:101DD000BF92CF92DF92EF92FF920F931F93CF9318
:101DE000DF9300D000D000D0CDB7DEB7082F6B0155
:101DF00080E591E00E942F059E012F5F3F4F790102
:101E0000590110E0812F0E94830CF50181935F013D
:101E1000882341F11F5F1430A9F710E0F701819189
:101E20007F018D31D1F08831C1F08A518230A8F024
:101E30001F5F143099F7812F26960FB6F894DEBFF6
:101E40000FBECDBFDF91CF911F910F91FF90EF900B
:101E5000DF90CF90BF90AF90089560E170E0812F48
:101E60000E944E0CE12EF12CF701EE0FFF1FE852FD
:101E7000FC4F1182108283EE93E00197F1F7402F1F
:101E800070E060E0812F0E94F2094FEF62E070E0A5
:101E9000812F0E94F209B601CD2889F480910601B4
:101EA0009091070101968115F0EC9F0798F19093AE
:101EB0000701809306016091060170910701812F4F
:101EC0000E94DD0961E070E0812F0E944E0C27E046
:101ED0002E9DC0012F9D900D11249C0124543C4F38
:101EE0007901F9011182108222E030E0AE014B5FEE
:101EF0005F4F68E270E0812F0E94B90D8D819E8155
:101F0000982789279827F701938382831682158261
:101F1000148291CF80E090ECCACFCF92DF92EF9203
:101F2000FF921F93CF93DF93EC017B016A018C85B5
:101F3000843048F40E94870C882319F08C850E9415
:101F40005E0C84E08C87F70182819381A481B58146
:101F50000097A105B10551F490E080E0DF91CF91A9
:101F60001F91FF90EF90DF90CF9008958F3F9F4F8C
:101F7000AF4FBF4F89F38091E003811103C084E02C
:101F80008C87EACF70E060E081E20E94E70E182FB4
:101F90008C87843008F780E591E00E942F05A70127
:101FA0004E5F5F4F24E030E06CE070E0812F0E94D4
:101FB000B709B601812F0E94C80964E070E0812F43
:101FC0000E944E0C0E942B076B017C018C850E94A5
:101FD000870C873109F18C31F9F0882309F4BCCFE3
:101FE0000E942B07AB01BC014C195D096E097F09EA
:101FF0008D859E85B0E0A0E084179507A607B707FA
:1020000038F061E070E080E090E00E94F806DECFFA
:102010008C850E946A0CB3CF81E090E09FCF0F9334
:102020001F93CF93DF93EC018B01888D843010F4E4
:102030000E946A0C8091E003811107C094E0988FA0
:10204000DF91CF911F910F910895B80182E00E9416
:10205000E70E888F843030F41D870C871A8E198E16
:1020600081E0EECF80E0ECCF0F931F93CF932091D0
:10207000E003222349F18C01FC016481758181E236
:102080000E94E70EC82F8430F8F480E591E00E94AA
:102090002F058C2F0E94830C833131F08C2FCF9130
:1020A0001F910F910C945E0C62E070E08C2F0E94E7
:1020B0004E0CF80184819581EC2FF0E0EE0FFF1FAC
:1020C000E852FC4F91838083CF911F910F91089527
:1020D0007F928F929F92AF92BF92CF92DF92EF92B8
:1020E000FF920F931F93CF93DF9300D0CDB7DEB74E
:1020F000782E8B014A01590122E030E0AE014F5F9A
:102100005F4F64E270E00E94B90DE980FA80FE241E
:10211000EF24FE24E00EF11E970137704091E0039A
:10212000072D10E0433309F042C0085F1F4F102F06
:102130000027110F110F110FC901800F911F473395
:10214000C9F1A9014A0D5B1D4130584098F160E08A
:1021500078E06B01C21AD30AA601B4010E94E60816
:10216000A5014C195D09B4016C0D7D1DC8010E94CB
:10217000E608EA0CFB1CF982EA8222E030E0AE01BC
:102180004F5F5F4F64E270E0872D0E94B7090F90A8
:102190000F90DF91CF911F910F91FF90EF90DF9003
:1021A000CF90BF90AF909F908F907F900895005FE9
:1021B0001F4FBDCFA501B401DACFEF92FF921F935D
:1021C000CF93DF9300D0CDB7DEB7182F22E030E0F9
:1021D000AE014F5F5F4F60E270E00E94B90DE98091
:1021E000FA80FE24EF24FE2422E030E0AE014F5FAF
:1021F0005F4F60E270E0812F0E94B90D89819A8162
:10220000982789279827E816F90689F487E0189F08
:10221000F0011124E454FC4FF582E482C7010F90D1
:102220000F90DF91CF911F91FF90EF9008957C0167
:10223000DBCF1F93CF93DF93182F80E591E00E94AF
:102240002F05812F0E94DD10EC01812F0E94830C4D
:10225000873121F08C3111F0D0E0C0E0CE01DF9168
:10226000CF911F910895CF93DF93EC018C8584303B
:1022700060F40E94870C873111F08C3131F48C8529
:102280000E9419118115984088F3DF91CF9108952C
:10229000FC018485843010F40C94191190E080E0E6
:1022A0000895CF92DF92EF92FF921F93CF93DF9327
:1022B000182F7B01EA014130584010F0C0E0D8E00F
:1022C00080E591E00E942F05812F0E94DD106C01B6
:1022D000812F0E94830C873111F08C3121F5CC16AF
:1022E000DD0670F380E591E00E942F059E01A701B5
:1022F00070E060E0812F0E94681060E270E0812F42
:102300000E944E0C62E070E0812F0E94310C84FD2F
:102310000DC0812F0E94830C8823B9F080E591E0E5
:102320000E942F05EFCFD0E0C0E0DCCF40E162E0BB
:1023300070E0812F0E94F209CE01DF91CF911F91B1
:10234000FF90EF90DF90CF900895D0E0C0E0F4CF01
:102350000F931F93CF93DF938C01EA01FC018485D7
:10236000843048F40E945111892B39F481E090E0C7
:10237000F80193838283D0E0C0E0CE01DF91CF915A
:102380001F910F910895FB014481558160817181F6
:102390000C94A8119F92AF92BF92CF92DF92EF92CE
:1023A000FF920F931F93CF93DF938C015B01942EC9
:1023B000E52EFC01C688D788F08C80E591E00E946C
:1023C0002F058F2D0E94DD10C92DDE2D8C179D0746
:1023D00008F4EC019E01A501B6018F2D0E94681042
:1023E000F801868997898C0F9D1F978B868BCE016C
:1023F000DF91CF911F910F91FF90EF90DF90CF90E1
:10240000BF90AF909F900895FF920F931F93CF932B
:10241000DF9300D0CDB7DEB7F82E22E030E0AE017A
:102420004F5F5F4F66E270E00E94B90D09811A812B
:1024300010270127102722E030E0AE014F5F5F4FE9
:1024400066E270E08F2D0E94B90D89819A819827EC
:10245000892798270817190749F4C8010F900F908A
:10246000DF91CF911F910F91FF9008958C01E3CFE1
:102470001F93CF93DF93182F87E0189FE00111245B
:10248000C454DC4F88819981009761F480E591E024
:102490000E942F05812F0E9404122E81821B910918
:1024A00099838883DF91CF911F910895AF92BF9256
:1024B000CF92DF92EF92FF920F931F93CF93DF9310
:1024C000EC017B018091E003811120C01B821A8204
:1024D00088EE93E0A0E0B0E08C839D83AE83BF8361
:1024E0008CE191E09983888384E08C8788EE93E087
:1024F0009E878D87CE01DF91CF911F910F91FF9025
:10250000EF90DF90CF90BF90AF90089588EDC82EE8
:1025100083E0D82E10E094E0B92EA12CD6012D91A5
:102520003D916D01F701848195812817390791F458
:10253000812F0E94870C082F873111F08C3139F5DB
:10254000812F0E943812892B59F50C3119F4812FF3
:102550000E945E0C1F5F143009F7A11008C0D7015C
:10256000ED91FC910084F185E02DC70109951B8256
:102570001A8288EE93E0A0E0B0E08C839D83AE8366
:10258000BF838CE191E099838883BC86AFCF84318F
:1025900049F08111DFCFF601329711821082DACF34
:1025A000B12ED8CFAA24A394D5CF8F929F92AF9269
:1025B000BF92CF92DF92EF92FF921F93CF93DF9360
:1025C000CDB7DEB72F970FB6F894DEBF0FBECDBFE5
:1025D0005C014B017A018091E0038823A1F1B501F0
:1025E000CE0101960E94561288EDC82E83E0D82EA7
:1025F00010E0F601219131916F01F50184819581FF
:102600002817390751F4812F0E94870C873129F44C
:10261000A701B401812F0E9451111F5F143049F7A7
:10262000C7012F960FB6F894DEBF0FBECDBFDF9166
:10263000CF911F91FF90EF90DF90CF90BF90AF9020
:102640009F908F900895F12CE12CEACFFC018485B6
:10265000843010F40C94381290E080E008954F928A
:102660005F927F928F929F92AF92BF92CF92DF92B2
:10267000EF92FF920F931F93CF93DF9300D0CDB7CC
:10268000DEB7782E6B014A01A82EB12C27E0829F7D
:10269000C0011124FC01E454FC4F7F010081118131
:1026A00080E591E00E942F050815190554F4872D47
:1026B0000E940412F70126818C01021B110911836B
:1026C00000830115110519F5872D0E94830C8431B3
:1026D00059F0882349F001E010E08C3111F410E04A
:1026E00000E0119501951109C8010F900F90DF913D
:1026F000CF911F910F91FF90EF90DF90CF90BF90FF
:10270000AF909F908F907F905F904F90089580162C
:1027100091060CF4840187E08A9DF0018B9DF00DF9
:102720001124E454FC4FE280F380C114D10451F130
:102730002701F7E05F22872D0E94A909840D951DCE
:102740002091E003273309F453C09801240D351D6F
:102750002130384008F44CC020E038E049018418AA
:102760009508A401B6010E94A60B2601480C591C2D
:102770006801C818D908872D0E94A909A601B201CD
:102780000E94A60BE00EF11E87E08A9DF0018B9D52
:10279000F00D1124E454FC4FF382E2822081318158
:1027A000201B310B318320838681800F912F911D57
:1027B0008A3F910510F4232BF1F487E08A9DF00104
:1027C0008B9DF00D1124E454FC4F1682F982EA82AD
:1027D00022E030E0AE014F5F5F4F68E270E0872D8E
:1027E0000E94B70960E470E0872D0E944E0C7CCFF8
:1027F000A801B601C5CF868377CFCF93DF93FC01C5
:10280000218D328D2115310529F48FEF9FEFDF9156
:10281000CF910895EC01808D4217530708F0A9016C
:102820000E942F131816190684F7298D3A8D281B3C
:10283000390B3A8F298FEBCF0F931F93CF93DF93F1
:102840001F92CDB7DEB7FC01218D328D232B41F4D1
:102850008FEF9FEF0F90DF91CF911F910F91089510
:102860008C0141E050E0BE016F5F7F4FFC01808D25
:102870000E942F13181619065CF7F801818D928DAE
:102880000197928F818F898190E0E4CFCF93DF937E
:102890001F92CDB7DEB741E050E0BE016F5F7F4FC2
:1028A000FC0184850E942F131816190634F48981BF
:1028B00090E00F90DF91CF9108958FEF9FEFF9CFC8
:1028C0000F931F93CF93DF93EC010E942B07688730
:1028D00079878A879B87CE010E94461497FF15C08F
:1028E0000E942B07088519852A853B85601B710B83
:1028F000820B930B0C811D812E813F816017710724
:102900008207930740F38FEF9FEFDF91CF911F91E5
:102910000F910895FC018485843010F40C942F13DA
:1029200090E080E008950F931F93CF93DF9300D042
:10293000CDB7DEB7FC0124852430E0F48C0180E5BE
:1029400091E00E942F0522E030E0AE014F5F5F4F23
:1029500060E170E0F80184850E94B90D89819A8157
:102960009827892798270F900F90DF91CF911F917B
:102970000F91089590E080E0F6CF0F931F93CF93CF
:10298000DF9300D0CDB7DEB7FC0124852430E0F41E
:102990008C0180E591E00E942F0522E030E0AE013D
:1029A0004F5F5F4F64E070E0F80184850E94B90DCD
:1029B00089819A819827892798270F900F90DF9116
:1029C000CF911F910F91089590E080E0F6CFDC0148
:1029D00084E991E08D939D9384E0FB0101900D9239
:1029E0008A95E1F70895EF92FF920F931F93CF938B
:1029F000DF9300D000D0CDB7DEB78C017B01FB01A7
:102A000084858430A8F084E991E0F8019183808383
:102A10001282138214821582C8010F900F900F90BA
:102A20000F90DF91CF911F910F91FF90EF9008953C
:102A300080E591E00E942F0524E030E0AE014F5F79
:102A40005F4F6CE070E0F70184850E94B90DBE0114
:102A50006F5F7F4FC8010E94E714DECF0F931F9373
:102A6000CF93DF93CDB7DEB728970FB6F894DEBFCC
:102A70000FBECDBF8C01D80159964D915C915A97EC
:102A80004115510551F0ED91FC91048CF58DE02D2F
:102A900070E060E0C8010995EECFF801808D0E94DA
:102AA0003812892BB1F148E050E0BE016F5F7F4FD3
:102AB000D80158968C910E942F1318161906F4F419
:102AC000D801509684E0FE01319601900D928A95CE
:102AD000E1F78D8190E0982F88272E81820F911D3C
:102AE000F801958B848B8F81282F30E0322F22279D
:102AF0008885820F932F911D928F818F28960FB614
:102B0000F894DEBF0FBECDBFDF91CF911F910F9123
:102B1000089590E080E0F2CF4F925F926F927F92A3
:102B20008F929F92AF92BF92CF92DF92EF92FF92DD
:102B30000F931F93CF93DF93CDB7DEB763970FB695
:102B4000F894DEBF0FBECDBF7C016B013A01FB01E3
:102B500020E090E080E06AE03191332309F461C025
:102B600040ED430F4A3008F04DC0689FA001699FB7
:102B7000500D1124CA01C097830F911D37FD9A95FE
:102B80008F3F910549F340F3F701428153816481FE
:102B900075818091AA049091AB04A091AC04B0918E
:102BA000AD04481759076A077B0709F40DC287016E
:102BB000085F1F4F0E942B076F7077277C5FC8014B
:102BC0000E940F10813009F004C284E991E09A83D9
:102BD0008983F70182819381A481B5818B839C8352
:102BE000AD83BE8345E350E0BE016F5F7F4FC801F8
:102BF0000E949E0A892BA9F5D12CC12CC8010E94E4
:102C0000760C17C03E3209F0BFCF233009F4BCCF99
:102C1000D301A20FB11D12968C932F5F90E080E03C
:102C20009BCF233009F0B0CFF3018583CC24C3942C
:102C3000D12CC60163960FB6F894DEBF0FBECDBF90
:102C4000DF91CF911F910F91FF90EF90DF90CF9088
:102C5000BF90AF909F908F907F906F905F904F90BC
:102C600008950E942B07F7017783668342E050E0C6
:102C7000B7016A5F7F4FC8010E94CA1181E090E0EE
:102C80009A83898342E050E0BE016F5F7F4FC801A5
:102C90000E94CA1180E091E09A83898342E050E06B
:102CA000BE016F5F7F4FC8010E94CA111A8219824C
:102CB00042E050E0BE016F5F7F4FC8010E94CA1121
:102CC00042E050E0BE016F5F7F4FC8010E94CA1111
:102CD00042E050E0BE016F5F7F4FC8010E94CA1101
:102CE0005601F6018081882301F16501F601819189
:102CF0002F01882311F08E32B1F446018A189B0807
:102D00001814190474F48D8641E050E0BE01635F2D
:102D10007F4FC8010E94CA11A401B501C8010E94D9
:102D2000CA115201DECF6201E1CF1D8641E050E0C1
:102D3000BE01635F7F4FC8010E94CA11C12CDD2410
:102D4000D394DA82C98242E050E0BE016F5F7F4FC8
:102D5000C8010E94CA11DA82C98242E050E0BE0175
:102D60006F5F7F4FC8010E94CA11C8010E94100DF9
:102D7000892B09F441CFF3E0AF2EB12C230122E0DF
:102D8000420E511CD4C0F701428153816481758188
:102D9000808D918DA28DB38D481759076A077B07E7
:102DA00009F008C1848D958DC59709F003C181A1F3
:102DB00092A15DEFC52EDD24DA940C970CF4ADC022
:102DC0004CE050E0BE016F5F7F4FC8010E94FD13D1
:102DD0008B819C819827892798279A8B898BF7016B
:102DE0004681578129813A814217530709F0E7C08C
:102DF00097FFE5C08F7092703BEFC32EDD24DA940D
:102E0000892B09F08AC06F80788476246724762421
:102E10002AEFC22EDD24DA946114710409F47DC016
:102E2000D12CC12C8D819E81982789279827C8167F
:102E3000D906F8F441E050E0BE01635F7F4FC8015E
:102E40000E94FD134D85442331F050E070E060E0B6
:102E5000C8010E94FD138D858111ECCF44E050E044
:102E600070E060E0C8010E94FD13FFEFCF1ADF0A97
:102E7000D9CF912C812C41E050E0BE016D5E7F4F97
:102E8000C8010E94FD134B89842F807C09F06CC01F
:102E9000442331F050E070E060E0C8010E94FD136F
:102EA0008B898111E8CF42E050E0BE01615F7F4F26
:102EB000C8010E94FD1342E050E0BE01635F7F4FF6
:102EC000C8010E94FD1344E050E070E060E0C801DA
:102ED0000E94FD1342E050E0BE016F5E7F4FC801CB
:102EE0000E94FD138F85988949895A8981159140DF
:102EF00009F043C0CD84DE84DC24CD24DC2481E0D1
:102F0000C816D104D1F54115544009F04AC044E037
:102F100050E0B201C8010E94FD1321E0A21AB108DD
:102F200009F46CCEFFEFCF16DF0609F067CE0E94E2
:102F30002B073B014C01C8010E942E1518161906DB
:102F40000CF421CF0E942B0766197709880999098B
:102F5000693873418105910548F562E370E080E0CE
:102F600090E00E94F806E7CF41E050E070E060E0BA
:102F7000C8010E94FD131B8A93CF5427452754276D
:102F800070E060E0C8010E94FD13FFEF8F1A9F0AF6
:102F90006814790409F06FCF96EFC92EDD24DA9416
:102FA000BCCFE7EFCE2EDD24DA94B7CFCC24CA9481
:102FB000DC2CB3CF6EEFC62EDD24DA94AECF4CEF0F
:102FC000C42EDD24DA94A9CF8EEFC82EDD24DA9446
:102FD00030CED12CC12C2DCECF92DF92EF92FF922A
:102FE0000F931F93CF93DF93CDB7DEB7AF970FB695
:102FF000F894DEBF0FBECDBF7C016A0104E911E089
:103000001A8309831C861B8688EE93E0A0E0B0E05B
:103010008D879E87AF87B88B8AE491E09A878987EE
:10302000188F0F8B198E1A8E1B8E1C8E84E089A32D
:103030001BA70AA71CA61DA61EA61FA680919E045C
:1030400090919F04A091A004B091A1048EA39FA38E
:10305000A8A7B9A78B839C83AD83BE8318861F82E4
:10306000AE01465D5F4FCE0101960E948C15813006
:103070009105B1F4D701ED91FC910488F589E02D1B
:103080001DA30CA38CA59DA5AEA5BFA58EA39FA334
:10309000A8A7B9A7A601BE016C5D7F4FC70109951E
:1030A000AF960FB6F894DEBF0FBECDBFDF91CF91C4
:1030B0001F910F91FF90EF90DF90CF900895CF92E6
:1030C000DF92EF92FF920F931F93CF93DF93CDB7D1
:1030D000DEB7AF970FB6F894DEBF0FBECDBF8C0141
:1030E0006B017A0184E991E09A8389831B821C82B7
:1030F0001D821E821C861B8648EE53E060E070E055
:103100004D875E876F87788B2AE431E03A8729877D
:10311000988F8F8B198E1A8E1B8E1C8E24E029A3FC
:103120009BA78AA71CA61DA61EA61FA6D8011C9693
:103130008C91843060F40E94870C882321F0F80180
:1031400084850E945E0C84E0D8011C968C9380914B
:103150009E0490919F04A091A004B091A1048EA31D
:103160009FA3A8A7B9A78B839C83AD83BE83188632
:103170001F82AE01465D5F4FB601CE0101960E94EF
:103180008C150097C1F0D801ED91FC910684F7856C
:10319000E02D84E991E09DA38CA38CA59DA5AEA50F
:1031A000BFA58EA39FA3A8A7B9A7A701BE016C5D69
:1031B0007F4FC8010995AF960FB6F894DEBF0FBEDA
:1031C000CDBFDF91CF911F910F91FF90EF90DF90D6
:1031D000CF900895FB0101900020E9F73197AF01EE
:1031E000461B570BDC01ED91FC910280F381E02D31
:1031F00009948F929F92AF92BF92EF92FF920F939A
:103200001F93CF93DF93CDB7DEB7A1970FB6F89496
:10321000DEBF0FBECDBF7C01FA01CB0119A2223067
:1032200008F42AE08E010F5D1F4F822E912CB12CE5
:10323000A12CBF01A50194010E942C32F901CA0101
:103240006A300CF5605DD8016E938D01232B242B21
:10325000252B79F790E080E0109721F0BD01C701A0
:103260000E94EA18A1960FB6F894DEBF0FBECDBF3C
:10327000DF91CF911F910F91FF90EF90BF90AF9092
:103280009F908F900895695CDECF8F929F92AF924E
:10329000BF92CF92DF92EF92FF920F931F93CF9343
:1032A000DF937C01EB016C0182E0C80ED11C470169
:1032B000E5E08E0E911C10E000E0F60141916F01F7
:1032C00050E070E060E02AE0CE010E94F9185C0155
:1032D000E881F9810190F081E02D6EE2CE0109953F
:1032E0008A0D9B1D080F191FC814D90431F7F70167
:1032F000458150E070E060E02AE0CE010E94F918BC
:10330000800F911FDF91CF911F910F91FF90EF9050
:10331000DF90CF90BF90AF909F908F90089566EA16
:1033200071E00C94EA18CF93DF9361EE73E00E9492
:103330004519EC0181EE93E00E948F198C0F9D1FBF
:10334000DF91CF910895CF93DF93D0E0C0E0009755
:1033500031F0BC0181EE93E00E94EA18EC0181EEAD
:1033600093E00E948F198C0F9D1FDF91CF910895DC
:103370000F931F93CF93DF93EC010E94C3118C0135
:10338000CE010E948F19800F911FDF91CF911F9165
:103390000F9108950F931F93CF93DF93EC010E9439
:1033A0005C0A8C01CE010E948F19800F911FDF9162
:1033B000CF911F910F9108957F928F929F92AF921C
:1033C000BF92CF92DF92EF92FF920F931F93CF9312
:1033D000DF93CDB7DEB7A6970FB6F894DEBF0FBE6A
:1033E000CDBF8C01762E942E852E20E2A22ECE010A
:1033F00001967C01DC01EA2D1D92EA95E9F768014E
:10340000F3E4CF0ED11C84E991E09AA389A38FEF56
:103410008BA38CA38DA38EA343E450E0BE016F5D0C
:103420007F4FC6010E949E0A019609F4BFC081E049
:1034300089838A8386E0B82EBB821C82D8011496C9
:103440006D917D918D919C9117970E9417336D839B
:103450007E838F83988789869A8680E890E09C8710
:103460008B874CE150E0B701C6010E94CA11FE01F2
:1034700037968AE1DF011D928A95E9F74801B8E0A5
:103480008B0E911CF401D70101900D92BA94E1F7D3
:1034900040E150E0B701C6010E94CA11F701119244
:1034A000AA94E9F796E0A92EB12C40E250E0B701CA
:1034B000C6010E94CA11F1E0AF1AB108B1F783E664
:1034C000898392E89A8393E59B838C8385E38D833C
:1034D00081E08E837F829DE3988797E099878A8732
:1034E00086E0F401DE011B9601900D928A95E1F7CA
:1034F0008CE0898B8A8B69EA71E0CE0143960E9449
:103500004035D8011B966C91CE0149960E94320538
:10351000F8016485CE014B960E943205D8011D96B4
:103520006C91CE014D960E9432054EE150E0B701FC
:10353000C6010E94CA11B3E07B121EC082E38983D8
:1035400084E08A83F80196859B8397859C83908984
:103550009D8391899E8396E39F838887828D898747
:10356000838D8A87848D8B87858D8C874CE050E096
:10357000B701C6010E94CA1187E3898386E08A8366
:1035800091E09B8393E09C838D838FE08E838AE31D
:103590008F838BE388878FEF898749E050E0B701FD
:1035A000C6010E94CA11C6010E94100DA6960FB650
:1035B000F894DEBF0FBECDBFDF91CF911F910F9169
:1035C000FF90EF90DF90CF90BF90AF909F908F9043
:1035D0007F900895FC0124813581232B31F421E073
:1035E000FB01672B49F4822F089580819181611539
:1035F000710539F421E0FC0180818823A1F320E0EA
:10360000F2CF0E94373521E0892B69F3F8CF0F9371
:103610001F93CF93DF93EC0188819981009759F034
:103620002A813B812617370730F081E0DF91CF9167
:103630001F910F9108958B016F5F7F4F0E945D3442
:10364000009759F0998388831B830A832C813D81DD
:10365000232B59F7FC011082E8CF80E0E7CFEF92EF
:10366000FF920F931F93CF93DF936115710541F480
:1036700080E0DF91CF911F910F91FF90EF9008951F
:1036800041155105B1F07B01EC010C811D81040F46
:10369000151FB8010E94071B882351F32881398127
:1036A0008C819D81B701820F931F0E9440351D833D
:1036B0000C8381E0DECFCF93DF93EC018881998189
:1036C000009711F00E94D433198218821D821C8247
:1036D0001B821A82DF91CF910895EF92FF920F9390
:1036E0001F93CF93DF93EC01198218821B821A82F9
:1036F0001D821C826115710521F18B01FB01019076
:103700000020E9F731977F01E61AF70AB7010E9416
:10371000071B811109C0CE01DF91CF911F910F913D
:10372000FF90EF900C945B1BFD82EC82B8018881C6
:103730009981DF91CF911F910F91FF90EF900C94A1
:103740004035DF91CF911F910F91FF90EF90089539
:10375000EF92FF920F931F93CF93DF938C017B0126
:10376000EB0109900020E9F72197C61BD70BBE019A
:103770000E94071B811109C0C801DF91CF911F91E1
:103780000F91FF90EF900C945B1BF801D583C483DD
:10379000B70180819181DF91CF911F910F91FF90AF
:1037A000EF900C944035CF93DF93EC01FB01019037
:1037B0000020E9F73197AF01461B570B0E942F1BE2
:1037C000811103C0CE010E945B1BCE01DF91CF911E
:1037D0000895CF93DF93EC01FB0144815581608113
:1037E00071810E942F1B811103C0CE010E945B1BBF
:1037F000CE01DF91CF910895FC01808191810097E6
:1038000011F00C94D43308953F924F925F926F92CF
:103810007F928F929F92AF92BF92CF92DF92EF9260
:10382000FF920F931F93CF93DF93CDB7DEB7EA9745
:103830000FB6F894DEBF0FBECDBF7C012A013B015D
:1038400069010E942B074B015C0187010D5B1F4F33
:10385000C8010E942E15181619069CF00E942B070D
:10386000681979098A099B09461657066806790678
:1038700008F466C162E370E080E090E00E94F80620
:10388000E7CF42E250E0BE016F5F7F4FC8010E9468
:10389000FD1389818230D1F0312C832DEA960FB649
:1038A000F894DEBF0FBECDBFDF91CF911F910F9176
:1038B000FF90EF90DF90CF90BF90AF909F908F9050
:1038C0007F906F905F904F903F900895F8018489AA
:1038D00095898334910501F76D817E818F8198856B
:1038E0000E9417334B015C01F60180829182A28213
:1038F000B38246E050E0B701685F7F4FCE014D963E
:103900000E941A35892B41F6F70180819181A281AD
:10391000B38188169906AA06BB0608F4BDCF848138
:103920009581A681B78188159905AA05BB0508F47C
:10393000B3CF89899A89AB89BC8986879787A08B01
:10394000B18B4EEC50E070E060E0C8010E94FD13C6
:10395000312CC701829698AB8FA7F701B696FAABC8
:10396000E9AB08969CAB8BAB67019AE1C90ED11C01
:10397000BD96FEABEDABC701429698AF8FABFD97FE
:10398000FAAFE9AF4701FEE18F0E911CF801818D7E
:10399000928D181619060CF080CFC8010E941C14D5
:1039A0008333910509F4B2C014F58130910509F40F
:1039B00064C044F4892B51F3C8010E941C14AC016B
:1039C000552775C08330910509F462C00697A1F7A9
:1039D000C8010E941C14B82E44E050E0B401C80194
:1039E0000E94FD13EB2DE450FF0BAF0160C08A3342
:1039F000910509F45FC084F585339105B1F1C6974F
:103A0000D9F6C8010E941C145C01B601CE0189964A
:103A10000E94E7148BA59CA5ADA5BEA5892B8A2B7A
:103A20008B2BB1F0EDA9FEA940805180628073809C
:103A3000B601CE0183960E94E7148DA19EA1AFA18D
:103A4000B8A5A501481659066A067B0609F0B8CF45
:103A500044E050E0B60118C08B33910509F440C032
:103A60008F3F910509F492CFA7CFC8010E941C1483
:103A7000C8010E941C14382E89CFC8010E941C1452
:103A800044E050E06FA978ADC8010E94FD137ECFDD
:103A9000C8010E941C14B82E44E050E069AD7AAD14
:103AA000C8010E94FD138B2D8450990BAC0170E06E
:103AB00060E0EACFC8010E941C1444E050E069A90C
:103AC0007AA9C8010E94FD13F70166A177A180A51C
:103AD00091A50E94173366A377A380A791A756CF1D
:103AE000C8010E941C1444E050E06BA97CA9C801E5
:103AF0000E94FD13F70162A573A584A595A50E94F8
:103B0000173362A773A784A795A740CFC8010E9467
:103B10001C1444E050E06FA578A9C8010E94FD1371
:103B2000F70162A173A184A195A10E94173362A33A
:103B300073A384A395A366A777A780AB91AB26CF89
:103B400033243A94AACE2F923F924F925F926F9273
:103B50007F928F929F92AF92BF92CF92DF92EF921D
:103B6000FF920F931F93CF93DF9300D000D000D02C
:103B7000CDB7DEB78C010E94562C2FEC37E040E029
:103B800050E00E94C331DC01CB010196A11DB11DA3
:103B9000F80184839583A683B78380839183A2836E
:103BA000B3835801F3E4AF0EB11CC5010E94760C3B
:103BB00064E470E0C5010E940F10882309F445C138
:103BC0000E942B072B013C01480182E4880E911CC6
:103BD00048EEC42E43E0D42EE12CF12C52E0252EE9
:103BE0001E821D82D4018C918330B1F1811166C097
:103BF000F80184819581A681B7810196A11DB11D2F
:103C000084839583A683B7830E942B076419750963
:103C100086099709A70196010E942C32A90161E04B
:103C2000C8010E94DC1981E0D4018C938D819E81B2
:103C30000197C1F20E942B0764197509860997093B
:103C4000D801D6962D913D914D915C91D99726172B
:103C500037074807590720F6C5010E94760CF8017E
:103C600084819581A681B7810196A11DB11D8483B0
:103C70009583A683B7830E942B07F801FE96608385
:103C80007183828393838D819E8126960FB6F894EB
:103C9000DEBF0FBECDBFDF91CF911F910F91FF907F
:103CA000EF90DF90CF90BF90AF909F908F907F90DC
:103CB0006F905F904F903F902F9008958430F1F473
:103CC000F80184819581A681B7810196A11DB11D5E
:103CD00084839583A683B7830E942B076419750993
:103CE00086099709A70196010E942C32A90163E079
:103CF000C8010E94DC19D4012C9298CF813051F573
:103D0000F80142AD53AD64AD75AD9E012F5F3F4FDD
:103D1000C8010E94041C382EF2E08F1390C08981E4
:103D20009A81AB81BC81F80184839583A683B78394
:103D30000E942B076419750986099709A701960146
:103D40000E942C32A90163E0C8010E94DC19D40151
:103D50003C926CCF823009F069CFF80142AD53AD8F
:103D600064AD75AD9E012F5F3F4FC8010E94041CDA
:103D7000382EF5E08F135DC0E3E0D401EC93F80139
:103D800082A193A1A4A1B5A1892B8A2B8B2B41F4ED
:103D900084E893E0A0E0B0E082A393A3A4A3B5A33A
:103DA000F80186A197A1A0A5B1A5892B8A2B8B2B01
:103DB00061F482A193A1A4A1B5A1B695A795979509
:103DC000879586A397A3A0A7B1A7F80182A593A57D
:103DD000A4A5B5A5892B8A2B8B2BA9F482A193A12D
:103DE000A4A1B5A1AC01BD0123E0769567955795D7
:103DF00047952A95D1F7841B950BA60BB70B82A785
:103E000093A7A4A7B5A7F80186A197A1A0A5B1A5DE
:103E100086A797A7A0ABB1AB82A593A5A4A5B5A58E
:103E200082AB93ABA4ABB5AB81E090E09E838D8376
:103E3000FDCE96E0891303C0D4011C92F7CEBFEFEC
:103E40003B12F4CEF4011082F1CE1E821D821BCFF4
:103E5000AF92BF92CF92DF92EF92FF920F931F9398
:103E6000CF93DF93CDB7DEB7C456D1090FB6F89420
:103E7000DEBF0FBECDBF6C01062F660F110BC80150
:103E80000E94AD319E012F5F3F4F79015901021B06
:103E9000130BF501EE19FF09882349F0C8018A0DBB
:103EA0009B1D0E94AD31F50181935F01F2CFEE0DB4
:103EB000FF1D1082B701C6010E946D1BC601CC59BF
:103EC000DF4F0FB6F894DEBF0FBECDBFDF91CF91AD
:103ED0001F910F91FF90EF90DF90CF90BF90AF9028
:103EE0000895CF92DF92EF92FF920F931F93CF939B
:103EF000DF937B01DB011496CD90DC90D0E0C0E035
:103F0000082F880F110BCC15DD05D4F4F70184813F
:103F10009581C817D90728F40190F081E02D3097DA
:103F200061F410923C03ECE3F3E06081C8018C0F74
:103F30009D1F0E94B5312196E6CFEC0FFD1FF5CFF6
:103F400060E0C8018C0D9D1DDF91CF911F910F91F5
:103F5000FF90EF90DF90CF900C94B5311F920F92AD
:103F60000FB60F9211242F933F934F935F936F934C
:103F70007F938F939F93AF93BF93EF93FF9381EEC4
:103F800093E00E94C705FF91EF91BF91AF919F9180
:103F90008F917F916F915F914F913F912F910F90F2
:103FA0000FBE0F901F9018951F920F920FB60F9291
:103FB00011242F938F939F93EF93FF93E091F1033D
:103FC000F091F2038081E091F703F091F80382FD14
:103FD0001BC090818091FA038F5F8F732091FB0348
:103FE000821741F0E091FA03F0E0EF51FC4F958F1A
:103FF0008093FA03FF91EF919F918F912F910F90F2
:104000000FBE0F901F9018958081F4CF1F920F92D2
:104010000FB60F9211242F933F938F939F93AF93DB
:10402000BF9380913E0390913F03A0914003B091D4
:10403000410330913D0323E0230F2D3758F50196BE
:10404000A11DB11D20933D0380933E0390933F0338
:10405000A0934003B09341038091420390914303A6
:10406000A0914403B09145030196A11DB11D809319
:10407000420390934303A0934403B0934503BF913D
:10408000AF919F918F913F912F910F900FBE0F9005
:104090001F90189526E8230F0296A11DB11DD2CFBF
:1040A000E1EEF3E01382128288EE93E0A0E0B0E04C
:1040B00084839583A683B78382E891E0918380838C
:1040C00085EC90E09587848784EC90E097878687DD
:1040D00080EC90E0918B808B81EC90E0938B828BD5
:1040E00082EC90E0958B848B86EC90E0978B868BAE
:1040F000118E128E138E148EEEE7F4E084E991E0B7
:10410000918380831282138214821582E4E8F4E0A2
:10411000918380831282138214821582EAE8F4E08C
:10412000918380831282138214821582E0E9F4E085
:10413000918380831282138214821582E6E9F4E06F
:10414000918380831282138214821582E2EAF4E062
:10415000918380831282138214821582ECE9F4E049
:10416000918380831282138214821582E8EAF4E03C
:10417000918380831282138214821582EEEAF4E026
:10418000918380831282138214821582E1EEF4E01F
:1041900091838083128213821482158260E085E00D
:1041A0000E94A206E6EFF9E0E491A3EDB4E0EC93FF
:1041B000E2EEF9E0E491F0E0EE0FFF1FED52F64F72
:1041C0008591949112969C938E9311971B961C92B5
:1041D0001B971D961C921D971C961C921C971A9655
:1041E0001C921A9719961C92199718961C92189758
:1041F00017961C92179716961C92169715961C9256
:10420000159714961C92149713961C921397E0EC32
:10421000F4E088E495E0928B818BB683A5831482C9
:10422000108289E0818381E082838383EAEBF4E07A
:10423000138212828AE991E09183808380E590E085
:104240009583848368EA71E084EB94E00C946D1BA1
:10425000CF93DF93CDB7DEB7C055D1090FB6F89431
:10426000DEBF0FBECDBF789484B5826084BD84B5B7
:10427000816084BD85B5826085BD85B5816085BD61
:1042800080916E00816080936E0010928100809119
:1042900081008260809381008091810081608093A1
:1042A0008100809180008160809380008091B100C6
:1042B00084608093B1008091B00081608093B000F1
:1042C00080917A00846080937A0080917A00826085
:1042D00080937A0080917A00816080937A00809147
:1042E0007A00806880937A001092C1006AE0CE0163
:1042F000C1960E94281F64E6CE0182960E94281F64
:1043000068EA71E0CE01C1960E94EA1A811108C0E4
:1043100070E060E0CE01C1960E94EA1A882381F025
:1043200061EB71E0CE0101960E946D1BBE016F5FD3
:104330007F4F8AE00E94711FCE0101960E94FC1BF4
:1043400068EA71E0CE0182960E94EA1A811108C0E3
:1043500070E060E0CE0182960E94EA1A882381F024
:1043600060EB71E0CE0101960E946D1BBE016F5F94
:104370007F4F84E60E94711FCE0101960E94FC1BB4
:10438000E091C504F091C604138615861486128642
:10439000118610861782168215821482138210925B
:1043A000C40401E0BE016F5F7F4F8091C50490910E
:1043B000C6040E94280B882309F455C067E0CE018B
:1043C00001960E94370798858913ECCF8091C0042D
:1043D000811128C08091C5049091C6040E94E9070C
:1043E000BE016F5F7F4F8091C5049091C6040E940B
:1043F000CA0740E064EB8091C5049091C6040E9416
:1044000096078091C5049091C6040E944307182F17
:104410008091C5049091C6040E94E907111102C061
:104420000093C0041091C1048981803111F40C946F
:10443000E22BCE0101960E946D08811750F4809105
:10444000C1048093C1048091C4048F5F8093C4042D
:10445000A9CF8981803111F48CE0F3CFCE01019690
:104460000E946D08EECF61E086E00E94A20661E046
:1044700086E00E945606E091F103F091F20382E09B
:104480008083E091ED03F091EE031082E091EF0361
:10449000F091F00380E180831092F903E091F5033D
:1044A000F091F60386E08083E091F303F091F4034A
:1044B000808180618083E091F303F091F403808137
:1044C00088608083E091F303F091F4038081806839
:1044D0008083E091F303F091F40380818F7D8083EA
:1044E0000E94F80A60ED77E080E090E00E94F80614
:1044F0008091AA0381112AC0109292031092910315
:1045000088EE93E0A0E0B0E080939303909394034F
:10451000A0939503B09396038AE491E0909390035F
:1045200080938F0384E991E090939E0380939D0391
:1045300010929F031092A0031092A1031092A20365
:1045400084E08093A70381E08093AA038CE493E046
:104550009093B3038093B20380914B038111ADC05C
:1045600060E372E080E090E00E94F806DFB6F89425
:1045700007EE19E08BEFE82E89E0F82E80914903D1
:10458000811125C0F8018491F7019491E82FF0E0A2
:10459000EE0FFF1FE554FD4FA591B4918C91982328
:1045A00021F461E08AE00E94560661E08AE00E9400
:1045B000A2068CB580618CBD8CB580648CBD61E039
:1045C0008DE00E94A20661E08BE00E94A20680912D
:1045D00049038F5F80934903DFBEF8010491E02F08
:1045E000F0E0EE0FFF1FEF54FD4F859194919093F3
:1045F000480380934703F701E490E092460361E0AB
:104600008AE00E94A2060E94CA0880E591E00E940A
:104610002F0584E38093E00380E80E9496090E94BE
:10462000540D882309F4F5C088E00E9496090E9481
:10463000410D883009F0EDC080E10E9496090E948A
:10464000410D803109F0E5C080E00E9496090E948A
:10465000410D182F8111DDC041E050E0BE016F5FB8
:104660007F4F8FE190E00E94A60B8981833009F093
:10467000D0C080E480934A0342E06EE170E0812F75
:104680000E94F20942E06FE170E0812F0E94F2097E
:104690001F5F143089F740E06EE170E0812F0E94C7
:1046A000F20940E06FE170E0812F0E94F2091F5F84
:1046B000183089F781E080934B0380E591E00E94F8
:1046C0002F0546E050E060E071E089E090E00E9454
:1046D000E60884E991E09A8389831B821C821D820B
:1046E0001E82CE0103960E94960A8091B203909199
:1046F000B303DC0192961D921D921D921C92959718
:10470000FC0116A217A210A611A69A961D921D9240
:104710001D921C929D9740E65AEE60E070E046AB19
:1047200057AB60AF71AF40EA5FE060E070E0DA96EF
:104730004D935D936D937C93DD973E9624E1DF016D
:104740001D922A95E9F726E0E0E0F1E0DC011896F9
:1047500001900D922A95E1F7FC01EE5BFF4F10826C
:104760000E94A31D019709F0C1C080E591E00E945D
:104770002F050091B2031091B303B801625F7F4F20
:10478000CE0101960E94E714CE0103960E94960A7C
:10479000B8016A5E7F4FCE0101960E94E71444E0A3
:1047A00050E0BE016D5F7F4F81E090E00E94E6081F
:1047B000B8016E5E7F4FCE0101960E94E71444E07F
:1047C00050E0BE016D5F7F4F85E090E00E94E608FB
:1047D000B801625E7F4FCE0101960E94E7148B8183
:1047E0009C81AD81BE8180939E0490939F04A09391
:1047F000A004B093A1040E94D3067F7380910601A8
:10480000909107016827792770930701609306014B
:104810006DC087E38093E00380E80E9496090E94C0
:10482000540D882329F188E00E9496090E94410DC9
:104830008830F1F480E10E9496090E94410D182F02
:104840008031B1F480E00E9496090E94410D8111EF
:104850000FC041E050E0BE016F5F7F4F89E390E001
:104860000E94A60B8981843019F410934A0322CF49
:1048700083E38093E00380E80E9496090E94540D30
:10488000882391F180E10E9496090E94410D8031B8
:1048900059F582E10E9496090E94410D823121F56D
:1048A00080E00E9496090E94410D81111DC084E0A4
:1048B00080934A0315E525961FAF259741E050E008
:1048C000BE016C5B7F4F8BE190E00E94E60824966E
:1048D0001FAF249741E050E0BE016D5B7F4F8AE13E
:1048E00090E00E94E608E6CE1092E0038AEB94E0A6
:1048F0000E94341086EB91E00E94A3198CEB91E0AA
:104900000E94A31984E991E09A8389831B821C8207
:104910001D821E8280E591E00E942F0544E050E058
:10492000BE016D5F7F4F8FE090E00E94A60BCE012D
:1049300001960E949319CE0182960E94FC1BCE0123
:10494000C1960E94FC1B0E942B070091B803109196
:10495000B9032091BA033091BB03601B710B820B2A
:10496000930B603177428105910528F4012B022BCE
:10497000032B09F075C18CEB91E00E94A31984E927
:1049800091E09A8389831B821C821D821E8280E5AE
:1049900091E00E942F0544E050E0BE016D5F7F4F23
:1049A0008FE090E00E94A60BCE0101960E94931921
:1049B000E090B203F090B303E114F10409F4D3C022
:1049C0000E942B074B015C016701EEE3CE0ED11C68
:1049D000F60180819181A281B381A5019401281BF8
:1049E000390B4A0B5B0BCA01B901683E33E0730710
:1049F00081059105B8F128EE33E040E050E00E94D7
:104A00002C32861A970AA80AB90AD6018D929D926D
:104A1000AD92BC921397F70186A597A5A0A9B1A95D
:104A200049015A01880C991CAA1CBB1C88159905C0
:104A3000AA05BB0508F049C1D7019E961D921D929B
:104A40001D921C92D197F70182A993A9A4A9B5A997
:104A500088159905AA05BB0508F041C112AA13AA39
:104A600014AA15AAF70186A597A5A0A9B1A9892B13
:104A70008A2B8B2B09F03CC1EE5BFF4F808183308A
:104A800009F036C184E08083C7010E94A31D01960E
:104A9000D701D2964D915D916D917C91D597452B23
:104AA000462B472BA1F4F701EE5BFF4F208123300B
:104AB00011F021110CC01082F7013E9684E1DF0154
:104AC0001D928A95E9F7C7010E94A31D03968230C3
:104AD000910519F0049709F046C080E591E00E9425
:104AE0002F05E090B203F090B303B701625F7F4FF0
:104AF000CE0101960E94E714CE0103960E94960A09
:104B0000B7016A5E7F4FCE0101960E94E71444E030
:104B100050E0BE016D5F7F4F81E090E00E94E608AB
:104B2000B7016E5E7F4FCE0101960E94E71444E00C
:104B300050E0BE016D5F7F4F85E090E00E94E60887
:104B4000B701625E7F4FCE0101960E94E7148B8110
:104B50009C81AD81BE8180939E0490939F04A0931D
:104B6000A004B093A1040E942B076093B803709334
:104B7000B9038093BA039093BB03E091C504F0910D
:104B8000C60413861586148612861186108617822F
:104B90001682158214821382BE016E5D7F4F809152
:104BA000C5049091C6040E94280B8111A4C060E046
:104BB00070E08EEF92EC6093B4037093B503809332
:104BC000B6039093B7036AE0CE0182960E94281F35
:104BD00064E6CE0101960E94281F8AA19BA1812C28
:104BE000912C5401009721F00E94AE2C4B015C01E6
:104BF00089819A81C12CD12C7601009721F00E94E5
:104C0000AE2C6B017C012091B4033091B50340912F
:104C1000B6035091B703C501B4010E945D324B0148
:104C20005C01A70196010E94F93218160CF0C3C06E
:104C300083ED91E00E94A31968ED71E084EB94E0AC
:104C40000E94A81B60E086E00E9456060E94F80AB7
:104C5000CE0101960E94FC1BCE0182960E94FC1B95
:104C60006AEB74E0CE0182960E9456128EA58430C3
:104C700008F09BC5CE0182960E94B50C882309F4EA
:104C800094C5CE0182960E942613892B99F32DB6E6
:104C90003EB668EA71E0CE01CD960E946D1BCE0152
:104CA00082960E94601497FD9CC08A30910509F499
:104CB00098C089831A8241E050E0BE016F5F7F4F48
:104CC000CE01CD960E942F1BEACF821B930BA40B23
:104CD000B50BF70186A797A7A0ABB1ABB4CE821BEB
:104CE000930BA40BB50B82AB93ABA4ABB5ABBACE15
:104CF00090E080E0CDCE67E0CE0182960E9437073B
:104D000099A5891354CF8091C5049091C6040E943F
:104D1000E907882309F44BCFBE016F5F7F4FCE01B7
:104D200082960E942108882309F441CF68E0CE01D1
:104D300001960E9437079985891339CF6A8170E0FF
:104D4000762F6627770F770F770F2981B8E02B9F93
:104D500090011124262B372B8AA18031D1F468854C
:104D600070E08F81FB01E81BF109CF019695982F28
:104D70008827979587950E940333CB014097B90107
:104D800053E0660F771F5A95E1F760789C01260F74
:104D9000371F2138F4EE3F070CF409CFB901330F68
:104DA000880B990B0E948D3020E030E040E05CE3FE
:104DB0000E94EC3000CFC701B6019058A5019401C4
:104DC0000E94F93218160CF041CF8CED91E00E9450
:104DD000A31961EE71E084EB94E00E94A81B61E0EE
:104DE00032CF2396EEACFFAC2397C70101962DB7C7
:104DF0003EB7281B390B0FB6F8943EBF0FBE2DBF30
:104E00004DB75EB74F5F5F4F6A01E114F10469F07F
:104E100051E0E51AF1086DAD7EADA701C6010E9413
:104E20005535F601EE0DFF1D108266E771E0C601F3
:104E30000E94B22C66E771E090E080E00E94B22C04
:104E40007C01BC01CE0101960E946D1B65EE71E0F4
:104E5000CE0101960E94EA1A182FCE0101960E94F7
:104E6000FC1B112309F4C1C20E942B0720E03CE582
:104E700046E255E00E942C3229962CAF3DAF4EAF52
:104E80005FAF29970E942B0720E03CE546E255E002
:104E90000E942C3220E83EEE46E350E00E942C3285
:104EA0002D962CAF3DAF4EAF5FAF2D970E942B07D5
:104EB00020E03CE546E255E00E942C3220E83EEE40
:104EC00046E350E00E942C3220E63AEE40E050E00B
:104ED0000E942C3261962CAF3DAF4EAF5FAF619711
:104EE0000E942B0720E03CE546E255E00E942C3270
:104EF00020E83EEE46E350E00E942C3220E63AEEF7
:104F000040E050E00E942C3228EE33E040E050E0D8
:104F10000E942C3249015A0163EC79E0CE0182965D
:104F20000E94CA196BEA79E0CE0182960E94CA19E2
:104F3000CE0182960E948F196BE979E0CE018296AC
:104F40000E94CA1964E979E0CE0182960E94CA19CA
:104F50006DE879E0CE0182960E94CA1966E779E091
:104F6000CE0182960E94CA1966E479E0CE0182964B
:104F70000E94CA196AE179E0CE0182960E94CA199C
:104F800065ED78E0CE0182960E94CA1960E778E06C
:104F9000CE0182960E94CA1960E578E0CE01829621
:104FA0000E94CA196DE378E0CE0182960E94CA1968
:104FB00061E178E0CE0182960E94CA196EEF77E037
:104FC000CE0182960E94CA1960EE77E0CE018296E9
:104FD0000E94CA1960EA77E0CE0182960E94CA193F
:104FE00067E977E0CE0182960E94CA1962E477E011
:104FF000CE0182960E94CA1960E477E0CE018296C3
:105000000E94CA1961E377E0CE0182960E94CA1914
:1050100067E277E0CE0182960E94CA196DE177E0DF
:10502000CE0182960E94CA196AEE76E0CE0182967F
:105030000E94CA1962EE76E0CE0182960E94CA19D9
:105040006BED76E0CE0182960E94CA1961E976E0A6
:10505000CE0182960E94CA1967E676E0CE0182965A
:105060000E94CA196AE0CE0101960E94281F67EECD
:1050700071E0CE01C1960E946D1BBE016F5F7F4F34
:10508000CE01C1960E94E91B68E572E00E94D31B25
:10509000BC01CE0182960E94B819CE01C1960E9431
:1050A000FC1BCE0101960E94FC1B64E6CE0101961A
:1050B0000E94281F6EE572E0CE01C1960E946D1B12
:1050C000BE016F5F7F4FCE01C1960E94E91B68E56C
:1050D00072E00E94D31BBC01CE0182960E94B819D7
:1050E000CE01C1960E94FC1BCE0101960E94FC1BC2
:1050F00067E276E0CE0182960E94CA196BE176E003
:10510000CE0182960E94CA1968ED71E084EB94E0AA
:105110000E94EA1A882331F067EE75E0CE0182968C
:105120000E94CA1961EE71E084EB94E00E94EA1AD1
:10513000882331F065EB75E0CE0182960E94CA1992
:105140006AE975E0CE0182960E94CA196FE675E0A1
:10515000CE0182960E945C0AC090B403D090B50341
:10516000E090B603F090B703A7019601C701B6011E
:105170000E94FE3267EC72E081111BC026013701EC
:10518000E89477F82FEF3FEF4FE75FE7C301B201F5
:105190000E94FE328111ABC02FEF3FEF4FE75FE778
:1051A000C301B2010E94863018160CF0A0C06BEC4F
:1051B00072E0CE0182960E94EA186AE675E0CE019E
:1051C00082960E94CA1965E675E0CE0182960E9419
:1051D0005C0A65E575E0CE0182960E945C0A2AE0D1
:1051E00029964CAD5DAD6EAD7FAD2997CE0182960F
:1051F0000E94F91863E575E0CE0182960E945C0A70
:1052000061E575E0CE0182960E945C0A2AE02D9647
:105210004CAD5DAD6EAD7FAD2D97CE0182960E94F7
:10522000F9186FE475E0CE0182960E945C0A6DE485
:1052300075E0CE0182960E945C0A2AE061964CAD30
:105240005DAD6EAD7FAD6197CE0182960E94F9187B
:105250006BE475E0CE0182960E945C0A69E475E019
:10526000CE0182960E945C0A2AE0B501A401CE011B
:1052700082960E94F91867E475E0CE0182960E943A
:105280005C0A6AED74E0CE0182960E94CA1969EA4E
:1052900074E0CE0182960E94CA196FE974E0CE01D3
:1052A00082960E94CA1967E974E0CE0182960E9434
:1052B000CA196FE874E0CE0182960E94CA1961E0B3
:1052C00070E080E090E00E94F806CE0182960E9495
:1052D000D70CCE0182960E943311CE01CD960E944A
:1052E000FC1B0FB6F8943EBE0FBE2DBEC3CC2FEFF5
:1052F0003FEF4FE75FE4C701B6010E94F93218168D
:105300001CF46FEC72E055CF2FEF3FEF4FE75FECEF
:10531000C701B6010E94863087FDF3CF20E030E060
:10532000A901C701B6010E94863087FF09C06DE25E
:10533000CE0182960E94460AF7FAF094F7F8F094AC
:105340002AE037ED43EA5BE3C701B6010E945E3213
:105350002B013C010E94CA326B017C010E948B3000
:105360009B01AC01C301B2010E945D322B013C01E3
:105370002AE0B701A601CE0182960E94F9186EE2DA
:10538000CE0182960E94460A20E030E040E251E4DD
:10539000C301B2010E94EC302B013C010E94CA32D1
:1053A0006B01F12CE12C2AE0B701A601CE01829617
:1053B0000E94F918C701B6010E948B309B01AC0115
:1053C000C301B2010E945D3220E030E040E251E4CE
:1053D0000E94EC300E94CA32AB0170E060E02AE02B
:1053E000CE0182960E94F918E8CEB701CE0101964F
:1053F0000E946D1B63ED72E0CE0101960E94EA1AD5
:10540000182FCE0101960E94FC1B112309F483C0C2
:105410006FE774E0CE0182960E94CA1960E674E0DC
:10542000CE0182960E94CA19CE0182960E948F19DF
:105430006EE574E0CE0182960E94CA1960E574E0C0
:10544000CE0182960E945C0A64E6CE0101960E941B
:10545000281FBE016F5F7F4FCE0182960E94C3114D
:10546000CE0101960E94FC1B6EE474E0CE01829690
:105470000E94CA1968E374E0CE0182960E945C0A19
:105480006AE0CE0101960E94281FBE016F5F7F4F28
:10549000CE0182960E94C311CE0101960E94FC1B90
:1054A00066E374E0CE0182960E94CA1960E274E05D
:1054B000CE0182960E945C0A6091B4037091B5039C
:1054C0008091B6039091B7031AAA19AA1CAA1BAA25
:1054D0001EAA1DAA8E010F5F1F4F22E044E00E940A
:1054E000EC2B009799F0BC01CE01C1960E94A81B3D
:1054F000BE016F5C7F4FCE0182960E94B819CE012B
:10550000C1960E94FC1B6EE174E0D5CECE01C1961F
:105510000E945B1BEDCFB701CE0101960E946D1B6F
:1055200062EE72E0CE0101960E94EA1A182FCE01B7
:1055300001960E94FC1B112329F0CE0182960E9445
:10554000D70CCBCEB701CE01C7960E946D1B6FEE74
:1055500072E0CE0101960E946D1B4D815E818BAD84
:105560009CAD8417950778F08FA998AD009759F0F6
:1055700069817A816115710531F00E94473511E02A
:10558000892B09F010E0CE0101960E94FC1B11232B
:1055900009F400C164E771E0C7010E94B22C0E94C7
:1055A000A31964E771E090E080E00E94B22C62E70A
:1055B00071E00E94B22C6C0162E771E090E080E043
:1055C0000E94B22C7C0160E771E0C6010E94B22CFF
:1055D00060E771E090E080E00E94B22C6C0160E72F
:1055E00071E0C7010E94B22C60E771E090E080E0BA
:1055F0000E94B22C7C01B601CE0101960E946D1B67
:10560000BE016F5F7F4F8AE00E94711FCE0101963D
:105610000E94FC1BB701CE0101960E946D1BBE01CA
:105620006F5F7F4F84E60E94711FCE0101960E943A
:10563000FC1B6EE074E0CE0182960E94CA1966EFF0
:1056400073E0CE0182960E94CA19CE0182960E9412
:105650008F1966EE73E0CE0182960E94CA196FED33
:1056600073E0CE0182960E94CA1968ED73E0CE0104
:1056700082960E94CA1961EC73E0CE0182960E9464
:10568000CA1960E973E0CE0182960E94CA196DE5DD
:1056900073E0CE0182960E94CA1965E573E0CE01DF
:1056A00082960E94CA196EE473E0CE0182960E942F
:1056B000CA196CE173E0CE0182960E94CA19B60144
:1056C000CE0101960E946D1B6CEF72E0CE01C19677
:1056D0000E946D1BBE016F5F7F4FCE01C1960E947D
:1056E000E91B6EE173E00E94D31BBC01CE018296E0
:1056F0000E94B819CE01C1960E94FC1BCE010196F2
:105700000E94FC1BB701CE0101960E946D1B64E252
:1057100073E0CE01C1960E946D1BBE016F5F7F4F8B
:10572000CE01C1960E94E91B6EE173E00E94D31B7B
:10573000BC01CE0182960E94B819CE01C1960E948A
:10574000FC1BCE0101960E94FC1B6CEE72E0CE01A8
:1057500082960E94CA1964EE72E0CE0182960E947F
:10576000CA196CED72E0CE0182960E94CA1961E0FE
:1057700070E080E090E00E94F806CE0182960E94E0
:10578000D70CCE0182960E943311CE01C7960E949B
:10579000FC1BA3CD65EC72E0CE0182960E94CA1973
:1057A000CE0182960E948F19E2CF80E090E0892B93
:1057B00009F4C9C80E94B305882309F4C4C80E942B
:1057C0000000C1C81D3010F00C941F220C942C2234
:1057D00084EB94E00C94FC1BEF920F931F93CF93F8
:1057E000DF93E80134E047FD34E1042E000C550B53
:1057F00057FF03C0519541955109E32E022F242FE5
:10580000AE010E94DE2CCE01DF91CF911F910F914E
:10581000EF9008958F929F92AF92BF92CF92DF92B6
:10582000EF92FF92CF93DF93EC01688179818A81B7
:105830009B81611571058105910521F464E279ED83
:105840008BE597E02DE133EF41E050E00E94C3315A
:1058500049015A019B01AC01A7EAB1E40E94E2317F
:105860006B017C01ACEEB4EFA50194010E94F03114
:10587000C60ED71EE81EF91EF7FE06C081E0C81A44
:10588000D108E10880E8F80AC882D982EA82FB825E
:10589000C701B6019F77DF91CF91FF90EF90DF9026
:1058A000CF90BF90AF909F908F9008958F929F92CE
:1058B000AF92BF92CF92DF92EF92FF926091080178
:1058C0007091090180910A0190910B016115710598
:1058D0008105910521F464E279ED8BE597E02DE1F6
:1058E00033EF41E050E00E94C33149015A019B016E
:1058F000AC01A7EAB1E40E94E2316B017C01ACEE9D
:10590000B4EFA50194010E94F031C60ED71EE81E27
:10591000F91EF7FE06C081E0C81AD108E10880E848
:10592000F80AC0920801D0920901E0920A01F092AF
:105930000B01C701B6019F77FF90EF90DF90CF90EA
:10594000BF90AF909F908F900895609308017093DF
:10595000090180930A0190930B0108956627772728
:105960000C943D2E47EE54E00E94B72C0895FA01A6
:10597000A191B081009719F41097E1F0CD01DC01FD
:10598000CD010D90002011F4C00113C0FB01219145
:10599000222319F02015D9F7F3CFFB01219120150F
:1059A00019F41E92119606C02223C1F70D90002013
:1059B000A1F7D001FA01A193B0830895A9E0B0E066
:1059C000E4EEFCE20C94FB316A01F22EB02E102FB3
:1059D000FBE3AF2EA01608F41BE31F5F012F27E0A7
:1059E000AE014F5F5F4F0E948D2FBC018981982FC0
:1059F0009970913009F43FC09BE2E1FC04C09E2DF8
:105A00009170E0FC3AC05E2D5071E82FE87083FF82
:105A100046C084E0911101C083E0EF2DE81B8F1593
:105A200008F0E0E0D6018E2F20E2552351F19923B2
:105A300029F0D6019C93C60101966C0196012D5F59
:105A40003F4FE2FE24C08EE4D6018C9391E4119680
:105A50009C93119712968C93D9018E2F90E281110D
:105A60001BC0E20FF32FF11D10828EEF9FEF2996DE
:105A7000ECE00C9417329DE2C6CF90E2C4CF2D9398
:105A800081508111FCCFCE0ED11CE0E0D0CF8EE64C
:105A9000D6018C9391E6DBCF9D938150E0CF482FC8
:105AA000447082FF3DC084E0911101C083E08F15F6
:105AB00010F4EF2DE81BD6018E2F20E2552309F1BB
:105AC000992329F0D6019C93C60101966C01960199
:105AD0002D5F3F4FE2FE1BC089E4D6018C938EE41C
