:100000000C94E4040C940C050C940C050C940C0555
:100010000C940C050C940C050C940C050C940C051C
:100020000C940C050C940C050C940C050C940C050C
:100030000C940C050C940C050C940C050C940C05FC
:100040000C94601A0C940C050C942E1A0C94081A3B
:100050000C940C050C940C050C940C050C940C05DC
:100060000C940C050C940C054E414E494E495459C4
:10007000494E46CDCCCC3D0AD7233C17B7D1387773
:10008000CC2B329595E6241FB14F0A000020410089
:1000900000C84200401C4620BCBE4CCA1B0E5AAED3
:1000A000C59D7400407A10F35A00A0724E180900E2
:1000B00010A5D4E80000E87648170000E40B5402CD
:1000C0000000CA9A3B000000E1F505000080969808
:1000D00000000040420F000000A086010000001058
:1000E0002700000000E8030000000064000000009A
:1000F000000A00000000000100000000002C76D87B
:1001000088DC674F0823DFC1DFAE59E1B1B796E560
:10011000E3E453C63AE651997696E8E6C28426EBC4
:10012000898C9B62ED407C6FFCEFBC9C9F40F2BAD7
:10013000A56FA5F490055A2AF75C936B6CF9676D6F
:10014000C11BFCE0E40D47FEF520E6B500D0ED90C4
:100150002E0300943577050080841E080000204E91
:100160000A000000C80C333333330F986E1283112A
:1001700041EF8D2114893BE65516CFFEE6DB18D101
:10018000844B381BF77C1D901DA4BBE424203284D3
:10019000725E228100C9F124ECA1E53D27005EBC1E
:1001A000E2613FDD83C29C7E20A3FD1F419DC321F0
:1001B0007FFCA2401E5F01E3BD3E6082DC237D9F89
:1001C000C1421CFEA0E1BF5D0380DE3C62BEE002D6
:1001D0005CDF81633D7C22C09E1D43A1FF4618FA6F
:1001E000A427799BC584DA3866E5BB5907DB8567A8
:1001F00039BAE406581947A5FB7826C49A653BD955
:1002000087045AB8E6A7F91B45C6987A24F8A6448D
:100210001A99C7257B3A6486D85B05E7B98CD2303A
:100220006EEDB3510F4E10F2AC2F7193CD114FAD57
:10023000F3702ECC92D38D6F31B2EC0E50AFF11320
:100240004DCE90722C6D33D18F0C52B0EE326C8E3D
:10025000D0530DEFB1F0AE4C1291CF2D73CA9476FE
:1002600028ABF517490856B4EA6937D58B5709EB1F
:10027000B536688AD495CB2977F4AA4816E9B755DC
:100280000B88D6346A2B7597C94A14F6A8742AC805
:1002900096154BA9F7B6E80A54D7896B35000000CC
:1002A00000250028002B00000000080002010000CB
:1002B000030407000000000000000000000000240C
:1002C0000027002A003C2F68746D6C3E003C2F62B2
:1002D0006F64793E003C623E507265736D65726F6B
:1002E00076616E69652E2E2E2050726F73696D20B7
:1002F00063616B616A74653C2F623E3C2F63656E7F
:100300007465723E003C63656E7465723E3C683392
:100310003E536572766572207072696A616C206402
:10032000617461207A20666F726D756CC3A1726111
:100330003A3C2F68333E003C626F64793E003C2FAC
:10034000686561643E003C7469746C653E48545451
:100350005020776562736572766572202D20417238
:100360006475696E6F202B2045746865726E6574C4
:100370003C2F7469746C653E003C6D657461206847
:100380007474702D65717569763D27526566726566
:1003900073682720636F6E74656E743D27353B204C
:1003A00075726C3D2F27202F3E003C6D65746120D7
:1003B000636861727365743D277574662D38273ED6
:1003C000003C686561643E003C68746D6C3E003CB6
:1003D00021444F43545950452068746D6C3E00438E
:1003E0006F6E74656E742D547970653A20746578FB
:1003F000742F68746D6C00485454502F312E312086
:10040000323030204F4B007D002241637475616CA7
:100410005F54656D7065726174757265223A002C67
:1004200000225461726765745F54656D7065726116
:1004300074757265223A002C0022487973746572D3
:1004400065736973223A007B00436F6E74656E7446
:100450002D547970653A20746578742F68746D6CCA
:1004600000485454502F312E3120323030204F4B21
:10047000003C2F68746D6C3E003C2F626F64793EC7
:10048000003C2F63656E7465723E003C68343E56D6
:1004900065727A69612066726565202D20312E3083
:1004A0002E31206275696C643A2030322E205365FB
:1004B0007020323032303C2F68343E003C68333E8E
:1004C0004175746F723A204D617274696E20436891
:1004D0006C65626F766563202D206D617274696E44
:1004E000697573393640676D61696C2E636F6D2075
:1004F0002D2068747470733A2F2F6D617274696E59
:1005000069757339362E6769746875622E696F2F45
:100510007465726D6F737461742D65746865726E45
:1005200065742F3C2F68333E0020C2B043003C620C
:100530003E416B7475C3A16C6E61207465706C6F05
:1005400074612073656E7A6F726120445331384252
:1005500032303A3C2F623E20003C64697620696468
:100560003D22636F756E74646F776E223E3C2F641C
:1005700069763E003C623E3C666F6E7420636F6C31
:100580006F723D27726564273E56C3BD73747570E4
:100590003A205679706E7574C3BD3C2F666F6E74C9
:1005A0003E3C2F623E003C623E3C666F6E742063B0
:1005B0006F6C6F723D27677265656E273E56C3BDCF
:1005C000737475703A205A61706E7574C3BD3C2F98
:1005D000666F6E743E3C2F623E003C2F666F726DFC
:1005E0003E3C68723E003C696E7075742074797090
:1005F000653D277375626D69742720636C61737341
:100600003D2762746E2062746E2D7375636365732B
:1006100073272076616C75653D275A6170C3AD7391
:1006200061C5A5273E003C666F726D2061637469E9
:100630006F6E3D272F616374696F6E2E68746D6CE9
:1006400027206D6574686F643D27676574273E00D9
:100650003C63656E7465723E3C68333E5A6164610A
:100660006A74652064C3A174612070726520776527
:10067000627365727665722028627564C3BA2075EC
:100680006C6FC5BE656EC3A920646F20454550528E
:100690004F4D293A3C2F68333E003C626F64793EEF
:1006A000003C2F686561643E003C7469746C653E73
:1006B0004854545020776562736572766572202DB8
:1006C0002041726475696E6F202B204574686572D5
:1006D0006E65743C2F7469746C653E003C2F7363C7
:1006E000726970743E007D2C2031303030293B001F
:1006F00074696D656C656674202D3D20313B007D0D
:1007000000646F63756D656E742E676574456C6506
:100710006D656E74427949642822636F756E7464E6
:100720006F776E22292E696E6E657248544D4C208B
:100730003D2074696D656C656674202B20222073E2
:10074000656BC3BA6E6420646F207265C5A1746165
:10075000727475223B007D20656C7365207B00649C
:100760006F63756D656E742E676574456C656D6538
:100770006E74427949642822636F756E74646F7772
:100780006E22292E696E6E657248544D4C203D20B4
:10079000225265C5A1746172742E2E2E223B006315
:1007A0006C656172496E74657276616C28646F77EE
:1007B0006E6C6F616454696D6572293B00696628CF
:1007C00074696D656C656674203C3D2030297B0042
:1007D00076617220646F776E6C6F616454696D65C9
:1007E00072203D20736574496E74657276616C2861
:1007F00066756E6374696F6E28297B00766172205E
:1008000074696D656C656674203D2031303B003C39
:1008100073637269707420747970653D27746578AC
:10082000742F6A617661736372697074273E003C4D
:100830006C696E6B2072656C3D277374796C65739F
:10084000686565742720687265663D2768747470F2
:10085000733A2F2F6D617863646E2E626F6F7473BD
:100860007472617063646E2E636F6D2F626F6F744C
:1008700073747261702F332E342E312F6373732F84
:10088000626F6F7473747261702E6D696E2E637314
:1008900073273E003C6D657461206E616D653D2778
:1008A00076696577706F72742720636F6E74656EFA
:1008B000743D2777696474683D6465766963652D66
:1008C00077696474682C20696E697469616C2D7332
:1008D00063616C653D31273E003C6D657461206845
:1008E0007474702D65717569763D27526566726501
:1008F00073682720636F6E74656E743D27313027EF
:100900003B202F3E003C6D657461206E616D653D3E
:1009100027617574686F722720636F6E74656E74DB
:100920003D274D617274696E2043686C65626F7615
:100930006563273E003C6D65746120636861727376
:1009400065743D277574662D38273E003C686561E7
:10095000643E003C68746D6C3E003C21444F43543F
:100960005950452068746D6C3E00436F6E74656E1F
:10097000742D547970653A20746578742F68746D9D
:100980006C00485454502F312E3120323030204FDB
:100990004B0000000000230026002900040404048A
:1009A0000404040402020202020203030303030319
:1009B00001020408102040800102040810200102F6
:1009C00004081020AA1A812511241FBECFEFD8E0F9
:1009D000DEBFCDBF13E0A0E0B1E0E0E1FEE502C084
:1009E00005900D92A032B107D9F724E0A0E2B3E060
:1009F00001C01D92A735B207E1F714E0C3EED4E0C1
:100A000004C02197FE010E94CB2CC23ED107C9F73A
:100A10000E94851B0C94FB2E0C940000089520E38B
:100A2000FC0120833296862F82958F706F706A301A
:100A300030F4605D6293682F8111F5CF0895695C91
:100A4000F9CF089521E0FC018485883009F420E085
:100A5000822F0895AF92BF92CF92DF92EF92FF92D2
:100A60000F931F93CF93DF936C017B018B01040FD6
:100A7000151FEB015E01AE18BF08C017D10759F072
:100A80006991D601ED91FC910190F081E02DC601B4
:100A90000995892B79F7C501DF91CF911F910F91AE
:100AA000FF90EF90DF90CF90BF90AF900895FC0142
:100AB000538D448D252F30E0842F90E0821B930BC3
:100AC000541710F0CF96089501970895FC01918D69
:100AD000828D981761F0A28DAE0FBF2FB11D5D966C
:100AE0008C91928D9F5F9F73928F90E008958FEF0E
:100AF0009FEF0895FC01918D828D981731F0828DC2
:100B0000E80FF11D858D90E008958FEF9FEF089518
:100B1000FC01918D228D892F90E0805C9F4F821B7C
:100B200091098F739927089586E493E00E948805C0
:100B300021E0892B09F420E0822F089580E090E0E5
:100B4000892B29F00E94940581110C9400000895CE
:100B5000FC01A48DA80FB92FB11DA35ABF4F2C9132
:100B6000848D90E001968F739927848FA689B78929
:100B70002C93A089B1898C91837080648C93938D20
:100B8000848D981306C00288F389E02D80818F7DC3
:100B900080830895EF92FF920F931F93CF93DF937B
:100BA000EC0181E0888F9B8D8C8D98131AC0E889A9
:100BB000F989808185FF15C09FB7F894EE89FF8978
:100BC0006083E889F98980818370806480839FBF16
:100BD00081E090E0DF91CF911F910F91FF90EF9016
:100BE0000895F62E0B8D10E00F5F1F4F0F73112726
:100BF000E02E8C8D8E110CC00FB607FCFACFE88961
:100C0000F989808185FFF5CFCE010E94A805F1CF3B
:100C1000EB8DEC0FFD2FF11DE35AFF4FF0829FB7D4
:100C2000F8940B8FEA89FB8980818062CFCFCF93C4
:100C3000DF93EC01888D8823B9F0AA89BB89E88904
:100C4000F9898C9185FD03C0808186FD0DC00FB6AA
:100C500007FCF7CF8C9185FFF2CF808185FFEDCF28
:100C6000CE010E94A805E9CFDF91CF91089590E0D1
:100C7000FC01E955FD4F2491FC01E055F64F3491FC
:100C8000FC01E456F64FE491EE23C9F0222339F03B
:100C9000233001F1A8F4213019F1223029F1F0E0DC
:100CA000EE0FFF1FE356FD4FA591B4918FB7F89457
:100CB000EC91611126C030953E233C938FBF08957F
:100CC0002730A9F02830C9F0243049F780918000FE
:100CD0008F7D03C0809180008F7780938000DFCF6D
:100CE00084B58F7784BDDBCF84B58F7DFBCF8091BA
:100CF000B0008F778093B000D2CF8091B0008F7D0D
:100D0000F9CF3E2BDACFCF93DF9390E0FC01E05593
:100D1000F64F24918456964FFC0184918823D1F09C
:100D200090E0880F991FFC01E554FD4FA591B49107
:100D3000FC01E356FD4FC591D49161110EC09FB7E0
:100D4000F8948C91E22FE0958E238C932881E223F6
:100D5000E8839FBFDF91CF9108958FB7F894EC910E
:100D6000E22BEC938FBFF6CF3FB7F8948091260328
:100D700090912703A0912803B091290326B5A89B41
:100D800005C02F3F19F00196A11DB11D3FBFBA2F1D
:100D9000A92F982F8827BC01CD01620F711D811DDD
:100DA000911D42E0660F771F881F991F4A95D1F762
:100DB00008958F929F92AF92BF92CF92DF92EF925F
:100DC000FF926B017C010E94B4064B015C01C114CF
:100DD000D104E104F104B9F00E94B406681979095C
:100DE0008A099B09683E73408105910580F321E0E3
:100DF000C21AD108E108F10888EE880E83E0981E37
:100E0000A11CB11CE4CFFF90EF90DF90CF90BF907A
:100E1000AF909F908F9008952FB7F8946091220320
:100E20007091230380912403909125032FBF08958F
:100E3000DC0180E0615038F0ED91E827F0E0E35606
:100E4000FE4F8491F7CF0895DC012C911196ED911E
:100E5000FC91F8948181822B81839281322F30958D
:100E60009323928387E090E00197F1F781818323B8
:100E7000818383E290E00197F1F790817894EFEC21
:100E8000F0E03197F1F7922381E009F480E00895D2
:100E9000FC0190810180F281E02D292F209560FFD7
:100EA00014C0F8948281822382838181892B81837B
:100EB000A3E2B0E01197F1F78281982B92837894A6
:100EC00087ED90E00197F1F70895F89482818223ED
:100ED00082838181892B8183AFEFB0E01197F1F795
:100EE0008281982B928378948FE090E0EBCFDF9211
:100EF000EF92FF920F931F93CF93DF93EC01D62EC7
:100F0000E42E08E010E0FF24F39461E08D2D8F21A2
:100F100009F460E0CE010E944807FF0C015011095E
:100F2000A1F7E11010C0F894E981FA8191818881DC
:100F3000809589238183E981FA81928188818095D6
:100F4000892382837894DF91CF911F910F91FF9035
:100F5000EF90DF900895EF92FF920F931F93CF933E
:100F6000DF938C017B0140E065E50E947707E70194
:100F700088E0E80EF11C699140E0C8010E94770703
:100F8000CE15DF05C1F7DF91CF911F910F91FF9033
:100F9000EF900895FC0190810180F281E02DF8949A
:100FA0008181292F20958223818378943DE743E036
:100FB00050E0315029F1DA011197F1F7808189234E
:100FC000C1F3F8948281822382838181892B81837A
:100FD0007894ABE7B7E01197F1F7F8948181822319
:100FE0008183A3E1B1E01197F1F78081982381E03B
:100FF00009F080E07894E3E6F6E03197F1F70895A0
:1010000080E00895AF92BF92CF92DF92EF92FF926D
:101010000F931F93CF93DF938B01BC0180912D041D
:1010200090912E040E94AB0740E06EEB80912D045E
:1010300090912E040E947707E801680189E0C80EAC
:10104000D11CA0902D04B0902E0488E0E82EF12C45
:1010500010E001E0C5010E9424078111102B000F50
:1010600081E0E81AF108B1F71993CC16DD0649F7CB
:1010700080912D0490912E040E94CA0791E0813046
:1010800009F090E0892FDF91CF911F910F91FF9090
:10109000EF90DF90CF90BF90AF9008950F931F9384
:1010A000CF93DF93CDB7DEB729970FB6F894DEBFA5
:1010B0000FBECDBF8C0180912D0490912E040E9413
:1010C000CA07811102C080E01FC0BE016F5F7F4F61
:1010D000C8010E9402088823B1F368E0CE0101969E
:1010E0000E94180799858913EECF8D818F33B9F04F
:1010F00020F48F3141F789E007C08F3521F08F3719
:1011000011F78CE001C08BE029960FB6F894DEBF92
:101110000FBECDBFDF91CF911F910F9108958AE04F
:10112000F3CF61E080912B030C94370660E080914F
:101130002B030C94370608958EBD00000DB407FEF6
:10114000FDCF8EB508958CBD9DBD0895DF92EF92C1
:10115000FF920F931F93CF93DF93D82FD92EC62FD3
:101160007A0189018091E3039091E4030E94A3082E
:101170000E9496088D2D0E949C088D2F0E949C082D
:101180008C2F0E949C08E701E00EF11E80E00E9477
:101190009C088993EC16FD06C9F70E949108C801C6
:1011A000DF91CF911F910F91FF90EF90DF90089505
:1011B000CF93DF93D82FC62F8091E3039091E40360
:1011C0000E94A3080E94960880E00E949C088D2F30
:1011D0000E949C088C2F0E949C0880E00E949C0822
:1011E000C82F0E9491088C2FDF91CF910895DF9234
:1011F000EF92FF920F931F93CF93DF93D82FD92EA7
:10120000C62F7A0189018091E3039091E4030E9443
:10121000A3080E9496088D2D0E949C088D2F0E9485
:101220009C088C2F0E949C08E701E00EF11ECE1551
:10123000DF0521F089910E949C08F9CF0E94910856
:10124000C801DF91CF911F910F91FF90EF90DF9038
:1012500008951F93CF93DF93182FD62FC42F80911B
:10126000E3039091E4030E94A3080E94960880E0A3
:101270000E949C08812F0E949C088D2F0E949C0830
:101280008C2F0E949C080E94910881E0DF91CF91F1
:101290001F9108959B018295880F807E6CE0680FF6
:1012A000C9010C942909CF93DF93EC01898D9A8DA4
:1012B000892B41F0E881F9810284F385E02DCE018C
:1012C0000995F4CFDF91CF910895CF93DF931F92CB
:1012D000CDB7DEB76983DC01ED91FC910280F3812B
:1012E000E02D41E050E0BE016F5F7F4F09950F9008
:1012F000DF91CF9108951F93CF93DF93FB01DC0122
:1013000058961C921E9257972281211109C0238161
:10131000211106C02481211103C02581222339F126
:101320004115510521F1EA01DC011C961C91AF0128
:101330004E5F5F4F612F6295660F607E645F24E0B1
:1013400030E08CE090E00E94F7084D2F60E170E003
:10135000812F0E944A094C2F61E170E0812F0E9489
:101360004A0981E090E0DF91CF911F91089590E0CC
:1013700080E0F9CFFC01818D928D0895FC01858973
:10138000968908952EE831E0FC0131832083FB012A
:101390004189528963897489FC0142835383648340
:1013A0007583089580E00895CF93DF931F92CDB7A2
:1013B000DEB76983DC01ED91FC910280F381E02DC1
:1013C00041E050E0BE016F5F7F4F09950F90DF91C4
:1013D000CF9108950895FC019485FB0184859813AD
:1013E00003C081E0983009F480E00895CF93DF9343
:1013F0001F92CDB7DEB76983DC01ED91FC910280CD
:10140000F381E02D41E050E0BE016F5F7F4F099511
:101410000F90DF91CF910895EF92FF920F931F935A
:10142000CF93DF938C017B01D0E0C0E0F701EC0F9C
:10143000FD1F6491662339F0C8010E94F609892BCB
:1014400011F02196F3CFCE01DF91CF911F910F9133
:10145000FF90EF900895DC01ED91FC91028CF38DEB
:10146000E02D099591E0892708959B018295880FC9
:10147000807E68E0680FC9010C94D808CF93C82F0C
:10148000462F61E070E00E944A0961E070E08C2F15
:101490000E94350A8111F9CFCF910895CF93C82FBB
:1014A00060E170E00E943E0A4FEF62E070E08C2F36
:1014B000CF910C944A090F931F93CF93DF93C82FBA
:1014C000D62F8A010E944E0A4D2F70E060E08C2FCB
:1014D0000E944A0901151105B9F0412F64E070E03E
:1014E0008C2F0E944A09402F65E070E08C2F0E94EB
:1014F0004A0961E070E08C2F0E943E0A81E0DF9192
:10150000CF911F910F9108950091440310914503CD
:101510000F5F1F4F1093450300934403DECFCF931B
:10152000DF93EC018C85883061F00E944E0AEC85D7
:10153000F0E0EE0FFF1FE45DFC4F1182108288E0A7
:101540008C87DF91CF910895CF92DF92EF92FF9237
:101550000F931F93CF93DF93D82E7B018A01C22E66
:1015600068E270E00E94350AC82FD0E0DC2FCC275B
:1015700069E270E08D2D0E94350AC80FD11D6D2DD6
:101580006295660F607E685E9801A701CE010E9499
:10159000A608C11016C0C00FD11F4D2F68E270E021
:1015A0008D2D0E944A094C2F69E270E08D2DDF914C
:1015B000CF911F910F91FF90EF90DF90CF900C94FF
:1015C0004A09DF91CF911F910F91FF90EF90DF902B
:1015D000CF9008950F931F93CF93DF931F92CDB7B2
:1015E000DEB78C01DC01ED91FC910084F185E02DEA
:1015F0000995892B91F021E041E050E0BE016F5F39
:101600007F4FF80184850E94A40A898190E00F90A1
:10161000DF91CF911F910F9108958FEF9FEFF7CF3B
:10162000CF93DF931F92CDB7DEB7FC01218D328DB2
:101630008FEF9FEF232B59F021E041E050E0BE01F6
:101640006F5F7F4F84850E94A40A898190E00F908C
:10165000DF91CF910895BF92CF92DF92EF92FF92E8
:101660000F931F93CF93DF93B82E6B017A018901FB
:1016700064E270E00E94350AC82F65E270E08B2DAD
:101680000E94350AD0E0DC2FCC278C0D9D2D911DBA
:10169000C80FD91F6B2D6295660F607E6C5E980136
:1016A000A701CE010E94F708C00FD11F4D2F64E2A1
:1016B00070E08B2D0E944A094C2F65E270E08B2D63
:1016C000DF91CF911F910F91FF90EF90DF90CF901E
:1016D000BF900C944A091F93CF93DF93182F66E2B3
:1016E00070E00E94350AC82FD0E0DC2FCC2767E2DB
:1016F00070E0812F0E94350A8C0F9D2F911DDF9184
:10170000CF911F910895FF920F931F93CF93DF9373
:10171000F82E10E000E08F2D0E946B0BEC01892B5E
:1017200021F08F2D0E946B0B8C01C017D10799F708
:10173000CE01DF91CF911F910F91FF900895FC0191
:101740008485883011F00C94830B90E080E008953C
:101750001F93CF93DF93182F60E270E00E94350A49
:10176000C82FD0E0DC2FCC2761E270E0812F0E94EF
:10177000350A8C0F9D2F911DDF91CF911F910895F8
:10178000FF920F931F93CF93DF93F82E10E000E0AA
:101790008F2D0E94A80BEC01892B21F08F2D0E9428
:1017A000A80B8C01C017D10799F7CE01DF91CF911B
:1017B0001F910F91FF900895AF92BF92CF92DF9249
:1017C000FF920F931F93CF93DF938C015B01EA018C
:1017D000FC01C788D08CF4848F2D0E94C00B8C171D
:1017E0009D0720F48F2D0E94C00BEC019E01A501E6
:1017F000B6018F2D0E942B0BF8018789908D8C0FDD
:101800009D1F908F878BCE01DF91CF911F910F91FC
:10181000FF90DF90CF90BF90AF900895FC0184853A
:10182000883021F063E070E00C94350A80E0089580
:10183000CF93DF93FC0124852830D9F0EC010E947E
:101840000E0C843189F0882379F0883169F021E029
:101850008C3159F4E881F9810084F185E02DCE01C5
:10186000099521E0892B09F420E0822FDF91CF91A7
:10187000089580E0FBCFCF92DF92EF92FF92CF935B
:10188000DF93EC018C85883089F168E070E00E947C
:101890003E0A0E940C076B017C01CE010E940E0CD7
:1018A000882391F00E940C076C197D098E099F090D
:1018B000683E73408105910538F461E070E080E096
:1018C00090E00E94D906E9CFCE010E940E0C882339
:1018D00019F08C850E944E0AEC85F0E0EE0FFF1F98
:1018E000E45DFC4F1182108288E08C87DF91CF91FC
:1018F000FF90EF90DF90CF9008954F925F926F929C
:101900007F928F929F92AF92BF92CF92DF92EF928F
:10191000FF921F93CF93DF93CDB7DEB72D970FB60E
:10192000F894DEBF0FBECDBF7C019CE2A92E93E0F0
:10193000B92E10E0D12CC12C28EE422E23E0522EDD
:10194000612C712C3EE3832E31E0932E1C821B828E
:101950004D825E826F8278869A8289821D87D50148
:101960002D913D915D01F7018481958128173907FB
:10197000B1F4CE0101960E940E0C843199F1CE0192
:1019800001960E940E0C8C3151F4CE0101960E94FA
:101990009F0B892B21F4CE0101960E943B0C1F5F07
:1019A0001830A1F6CD2841F4D701ED91FC910084C7
:1019B000F185E02DC70109952D960FB6F894DEBF8D
:1019C0000FBECDBFDF91CF911F91FF90EF90DF90C1
:1019D000CF90BF90AF909F908F907F906F905F90CF
:1019E0004F900895CC24C394D12CD9CFCF92DF92BD
:1019F000EF92FF921F93CF93DF93182F6B017A0121
:101A00000E94830BEC010097D9F463E070E0812F12
:101A10000E94350A843159F0882349F0C1E0D0E0B2
:101A20008C3111F4D0E0C0E0D195C195D109CE013F
:101A3000DF91CF911F91FF90EF90DF90CF900895AD
:101A4000E816F9060CF4E7011C161D0684F720E0E1
:101A5000AE01B601812F0E94A40A60E470E0812FDC
:101A60000E943E0AE4CFCF93DF93FC01218D328D9B
:101A70002115310529F48FEF9FEFDF91CF91089564
:101A8000EC0184854217530708F0A9010E94F60C67
:101A90001816190684F7298D3A8D281B390B3A8FB1
:101AA000298FEBCF0F931F93CF93DF931F92CDB767
:101AB000DEB7FC01218D328D232B41F48FEF9FEF98
:101AC0000F90DF91CF911F910F9108958C0141E00C
:101AD00050E0BE016F5F7F4FFC0184850E94F60CD1
:101AE000181619065CF7F801818D928D0197928F77
:101AF000818F898190E0E4CFFC0184850C94F60C01
:101B0000CF93DF931F92CDB7DEB741E050E0BE0127
:101B10006F5F7F4FFC0184850E94F60C1816190632
:101B200034F4898190E00F90DF91CF9108958FEF89
:101B30009FEFF9CF0F931F93CF93DF93EC010E9498
:101B40000C07688779878A879B87CE010E94800D62
:101B500097FF15C00E940C07088519852A853B85CB
:101B6000601B710B820B930B0C811D812E813F81B9
:101B7000601771078207930740F38FEF9FEFDF91A4
:101B8000CF911F910F910895CF93FC01C48560E21E
:101B900070E08C2F0E943E0A62E070E08C2F0E9461
:101BA000350A84FD11C062E070E08C2F0E94350A76
:101BB00083FFF2CF48E162E070E08C2F0E944A0977
:101BC00090E080E0CF91089540E162E070E08C2FDA
:101BD0000E944A0981E090E0F5CFEF92FF921F93B7
:101BE000CF93DF93FC012485283039F080E0DF912A
:101BF000CF911F91FF90EF9008957B01EC0110E0D1
:101C000063E070E0812F0E94350A81110EC01C87AD
:101C10008C85883059F3FE86ED861A8E198EA701C1
:101C200062E00E945B0A81E0E2CF883181F31F5FAE
:101C3000183031F7EDCF8F929F92AF92BF92CF9233
:101C4000DF92EF92FF920F931F93CF93DF93CDB765
:101C5000DEB72D970FB6F894DEBF0FBECDBF7C0167
:101C600010E000E038EE832E33E0932EA12CB12C4F
:101C70004EE3C42E41E0D42E1C821B828D829E82B4
:101C8000AF82B886DA82C9820D87CE0101960E94A2
:101C90000E0C811130C0F7014481558161E0802F25
:101CA0000E945B0A63E070E0802F0E94350A833156
:101CB00029F462E070E0802F0E943E0AF7018481DF
:101CC0009581000F111FF801E45DFC4F9183808323
:101CD0002D960FB6F894DEBF0FBECDBFDF91CF912A
:101CE0001F910F91FF90EF90DF90CF90BF90AF903A
:101CF0009F908F9008950F5F1F4F0830110509F0D6
:101D0000BBCFE6CF8F929F92AF92BF92CF92DF92DE
:101D1000EF92FF920F931F93CF936C015B017A01B7
:101D2000FC01C485C830A1F481E090E0F601938302
:101D30008283F12CE12CC701CF911F910F91FF906D
:101D4000EF90DF90CF90BF90AF909F908F900895CD
:101D50008A014130584010F000E018E08C2F0E94BA
:101D6000C00B4C0163E070E08C2F0E94350A873174
:101D700011F08C3109F58016910680F39801A501C8
:101D800070E060E08C2F0E942B0B60E270E08C2FE3
:101D90000E943E0A62E070E08C2F0E94350A84FDAA
:101DA0000EC063E070E08C2F0E94350A8111F2CFE3
:101DB0008C2F0E944E0AB8CF10E000E0DFCF40E148
:101DC00062E070E08C2F0E944A09012B09F0B3CF2A
:101DD000ABCFFB0144815581608171810C94820EEF
:101DE0003F924F925F926F927F928F929F92AF92AB
:101DF000BF92CF92DF92EF92FF920F931F93CF93F8
:101E0000DF93CDB7DEB72D970FB6F894DEBF0FBEC8
:101E1000CDBF6C015B014A010E947D0C8CE2E82E73
:101E200083E0F82E312C10E000E098EE492E93E08C
:101E3000592E612C712C1C821B824D825E826F8216
:101E400078868EE391E09A8389833D86F70121911C
:101E500031917F01F601848195812817390771F44A
:101E6000CE0101960E940E0C873141F4A401B50108
:101E7000CE0101960E94820E080F191F3394F8E0DC
:101E80003F12D9CFC8012D960FB6F894DEBF0FBE12
:101E9000CDBFDF91CF911F910F91FF90EF90DF9019
:101EA000CF90BF90AF909F908F907F906F905F90FA
:101EB0004F903F900895DF92EF92FF920F931F9300
:101EC000CF93DF93FC012485283051F090E080E02F
:101ED000DF91CF911F910F91FF90EF90DF900895C8
:101EE0007A01EB018C01D12C63E070E08D2D0E9412
:101EF000350A811128C0F801D486F801848588301C
:101F000029F320910001309101012F5F3F4F19F11A
:101F10003093010120930001409100015091010193
:101F200061E00E945B0A8A818F3FC1F48B818F3F01
:101F300001F58C818F3FE9F48D818F3FD1F488E0EA
:101F4000F8018487C3CF8B7F8831A9F2D394F8E05E
:101F5000DF12CACFD2CF20E034E0DACF811109C03E
:101F60008B81811106C08C81811103C08D818823F2
:101F700031F3E114F10419F3F801D484AE014E5F9A
:101F80005F4F6D2D6295660F607E645F24E030E0E8
:101F90008CE090E00E94F7084F2D60E170E08D2DFD
:101FA0000E944A094E2D61E170E08D2D0E944A0980
:101FB00064E070E08D2D0E943E0AC8010E940E0C64
:101FC000873161F061E070E080E090E00E94D90626
:101FD000C8010E940E0C8111F0CFB1CF81E090E0DA
:101FE00077CF90E080E00895DC01ED91FC91048CC6
:101FF000F58DE02D099480912D0490912E040E947E
:10200000CA0740E06CEC80912D0490912E040E9450
:1020100077074091280464E480912D0490912E0468
:102020000E94770780912A048823A1F0E091290477
:10203000E9506EEE72E0E33038F4F0E0EE0FFF1F8F
:10204000EC59FE4F60817181072E000C880B990BB3
:102050000C94D9060895BF92CF92DF92EF92FF922F
:102060000F931F93CF93DF93EC01B62EC72EED8411
:10207000E11004C00E94CA0781110EC01B861D8694
:102080001C8680E0DF91CF911F910F91FF90EF9020
:10209000DF90CF90BF90089540E060EFCE010E94A6
:1020A0007707D12C01E011E0CE010E942407F82E21
:1020B000CE010E94240791E0F91218C0813099F5F1
:1020C0001134E0F2EB86E11002C081E08D878B8154
:1020D0008823A1F22396EB2DFC2DCF0108962991A0
:1020E0002193E817F907D9F781E0CCCFED2DF0E087
:1020F000F8120FC08B851817A0F4DE01AE0FBF1FBA
:1021000013968C91802379F4F12C193008F41C87F4
:10211000E12EEC0FFD1F8381902F909589238383FF
:102120000AC08113F1CFFE01ED0DF11D8381802BDB
:102130008383FF24F3946F2DCE010E9448071F5F15
:10214000000F11F4D39401E087E08D1508F0ACCFB7
:10215000B7CFCF93DF93EC0188819981009711F07D
:102160000E946D2D198218821D821C821B821A8288
:10217000DF91CF910895FC0180819181009711F04A
:102180000C946D2D0895DC018EE891E08D939D9364
:1021900084E0FB0101900D928A95E1F708950F9379
:1021A0001F93CF93DF93CDB7DEB728970FB6F89480
:1021B000DEBF0FBECDBF8C01DC01ED91FC9106802E
:1021C000F781E02D0995F80184850E94830B892B06
:1021D000B1F148E050E0BE016F5F7F4FD8011C961F
:1021E0008C910E94F60C18161906F4F4D801519639
:1021F00084E0FE01319601900D928A95E1F78D8180
:1022000090E0982F88272E81820F911DF801968BE0
:10221000858B8F81282F30E0322F22278885820FEF
:10222000932F911D928F818F28960FB6F894DEBF61
:102230000FBECDBFDF91CF911F910F91089590E018
:1022400080E0F2CF4F925F926F927F928F929F9237
:10225000AF92BF92CF92DF92EF92FF920F931F93B4
:10226000CF93DF93CDB7DEB763970FB6F894DEBF99
:102270000FBECDBF7C016B013A01FB01DB018D91EB
:102280008111FDCF30E020E090E080E05AE0419104
:10229000442301F1843091050CF042C04E3269F4C0
:1022A0002F3F310509F0E4F5D301A80FB91F1296AD
:1022B0002C93019630E020E0EACF529FB001539F6B
:1022C000700D1124242F440F330B20533109260F96
:1022D000371FDDCF2F3F310509F014F5843091050C
:1022E000FCF4680E791EF3012283CC24C394D12C14
:1022F000C60163960FB6F894DEBF0FBECDBFDF9167
:10230000CF911F910F91FF90EF90DF90CF90BF90F2
:10231000AF909F908F907F906F905F904F900895B7
:10232000F7014281538164817581809112049091FB
:102330001304A0911404B0911504481759076A07B3
:102340007B0709F400C28701085F1F4F0E940C073A
:102350006F7077277C5FC8010E94ED0D813009F016
:10236000F7C18EE891E09A838983F7018281938196
:10237000A481B5818B839C83AD83BE8345E350E00C
:10238000BE016F5F7F4FC8010E947B09892B31F42A
:10239000D12CC12CC8010E948F0AAACF0E940C0721
:1023A000F7017783668342E050E0B7016A5F7F4FB1
:1023B000C8010E94DC0B81E090E09A83898342E0AF
:1023C00050E0BE016F5F7F4FC8010E94DC0B80E0D0
:1023D00091E09A83898342E050E0BE016F5F7F4FB6
:1023E000C8010E94DC0B1A82198242E050E0BE0153
:1023F0006F5F7F4FC8010E94DC0B42E050E0BE01DE
:102400006F5F7F4FC8010E94DC0B42E050E0BE01CD
:102410006F5F7F4FC8010E94DC0B5601F60180817F
:10242000882301F16501F60181912F01882311F0C4
:102430008E32B1F446018A189B081814190474F4FA
:102440008D8641E050E0BE01635F7F4FC8010E946E
:10245000DC0BA401B501C8010E94DC0B5201DECFE8
:102460006201E1CF1D8641E050E0BE01635F7F4F16
:10247000C8010E94DC0BC12CDD24D394DA82C9820E
:1024800042E050E0BE016F5F7F4FC8010E94DC0B4D
:10249000DA82C98242E050E0BE016F5F7F4FC8011F
:1024A0000E94DC0BC8010E94C40D892B09F470CF77
:1024B000F3E0AF2EB12C230122E0420E511C43C0A9
:1024C000F7014281538164817581818D928DA38D45
:1024D000B48D481759076A077B0709F02AC1858D13
:1024E000968DC59709F025C181A192A10C970CF496
:1024F00025C14CE050E0BE016F5F7F4FC8010E94D4
:10250000330D8B819C819827892798279A8B898BFB
:10251000F7014681578129813A814217530711F407
:1025200097FD2FC0C8010E945309ECEFCE2EDD2489
:10253000DA9481E0A81AB10809F42CCFFFEFCF1686
:10254000DF0609F027CF0E940C073B014C01C801B0
:102550000E94CF10181619060CF4B2CF0E940C0777
:1025600066197709880999096938734181059105C8
:1025700008F0DBC062E370E080E090E00E94D906E2
:10258000E6CF8F709270892B41F0C8010E945309E9
:102590007BEFC72EDD24DA94CCCF6F80788476244D
:1025A00067247624D12CC12C61147104D1F4C801A4
:1025B0000E9453096AEFC62EDD24DA94BACF8D85C6
:1025C000811117C0C8010E94520DC8010E94520D0E
:1025D000C8010E94520DC8010E94520DFFEFCF1A90
:1025E000DF0A8D819E81982789279827C816D906EA
:1025F000A8F441E050E0BE01635F7F4FC8010E9434
:10260000330D8D858823D9F28D859FEF980F9D8797
:102610008823A9F2C8010E94520DF6CF912C812C7B
:1026200041E050E0BE016D5E7F4FC8010E94330D56
:102630008B89982F907C61F4882389F08B899FEF98
:10264000980F9B8B882341F0C8010E94520DF6CF52
:10265000C8010E94520D1B8A8B898111E1CF42E093
:1026600050E0BE01615F7F4FC8010E94330D42E020
:1026700050E0BE01635F7F4FC8010E94330DC80167
:102680000E94520DC8010E94520DC8010E94520DB5
:10269000C8010E94520D42E050E0BE016F5E7F4FC4
:1026A000C8010E94330D8F85988981159140E9F406
:1026B000CD84DE84DC24CD24DC2481E0C816D10462
:1026C000A1F489899A898115944041F0C8010E943A
:1026D000530957EFC52EDD24DA942BCF44E050E0A8
:1026E000B201C8010E94330D24CFD12CC12C89899D
:1026F0009A89982789279827C816D90638F4C801D7
:102700000E94520DFFEFCF1ADF0AF1CF2FEF821A8E
:10271000920A6814790409F083CFC8010E94530912
:1027200046EFC42EDD24DA9404CFCC24CA94DC2CEA
:1027300000CF2EEFC22EDD24DA94FBCE9DEFC92E02
:10274000DD24DA94F6CE8EEFC82EDD24DA94D0CDD7
:10275000D12CC12CCDCDCF92DF92EF92FF920F936F
:102760001F93CF93DF93CDB7DEB7AF970FB6F89433
:10277000DEBF0FBECDBF7C016A010EE811E01A83F7
:1027800009831C861B8688EE93E0A0E0B0E08D876D
:102790009E87AF87B88B86E191E09A87898788E02A
:1027A0008D8B198F088F1A8E1B8E1C8E1D8E1BA76A
:1027B0000AA71CA61DA61EA61FA68091FF03909126
:1027C0000004A0910104B09102048EA39FA3A8A7C6
:1027D000B9A78B839C83AD83BE8318861F82AE010D
:1027E000465D5F4FCE0101960E9422118130910516
:1027F000B1F4D701ED91FC910488F589E02D1DA37A
:102800000CA38CA59DA5AEA5BFA58EA39FA3A8A72D
:10281000B9A7A601BE016C5D7F4FC7010995AF96B0
:102820000FB6F894DEBF0FBECDBFDF91CF911F91E1
:102830000F91FF90EF90DF90CF900895CF92DF92AD
:10284000EF92FF920F931F93CF93DF93CDB7DEB735
:10285000AF970FB6F894DEBF0FBECDBF7C016A0103
:102860000EE811E01A8309831C861B8688EE93E02C
:10287000A0E0B0E08D879E87AF87B88B86E191E0BE
:102880009A87898788E08D8B198F088F1A8E1B8E07
:102890001C8E1D8E1BA70AA71CA61DA61EA61FA662
:1028A0008091FF0390910004A0910104B091020473
:1028B0008EA39FA3A8A7B9A78B839C83AD83BE8358
:1028C00018861F82AE01465D5F4FCE0101960E94C1
:1028D000221181309105B1F4D701ED91FC9106846C
:1028E000F785E02D1DA30CA38CA59DA5AEA5BFA5C6
:1028F0008EA39FA3A8A7B9A7A601BE016C5D7F4FB9
:10290000C7010995AF960FB6F894DEBF0FBECDBFD5
:10291000DF91CF911F910F91FF90EF90DF90CF90BB
:1029200008950E94B32EFB0101900020E9F7319732
:10293000AF01461B570BDC01ED91FC910280F38146
:10294000E02D09948F929F92AF92BF92EF92FF92E7
:102950000F931F93CF93DF93CDB7DEB7A1970FB639
:10296000F894DEBF0FBECDBF7C01FA01CB0119A2E6
:10297000223008F42AE08E010F5D1F4F822E912C29
:10298000B12CA12CBF01A50194010E94C52BF90116
:10299000CA016A300CF5605DD8016E938D01232B5E
:1029A000242B252B79F790E080E0109721F0BD01D2
:1029B000C7010E949314A1960FB6F894DEBF0FBE14
:1029C000CDBFDF91CF911F910F91FF90EF90BF90FE
:1029D000AF909F908F900895695CDECF8F929F9209
:1029E000AF92BF92CF92DF92EF92FF920F931F931D
:1029F000CF93DF937C01EB016C0182E0C80ED11C08
:102A00004701E5E08E0E911C10E000E0F6014191D7
:102A10006F0150E070E060E02AE0CE010E94A21455
:102A20005C01E881F9810190F081E02D6EE2CE0138
:102A300009958A0D9B1D080F191FC814D90431F779
:102A4000F701458150E070E060E02AE0CE010E948D
:102A5000A214800F911FDF91CF911F910F91FF90D2
:102A6000EF90DF90CF90BF90AF909F908F900895A0
:102A700060E971E00C949314CF93DF93D0E0C0E051
:102A8000009731F0BC0186E493E00E949314EC01BE
:102A900086E493E00E9438158C0F9D1FDF91CF9143
:102AA00008950F931F93CF93DF93EC010E94E90EDB
:102AB0008C01CE010E943815800F911FDF91CF91BC
:102AC0001F910F9108950F931F93CF93DF93EC0104
:102AD0000E940C0A8C01CE010E943815800F911FB4
:102AE000DF91CF911F910F9108957F928F929F92C6
:102AF000AF92BF92CF92DF92EF92FF920F931F930C
:102B0000CF93DF93CDB7DEB7A6970FB6F894DEBFAD
:102B10000FBECDBF8C01762E942E852E20E2A22EE4
:102B2000CE0101967C01DC01EA2D1D92EA95E9F7C0
:102B30006801FBE4CF0ED11C8EE891E09AA389A333
:102B40008FEF8BA38CA38DA38EA343E450E0BE0133
:102B50006F5D7F4FC6010E947B09019609F4BFC0DB
:102B600081E089838A8386E0B82EBB821C82D801EB
:102B700014966D917D918D919C9117970E94B02C28
:102B80006D837E838F83988789869A8680E890E01C
:102B90009C878B874CE150E0B701C6010E94DC0B9B
:102BA000FE0137968AE1DF011D928A95E9F7480117
:102BB000B8E08B0E911CF401D70101900D92BA94EC
:102BC000E1F740E150E0B701C6010E94DC0BF701DC
:102BD0001192AA94E9F796E0A92EB12C40E250E0B8
:102BE000B701C6010E94DC0BF1E0AF1AB108B1F7E2
:102BF00083E6898392E89A8393E59B838C8385E3BC
:102C00008D8381E08E837F829DE3988797E099870B
:102C10008A8786E0F401DE011B9601900D928A9569
:102C2000E1F78CE0898B8A8B63E971E0CE014396F2
:102C30000E94D72ED8011B966C91CE0149960E9416
:102C40000F05F8016485CE014B960E940F05D8014F
:102C50001D966C91CE014D960E940F054EE150E0FD
:102C6000B701C6010E94DC0BB3E07B121EC082E3F9
:102C7000898384E08A83F80196859B8397859C836A
:102C800090899D8391899E8396E39F838887868D13
:102C90008987878D8A8780A18B8781A18C874CE06B
:102CA00050E0B701C6010E94DC0B87E3898386E010
:102CB0008A8391E09B8393E09C838D838FE08E8356
:102CC0008AE38F838BE388878FEF898749E050E021
:102CD000B701C6010E94DC0BC6010E94C40DA69676
:102CE0000FB6F894DEBF0FBECDBFDF91CF911F911D
:102CF0000F91FF90EF90DF90CF90BF90AF909F909B
:102D00008F907F900895FC0124813581232B31F42D
:102D100021E0FB01672B49F4822F08958081918186
:102D20006115710539F421E0FC0180818823A1F34C
:102D300020E0F2CF0E94CE2E21E0892B69F3F8CF5C
:102D40000F931F93CF93DF93EC01888199810097B4
:102D500059F02A813B812617370730F081E0DF9157
:102D6000CF911F910F9108958B016F5F7F4F0E944C
:102D7000F62D009759F0998388831B830A832C8151
:102D80003D81232B59F7FC011082E8CF80E0E7CF8B
:102D9000EF92FF920F931F93CF93DF93EC01198271
:102DA00018821B821A821D821C826115710521F115
:102DB0008B01FB0101900020E9F731977F01E61AB2
:102DC000F70AB7010E94A016811109C0CE01DF9158
:102DD000CF911F910F91FF90EF900C94A910FD825D
:102DE000EC82B80188819981DF91CF911F910F9179
:102DF000FF90EF900C94D72EDF91CF911F910F9100
:102E0000FF90EF900895EF92FF920F931F93CF934F
:102E1000DF938C017B01EB0109900020E9F72197FA
:102E2000C61BD70BBE010E94A016811109C0C801A4
:102E3000DF91CF911F910F91FF90EF900C94A9100B
:102E4000F801D583C483B70180819181DF91CF914F
:102E50001F910F91FF90EF900C94D72EEF92FF925D
:102E60000F931F93CF93DF936115710541F480E0B9
:102E7000DF91CF911F910F91FF90EF900895411531
:102E80005105B1F07B01EC010C811D81040F151F70
:102E9000B8010E94A016882351F3288139818C81C2
:102EA0009D81B701820F931F0E94D72E1D830C8333
:102EB00081E0DECFCF93DF93EC01FB010190002096
:102EC000E9F73197AF01461B570B0E942E1781116E
:102ED00003C0CE010E94A910CE01DF91CF910895C9
:102EE000CF93DF93EC01FB014481558160817181B7
:102EF0000E942E17811103C0CE010E94A910CE019D
:102F0000DF91CF9108952F923F924F925F926F92EF
:102F10007F928F929F92AF92BF92DF92EF92FF9239
:102F20000F931F93CF93DF93CDB7DEB7E4970FB620
:102F3000F894DEBF0FBECDBF7C014A015B011901D1
:102F40000E940C072B013C018701055B1F4FC80144
:102F50000E94CF10181619069CF00E940C076419E5
:102F600075098609970986169706A806B90608F412
:102F7000C6C162E370E080E090E00E94D906E7CF2E
:102F800042E250E0BE016F5F7F4FC8010E94330DE7
:102F90008981823009F0AEC1F80185899689833430
:102FA000910509F0A7C16D817E818F8198850E946E
:102FB000B02C2B013C01F10140825182628273826C
:102FC00046E050E0B701685F7F4FCE014D960E940A
:102FD000B82E892B99F4F70180819181A281B38168
:102FE000481659066A067B0648F084819581A681B9
:102FF000B78184159505A605B705E8F4C8010E94B8
:103000005309D12C8D2DE4960FB6F894DEBF0FBE78
:10301000CDBFDF91CF911F910F91FF90EF90DF9087
:10302000BF90AF909F908F907F906F905F904F90E8
:103030003F902F90089589899A89AB89BC898687AA
:103040009787A08BB18B8EECA82EB12CC8010E9463
:10305000520DF1E0AF1AB108C9F7D12CC7014E9655
:103060004C01F701E45AFF4FFAA7E9A740969CA745
:103070008BA7F297FEA7EDA7089798AB8FA770973D
:10308000FAABE9AB1701F2E22F0E311C40979CAB73
:103090008BABF801818D928D181619060CF02BC19F
:1030A000C8010E94520D8F30910509F4A8C08CF51B
:1030B0008330910509F46CC08CF4009751F30197AB
:1030C00009F45BC0C8010E94520DB82EBA94FFEFFC
:1030D000BF16F9F2C8010E94520DF8CF8630910553
:1030E00009F472C00C9771F7C8010E94520D5C017F
:1030F000BB24C50101960E94D12CF701958B848BCE
:10310000A501BC01C8010E94F40FF70184899589CB
:103110008AC08633910509F48BC074F4833391051A
:1031200009F4CEC0C59771F6C8010E94520DC801BE
:103130000E94520DD82EADCF8B33910509F4AAC051
:103140008F3F910509F4A5CFCA9709F0BBCFC801FD
:103150000E94520D44E050E06DA57EA5C8010E947A
:10316000330DF70162A573A584A595A50E94B02C27
:1031700062A773A784A795A78CCFC8010E94520DA0
:1031800044E050E06BA97CA9C8010E94330D81CFB7
:10319000C8010E94520DA82E44E050E069A97AA906
:1031A000C8010E94330D712C612C8A2D8450990B1B
:1031B0005C016A147B040CF06CCFC8010E94520DB4
:1031C0009FEF691A790AF5CFC8010E94520DA82E07
:1031D00044E050E0B101C8010E94330D712C612C14
:1031E000EA2DE450FF0B5F016A147B040CF051CF11
:1031F000C8010E94520DFFEF6F1A7F0AF5CFC80178
:103200000E94520D5C01BB24C50101960E94D12C85
:10321000F701938B828BA501BC01C8010E94F40FBA
:10322000F70182899389A80EB91EF501108231CF6A
:10323000C8010E94520DB82EF701868D811109C078
:10324000878D811106C080A1811103C081A18823CF
:10325000A1F0E9A5FAA54080518062807380B40195
:10326000CE0183960E94C3108DA19EA1AFA1B8A5E7
:1032700084159505A605B70521F444E050E0B40196
:1032800083CFBA94FFEFBF1609F403CFC8010E94A1
:10329000520DF7CFC8010E94520D44E050E06BA5DB
:1032A0007CA5C8010E94330DF70166A577A580A90A
:1032B00091A90E94B02C66A777A780AB91ABE9CE0D
:1032C000C8010E94520D44E050E06FA578A9C801E2
:1032D0000E94330DF70166A177A180A591A50E94F8
:1032E000B02C66A377A380A791A762AB73AB84AB26
:1032F00095ABCFCED12CC8010E94530983CEDD24DB
:10330000DA9480CEAF92BF92CF92DF92EF92FF928B
:103310000F931F93CF93DF93CDB7DEB7C456D10978
:103320000FB6F894DEBF0FBECDBF6C01062F660F3F
:10333000110BC8010E94462B9E012F5F3F4F790160
:103340005901021B130BF501EE19FF09882349F0FF
:10335000C8018A0D9B1D0E94462BF50181935F01D8
:10336000F2CFEE0DFF1D1082B701C6010E94C816F4
:10337000C601CC59DF4F0FB6F894DEBF0FBECDBFEC
:10338000DF91CF911F910F91FF90EF90DF90CF9041
:10339000BF90AF900895CF92DF92EF92FF920F937C
:1033A0001F93CF93DF937B01DB011496CD90DC90CC
:1033B000D0E0C0E0082F880F110BCC15DD05D4F448
:1033C000F70184819581C817D90728F40190F0810D
:1033D000E02D309761F410922003E0E2F3E0608189
:1033E000C8018C0F9D1F0E944E2B2196E6CFEC0F3B
:1033F000FD1FF5CF60E0C8018C0D9D1DDF91CF91C1
:103400001F910F91FF90EF90DF90CF900C944E2B77
:103410001F920F920FB60F9211242F933F934F9349
:103420005F936F937F938F939F93AF93BF93EF932C
:10343000FF9386E493E00E94A805FF91EF91BF916E
:10344000AF919F918F917F916F915F914F913F913C
:103450002F910F900FBE0F901F9018951F920F92F3
:103460000FB60F9211242F938F939F93EF93FF9397
:10347000E0915603F09157038081E0915C03F09155
:103480005D0382FD1BC0908180915F038F5F8F730E
:1034900020916003821741F0E0915F03F0E0EA5B66
:1034A000FC4F958F80935F03FF91EF919F918F91D8
:1034B0002F910F900FBE0F901F9018958081F4CF21
:1034C0001F920F920FB60F9211242F933F938F9359
:1034D0009F93AF93BF938091220390912303A09178
:1034E0002403B09125033091210323E0230F2D37CE
:1034F00058F50196A11DB11D20932103809322034D
:1035000090932303A0932403B09325038091260373
:1035100090912703A0912803B09129030196A11D42
:10352000B11D8093260390932703A0932803B093A3
:103530002903BF91AF919F918F913F912F910F9050
:103540000FBE0F901F90189526E8230F0296A11D1D
:10355000B11DD2CFCF93E6E4F3E01382128288EE5E
:1035600093E0A0E0B0E084839583A683B7838EE6E2
:1035700091E09183808385EC90E09587848784EC4B
:1035800090E09787868780EC90E0918B808B81EC30
:1035900090E0938B828B82EC90E0958B848B86EC11
:1035A00090E0978B868B118E128E138E148EE3EE25
:1035B000F3E080E58083C1E0C183E5EEF3E08EE8CF
:1035C00091E0918380831282138214821582EBEE44
:1035D000F3E0918380831282138214821582E1EFDB
:1035E000F3E0918380831282138214821582E7EFC5
:1035F000F3E0918380831282138214821582EAE0C1
:10360000F4E0918380831282138214821582EDEF9D
:10361000F3E09183808312821382148215821386D1
:1036200012862AE02487E0E1F4E09183808312820D
:10363000138214821582E6E1F4E091838083128282
:10364000138214821582E9E4F4E09183808312826C
:1036500013821482158260E085E00E948306E5EB08
:10366000F9E0E491ABE3B4E0EC93E1EAF9E0E49152
:10367000F0E0EE0FFF1FEE56F64F859194911296F3
:103680009C938E9311971B961C921B971D961C92D0
:103690001D971C961C921C971A961C921A971996A5
:1036A0001C92199718961C92189717961C921797A8
:1036B00016961C92169715961C92159714961C92A6
:1036C000149713961C921397E8E2F4E08EE095E0CD
:1036D000928B818BB683A5831482108289E08183CB
:1036E000C283C383E2E2F4E01382128280E891E0B5
:1036F0009183808380E590E09583848362E971E023
:103700008CE194E0CF910C94C816CF93DF93CDB7A2
:10371000DEB7C554D1090FB6F894DEBF0FBECDBFDA
:10372000789484B5826084BD84B5816084BD85B59C
:10373000826085BD85B5816085BD80916E008160A8
:1037400080936E001092810080918100826080934E
:103750008100809181008160809381008091800050
:103760008160809380008091B10084608093B1007B
:103770008091B00081608093B00080917A00846075
:1037800080937A0080917A00826080937A008091A1
:103790007A00816080937A0080917A0080688093BB
:1037A0007A001092C1006AE0CE018F960E948219C1
:1037B00064E6CE0182960E94821962E971E0CE0130
:1037C0008F960E948316811108C070E060E0CE01E0
:1037D0008F960E948316882381F06BE971E0CE01F9
:1037E00001960E94C816BE016F5F7F4F8AE00E945B
:1037F000CB19CE0101960E94BB1062E971E0CE01A7
:1038000082960E948316811108C070E060E0CE01AC
:1038100082960E948316882381F06AE971E0CE01C6
:1038200001960E94C816BE016F5F7F4F84E60E941A
:10383000CB19CE0101960E94BB10E0912D04F091AE
:103840002E0413861586148612861186108617821A
:10385000168215821482138210922C0401E0BE019C
:103860006F5F7F4F80912D0490912E040E942B104A
:10387000882309F455C067E0CE0101960E9418071D
:1038800098858913ECCF80912804811128C08091FC
:103890002D0490912E040E94CA07BE016F5F7F4FD6
:1038A00080912D0490912E040E94AB0740E064EBC0
:1038B00080912D0490912E040E94770780912D0411
:1038C00090912E040E942407182F80912D0490912E
:1038D0002E040E94CA07111102C0009328041091FF
:1038E00029048981803111F40C947B25CE01019645
:1038F0000E944E08811750F4809129048093290476
:1039000080912C048F5F80932C04A9CF8981803112
:1039100011F48CE0F3CFCE0101960E944E08EECF59
:1039200061E086E00E94830661E086E00E9437063F
:10393000E0915603F091570382E08083E0915203B7
:10394000F09153031082E0915403F091550380E10C
:10395000808310925E03E0915A03F0915B0386E04E
:103960008083E0915803F0915903808180618083C6
:10397000E0915803F0915903808188608083E09141
:103980005803F0915903808180688083E091580347
:10399000F091590380818F7D80830E94FB0F60ED41
:1039A00077E080E090E00E94D90680910704909132
:1039B0000804009711F00E946D2D86E690E00E94A9
:1039C000D12C26E6DC011D922A95E9F7FC01E55B86
:1039D000FF4F1382128248EE53E060E070E04483B0
:1039E00055836683778326E131E03183208328E0A5
:1039F00024873F962EE831E03183208312821382A0
:103A0000148215829093080480930704109109048E
:103A100010932B0368EE73E080E090E00E94D906DB
:103A200061E0812F0E9483061FB7F89480912A03DA
:103A3000811127C0E6EAF9E08491EAEBF9E094917C
:103A4000E82FF0E0EE0FFF1FE554FD4FA591B49174
:103A5000EC91E92321F461E08AE00E94370661E0FD
:103A60008AE00E9483068CB580618CBD8CB5806431
:103A70008CBD61E08DE00E94830661E08BE00E94D6
:103A8000830680912A038F5F80932A031FBF60E023
:103A900090E080E00E94D808482F406864E090E001
:103AA00080E00E9429091CE058E0E52EF12C42E05C
:103AB000612F8EE190E00E94290942E0612F8FE1A1
:103AC00090E00E942909B1E0EB1AF108105EE114C0
:103AD000F10469F726E030E042E051E064E089E07B
:103AE00090E00E94F7088EE891E09A8389831B8218
:103AF0001C821D821E8224E030E0AE014D5F5F4FCC
:103B000064E08FE090E00E94F708009107041091B4
:103B10000804F80116A217A210A611A612A613A651
:103B200014A615A616A617A610AA11AA12AE13AEB1
:103B300014AE15AE1801BEE32B0E311C80E69AEED2
:103B4000A0E0B0E0F10180839183A283B383680198
:103B5000F2E4CF0ED11C88E893E1A0E0B0E0F601DA
:103B600080839183A283B383F49784E1DF011D9264
:103B70008A95E9F786E0E2E0F1E0D8011896019035
:103B80000D928A95E1F77801BAE4EB0EF11CF7018A
:103B900010820E94EF252FEC37E040E050E00E94B9
:103BA0005C2BDC01CB010196A11DB11DF8018483C2
:103BB0009583A683B78380839183A283B3835801BF
:103BC000FBE4AF0EB11CC5010E948F0A64E470E0F3
:103BD000C5010E94ED0D882309F4C8C00E940C079E
:103BE0002B013C012396FFAEEEAE23972696DFAE67
:103BF000CEAE269748EEC42E43E0D42EE12CF12C15
:103C0000912C812C2396AEADBFAD23978C91833040
:103C1000C1F18111EBC1F80184819581A681B78141
:103C20000196A11DB11D84839583A683B7830E944D
:103C30000C076419750986099709A70196010E9466
:103C4000C52BA90161E0C8010E94751581E023968A
:103C5000AEADBFAD23978C93F1E08F16910491F236
:103C60000E940C076419750986099709D1012D91E5
:103C70003D914D915C91261737074807590708F089
:103C8000BFCFC5010E948F0AF80184819581A6816A
:103C9000B7810196A11DB11D84839583A683B78347
:103CA0008A94892809F062C0609107047091080421
:103CB000625F7F4FCE0101960E94C31024E030E086
:103CC000AE014D5F5F4F64E08FE090E00E94F70827
:103CD0006091070470910804665E7F4FCE010196E3
:103CE0000E94C31024E030E0AE014D5F5F4F64E0FE
:103CF00081E090E00E94F708609107047091080449
:103D00006A5E7F4FCE0101960E94C31024E030E02E
:103D1000AE014D5F5F4F64E085E090E00E94F708E0
:103D200060910704709108046E5D7F4FCE0101968B
:103D30000E94C3108B819C81AD81BE818093FF0363
:103D400090930004A0930104B0930204E09107044F
:103D5000F09108048289938990930404809303046A
:103D600084899589909306048093050482E294E007
:103D70000E941B0E80EA91E00E943C1586EA91E0C9
:103D80000E943C158EE891E09A8389831B821C82F5
:103D90001D821E8224E030E0AE014D5F5F4F60E087
:103DA0008FE090E00E94A60866E473E0CE010196E1
:103DB0000E94EE1486E493E00E943815CE018296AC
:103DC0000E94BB10CE018F960E94BB10F8EE8F2E82
:103DD000F3E09F2EA12CB12C0E940C070091400310
:103DE000109141032091420330914303601B710BFA
:103DF000820B930B603177428105910528F4012BEA
:103E0000022B032B09F07DC00E940C076093400336
:103E1000709341038093420390934303E0912D04F8
:103E2000F0912E041386158614861286118610864C
:103E300017821682158214821382BE016E5D7F4F37
:103E400080912D0490912E040E942B108111A6C107
:103E500060E070E08EEF92EC60933C0370933D0362
:103E600080933E0390933F036AE0CE0182960E94C6
:103E7000821964E6CE0101960E9482198AA19BA153
:103E8000C12CD12C7601009721F00E9447266B01AE
:103E90007C0189819A81412C512C3201009721F0BB
:103EA0000E9447262B013C0120913C0330913D03A9
:103EB00040913E0350913F03C701B6010E94F62B8B
:103EC0006B017C01A30192010E94922C18160CF048
:103ED000C5C18DEB91E00E943C1562EC71E08CE174
:103EE00094E00E94031760E086E00E9437060E947B
:103EF000FB0FCE0101960E94BB10CE0182960E945C
:103F0000BB1082E294E00E947D0C0CE213E0D12C05
:103F10001C821B828D829E82AF82B886EEE3F1E026
:103F2000FA83E983DD86D8012D913D918D01809141
:103F30002604909127042817390709F0ACC1CE0157
:103F400001960E940E0C873109F09EC1CE010196A8
:103F50000E949F0B892B09F49EC18B819C819DA39C
:103F60008CA38D819E81AF81B8858EA39FA3A8A7C6
:103F7000B9A789859A85AB85BC858AA79BA7ACA77D
:103F8000BDA7EEE3F1E0FBA3EAA38D858EA78EA586
:103F9000883009F4A3C5CE0182960E94180C8823AC
:103FA00009F49CC5CE0182960E949F0B892B99F340
:103FB0002DB63EB662E971E0CE01CB960E94C816DE
:103FC000CE0182960E949A0D97FD75C18A309105A7
:103FD00009F471C189831A8241E050E0BE016F5F2C
:103FE0007F4FCE01CB960E942E17EACF843011F579
:103FF000F80184819581A681B7810196A11DB11D2B
:1040000084839583A683B7830E940C07641975097E
:1040100086099709A70196010E94C52BA90163E0B3
:10402000C8010E947515E2E02396AEADBFAD23979F
:10403000EC9312CE813081F52696AEADBFAD2697BA
:104040004D915D916D917C919E012F5F3F4FC80115
:104050000E94831724968FAF2497823009F092C074
:1040600089819A81AB81BC81F80184839583A68381
:10407000B7830E940C076419750986099709A7017F
:1040800096010E94C52BA90163E0C8010E94751525
:104090002496EFAD2497C8CF823009F0DDCD269667
:1040A000AEADBFAD26974D915D916D917C919E0116
:1040B0002F5F3F4FC8010E94831724968FAF24972C
:1040C000853009F054C023E02396EEADFFAD239771
:1040D0002083F80186A197A1A0A5B1A5892B8A2BE1
:1040E0008B2B41F424E833E040E050E026A337A3D3
:1040F00040A751A7F80182A593A5A4A5B5A5892B32
:104100008A2B8B2B61F486A197A1A0A5B1A5B695AA
:10411000A7959795879582A793A7A4A7B5A7F80118
:1041200082A593A5A4A5B5A546A557A560A971A983
:10413000452B462B472B51F4AC01BD01440F551FB5
:10414000661F771F46A757A760AB71ABF80182AB1C
:1041500093ABA4ABB5AB86A597A5A0A9B1A986AB37
:1041600097ABA0AFB1AF88248394912C75CD2496E2
:10417000FFAD2497F63031F42396AEADBFAD239753
:104180001C926ACD2496BFAD2497BF3F09F064CD41
:104190002396EEADFFAD239710825ECD67E0CE0192
:1041A00082960E94180799A5891352CE80912D04FA
:1041B00090912E040E94CA07882309F449CEBE01BB
:1041C0006F5F7F4FCE0182960E940208882309F418
:1041D0003FCE68E0CE0101960E94180799858913A9
:1041E00037CE6A8170E0762F6627770F770F770FCB
:1041F000298158E0259F90011124262B372B8AA175
:104200008031D1F4688570E08F81DB01A81BB10992
:10421000CD019695982F8827979587950E949C2C7D
:10422000CB014097B90153E0660F771F5A95E1F72C
:1042300060789C01260F371F2138B4EE3B070CF441
:1042400007CEB901330F880B990B0E94262A20E074
:1042500030E040E05CE30E94852AFECDC301B2015C
:104260009058A70196010E94922C18160CF03FCE90
:1042700086EC91E00E943C156BEC71E08CE194E0DF
:104280000E94031761E030CECE0101960E940E0C11
:104290008C3109F45BCED394F8E0DF1239CE1DA245
:1042A0001CA28EA29FA2A8A6B9A62EE331E03BA332
:1042B0002AA3DEA66CCE21960EAD1FAD2197C801B4
:1042C00001964DB75EB7481B590B0FB6F8945EBF09
:1042D0000FBE4DBF8DB79EB701966C01011511053C
:1042E00059F0015011096BAD7CADA8010E94EC2E74
:1042F000F601E00FF11F108262E671E0C6010E9434
:104300004B2662E671E090E080E00E944B268C0133
:10431000BC01CE0101960E94C81664EC72E0CE0189
:1043200001960E948316D82ECE0101960E94BB10E2
:10433000DD2009F406C262E879E0CE0182960E948F
:1043400063156AE679E0CE0182960E946315CE017C
:1043500082960E9438156AE579E0CE0182960E9425
:10436000631563E579E0CE0182960E9463156CE4E3
:1043700079E0CE0182960E94631565E379E0CE0173
:1043800082960E94631565E079E0CE0182960E94D4
:10439000631569ED78E0CE0182960E94631564E9A9
:1043A00078E0CE0182960E9463156FE278E0CE013C
:1043B00082960E9463156FE078E0CE0182960E949B
:1043C00063156CEF77E0CE0182960E94631560ED75
:1043D00077E0CE0182960E9463156DEB77E0CE0107
:1043E00082960E9463156FE977E0CE0182960E9463
:1043F00063156FE577E0CE0182960E94631566E54E
:1044000077E0CE0182960E94631561E077E0CE01ED
:1044100082960E9463156FEF76E0CE0182960E942D
:10442000631560EF76E0CE0182960E94631566EE1A
:1044300076E0CE0182960E9463156CED76E0CE01A7
:1044400082960E94631569EA76E0CE0182960E9408
:10445000631561EA76E0CE0182960E9463156AE9EF
:1044600076E0CE0182960E94631560E576E0CE018B
:1044700082960E94631566E276E0CE0182960E94E3
:1044800063156AE0CE0101960E9482196FEC71E01B
:10449000CE018F960E94C816BE016F5F7F4FCE017E
:1044A0008F960E94701760E472E00E945A17BC0158
:1044B000CE0182960E945115CE018F960E94BB10AC
:1044C000CE0101960E94BB1064E6CE0101960E94C7
:1044D000821966E472E0CE018F960E94C816BE0172
:1044E0006F5F7F4FCE018F960E94701760E472E07D
:1044F0000E945A17BC01CE0182960E945115CE012E
:104500008F960E94BB10CE0101960E94BB1066EEF2
:1045100075E0CE0182960E9463156AED75E0CE01CA
:1045200082960E94631562EC71E08CE194E00E9437
:104530008316882331F066EA75E0CE0182960E94E8
:1045400063156BEC71E08CE194E00E948316882384
:1045500031F064E775E0CE0182960E94631569E54B
:1045600075E0CE0182960E9463156EE275E0CE0181
:1045700082960E940C0A40903C0350903D0360904C
:104580003E0370903F03A3019201C301B2010E9458
:10459000972C6FEA72E081111AC073016201E894EE
:1045A000F7F82FEF3FEF4FE75FE7C701B6010E9433
:1045B000972C811148C02FEF3FEF4FE75FE7C7010E
:1045C000B6010E941F2A1816F4F563EB72E0CE01C3
:1045D00082960E94931469E275E0CE0182960E9451
:1045E00063156CEB74E0CE0182960E9463156BE854
:1045F00074E0CE0182960E94631561E874E0CE01FA
:1046000082960E94631569E774E0CE0182960E944B
:10461000631561E774E0CE0182960E94631561E044
:1046200070E080E090E00E94D906CE0182960E9460
:104630003B0CCE01CB960E94BB100FB6F8943EBE49
:104640000FBE2DBEA8CC2FEF3FEF4FE75FE4C301B5
:10465000B2010E94922C18161CF467EB72E0B7CFDF
:104660002FEF3FEF4FE75FECC301B2010E941F2A1B
:1046700087FDF3CF20E030E0A901C301B2010E9421
:104680001F2A87FF09C06DE2CE0182960E94F609BB
:1046900077FA709477F870942AE037ED43EA5BE399
:1046A000C301B2010E94F72B6B017C010E94632CB5
:1046B0002B013C010E94242A9B01AC01C701B601D9
:1046C0000E94F62B6B017C012AE0B301A201CE010E
:1046D00082960E94A2146EE2CE0182960E94F60992
:1046E00020E030E040E251E4C701B6010E94852A93
:1046F0006B017C010E94632C2B01712C612C2AE040
:10470000B301A201CE0182960E94A214C301B2019C
:104710000E94242A9B01AC01C701B6010E94F62B1E
:1047200020E030E040E251E40E94852A0E94632CA0
:10473000AB0170E060E02AE0CE0182960E94A214F4
:104740004ACFB801CE0101960E94C8166BEB72E009
:10475000CE0101960E948316D82ECE0101960E94AA
:10476000BB10DD2009F483C061E674E0CE018296BF
:104770000E94631569E474E0CE0182960E9463157D
:10478000CE0182960E94381567E474E0CE018296CD
:104790000E94631569E374E0CE0182960E940C0AC0
:1047A0006AE0CE0101960E948219BE016F5F7F4FC1
:1047B000CE0182960E94E90ECE0101960E94BB10A6
:1047C00067E374E0CE0182960E94631561E274E0B3
:1047D000CE0182960E940C0A64E6CE0101960E94E8
:1047E0008219BE016F5F7F4FCE0182960E94E90E53
:1047F000CE0101960E94BB106FE174E0CE0182965B
:104800000E94631569E074E0CE0182960E940C0A52
:1048100060913C0370913D0380913E0390913F0372
:1048200018AA1FA61AAA19AA1CAA1BAA8E010F5FF2
:104830001F4F22E044E00E948525009799F0BC01BB
:10484000CE018F960E940317BE01615D7F4FCE019E
:1048500082960E945115CE018F960E94BB1067E090
:1048600074E0D9CECE018F960E94A910EDCFB80189
:10487000CE0101960E94C81666EC72E0CE01019648
:104880000E948316D82ECE0101960E94BB10D11033
:10489000CCCEB801CE01C5960E94C81663ED72E079
:1048A000CE0101960E94C8164D815E8189AD9AADF8
:1048B0008417950780F08DA99EA9009761F0698102
:1048C0007A816115710539F00E94DE2EDD24D394C2
:1048D000892B09F0D12CCE0101960E94BB10DD205E
:1048E00009F4F7C060E671E0C8010E944B260E94FF
:1048F0003C1560E671E090E080E00E944B266EE59A
:1049000071E00E944B266C016EE571E090E080E062
:104910000E944B268C016CE571E0C6010E944B267B
:104920006CE571E090E080E00E944B266C016CE544
:1049300071E0C8010E944B266CE571E090E080E0D8
:104940000E944B268C01B601CE0101960E94C8162A
:10495000BE016F5F7F4F8AE00E94CB19CE010196A6
:104960000E94BB10B801CE0101960E94C816BE017C
:104970006F5F7F4F84E60E94CB19CE0101960E94A3
:10498000BB1067EF73E0CE0182960E9463156FED56
:1049900073E0CE0182960E946315CE0182960E943A
:1049A00038156FEC73E0CE0182960E94631568ECB7
:1049B00073E0CE0182960E94631561EC73E0CE0134
:1049C00082960E9463156AEA73E0CE0182960E9485
:1049D000631569E773E0CE0182960E94631566E471
:1049E00073E0CE0182960E9463156EE373E0CE0100
:1049F00082960E94631567E373E0CE0182960E945F
:104A0000631565E073E0CE0182960E946315B601DE
:104A1000CE0101960E94C81660EE72E0CE018F961C
:104A20000E94C816BE016F5F7F4FCE018F960E9415
:104A3000701762E073E00E945A17BC01CE018296A3
:104A40000E945115CE018F960E94BB10CE01019697
:104A50000E94BB10B801CE0101960E94C81668E002
:104A600073E0CE018F960E94C816BE016F5F7F4F24
:104A7000CE018F960E94701762E073E00E945A1771
:104A8000BC01CE0182960E945115CE018F960E94E4
:104A9000BB10CE0101960E94BB1065ED72E0CE0105
:104AA00082960E9463156DEC72E0CE0182960E94A0
:104AB000631565EC72E0CE0182960E94631561E099
:104AC00070E080E090E00E94D906CE0182960E94BC
:104AD0003B0CCE01C5960E94BB10ABCDA0E0B0E070
:104AE000AB2B09F479C90E949405882309F474C991
:104AF0000E9400006BC91D3010F00C947C1C0C94BB
:104B0000891C8CE194E00C94BB10EF920F931F93DF
:104B1000CF93DF93E80134E047FD34E1042E000C2D
:104B2000550B57FF03C0519541955109E32E022FB4
:104B3000242FAE010E947726CE01DF91CF911F91E5
:104B40000F91EF9008958F929F92AF92BF92CF9264
:104B5000DF92EF92FF92CF93DF93EC01688179812E
:104B60008A819B81611571058105910521F464E2BB
:104B700079ED8BE597E02DE133EF41E050E00E94C5
:104B80005C2B49015A019B01AC01A7EAB1E40E94E8
:104B90007B2B6B017C01ACEEB4EFA50194010E946C
:104BA000892BC60ED71EE81EF91EF7FE06C081E04F
:104BB000C81AD108E10880E8F80AC882D982EA82D6
:104BC000FB82C701B6019F77DF91CF91FF90EF90F5
:104BD000DF90CF90BF90AF909F908F9008958F926D
:104BE0009F92AF92BF92CF92DF92EF92FF9260912D
:104BF00008017091090180910A0190910B016115E2
:104C000071058105910521F464E279ED8BE597E06A
:104C10002DE133EF41E050E00E945C2B49015A0145
:104C20009B01AC01A7EAB1E40E947B2B6B017C01E4
:104C3000ACEEB4EFA50194010E94892BC60ED71EDD
:104C4000E81EF91EF7FE06C081E0C81AD108E10887
:104C500080E8F80AC0920801D0920901E0920A01A6
:104C6000F0920B01C701B6019F77FF90EF90DF90A4
:104C7000CF90BF90AF909F908F9008956093080160
:104C80007093090180930A0190930B0108956627A0
:104C900077270C94D6274FE454E00E9450260895BD
:104CA000FA01A191B081009719F41097E1F0CD01BC
:104CB000DC01CD010D90002011F4C00113C0FB01F7
:104CC0002191222319F02015D9F7F3CFFB0121916F
:104CD000201519F41E92119606C02223C1F70D90DB
:104CE0000020A1F7D001FA01A193B0830895A9E0B3
:104CF000B0E0EDE7F6E20C94942B6A01F22EB02EB0
:104D0000102FFBE3AF2EA01608F41BE31F5F012F4B
:104D100027E0AE014F5F5F4F0E942629BC018981C9
:104D2000982F9970913009F43FC09BE2E1FC04C0D8
:104D30009E2D9170E0FC3AC05E2D5071E82FE87016
:104D400083FF46C084E0911101C083E0EF2DE81B92
:104D50008F1508F0E0E0D6018E2F20E2552351F1A7
:104D6000992329F0D6019C93C60101966C01960106
:104D70002D5F3F4FE2FE24C08EE4D6018C9391E478
:104D800011969C93119712968C93D9018E2F90E2D5
:104D900081111BC0E20FF32FF11D10828EEF9FEFE8
:104DA0002996ECE00C94B02B9DE2C6CF90E2C4CFE4
:104DB0002D9381508111FCCFCE0ED11CE0E0D0CFDD
:104DC0008EE6D6018C9391E6DBCF9D938150E0CFA8
:104DD000482F447082FF3DC084E0911101C083E000
:104DE0008F1510F4EF2DE81BD6018E2F20E25523EE
:104DF00009F1992329F0D6019C93C60101966C0113
:104E000096012D5F3F4FE2FE1BC089E4D6018C93D3
:104E10008EE411968C93119786E412968C93D901A7
:104E20008E2F90E2882309F4B5CF9D938150FACF5D
:104E30002D9381508111FCCFCE0ED11CE0E0D9CF53
:104E400089E6D6018C938EE611968C93119786E6AF
:104E5000E4CF9B0177FF02C030E020E0A1E0B0E0AA
:104E6000911102C0B0E0A0E0F9013196AE0FBF1F72
:104E70008B2C912CBB2009F461C05401EFEFAE1ACA
:104E8000BE0AAA0DBB1DFA161B0619F014F04F2D11
:104E90004A1B511188C0E3FC59C07601A42FB0E22F
:104EA000A1114FC0C40ED11C992309F45BC040E08E
:104EB000D6011196F60190836D01552309F448C07F
:104EC000012F060F9A81582F507184FF03C0913330
:104ED00009F4015010160CF047C0093008F008E042
:104EE000EEE2FE2E5B01A01AB10885019194819437
:104EF00091082F3F320729F4D601FC92F601319632
:104F00006F016217730794F1021713077CF5DB0139
:104F1000A21BB30BAA24A394B12CAC0EBD1EAA0DE8
:104F2000BB1D11968C9121503109D601119628157F
:104F30003905F4F0F60180836D01DBCFB12CA12C93
:104F4000A0CFF701B1937F01A150AACF9111B0CFAB
:104F5000D601942F50E302C05D9391509111FCCF84
:104F6000C40ED11C40E0ACCF01E0BACF80E3DBCF70
:104F70006217730731F4963388F4953311F455238F
:104F800069F0F6018083FD01842F90E2811108C051
:104F9000A40FB11D1C9290E080E002CF81E3F1CF1D
:104FA00091938150F3CF911183CF8ACFB0E0A0E0ED
:104FB000ECEDF7E20C94942B5C017B01611571051B
:104FC00019F0DB018D939C9385010F5F1F4FF50155
:104FD000D0818D2F90E00E94FE296C01892BB9F5BC
:104FE000DD32B9F50F5F1F4FD5011196DC91C1E09D
:104FF0005801F1E0AF1AB10843E050E060E770E01B
:10500000C5010E94072A892B69F5680182E0C80E54
:10501000D11C45E050E06BE670E0C6010E94072A13
:10502000892B21F4680197E0C90ED11CE114F10429
:1050300019F0D701CD92DC9260E070E080E89FEF3C
:10504000C111FFC060E070E080E89FE7FAC058013E
:10505000BBCFDB3229F485010E5F1F4FF501D181F3
:10506000C0E0C6CF43E050E068E670E0C5010E94B2
:10507000072A892BE9F0F80110E000E020E030E099
:10508000A9015F01B0ED8B2E8D0E89E08815C8F166
:105090009C2E689491F88C2F8870C2FF16C08111E5
:1050A00002C00F5F1F4F3196D501DC91C92DE9CFAA
:1050B000E114F10429F00E5F1F4FF7011183008303
:1050C00060E070E080EC9FE7BCC0882311F00150E5
:1050D0001109A5E0B0E00E947B2B9B01AC01220FDF
:1050E000331F441F551F280D311D411D511D2839E7
:1050F00099E93907490799E15907A8F2C6609C2E3A
:10510000D2CFAEEF8A1206C0C3FD3CC09C2E68947D
:1051100093F8C9CFDF7DD534A9F580818D3239F47C
:10512000C061DF011296818162E070E006C0DF019C
:105130008B32C1F3119661E070E080535D01A61AD5
:10514000B70A8A30F8F4E0E8CE16ECE0DE065CF44C
:10515000B601660F771F660F771FC60ED71ECC0CE1
:10516000DD1CC80ED11C5D01FFEFAF1ABF0A8C9188
:1051700080538A30A8F1C4FF03C0D194C194D108F0
:105180000C0D1D1DC1FF09C0E114F10431F081E0D7
:10519000A81AB108D701AD92BC92CA01B9010E9408
:1051A000242AC370C33009F490584B015C0120E0FD
:1051B00030E0A9010E941F2A882309F440C0CFE9EA
:1051C000D0E017FF05C0119501951109C7E8D0E09F
:1051D0006E01B8E1CB1AD10880E2E82EF12C0FC0A5
:1051E000D501B1CFFE0125913591459154910E190C
:1051F0001F09C501B4010E94852A4B015C01D5013C
:10520000C4010E151F0574F72497F594E794CC1686
:10521000DD06A9F78A2F880F8B2F881F8F3F49F053
:1052200020E030E0A901C501B4010E941F2A8111CC
:1052300006C082E290E09093520480935104C5012D
:10524000B401CDB7DEB7ECE00C94B02B283008F0F9
:1052500027E03327DA01990F311D87FD9160009611
:105260006105710539F432602E5F3D9330E32A9574
:10527000E1F708959F3F30F080387105610509F02E
:105280003C5F3C5F3D93913008F08068911DDF9357
:10529000CF931F930F93FF92EF92192F987F9695BC
:1052A000E92F96959695E90FFF27E350FF4F992731
:1052B0003327EE24FF24A701E70105900894079403
:1052C00028F4360FE71EF81E491F511D660F771F81
:1052D000881F991F0694A1F70590079428F4E70EFC
:1052E000F81E491F561FC11D770F881F991F661F83
:1052F0000694A1F70590079428F4F80E491F561F4D
:10530000C71FD11D880F991F661F771F0694A1F72D
:105310000590079420F4490F561FC71FD81F990FF7
:10532000661F771F881F0694A9F784911095177040
:1053300041F0D695C79557954795F794E7941A95F8
:10534000C1F7E3EAF0E06894159015913591659105
:10535000959105907FE27395E118F10A430B560B86
:10536000C90BD009C0F7E10CF11E431F561FC91F1E
:10537000D01D7EF4703311F48A95E6CFE894015085
:1053800030F0080F0AF40027021708F4202F2395A5
:10539000022F7A3328F079E37D932A95E9F710C03C
:1053A0007D932A9589F60694979567953795179575
:1053B0001794E118F10A430B560BC90BD00998F06A
:1053C00023957E9173957A3308F070E37C932013D4
:1053D000B8F77E9170617D9330F0839571E37D9392
:1053E00070E32A95E1F71124EF90FF900F911F9140
:1053F000CF91DF91992787FD9095089591110C9495
:10540000F22A803219F089508550C8F70895FB01BF
:10541000DC014150504088F08D9181341CF08B3577
:105420000CF4805E659161341CF06B350CF4605EA9
:10543000861B611171F3990B0895881BFCCF0E94A4
:10544000612A08F481E00895E89409C097FB3EF4CE
:1054500090958095709561957F4F8F4F9F4F9923C1
:10546000A9F0F92F96E9BB279395F695879577953F
:105470006795B795F111F8CFFAF4BB0F11F460FFFF
:105480001BC06F5F7F4F8F4F9F4F16C0882311F057
:1054900096E911C0772321F09EE8872F762F05C06B
:1054A000662371F096E8862F70E060E02AF09A9506
:1054B000660F771F881FDAF7880F9695879597F9FB
:1054C0000895990F0008550FAA0BE0E8FEEF161695
:1054D0001706E807F907C0F012161306E407F507E8
:1054E00098F0621B730B840B950B39F40A2661F05C
:1054F000232B242B252B21F408950A2609F4A140FF
:10550000A6958FEF811D811D08950E94982A0C9405
:105510000C2B0E94FE2A38F00E94052B20F09523C8
:1055200011F00C94F52A0C94FB2A11240C94402BB6
:105530000E941D2B70F3959FC1F3950F50E0551FEE
:10554000629FF001729FBB27F00DB11D639FAA27D8
:10555000F00DB11DAA1F649F6627B00DA11D661F27
:10556000829F2227B00DA11D621F739FB00DA11D48
:10557000621F839FA00D611D221F749F3327A00D02
:10558000611D231F849F600D211D822F762F6A2F9E
:1055900011249F5750409AF0F1F088234AF0EE0F03
:1055A000FF1FBB1F661F771F881F91505040A9F730
:1055B0009E3F510580F00C94F52A0C94402B5F3FE0
:1055C000E4F3983ED4F3869577956795B795F7956C
:1055D000E7959F5FC1F7FE2B880F911D96958795E4
:1055E00097F9089599278827089597F99F6780E884
:1055F00070E060E008959FEF80EC089500240A9425
:105600001616170618060906089500240A9412169D
:105610001306140605060895092E0394000C11F4D0
:10562000882352F0BB0F40F4BF2B11F460FF04C07D
:105630006F5F7F4F8F4F9F4F089557FD9058440FD6
:10564000551F59F05F3F71F04795880F97FB991FE1
:1056500061F09F3F79F0879508951216130614069E
:10566000551FF2CF4695F1DF08C01616170618062B
:10567000991FF1CF86957105610508940895E89406
:10568000BB2766277727CB0197F90895F999FECFB5
:1056900092BD81BDF89A992780B50895262FF99972
:1056A000FECF1FBA92BD81BD20BD0FB6F894FA9A05
:1056B000F99A0FBE01960895052E97FB1EF40094EB
:1056C0000E94732B57FD07D00E94C52B07FC03D007
:1056D0004EF40C94732B50954095309521953F4F87
:1056E0004F4F5F4F089590958095709561957F4FCE
:1056F0008F4F9F4F08950E94E72BA59F900DB49F59
:10570000900DA49F800D911D11240895B7FF0C9456
:105710007B2B0E947B2B821B930B08952F923F9231
:105720004F925F926F927F928F929F92AF92BF92B1
:10573000CF92DF92EF92FF920F931F93CF93DF935D
:10574000CDB7DEB7CA1BDB0B0FB6F894DEBF0FBEBA
:10575000CDBF09942A88398848885F846E847D8407
:105760008C849B84AA84B984C884DF80EE80FD8009
:105770000C811B81AA81B981CE0FD11D0FB6F8947F
:10578000DEBF0FBECDBFED010895A1E21A2EAA1B08
:10579000BB1BFD010DC0AA1FBB1FEE1FFF1FA217E1
:1057A000B307E407F50720F0A21BB30BE40BF50BDE
:1057B000661F771F881F991F1A9469F76095709567
:1057C000809590959B01AC01BD01CF010895A29FEA
:1057D000B001B39FC001A39F700D811D1124911DC5
:1057E000B29F700D811D1124911D08955058BB2743
:1057F000AA270E940E2C0C940C2B0E94FE2A38F033
:105800000E94052B20F039F49F3F19F426F40C94E4
:10581000FB2A0EF4E095E7FB0C94F52AE92F0E9491
:105820001D2B58F3BA17620773078407950720F0FA
:1058300079F4A6F50C943F2B0EF4E0950B2EBA2FBD
:10584000A02D0B01B90190010C01CA01A001112486
:10585000FF27591B99F0593F50F4503E68F11A1632
:10586000F040A22F232F342F4427585FF3CF4695C3
:1058700037952795A795F0405395C9F77EF41F16E5
:10588000BA0B620B730B840BBAF09150A1F0FF0FAF
:10589000BB1F661F771F881FC2F70EC0BA0F621F9B
:1058A000731F841F48F4879577956795B795F7958B
:1058B0009E3F08F0B0CF9395880F08F09927EE0F20
:1058C0009795879508950E94252B88F09F5798F00B
:1058D000B92F9927B751B0F0E1F0660F771F881FF5
:1058E000991F1AF0BA95C9F714C0B13091F00E940F
:1058F0003F2BB1E008950C943F2B672F782F88271A
:10590000B85F39F0B93FCCF3869577956795B39535
:10591000D9F73EF490958095709561957F4F8F4FA4
:105920009F4F08950E94612A08F48FEF08950E9406
:10593000612A880B990B089597FB072E16F40094A3
:1059400007D077FD09D00E94B72C07FC05D03EF4A4
:10595000909581959F4F0895709561957F4F08951B
:105960006927962769277827872778270895AA1B0C
:10597000BB1B51E107C0AA1FBB1FA617B70710F03A
:10598000A61BB70B881F991F5A95A9F7809590956C
:10599000BC01CD010895EE0FFF1F0590F491E02D9D
:1059A00009940F931F93CF93DF938230910510F4E6
:1059B00082E090E0E0915504F091560430E020E060
:1059C000B0E0A0E0309799F42115310509F44AC000
:1059D000281B390B24303105D8F58A819B8161154C
:1059E000710589F1FB0193838283FE0111C040811F
:1059F00051810281138148175907E0F04817590770
:105A000099F4109761F012960C93129713961C93C9
:105A10003296CF01DF91CF911F910F91089500939E
:105A2000550410935604F4CF2115310551F0421757
:105A3000530738F0A901DB019A01BD01DF01F8012C
:105A4000C1CFEF01F9CF9093560480935504CDCF89
:105A5000FE01E20FF31F81939193225031093983A4
:105A60002883D7CF2091530430915404232B41F441
:105A700020910E0130910F01309354042093530470
:105A800020910C0130910D012115310541F42DB704
:105A90003EB74091100150911101241B350BE0914C
:105AA0005304F0915404E217F307A0F42E1B3F0BAC
:105AB0002817390778F0AC014E5F5F4F2417350780
:105AC00048F04E0F5F1F509354044093530481934A
:105AD00091939FCFF0E0E0E09CCFCF93DF930097CE
