:100000000C94E4040C940C050C940C050C940C0555
:100010000C940C050C940C050C940C050C940C051C
:100020000C940C050C940C050C940C050C940C050C
:100030000C940C050C940C050C940C050C940C05FC
:100040000C9449180C940C050C9417180C94F11787
:100050000C940C050C940C050C940C050C940C05DC
:100060000C940C050C940C054E414E494E495459C4
:10007000494E46CDCCCC3D0AD7233C17B7D1387773
:10008000CC2B329595E6241FB14F0A000020410089
:1000900000C84200401C4620BCBE4CCA1B0E5AAED3
:1000A000C59D7400407A10F35A00A0724E180900E2
:1000B00010A5D4E80000E87648170000E40B5402CD
:1000C0000000CA9A3B000000E1F505000080969808
:1000D00000000040420F000000A086010000001058
:1000E0002700000000E8030000000064000000009A
:1000F000000A00000000000100000000002C76D87B
:1001000088DC674F0823DFC1DFAE59E1B1B796E560
:10011000E3E453C63AE651997696E8E6C28426EBC4
:10012000898C9B62ED407C6FFCEFBC9C9F40F2BAD7
:10013000A56FA5F490055A2AF75C936B6CF9676D6F
:10014000C11BFCE0E40D47FEF520E6B500D0ED90C4
:100150002E0300943577050080841E080000204E91
:100160000A000000C80C333333330F986E1283112A
:1001700041EF8D2114893BE65516CFFEE6DB18D101
:10018000844B381BF77C1D901DA4BBE424203284D3
:10019000725E228100C9F124ECA1E53D27005EBC1E
:1001A000E2613FDD83C29C7E20A3FD1F419DC321F0
:1001B0007FFCA2401E5F01E3BD3E6082DC237D9F89
:1001C000C1421CFEA0E1BF5D0380DE3C62BEE002D6
:1001D0005CDF81633D7C22C09E1D43A1FF4618FA6F
:1001E000A427799BC584DA3866E5BB5907DB8567A8
:1001F00039BAE406581947A5FB7826C49A653BD955
:1002000087045AB8E6A7F91B45C6987A24F8A6448D
:100210001A99C7257B3A6486D85B05E7B98CD2303A
:100220006EEDB3510F4E10F2AC2F7193CD114FAD57
:10023000F3702ECC92D38D6F31B2EC0E50AFF11320
:100240004DCE90722C6D33D18F0C52B0EE326C8E3D
:10025000D0530DEFB1F0AE4C1291CF2D73CA9476FE
:1002600028ABF517490856B4EA6937D58B5709EB1F
:10027000B536688AD495CB2977F4AA4816E9B755DC
:100280000B88D6346A2B7597C94A14F6A8742AC805
:1002900096154BA9F7B6E80A54D7896B35000000CC
:1002A00000250028002B00000000080002010000CB
:1002B00003040700000000000000003C2F68746D7C
:1002C0006C3E003C2F626F64793E003C623E50728F
:1002D00065736D65726F76616E69652E2E2E205086
:1002E000726F73696D2063616B616A74653C2F6224
:1002F0003E3C2F63656E7465723E003C63656E74B0
:1003000065723E3C68333E5365727665722070724A
:10031000696A616C2064617461207A20666F726D15
:10032000756CC3A172613A3C2F68333E003C626F2A
:1003300064793E003C2F686561643E003C746974DA
:100340006C653E48545450207765627365727665DB
:1003500072202D2041726475696E6F202B204574C8
:100360006865726E65743C2F7469746C653E003C00
:100370006D65746120687474702D65717569763D62
:1003800027526566726573682720636F6E74656EA9
:10039000743D27353B2075726C3D2F27202F3E0082
:1003A0003C6D65746120636861727365743D277587
:1003B00074662D38273E003C686561643E003C68E9
:1003C000746D6C3E003C21444F43545950452068A5
:1003D000746D6C3E00436F6E74656E742D5479704D
:1003E000653A20746578742F68746D6C00485454B5
:1003F000502F312E3120323030204F4B007D0022E3
:1004000041637475616C5F54656D7065726174757C
:100410007265223A002C00225461726765745F5441
:10042000656D7065726174757265223A002C0022E8
:1004300048797374657265736973223A007B00436F
:100440006F6E74656E742D547970653A207465789A
:10045000742F68746D6C00485454502F312E312025
:10046000323030204F4B003C2F68746D6C3E003CA6
:100470002F626F64793E003C2F63656E7465723E37
:10048000003C68343E5665727A6961206672656523
:10049000202D20312E302E31206275696C643A2077
:1004A00030322E2053657020323032303C2F683489
:1004B0003E003C68333E4175746F723A204D617264
:1004C00074696E2043686C65626F766563202D20C9
:1004D0006D617274696E697573393640676D6169F3
:1004E0006C2E636F6D202D2068747470733A2F2FFB
:1004F0006D617274696E69757339362E67697468D7
:1005000075622E696F2F7465726D6F737461742DCF
:1005100065746865726E65742F3C2F68333E0020E9
:10052000C2B043003C623E416B7475C3A16C6E6106
:10053000207465706C6F74612073656E7A6F726180
:1005400020445331384232303A3C2F623E20003C46
:100550006469762069643D22636F756E74646F7799
:100560006E223E3C2F6469763E003C623E3C666FE4
:100570006E7420636F6C6F723D27726564273E5600
:10058000C3BD737475703A205679706E7574C3BDAF
:100590003C2F666F6E743E3C2F623E003C623E3CD8
:1005A000666F6E7420636F6C6F723D27677265654E
:1005B0006E273E56C3BD737475703A205A61706ED3
:1005C0007574C3BD3C2F666F6E743E3C2F623E0057
:1005D0003C2F666F726D3E3C68723E003C696E70E7
:1005E000757420747970653D277375626D69742721
:1005F00020636C6173733D2762746E2062746E2D8C
:1006000073756363657373272076616C75653D2729
:100610005A6170C3AD7361C5A5273E003C666F7219
:100620006D20616374696F6E3D272F616374696F1C
:100630006E2E68746D6C27206D6574686F643D273D
:10064000676574273E003C63656E7465723E3C6866
:10065000333E5A6164616A74652064C3A174612089
:1006600070726520776562736572766572202862A4
:100670007564C3BA20756C6FC5BE656EC3A920646E
:100680006F20454550524F4D293A3C2F68333E006C
:100690003C626F64793E003C2F686561643E003CBB
:1006A0007469746C653E4854545020776562736574
:1006B00072766572202D2041726475696E6F202BF1
:1006C0002045746865726E65743C2F7469746C653E
:1006D0003E003C2F7363726970743E007D2C2031A4
:1006E000303030293B0074696D656C656674202D6F
:1006F0003D20313B007D00646F63756D656E742E27
:10070000676574456C656D656E744279496428222D
:10071000636F756E74646F776E22292E696E6E65D5
:100720007248544D4C203D2074696D656C6566744B
:10073000202B20222073656BC3BA6E6420646F2067
:100740007265C5A17461727475223B007D20656C71
:100750007365207B00646F63756D656E742E6765CD
:1007600074456C656D656E74427949642822636FC7
:10077000756E74646F776E22292E696E6E6572488D
:10078000544D4C203D20225265C5A1746172742ED7
:100790002E2E223B00636C656172496E7465727621
:1007A000616C28646F776E6C6F616454696D6572FB
:1007B000293B0069662874696D656C656674203C28
:1007C0003D2030297B0076617220646F776E6C6FFC
:1007D000616454696D6572203D20736574496E745F
:1007E000657276616C2866756E6374696F6E282910
:1007F0007B007661722074696D656C656674203D5E
:100800002031303B003C73637269707420747970DE
:10081000653D27746578742F6A61766173637269C8
:100820007074273E003C6C696E6B2072656C3D27CE
:100830007374796C65736865657427206872656682
:100840003D2768747470733A2F2F6D617863646EFE
:100850002E626F6F74737472617063646E2E636F57
:100860006D2F626F6F7473747261702F332E342E1C
:10087000312F6373732F626F6F7473747261702E94
:100880006D696E2E637373273E003C6D6574612045
:100890006E616D653D2776696577706F727427208C
:1008A000636F6E74656E743D2777696474683D6428
:1008B00065766963652D77696474682C20696E6953
:1008C0007469616C2D7363616C653D31273E003C3A
:1008D0006D65746120687474702D65717569763DFD
:1008E00027526566726573682720636F6E74656E44
:1008F000743D273130273B202F3E003C6D657461ED
:10090000206E616D653D27617574686F7227206385
:100910006F6E74656E743D274D617274696E20430D
:10092000686C65626F766563273E003C6D65746137
:1009300020636861727365743D277574662D38276E
:100940003E003C686561643E003C68746D6C3E002E
:100950003C21444F43545950452068746D6C3E000F
:10096000436F6E74656E742D547970653A207465AA
:1009700078742F68746D6C00485454502F312E31A8
:1009800020323030204F4B000000000024002700B0
:100990002A000000000023002600290004040404AB
:1009A0000404040402020202020203030303030319
:1009B00001020408102040800102040810200102F6
:1009C000040810209318C22011241FBECFEFD8E0D6
:1009D000DEBFCDBF13E0A0E0B1E0E4EDF2E502C080
:1009E00005900D92AA31B107D9F724E0AAE1B3E04E
:1009F00001C01D92A135B207E1F714E0C3EED4E0C7
:100A000004C02197FE010E943A27C23ED107C9F7D0
:100A10000E946E190C945D290C94000008950895AD
:100A200021E0FC018485883009F420E0822F0895BC
:100A3000AF92BF92CF92DF92EF92FF920F931F93EC
:100A4000CF93DF936C017B018B01040F151FEB012A
:100A50005E01AE18BF08C017D10759F06991D601E1
:100A6000ED91FC910190F081E02DC6010995892B53
:100A700079F7C501DF91CF911F910F91FF90EF9012
:100A8000DF90CF90BF90AF900895FC01538D448DBF
:100A9000252F30E0842F90E0821B930B541710F029
:100AA000CF96089501970895FC01918D828D981736
:100AB00061F0A28DAE0FBF2FB11D5D968C91928D0E
:100AC0009F5F9F73928F90E008958FEF9FEF08953F
:100AD000FC01918D828D981731F0828DE80FF11D08
:100AE000858D90E008958FEF9FEF0895FC01918D23
:100AF000228D892F90E0805C9F4F821B91098F731C
:100B00009927089580E493E00E94760521E0892BDF
:100B100009F420E0822F089580E090E0892B29F0ED
:100B20000E94820581110C9400000895FC01A48D9F
:100B3000A80FB92FB11DA35ABF4F2C91848D90E0FF
:100B400001968F739927848FA689B7892C93A089E2
:100B5000B1898C91837080648C93938D848D98136C
:100B600006C00288F389E02D80818F7D80830895FF
:100B7000EF92FF920F931F93CF93DF93EC0181E0ED
:100B8000888F9B8D8C8D98131AC0E889F989808194
:100B900085FF15C09FB7F894EE89FF896083E889C7
:100BA000F98980818370806480839FBF81E090E0B9
:100BB000DF91CF911F910F91FF90EF900895F62E46
:100BC0000B8D10E00F5F1F4F0F731127E02E8C8DE0
:100BD0008E110CC00FB607FCFACFE889F989808125
:100BE00085FFF5CFCE010E949605F1CFEB8DEC0F7E
:100BF000FD2FF11DE35AFF4FF0829FB7F8940B8F42
:100C0000EA89FB8980818062CFCFCF93DF93EC01AB
:100C1000888D8823B9F0AA89BB89E889F9898C91E4
:100C200085FD03C0808186FD0DC00FB607FCF7CFA0
:100C30008C9185FFF2CF808185FFEDCFCE010E94A0
:100C40009605E9CFDF91CF91089590E0FC01E95539
:100C5000FD4F2491FC01E055F64F3491FC01E45620
:100C6000F64FE491EE23C9F0222339F0233001F14D
:100C7000A8F4213019F1223029F1F0E0EE0FFF1F26
:100C8000E356FD4FA591B4918FB7F894EC916111A3
:100C900026C030953E233C938FBF08952730A9F09E
:100CA0002830C9F0243049F7809180008F7D03C03F
:100CB000809180008F7780938000DFCF84B58F771D
:100CC00084BDDBCF84B58F7DFBCF8091B0008F7763
:100CD0008093B000D2CF8091B0008F7DF9CF3E2BB2
:100CE000DACFCF93DF9390E0FC01E055F64F2491EB
:100CF0008456964FFC0184918823D1F090E0880FB0
:100D0000991FFC01E857F64FA591B491FC01E356F9
:100D1000FD4FC591D49161110EC09FB7F8948C918D
:100D2000E22FE0958E238C932881E223E8839FBFF6
:100D3000DF91CF9108958FB7F894EC91E22BEC936B
:100D40008FBFF6CF3FB7F894809120039091210395
:100D5000A0912203B091230326B5A89B05C02F3F85
:100D600019F00196A11DB11D3FBFBA2FA92F982FD1
:100D70008827BC01CD01620F711D811D911D42E0CC
:100D8000660F771F881F991F4A95D1F708958F9294
:100D90009F92AF92BF92CF92DF92EF92FF926B0140
:100DA0007C010E94A2064B015C01C114D104E10444
:100DB000F104B9F00E94A206681979098A099B0911
:100DC000683E73408105910580F321E0C21AD10885
:100DD000E108F10888EE880E83E0981EA11CB11C82
:100DE000E4CFFF90EF90DF90CF90BF90AF909F90B7
:100DF0008F9008952FB7F89460911C0370911D0394
:100E000080911E0390911F032FBF0895DC0180E0A5
:100E1000615038F0ED91E827F0E0E356FE4F849101
:100E2000F7CF0895DC012C911196ED91FC91F89487
:100E30008181822B81839281322F309593239283FB
:100E400087E090E00197F1F781818323818383E23A
:100E500090E00197F1F790817894EFECF0E0319712
:100E6000F1F7922381E009F480E00895FC0190817C
:100E70000180F281E02D292F209560FF14C0F894A5
:100E80008281822382838181892B8183A3E2B0E0E6
:100E90001197F1F78281982B9283789487ED90E0F7
:100EA0000197F1F70895F8948281822382838181EA
:100EB000892B8183AFEFB0E01197F1F78281982BF6
:100EC000928378948FE090E0EBCFDF92EF92FF92E5
:100ED0000F931F93CF93DF93EC01D62EE42E08E0FF
:100EE00010E0FF24F39461E08D2D8F2109F460E080
:100EF000CE010E943607FF0C01501109A1F7E11045
:100F000010C0F894E981FA819181888180958923C4
:100F10008183E981FA819281888180958923828306
:100F20007894DF91CF911F910F91FF90EF90DF9018
:100F30000895EF92FF920F931F93CF93DF938C014D
:100F40007B0140E065E50E946507E70188E0E80E67
:100F5000F11C699140E0C8010E946507CE15DF05CC
:100F6000C1F7DF91CF911F910F91FF90EF900895FE
:100F7000FC0190810180F281E02DF8948181292F7C
:100F800020958223818378943DE743E050E03150FF
:100F900029F1DA011197F1F780818923C1F3F894DF
:100FA0008281822382838181892B81837894ABE73C
:100FB000B7E01197F1F7F894818182238183A3E14F
:100FC000B1E01197F1F78081982381E009F080E08A
:100FD0007894E3E6F6E03197F1F7089580E008951C
:100FE000AF92BF92CF92DF92EF92FF920F931F9337
:100FF000CF93DF938B01BC0180912704909128044B
:101000000E94990740E06EEB80912704909128049C
:101010000E946507E801680189E0C80ED11CA09014
:101020002704B090280488E0E82EF12C10E001E0BD
:10103000C5010E9412078111102B000F81E0E81AF0
:10104000F108B1F71993CC16DD0649F78091270412
:10105000909128040E94B80791E0813009F090E057
:10106000892FDF91CF911F910F91FF90EF90DF902B
:10107000CF90BF90AF9008950F931F93CF93DF93BE
:10108000CDB7DEB729970FB6F894DEBF0FBECDBF40
:101090008C0180912704909128040E94B807811147
:1010A00002C080E01FC0BE016F5F7F4FC8010E9479
:1010B000F0078823B1F368E0CE0101960E9406078D
:1010C00099858913EECF8D818F33B9F020F48F315C
:1010D00041F789E007C08F3521F08F3711F78CE099
:1010E00001C08BE029960FB6F894DEBF0FBECDBFCE
:1010F000DF91CF911F910F9108958AE0F3CF61E0C6
:1011000080913D030C94250660E080913D030C9492
:10111000250608958EBD00000DB407FEFDCF8EB5E7
:1011200008958CBD9DBD0895DF92EF92FF920F93BD
:101130001F93CF93DF93D82FD92EC62F7A01890121
:101140008091DD039091DE030E9491080E94840843
:101150008D2D0E948A088D2F0E948A088C2F0E9454
:101160008A08E701E00EF11E80E00E948A08899358
:10117000EC16FD06C9F70E947F08C801DF91CF91E8
:101180001F910F91FF90EF90DF900895CF93DF9321
:10119000D82FC62F8091DD039091DE030E94910825
:1011A0000E94840880E00E948A088D2F0E948A088D
:1011B0008C2F0E948A0880E00E948A08C82F0E9413
:1011C0007F088C2FDF91CF910895DF92EF92FF92ED
:1011D0000F931F93CF93DF93D82FD92EC62F7A0169
:1011E00089018091DD039091DE030E9491080E94A5
:1011F00084088D2D0E948A088D2F0E948A088C2FCA
:101200000E948A08E701E00EF11ECE15DF0521F0ED
:1012100089910E948A08F9CF0E947F08C801DF9156
:10122000CF911F910F91FF90EF90DF9008951F9342
:10123000CF93DF93182FD62FC42F8091DD03909189
:10124000DE030E9491080E94840880E00E948A08C0
:10125000812F0E948A088D2F0E948A088C2F0E945D
:101260008A080E947F0881E0DF91CF911F91089545
:10127000CF92DF92EF92FF920F931F93CF93DF9362
:10128000CDB7DEB7C254D1090FB6F894DEBF0FBE9A
:10129000CDBFFC0182819381A481B58123968CAF5F
:1012A0009DAFAEAFBFAF239721E023962FAF23971B
:1012B00023964CAD5DAD6EAD7FAD23974BAB5CAB74
:1012C0006DAB7EAB89AF9AAFABAFBCAF8DA79EA71E
:1012D000AFA7B8AB28AB4DA55EA56FA578A94FA366
:1012E00058A769A77AA72EAB4BA95CA96DA97EA9BF
:1012F00049A35AA36BA37CA38B8F9C8FAD8FBE8F0A
:101300004EE851E05C8B4B8B3FEF3D8B3E8B3F8B30
:10131000188E5E874D872AA7CFA0D8A4E9A4FAA487
:10132000CF86D88AE98AFA8A2CA309A11AA12BA10F
:101330003CA109871A872B873C875A8349838B8373
:101340009C83AD83BE831091030410933D0368EE2C
:1013500073E080E090E00E94C70661E0812F0E9468
:1013600071061FB7F89480913C03811127C0E6EA0B
:10137000F9E08491EAEBF9E09491E82FF0E0EE0FC8
:10138000FF1FE857F64FA591B491EC91E92321F4A2
:1013900061E08AE00E94250661E08AE00E94710611
:1013A0008CB580618CBD8CB580648CBD61E08DE0B6
:1013B0000E94710661E08BE00E94710680913C03FF
:1013C0008F5F80933C031FBF60E090E080E00E944D
:1013D000C608482F406864E090E080E00E9417094A
:1013E0001CE088E0E82EF12C42E0612F8EE190E0D5
:1013F0000E94170942E0612F8FE190E00E941709D7
:10140000F1E0EF1AF108105EE114F10469F726E04B
:1014100030E046E051E064E089E090E00E94E508B9
:1014200024E030E0AE014D5F5F4F64E08FE090E07C
:101430000E94E50824E030E0AE01415F5F4F64E0C8
:1014400081E090E00E94E50824E030E0AE014B5ED0
:101450005F4F64E085E090E00E94E50881E08C87C2
:1014600089859A85AB85BC858093F9039093FA03AF
:10147000A093FB03B093FC03CE5BDF4F0FB6F89451
:10148000DEBF0FBECDBFDF91CF911F910F91FF90B7
:10149000EF90DF90CF9008959B018295880F807E1A
:1014A0006CE0680FC9010C941709CF93DF93EC012E
:1014B000898D9A8D892B41F0E881F9810284F38529
:1014C000E02DCE010995F4CFDF91CF910895CF9310
:1014D000DF931F92CDB7DEB76983DC01ED91FC91FC
:1014E0000280F381E02D41E050E0BE016F5F7F4F4D
:1014F00009950F90DF91CF9108951F93CF93DF93BC
:10150000FB01DC0158961C921E92579722812111F3
:1015100009C02381211106C02481211103C0258126
:10152000222339F14115510521F1EA01DC011C9614
:101530001C91AF014E5F5F4F612F6295660F607E19
:10154000645F24E030E08CE090E00E94E5084D2FDD
:1015500060E170E0812F0E944C0A4C2F61E170E045
:10156000812F0E944C0A81E090E0DF91CF911F9182
:10157000089590E080E0F9CFFC01818D928D08956F
:10158000FC018589968908952EE831E0FC013183BC
:101590002083FB014189528963897489FC0142835C
:1015A000538364837583089580E00895CF93DF9318
:1015B0001F92CDB7DEB76983DC01ED91FC9102800B
:1015C000F381E02D41E050E0BE016F5F7F4F099550
:1015D0000F90DF91CF9108950895FC019485FB0150
:1015E0008485981303C081E0983009F480E0089561
:1015F000CF93DF931F92CDB7DEB76983DC01ED9106
:10160000FC910280F381E02D41E050E0BE016F5F6C
:101610007F4F09950F90DF91CF910895EF92FF9240
:101620000F931F93CF93DF938C017B01D0E0C0E039
:10163000F701EC0FFD1F6491662339F0C8010E9489
:10164000F80A892B11F02196F3CFCE01DF91CF91CB
:101650001F910F91FF90EF900895DC01ED91FC91A7
:10166000028CF38DE02D099591E0892708959B0167
:101670008295880F807E68E0680FC9010C94C608C7
:10168000CF93C82F462F61E070E00E944C0A61E0C2
:1016900070E08C2F0E94370B8111F9CFCF91089504
:1016A000CF93C82F60E170E00E94400B4FEF62E0E3
:1016B00070E08C2FCF910C944C0A0F931F93CF9313
:1016C000DF93C82FD62F8A010E94500B4D2F70E058
:1016D00060E08C2F0E944C0A01151105B9F0412FD2
:1016E00064E070E08C2F0E944C0A402F65E070E0AF
:1016F0008C2F0E944C0A61E070E08C2F0E94400BFE
:1017000081E0DF91CF911F910F91089500913E03E9
:1017100010913F030F5F1F4F10933F0300933E0351
:10172000DECFCF93DF93EC018C85883061F00E948F
:10173000500BEC85F0E0EE0FFF1FEC5DFC4F1182CB
:10174000108288E08C87DF91CF910895BF92CF926D
:10175000DF92EF92FF920F931F93CF93DF93B82EF8
:101760006B017A01890164E270E00E94370BC82F97
:1017700065E270E08B2D0E94370BD0E0DC2FCC2788
:101780008C0D9D2D911DC80FD91F6B2D6295660F75
:10179000607E6C5E9801A701CE010E94E508C00F33
:1017A000D11F4D2F64E270E08B2D0E944C0A4C2F0C
:1017B00065E270E08B2DDF91CF911F910F91FF902B
:1017C000EF90DF90CF90BF900C944C0ACF92DF92B5
:1017D000EF92FF920F931F93CF93DF93D82E7B014D
:1017E0008A01C22E68E270E00E94370BC82FD0E059
:1017F000DC2FCC2769E270E08D2D0E94370BC80FDB
:10180000D11D6D2D6295660F607E685E9801A701FF
:10181000CE010E949408C11016C0C00FD11F4D2FD9
:1018200068E270E08D2D0E944C0A4C2F69E270E056
:101830008D2DDF91CF911F910F91FF90EF90DF9051
:10184000CF900C944C0ADF91CF911F910F91FF9094
:10185000EF90DF90CF9008950F931F93CF93DF9376
:101860001F92CDB7DEB78C01DC01ED91FC910084B5
:10187000F185E02D0995892B91F021E041E050E0C0
:10188000BE016F5F7F4FF80184850E94E60B89815E
:1018900090E00F90DF91CF911F910F9108958FEFFE
:1018A0009FEFF7CFCF93DF931F92CDB7DEB7FC0149
:1018B000218D328D8FEF9FEF232B59F021E041E0F6
:1018C00050E0BE016F5F7F4F84850E94E60B8981E7
:1018D00090E00F90DF91CF9108951F93CF93DF9306
:1018E000182F66E270E00E94370BC82FD0E0DC2F83
:1018F000CC2767E270E0812F0E94370B8C0F9D2F61
:10190000911DDF91CF911F910895FF920F931F9327
:10191000CF93DF93F82E10E000E08F2D0E946D0C26
:10192000EC01892B21F08F2D0E946D0C8C01C017CA
:10193000D10799F7CE01DF91CF911F910F91FF90C1
:101940000895FC018485883011F00C94850C90E09A
:1019500080E008951F93CF93DF93182F60E270E02B
:101960000E94370BC82FD0E0DC2FCC2761E270E05B
:10197000812F0E94370B8C0F9D2F911DDF91CF91EE
:101980001F910895FF920F931F93CF93DF93F82E2B
:1019900010E000E08F2D0E94AA0CEC01892B21F0B1
:1019A0008F2D0E94AA0C8C01C017D10799F7CE0188
:1019B000DF91CF911F910F91FF900895AF92BF9249
:1019C000CF92DF92FF920F931F93CF93DF938C01FF
:1019D0005B01EA01FC01C788D08CF4848F2D0E9442
:1019E000C20C8C179D0720F48F2D0E94C20CEC01B5
:1019F0009E01A501B6018F2D0E94A60BF8018789D3
:101A0000908D8C0F9D1F908F878BCE01DF91CF9192
:101A10001F910F91FF90DF90CF90BF90AF900895EE
:101A2000FC018485883021F063E070E00C94370B72
:101A300080E00895CF93DF93FC0124852830D9F00E
:101A4000EC010E94100D843189F0882379F08831EF
:101A500069F021E08C3159F4E881F9810084F18545
:101A6000E02DCE01099521E0892B09F420E0822F99
:101A7000DF91CF91089580E0FBCFCF92DF92EF927C
:101A8000FF92CF93DF93EC018C85883089F168E079
:101A900070E00E94400B0E94FA066B017C01CE01AF
:101AA0000E94100D882391F00E94FA066C197D099E
:101AB0008E099F09683E73408105910538F461E005
:101AC00070E080E090E00E94C706E9CFCE010E945E
:101AD000100D882319F08C850E94500BEC85F0E0E6
:101AE000EE0FFF1FEC5DFC4F1182108288E08C87A7
:101AF000DF91CF91FF90EF90DF90CF9008954F92BC
:101B00005F926F927F928F929F92AF92BF92CF928D
:101B1000DF92EF92FF921F93CF93DF93CDB7DEB7A3
:101B20002D970FB6F894DEBF0FBECDBF7C0194E2B7
:101B3000A92E93E0B92E10E0D12CC12C28EE422E14
:101B400023E0522E612C712C3EE3832E31E0932E44
:101B50001C821B824D825E826F8278869A82898285
:101B60001D87D5012D913D915D01F70184819581FE
:101B700028173907B1F4CE0101960E94100D843167
:101B800099F1CE0101960E94100D8C3151F4CE01D5
:101B900001960E94A10C892B21F4CE0101960E948E
:101BA0003D0D1F5F1830A1F6CD2841F4D701ED910E
:101BB000FC910084F185E02DC70109952D960FB6A3
:101BC000F894DEBF0FBECDBFDF91CF911F91FF9084
:101BD000EF90DF90CF90BF90AF909F908F907F90CD
:101BE0006F905F904F900895CC24C394D12CD9CF9F
:101BF000CF92DF92EF92FF921F93CF93DF93182F34
:101C00006B017A010E94850CEC010097D9F463E026
:101C100070E0812F0E94370B843159F0882349F0FE
:101C2000C1E0D0E08C3111F4D0E0C0E0D195C19595
:101C3000D109CE01DF91CF911F91FF90EF90DF90FE
:101C4000CF900895E816F9060CF4E7011C161D065E
:101C500084F720E0AE01B601812F0E94E60B60E41C
:101C600070E0812F0E94400BE4CFCF93DF93FC0103
:101C7000218D328D2115310529F48FEF9FEFDF91F2
:101C8000CF910895EC0184854217530708F0A9010C
:101C90000E94F80D1816190684F7298D3A8D281B15
:101CA000390B3A8F298FEBCF0F931F93CF93DF938D
:101CB0001F92CDB7DEB7FC01218D328D232B41F46D
:101CC0008FEF9FEF0F90DF91CF911F910F910895AC
:101CD0008C0141E050E0BE016F5F7F4FFC018485C5
:101CE0000E94F80D181619065CF7F801818D928D87
:101CF0000197928F818F898190E0E4CFFC018485E8
:101D00000C94F80DCF93DF931F92CDB7DEB741E06F
:101D100050E0BE016F5F7F4FFC0184850E94F80D8B
:101D20001816190634F4898190E00F90DF91CF9155
:101D300008958FEF9FEFF9CF0F931F93CF93DF930A
:101D4000EC010E94FA06688779878A879B87CE0113
:101D50000E94820E97FF15C00E94FA060885198519
:101D60002A853B85601B710B820B930B0C811D81B7
:101D70002E813F81601771078207930740F38FEF31
:101D80009FEFDF91CF911F910F910895CF93FC01A9
:101D9000C48560E270E08C2F0E94400B62E070E02E
:101DA0008C2F0E94370B84FD11C062E070E08C2FF5
:101DB0000E94370B83FFF2CF48E162E070E08C2F86
:101DC0000E944C0A90E080E0CF91089540E162E0EB
:101DD00070E08C2F0E944C0A81E090E0F5CFEF92EA
:101DE000FF921F93CF93DF93FC012485283039F0B5
:101DF00080E0DF91CF911F91FF90EF9008957B01DC
:101E0000EC0110E063E070E0812F0E94370B81113C
:101E10000EC01C878C85883059F3FE86ED861A8E9D
:101E2000198EA70162E00E945D0B81E0E2CF88314C
:101E300081F31F5F183031F7EDCF8F929F92AF92F1
:101E4000BF92CF92DF92EF92FF920F931F93CF93A7
:101E5000DF93CDB7DEB72D970FB6F894DEBF0FBE78
:101E6000CDBF7C0110E000E038EE832E33E0932EEE
:101E7000A12CB12C4EE3C42E41E0D42E1C821B8237
:101E80008D829E82AF82B886DA82C9820D87CE01AA
:101E900001960E94100D811130C0F70144815581D7
:101EA00061E0802F0E945D0B63E070E0802F0E9454
:101EB000370B833129F462E070E0802F0E94400BE1
:101EC000F70184819581000F111FF801EC5DFC4F33
:101ED000918380832D960FB6F894DEBF0FBECDBFE1
:101EE000DF91CF911F910F91FF90EF90DF90CF90F6
:101EF000BF90AF909F908F9008950F5F1F4F083055
:101F0000110509F0BBCFE6CF8F929F92AF92BF929F
:101F1000CF92DF92EF92FF920F931F93CF936C01BA
:101F20005B017A01FC01C485C830A1F481E090E036
:101F3000F60193838283F12CE12CC701CF911F918D
:101F40000F91FF90EF90DF90CF90BF90AF909F9058
:101F50008F9008958A014130584010F000E018E059
:101F60008C2F0E94C20C4C0163E070E08C2F0E9409
:101F7000370B873111F08C3109F58016910680F30B
:101F80009801A50170E060E08C2F0E94A60B60E232
:101F900070E08C2F0E94400B62E070E08C2F0E945A
:101FA000370B84FD0EC063E070E08C2F0E94370B6E
:101FB0008111F2CF8C2F0E94500BB8CF10E000E0BF
:101FC000DFCF40E162E070E08C2F0E944C0A012BD1
:101FD00009F0B3CFABCFFB014481558160817181A2
:101FE0000C94840F3F924F925F926F927F928F92E8
:101FF0009F92AF92BF92CF92DF92EF92FF920F9398
:102000001F93CF93DF93CDB7DEB72D970FB6F8941C
:10201000DEBF0FBECDBF6C015B014A010E947F0D88
:1020200084E2E82E83E0F82E312C10E000E098EEF8
:10203000492E93E0592E612C712C1C821B824D82FB
:102040005E826F8278868EE391E09A8389833D86F3
:10205000F701219131917F01F60184819581281743
:10206000390771F4CE0101960E94100D873141F4B9
:10207000A401B501CE0101960E94840F080F191F1B
:102080003394F8E03F12D9CFC8012D960FB6F894DB
:10209000DEBF0FBECDBFDF91CF911F910F91FF909B
:1020A000EF90DF90CF90BF90AF909F908F907F90F8
:1020B0006F905F904F903F900895DF92EF92FF9264
:1020C0000F931F93CF93DF93FC012485283051F0A9
:1020D00090E080E0DF91CF911F910F91FF90EF9002
:1020E000DF9008957A01EB018C01D12C63E070E060
:1020F0008D2D0E94370B811128C0F801D486F8017C
:102100008485883029F320910001309101012F5FEF
:102110003F4F19F1309301012093000140910001DC
:102120005091010161E00E945D0B8A818F3FC1F4F3
:102130008B818F3F01F58C818F3FE9F48D818F3F3B
:10214000D1F488E0F8018487C3CF8B7F8831A9F26E
:10215000D394F8E0DF12CACFD2CF20E034E0DACF58
:10216000811109C08B81811106C08C81811103C04E
:102170008D81882331F3E114F10419F3F801D4843B
:10218000AE014E5F5F4F6D2D6295660F607E645F9E
:1021900024E030E08CE090E00E94E5084F2D60E103
:1021A00070E08D2D0E944C0A4E2D61E170E08D2D66
:1021B0000E944C0A64E070E08D2D0E94400BC80123
:1021C0000E94100D873161F061E070E080E090E0E6
:1021D0000E94C706C8010E94100D8111F0CFB1CF37
:1021E00081E090E077CF90E080E00895DC01ED9110
:1021F000FC91048CF58DE02D099480912704909139
:1022000028040E94B80740E06CEC8091270490916C
:1022100028040E9465074091220464E48091270409
:10222000909128040E946507809124048823A1F0DE
:10223000E0912304E9506EEE72E0E33038F4F0E010
:10224000EE0FFF1FEC59FE4F60817181072E000CCD
:10225000880B990B0C94C7060895BF92CF92DF921A
:10226000EF92FF920F931F93CF93DF93EC01B62E63
:10227000C72EED84E11004C00E94B80781110EC082
:102280001B861D861C8680E0DF91CF911F910F91E8
:10229000FF90EF90DF90CF90BF90089540E060EF07
:1022A000CE010E946507D12C01E011E0CE010E9411
:1022B0001207F82ECE010E94120791E0F91218C001
:1022C000813099F51134E0F2EB86E11002C081E033
:1022D0008D878B818823A1F22396EB2DFC2DCF01D6
:1022E000089629912193E817F907D9F781E0CCCF17
:1022F000ED2DF0E0F8120FC08B851817A0F4DE0169
:10230000AE0FBF1F13968C91802379F4F12C1930F6
:1023100008F41C87E12EEC0FFD1F8381902F909510
:10232000892383830AC08113F1CFFE01ED0DF11DD6
:102330008381802B8383FF24F3946F2DCE010E9431
:1023400036071F5F000F11F4D39401E087E08D156D
:1023500008F0ACCFB7CF0F931F93CF93DF93CDB7D8
:10236000DEB728970FB6F894DEBF0FBECDBF8C0145
:10237000DC01ED91FC910680F781E02D0995F801D3
:1023800084850E94850C892BB1F148E050E0BE01A4
:102390006F5F7F4FD8011C968C910E94F80D181624
:1023A0001906F4F4D801519684E0FE0131960190AB
:1023B0000D928A95E1F78D8190E0982F88272E81E4
:1023C000820F911DF801968B858B8F81282F30E02D
:1023D000322F22278885820F932F911D928F818F14
:1023E00028960FB6F894DEBF0FBECDBFDF91CF9118
:1023F0001F910F91089590E080E0F2CF4F925F928D
:102400006F927F928F929F92AF92BF92CF92DF9204
:10241000EF92FF920F931F93CF93DF93CDB7DEB769
:1024200063970FB6F894DEBF0FBECDBF7C016B0182
:102430003A01FB01DB018D918111FDCF30E020E0FD
:1024400090E080E05AE04191442301F1843091050D
:102450000CF042C04E3269F42F3F310509F0E4F52B
:10246000D301A80FB91F12962C93019630E020E0FB
:10247000EACF529FB001539F700D1124242F440FB7
:10248000330B20533109260F371FDDCF2F3F310586
:1024900009F014F584309105FCF4680E791EF301FF
:1024A0002283CC24C394D12CC60163960FB6F89432
:1024B000DEBF0FBECDBFDF91CF911F910F91FF9077
:1024C000EF90DF90CF90BF90AF909F908F907F90D4
:1024D0006F905F904F900895F7014281538164811E
:1024E000758180910C0490910D04A0910E04B0911F
:1024F0000F04481759076A077B0709F400C28701D0
:10250000085F1F4F0E94FA066F7077277C5FC80133
:102510000E94EF0E813009F0F7C18EE891E09A83B6
:102520008983F70182819381A481B5818B839C8308
:10253000AD83BE8345E350E0BE016F5F7F4FC801AE
:102540000E947D0A892B31F4D12CC12CC8010E9434
:10255000910BAACF0E94FA06F7017783668342E0C7
:1025600050E0B7016A5F7F4FC8010E94DE0C81E036
:1025700090E09A83898342E050E0BE016F5F7F4F15
:10258000C8010E94DE0C80E091E09A83898342E0DA
:1025900050E0BE016F5F7F4FC8010E94DE0C1A82BF
:1025A000198242E050E0BE016F5F7F4FC8010E9478
:1025B000DE0C42E050E0BE016F5F7F4FC8010E9419
:1025C000DE0C42E050E0BE016F5F7F4FC8010E9409
:1025D000DE0C5601F6018081882301F16501F601C8
:1025E00081912F01882311F08E32B1F446018A18AF
:1025F0009B081814190474F48D8641E050E0BE0164
:10260000635F7F4FC8010E94DE0CA401B501C801C1
:102610000E94DE0C5201DECF6201E1CF1D8641E057
:1026200050E0BE01635F7F4FC8010E94DE0CC12CE9
:10263000DD24D394DA82C98242E050E0BE016F5FAC
:102640007F4FC8010E94DE0CDA82C98242E050E06E
:10265000BE016F5F7F4FC8010E94DE0CC8010E945F
:10266000C60E892B09F470CFF3E0AF2EB12C2301F5
:1026700022E0420E511C43C0F70142815381648124
:102680007581818D928DA38DB48D481759076A0786
:102690007B0709F02AC1858D968DC59709F025C164
:1026A00081A192A10C970CF425C14CE050E0BE0131
:1026B0006F5F7F4FC8010E94350E8B819C819827E8
:1026C000892798279A8B898BF70146815781298121
:1026D0003A814217530711F497FD2FC0C8010E9499
:1026E000550AECEFCE2EDD24DA9481E0A81AB10869
:1026F00009F42CCFFFEFCF16DF0609F027CF0E9499
:10270000FA063B014C01C8010E94AB1118161906CC
:102710000CF4B2CF0E94FA06661977098809990964
:10272000693873418105910508F0DBC062E370E010
:1027300080E090E00E94C706E6CF8F709270892BF0
:1027400041F0C8010E94550A7BEFC72EDD24DA94C0
:10275000CCCF6F807884762467247624D12CC12C4A
:1027600061147104D1F4C8010E94550A6AEFC62EA3
:10277000DD24DA94BACF8D85811117C0C8010E947B
:10278000540EC8010E94540EC8010E94540EC80184
:102790000E94540EFFEFCF1ADF0A8D819E81982789
:1027A00089279827C816D906A8F441E050E0BE0151
:1027B000635F7F4FC8010E94350E8D858823D9F253
:1027C0008D859FEF980F9D878823A9F2C8010E94ED
:1027D000540EF6CF912C812C41E050E0BE016D5E8D
:1027E0007F4FC8010E94350E8B89982F907C61F431
:1027F000882389F08B899FEF980F9B8B882341F06A
:10280000C8010E94540EF6CFC8010E94540E1B8AC4
:102810008B898111E1CF42E050E0BE01615F7F4FC3
:10282000C8010E94350E42E050E0BE01635F7F4F59
:10283000C8010E94350EC8010E94540EC8010E94B2
:10284000540EC8010E94540EC8010E94540E42E06A
:1028500050E0BE016F5E7F4FC8010E94350E8F852C
:10286000988981159140E9F4CD84DE84DC24CD245F
:10287000DC2481E0C816D104A1F489899A898115E4
:10288000944041F0C8010E94550A57EFC52EDD243F
:10289000DA942BCF44E050E0B201C8010E94350E1B
:1028A00024CFD12CC12C89899A89982789279827E8
:1028B000C816D90638F4C8010E94540EFFEFCF1A8B
:1028C000DF0AF1CF2FEF821A920A6814790409F017
:1028D00083CFC8010E94550A46EFC42EDD24DA9446
:1028E00004CFCC24CA94DC2C00CF2EEFC22EDD24E2
:1028F000DA94FBCE9DEFC92EDD24DA94F6CE8EEF6E
:10290000C82EDD24DA94D0CDD12CC12CCDCDCF92E0
:10291000DF92EF92FF920F931F93CF93DF93CDB788
:10292000DEB7AF970FB6F894DEBF0FBECDBF7C0108
:102930006A010EE811E01A8309831C861B8688EE63
:1029400093E0A0E0B0E08D879E87AF87B88B86E1EB
:1029500091E09A87898788E08D8B198F088F1A8E6E
:102960001B8E1C8E1D8E1BA70AA71CA61DA61EA6AD
:102970001FA68091F9039091FA03A091FB03B091F7
:10298000FC038EA39FA3A8A7B9A78B839C83AD83C9
:10299000BE8318861F82AE01465D5F4FCE01019651
:1029A0000E94FE1181309105B1F4D701ED91FC91A7
:1029B0000488F589E02D1DA30CA38CA59DA5AEA5CB
:1029C000BFA58EA39FA3A8A7B9A7A601BE016C5D52
:1029D0007F4FC7010995AF960FB6F894DEBF0FBEC3
:1029E000CDBFDF91CF911F910F91FF90EF90DF90BE
:1029F000CF900895CF92DF92EF92FF920F931F93A3
:102A0000CF93DF93CDB7DEB7AF970FB6F894DEBFA5
:102A10000FBECDBF7C016A010EE811E01A83098365
:102A20001C861B8688EE93E0A0E0B0E08D879E8731
:102A3000AF87B88B86E191E09A87898788E08D8B94
:102A4000198F088F1A8E1B8E1C8E1D8E1BA70AA72E
:102A50001CA61DA61EA61FA68091F9039091FA033D
:102A6000A091FB03B091FC038EA39FA3A8A7B9A7D5
:102A70008B839C83AD83BE8318861F82AE01465D27
:102A80005F4FCE0101960E94FE1181309105B1F495
:102A9000D701ED91FC910684F785E02D1DA30CA3D1
:102AA0008CA59DA5AEA5BFA58EA39FA3A8A7B9A7DA
:102AB000A601BE016C5D7F4FC7010995AF960FB6A9
:102AC000F894DEBF0FBECDBFDF91CF911F910F9164
:102AD000FF90EF90DF90CF9008950E942229FB0194
:102AE00001900020E9F73197AF01461B570BDC013D
:102AF000ED91FC910280F381E02D09948F929F92D9
:102B0000AF92BF92EF92FF920F931F93CF93DF93F9
:102B1000CDB7DEB7A1970FB6F894DEBF0FBECDBF1D
:102B20007C01FA01CB0119A2223008F42AE08E01BF
:102B30000F5D1F4F822E912CB12CA12CBF01A5013E
:102B400094010E943B26F901CA016A300CF5605DD0
:102B5000D8016E938D01232B242B252B79F790E040
:102B600080E0109721F0BD01C7010E946F15A1966A
:102B70000FB6F894DEBF0FBECDBFDF91CF911F918E
:102B80000F91FF90EF90BF90AF909F908F9008951E
:102B9000695CDECF8F929F92AF92BF92CF92DF920D
:102BA000EF92FF920F931F93CF93DF937C01EB0182
:102BB0006C0182E0C80ED11C4701E5E08E0E911C2D
:102BC00010E000E0F60141916F0150E070E060E03C
:102BD0002AE0CE010E947E155C01E881F981019016
:102BE000F081E02D6EE2CE0109958A0D9B1D080F44
:102BF000191FC814D90431F7F701458150E070E07E
:102C000060E02AE0CE010E947E15800F911FDF91C7
:102C1000CF911F910F91FF90EF90DF90CF90BF90D9
:102C2000AF909F908F90089560E971E00C946F15BC
:102C3000CF93DF93D0E0C0E0009731F0BC0180E497
:102C400093E00E946F15EC0180E493E00E9414165B
:102C50008C0F9D1FDF91CF9108950F931F93CF93FA
:102C6000DF93EC010E94EB0F8C01CE010E94141641
:102C7000800F911FDF91CF911F910F9108950F93B6
:102C80001F93CF93DF93EC010E940E0B8C01CE01BA
:102C90000E941416800F911FDF91CF911F910F9109
:102CA0000895FC0124813581232B31F421E0FB01BF
:102CB000672B49F4822F08958081918161157105F8
:102CC00039F421E0FC0180818823A1F320E0F2CFD8
:102CD0000E94302921E0892B69F3F8CF0F931F93CD
:102CE000CF93DF93EC0188819981009759F02A8175
:102CF0003B812617370730F081E0DF91CF911F919C
:102D00000F9108958B016F5F7F4F0E946528009798
:102D100059F0998388831B830A832C813D81232B5F
:102D200059F7FC011082E8CF80E0E7CFEF92FF92E5
:102D30000F931F93CF93DF936115710541F480E0EA
:102D4000DF91CF911F910F91FF90EF900895411562
:102D50005105B1F07B01EC010C811D81040F151FA1
:102D6000B8010E946E16882351F3288139818C8125
:102D70009D81B701820F931F0E9439291D830C8307
:102D800081E0DECFCF93DF93EC01888199810097BA
:102D900011F00E94DC27198218821D821C821B827E
:102DA0001A82DF91CF910895EF92FF920F931F93B4
:102DB000CF93DF938C017B01EB0109900020E9F7B1
:102DC0002197C61BD70BBE010E946E16811109C048
:102DD000C801DF91CF911F910F91FF90EF900C945C
:102DE000C216F801D583C483B70180819181DF9138
:102DF000CF911F910F91FF90EF900C943929CF93B1
:102E0000DF93EC01FB0101900020E9F73197AF015E
:102E1000461B570B0E949616811103C0CE010E94DB
:102E2000C216CE01DF91CF910895CF93DF93EC01CD
:102E3000FB0144815581608171810E949616811148
:102E400003C0CE010E94C216CE01DF91CF9108953A
:102E5000EF92FF920F931F93CF93DF93EC011982B0
:102E600018821B821A821D821C826115710521F154
:102E70008B01FB0101900020E9F731977F01E61AF1
:102E8000F70AB7010E946E16811109C0CE01DF91C9
:102E9000CF911F910F91FF90EF900C94C216FD827D
:102EA000EC82B80188819981DF91CF911F910F91B8
:102EB000FF90EF900C943929DF91CF911F910F91E2
:102EC000FF90EF900895FC0180819181009711F0AF
:102ED0000C94DC270895AF92BF92CF92DF92EF92CD
:102EE000FF920F931F93CF93DF93CDB7DEB7C456F6
:102EF000D1090FB6F894DEBF0FBECDBF6C01062F0F
:102F0000660F110BC8010E94E3259E012F5F3F4F02
:102F100079015901021B130BF501EE19FF098823F2
:102F200049F0C8018A0D9B1D0E94E325F50181939C
:102F30005F01F2CFEE0DFF1D1082B701C6010E94A6
:102F40002817C601CC59DF4F0FB6F894DEBF0FBE6D
:102F5000CDBFDF91CF911F910F91FF90EF90DF9048
:102F6000CF90BF90AF900895CF92DF92EF92FF92F3
:102F70000F931F93CF93DF937B01DB011496CD90CA
:102F8000DC90D0E0C0E0082F880F110BCC15DD05D8
:102F9000D4F4F70184819581C817D90728F40190EA
:102FA000F081E02D309761F410921A03EAE1F3E02A
:102FB0006081C8018C0F9D1F0E94EB252196E6CFF2
:102FC000EC0FFD1FF5CF60E0C8018C0D9D1DDF915A
:102FD000CF911F910F91FF90EF90DF90CF900C94C5
:102FE000EB251F920F920FB60F9211242F933F9350
:102FF0004F935F936F937F938F939F93AF93BF9301
:10300000EF93FF9380E493E00E949605FF91EF9188
:10301000BF91AF919F918F917F916F915F914F91F0
:103020003F912F910F900FBE0F901F9018951F92F8
:103030000F920FB60F9211242F938F939F93EF93BC
:10304000FF93E0915003F09151038081E09156038A
:10305000F091570382FD1BC09081809159038F5FCF
:103060008F7320915A03821741F0E0915903F0E0E9
:10307000E05CFC4F958F80935903FF91EF919F91F6
:103080008F912F910F900FBE0F901F9018958081F8
:10309000F4CF1F920F920FB60F9211242F933F93EC
:1030A0008F939F93AF93BF9380911C0390911D03C7
:1030B000A0911E03B0911F0330911B0323E0230F47
:1030C0002D3758F50196A11DB11D20931B03809348
:1030D0001C0390931D03A0931E03B0931F038091C4
:1030E000200390912103A0912203B0912303019624
:1030F000A11DB11D8093200390932103A09322036F
:10310000B0932303BF91AF919F918F913F912F91E6
:103110000F900FBE0F901F90189526E8230F029670
:10312000A11DB11DD2CFCF93E0E4F3E01382128250
:1031300088EE93E0A0E0B0E084839583A683B78314
:103140008EE691E09183808385EC90E0958784877B
:1031500084EC90E09787868780EC90E0918B808B61
:1031600081EC90E0938B828B82EC90E0958B848B4A
:1031700086EC90E0978B868B118E128E138E148EB8
:10318000EDEDF3E080E58083C1E0C183EFEDF3E096
:103190008EE891E0918380831282138214821582DB
:1031A000E5EEF3E09183808312821382148215820C
:1031B000EBEEF3E0918380831282138214821582F6
:1031C000E1EFF3E0918380831282138214821582EF
:1031D000E4E0F4E0918380831282138214821582EA
:1031E000E7EFF3E0918380831282138214821582C9
:1031F000138612862AE02487EAE0F4E09183808334
:103200001282138214821582E0E1F4E091838083BC
:103210001282138214821582E3E4F4E091838083A6
:10322000128213821482158260E085E00E9471068A
:10323000E5EBF9E0E491A5E3B4E0EC93E1EAF9E031
:10324000E491F0E0EE0FFF1FEE56F64F859194915A
:1032500012969C938E9311971B961C921B971D960A
:103260001C921D971C961C921C971A961C921A97DA
:1032700019961C92199718961C92189717961C92DB
:10328000179716961C92169715961C9215971496DA
:103290001C92149713961C921397E2E2F4E08EE0CE
:1032A00095E0928B818BB683A5831482108289E08E
:1032B0008183C283C383ECE1F4E01382128280E84D
:1032C00091E09183808380E590E09583848362E937
:1032D00071E086E194E0CF910C942817CF93DF93AF
:1032E000CDB7DEB7C054D1090FB6F894DEBF0FBE1C
:1032F000CDBF789484B5826084BD84B5816084BD7F
:1033000085B5826085BD85B5816085BD80916E0083
:10331000816080936E0010928100809181008260B4
:1033200080938100809181008160809381008091F1
:1033300080008160809380008091B10084608093E0
:10334000B1008091B00081608093B00080917A00DC
:10335000846080937A0080917A00826080937A0002
:1033600080917A00816080937A0080917A008068F1
:1033700080937A001092C1006AE0CE018F960E947D
:103380006B1764E6CE0182960E946B1762E971E0CA
:10339000CE018F960E945116811108C070E060E046
:1033A000CE018F960E945116882381F064E971E066
:1033B000CE0101960E942817BE016F5F7F4F8AE001
:1033C0000E94B417CE0101960E94631762E971E072
:1033D000CE0182960E945116811108C070E060E013
:1033E000CE0182960E945116882381F063E971E034
:1033F000CE0101960E942817BE016F5F7F4F84E6C1
:103400000E94B417CE0101960E946317E091270431
:10341000F09128041386158614861286118610866C
:10342000178216821582148213821092260401E0FC
:10343000BE016F5F7F4F80912704909128040E9406
:103440002D11882309F454C067E0CE0101960E9433
:10345000060798858913ECCF80912204811128C03A
:1034600080912704909128040E94B807BE016F5FE5
:103470007F4F80912704909128040E94990740E093
:1034800064EB80912704909128040E946507809145
:103490002704909128040E941207182F8091270476
:1034A000909128040E94B807111102C000932204D1
:1034B000109123048981803109F460C6CE01019600
:1034C0000E943C08811750F48091230480932304C8
:1034D000809126048F5F80932604AACF8981803152
:1034E00011F48CE0F3CFCE0101960E943C08EECFA0
:1034F00061E086E00E94710661E086E00E94250698
:10350000E0915003F091510382E08083E0914C03FD
:10351000F0914D031082E0914E03F0914F0380E152
:10352000808310925803E0915403F091550386E094
:103530008083E0915203F091530380818061808306
:10354000E0915203F0915303808188608083E09181
:103550005203F0915303808180688083E09152038D
:10356000F091530380818F7D80830E94FD1060ED78
:1035700077E080E090E00E94C7060EE811E01A8331
:1035800009838091020190910301A0910401B091FF
:1035900005018B839C83AD83BE83CE0101960E947F
:1035A00038098CE194E00E941D0F89E991E00E94A6
:1035B00018168FE991E00E9418161A8309831B825E
:1035C0001C821D821E8224E030E0AE014D5F5F4F01
:1035D00060E08FE090E00E94940860E473E0CE0128
:1035E00001960E94CA1580E493E00E941416CE0151
:1035F00082960E946317CE018F960E946317F8EEA1
:103600008F2EF3E09F2EA12CB12C0E94FA06009180
:1036100038031091390320913A0330913B03601B2A
:10362000710B820B930B603177428105910528F471
:10363000012B022B032B09F07DC00E94FA06609338
:1036400038037093390380933A0390933B03E091DE
:103650002704F09128041386158614861286118695
:10366000108617821682158214821382BE016E5D47
:103670007F4F80912704909128040E942D11811181
:10368000CEC060E070E08EEF92EC609334037093F4
:10369000350380933603909337036AE0CE01829618
:1036A0000E946B1764E6CE0101960E946B178AA1F7
:1036B0009BA1C12CD12C7601009721F00E94E4201F
:1036C0006B017C0189819A81412C512C3201009738
:1036D00021F00E94E4202B013C0120913403309121
:1036E00035034091360350913703C701B6010E945C
:1036F0006C266B017C01A30192010E940827181619
:103700000CF0EDC086EB91E00E9418166BEB71E0B7
:1037100086E194E00E94D41660E086E00E942506CF
:103720000E94FD10CE0101960E946317CE01829681
:103730000E9463178CE194E00E947F0D04E213E085
:10374000D12C1C821B828D829E82AF82B8862EE392
:1037500031E03A832983DD86F801219131918F018F
:1037600080912004909121042817390709F0D4C0D2
:10377000CE0101960E94100D873109F0C6C0CE011E
:1037800001960E94A10C892B09F4C6C08B819C81F3
:103790009DA38CA38D819E81AF81B8858EA39FA3AD
:1037A000A8A7B9A789859A85AB85BC858AA79BA759
:1037B000ACA7BDA72EE331E03BA32AA38D858EA73E
:1037C0008EA5883009F4CDC4CE0182960E941A0DD0
:1037D000882309F4C6C4CE0182960E94A10C892BCD
:1037E00099F32DB63EB662E971E0CE01CB960E9408
:1037F0002817CE0182960E949C0E97FD9DC08A30AC
:10380000910509F499C089831A8241E050E0BE0114
:103810006F5F7F4FCE01CB960E949616EACF67E08E
:10382000CE0182960E94060799A589132ACF80911E
:103830002704909128040E94B807882309F421CF17
:10384000BE016F5F7F4FCE0182960E94F0078823F2
:1038500009F417CF68E0CE0101960E94060799850A
:1038600089130FCF6A8170E0762F6627770F770F65
:10387000770F298158E0259F90011124262B372BA3
:103880008AA18031D1F4688570E08F81FB01E81B4B
:10389000F109CF019695982F8827979587950E94D3
:1038A0001227CB014097B90153E0660F771F5A9555
:1038B000E1F760789C01260F371F2138F4EE3F07AF
:1038C0000CF4DFCEB901330F880B990B0E94C3248F
:1038D00020E030E040E05CE30E942225D6CEC30128
:1038E000B2019058A70196010E94082718160CF003
:1038F00017CF8FEB91E00E94181664EC71E086E11F
:1039000094E00E94D41661E008CFCE0101960E9497
:10391000100D8C3109F433CFD39438E0D31211CF8A
:103920001DA21CA28EA29FA2A8A6B9A64EE351E09A
:103930005BA34AA3DEA644CF21960EAD1FAD21970F
:10394000C8010196EDB7FEB7E81BF90B0FB6F89466
:10395000FEBF0FBEEDBF2DB73EB72F5F3F4F6901D2
:103960000115110561F0015011096BAD7CADA80185
:10397000C9010E944E29F601E00FF11F108262E694
:1039800071E0C6010E94E82062E671E090E080E00C
:103990000E94E8208C01BC01CE0101960E942817EC
:1039A0006DEB72E0CE0101960E945116D82ECE0129
:1039B00001960E946317DD2009F406C268E779E0EA
:1039C000CE0182960E943F1660E679E0CE01829693
:1039D0000E943F16CE0182960E94141660E579E09F
:1039E000CE0182960E943F1669E479E0CE0182966C
:1039F0000E943F1662E479E0CE0182960E943F1653
:103A00006BE279E0CE0182960E943F166BEF78E080
:103A1000CE0182960E943F166FEC78E0CE0182962E
:103A20000E943F166AE878E0CE0182960E943F1617
:103A300065E278E0CE0182960E943F1665E078E06C
:103A4000CE0182960E943F1662EF77E0CE01829609
:103A50000E943F1666EC77E0CE0182960E943F16E8
:103A600063EB77E0CE0182960E943F1665E977E02E
:103A7000CE0182960E943F1665E577E0CE018296E0
:103A80000E943F166CE477E0CE0182960E943F16BA
:103A900067EF76E0CE0182960E943F1665EF76E0F2
:103AA000CE0182960E943F1666EE76E0CE018296A7
:103AB0000E943F166CED76E0CE0182960E943F1682
:103AC00062ED76E0CE0182960E943F166FE976E0C5
:103AD000CE0182960E943F1667E976E0CE0182967B
:103AE0000E943F1660E976E0CE0182960E943F1662
:103AF00066E476E0CE0182960E943F166CE176E0A5
:103B0000CE0182960E943F166AE0CE0101960E9485
:103B10006B1768EC71E0CE018F960E942817BE01EA
:103B20006F5F7F4FCE018F960E94151769E372E099
:103B30000E94FF16BC01CE0182960E942D16CE0176
:103B40008F960E946317CE0101960E94631764E668
:103B5000CE0101960E946B176FE372E0CE018F9643
:103B60000E942817BE016F5F7F4FCE018F960E9483
:103B7000151769E372E00E94FF16BC01CE01829620
:103B80000E942D16CE018F960E946317CE010196DA
:103B90000E9463176CED75E0CE0182960E943F167D
:103BA00060ED75E0CE0182960E943F166BEB71E0EE
:103BB00086E194E00E945116882331F06CE975E0AB
:103BC000CE0182960E943F1664EC71E086E194E09B
:103BD0000E945116882331F06AE675E0CE01829684
:103BE0000E943F166FE475E0CE0182960E943F1658
:103BF00064E275E0CE0182960E940E0B4090340381
:103C0000509035036090360370903703A301920102
:103C1000C301B2010E940D2768EA72E081111AC047
:103C200073016201E894F7F82FEF3FEF4FE75FE78A
:103C3000C701B6010E940D27811148C02FEF3FEF49
:103C40004FE75FE7C701B6010E94BC241816F4F5E0
:103C50006CEA72E0CE0182960E946F156FE175E00A
:103C6000CE0182960E943F1662EB74E0CE018296EE
:103C70000E943F1661E874E0CE0182960E943F16D2
:103C800067E774E0CE0182960E943F166FE674E00B
:103C9000CE0182960E943F1667E674E0CE018296BE
:103CA0000E943F1661E070E080E090E00E94C7064D
:103CB000CE0182960E943D0DCE01CB960E946317E5
:103CC0000FB6F8943EBE0FBE2DBE7ECD2FEF3FEF58
:103CD0004FE75FE4C301B2010E94082718161CF4E5
:103CE00060EB72E0B7CF2FEF3FEF4FE75FECC30120
:103CF000B2010E94BC2487FDF3CF20E030E0A9018F
:103D0000C301B2010E94BC2487FF09C06DE2CE014D
:103D100082960E94F80A77FA709477F870942AE0F5
:103D200037ED43EA5BE3C301B2010E946D266B01EC
:103D30007C010E94D9262B013C010E94C1249B01D9
:103D4000AC01C701B6010E946C266B017C012AE020
:103D5000B301A201CE0182960E947E156EE2CE01D1
:103D600082960E94F80A20E030E040E251E4C70168
:103D7000B6010E9422256B017C010E94D9262B01ED
:103D8000712C612C2AE0B301A201CE0182960E941F
:103D90007E15C301B2010E94C1249B01AC01C70181
:103DA000B6010E946C2620E030E040E251E40E941F
:103DB00022250E94D926AB0170E060E02AE0CE0106
:103DC00082960E947E154ACFB801CE0101960E94CC
:103DD000281764EB72E0CE0101960E945116D82E8E
:103DE000CE0101960E946317DD2009F483C067E5C8
:103DF00074E0CE0182960E943F166FE374E0CE011C
:103E000082960E943F16CE0182960E9414166DE3A0
:103E100074E0CE0182960E943F166FE274E0CE01FC
:103E200082960E940E0B6AE0CE0101960E946B17EB
:103E3000BE016F5F7F4FCE0182960E94EB0FCE01D5
:103E400001960E9463176DE274E0CE0182960E9493
:103E50003F1667E174E0CE0182960E940E0B64E685
:103E6000CE0101960E946B17BE016F5F7F4FCE019E
:103E700082960E94EB0FCE0101960E94631765E1C6
:103E800074E0CE0182960E943F166FEF73E0CE0180
:103E900082960E940E0B60913403709135038091DD
:103EA00036039091370318AA1FA61AAA19AA1CAAAA
:103EB0001BAA8E010F5F1F4F22E044E00E94C62024
:103EC000009799F0BC01CE018F960E94D416BE01D6
:103ED000615D7F4FCE0182960E942D16CE018F9696
:103EE0000E9463176DEF73E0D9CECE018F960E94CA
:103EF000C216EDCFB801CE0101960E9428176FEBD4
:103F000072E0CE0101960E945116D82ECE01019684
:103F10000E946317D110CCCEB801CE01C5960E9485
:103F200028176CEC72E0CE0101960E9428174D8193
:103F30005E8189AD9AAD8417950780F08DA99EA901
:103F4000009761F069817A816115710539F00E94ED
:103F50004029DD24D394892B09F0D12CCE01019680
:103F60000E946317DD2009F4F7C060E671E0C80124
:103F70000E94E8200E94181660E671E090E080E060
:103F80000E94E8206EE571E00E94E8206C016EE579
:103F900071E090E080E00E94E8208C016CE571E027
:103FA000C6010E94E8206CE571E090E080E00E948C
:103FB000E8206C016CE571E0C8010E94E8206CE526
:103FC00071E090E080E00E94E8208C01B601CE0113
:103FD00001960E942817BE016F5F7F4F8AE00E9402
:103FE000B417CE0101960E946317B801CE01019665
:103FF0000E942817BE016F5F7F4F84E60E94B417AE
:10400000CE0101960E9463176DEE73E0CE01829699
:104010000E943F1665ED73E0CE0182960E943F1626
:10402000CE0182960E94141665EC73E0CE01829652
:104030000E943F166EEB73E0CE0182960E943F16FF
:1040400067EB73E0CE0182960E943F1660EA73E050
:10405000CE0182960E943F166FE673E0CE018296F3
:104060000E943F166CE373E0CE0182960E943F16D9
:1040700064E373E0CE0182960E943F166DE273E026
:10408000CE0182960E943F166BEF72E0CE018296BF
:104090000E943F16B601CE0101960E94281769EDD5
:1040A00072E0CE018F960E942817BE016F5F7F4F8E
:1040B000CE018F960E9415176BEF72E00E94FF16DB
:1040C000BC01CE0182960E942D16CE018F960E94D1
:1040D0006317CE0101960E946317B801CE010196C5
:1040E0000E94281761E073E0CE018F960E94281786
:1040F000BE016F5F7F4FCE018F960E9415176BEF49
:1041000072E00E94FF16BC01CE0182960E942D161D
:10411000CE018F960E946317CE0101960E9463170D
:104120006BEC72E0CE0182960E943F1663EC72E067
:10413000CE0182960E943F166BEB72E0CE01829612
:104140000E943F1661E070E080E090E00E94C706A8
:10415000CE0182960E943D0DCE01C5960E94631746
:10416000ABCD40E050E0452B09F44FCA0E948205D8
:10417000882309F44ACA0E94000041CA1D3008F091
:10418000A3C9AFC986E194E00C946317EF920F9333
:104190001F93CF93DF93E80134E047FD34E1042E11
:1041A000000C550B57FF03C0519541955109E32E63
:1041B000022F242FAE010E941421CE01DF91CF9156
:1041C0001F910F91EF900895662777270C94732223
:1041D00049E454E00E94ED200895FA01A191B081D4
:1041E000009719F41097E1F0CD01DC01CD010D909D
:1041F000002011F4C00113C0FB012191222319F00A
:104200002015D9F7F3CFFB012191201519F41E9247
:10421000119606C02223C1F70D900020A1F7D0010E
:10422000FA01A193B0830895A9E0B0E0EAE1F1E2D8
:104230000C940A266A01F22EB02E102FFBE3AF2E4B
:10424000A01608F41BE31F5F012F27E0AE014F5FAC
:104250005F4F0E94C323BC018981982F99709130D0
:1042600009F43FC09BE2E1FC04C09E2D9170E0FC8C
:104270003AC05E2D5071E82FE87083FF46C084E09D
:10428000911101C083E0EF2DE81B8F1508F0E0E0ED
:10429000D6018E2F20E2552351F1992329F0D60122
:1042A0009C93C60101966C0196012D5F3F4FE2FE83
:1042B00024C08EE4D6018C9391E411969C931197BF
:1042C00012968C93D9018E2F90E281111BC0E20FC0
:1042D000F32FF11D10828EEF9FEF2996ECE00C94E6
:1042E00026269DE2C6CF90E2C4CF2D938150811146
:1042F000FCCFCE0ED11CE0E0D0CF8EE6D6018C9361
:1043000091E6DBCF9D938150E0CF482F447082FF30
:104310003DC084E0911101C083E08F1510F4EF2DB2
:10432000E81BD6018E2F20E2552309F1992329F0AD
:10433000D6019C93C60101966C0196012D5F3F4FFB
:10434000E2FE1BC089E4D6018C938EE411968C9317
:10435000119786E412968C93D9018E2F90E28823D0
:1043600009F4B5CF9D938150FACF2D9381508111DF
:10437000FCCFCE0ED11CE0E0D9CF89E6D6018C93DC
:104380008EE611968C93119786E6E4CF9B0177FF1A
:1043900002C030E020E0A1E0B0E0911102C0B0E046
:1043A000A0E0F9013196AE0FBF1F8B2C912CBB20E2
:1043B00009F461C05401EFEFAE1ABE0AAA0DBB1D8D
:1043C000FA161B0619F014F04F2D4A1B511188C024
:1043D000E3FC59C07601A42FB0E2A1114FC0C40E76
:1043E000D11C992309F45BC040E0D6011196F60177
:1043F00090836D01552309F448C0012F060F9A815F
:10440000582F507184FF03C0913309F401501016E6
:104410000CF047C0093008F008E0EEE2FE2E5B0128
:10442000A01AB10885019194819491082F3F320719
:1044300029F4D601FC92F60131966F0162177307D9
:1044400094F1021713077CF5DB01A21BB30BAA241E
:10445000A394B12CAC0EBD1EAA0DBB1D11968C9160
:1044600021503109D601119628153905F4F0F601CD
:1044700080836D01DBCFB12CA12CA0CFF701B193CC
:104480007F01A150AACF9111B0CFD601942F50E354
:1044900002C05D9391509111FCCFC40ED11C40E03D
:1044A000ACCF01E0BACF80E3DBCF6217730731F402
:1044B000963388F4953311F4552369F0F60180831F
:1044C000FD01842F90E2811108C0A40FB11D1C9240
:1044D00090E080E002CF81E3F1CF91938150F3CF60
:1044E000911183CF8ACFB0E0A0E0E9E7F2E20C942B
:1044F0000A265C017B016115710519F0DB018D93C2
:104500009C9385010F5F1F4FF501D0818D2F90E0A7
:104510000E949B246C01892BB9F5DD32B9F50F5F40
:104520001F4FD5011196DC91C1E05801F1E0AF1A9F
:10453000B10843E050E060E770E0C5010E94A424A8
:10454000892B69F5680182E0C80ED11C45E050E076
:104550006BE670E0C6010E94A424892B21F4680157
:1045600097E0C90ED11CE114F10419F0D701CD92E6
:10457000DC9260E070E080E89FEFC111FFC060E076
:1045800070E080E89FE7FAC05801BBCFDB3229F426
:1045900085010E5F1F4FF501D181C0E0C6CF43E01A
:1045A00050E068E670E0C5010E94A424892BE9F080
:1045B000F80110E000E020E030E0A9015F01B0ED7B
:1045C0008B2E8D0E89E08815C8F19C2E689491F889
:1045D0008C2F8870C2FF16C0811102C00F5F1F4F61
:1045E0003196D501DC91C92DE9CFE114F10429F010
:1045F0000E5F1F4FF7011183008360E070E080ECD5
:104600009FE7BCC0882311F001501109A5E0B0E07C
:104610000E94F9259B01AC01220F331F441F551F37
:10462000280D311D411D511D283999E939074907C8
:1046300099E15907A8F2C6609C2ED2CFAEEF8A123C
:1046400006C0C3FD3CC09C2E689493F8C9CFDF7DA3
:10465000D534A9F580818D3239F4C061DF0112961D
:10466000818162E070E006C0DF018B32C1F31196F8
:1046700061E070E080535D01A61AB70A8A30F8F451
:10468000E0E8CE16ECE0DE065CF4B601660F771FBC
:10469000660F771FC60ED71ECC0CDD1CC80ED11CB2
:1046A0005D01FFEFAF1ABF0A8C9180538A30A8F1E9
:1046B000C4FF03C0D194C194D1080C0D1D1DC1FFCE
:1046C00009C0E114F10431F081E0A81AB108D70162
:1046D000AD92BC92CA01B9010E94C124C370C3301B
:1046E00009F490584B015C0120E030E0A9010E94E0
:1046F000BC24882309F440C0CFE9D0E017FF05C0EF
:10470000119501951109C7E8D0E06E01B8E1CB1A07
:10471000D10880E2E82EF12C0FC0D501B1CFFE0107
:1047200025913591459154910E191F09C501B40188
:104730000E9422254B015C01D501C4010E151F0505
:1047400074F72497F594E794CC16DD06A9F78A2F21
:10475000880F8B2F881F8F3F49F020E030E0A901A0
:10476000C501B4010E94BC24811106C082E290E020
:1047700090934C0480934B04C501B401CDB7DEB7D0
:10478000ECE00C942626283008F027E03327DA01E5
:10479000990F311D87FD916000966105710539F40F
:1047A00032602E5F3D9330E32A95E1F708959F3FF5
:1047B00030F080387105610509F03C5F3C5F3D9346
:1047C000913008F08068911DDF93CF931F930F9372
:1047D000FF92EF92192F987F9695E92F96959695CF
:1047E000E90FFF27E350FF4F99273327EE24FF24DB
:1047F000A701E70105900894079428F4360FE71EF7
:10480000F81E491F511D660F771F881F991F0694B8
:10481000A1F70590079428F4E70EF81E491F561FCC
:10482000C11D770F881F991F661F0694A1F7059079
:10483000079428F4F80E491F561FC71FD11D880F73
:10484000991F661F771F0694A1F70590079420F41F
:10485000490F561FC71FD81F990F661F771F881F44
:104860000694A9F784911095177041F0D695C795D5
:1048700057954795F794E7941A95C1F7E3EAF0E066
:1048800068941590159135916591959105907FE209
:104890007395E118F10A430B560BC90BD009C0F709
:1048A000E10CF11E431F561FC91FD01D7EF470334B
:1048B00011F48A95E6CFE894015030F0080F0AF41D
:1048C0000027021708F4202F2395022F7A3328F0AF
:1048D00079E37D932A95E9F710C07D932A9589F6AF
:1048E000069497956795379517951794E118F10AEF
:1048F000430B560BC90BD00998F023957E91739505
:104900007A3308F070E37C932013B8F77E917061DE
:104910007D9330F0839571E37D9370E32A95E1F701
:104920001124EF90FF900F911F91CF91DF91992764
:1049300087FD9095089591110C948F25803219F080
:1049400089508550C8F70895FB01DC014150504063
:1049500088F08D9181341CF08B350CF4805E65916C
:1049600061341CF06B350CF4605E861B611171F3D1
:10497000990B0895881BFCCF0E94FE2408F481E067
:104980000895E89409C097FB3EF490958095709542
:1049900061957F4F8F4F9F4F9923A9F0F92F96E98B
:1049A000BB279395F695879577956795B795F11100
:1049B000F8CFFAF4BB0F11F460FF1BC06F5F7F4F9D
:1049C0008F4F9F4F16C0882311F096E911C07723AF
:1049D00021F09EE8872F762F05C0662371F096E8B8
:1049E000862F70E060E02AF09A95660F771F881F87
:1049F000DAF7880F9695879597F90895990F00082B
:104A0000550FAA0BE0E8FEEF16161706E807F907A0
:104A1000C0F012161306E407F50798F0621B730B3B
:104A2000840B950B39F40A2661F0232B242B252BBC
:104A300021F408950A2609F4A140A6958FEF811D5F
:104A4000811D08950E9435250C94A9250E949B255F
:104A500038F00E94A22520F0952311F00C949225A5
:104A60000C94982511240C94DD250E94BA2570F32E
:104A7000959FC1F3950F50E0551F629FF001729F03
:104A8000BB27F00DB11D639FAA27F00DB11DAA1F12
:104A9000649F6627B00DA11D661F829F2227B00D5F
:104AA000A11D621F739FB00DA11D621F839FA00DEA
:104AB000611D221F749F3327A00D611D231F849F3A
:104AC000600D211D822F762F6A2F11249F57504091
:104AD0009AF0F1F088234AF0EE0FFF1FBB1F661F0C
:104AE000771F881F91505040A9F79E3F510580F0D5
:104AF0000C9492250C94DD255F3FE4F3983ED4F3AB
:104B0000869577956795B795F795E7959F5FC1F778
:104B1000FE2B880F911D9695879597F908959927F3
:104B20008827089597F99F6780E870E060E008950E
:104B30009FEF80EC089500240A94161617061806B5
:104B40000906089500240A94121613061406050691
:104B50000895092E0394000C11F4882352F0BB0F22
:104B600040F4BF2B11F460FF04C06F5F7F4F8F4F85
:104B70009F4F089557FD9058440F551F59F05F3FC0
:104B800071F04795880F97FB991F61F09F3F79F06F
:104B900087950895121613061406551FF2CF4695F1
:104BA000F1DF08C0161617061806991FF1CF869573
:104BB0007105610508940895E894BB276627772757
:104BC000CB0197F90895F999FECF92BD81BDF89A6E
:104BD000992780B50895262FF999FECF1FBA92BD67
:104BE00081BD20BD0FB6F894FA9AF99A0FBE0196CE
:104BF00008950E945D26A59F900DB49F900DA49FDF
:104C0000800D911D112408952F923F924F925F9233
:104C10006F927F928F929F92AF92BF92CF92DF92CC
:104C2000EF92FF920F931F93CF93DF93CDB7DEB731
:104C3000CA1BDB0B0FB6F894DEBF0FBECDBF0994C5
:104C40002A88398848885F846E847D848C849B841C
:104C5000AA84B984C884DF80EE80FD800C811B812A
:104C6000AA81B981CE0FD11D0FB6F894DEBF0FBE59
:104C7000CDBFED010895A1E21A2EAA1BBB1BFD01B9
:104C80000DC0AA1FBB1FEE1FFF1FA217B307E4072B
:104C9000F50720F0A21BB30BE40BF50B661F771F83
:104CA000881F991F1A9469F7609570958095909563
:104CB0009B01AC01BD01CF010895A29FB001B39F3C
:104CC000C001A39F700D811D1124911DB29F700D15
:104CD000811D1124911D08955058BB27AA270E94B9
:104CE00084260C94A9250E949B2538F00E94A225B9
:104CF00020F039F49F3F19F426F40C9498250EF413
:104D0000E095E7FB0C949225E92F0E94BA2558F311
:104D1000BA17620773078407950720F079F4A6F5A0
:104D20000C94DC250EF4E0950B2EBA2FA02D0B0170
:104D3000B90190010C01CA01A0011124FF27591BE0
:104D400099F0593F50F4503E68F11A16F040A22FE6
:104D5000232F342F4427585FF3CF46953795279557
:104D6000A795F0405395C9F77EF41F16BA0B620B56
:104D7000730B840BBAF09150A1F0FF0FBB1F661F9D
:104D8000771F881FC2F70EC0BA0F621F731F841FE0
:104D900048F4879577956795B795F7959E3F08F006
:104DA000B0CF9395880F08F09927EE0F97958795C8
:104DB00008950E94C22588F09F5798F0B92F99272F
:104DC000B751B0F0E1F0660F771F881F991F1AF0F6
:104DD000BA95C9F714C0B13091F00E94DC25B1E05A
:104DE00008950C94DC25672F782F8827B85F39F059
:104DF000B93FCCF3869577956795B395D9F73EF48F
:104E000090958095709561957F4F8F4F9F4F089536
:104E10000E94FE2408F48FEF08950E94FE24880B60
:104E2000990B089597FB072E16F4009407D077FD91
:104E300009D00E94262707FC05D03EF49095819565
:104E40009F4F0895709561957F4F0895AA1BBB1BD6
:104E500051E107C0AA1FBB1FA617B70710F0A61B7A
:104E6000B70B881F991F5A95A9F780959095BC019B
:104E7000CD010895EE0FFF1F0590F491E02D0994E8
:104E80000F931F93CF93DF938230910510F482E04C
:104E900090E0E0914F04F091500430E020E0B0E069
:104EA000A0E0309799F42115310509F44AC0281B78
:104EB000390B24303105D8F58A819B816115710544
:104EC00089F1FB0193838283FE0111C040815181EE
:104ED0000281138148175907E0F04817590799F4E0
:104EE000109761F012960C93129713961C933296BA
:104EF000CF01DF91CF911F910F91089500934F043F
:104F000010935004F4CF2115310551F04217530787
:104F100038F0A901DB019A01BD01DF01F801C1CF21
:104F2000EF01F9CF9093500480934F04CDCFFE0151
:104F3000E20FF31F81939193225031093983288323
:104F4000D7CF20914D0430914E04232B41F4209172
:104F50000E0130910F0130934E0420934D042091A7
:104F60000C0130910D012115310541F42DB73EB7EB
:104F70004091100150911101241B350BE0914D041B
:104F8000F0914E04E217F307A0F42E1B3F0B2817F5
:104F9000390778F0AC014E5F5F4F2417350748F0B2
:104FA0004E0F5F1F50934E0440934D048193919395
:104FB0009FCFF0E0E0E09CCFCF93DF930097E9F044
:104FC000FC01329713821282A0914F04B0915004D9
:104FD000ED0130E020E01097A1F420813181820FB3
:104FE000931F20914D0430914E042817390709F082
:104FF00061C0F0934E04E0934D04DF91CF9108958A
:10500000EA01CE17DF07E8F54A815B819E01411571
:105010005105B1F7E901FB83EA8349915991C40F26
:10502000D51FEC17FD0761F4808191810296840FF2
:10503000951FE90199838883828193819B838A8369
:10504000F0E0E0E012968D919C9113970097B9F5EE
:105050002D913C911197CD010296820F931F2091C3
:105060004D0430914E042817390739F6309751F521
:105070001092500410924F04B0934E04A0934D042C
:10508000BCCFD383C28340815181840F951FC81741
:10509000D90761F44E5F5F4F88819981480F591F8E
:1050A000518340838A819B819383828321153105BB
:1050B00009F0B0CFF0935004E0934F049ECFFD0170
:1050C000DC01C0CF13821282D7CFB0E0A0E0EBE6C4
:1050D000F8E20C9406268C01009751F4CB010E9453
:1050E00040278C01C801CDB7DEB7E0E10C94222641
:1050F000FC01E60FF71F9C0122503109E217F3076C
:1051000008F49DC0D901CD91DC911197C617D7073E
:1051100098F0C530D10530F3CE0104978617970774
:1051200008F3C61BD70B2297C193D1936D937C9341
:10513000CF010E94DC27D6CF5B01AC1ABD0A4C011F
:105140008C0E9D1EA0914F04B0915004512C412C07
:10515000F12CE12C109731F580914D0490914E0483
:105160008815990509F05CC04616570608F058C026
:1051700080910C0190910D01009741F48DB79EB77D
:105180004091100150911101841B950BE817F9070C
:1051900008F055C0F0934E04E0934D04F90171837B
:1051A0006083A0CF8D919C91119712966C9012976D
:1051B00013967C901397A815B90559F56C0142E038
:1051C000C40ED11CCA14DB0420F1AC014A195B09DE
:1051D000DA011296159780F06282738251834083C0
:1051E000D9016D937C93E114F10471F0D70113960A
:1051F000FC93EE93129776CF22968C0F9D1FF901A8
:1052000091838083F301EFCFF0935004E0934F0438
:1052100069CF4816590608F42C017D01D3019ACFB5
:10522000CB010E9440277C01009749F0AE01B801F4
:105230000E942729C8010E94DC27870153CF10E074
:1052400000E050CF81E090E0F8940C945D29FB01E0
:10525000DC0102C001900D9241505040D8F70895F2
:10526000FB01DC018D91019080190110D9F3990B9C
:105270000895FB01DC0101900D920020E1F70895F3
:10528000FB01DC014150504030F08D9101908019BC
:1052900019F40020B9F7881B990B0895FB01DC0174
:1052A0004150504048F001900D920020C9F701C0D4
:1052B0001D9241505040E0F7089514E0C3EED4E051
:1052C00004C0FE010E943A272196C43ED107C9F7C7
:0452D000F894FFCF80
:1052D4000004C0A80401DEADBEEFFEED00005104E1
:1052E400800000000000670ADE0CF310550ABC0AB7
:1052F400540E520CEF0ED40A910B7D0A8714C60E7D
:10530400AB11350EF610C40AC00A00000000F80AFA
:10531400840FF3100F05A10C820E2C0C5D10FA14EF
:105324007E0E3D0D1A0D1005ED0A2D0B3D002600D5
:105334003F0020005E00BC00770100000000B805BB
:1053440018054505050676055405680500000000A6
:10535400D60AF20FF310EC0A1D0F00000000CA1564
:105364000D0A0032302E32350052656164790045F1
:10537400746865726E657420736869656C64206E08
:10538400612049503A0052454C45205A4150005240
:10539400454C4520565950003C623E526566657244
:1053A400656EC48D6EC3A1207465706C6F74613AB0
:1053B4003C2F623E3C62723E3C696E707574207490
:1053C4007970653D276E756D626572272069643D4D
:1053D40027666E616D6527206E616D653D27666E7B
:1053E400616D6527206D696E3D273527206D6178D5
:1053F4003D2735302720737465703D27302E3235B4
:10540400272076616C75653D003E3C62723E003C2F
:10541400623E487973746572C3A97A613A3C2F621B
:105424003E3C62723E3C696E70757420747970659E
:105434003D276E756D626572272069643D27666E2F
:10544400616D653227206E616D653D27666E616D05
:10545400653227206D696E3D273027206D61783DC8
:105464002731302720737465703D27302E3235275D
:105474002076616C75653D006E616E00696E660034
:105484006F7666002F6765745F646174612F002F07
:1054940066617669636F6E2E69636F002F61637452
:1054A400696F6E2E68746D6C003C6C693E3C623EA4
:1054B4005265666572656EC48D6EC3A12074657095
:1054C4006C6F74613A203C2F623E003C2F6C693E45
:1054D400003C6C693E3C623E487973746572C3A9B2
:0A54E4007A613A203C2F623E00007E
:00000001FF
