:100000000C9405050C942D050C942D050C942D05D0
:100010000C942D050C942D050C942D050C942D0598
:100020000C942D050C942D050C942D050C942D0588
:100030000C942D050C942D050C942D050C942D0578
:100040000C947A180C942D050C9448180C942218D2
:100050000C942D050C942D050C942D050C942D0558
:100060000C942D050C942D054E414E494E49545982
:10007000494E46CDCCCC3D0AD7233C17B7D1387773
:10008000CC2B329595E6241FB14F0A000020410089
:1000900000C84200401C4620BCBE4CCA1B0E5AAED3
:1000A000C59D7400407A10F35A00A0724E180900E2
:1000B00010A5D4E80000E87648170000E40B5402CD
:1000C0000000CA9A3B000000E1F505000080969808
:1000D00000000040420F000000A086010000001058
:1000E0002700000000E8030000000064000000009A
:1000F000000A00000000000100000000002C76D87B
:1001000088DC674F0823DFC1DFAE59E1B1B796E560
:10011000E3E453C63AE651997696E8E6C28426EBC4
:10012000898C9B62ED407C6FFCEFBC9C9F40F2BAD7
:10013000A56FA5F490055A2AF75C936B6CF9676D6F
:10014000C11BFCE0E40D47FEF520E6B500D0ED90C4
:100150002E0300943577050080841E080000204E91
:100160000A000000C80C333333330F986E1283112A
:1001700041EF8D2114893BE65516CFFEE6DB18D101
:10018000844B381BF77C1D901DA4BBE424203284D3
:10019000725E228100C9F124ECA1E53D27005EBC1E
:1001A000E2613FDD83C29C7E20A3FD1F419DC321F0
:1001B0007FFCA2401E5F01E3BD3E6082DC237D9F89
:1001C000C1421CFEA0E1BF5D0380DE3C62BEE002D6
:1001D0005CDF81633D7C22C09E1D43A1FF4618FA6F
:1001E000A427799BC584DA3866E5BB5907DB8567A8
:1001F00039BAE406581947A5FB7826C49A653BD955
:1002000087045AB8E6A7F91B45C6987A24F8A6448D
:100210001A99C7257B3A6486D85B05E7B98CD2303A
:100220006EEDB3510F4E10F2AC2F7193CD114FAD57
:10023000F3702ECC92D38D6F31B2EC0E50AFF11320
:100240004DCE90722C6D33D18F0C52B0EE326C8E3D
:10025000D0530DEFB1F0AE4C1291CF2D73CA9476FE
:1002600028ABF517490856B4EA6937D58B5709EB1F
:10027000B536688AD495CB2977F4AA4816E9B755DC
:100280000B88D6346A2B7597C94A14F6A8742AC805
:1002900096154BA9F7B6E80A54D7896B35000000CC
:1002A00000250028002B00000000080002010000CB
:1002B0000304070000000000000000485454502FC1
:1002C000312E3120343034204E6F7420466F756EDD
:1002D00064003C2F68746D6C3E003C2F626F647943
:1002E0003E003C623E507265736D65726F76616E62
:1002F00069652E2E2E2050726F73696D2063616BBD
:10030000616A74653C2F623E3C2F63656E74657252
:100310003E003C63656E7465723E3C68333E5365D7
:1003200072766572207072696A616C2064617461B2
:10033000207A20666F726D756CC3A172613A3C2F92
:1003400068333E003C626F64793E003C2F68656113
:10035000643E003C7469746C653E48545450207788
:100360006562736572766572202D204172647569CD
:100370006E6F202B2045746865726E65743C2F7417
:1003800069746C653E003C6D6574612068747470BE
:100390002D65717569763D275265667265736827AC
:1003A00020636F6E74656E743D27353B2075726CEB
:1003B0003D2F27202F3E003C6D65746120636861EE
:1003C000727365743D277574662D38273E003C684E
:1003D0006561643E003C68746D6C3E003C21444F96
:1003E00043545950452068746D6C3E00436F6E74E1
:1003F000656E742D547970653A20746578742F6831
:10040000746D6C00485454502F312E3120323030EE
:10041000204F4B007D002241637475616C5F546511
:100420006D7065726174757265223A002C002254F9
:1004300061726765745F54656D7065726174757221
:1004400065223A002C0022487973746572657369DD
:1004500073223A007B00436F6E74656E742D54797D
:1004600070653A206170706C69636174696F6E2F9A
:100470006A736F6E00485454502F312E3120323041
:1004800030204F4B003C2F68746D6C3E003C2F6257
:100490006F64793E003C2F63656E7465723E003C6C
:1004A00068343E5665727A69612066726565202DF2
:1004B00020312E302E32206275696C643A20303142
:1004C0002E204F637420323032303C2F68343E008F
:1004D0003C68333E4175746F723A204D61727469A5
:1004E0006E2043686C65626F766563202D206D61B8
:1004F0007274696E697573393640676D61696C2E07
:10050000636F6D202D2068747470733A2F2F6D61A6
:100510007274696E69757339362E676974687562AD
:100520002E696F2F7465726D6F737461742D6574AD
:100530006865726E65742F3C2F68333E007300202F
:10054000006D0020006800200064003C623E557091
:1005500074696D653A203C2F623E003C68723E0033
:1005600020C2B043003C623E416B7475C3A16C6E07
:1005700061207465706C6F74612073656E7A6F7240
:100580006120445331384232303A3C2F623E2000E1
:100590003C6469762069643D22636F756E74646F94
:1005A000776E223E3C2F6469763E003C623E3C669C
:1005B0006F6E7420636F6C6F723D27726564273EA7
:1005C00056C3BD737475703A205679706E7574C3D6
:1005D000BD3C2F666F6E743E3C2F623E003C623E17
:1005E0003C666F6E7420636F6C6F723D2767726537
:1005F000656E273E56C3BD737475703A205A61709C
:100600006E7574C3BD3C2F666F6E743E3C2F623EA8
:10061000003C2F666F726D3E3C68723E003C696E16
:1006200070757420747970653D277375626D697497
:100630002720636C6173733D2762746E2062746E51
:100640002D73756363657373272076616C75653DE3
:10065000275A6170C3AD7361C5A5273E003C666F24
:10066000726D20616374696F6E3D272F61637469D9
:100670006F6E2E68746D6C27206D6574686F643DB5
:1006800027676574273E003C63656E7465723E3C67
:1006900068333E5A6164616A74652064C3A1746101
:1006A00020707265207765627365727665722028A6
:1006B000627564C3BA20756C6FC5BE656EC3A92030
:1006C000646F20454550524F4D293A3C2F68333EC8
:1006D000003C626F64793E003C2F686561643E00B7
:1006E0003C7469746C653E4854545020776562735D
:1006F0006572766572202D2041726475696E6F2077
:100700002B2045746865726E65743C2F7469746C37
:10071000653E003C2F7363726970743E007D2C202F
:1007200031303030293B0074696D656C656674202A
:100730002D3D20313B007D00646F63756D656E74E7
:100740002E676574456C656D656E744279496428E1
:1007500022636F756E74646F776E22292E696E6ED8
:10076000657248544D4C203D2074696D656C65661A
:1007700074202B20222073656BC3BA6E6420646FD3
:10078000207265C5A17461727475223B007D20657D
:100790006C7365207B00646F63756D656E742E6786
:1007A0006574456C656D656E744279496428226391
:1007B0006F756E74646F776E22292E696E6E657226
:1007C00048544D4C203D20225265C5A1746172747D
:1007D0002E2E2E223B00636C656172496E74657229
:1007E00076616C28646F776E6C6F616454696D65B7
:1007F00072293B0069662874696D656C65667420B2
:100800003C3D2030297B0076617220646F776E6CEE
:100810006F616454696D6572203D20736574496E23
:1008200074657276616C2866756E6374696F6E2884
:10083000297B007661722074696D656C6566742031
:100840003D2031303B003C736372697074207479D1
:1008500070653D27746578742F6A61766173637281
:10086000697074273E003C6C696E6B2072656C3D4C
:10087000277374796C657368656574272068726581
:10088000663D2768747470733A2F2F6D61786364C6
:100890006E2E626F6F74737472617063646E2E6318
:1008A0006F6D2F626F6F7473747261702F332E349B
:1008B0002E312F6373732F626F6F74737472617054
:1008C0002E6D696E2E637373273E003C6D657461F7
:1008D000206E616D653D2776696577706F7274274C
:1008E00020636F6E74656E743D2777696474683D2C
:1008F0006465766963652D77696474682C20696E18
:10090000697469616C2D7363616C653D31273E00CC
:100910003C6D65746120687474702D6571756976BD
:100920003D27526566726573682720636F6E746534
:100930006E743D273130273B202F3E003C6D65749F
:1009400061206E616D653D27617574686F72272047
:10095000636F6E74656E743D274D617274696E20AD
:1009600043686C65626F766563273E003C6D657415
:100970006120636861727365743D277574662D38F4
:10098000273E003C686561643E003C68746D6C3EC7
:10099000003C21444F43545950452068746D6C3ECF
:1009A00000436F6E74656E742D547970653A2074CF
:1009B0006578742F68746D6C00485454502F312E34
:1009C0003120323030204F4B00000000002400273F
:1009D000002A00000000002300260029000404046F
:1009E00004040404040202020202020303030303D8
:1009F00003010204081020408001020408102001B5
:100A0000020408102000C418D12111241FBECFEF0A
:100A1000D8E0DEBFCDBF13E0A0E0B1E0E2EFF4E547
:100A200002C005900D92A032B107D9F724E0A0E2F0
:100A3000B3E001C01D92A735B207E1F715E0C4E0AD
:100A4000D5E004C02197FE010E944928C330D10798
:100A5000C9F70E949F190C946C2A0C940000089509
:100A6000089521E0FC018485883009F420E0822F7C
:100A70000895AF92BF92CF92DF92EF92FF920F93C1
:100A80001F93CF93DF936C017B018B01040F151F24
:100A9000EB015E01AE18BF08C017D10759F069918C
:100AA000D601ED91FC910190F081E02DC6010995F0
:100AB000892B79F7C501DF91CF911F910F91FF909D
:100AC000EF90DF90CF90BF90AF900895FC01538DD1
:100AD000448D252F30E0842F90E0821B930B541718
:100AE00010F0CF96089501970895FC01918D828DA5
:100AF000981761F0A28DAE0FBF2FB11D5D968C913E
:100B0000928D9F5F9F73928F90E008958FEF9FEF7C
:100B10000895FC01918D828D981731F0828DE80F38
:100B2000F11D858D90E008958FEF9FEF0895FC01F2
:100B3000918D228D892F90E0805C9F4F821B9109BF
:100B40008F739927089586E493E00E94970521E02A
:100B5000892B09F420E0822F089580E090E0892B12
:100B600029F00E94A30581110C9400000895FC0156
:100B7000A48DA80FB92FB11DA35ABF4F2C91848DFE
:100B800090E001968F739927848FA689B7892C935B
:100B9000A089B1898C91837080648C93938D848DAE
:100BA000981306C00288F389E02D80818F7D8083B1
:100BB0000895EF92FF920F931F93CF93DF93EC0171
:100BC00081E0888F9B8D8C8D98131AC0E889F989F4
:100BD000808185FF15C09FB7F894EE89FF896083F7
:100BE000E889F98980818370806480839FBF81E078
:100BF00090E0DF91CF911F910F91FF90EF900895BA
:100C0000F62E0B8D10E00F5F1F4F0F731127E02E94
:100C10008C8D8E110CC00FB607FCFACFE889F989CC
:100C2000808185FFF5CFCE010E94B705F1CFEB8D16
:100C3000EC0FFD2FF11DE35AFF4FF0829FB7F894A0
:100C40000B8FEA89FB8980818062CFCFCF93DF93BE
:100C5000EC01888D8823B9F0AA89BB89E889F989D4
:100C60008C9185FD03C0808186FD0DC00FB607FC09
:100C7000F7CF8C9185FFF2CF808185FFEDCFCE013C
:100C80000E94B705E9CFDF91CF91089590E0FC0174
:100C9000E955FD4F2491FC01EF50F64F3491FC01D2
:100CA000E352F64FE491EE23C9F0222339F02330CA
:100CB00001F1A8F4213019F1223029F1F0E0EE0F12
:100CC000FF1FE356FD4FA591B4918FB7F894EC91B7
:100CD000611126C030953E233C938FBF0895273085
:100CE000A9F02830C9F0243049F7809180008F7D29
:100CF00003C0809180008F7780938000DFCF84B520
:100D00008F7784BDDBCF84B58F7DFBCF8091B00022
:100D10008F778093B000D2CF8091B0008F7DF9CFD4
:100D20003E2BDACFCF93DF9390E0FC01EF50F64FEC
:100D300024918352964FFC0184918823D1F090E056
:100D4000880F991FFC01E753F64FA591B491FC0160
:100D5000E356FD4FC591D49161110EC09FB7F89431
:100D60008C91E22FE0958E238C932881E223E883F7
:100D70009FBFDF91CF9108958FB7F894EC91E22B4C
:100D8000EC938FBFF6CF3FB7F894809126039091F4
:100D90002703A0912803B091290326B5A89B05C07D
:100DA0002F3F19F00196A11DB11D3FBFBA2FA92FEA
:100DB000982F8827BC01CD01620F711D811D911DE7
:100DC00042E0660F771F881F991F4A95D1F7089553
:100DD0008F929F92AF92BF92CF92DF92EF92FF924B
:100DE0006B017C010E94C3064B015C01C114D1045C
:100DF000E104F104B9F00E94C306681979098A096F
:100E00009B09683E73408105910580F321E0C21A79
:100E1000D108E108F10888EE880E83E0981EA11C35
:100E2000B11CE4CFFF90EF90DF90CF90BF90AF90D8
:100E30009F908F9008952FB7F8946091220370913E
:100E4000230380912403909125032FBF0895DC0193
:100E500080E0615038F0ED91E827F0E0E356FE4F76
:100E60008491F7CF0895DC012C911196ED91FC91BE
:100E7000F8948181822B81839281322F3095932344
:100E8000928387E090E00197F1F78181832381834A
:100E900083E290E00197F1F790817894EFECF0E035
:100EA0003197F1F7922381E009F480E00895FC0185
:100EB00090810180F281E02D292F209560FF14C0E0
:100EC000F8948281822382838181892B8183A3E2AA
:100ED000B0E01197F1F78281982B9283789487ED97
:100EE00090E00197F1F70895F8948281822382833C
:100EF0008181892B8183AFEFB0E01197F1F7828177
:100F0000982B928378948FE090E0EBCFDF92EF9272
:100F1000FF920F931F93CF93DF93EC01D62EE42E15
:100F200008E010E0FF24F39461E08D2D8F2109F497
:100F300060E0CE010E945707FF0C01501109A1F794
:100F4000E11010C0F894E981FA819181888180953F
:100F500089238183E981FA8192818881809589231F
:100F600082837894DF91CF911F910F91FF90EF9042
:100F7000DF900895EF92FF920F931F93CF93DF932B
:100F80008C017B0140E065E50E948607E70188E06F
:100F9000E80EF11C699140E0C8010E948607CE1559
:100FA000DF05C1F7DF91CF911F910F91FF90EF9077
:100FB0000895FC0190810180F281E02DF8948181F7
:100FC000292F20958223818378943DE743E050E0E8
:100FD000315029F1DA011197F1F780818923C1F3AA
:100FE000F8948281822382838181892B8183789402
:100FF000ABE7B7E01197F1F7F89481818223818301
:10100000A3E1B1E01197F1F78081982381E009F025
:1010100080E07894E3E6F6E03197F1F7089580E018
:101020000895AF92BF92CF92DF92EF92FF920F930B
:101030001F93CF93DF938B01BC0180912D0490917E
:101040002E040E94BA0740E06EEB80912D0490912F
:101050002E040E948607E801680189E0C80ED11CB1
:10106000A0902D04B0902E0488E0E82EF12C10E022
:1010700001E0C5010E9433078111102B000F81E0B0
:10108000E81AF108B1F71993CC16DD0649F78091FB
:101090002D0490912E040E94D90791E0813009F02F
:1010A00090E0892FDF91CF911F910F91FF90EF90EA
:1010B000DF90CF90BF90AF9008950F931F93CF9381
:1010C000DF93CDB7DEB729970FB6F894DEBF0FBE1A
:1010D000CDBF8C0180912D0490912E040E94D907E0
:1010E000811102C080E01FC0BE016F5F7F4FC80149
:1010F0000E9411088823B1F368E0CE0101960E9496
:10110000270799858913EECF8D818F33B9F020F4AD
:101110008F3141F789E007C08F3521F08F3711F704
:101120008CE001C08BE029960FB6F894DEBF0FBEAD
:10113000CDBFDF91CF911F910F9108958AE0F3CF3A
:1011400061E0809143030C94460660E08091430384
:101150000C94460608958EBD00000DB407FEFDCF29
:101160008EB508958CBD9DBD0895DF92EF92FF92DC
:101170000F931F93CF93DF93D82FD92EC62F7A01C9
:1011800089018091E3039091E4030E94B2080E94D8
:10119000A5088D2D0E94AB088D2F0E94AB088C2FC7
:1011A0000E94AB08E701E00EF11E80E00E94AB0850
:1011B0008993EC16FD06C9F70E94A008C801DF91CB
:1011C000CF911F910F91FF90EF90DF900895CF93F3
:1011D000DF93D82FC62F8091E3039091E4030E9400
:1011E000B2080E94A50880E00E94AB088D2F0E94E3
:1011F000AB088C2F0E94AB0880E00E94AB08C82F80
:101200000E94A0088C2FDF91CF910895DF92EF927A
:10121000FF920F931F93CF93DF93D82FD92EC62F12
:101220007A0189018091E3039091E4030E94B2085E
:101230000E94A5088D2D0E94AB088D2F0E94AB083F
:101240008C2F0E94AB08E701E00EF11ECE15DF05E2
:1012500021F089910E94AB08F9CF0E94A008C80133
:10126000DF91CF911F910F91FF90EF90DF90089544
:101270001F93CF93DF93182FD62FC42F8091E303B2
:101280009091E4030E94B2080E94A50880E00E94A9
:10129000AB08812F0E94AB088D2F0E94AB088C2FCA
:1012A0000E94AB080E94A00881E0DF91CF911F91BE
:1012B0000895CF92DF92EF92FF920F931F93CF93F7
:1012C000DF93CDB7DEB7C254D1090FB6F894DEBFB5
:1012D0000FBECDBFFC0182819381A481B58123968D
:1012E0008CAF9DAFAEAFBFAF239721E023962FAF5A
:1012F000239723964CAD5DAD6EAD7FAD23974BAB81
:101300005CAB6DAB7EAB89AF9AAFABAFBCAF8DA71B
:101310009EA7AFA7B8AB28AB4DA55EA56FA578A9D2
:101320004FA358A769A77AA72EAB4BA95CA96DA9B3
:101330007EA949A35AA36BA37CA38B8F9C8FAD8FEF
:10134000BE8F4EE851E05C8B4B8B3FEF3D8B3E8B6D
:101350003F8B188E5E874D872AA7CFA0D8A4E9A41B
:10136000FAA4CF86D88AE98AFA8A2CA309A11AA1FD
:101370002BA13CA109871A872B873C875A83498375
:101380008B839C83AD83BE83109109041093430328
:1013900068EE73E080E090E00E94E80661E0812F53
:1013A0000E9492061FB7F89480914203811127C0D2
:1013B000E7EEF9E08491EBEFF9E09491E82FF0E0AB
:1013C000EE0FFF1FE753F64FA591B491EC91E9237F
:1013D00021F461E08AE00E94460661E08AE00E9412
:1013E00092068CB580618CBD8CB580648CBD61E04B
:1013F0008DE00E94920661E08BE00E94920680914F
:1014000042038F5F809342031FBF60E090E080E063
:101410000E94E708482F406864E090E080E00E9466
:1014200038091CE088E0E82EF12C42E0612F8EE1C3
:1014300090E00E94380942E0612F8FE190E00E9425
:101440003809F1E0EF1AF108105EE114F10469F7D0
:1014500026E030E046E051E064E089E090E00E9460
:10146000060924E030E0AE014D5F5F4F64E08FE09D
:1014700090E00E94060924E030E0AE01415F5F4F3A
:1014800064E081E090E00E94060924E030E0AE01D3
:101490004B5E5F4F64E085E090E00E94060981E0CA
:1014A0008C8789859A85AB85BC858093FF03909353
:1014B0000004A0930104B0930204CE5BDF4F0FB68B
:1014C000F894DEBF0FBECDBFDF91CF911F910F917A
:1014D000FF90EF90DF90CF9008959B018295880F49
:1014E000807E6CE0680FC9010C943809CF93DF93BC
:1014F000EC01898D9A8D892B41F0E881F981028474
:10150000F385E02DCE010995F4CFDF91CF910895B9
:10151000CF93DF931F92CDB7DEB76983DC01ED91E6
:10152000FC910280F381E02D41E050E0BE016F5F4D
:101530007F4F09950F90DF91CF9108951F93CF931F
:10154000DF93FB01DC0158961C921E925797228173
:10155000211109C02381211106C02481211103C05A
:101560002581222339F14115510521F1EA01DC01E0
:101570001C961C91AF014E5F5F4F612F6295660F05
:10158000607E645F24E030E08CE090E00E94060919
:101590004D2F60E170E0812F0E946D0A4C2F61E1B8
:1015A00070E0812F0E946D0A81E090E0DF91CF9181
:1015B0001F91089590E080E0F9CFFC01818D928D1C
:1015C0000895FC018589968908952EE831E0FC0193
:1015D00031832083FB014189528963897489FC012D
:1015E0004283538364837583089580E00895CF9385
:1015F000DF931F92CDB7DEB76983DC01ED91FC91DB
:101600000280F381E02D41E050E0BE016F5F7F4F2B
:1016100009950F90DF91CF9108950895FC0194856D
:10162000FB018485981303C081E0983009F480E0C1
:101630000895CF93DF931F92CDB7DEB76983DC01A6
:10164000ED91FC910280F381E02D41E050E0BE017C
:101650006F5F7F4F09950F90DF91CF910895EF92C3
:10166000FF920F931F93CF93DF938C017B01D0E008
:10167000C0E0F701EC0FFD1F6491662339F0C8014B
:101680000E94190B892B11F02196F3CFCE01DF9127
:10169000CF911F910F91FF90EF900895DC01ED9194
:1016A000FC91028CF38DE02D099591E08927089536
:1016B0009B018295880F807E68E0680FC9010C94B9
:1016C000E708CF93C82F462F61E070E00E946D0AB3
:1016D00061E070E08C2F0E94580B8111F9CFCF91FF
:1016E0000895CF93C82F60E170E00E94610B4FEF27
:1016F00062E070E08C2FCF910C946D0A0F931F93D2
:10170000CF93DF93C82FD62F8A010E94710B4D2FE4
:1017100070E060E08C2F0E946D0A01151105B9F090
:10172000412F64E070E08C2F0E946D0A402F65E02D
:1017300070E08C2F0E946D0A61E070E08C2F0E9497
:10174000610B81E0DF91CF911F910F91089500917E
:101750004403109145030F5F1F4F109345030093FF
:101760004403DECFCF93DF93EC018C85883061F0AA
:101770000E94710BEC85F0E0EE0FFF1FE65DFC4F61
:101780001182108288E08C87DF91CF910895BF92FB
:10179000CF92DF92EF92FF920F931F93CF93DF933D
:1017A000B82E6B017A01890164E270E00E94580B47
:1017B000C82F65E270E08B2D0E94580BD0E0DC2F23
:1017C000CC278C0D9D2D911DC80FD91F6B2D6295B7
:1017D000660F607E6C5E9801A701CE010E9406092B
:1017E000C00FD11F4D2F64E270E08B2D0E946D0A57
:1017F0004C2F65E270E08B2DDF91CF911F910F91FF
:10180000FF90EF90DF90CF90BF900C946D0ACF9235
:10181000DF92EF92FF920F931F93CF93DF93D82E17
:101820007B018A01C22E68E270E00E94580BC82F2B
:10183000D0E0DC2FCC2769E270E08D2D0E94580BA0
:10184000C80FD11D6D2D6295660F607E685E980190
:10185000A701CE010E94B508C11016C0C00FD11F4C
:101860004D2F68E270E08D2D0E946D0A4C2F69E2C9
:1018700070E08D2DDF91CF911F910F91FF90EF9030
:10188000DF90CF900C946D0ADF91CF911F910F9153
:10189000FF90EF90DF90CF9008950F931F93CF9319
:1018A000DF931F92CDB7DEB78C01DC01ED91FC9187
:1018B0000084F185E02D0995892B91F021E041E02C
:1018C00050E0BE016F5F7F4FF80184850E94070CD6
:1018D000898190E00F90DF91CF911F910F91089532
:1018E0008FEF9FEFF7CFCF93DF931F92CDB7DEB788
:1018F000FC01218D328D8FEF9FEF232B59F021E0DA
:1019000041E050E0BE016F5F7F4F84850E94070C6D
:10191000898190E00F90DF91CF9108951F93CF932D
:10192000DF93182F66E270E00E94580BC82FD0E0BA
:10193000DC2FCC2767E270E0812F0E94580B8C0FC0
:101940009D2F911DDF91CF911F910895FF920F93CD
:101950001F93CF93DF93F82E10E000E08F2D0E94AD
:101960008E0CEC01892B21F08F2D0E948E0C8C01A6
:10197000C017D10799F7CE01DF91CF911F910F9139
:10198000FF900895FC018485883011F00C94A60C1A
:1019900090E080E008951F93CF93DF93182F60E2CB
:1019A00070E00E94580BC82FD0E0DC2FCC2761E2FA
:1019B00070E0812F0E94580B8C0F9D2F911DDF919D
:1019C000CF911F910895FF920F931F93CF93DF93B1
:1019D000F82E10E000E08F2D0E94CB0CEC01892B3B
:1019E00021F08F2D0E94CB0C8C01C017D10799F7E5
:1019F000CE01DF91CF911F910F91FF900895AF928B
:101A0000BF92CF92DF92FF920F931F93CF93DF93FA
:101A10008C015B01EA01FC01C788D08CF4848F2D16
:101A20000E94E30C8C179D0720F48F2D0E94E30C7D
:101A3000EC019E01A501B6018F2D0E94C70BF80194
:101A40008789908D8C0F9D1F908F878BCE01DF91A2
:101A5000CF911F910F91FF90DF90CF90BF90AF90EB
:101A60000895FC018485883021F063E070E00C94D7
:101A7000580B80E00895CF93DF93FC012485283034
:101A8000D9F0EC010E94310D843189F0882379F07E
:101A9000883169F021E08C3159F4E881F9810084C2
:101AA000F185E02DCE01099521E0892B09F420E094
:101AB000822FDF91CF91089580E0FBCFCF92DF920C
:101AC000EF92FF92CF93DF93EC018C85883089F100
:101AD00068E070E00E94610B0E941B076B017C01B3
:101AE000CE010E94310D882391F00E941B076C19D2
:101AF0007D098E099F09683E73408105910538F480
:101B000061E070E080E090E00E94E806E9CFCE015D
:101B10000E94310D882319F08C850E94710BEC8591
:101B2000F0E0EE0FFF1FE65DFC4F1182108288E0AF
:101B30008C87DF91CF91FF90EF90DF90CF90089549
:101B40004F925F926F927F928F929F92AF92BF92CD
:101B5000CF92DF92EF92FF921F93CF93DF93CDB797
:101B6000DEB72D970FB6F894DEBF0FBECDBF7C0158
:101B70009AE2A92E93E0B92E10E0D12CC12C28EEC8
:101B8000422E23E0522E612C712C3EE3832E31E055
:101B9000932E1C821B824D825E826F8278869A828F
:101BA00089821D87D5012D913D915D01F7018481C9
:101BB000958128173907B1F4CE0101960E94310DA5
:101BC000843199F1CE0101960E94310D8C3151F48E
:101BD000CE0101960E94C20C892B21F4CE01019600
:101BE0000E945E0D1F5F1830A1F6CD2841F4D70189
:101BF000ED91FC910084F185E02DC70109952D96AA
:101C00000FB6F894DEBF0FBECDBFDF91CF911F910D
:101C1000FF90EF90DF90CF90BF90AF909F908F900C
:101C20007F906F905F904F900895CC24C394D12CF7
:101C3000D9CFCF92DF92EF92FF921F93CF93DF9392
:101C4000182F6B017A010E94A60CEC010097D9F4C1
:101C500063E070E0812F0E94580B843159F0882393
:101C600049F0C1E0D0E08C3111F4D0E0C0E0D19572
:101C7000C195D109CE01DF91CF911F91FF90EF90D7
:101C8000DF90CF900895E816F9060CF4E7011C16D2
:101C90001D0684F720E0AE01B601812F0E94070CDB
:101CA00060E470E0812F0E94610BE4CFCF93DF935B
:101CB000FC01218D328D2115310529F48FEF9FEF25
:101CC000DF91CF910895EC0184854217530708F006
:101CD000A9010E94190E1816190684F7298D3A8D4C
:101CE000281B390B3A8F298FEBCF0F931F93CF937C
:101CF000DF931F92CDB7DEB7FC01218D328D232BF0
:101D000041F48FEF9FEF0F90DF91CF911F910F91D3
:101D100008958C0141E050E0BE016F5F7F4FFC01F0
:101D200084850E94190E181619065CF7F801818D3A
:101D3000928D0197928F818F898190E0E4CFFC0191
:101D400084850C94190ECF93DF931F92CDB7DEB725
:101D500041E050E0BE016F5F7F4FFC0184850E942F
:101D6000190E1816190634F4898190E00F90DF914E
:101D7000CF9108958FEF9FEFF9CF0F931F93CF93DC
:101D8000DF93EC010E941B07688779878A879B870E
:101D9000CE010E94A30E97FF15C00E941B07088565
:101DA00019852A853B85601B710B820B930B0C8177
:101DB0001D812E813F81601771078207930740F3D1
:101DC0008FEF9FEFDF91CF911F910F910895CF93E8
:101DD000FC01C48560E270E08C2F0E94610B62E020
:101DE00070E08C2F0E94580B84FD11C062E070E0FF
:101DF0008C2F0E94580B83FFF2CF48E162E070E025
:101E00008C2F0E946D0A90E080E0CF91089540E110
:101E100062E070E08C2F0E946D0A81E090E0F5CFC7
:101E2000EF92FF921F93CF93DF93FC01248528301C
:101E300039F080E0DF91CF911F91FF90EF900895EE
:101E40007B01EC0110E063E070E0812F0E94580BF1
:101E500081110EC01C878C85883059F3FE86ED8673
:101E60001A8E198EA70162E00E947E0B81E0E2CFFC
:101E7000883181F31F5F183031F7EDCF8F929F9239
:101E8000AF92BF92CF92DF92EF92FF920F931F9388
:101E9000CF93DF93CDB7DEB72D970FB6F894DEBFA3
:101EA0000FBECDBF7C0110E000E038EE832E33E0A2
:101EB000932EA12CB12C4EE3C42E41E0D42E1C82D3
:101EC0001B828D829E82AF82B886DA82C9820D879C
:101ED000CE0101960E94310D811130C0F70144817D
:101EE000558161E0802F0E947E0B63E070E0802FBF
:101EF0000E94580B833129F462E070E0802F0E9429
:101F0000610BF70184819581000F111FF801E65DD7
:101F1000FC4F918380832D960FB6F894DEBF0FBEE1
:101F2000CDBFDF91CF911F910F91FF90EF90DF9088
:101F3000CF90BF90AF909F908F9008950F5F1F4FED
:101F40000830110509F0BBCFE6CF8F929F92AF9278
:101F5000BF92CF92DF92EF92FF920F931F93CF9396
:101F60006C015B017A01FC01C485C830A1F481E0F9
:101F700090E0F60193838283F12CE12CC701CF918D
:101F80001F910F91FF90EF90DF90CF90BF90AF9097
:101F90009F908F9008958A014130584010F000E0E2
:101FA00018E08C2F0E94E30C4C0163E070E08C2F52
:101FB0000E94580B873111F08C3109F5801691067B
:101FC00080F39801A50170E060E08C2F0E94C70BA0
:101FD00060E270E08C2F0E94610B62E070E08C2F59
:101FE0000E94580B84FD0EC063E070E08C2F0E94AD
:101FF000580B8111F2CF8C2F0E94710BB8CF10E0DB
:1020000000E0DFCF40E162E070E08C2F0E946D0ABB
:10201000012B09F0B3CFABCFFB0144815581608127
:1020200071810C94A50F3F924F925F926F927F92B5
:102030008F929F92AF92BF92CF92DF92EF92FF92D8
:102040000F931F93CF93DF93CDB7DEB72D970FB6C6
:10205000F894DEBF0FBECDBF6C015B014A010E9448
:10206000A00D8AE2E82E83E0F82E312C10E000E08B
:1020700098EE492E93E0592E612C712C1C821B8204
:102080004D825E826F8278868EE391E09A838983A7
:102090003D86F701219131917F01F601848195817F
:1020A0002817390771F4CE0101960E94310D87314E
:1020B00041F4A401B501CE0101960E94A50F080FBD
:1020C000191F3394F8E03F12D9CFC8012D960FB6EF
:1020D000F894DEBF0FBECDBFDF91CF911F910F915E
:1020E000FF90EF90DF90CF90BF90AF909F908F9038
:1020F0007F906F905F904F903F900895DF92EF92A6
:10210000FF920F931F93CF93DF93FC012485283018
:1021100051F090E080E0DF91CF911F910F91FF90FF
:10212000EF90DF9008957A01EB018C01D12C63E0F0
:1021300070E08D2D0E94580B811128C0F801D486C3
:10214000F8018485883029F3209100013091010144
:102150002F5F3F4F19F1309301012093000140910F
:1021600000015091010161E00E947E0B8A818F3F46
:10217000C1F48B818F3F01F58C818F3FE9F48D8114
:102180008F3FD1F488E0F8018487C3CF8B7F8831FB
:10219000A9F2D394F8E0DF12CACFD2CF20E034E026
:1021A000DACF811109C08B81811106C08C81811128
:1021B00003C08D81882331F3E114F10419F3F80190
:1021C000D484AE014E5F5F4F6D2D6295660F607EC9
:1021D000645F24E030E08CE090E00E9406094F2D1F
:1021E00060E170E08D2D0E946D0A4E2D61E170E07E
:1021F0008D2D0E946D0A64E070E08D2D0E94610BB0
:10220000C8010E94310D873161F061E070E080E02B
:1022100090E00E94E806C8010E94310D8111F0CFC4
:10222000B1CF81E090E077CF90E080E00895DC01CD
:10223000ED91FC91048CF58DE02D099480912D0495
:1022400090912E040E94D90740E06CEC80912D04FF
:1022500090912E040E9486074091280464E48091A6
:102260002D0490912E040E94860780912A048823D1
:10227000A1F0E0912904E9506EEE72E0E33038F409
:10228000F0E0EE0FFF1FEC59FE4F60817181072EC9
:10229000000C880B990B0C94E8060895BF92CF921E
:1022A000DF92EF92FF920F931F93CF93DF93EC0196
:1022B000B62EC72EED84E11004C00E94D90781110B
:1022C0000EC01B861D861C8680E0DF91CF911F917A
:1022D0000F91FF90EF90DF90CF90BF90089540E076
:1022E00060EFCE010E948607D12C01E011E0CE0103
:1022F0000E943307F82ECE010E94330791E0F912B5
:1023000018C0813099F51134E0F2EB86E11002C07B
:1023100081E08D878B818823A1F22396EB2DFC2D04
:10232000CF01089629912193E817F907D9F781E0A1
:10233000CCCFED2DF0E0F8120FC08B851817A0F46C
:10234000DE01AE0FBF1F13968C91802379F4F12C20
:10235000193008F41C87E12EEC0FFD1F8381902FAC
:102360009095892383830AC08113F1CFFE01ED0D7F
:10237000F11D8381802B8383FF24F3946F2DCE0185
:102380000E9457071F5F000F11F4D39401E087E00C
:102390008D1508F0ACCFB7CF0F931F93CF93DF937A
:1023A000CDB7DEB728970FB6F894DEBF0FBECDBF0E
:1023B0008C01DC01ED91FC910680F781E02D0995FF
:1023C000F80184850E94A60C892BB1F148E050E009
:1023D000BE016F5F7F4FD8011C968C910E94190E31
:1023E00018161906F4F4D801519684E0FE013196CE
:1023F00001900D928A95E1F78D8190E0982F8827C2
:102400002E81820F911DF801968B858B8F81282F4D
:1024100030E0322F22278885820F932F911D928FD3
:10242000818F28960FB6F894DEBF0FBECDBFDF9127
:10243000CF911F910F91089590E080E0F2CF4F92DD
:102440005F926F927F928F929F92AF92BF92CF9244
:10245000DF92EF92FF920F931F93CF93DF93CDB74D
:10246000DEB763970FB6F894DEBF0FBECDBF7C0119
:102470006B013A01FB01DB018D918111FDCF30E051
:1024800020E090E080E05AE04191442301F1843063
:1024900091050CF042C04E3269F42F3F310509F02E
:1024A000E4F5D301A80FB91F12962C93019630E0E2
:1024B00020E0EACF529FB001539F700D1124242FCA
:1024C000440F330B20533109260F371FDDCF2F3F29
:1024D000310509F014F584309105FCF4680E791E7D
:1024E000F3012283CC24C394D12CC60163960FB68A
:1024F000F894DEBF0FBECDBFDF91CF911F910F913A
:10250000FF90EF90DF90CF90BF90AF909F908F9013
:102510007F906F905F904F900895F70142815381B3
:10252000648175818091120490911304A091140428
:10253000B0911504481759076A077B0709F400C2D0
:102540008701085F1F4F0E941B076F7077277C5F12
:10255000C8010E94100F813009F0F7C18EE891E0A8
:102560009A838983F70182819381A481B5818B83CA
:102570009C83AD83BE8345E350E0BE016F5F7F4F18
:10258000C8010E949E0A892B31F4D12CC12CC801AC
:102590000E94B20BAACF0E941B07F70177836683C4
:1025A00042E050E0B7016A5F7F4FC8010E94FF0C14
:1025B00081E090E09A83898342E050E0BE016F5F42
:1025C0007F4FC8010E94FF0C80E091E09A838983CD
:1025D00042E050E0BE016F5F7F4FC8010E94FF0CD8
:1025E0001A82198242E050E0BE016F5F7F4FC8013E
:1025F0000E94FF0C42E050E0BE016F5F7F4FC801B8
:102600000E94FF0C42E050E0BE016F5F7F4FC801A7
:102610000E94FF0C5601F6018081882301F16501BB
:10262000F60181912F01882311F08E32B1F4460119
:102630008A189B081814190474F48D8641E050E040
:10264000BE01635F7F4FC8010E94FF0CA401B5016A
:10265000C8010E94FF0C5201DECF6201E1CF1D864E
:1026600041E050E0BE01635F7F4FC8010E94FF0C54
:10267000C12CDD24D394DA82C98242E050E0BE014D
:102680006F5F7F4FC8010E94FF0CDA82C98242E06F
:1026900050E0BE016F5F7F4FC8010E94FF0CC80170
:1026A0000E94E70E892B09F470CFF3E0AF2EB12C16
:1026B000230122E0420E511C43C0F70142815381A5
:1026C00064817581818D928DA38DB48D48175907D2
:1026D0006A077B0709F02AC1858D968DC59709F099
:1026E00025C181A192A10C970CF425C14CE050E0CA
:1026F000BE016F5F7F4FC8010E94560E8B819C8187
:102700009827892798279A8B898BF70146815781CB
:1027100029813A814217530711F497FD2FC0C80150
:102720000E94760AECEFCE2EDD24DA9481E0A81A1E
:10273000B10809F42CCFFFEFCF16DF0609F027CF41
:102740000E941B073B014C01C8010E94CC111816C6
:1027500019060CF4B2CF0E941B0766197709880985
:102760009909693873418105910508F0DBC062E37E
:1027700070E080E090E00E94E806E6CF8F709270F3
:10278000892B41F0C8010E94760A7BEFC72EDD2419
:10279000DA94CCCF6F807884762467247624D12C89
:1027A000C12C61147104D1F4C8010E94760A6AEF49
:1027B000C62EDD24DA94BACF8D85811117C0C801E9
:1027C0000E94750EC8010E94750EC8010E94750E08
:1027D000C8010E94750EFFEFCF1ADF0A8D819E811E
:1027E000982789279827C816D906A8F441E050E011
:1027F000BE01635F7F4FC8010E94560E8D858823FE
:10280000D9F28D859FEF980F9D878823A9F2C80183
:102810000E94750EF6CF912C812C41E050E0BE0154
:102820006D5E7F4FC8010E94560E8B89982F907C59
:1028300061F4882389F08B899FEF980F9B8B882305
:1028400041F0C8010E94750EF6CFC8010E94750EB6
:102850001B8A8B898111E1CF42E050E0BE01615FAC
:102860007F4FC8010E94560E42E050E0BE01635FF8
:102870007F4FC8010E94560EC8010E94750EC80104
:102880000E94750EC8010E94750EC8010E94750E47
:1028900042E050E0BE016F5E7F4FC8010E94560EBD
:1028A0008F85988981159140E9F4CD84DE84DC24FC
:1028B000CD24DC2481E0C816D104A1F489899A8949
:1028C0008115944041F0C8010E94760A57EFC52E49
:1028D000DD24DA942BCF44E050E0B201C8010E941D
:1028E000560E24CFD12CC12C89899A899827892703
:1028F0009827C816D90638F4C8010E94750EFFEF54
:10290000CF1ADF0AF1CF2FEF821A920A68147904E6
:1029100009F083CFC8010E94760A46EFC42EDD2459
:10292000DA9404CFCC24CA94DC2C00CF2EEFC22E34
:10293000DD24DA94FBCE9DEFC92EDD24DA94F6CEA9
:102940008EEFC82EDD24DA94D0CDD12CC12CCDCD84
:10295000CF92DF92EF92FF920F931F93CF93DF936B
:10296000CDB7DEB7AF970FB6F894DEBF0FBECDBFC1
:102970007C016A010EE811E01A8309831C861B861C
:1029800088EE93E0A0E0B0E08D879E87AF87B88B9C
:1029900086E191E09A87898788E08D8B198F088F6F
:1029A0001A8E1B8E1C8E1D8E1BA70AA71CA61DA689
:1029B0001EA61FA68091FF0390910004A091010420
:1029C000B09102048EA39FA3A8A7B9A78B839C8371
:1029D000AD83BE8318861F82AE01465D5F4FCE0178
:1029E00001960E941F1281309105B1F4D701ED913B
:1029F000FC910488F589E02D1DA30CA38CA59DA551
:102A0000AEA5BFA58EA39FA3A8A7B9A7A601BE0187
:102A10006C5D7F4FC7010995AF960FB6F894DEBF86
:102A20000FBECDBFDF91CF911F910F91FF90EF901F
:102A3000DF90CF900895CF92DF92EF92FF920F93A5
:102A40001F93CF93DF93CDB7DEB7AF970FB6F89450
:102A5000DEBF0FBECDBF7C016A010EE811E01A8314
:102A600009831C861B8688EE93E0A0E0B0E08D878A
:102A70009E87AF87B88B86E191E09A87898788E047
:102A80008D8B198F088F1A8E1B8E1C8E1D8E1BA787
:102A90000AA71CA61DA61EA61FA68091FF03909143
:102AA0000004A0910104B09102048EA39FA3A8A7E3
:102AB000B9A78B839C83AD83BE8318861F82AE012A
:102AC000465D5F4FCE0101960E941F128130910535
:102AD000B1F4D701ED91FC910684F785E02D1DA39B
:102AE0000CA38CA59DA5AEA5BFA58EA39FA3A8A74B
:102AF000B9A7A601BE016C5D7F4FC7010995AF96CE
:102B00000FB6F894DEBF0FBECDBFDF91CF911F91FE
:102B10000F91FF90EF90DF90CF9008950E94312A9F
:102B2000FB0101900020E9F73197AF01461B570BDD
:102B3000DC01ED91FC910280F381E02D09948F92EC
:102B40009F92AF92BF92EF92FF920F931F93CF93FA
:102B5000DF93CDB7DEB7A1970FB6F894DEBF0FBEF7
:102B6000CDBF7C01FA01CB0119A2223008F42AE082
:102B70008E010F5D1F4F822E912CB12CA12CBF0115
:102B8000A50194010E944A27F901CA016A300CF597
:102B9000605DD8016E938D01232B242B252B79F7B3
:102BA00090E080E0109721F0BD01C7010E949015D0
:102BB000A1960FB6F894DEBF0FBECDBFDF91CF91C7
:102BC0001F910F91FF90EF90BF90AF909F908F90CB
:102BD0000895695CDECF8F929F92AF92BF92CF92A1
:102BE000DF92EF92FF920F931F93CF93DF937C01BD
:102BF000EB016C0182E0C80ED11C4701E5E08E0EAE
:102C0000911C10E000E0F60141916F0150E070E08E
:102C100060E02AE0CE010E949F155C01E881F98105
:102C20000190F081E02D6EE2CE0109958A0D9B1D89
:102C3000080F191FC814D90431F7F701458150E076
:102C400070E060E02AE0CE010E949F15800F911F86
:102C5000DF91CF911F910F91FF90EF90DF90CF9078
:102C6000BF90AF909F908F90089560E971E00C94B1
:102C70009015CF93DF9366E473E00E94EB15EC01AF
:102C800086E493E00E9435168C0F9D1FDF91CF9153
:102C90000895CF93DF93D0E0C0E0009731F0BC01FE
:102CA00086E493E00E949015EC0186E493E00E9494
:102CB00035168C0F9D1FDF91CF9108950F931F93B1
:102CC000CF93DF93EC010E940C108C01CE010E9487
:102CD0003516800F911FDF91CF911F910F910895AD
:102CE0000F931F93CF93DF93EC010E942F0B8C0166
:102CF000CE010E943516800F911FDF91CF911F9159
:102D00000F910895FC0124813581232B31F421E0BA
:102D1000FB01672B49F4822F089580819181611511
:102D2000710539F421E0FC0180818823A1F320E0C2
:102D3000F2CF0E943F2A21E0892B69F3F8CF0F934D
:102D40001F93CF93DF93EC0188819981009759F00D
:102D50002A813B812617370730F081E0DF91CF9140
:102D60001F910F9108958B016F5F7F4F0E9474290F
:102D7000009759F0998388831B830A832C813D81B6
:102D8000232B59F7FC011082E8CF80E0E7CFEF92C8
:102D9000FF920F931F93CF93DF936115710541F459
:102DA00080E0DF91CF911F910F91FF90EF900895F8
:102DB00041155105B1F07B01EC010C811D81040F1F
:102DC000151FB8010E949F16882351F3288139816D
:102DD0008C819D81B701820F931F0E94482A1D8319
:102DE0000C8381E0DECFCF93DF93EC018881998162
:102DF000009711F00E94EB28198218821D821C8214
:102E00001B821A82DF91CF910895EF92FF920F9368
:102E10001F93CF93DF93EC01198218821B821A82D1
:102E20001D821C826115710521F18B01FB0101904E
:102E30000020E9F731977F01E61AF70AB7010E94EF
:102E40009F16811109C0CE01DF91CF911F910F9183
:102E5000FF90EF900C94F316FD82EC82B80188810C
:102E60009981DF91CF911F910F91FF90EF900C947A
:102E7000482ADF91CF911F910F91FF90EF90089515
:102E8000EF92FF920F931F93CF93DF938C017B01FF
:102E9000EB0109900020E9F72197C61BD70BBE0173
:102EA0000E949F16811109C0C801DF91CF911F9127
:102EB0000F91FF90EF900C94F316F801D583C48323
:102EC000B70180819181DF91CF911F910F91FF9088
:102ED000EF900C94482ACF93DF93EC01FB01019013
:102EE0000020E9F73197AF01461B570B0E94C71628
:102EF000811103C0CE010E94F316CE01DF91CF9164
:102F00000895CF93DF93EC01FB01448155816081EB
:102F100071810E94C716811103C0CE010E94F31671
:102F2000CE01DF91CF910895FC01808191810097BE
:102F300011F00C94EB280895AF92BF92CF92DF92DC
:102F4000EF92FF920F931F93CF93DF93CDB7DEB72E
:102F5000C456D1090FB6F894DEBF0FBECDBF6C01C9
:102F6000062F660F110BC8010E94F2269E012F5FEB
:102F70003F4F79015901021B130BF501EE19FF09AF
:102F8000882349F0C8018A0D9B1D0E94F226F50195
:102F900081935F01F2CFEE0DFF1D1082B701C601D4
:102FA0000E940517C601CC59DF4F0FB6F894DEBF5B
:102FB0000FBECDBFDF91CF911F910F91FF90EF908A
:102FC000DF90CF90BF90AF900895CF92DF92EF92B5
:102FD000FF920F931F93CF93DF937B01DB01149636
:102FE000CD90DC90D0E0C0E0082F880F110BCC15FD
:102FF000DD05D4F4F70184819581C817D90728F439
:103000000190F081E02D309761F410922003E0E20E
:10301000F3E06081C8018C0F9D1F0E94FA26219663
:10302000E6CFEC0FFD1FF5CF60E0C8018C0D9D1DB4
:10303000DF91CF911F910F91FF90EF90DF90CF9094
:103040000C94FA261F920F920FB60F9211242F9311
:103050003F934F935F936F937F938F939F93AF9320
:10306000BF93EF93FF9386E493E00E94B705FF912F
:10307000EF91BF91AF919F918F917F916F915F91F0
:103080004F913F912F910F900FBE0F901F90189569
:103090001F920F920FB60F9211242F938F939F932D
:1030A000EF93FF93E0915603F09157038081E091F5
:1030B0005C03F0915D0382FD1BC0908180915F03F2
:1030C0008F5F8F7320916003821741F0E0915F035F
:1030D000F0E0EA5BFC4F958F80935F03FF91EF91E7
:1030E0009F918F912F910F900FBE0F901F90189569
:1030F0008081F4CF1F920F920FB60F9211242F935D
:103100003F938F939F93AF93BF93809122039091AE
:103110002303A0912403B09125033091210323E0E0
:10312000230F2D3758F50196A11DB11D20932103C2
:103130008093220390932303A0932403B093250349
:103140008091260390912703A0912803B091290331
:103150000196A11DB11D8093260390932703A09390
:103160002803B0932903BF91AF919F918F913F9115
:103170002F910F900FBE0F901F90189526E8230FE8
:103180000296A11DB11DD2CFCF93E6E4F3E01382E6
:10319000128288EE93E0A0E0B0E084839583A6835A
:1031A000B7838EE691E09183808385EC90E09587EC
:1031B000848784EC90E09787868780EC90E0918B01
:1031C000808B81EC90E0938B828B82EC90E0958BEE
:1031D000848B86EC90E0978B868B118E128E138EEB
:1031E000148EE3EEF3E080E58083C1E0C183E5EE79
:1031F000F3E08EE891E0918380831282138214823F
:103200001582EBEEF3E091838083128213821482A5
:103210001582E1EFF3E0918380831282138214829E
:103220001582E7EFF3E09183808312821382148288
:103230001582EAE0F4E09183808312821382148283
:103240001582EDEFF3E09183808312821382148262
:103250001582138612862AE02487E0E1F4E0918348
:1032600080831282138214821582E6E1F4E0918356
:1032700080831282138214821582E9E4F4E0918340
:103280008083128213821482158260E085E00E949E
:103290009206E6EFF9E0E491ABE3B4E0EC93E2EE02
:1032A000F9E0E491F0E0EE0FFF1FED52F64F85914B
:1032B000949112969C938E9311971B961C921B9738
:1032C0001D961C921D971C961C921C971A961C9278
:1032D0001A9719961C92199718961C921897179678
:1032E0001C92179716961C92169715961C92159776
:1032F00014961C92149713961C921397E8E2F4E02C
:103300008FE295E0928B818BB683A5831482108225
:1033100089E08183C283C383E2E2F4E013821282F4
:1033200080E891E09183808380E590E095838483B9
:1033300062E971E08CE194E0CF910C940517CF9392
:10334000DF93CDB7DEB7CC54D1090FB6F894DEBF0A
:103350000FBECDBF789484B5826084BD84B5816092
:1033600084BD85B5826085BD85B5816085BD809150
:103370006E00816080936E001092810080918100C8
:1033800082608093810080918100816080938100C0
:10339000809180008160809380008091B100846082
:1033A0008093B1008091B00081608093B0008091E3
:1033B0007A00846080937A0080917A0082608093A2
:1033C0007A0080917A00816080937A0080917A00FF
:1033D000806880937A001092C1006AE0CE018F96D7
:1033E0000E949C1764E6CE0182960E949C1762E9B7
:1033F00071E0CE018F960E948216811108C070E0A4
:1034000060E0CE018F960E948216882381F064E9E5
:1034100071E0CE0101960E940517BE016F5F7F4FDC
:103420008AE00E94E517CE0101960E94941762E996
:1034300071E0CE0182960E948216811108C070E070
:1034400060E0CE0182960E948216882381F063E9B3
:1034500071E0CE0101960E940517BE016F5F7F4F9C
:1034600084E60E94E517CE0101960E949417E09130
:103470002D04F0912E04138615861486128611866B
:1034800010861782168215821482138210922C04E1
:1034900001E0BE016F5F7F4F80912D0490912E045B
:1034A0000E944E11882309F454C067E0CE010196B2
:1034B0000E94270798858913ECCF809128048111F9
:1034C00028C080912D0490912E040E94D907BE013E
:1034D0006F5F7F4F80912D0490912E040E94BA0758
:1034E00040E064EB80912D0490912E040E948607A9
:1034F00080912D0490912E040E943307182F809103
:103500002D0490912E040E94D907111102C000933E
:103510002804109129048981803109F43EC7CE0125
:1035200001960E945D08811750F4809129048093D0
:10353000290480912C048F5F80932C04AACF898169
:10354000803111F48CE0F3CFCE0101960E945D082A
:10355000EECF61E086E00E94920661E086E00E9484
:103560004606E0915603F091570382E08083E09194
:103570005203F09153031082E0915403F0915503EC
:1035800080E1808310925E03E0915A03F0915B0327
:1035900086E08083E0915803F09159038081806137
:1035A0008083E0915803F091590380818860808383
:1035B000E0915803F0915903808180688083E09105
:1035C0005803F091590380818F7D80830E941E11E2
:1035D00060ED77E080E090E00E94E8060EE811E000
:1035E0001A8309838091020190910301A091040143
:1035F000B09105018B839C83AD83BE83CE01019680
:103600000E94590982E294E00E943E0F89E991E00C
:103610000E9449168FE991E00E9449161A83098396
:103620001B821C821D821E8224E030E0AE014D5FB1
:103630005F4F60E08FE090E00E94B508CE010196F8
:103640000E943916CE0182960E949417CE018F9661
:103650000E9494170E941B07C0903E03D0903F0326
:10366000E0904003F09041036C197D098E099F0999
:10367000603177428105910528F4CD28CE28CF28E6
:1036800009F097C08FE991E00E9449168EE891E019
:103690009A8389831B821C821D821E8224E030E073
:1036A000AE014D5F5F4F60E08FE090E00E94B50893
:1036B000CE0101960E9439160E941B0760933E03BB
:1036C00070933F038093400390934103E0912D0456
:1036D000F0912E04138615861486128611861086A4
:1036E00017821682158214821382BE016E5D7F4F8F
:1036F00080912D0490912E040E944E118111D8C00A
:1037000060E070E08EEF92EC60933A0370933B03BD
:1037100080933C0390933D036AE0CE0182960E9421
:103720009C1764E6CE0101960E949C178AA19BA17A
:10373000812C912C5401009721F00E94F3214B0120
:103740005C0189819A81C12CD12C7601009721F0EE
:103750000E94F3216B017C0120913A0330913B03DD
:1037600040913C0350913D03C501B4010E947B2769
:103770004B015C01A70196010E94172818160CF056
:10378000F7C086EB91E00E9449166BEB71E08CE18B
:1037900094E00E94401760E086E00E9446060E9486
:1037A0001E11CE0101960E949417CE0182960E94AE
:1037B000941782E294E00E94A00D8AE2E82E83E052
:1037C000F82E10E098EE892E93E0992EA12CB12CC2
:1037D0002EE3C22E21E0D22E1C821B828D829E827D
:1037E000AF82B886DA82C9821D87F70121913191B3
:1037F0007F0180912604909127042817390709F04A
:10380000D4C0CE0101960E94310D873109F0C6C0A7
:10381000CE0101960E94C20C892B09F4C6C08B818F
:103820009C819DA38CA38D819E81AF81B8858EA341
:103830009FA3A8A7B9A789859A85AB85BC858AA7C8
:103840009BA7ACA7BDA78EE391E09BA38AA38D8520
:103850008EA78EA5883009F493C5CE0182960E946A
:103860003B0D882309F48CC5CE0182960E94C20CC0
:10387000892B99F32DB63EB662E971E0CE01CB9665
:103880000E940517CE0182960E94BD0E97FDA1C031
:103890008A30910509F49DC089831A8241E050E085
:1038A000BE016F5F7F4FCE01CB960E94C716EACF55
:1038B00067E0CE0182960E94270799A5891320CF41
:1038C00080912D0490912E040E94D907882309F439
:1038D00017CFBE016F5F7F4FCE0182960E94110805
:1038E000882309F40DCF68E0CE0101960E942707D6
:1038F0009985891305CF6A8170E0762F6627770F47
:10390000770F770F298148E0249F90011124262BFF
:10391000372B8AA18031D1F4688570E08F81FB015B
:10392000E81BF109CF019695982F882797958795E1
:103930000E942128CB014097B90153E0660F771F01
:103940005A95E1F760789C01260F371F2138F4EE75
:103950003F070CF4D5CEB901330F880B990B0E94A9
:10396000D22520E030E040E05CE30E943126CCCE5E
:10397000C701B6019058A50194010E941728181696
:103980000CF00DCF8FEB91E00E94491664EC71E0D2
:103990008CE194E00E94401761E0FECECE010196DA
:1039A0000E94310D8C3109F433CF1F5F183009F0BC
:1039B00013CF1DA21CA288EE93E0A0E0B0E08EA37E
:1039C0009FA3A8A7B9A78EE391E09BA38AA31EA7F4
:1039D00040CF2196EEACFFAC2197C70101962DB7E1
:1039E0003EB7281B390B0FB6F8943EBF0FBE2DBF54
:1039F0004DB75EB74F5F5F4F6A01E114F10469F0A4
:103A000051E0E51AF1086BAD7CADA701C6010E943B
:103A10005D2AF601EE0DFF1D108262E671E0C6011F
:103A20000E94F72162E671E090E080E00E94F721B9
:103A30007C01BC01CE0101960E94051768EC71E083
:103A4000CE0101960E948216182FCE0101960E9487
:103A50009417112309F4BDC20E941B0720E03CE526
:103A600046E255E00E944A2725962CAF3DAF4EAF67
:103A70005FAF25970E941B0720E03CE546E255E03A
:103A80000E944A2720E83EEE46E350E00E944A2783
:103A900029962CAF3DAF4EAF5FAF29970E941B0711
:103AA00020E03CE546E255E00E944A2720E83EEE51
:103AB00046E350E00E944A2720E63AEE40E050E01C
:103AC0000E944A272D962CAF3DAF4EAF5FAF2D978A
:103AD0000E941B0720E03CE546E255E00E944A2791
:103AE00020E83EEE46E350E00E944A2720E63AEE08
:103AF00040E050E00E944A2728EE33E040E050E0EA
:103B00000E944A2749015A0169EB79E0CE01829669
:103B10000E94701661EA79E0CE0182960E947016CA
:103B2000CE0182960E94351661E979E0CE01829637
:103B30000E9470166AE879E0CE0182960E947016A3
:103B400063E879E0CE0182960E9470166CE679E017
:103B5000CE0182960E9470166CE379E0CE018296C7
:103B60000E94701660E179E0CE0182960E94701684
:103B70006BEC78E0CE0182960E94701666E678E0E3
:103B8000CE0182960E94701666E478E0CE0182969D
:103B90000E94701663E378E0CE0182960E94701650
:103BA00067E078E0CE0182960E94701664EF77E0BD
:103BB000CE0182960E94701666ED77E0CE01829665
:103BC0000E94701666E977E0CE0182960E94701618
:103BD0006DE877E0CE0182960E94701668E377E088
:103BE000CE0182960E94701666E377E0CE0182963F
:103BF0000E94701667E277E0CE0182960E947016EE
:103C00006DE177E0CE0182960E94701663E177E065
:103C1000CE0182960E94701660EE76E0CE0182960A
:103C20000E94701668ED76E0CE0182960E947016B2
:103C300061ED76E0CE0182960E94701667E876E02C
:103C4000CE0182960E9470166DE576E0CE018296D6
:103C50000E9470166AE0CE0101960E949C176AECE1
:103C600071E0CE018F960E940517BE016F5F7F4FF6
:103C7000CE018F960E9481176BE372E00E946B1752
:103C8000BC01CE0182960E945E16CE018F960E94E4
:103C90009417CE0101960E94941764E6CE01019616
:103CA0000E949C1761E472E0CE018F960E94051776
:103CB000BE016F5F7F4FCE018F960E9481176BE32D
:103CC00072E00E946B17BC01CE0182960E945E16C4
:103CD000CE018F960E949417CE0101960E949417F0
:103CE0006DE176E0CE0182960E94701661E176E089
:103CF000CE0182960E9470166BEB71E08CE194E02D
:103D00000E948216882331F06DED75E0CE01829617
:103D10000E94701664EC71E08CE194E00E948216BF
:103D2000882331F06BEA75E0CE0182960E9470160E
:103D300060E975E0CE0182960E94701665E675E036
:103D4000CE0182960E942F0BC0903A03D0903B0385
:103D5000E0903C03F0903D03A7019601C701B60136
:103D60000E941C286AEA72E081111BC026013701FB
:103D7000E89477F82FEF3FEF4FE75FE7C301B20119
:103D80000E941C288111A7C02FEF3FEF4FE75FE78C
:103D9000C301B2010E94CB2518160CF09CC06EEA3C
:103DA00072E0CE0182960E94901560E675E0CE0129
:103DB00082960E9470166BE575E0CE0182960E9495
:103DC0002F0B6BE475E0CE0182960E942F0B2AE048
:103DD00025964CAD5DAD6EAD7FAD2597CE0182963B
:103DE0000E949F1569E475E0CE0182960E942F0B18
:103DF00067E475E0CE0182960E942F0B2AE0299697
:103E00004CAD5DAD6EAD7FAD2997CE0182960E941F
:103E10009F1565E475E0CE0182960E942F0B63E446
:103E200075E0CE0182960E942F0B2AE02D964CADB4
:103E30005DAD6EAD7FAD2D97CE0182960E949F1530
:103E400061E475E0CE0182960E942F0B6FE375E06E
:103E5000CE0182960E942F0B2AE0B501A401CE016B
:103E600082960E949F156DE375E0CE0182960E94B6
:103E70002F0B60ED74E0CE0182960E9470166FE900
:103E800074E0CE0182960E94701665E974E0CE015E
:103E900082960E9470166DE874E0CE0182960E94B0
:103EA000701665E874E0CE0182960E94701661E09B
:103EB00070E080E090E00E94E806CE0182960E94C9
:103EC0005E0DCE01CB960E9494170FB6F8943EBEBD
:103ED0000FBE2DBEC2CC2FEF3FEF4FE75FE4C7010F
:103EE000B6010E94172818161CF462EB72E059CF35
:103EF0002FEF3FEF4FE75FECC701B6010E94CB25E4
:103F000087FDF3CF20E030E0A901C701B6010E9490
:103F1000CB2587FF09C06DE2CE0182960E94190B66
:103F2000F7FAF094F7F8F0942AE037ED43EA5BE310
:103F3000C701B6010E947C272B013C010E94E827A3
:103F40006B017C010E94D0259B01AC01C301B20131
:103F50000E947B272B013C012AE0B701A601CE017C
:103F600082960E949F156EE2CE0182960E94190BE6
:103F700020E030E040E251E4C301B2010E9431266A
:103F80002B013C010E94E8276B01F12CE12C2AE077
:103F9000B701A601CE0182960E949F15C701B60106
:103FA0000E94D0259B01AC01C301B2010E947B2776
:103FB00020E030E040E251E40E9431260E94E827F0
:103FC000AB0170E060E02AE0CE0182960E949F156E
:103FD000ECCEB701CE0101960E94051766EB72E0A8
:103FE000CE0101960E948216182FCE0101960E94E2
:103FF0009417112309F483C065E774E0CE0182961B
:104000000E94701666E574E0CE0182960E947016DA
:10401000CE0182960E94351664E574E0CE01829648
:104020000E94701666E474E0CE0182960E942F0B07
:1040300064E6CE0101960E949C17BE016F5F7F4F20
:10404000CE0182960E940C10CE0101960E94941718
:1040500064E474E0CE0182960E9470166EE274E011
:10406000CE0182960E942F0B6AE0CE0101960E943B
:104070009C17BE016F5F7F4FCE0182960E940C108D
:10408000CE0101960E9494176CE274E0CE018296F4
:104090000E94701666E174E0CE0182960E942F0B9A
:1040A00060913A0370913B0380913C0390913D03F2
:1040B00018AA1FA61AAA19AA1CAA1BAA8E010F5F6A
:1040C0001F4F22E044E00E94D521009799F0BC01E7
:1040D000CE018F960E944017BE01615D7F4FCE01D9
:1040E00082960E945E16CE018F960E94941764E11C
:1040F00074E0D9CECE018F960E94F316EDCFB701B2
:10410000CE0101960E94051765EC72E0CE01019682
:104110000E948216182FCE0101960E949417111149
:10412000CCCEB701CE01C5960E94051762ED72E0B4
:10413000CE0101960E9405174D815E8189AD9AAD31
:104140008417950778F08DA99EA9009759F0698189
:104150007A816115710531F00E944F2A11E0892B97
:1041600009F010E0CE0101960E949417112309F482
:10417000FCC060E671E0C7010E94F7210E94491669
:1041800060E671E090E080E00E94F7216EE571E06A
:104190000E94F7216C016EE571E090E080E00E94E2
:1041A000F7217C016CE571E0C6010E94F7216CE506
:1041B00071E090E080E00E94F7216C016CE571E015
:1041C000C7010E94F7216CE571E090E080E00E9459
:1041D000F7217C01B601CE0101960E940517BE01B0
:1041E0006F5F7F4F8AE00E94E517CE0101960E9423
:1041F0009417B701CE0101960E940517BE016F5FAB
:104200007F4F84E60E94E517CE0101960E94941725
:1042100064E074E0CE0182960E9470166CEE73E04A
:10422000CE0182960E947016CE0182960E943516AB
:104230006CED73E0CE0182960E94701665ED73E01E
:10424000CE0182960E9470166EEC73E0CE018296CB
:104250000E94701667EB73E0CE0182960E94701682
:1042600066E873E0CE0182960E94701663E573E003
:10427000CE0182960E9470166BE473E0CE018296A6
:104280000E94701664E473E0CE0182960E9470165C
:1042900062E173E0CE0182960E947016B601CE01F3
:1042A00001960E9405176FED72E0CE018F960E9475
:1042B0000517BE016F5F7F4FCE018F960E94811759
:1042C00061E073E00E946B17BC01CE0182960E94F0
:1042D0005E16CE018F960E949417CE0101960E9421
:1042E0009417B701CE0101960E94051767E073E0AD
:1042F000CE018F960E940517BE016F5F7F4FCE01E2
:104300008F960E94811761E073E00E946B17BC01D9
:10431000CE0182960E945E16CE018F960E9494175F
:10432000CE0101960E94941762EE72E0CE01829651
:104330000E9470166AED72E0CE0182960E9470169D
:1043400062ED72E0CE0182960E94701661E070E02C
:1043500080E090E00E94E806CE0182960E945E0D09
:10436000CE01C5960E949417ACCD6BEB72E0CE01E6
:1043700082960E947016CE0182960E943516E6CF74
:1043800080E090E0892B09F465C90E94A305882389
:1043900009F460C90E9400005DC91D3008F0C5C85D
:1043A000D1C88CE194E00C949417EF920F931F9373
:1043B000CF93DF93E80134E047FD34E1042E000C95
:1043C000550B57FF03C0519541955109E32E022F1C
:1043D000242FAE010E942322CE01DF91CF911F91A5
:1043E0000F91EF900895662777270C9482234FE46E
:1043F00054E00E94FC210895FA01A191B081009738
:1044000019F41097E1F0CD01DC01CD010D900020F1
:1044100011F4C00113C0FB012191222319F02015D2
:10442000D9F7F3CFFB012191201519F41E921196B3
:1044300006C02223C1F70D900020A1F7D001FA0198
:10444000A193B0830895A9E0B0E0E9E2F2E20C9410
:1044500019276A01F22EB02E102FFBE3AF2EA01603
:1044600008F41BE31F5F012F27E0AE014F5F5F4F92
:104470000E94D224BC018981982F9970913009F44F
:104480003FC09BE2E1FC04C09E2D9170E0FC3AC06D
:104490005E2D5071E82FE87083FF46C084E09111D3
:1044A00001C083E0EF2DE81B8F1508F0E0E0D60196
:1044B0008E2F20E2552351F1992329F0D6019C93A8
:1044C000C60101966C0196012D5F3F4FE2FE24C0AC
:1044D0008EE4D6018C9391E411969C9311971296D9
:1044E0008C93D9018E2F90E281111BC0E20FF32F24
:1044F000F11D10828EEF9FEF2996ECE00C9435278A
:104500009DE2C6CF90E2C4CF2D9381508111FCCFA4
:10451000CE0ED11CE0E0D0CF8EE6D6018C9391E692
:10452000DBCF9D938150E0CF482F447082FF3DC088
:1045300084E0911101C083E08F1510F4EF2DE81B8A
:10454000D6018E2F20E2552309F1992329F0D601B7
:104550009C93C60101966C0196012D5F3F4FE2FED0
:104560001BC089E4D6018C938EE411968C9311972D
:1045700086E412968C93D9018E2F90E2882309F459
:10458000B5CF9D938150FACF2D9381508111FCCFEF
:10459000CE0ED11CE0E0D9CF89E6D6018C938EE611
:1045A00011968C93119786E6E4CF9B0177FF02C0AA
:1045B00030E020E0A1E0B0E0911102C0B0E0A0E066
:1045C000F9013196AE0FBF1F8B2C912CBB2009F443
:1045D00061C05401EFEFAE1ABE0AAA0DBB1DFA1658
:1045E0001B0619F014F04F2D4A1B511188C0E3FC33
:1045F00059C07601A42FB0E2A1114FC0C40ED11C46
:10460000992309F45BC040E0D6011196F60190832E
:104610006D01552309F448C0012F060F9A81582FC8
:10462000507184FF03C0913309F4015010160CF04F
:1046300047C0093008F008E0EEE2FE2E5B01A01A48
:10464000B10885019194819491082F3F320729F494
:10465000D601FC92F60131966F016217730794F14F
:10466000021713077CF5DB01A21BB30BAA24A3944A
:10467000B12CAC0EBD1EAA0DBB1D11968C91215004
:104680003109D601119628153905F4F0F601808319
:104690006D01DBCFB12CA12CA0CFF701B1937F012D
:1046A000A150AACF9111B0CFD601942F50E302C0F0
:1046B0005D9391509111FCCFC40ED11C40E0ACCF62
:1046C00001E0BACF80E3DBCF6217730731F4963392
:1046D00088F4953311F4552369F0F6018083FD01C8
:1046E000842F90E2811108C0A40FB11D1C9290E0AC
:1046F00080E002CF81E3F1CF91938150F3CF91110C
:1047000083CF8ACFB0E0A0E0E8E8F3E20C94192769
:104710005C017B016115710519F0DB018D939C93A0
:1047200085010F5F1F4FF501D0818D2F90E00E9412
:10473000AA256C01892BB9F5DD32B9F50F5F1F4F42
:10474000D5011196DC91C1E05801F1E0AF1AB10832
:1047500043E050E060E770E0C5010E94B325892B7B
:1047600069F5680182E0C80ED11C45E050E06BE6B7
:1047700070E0C6010E94B325892B21F4680197E0FF
:10478000C90ED11CE114F10419F0D701CD92DC92CD
:1047900060E070E080E89FEFC111FFC060E070E072
:1047A00080E89FE7FAC05801BBCFDB3229F48501CE
:1047B0000E5F1F4FF501D181C0E0C6CF43E050E04E
:1047C00068E670E0C5010E94B325892BE9F0F80185
:1047D00010E000E020E030E0A9015F01B0ED8B2E99
:1047E0008D0E89E08815C8F19C2E689491F88C2F65
:1047F0008870C2FF16C0811102C00F5F1F4F319633
:10480000D501DC91C92DE9CFE114F10429F00E5F47
:104810001F4FF7011183008360E070E080EC9FE799
:10482000BCC0882311F001501109A5E0B0E00E943E
:1048300008279B01AC01220F331F441F551F280D71
:10484000311D411D511D283999E93907490799E161
:104850005907A8F2C6609C2ED2CFAEEF8A1206C0CE
:10486000C3FD3CC09C2E689493F8C9CFDF7DD5343E
:10487000A9F580818D3239F4C061DF011296818102
:1048800062E070E006C0DF018B32C1F3119661E097
:1048900070E080535D01A61AB70A8A30F8F4E0E8A8
:1048A000CE16ECE0DE065CF4B601660F771F660FED
:1048B000771FC60ED71ECC0CDD1CC80ED11C5D01A7
:1048C000FFEFAF1ABF0A8C9180538A30A8F1C4FF62
:1048D00003C0D194C194D1080C0D1D1DC1FF09C0A6
:1048E000E114F10431F081E0A81AB108D701AD92CA
:1048F000BC92CA01B9010E94D025C370C33009F42B
:1049000090584B015C0120E030E0A9010E94CB25CA
:10491000882309F440C0CFE9D0E017FF05C0119506
:1049200001951109C7E8D0E06E01B8E1CB1AD108B2
:1049300080E2E82EF12C0FC0D501B1CFFE01259108
:104940003591459154910E191F09C501B4010E947A
:1049500031264B015C01D501C4010E151F0574F70A
:104960002497F594E794CC16DD06A9F78A2F880FD3
:104970008B2F881F8F3F49F020E030E0A901C5014F
:10498000B4010E94CB25811106C082E290E0909391
:10499000520480935104C501B401CDB7DEB7ECE0F9
:1049A0000C943527283008F027E03327DA01990FD7
:1049B000311D87FD916000966105710539F4326003
:1049C0002E5F3D9330E32A95E1F708959F3F30F045
:1049D00080387105610509F03C5F3C5F3D93913083
:1049E00008F08068911DDF93CF931F930F93FF9280
:1049F000EF92192F987F9695E92F96959695E90F46
:104A0000FF27E350FF4F99273327EE24FF24A70108
:104A1000E70105900894079428F4360FE71EF81E66
:104A2000491F511D660F771F881F991F0694A1F714
:104A30000590079428F4E70EF81E491F561FC11D64
:104A4000770F881F991F661F0694A1F7059007949A
:104A500028F4F80E491F561FC71FD11D880F991F34
:104A6000661F771F0694A1F70590079420F4490F5D
:104A7000561FC71FD81F990F661F771F881F0694E0
:104A8000A9F784911095177041F0D695C795579561
:104A90004795F794E7941A95C1F7E3EAF0E0689434
:104AA0001590159135916591959105907FE27395DB
:104AB000E118F10A430B560BC90BD009C0F7E10C02
:104AC000F11E431F561FC91FD01D7EF4703311F411
:104AD0008A95E6CFE894015030F0080F0AF40027D9
:104AE000021708F4202F2395022F7A3328F079E358
:104AF0007D932A95E9F710C07D932A9589F606944F
:104B000097956795379517951794E118F10A430B18
:104B1000560BC90BD00998F023957E9173957A3383
:104B200008F070E37C932013B8F77E9170617D9359
:104B300030F0839571E37D9370E32A95E1F71124BA
:104B4000EF90FF900F911F91CF91DF91992787FDF3
:104B50009095089591110C949E26803219F08950F9
:104B60008550C8F70895FB01DC014150504088F0A2
:104B70008D9181341CF08B350CF4805E659161342D
:104B80001CF06B350CF4605E861B611171F3990BA0
:104B90000895881BFCCF0E940D2608F481E008953B
:104BA000E89409C097FB3EF49095809570956195C7
:104BB0007F4F8F4F9F4F9923A9F0F92F96E9BB277D
:104BC0009395F695879577956795B795F111F8CFF9
:104BD000FAF4BB0F11F460FF1BC06F5F7F4F8F4F64
:104BE0009F4F16C0882311F096E911C0772321F05A
:104BF0009EE8872F762F05C0662371F096E8862FF2
:104C000070E060E02AF09A95660F771F881FDAF748
:104C1000880F9695879597F90895990F0008550F75
:104C2000AA0BE0E8FEEF16161706E807F907C0F032
:104C300012161306E407F50798F0621B730B840B3A
:104C4000950B39F40A2661F0232B242B252B21F414
:104C500008950A2609F4A140A6958FEF811D811DB4
:104C600008950E9444260C94B8260E94AA2638F083
:104C70000E94B12620F0952311F00C94A1260C94EB
:104C8000A72611240C94EC260E94C92670F3959F48
:104C9000C1F3950F50E0551F629FF001729FBB2733
:104CA000F00DB11D639FAA27F00DB11DAA1F649FCF
:104CB0006627B00DA11D661F829F2227B00DA11D82
:104CC000621F739FB00DA11D621F839FA00D611D08
:104CD000221F749F3327A00D611D231F849F600D29
:104CE000211D822F762F6A2F11249F5750409AF052
:104CF000F1F088234AF0EE0FFF1FBB1F661F771FDE
:104D0000881F91505040A9F79E3F510580F00C94A8
:104D1000A1260C94EC265F3FE4F3983ED4F38695ED
:104D200077956795B795F795E7959F5FC1F7FE2B48
:104D3000880F911D9695879597F90895992788274B
:104D4000089597F99F6780E870E060E008959FEF0D
:104D500080EC089500240A94161617061806090612
:104D6000089500240A9412161306140605060895E1
:104D7000092E0394000C11F4882352F0BB0F40F469
:104D8000BF2B11F460FF04C06F5F7F4F8F4F9F4FA9
:104D9000089557FD9058440F551F59F05F3F71F02B
:104DA0004795880F97FB991F61F09F3F79F0879592
:104DB0000895121613061406551FF2CF4695F1DF1B
:104DC00008C0161617061806991FF1CF86957105AB
:104DD000610508940895E894BB2766277727CB01DF
:104DE00097F90895F999FECF92BD81BDF89A992758
:104DF00080B50895262FF999FECF1FBA92BD81BDC7
:104E000020BD0FB6F894FA9AF99A0FBE019608954C
:104E10000E946C27A59F900DB49F900DA49F800DBC
:104E2000911D112408952F923F924F925F926F929D
:104E30007F928F929F92AF92BF92CF92DF92EF922A
:104E4000FF920F931F93CF93DF93CDB7DEB7CA1BAB
:104E5000DB0B0FB6F894DEBF0FBECDBF09942A88D6
:104E6000398848885F846E847D848C849B84AA847E
:104E7000B984C884DF80EE80FD800C811B81AA810B
:104E8000B981CE0FD11D0FB6F894DEBF0FBECDBFD6
:104E9000ED010895A1E21A2EAA1BBB1BFD010DC056
:104EA000AA1FBB1FEE1FFF1FA217B307E407F507DA
:104EB00020F0A21BB30BE40BF50B661F771F881FB6
:104EC000991F1A9469F760957095809590959B014C
:104ED000AC01BD01CF010895A29FB001B39FC001F5
:104EE000A39F700D811D1124911DB29F700D811D16
:104EF0001124911D08955058BB27AA270E9493277B
:104F00000C94B8260E94AA2638F00E94B12620F000
:104F100039F49F3F19F426F40C94A7260EF4E0957B
:104F2000E7FB0C94A126E92F0E94C92658F3BA1773
:104F3000620773078407950720F079F4A6F50C94AF
:104F4000EB260EF4E0950B2EBA2FA02D0B01B90124
:104F500090010C01CA01A0011124FF27591B99F0EF
:104F6000593F50F4503E68F11A16F040A22F232FFB
:104F7000342F4427585FF3CF469537952795A7954B
:104F8000F0405395C9F77EF41F16BA0B620B730BF2
:104F9000840BBAF09150A1F0FF0FBB1F661F771F63
:104FA000881FC2F70EC0BA0F621F731F841F48F418
:104FB000879577956795B795F7959E3F08F0B0CFA1
:104FC0009395880F08F09927EE0F97958795089588
:104FD0000E94D12688F09F5798F0B92F9927B75192
:104FE000B0F0E1F0660F771F881F991F1AF0BA958D
:104FF000C9F714C0B13091F00E94EB26B1E00895DA
:105000000C94EB26672F782F8827B85F39F0B93FCB
:10501000CCF3869577956795B395D9F73EF490953F
:105020008095709561957F4F8F4F9F4F08950E9497
:105030000D2608F48FEF08950E940D26880B990B1A
:10504000089597FB072E16F4009407D077FD09D03A
:105050000E94352807FC05D03EF4909581959F4F1E
:105060000895709561957F4F0895AA1BBB1B51E170
:1050700007C0AA1FBB1FA617B70710F0A61BB70BC8
:10508000881F991F5A95A9F780959095BC01CD016D
:105090000895EE0FFF1F0590F491E02D09940F93F2
:1050A0001F93CF93DF938230910510F482E090E05C
:1050B000E0915504F091560430E020E0B0E0A0E02B
:1050C000309799F42115310509F44AC0281B390B92
:1050D00024303105D8F58A819B816115710589F1EC
:1050E000FB0193838283FE0111C0408151810281C3
:1050F000138148175907E0F04817590799F410979A
:1051000061F012960C93129713961C933296CF016E
:10511000DF91CF911F910F91089500935504109343
:105120005604F4CF2115310551F04217530738F0DA
:10513000A901DB019A01BD01DF01F801C1CFEF0137
:10514000F9CF9093560480935504CDCFFE01E20F22
:10515000F31F819391932250310939832883D7CF4C
:105160002091530430915404232B41F420910E01DB
:1051700030910F01309354042093530420910C017B
:1051800030910D012115310541F42DB73EB7409105
:10519000100150911101241B350BE0915304F09143
:1051A0005404E217F307A0F42E1B3F0B281739070E
:1051B00078F0AC014E5F5F4F2417350748F04E0F73
:1051C0005F1F5093540440935304819391939FCF56
:1051D000F0E0E0E09CCFCF93DF930097E9F0FC0193
:1051E000329713821282A0915504B0915604ED01BA
:1051F00030E020E01097A1F420813181820F931FCD
:1052000020915304309154042817390709F061C0E4
:10521000F0935404E0935304DF91CF910895EA0191
:10522000CE17DF07E8F54A815B819E0141155105E4
:10523000B1F7E901FB83EA8349915991C40FD51F66
:10524000EC17FD0761F4808191810296840F951F10
:10525000E90199838883828193819B838A83F0E02B
:10526000E0E012968D919C9113970097B9F52D91DE
:105270003C911197CD010296820F931F2091530408
:10528000309154042817390739F6309751F51092A8
:10529000560410925504B0935404A0935304BCCF09
:1052A000D383C28340815181840F951FC817D907CA
:1052B00061F44E5F5F4F88819981480F591F518378
:1052C00040838A819B81938382832115310509F074
:1052D000B0CFF0935604E09355049ECFFD01DC015E
:1052E000C0CF13821282D7CFB0E0A0E0EAE7F9E2A4
:1052F0000C9415278C01009751F4CB010E944F2884
:105300008C01C801CDB7DEB7E0E10C943127FC0178
:10531000E60FF71F9C0122503109E217F30708F44A
:105320009DC0D901CD91DC911197C617D70798F090
:10533000C530D10530F3CE0104978617970708F3DF
:10534000C61BD70B2297C193D1936D937C93CF014A
:105350000E94EB28D6CF5B01AC1ABD0A4C018C0E23
:105360009D1EA0915504B0915604512C412CF12C56
:10537000E12C109731F580915304909154048815D5
:10538000990509F05CC04616570608F058C0809190
:105390000C0190910D01009741F48DB79EB740919B
:1053A000100150911101841B950BE817F90708F0C3
:1053B00055C0F0935404E0935304F9017183608362
:1053C000A0CF8D919C91119712966C901297139685
:1053D0007C901397A815B90559F56C0142E0C40EED
:1053E000D11CCA14DB0420F1AC014A195B09DA01B3
:1053F0001296159780F06282738251834083D9019F
:105400006D937C93E114F10471F0D7011396FC9332
:10541000EE93129776CF22968C0F9D1FF901918300
:105420008083F301EFCFF0935604E093550469CFE6
:105430004816590608F42C017D01D3019ACFCB01FF
:105440000E944F287C01009749F0AE01B8010E94EC
:10545000362AC8010E94EB28870153CF10E000E0F4
:1054600050CF81E090E0F8940C946C2AFB01DC01B1
:1054700002C001900D9241505040D8F70895FB01B1
:10548000DC018D91019080190110D9F3990B0895D9
:10549000FB01DC0101900D920020E1F70895FB0172
:1054A000DC014150504030F08D910190801919F489
:1054B0000020B9F7881B990B0895FB01DC014150CE
:1054C000504048F001900D920020C9F701C01D9294
:1054D00041505040E0F7089515E0C4E0D5E004C025
:1054E000FE010E9449282196C530D107C9F7F894DA
:0254F000FFCFEC
:1054F2000004C0A801FEDEADBEEFFEED00005704C1
:10550200800000000000880AFF0C1411760ADD0AF0
:10551200750E730C100FF50AB20B9E0AA814E70E53
:10552200CC11560E1711E50AE10A00000000190B12
:10553200A50F14113005C20CA30E4D0C7E101B15C5
:105542009F0E5E0D3B0D31050E0B4E0B3D002600EE
:105552003F0020005E00BC00770100000000D9057A
:1055620039056605260697057505890500000000C0
:10557200F70A131014110D0B3E0F00000000EB157B
:105582000D0A0032302E32350052656164790045D1
:10559200746865726E657420736869656C64206EE8
:1055A200612049503A0052454C45205A4150005220
:1055B200454C4520565950002F003C623E526566CC
:1055C2006572656EC48D6EC3A1207465706C6F7454
:1055D200613A3C2F623E3C62723E3C696E70757469
:1055E20020747970653D276E756D6265722720693A
:1055F200643D27666E616D6527206E616D653D278E
:10560200666E616D6527206D696E3D273527206DB9
:1056120061783D2735302720737465703D27302E21
:105622003235272076616C75653D003E3C62723EE4
:10563200003C623E487973746572C3A97A613A3C50
:105642002F623E3C62723E3C696E707574207479C2
:1056520070653D276E756D626572272069643D270E
:10566200666E616D653227206E616D653D27666EDF
:10567200616D653227206D696E3D273027206D618F
:10568200783D2731302720737465703D27302E32E4
:1056920035272076616C75653D006E616E00696E1E
:1056A20066006F7666002F6765745F646174612EB1
:1056B2006A736F6E002F66617669636F6E2E69631F
:1056C2006F002F616374696F6E2E68746D6C003C9D
:1056D2006C693E3C623E5265666572656EC48D6E53
:1056E200C3A1207465706C6F74613A203C2F623ED6
:1056F200003C2F6C693E003C6C693E3C623E48793E
:1057020073746572C3A97A613A203C2F623E00002D
:00000001FF
