:100000000C94E4040C940C050C940C050C940C0555
:100010000C940C050C940C050C940C050C940C051C
:100020000C940C050C940C050C940C050C940C050C
:100030000C940C050C940C050C940C050C940C05FC
:100040000C94581D0C940C050C94261D0C94001D4A
:100050000C940C050C940C050C940C050C940C05DC
:100060000C940C050C940C054E414E494E495459C4
:10007000494E46CDCCCC3D0AD7233C17B7D1387773
:10008000CC2B329595E6241FB14F0A000020410089
:1000900000C84200401C4620BCBE4CCA1B0E5AAED3
:1000A000C59D7400407A10F35A00A0724E180900E2
:1000B00010A5D4E80000E87648170000E40B5402CD
:1000C0000000CA9A3B000000E1F505000080969808
:1000D00000000040420F000000A086010000001058
:1000E0002700000000E8030000000064000000009A
:1000F000000A00000000000100000000002C76D87B
:1001000088DC674F0823DFC1DFAE59E1B1B796E560
:10011000E3E453C63AE651997696E8E6C28426EBC4
:10012000898C9B62ED407C6FFCEFBC9C9F40F2BAD7
:10013000A56FA5F490055A2AF75C936B6CF9676D6F
:10014000C11BFCE0E40D47FEF520E6B500D0ED90C4
:100150002E0300943577050080841E080000204E91
:100160000A000000C80C333333330F986E1283112A
:1001700041EF8D2114893BE65516CFFEE6DB18D101
:10018000844B381BF77C1D901DA4BBE424203284D3
:10019000725E228100C9F124ECA1E53D27005EBC1E
:1001A000E2613FDD83C29C7E20A3FD1F419DC321F0
:1001B0007FFCA2401E5F01E3BD3E6082DC237D9F89
:1001C000C1421CFEA0E1BF5D0380DE3C62BEE002D6
:1001D0005CDF81633D7C22C09E1D43A1FF4618FA6F
:1001E000A427799BC584DA3866E5BB5907DB8567A8
:1001F00039BAE406581947A5FB7826C49A653BD955
:1002000087045AB8E6A7F91B45C6987A24F8A6448D
:100210001A99C7257B3A6486D85B05E7B98CD2303A
:100220006EEDB3510F4E10F2AC2F7193CD114FAD57
:10023000F3702ECC92D38D6F31B2EC0E50AFF11320
:100240004DCE90722C6D33D18F0C52B0EE326C8E3D
:10025000D0530DEFB1F0AE4C1291CF2D73CA9476FE
:1002600028ABF517490856B4EA6937D58B5709EB1F
:10027000B536688AD495CB2977F4AA4816E9B755DC
:100280000B88D6346A2B7597C94A14F6A8742AC805
:1002900096154BA9F7B6E80A54D7896B35000000CC
:1002A0000800020100000304070000000000000035
:1002B000003C2F68746D6C3E003C2F626F64793E89
:1002C000003C623E507265736D65726F76616E6957
:1002D000652E2E2E2050726F73696D2063616B61E5
:1002E0006A74653C2F623E3C2F63656E7465723E96
:1002F000003C63656E7465723E3C68333E536572C4
:10030000766572207072696A616C20646174612024
:100310007A20666F726D756CC3A172613A3C2F686A
:10032000333E003C626F64793E003C2F6865616437
:100330003E003C7469746C653E48545450207765A7
:1003400062736572766572202D2041726475696EE4
:100350006F202B2045746865726E65743C2F74693C
:10036000746C653E003C6D65746120687474702D1A
:1003700065717569763D27526566726573682720D9
:10038000636F6E74656E743D27353B2075726C3DEE
:100390002F27202F3E003C6D6574612063686172D9
:1003A0007365743D277574662D38273E003C68657B
:1003B00061643E003C68746D6C3E003C21444F43D8
:1003C000545950452068746D6C3E00436F6E7465DF
:1003D0006E742D547970653A20746578742F687442
:1003E0006D6C00485454502F312E31203230302063
:1003F0004F4B007D002241637475616C5F54656DE5
:100400007065726174757265223A002C0022546125
:10041000726765745F54656D70657261747572653D
:10042000223A002C002248797374657265736973EF
:10043000223A007B00436F6E74656E742D547970A0
:10044000653A20746578742F68746D6C0048545454
:10045000502F312E3120323030204F4B003C2F684E
:10046000746D6C3E003C2F626F64793E003C2F63DC
:10047000656E7465723E003C68343E5665727A69FA
:10048000612066726565202D20312E302E3120626C
:1004900075696C643A2030322E20536570203230FA
:1004A00032303C2F68343E003C68333E4175746FF7
:1004B000723A204D617274696E2043686C65626F98
:1004C000766563202D206D617274696E697573396C
:1004D0003640676D61696C2E636F6D202D206874E6
:1004E0007470733A2F2F6D617274696E6975733908
:1004F000362E6769746875622E696F2F7465726D28
:100500006F737461742D65746865726E65742F3CC9
:100510002F68333E0020C2B043003C623E416B7402
:1005200075C3A16C6E61207465706C6F746120730B
:10053000656E7A6F726120445331384232303A3CF2
:100540002F623E20003C6469762069643D22636F1F
:10055000756E74646F776E223E3C2F6469763E0040
:100560003C623E3C666F6E7420636F6C6F723D2719
:10057000726564273E56C3BD737475703A20567910
:10058000706E7574C3BD3C2F666F6E743E3C2F62F7
:100590003E003C623E3C666F6E7420636F6C6F720F
:1005A0003D27677265656E273E56C3BD73747570CF
:1005B0003A205A61706E7574C3BD3C2F666F6E74BD
:1005C0003E3C2F623E003C2F666F726D3E3C68726F
:1005D0003E003C696E70757420747970653D2773B8
:1005E00075626D69742720636C6173733D27627453
:1005F0006E2062746E2D7375636365737327207646
:10060000616C75653D275A6170C3AD7361C5A527DF
:100610003E003C666F726D20616374696F6E3D27AA
:100620002F616374696F6E2E68746D6C27206D6521
:1006300074686F643D27676574273E003C63656E90
:100640007465723E3C68333E5A6164616A74652029
:1006500064C3A174612070726520776562736572EE
:100660007665722028627564C3BA20756C6FC5BE4A
:10067000656EC3A920646F20454550524F4D293AFD
:100680003C2F68333E003C626F64793E003C2F682B
:100690006561643E003C7469746C653E4854545016
:1006A00020776562736572766572202D20417264D1
:1006B00075696E6F202B2045746865726E65743C99
:1006C0002F7469746C653E003C2F7363726970749B
:1006D0003E007D2C2031303030293B0074696D653F
:1006E0006C656674202D3D20313B007D00646F6396
:1006F000756D656E742E676574456C656D656E7499
:10070000427949642822636F756E74646F776E2234
:10071000292E696E6E657248544D4C203D207469D7
:100720006D656C656674202B20222073656BC3BADF
:100730006E6420646F207265C5A174617274752245
:100740003B007D20656C7365207B00646F63756D75
:10075000656E742E676574456C656D656E7442795F
:1007600049642822636F756E74646F776E22292E38
:10077000696E6E657248544D4C203D20225265C50D
:10078000A1746172742E2E2E223B00636C6561721F
:10079000496E74657276616C28646F776E6C6F61F8
:1007A0006454696D6572293B0069662874696D65DA
:1007B0006C656674203C3D2030297B007661722098
:1007C000646F776E6C6F616454696D6572203D2053
:1007D000736574496E74657276616C2866756E63B4
:1007E00074696F6E28297B007661722074696D656B
:1007F0006C656674203D2031303B003C7363726948
:10080000707420747970653D27746578742F6A61FF
:100810007661736372697074273E003C6C696E6B1D
:100820002072656C3D277374796C657368656574B7
:100830002720687265663D2768747470733A2F2F9D
:100840006D617863646E2E626F6F74737472617021
:1008500063646E2E636F6D2F626F6F747374726159
:10086000702F332E342E312F6373732F626F6F749A
:1008700073747261702E6D696E2E637373273E0000
:100880003C6D657461206E616D653D2776696577A5
:10089000706F72742720636F6E74656E743D277776
:1008A000696474683D6465766963652D776964740D
:1008B000682C20696E697469616C2D7363616C6565
:1008C0003D31273E003C6D65746120687474702D65
:1008D00065717569763D2752656672657368272074
:1008E000636F6E74656E743D273130273B202F3E59
:1008F000003C6D657461206E616D653D27617574A6
:10090000686F722720636F6E74656E743D274D614A
:100910007274696E2043686C65626F766563273E0A
:10092000003C6D65746120636861727365743D2776
:100930007574662D38273E003C686561643E003C56
:1009400068746D6C3E003C21444F4354595045201F
:1009500068746D6C3E00436F6E74656E742D5479CF
:1009600070653A20746578742F68746D6C00485413
:1009700054502F312E3120323030204F4B000000A8
:100980000000250028002B000000000024002700A4
:100990002A000000000023002600290004040404AB
:1009A0000404040402020202020203030303030319
:1009B00001020408102040800102040810200102F6
:1009C00004081020A21D852511241FBECFEFD8E0FA
:1009D000DEBFCDBF13E0A0E0B1E0EEE5FCE502C074
:1009E00005900D92A033B107D9F724E0A0E3B3E05E
:1009F00001C01D92AB37B207E1F714E0C3EED4E0BB
:100A000004C02197FE010E94FD2BC23ED107C9F709
:100A10000E947A1E0C94222E0C9400008CBD9DBD69
:100A20000895FC01818D928D08950895AF92BF9233
:100A3000CF92DF92EF92FF920F931F93CF93DF93AA
:100A40006C017B018B01040F151FEB015E01AE18D9
:100A5000BF08C017D10759F06991D601ED91FC91FB
:100A60000190F081E02DC6010995892B79F7C50128
:100A7000DF91CF911F910F91FF90EF90DF90CF907A
:100A8000BF90AF900895FC01538D448D252F30E029
:100A9000842F90E0821B930B541710F0CF9608958B
:100AA00001970895FC01918D828D981761F0A28DB8
:100AB000AE0FBF2FB11D5D968C91928D9F5F9F737E
:100AC000928F90E008958FEF9FEF0895FC01918D34
:100AD000828D981731F0828DE80FF11D858D90E0A1
:100AE00008958FEF9FEF0895FC01918D228D892F3E
:100AF00090E0805C9F4F821B91098F739927089526
:100B00008DE693E00E94740521E0892B09F420E032
:100B1000822F089580E090E0892B29F00E948005C3
:100B200081110C9400000895FC01A48DA80FB92F29
:100B3000B11DA35ABF4F2C91848D90E001968F7305
:100B40009927848FA689B7892C93A089B1898C9124
:100B5000837080648C93938D848D981306C0028873
:100B6000F389E02D80818F7D80830895EF92FF923D
:100B70000F931F93CF93DF93EC0181E0888F9B8DC0
:100B80008C8D98131AC0E889F989808185FF15C07A
:100B90009FB7F894EE89FF896083E889F98980819D
:100BA0008370806480839FBF81E090E0DF91CF916C
:100BB0001F910F91FF90EF900895F62E0B8D10E08E
:100BC0000F5F1F4F0F731127E02E8C8D8E110CC0FD
:100BD0000FB607FCFACFE889F989808185FFF5CF48
:100BE000CE010E949405F1CFEB8DEC0FFD2FF11D8E
:100BF000E35AFF4FF0829FB7F8940B8FEA89FB8985
:100C000080818062CFCFCF93DF93EC01888D8823E2
:100C1000B9F0AA89BB89E889F9898C9185FD03C05F
:100C2000808186FD0DC00FB607FCF7CF8C9185FF44
:100C3000F2CF808185FFEDCFCE010E949405E9CFF0
:100C4000DF91CF91089590E0FC01E356FD4F249190
:100C5000FC01E055F64F3491FC01E456F64FE49167
:100C6000EE23C9F0222339F0233001F1A8F421301A
:100C700019F1223029F1F0E0EE0FFF1FE258F64F94
:100C8000A591B4918FB7F894EC91611126C030957D
:100C90003E233C938FBF08952730A9F02830C9F038
:100CA000243049F7809180008F7D03C080918000BF
:100CB0008F7780938000DFCF84B58F7784BDDBCFC3
:100CC00084B58F7DFBCF8091B0008F778093B0008B
:100CD000D2CF8091B0008F7DF9CF3E2BDACFCF936A
:100CE000DF9390E0FC01E055F64F24918456964F37
:100CF000FC0184918823D1F090E0880F991FFC01BA
:100D0000E857F64FA591B491FC01E258F64FC59112
:100D1000D49161110EC09FB7F8948C91E22FE095A9
:100D20008E238C932881E223E8839FBFDF91CF91AC
:100D300008958FB7F894EC91E22BEC938FBFF6CF28
:100D40003FB7F8948091360390913703A091380310
:100D5000B091390326B5A89B05C02F3F19F0019625
:100D6000A11DB11D3FBFBA2FA92F982F8827BC0105
:100D7000CD01620F711D811D911D42E0660F771F2D
:100D8000881F991F4A95D1F708958F929F92AF922D
:100D9000BF92CF92DF92EF92FF926B017C010E9493
:100DA000A0064B015C01C114D104E104F104B9F0C7
:100DB0000E94A006681979098A099B09683E734058
:100DC0008105910580F321E0C21AD108E108F108FC
:100DD00088EE880E83E0981EA11CB11CE4CFFF9022
:100DE000EF90DF90CF90BF90AF909F908F9008953D
:100DF0002FB7F894609132037091330380913403DC
:100E0000909135032FBF0895DC0180E0615038F0E8
:100E1000ED91E827F0E0E356FE4F8491F7CF089577
:100E2000DC012C911196ED91FC91F8948181822B3B
:100E300081839281322F30959323928387E090E0D3
:100E40000197F1F781818323818383E290E0019709
:100E5000F1F790817894EFECF0E03197F1F792237D
:100E600081E009F480E00895FC0190810180F28125
:100E7000E02D292F209560FF14C0F89482818223F1
:100E800082838181892B8183A3E2B0E01197F1F7FE
:100E90008281982B9283789487ED90E00197F1F707
:100EA0000895F8948281822382838181892B8183B2
:100EB000AFEFB0E01197F1F78281982B928378948D
:100EC0008FE090E0EBCFDF92EF92FF920F931F93B2
:100ED000CF93DF93EC01D62EE42E08E010E0FF2440
:100EE000F39461E08D2D8F2109F460E0CE010E9422
:100EF0003407FF0C01501109A1F7E11010C0F8945C
:100F0000E981FA8191818881809589238183E981B2
:100F1000FA81928188818095892382837894DF91F8
:100F2000CF911F910F91FF90EF90DF900895EF9276
:100F3000FF920F931F93CF93DF938C017B0140E0CF
:100F400065E50E946307E70188E0E80EF11C6991FE
:100F500040E0C8010E946307CE15DF05C1F7DF91AD
:100F6000CF911F910F91FF90EF900895FC01908118
:100F70000180F281E02DF8948181292F2095822330
:100F8000818378943DE743E050E0315029F1DA0164
:100F90001197F1F780818923C1F3F894828182232C
:100FA00082838181892B81837894ABE7B7E01197A5
:100FB000F1F7F894818182238183A3E1B1E0119755
:100FC000F1F78081982381E009F080E07894E3E6EE
:100FD000F6E03197F1F7089580E00895AF92BF925F
:100FE000CF92DF92EF92FF920F931F93CF93DF93F5
:100FF0008B01BC0180915104909152040E9497078B
:1010000040E06EEB80915104909152040E9463077E
:10101000E801680189E0C80ED11CA0905104B0908D
:10102000520488E0E82EF12C10E001E0C5010E9496
:1010300010078111102B000F81E0E81AF108B1F7B9
:101040001993CC16DD0649F7809151049091520412
:101050000E94B60791E0813009F090E0892FDF917E
:10106000CF911F910F91FF90EF90DF90CF90BF90A5
:10107000AF9008950F931F93CF93DF93CDB7DEB753
:1010800029970FB6F894DEBF0FBECDBF8C018091BB
:101090005104909152040E94B607811102C080E071
:1010A0001FC0BE016F5F7F4FC8010E94EE078823FB
:1010B000B1F368E0CE0101960E9404079985891377
:1010C000EECF8D818F33B9F020F48F3141F789E075
:1010D00007C08F3521F08F3711F78CE001C08BE00E
:1010E00029960FB6F894DEBF0FBECDBFDF91CF912A
:1010F0001F910F9108958AE0F3CFFC0120812EBD4E
:101100009B012150310941F051810DB407FEFDCF03
:101110004EB55EBD4193F5CF61507109860F971FA3
:101120000DB407FEFDCF2EB5FC0120830895E0919C
:101130006703F0916803808190916603892B808317
:101140000895E0916703F0916803908180916603B0
:1011500080958923808308958EBD00000DB407FE1D
:10116000FDCF8EB50895AF92BF92CF92DF92EF92EE
:10117000FF920F931F93CF93DF93CDB7DEB72897DE
:101180000FB6F894DEBF0FBECDBF8C017B016A01A4
:1011900080916A038333E1F45801A40EB51EA016B2
:1011A000B10609F46FC00E94A10880EF0E94AC084C
:1011B000812F0E94AC08802F0E94AC080F5F1F4F48
:1011C000F70181917F010E94AC080E949708E7CF48
:1011D0005B01A40EB51E8433C1F40E94A1081983DB
:1011E0000A838D2D80688B83CC8264E070E0CE0111
:1011F00001960E947D08AE14BF0409F441C0F701B6
:1012000081917F010E94AC08F6CF0E94A1080F3F98
:10121000110509F028F419820A8384E08B830CC03D
:1012200017FD17C019820A8333E0169507953A9582
:10123000E1F7007E0C600B8386E0C816D104A0F5B0
:10124000F701DE011496EA15FB0599F081918D9363
:10125000FACFC80126E0969587952A95E1F7807E1A
:1012600019830A830115104C10F48461D7CF8C6167
:10127000D5CFB6016D5F7F4FCE0101960E947D08EC
:101280000E949708C60128960FB6F894DEBF0FBEDD
:10129000CDBFDF91CF911F910F91FF90EF90DF9025
:1012A000CF90BF90AF90089563E070E0CE010196BB
:1012B0000E947D08F70181917F010E94AC08AE1465
:1012C000BF04C1F7DDCFCF93DF931F92CDB7DEB759
:1012D000898341E050E0BE016F5F7F4F90E080E086
:1012E0000E94B3080F90DF91CF91089590E0209174
:1012F0006A03233339F40C96982F990F990F990F9D
:1013000080E008954896F8CFDA01E0916B03F0E0B1
:10131000FE2FEE27E60FF71F90E0982F8827A901F0
:10132000BD018E0F9F1F0C94B308CF93DF9300D0A5
:10133000CDB7DEB779836A8322E030E0AE014F5F3C
:101340005F4F60E170E00E9484090F900F90DF9181
:10135000CF910895CF93DF9300D0CDB7DEB77983D7
:101360006A8322E030E0AE014F5F5F4F64E070E0DF
:101370000E9484090F900F90DF91CF910895CF9331
:10138000DF931F92CDB7DEB720916B0330E0322F91
:101390002227260F371F90E0982F8827498341E0A6
:1013A00050E0BE016F5F7F4F820F931F0E94B30812
:1013B0000F90DF91CF910895CF93DF931F92CDB718
:1013C000DEB76983DC01ED91FC910280F381E02DB1
:1013D00041E050E0BE016F5F7F4F09950F90DF91B4
:1013E000CF910895CF93DF931F92CDB7DEB7698376
:1013F000DC01ED91FC910280F381E02D41E050E0B1
:10140000BE016F5F7F4F09950F90DF91CF910895D7
:10141000FC019485FB018485981303C081E094301E
:1014200008F080E00895CF93DF931F92CDB7DEB729
:101430006983DC01ED91FC910280F381E02D41E0B4
:1014400050E0BE016F5F7F4F09950F90DF91CF9104
:101450000895EF92FF920F931F93CF93DF938C0128
:101460007B01D0E0C0E0F701EC0FFD1F6491662323
:1014700039F0C8010E94130A892B11F02196F3CF8D
:10148000CE01DF91CF911F910F91FF90EF900895C2
:10149000FC01768765870895DC01ED91FC91068C4F
:1014A000F78DE02D099591E089270895862F0895FD
:1014B00081E08627089521E0FC018485843008F0CE
:1014C00020E0822F08950895FF920F931F93CF93EA
:1014D000DF93EB01FC01178A168A2A81211109C0CA
:1014E0002B81211106C02C81211103C02D812223C3
:1014F00001F141155105E9F08A01FC01F08C80E50C
:1015000091E00E940E05AE014E5F5F4F24E030E097
:101510006CE070E08F2D0E948409B8018F2D0E942D
:10152000950981E090E0DF91CF911F910F91FF909D
:10153000089580E0F7CFFC01848595850895FC012E
:1015400084899589089524E931E0FC013183208361
:10155000FB014089518962897389FC01428353836D
:10156000648375830895DC01ED91FC91048CF58D05
:10157000E02D0994089590E080E008958091510451
:10158000909152040E94B60740E06CEC80915104A7
:10159000909152040E94630740914C0464E480914E
:1015A0005104909152040E94630780914E04882355
:1015B000A1F0E0914D04E9506EEE72E0E33038F4B2
:1015C000F0E0EE0FFF1FE858FE4F60817181072E9B
:1015D000000C880B990B0C94C5060895BF92CF920E
:1015E000DF92EF92FF920F931F93CF93DF93EC0163
:1015F000B62EC72EED84E11004C00E94B6078111FB
:101600000EC01B861D861C8680E0DF91CF911F9146
:101610000F91FF90EF90DF90CF90BF90089540E042
:1016200060EFCE010E946307D12C01E011E0CE01F2
:101630000E941007F82ECE010E94100791E0F912C7
:1016400018C0813099F51134E0F2EB86E11002C048
:1016500081E08D878B818823A1F22396EB2DFC2DD1
:10166000CF01089629912193E817F907D9F781E06E
:10167000CCCFED2DF0E0F8120FC08B851817A0F439
:10168000DE01AE0FBF1F13968C91802379F4F12CED
:10169000193008F41C87E12EEC0FFD1F8381902F79
:1016A0009095892383830AC08113F1CFFE01ED0D4C
:1016B000F11D8381802B8383FF24F3946F2DCE0152
:1016C0000E9434071F5F000F11F4D39401E087E0FC
:1016D0008D1508F0ACCFB7CFFB0101900020E9F7E2
:1016E0003197AF01461B570BDC01ED91FC91028055
:1016F000F381E02D09948F929F92AF92BF92EF9267
:10170000FF920F931F93CF93DF93CDB7DEB7A197CF
:101710000FB6F894DEBF0FBECDBF7C01FA01CB013E
:1017200019A2223008F42AE08E010F5D1F4F822E8D
:10173000912CB12CA12CBF01A50194010E94FE2A7D
:10174000F901CA016A300CF5605DD8016E938D0114
:10175000232B242B252B79F790E080E0109721F0A4
:10176000BD01C7010E946C0BA1960FB6F894DEBFB5
:101770000FBECDBFDF91CF911F910F91FF90EF90E2
:10178000BF90AF909F908F900895695CDECF8F924D
:101790009F92AF92BF92CF92DF92EF92FF920F9300
:1017A0001F93CF93DF937C01EB016C0182E0C80EA5
:1017B000D11C4701E5E08E0E911C10E000E0F6011F
:1017C00041916F0150E070E060E02AE0CE010E949C
:1017D0007B0B5C01E881F9810190F081E02D6EE2E4
:1017E000CE0109958A0D9B1D080F191FC814D90435
:1017F00031F7F701458150E070E060E02AE0CE016A
:101800000E947B0B800F911FDF91CF911F910F9151
:10181000FF90EF90DF90CF90BF90AF909F908F9010
:10182000089566EA71E00C946C0BCF93DF93D0E0DF
:10183000C0E0009731F0BC018DE693E00E946C0B94
:10184000EC018DE693E00E94110C8C0F9D1FDF913F
:10185000CF9108950F931F93CF93DF93EC010E94D4
:10186000290A8C01CE010E94110C800F911FDF917B
:10187000CF911F910F910895FC0124813581232B75
:1018800031F421E0FB01672B49F4822F0895808118
:1018900091816115710539F421E0FC018081882373
:1018A000A1F320E0F2CF0E94F52D21E0892B69F30E
:1018B000F8CF0F931F93CF93DF93EC018881998129
:1018C000009759F02A813B812617370730F081E0D5
:1018D000DF91CF911F910F9108958B016F5F7F4F23
:1018E0000E94282D009759F0998388831B830A83CF
:1018F0002C813D81232B59F7FC011082E8CF80E039
:10190000E7CFEF92FF920F931F93CF93DF93611571
:10191000710541F480E0DF91CF911F910F91FF900D
:10192000EF90089541155105B1F07B01EC010C8158
:101930001D81040F151FB8010E94590C882351F313
:10194000288139818C819D81B701820F931F0E946C
:10195000FE2D1D830C8381E0DECFCF93DF93EC015E
:1019600088819981009711F00E949F2C198218821A
:101970001D821C821B821A82DF91CF910895EF9203
:10198000FF920F931F93CF93DF938C017B01EB01A9
:1019900009900020E9F72197C61BD70BBE010E94D2
:1019A000590C811109C0C801DF91CF911F910F918E
:1019B000FF90EF900C94AD0CF801D583C483B70170
:1019C00080819181DF91CF911F910F91FF90EF90D6
:1019D0000C94FE2DCF93DF93EC01FB0101900020CE
:1019E000E9F73197AF01461B570B0E94810C81111B
:1019F00003C0CE010E94AD0CCE01DF91CF910895BE
:101A0000CF93DF93EC01FB014481558160817181AB
:101A10000E94810C811103C0CE010E94AD0CCE0149
:101A2000DF91CF910895EF92FF920F931F93CF9381
:101A3000DF93EC01198218821B821A821D821C829C
:101A40006115710521F18B01FB0101900020E9F77F
:101A500031977F01E61AF70AB7010E94590C8111EC
:101A600009C0CE01DF91CF911F910F91FF90EF90B0
:101A70000C94AD0CFD82EC82B80188819981DF91D4
:101A8000CF911F910F91FF90EF900C94FE2DDF915D
:101A9000CF911F910F91FF90EF900895FC018081ED
:101AA0009181009711F00C949F2C0895AF92BF92F2
:101AB000CF92DF92EF92FF920F931F93CF93DF931A
:101AC00000D000D0CDB7DEB78C016B017A018091D8
:101AD0006A038333E9F45B016801C40ED51EC016A6
:101AE000D106A9F10E94A1088FE00E94AC08812FC5
:101AF0000E94AC08802F0E94AC080F5F1F4F80E04F
:101B00000E94AC08F50181935F010E949708E7CF1E
:101B1000843369F50E94A10819830A838F2D8F777A
:101B20008B83EC8264E070E0CE0101960E947D0818
:101B3000A70170E060E0C6010E94EE2DE114F104FF
:101B400021F0B701C6010E947D080E949708C701D5
:101B50000F900F900F900F90DF91CF911F910F91E9
:101B6000FF90EF90DF90CF90BF90AF9008950E94CC
:101B7000A1080F3F110509F030F419820A831B8276
:101B800063E070E0D1CF17FD0BC019820A8333E008
:101B9000169507953A95E1F7007E08600B83F0CF24
:101BA000C80126E0969587952A95E1F7807E1983EE
:101BB0000A830115104C18F480618B83E1CF886192
:101BC000FCCFCF93DF931F92CDB7DEB720916B038D
:101BD00030E0322F2227260F371F90E0982F8827DA
:101BE00041E050E0BE016F5F7F4F820F931F0E9464
:101BF000560D89810F90DF91CF910895CF93C82F13
:101C0000462F61E070E00E94BF0961E070E08C2F18
:101C10000E94E10D8111F9CFCF910895CF93C82F84
:101C200080E591E00E940E0568E070E08C2FCF9176
:101C30000C94FE0DCF93C82F80E591E00E940E0515
:101C400060E170E08C2FCF910C94FE0DCF93DF9369
:101C5000EC01888D843020F40E941A0E84E0888F75
:101C6000DF91CF91089563E070E00C94E10DCF9384
:101C7000C82F80E591E00E940E058C2FCF910C9427
:101C8000330EEF92FF920F931F93CF937C010EE5DB
:101C900013E0C0E0F801219131918F01F7018481B7
:101CA00095812817390729F0CF5FC43099F780E074
:101CB00006C08C2F0E94370E8431B1F781E0CF919E
:101CC0001F910F91FF90EF900895CF93DF93EC0158
:101CD0008C858430D0F40E94370E843189F08823BB
:101CE00079F0883169F021E08C3159F4E881F9818B
:101CF0000084F185E02DCE01099521E0892B09F4BE
:101D000020E0822FDF91CF91089580E0FBCFCF922A
:101D1000DF92EF92FF92CF93DF93EC018C858430BA
:101D200068F40E940E0E0E94F8066B017C018C85FF
:101D30000E94370E811109C084E08C87DF91CF911A
:101D4000FF90EF90DF90CF90089561E070E080E029
:101D500090E00E94C5060E94F806AB01BC014C1938
:101D60005D096E097F098D859E85B0E0A0E048176A
:101D700059076A077B07D8F28C850E941A0EDCCFC0
:101D8000CF93FC01C08D80E591E00E940E0560E2DA
:101D900070E08C2F0E94FE0D62E070E08C2F0E949C
:101DA000E10D84FD16C062E070E08C2F0E94E10D11
:101DB00083FF0AC048E162E070E08C2F0E94BF09F7
:101DC00080E090E0CF91089580E591E00E940E05BB
:101DD000E3CF40E162E070E08C2F0E94BF0981E018
:101DE000F0CFCF93DF931F92CDB7DEB741E050E045
:101DF000BE016F5F7F4F90E080E00E94560D8981A9
:101E00000F90DF91CF910895CF93DF93C4E1D0E09D
:101E10000E94F10E882361F061E070E080E090E0C4
:101E20000E94C5062197A1F780E0DF91CF91089528
:101E300081E0FBCFCF92DF92EF92FF920F931F933F
:101E4000CF93DF93CDB7DEB7C454D1090FB6F89462
:101E5000DEBF0FBECDBFFC0182819381A481B5811D
:101E600023968CAF9DAFAEAFBFAF239721E02396F3
:101E70002FAF239723964CAD5DAD6EAD7FAD23970D
:101E80004BAB5CAB6DAB7EAB89AF9AAFABAFBCAFCE
:101E90008DA79EA7AFA7B8AB28AB4DA55EA56FA534
:101EA00078A94FA358A769A77AA72EAB4BA95CA91D
:101EB0006DA97EA949A35AA36BA37CA38B8F9C8F8A
:101EC000AD8FBE8F44E951E05C8B4B8B3FEF3D8B78
:101ED0003E8B3F8B188E5E874D872AA7CFA0D8A454
:101EE000E9A4FAA4CF86D88AE98AFA8A2CA309A1A0
:101EF0001AA12BA13CA109871A872B873C875A83FB
:101F000049838B839C83AD83BE8380916C03811155
:101F1000AFC060E372E080E090E00E94C506DFB6EB
:101F2000F89406EA19E03AEBE32E39E0F32E8091BB
:101F30006903811125C0F8018491F7019491E82F7C
:101F4000F0E0EE0FFF1FE857F64FA591B4918C918A
:101F5000982321F461E08AE00E94230661E08AE090
:101F60000E946F068CB580618CBD8CB580648CBD81
:101F700061E08DE00E946F0661E08BE00E946F06D9
:101F8000809169038F5F80936903DFBEF80104913C
:101F9000E02FF0E0EE0FFF1FE258F64F859194918D
:101FA0009093680380936703F701E490E0926603DF
:101FB00061E08AE00E946F060E94970880E591E048
:101FC0000E940E0584E380936A0380E80E946309FF
:101FD0000E94040F882309F481C088E00E946309ED
:101FE0000E94F10E883009F079C080E10E946309F7
:101FF0000E94F10E803109F071C080E00E946309F7
:102000000E94F10E182F811169C041E050E0BE011D
:102010006D5B7F4F8FE190E00E94560D24968FAD4F
:102020002497833009F05AC080E480936B0342E028
:102030006EE170E0812F0E94BF0942E06FE170E025
:10204000812F0E94BF091F5F143089F740E06EE1C5
:1020500070E0812F0E94BF0940E06FE170E0812FA6
:102060000E94BF091F5F183089F781E080936C03DD
:1020700080E591E00E940E0546E050E066E071E0E8
:1020800089E090E00E94B30844E050E0BE016D5F3B
:102090007F4F8FE090E00E94B30844E050E0BE0123
:1020A000615F7F4F81E090E00E94B30844E050E020
:1020B000BE016B5E7F4F85E090E00E94B30881E037
:1020C0008C8789859A85AB85BC8580932A049093FB
:1020D0002B04A0932C04B0932D046FC087E380934E
:1020E0006A0380E80E9463090E94040F882339F183
:1020F00088E00E9463090E94F10E883001F580E1BA
:102100000E9463090E94F10E182F8031C1F480E013
:102110000E9463090E94F10E811111C041E050E05C
:10212000BE016D5B7F4F89E390E00E94560D2496BF
:102130008FAD2497843019F410936B0396CF83E30B
:1021400080936A0380E80E9463090E94040F882339
:1021500091F180E10E9463090E94F10E803159F5EE
:1021600082E10E9463090E94F10E823121F580E034
:102170000E9463090E94F10E81111DC084E08093CA
:102180006B0315E525961FAF259741E050E0BE0192
:102190006C5B7F4F8BE190E00E94B30824961FAFE9
:1021A000249741E050E0BE016D5B7F4F8AE190E0F3
:1021B0000E94B3085ACF10926A03CC5BDF4F0FB670
:1021C000F894DEBF0FBECDBFDF91CF911F910F916D
:1021D000FF90EF90DF90CF9008951F93CF93DF9300
:1021E0001F92CDB7DEB7182F80E591E00E940E0553
:1021F000812F0E94760927E0129FF0011124EE5BE7
:10220000FC4F22813381377041E050E0BE016F5FA7
:102210007F4F820F931F0E94560D89810F90DF918F
:10222000CF911F910895FC01808D843040F4218D61
:10223000328D232B21F00E94ED1090E008958FEF56
:102240009FEF0895CF93DF93FC012485243028F07D
:102250008FEF9FEFDF91CF910895EC010190F08116
:10226000E02D0084F185E02D0995892B89F38C857B
:102270000E94ED1090E0EECFDA01E0916B03F0E008
:10228000FE2FEE27E60FF71F90E0982F8827A90171
:10229000BD018E0F9F1F0C94560D8F929F92AF928F
:1022A000BF92CF92DF92EF92FF921F93CF93DF9373
:1022B000CDB7DEB72C970FB6F894DEBF0FBECDBFFB
:1022C00020916A0314E0222329F16B017C0180E54F
:1022D00091E00E940E055E0127E0A20EB11C4501AF
:1022E00010E0812F0E94330EF40181934F01882367
:1022F00049F11F5F1430A9F710E0F50181915F01EA
:102300008D31D9F08831C9F08A518230B0F01F5F29
:10231000143099F7812F2C960FB6F894DEBF0FBEBC
:10232000CDBFDF91CF911F91FF90EF90DF90CF90C5
:10233000BF90AF909F908F90089560E170E0812FE3
:102340000E94FE0DA12EB12CF501EE0FFF1FE25AE7
:10235000FC4F1182108283EE93E00197F1F742E87F
:1023600070E060E0812F0E94BF094FEF62E070E0F3
:10237000812F0E94BF09B601C114D10491F480914C
:1023800004019091050101968115F0EC9F0708F476
:102390005CC09093050180930401609104017091E9
:1023A0000501812F0E94AA0986E0E2E1F1E0DE0149
:1023B000119601900D928A95E1F7F70183818F774D
:1023C0008C8384818D8385818E83A7014E5F5F4FCF
:1023D00024E030E06CE070E0812F0E948409B601B7
:1023E000812F0E94950926E030E0AE014F5F5F4FDC
:1023F00066E070E0812F0E94840961E070E0812F27
:102400000E94FE0D27E02A9DC0012B9D900D1124F6
:102410009C012E5B3C4F7901F9011182108222E070
:1024200030E0AE01455F5F4F68E270E0812F0E94AF
:102430003C118B859C85982789279827F7019383E2
:10244000828316821582148265CF80E090ECA1CF42
:10245000CF92DF92EF92FF920F931F93CF93DF9370
:1024600000D000D000D0CDB7DEB78C016B017A016F
:10247000FC01808D843010F40E941A0E84E991E0F2
:102480009A838983F60182819381A481B5818B83AC
:102490009C83AD83BE83B701CE0101960E944D118E
:1024A000F801808F8430A0F4F586E486128E118EB8
:1024B00081E026960FB6F894DEBF0FBECDBFDF9148
:1024C000CF911F910F91FF90EF90DF90CF900895E3
:1024D00080E0EFCFAF92BF92CF92DF92EF92FF9268
:1024E0000F931F93CF93DF9300D000D000D0CDB7D0
:1024F000DEB7082F6B0180E591E00E940E059E017A
:102500002F5F3F4F7901590110E0812F0E94330E58
:10251000F50181935F01882341F11F5F1430A9F712
:1025200010E0F70181917F018D31D1F08831C1F048
:102530008A518230A8F01F5F143099F7812F2696B8
:102540000FB6F894DEBF0FBECDBFDF91CF911F91C4
:102550000F91FF90EF90DF90CF90BF90AF900895D4
:1025600060E170E0812F0E94FE0DE12EF12CF70159
:10257000EE0FFF1FE25AFC4F1182108283EE93E0B0
:102580000197F1F7402F70E060E0812F0E94BF09B2
:102590004FEF62E070E0812F0E94BF09B601CD28A5
:1025A00089F4809104019091050101968115F0EC68
:1025B0009F0798F1909305018093040160910401B5
:1025C00070910501812F0E94AA0961E070E0812FBE
:1025D0000E94FE0D27E02E9DC0012F9D900D11241D
:1025E0009C012E5B3C4F7901F9011182108222E09F
:1025F00030E0AE014B5F5F4F68E270E0812F0E94D8
:102600003C118D819E81982789279827F701938314
:10261000828316821582148291CF80E090ECCACF1B
:10262000CF92DF92EF92FF921F93CF93DF93EC0153
:102630007B016A018C85843048F40E94370E882320
:1026400019F08C850E940E0E84E08C87F701828140
:102650009381A481B5810097A105B10551F490E063
:1026600080E0DF91CF911F91FF90EF90DF90CF90AE
:1026700008958F3F9F4FAF4FBF4F89F380916A03FB
:10268000811103C084E08C87EACF70E060E081E2D2
:102690000E946A12182F8C87843008F780E591E039
:1026A0000E940E05A7014E5F5F4F24E030E06CE012
:1026B00070E0812F0E948409B601812F0E94950944
:1026C00064E070E0812F0E94FE0D0E94F8066B010D
:1026D0007C018C850E94370E873109F18C31F9F02D
:1026E000882309F4BCCF0E94F806AB01BC014C1949
:1026F0005D096E097F098D859E85B0E0A0E0841795
:102700009507A607B70738F061E070E080E090E039
:102710000E94C506DECF8C850E941A0EB3CF81E0E1
:1027200090E09FCF0F931F93CF93DF93EC018B012A
:10273000888D843010F40E941A0E80916A038111F2
:1027400007C094E0988FDF91CF911F910F9108956A
:10275000B80182E00E946A12888F843030F41D87AD
:102760000C871A8E198E81E0EECF80E0ECCF0F93AC
:102770001F93CF9320916A03222349F18C01FC011E
:102780006481758181E20E946A12C82F8430F8F456
:1027900080E591E00E940E058C2F0E94330E83315C
:1027A00031F08C2FCF911F910F910C940E0E62E09F
:1027B00070E08C2F0E94FE0DF80184819581EC2F32
:1027C000F0E0EE0FFF1FE25AFC4F91838083CF9120
:1027D0001F910F9108957F928F929F92AF92BF9217
:1027E000CF92DF92EF92FF920F931F93CF93DF93DD
:1027F00000D0CDB7DEB7782E8B014A01590122E017
:1028000030E0AE014F5F5F4F64E270E00E943C1128
:10281000E980FA80FE24EF24FE24E00EF11E9701E9
:10282000377040916A03072D10E0433309F042C02E
:10283000085F1F4F102F0027110F110F110FC90133
:10284000800F911F4733C9F1A9014A0D5B1D41302B
:10285000584098F160E078E06B01C21AD30AA601F3
:10286000B4010E94B308A5014C195D09B4016C0DB7
:102870007D1DC8010E94B308EA0CFB1CF982EA82A4
:1028800022E030E0AE014F5F5F4F64E270E0872DE1
:102890000E9484090F900F90DF91CF911F910F91AB
:1028A000FF90EF90DF90CF90BF90AF909F908F9070
:1028B0007F900895005F1F4FBDCFA501B401DACF0F
:1028C000EF92FF921F93CF93DF9300D0CDB7DEB787
:1028D000182F22E030E0AE014F5F5F4F60E270E002
:1028E0000E943C11E980FA80FE24EF24FE2422E0BD
:1028F00030E0AE014F5F5F4F60E270E0812F0E94D9
:102900003C1189819A81982789279827E816F9062A
:1029100089F487E0189FF0011124EE5BFC4FF582EB
:10292000E482C7010F900F90DF91CF911F91FF902C
:10293000EF9008957C01DBCF1F93CF93DF93182F87
:1029400080E591E00E940E05812F0E946014EC0149
:10295000812F0E94330E873121F08C3111F0D0E0AD
:10296000C0E0CE01DF91CF911F910895CF93DF9307
:10297000EC018C85843060F40E94370E873111F0B1
:102980008C3131F48C850E949C148115984088F319
:10299000DF91CF910895FC018485843010F40C946C
:1029A0009C1490E080E00895CF92DF92EF92FF9226
:1029B0001F93CF93DF93182F7B01EA0141305840DA
:1029C00010F0C0E0D8E080E591E00E940E05812F74
:1029D0000E9460146C01812F0E94330E873111F028
:1029E0008C3121F5CC16DD0670F380E591E00E9474
:1029F0000E059E01A70170E060E0812F0E94EB139D
:102A000060E270E0812F0E94FE0D62E070E0812F95
:102A10000E94E10D84FD0DC0812F0E94330E88239A
:102A2000B9F080E591E00E940E05EFCFD0E0C0E064
:102A3000DCCF40E162E070E0812F0E94BF09CE014F
:102A4000DF91CF911F91FF90EF90DF90CF9008958D
:102A5000D0E0C0E0F4CF0F931F93CF93DF938C01AE
:102A6000EA01FC018485843048F40E94D414892B47
:102A700039F481E090E0F80193838283D0E0C0E0F4
:102A8000CE01DF91CF911F910F910895FB014481F9
:102A90005581608171810C942B150F931F93CF93F7
:102AA000DF93EC010E9446158C01CE010E94110CAF
:102AB000800F911FDF91CF911F910F9108959F92E9
:102AC000AF92BF92CF92DF92EF92FF920F931F933C
:102AD000CF93DF938C015B01942EE52EFC01C68819
:102AE000D788F08C80E591E00E940E058F2D0E9422
:102AF0006014C92DDE2D8C179D0708F4EC019E0192
:102B0000A501B6018F2D0E94EB13F80186899789E4
:102B10008C0F9D1F978B868BCE01DF91CF911F91DC
:102B20000F91FF90EF90DF90CF90BF90AF909F906C
:102B30000895FF920F931F93CF93DF9300D0CDB7EB
:102B4000DEB7F82E22E030E0AE014F5F5F4F66E265
:102B500070E00E943C1109811A811027012710277B
:102B600022E030E0AE014F5F5F4F66E270E08F2DF4
:102B70000E943C1189819A819827892798270817F4
:102B8000190749F4C8010F900F90DF91CF911F9161
:102B90000F91FF9008958C01E3CF1F93CF93DF93A4
:102BA000182F87E0189FE0011124CE5BDC4F88814D
:102BB0009981009761F480E591E00E940E05812FD4
:102BC0000E9499152E81821B910999838883DF9138
:102BD000CF911F910895AF92BF92CF92DF92EF9263
:102BE000FF920F931F93CF93DF93EC017B018091B2
:102BF0006A03811120C01B821A8288EE93E0A0E054
:102C0000B0E08C839D83AE83BF838CE191E0998398
:102C1000888384E08C8788EE93E09E878D87CE0141
:102C2000DF91CF911F910F91FF90EF90DF90CF90A8
:102C3000BF90AF9008958EE5C82E83E0D82E10E0A7
:102C400094E0B92EA12CD6012D913D916D01F70193
:102C5000848195812817390791F4812F0E94370EBE
:102C6000082F873111F08C3139F5812F0E94CD1555
:102C7000892B59F50C3119F4812F0E940E0E1F5F1C
:102C8000143009F7A11008C0D701ED91FC91008420
:102C9000F185E02DC70109951B821A8288EE93E029
:102CA000A0E0B0E08C839D83AE83BF838CE191E094
:102CB00099838883BC86AFCF843149F08111DFCFFF
:102CC000F601329711821082DACFB12ED8CFAA2422
:102CD000A394D5CF8F929F92AF92BF92CF92DF9263
:102CE000EF92FF921F93CF93DF93CDB7DEB72F976D
:102CF0000FB6F894DEBF0FBECDBF5C014B017A0169
:102D000080916A038823A1F1B501CE0101960E944A
:102D1000EB158EE5C82E83E0D82E10E0F601219148
:102D200031916F01F501848195812817390751F49C
:102D3000812F0E94370E873129F4A701B401812F1A
:102D40000E94D4141F5F143049F7C7012F960FB6A5
:102D5000F894DEBF0FBECDBFDF91CF911F91FF90E2
:102D6000EF90DF90CF90BF90AF909F908F9008959D
:102D7000F12CE12CEACFFC018485843010F40C9412
:102D8000CD1590E080E008954F925F927F928F92F0
:102D90009F92AF92BF92CF92DF92EF92FF920F93EA
:102DA0001F93CF93DF9300D0CDB7DEB7782E6B01A2
:102DB0004A01A82EB12C27E0829FC0011124FC01FA
:102DC000EE5BFC4F7F010081118180E591E00E9464
:102DD0000E050815190554F4872D0E949915F70161
:102DE00026818C01021B1109118300830115110535
:102DF00019F5872D0E94330E843159F0882349F04C
:102E000001E010E08C3111F410E000E01195019523
:102E10001109C8010F900F90DF91CF911F910F9171
:102E2000FF90EF90DF90CF90BF90AF909F908F90EA
:102E30007F905F904F900895801691060CF4840166
:102E400087E08A9DF0018B9DF00D1124EE5BFC4F15
:102E5000E280F380C114D10451F12701F7E05F2231
:102E6000872D0E947609840D951D20916A032733D2
:102E700009F453C09801240D351D2130384008F461
:102E80004CC020E038E0490184189508A401B6013F
:102E90000E94560D2601480C591C6801C818D90813
:102EA000872D0E947609A601B2010E94560DE00E00
:102EB000F11E87E08A9DF0018B9DF00D1124EE5BE1
:102EC000FC4FF382E28220813181201B310B318360
:102ED00020838681800F912F911D8A3F910510F4E8
:102EE000232BF1F487E08A9DF0018B9DF00D1124D6
:102EF000EE5BFC4F1682F982EA8222E030E0AE01FE
:102F00004F5F5F4F68E270E0872D0E94840960E4A4
:102F100070E0872D0E94FE0D7CCFA801B601C5CFC1
:102F2000868377CFCF93DF93FC01218D328D2115DE
:102F3000310529F48FEF9FEFDF91CF910895EC01D8
:102F4000808D4217530708F0A9010E94C416181675
:102F5000190684F7298D3A8D281B390B3A8F298F52
:102F6000EBCF0F931F93CF93DF931F92CDB7DEB7B5
:102F7000FC01218D328D232B41F48FEF9FEF0F90B9
:102F8000DF91CF911F910F9108958C0141E050E0A6
:102F9000BE016F5F7F4FFC01808D0E94C416181622
:102FA00019065CF7F801818D928D0197928F818FC0
:102FB000898190E0E4CF0F931F93CF93DF93CDB738
:102FC000DEB728970FB6F894DEBF0FBECDBF8C01D9
:102FD000D80159964D915C915A974115510551F080
:102FE000ED91FC91048CF58DE02D70E060E0C8015E
:102FF0000995EECFF801808D0E94CD15892BB1F196
:1030000048E050E0BE016F5F7F4FD80158968C9129
:103010000E94C41618161906F4F4D801509684E0DC
:10302000FE01319601900D928A95E1F78D8190E035
:10303000982F88272E81820F911DF801958B848B04
:103040008F81282F30E0322F22278885820F932FFF
:10305000911D928F818F28960FB6F894DEBF0FBE18
:10306000CDBFDF91CF911F910F91089590E080E047
:10307000F2CF4F925F926F927F928F929F92AF9218
:10308000BF92CF92DF92EF92FF920F931F93CF9355
:10309000DF93CDB7DEB763970FB6F894DEBF0FBEF0
:1030A000CDBF7C016B013A01FB0120E090E080E0A4
:1030B0006AE03191332309F461C040ED430F4A3097
:1030C00008F04DC0689FA001699F500D1124CA01EE
:1030D000C097830F911D37FD9A958F3F910549F356
:1030E00040F3F701428153816481758180913604F8
:1030F00090913704A0913804B091390448175907CA
:103100006A077B0709F40DC28701085F1F4F0E9401
:10311000F8066F7077277C5FC8010E949213813098
:1031200009F004C284E991E09A838983F7018281DE
:103130009381A481B5818B839C83AD83BE8345E35A
:1031400050E0BE016F5F7F4FC8010E94640A892B67
:10315000A9F5D12CC12CC8010E94260E17C03E3201
:1031600009F0BFCF233009F4BCCFD301A20FB11DAA
:1031700012968C932F5F90E080E09BCF233009F074
:10318000B0CFF3018583CC24C394D12CC6016396C0
:103190000FB6F894DEBF0FBECDBFDF91CF911F9168
:1031A0000F91FF90EF90DF90CF90BF90AF909F90E6
:1031B0008F907F906F905F904F9008950E94F806D7
:1031C000F7017783668342E050E0B7016A5F7F4F83
:1031D000C8010E945F1581E090E09A83898342E0F4
:1031E00050E0BE016F5F7F4FC8010E945F1580E015
:1031F00091E09A83898342E050E0BE016F5F7F4F88
:10320000C8010E945F151A82198242E050E0BE0197
:103210006F5F7F4FC8010E945F1542E050E0BE0122
:103220006F5F7F4FC8010E945F1542E050E0BE0112
:103230006F5F7F4FC8010E945F155601F6018081C4
:10324000882301F16501F60181912F01882311F096
:103250008E32B1F446018A189B081814190474F4CC
:103260008D8641E050E0BE01635F7F4FC8010E9440
:103270005F15A401B501C8010E945F155201DECFA0
:103280006201E1CF1D8641E050E0BE01635F7F4FE8
:10329000C8010E945F15C12CDD24D394DA82C98253
:1032A00042E050E0BE016F5F7F4FC8010E945F1592
:1032B000DA82C98242E050E0BE016F5F7F4FC801F1
:1032C0000E945F15C8010E94C00E892B09F441CFEE
:1032D000F3E0AF2EB12C230122E0420E511CD4C0EA
:1032E000F7014281538164817581808D918DA28D1A
:1032F000B38D481759076A077B0709F008C1848D09
:10330000958DC59709F003C181A192A15DEFC52EEE
:10331000DD24DA940C970CF4ADC04CE050E0BE0113
:103320006F5F7F4FC8010E9492178B819C81982705
:10333000892798279A8B898BF701468157812981A4
:103340003A814217530709F0E7C097FFE5C08F7035
:1033500092703BEFC32EDD24DA94892B09F08AC0EA
:103360006F8078847624672476242AEFC22EDD24A9
:10337000DA946114710409F47DC0D12CC12C8D81C3
:103380009E81982789279827C816D906F8F441E026
:1033900050E0BE01635F7F4FC8010E9492174D85C8
:1033A000442331F050E070E060E0C8010E949217C1
:1033B0008D858111ECCF44E050E070E060E0C80101
:1033C0000E949217FFEFCF1ADF0AD9CF912C812CE0
:1033D00041E050E0BE016D5E7F4FC8010E94921730
:1033E0004B89842F807C09F06CC0442331F050E07D
:1033F00070E060E0C8010E9492178B898111E8CFCC
:1034000042E050E0BE01615F7F4FC8010E94921709
:1034100042E050E0BE01635F7F4FC8010E949217F7
:1034200044E050E070E060E0C8010E94921742E082
:1034300050E0BE016F5E7F4FC8010E9492178F85DA
:10344000988949895A898115914009F043C0CD84F2
:10345000DE84DC24CD24DC2481E0C816D104D1F53F
:103460004115544009F04AC044E050E0B201C8019F
:103470000E94921721E0A21AB10809F46CCEFFEF66
:10348000CF16DF0609F067CE0E94F8063B014C011B
:10349000C8010E94DB17181619060CF421CF0E94F0
:1034A000F806661977098809990969387341810511
:1034B000910548F562E370E080E090E00E94C50667
:1034C000E7CF41E050E070E060E0C8010E94921751
:1034D0001B8A93CF54274527542770E060E0C8012A
:1034E0000E949217FFEF8F1A9F0A6814790409F05F
:1034F0006FCF96EFC92EDD24DA94BCCFE7EFCE2E46
:10350000DD24DA94B7CFCC24CA94DC2CB3CF6EEF91
:10351000C62EDD24DA94AECF4CEFC42EDD24DA942F
:10352000A9CF8EEFC82EDD24DA9430CED12CC12C59
:103530002DCECF92DF92EF92FF920F931F93CF93F6
:10354000DF93CDB7DEB7AF970FB6F894DEBF0FBEEF
:10355000CDBF7C016A0104E911E01A8309831C864E
:103560001B8688EE93E0A0E0B0E08D879E87AF8752
:10357000B88B8AE491E09A878987188F0F8B198E10
:103580001A8E1B8E1C8E84E089A31BA70AA71CA67B
:103590001DA61EA61FA680912A0490912B04A0911F
:1035A0002C04B0912D048EA39FA3A8A7B9A78B8349
:1035B0009C83AD83BE8318861F82AE01465D5F4F3C
:1035C000CE0101960E94391881309105B1F4D701DE
:1035D000ED91FC910488F589E02D1DA30CA38CA529
:1035E0009DA5AEA5BFA58EA39FA3A8A7B9A7A60119
:1035F000BE016C5D7F4FC7010995AF960FB6F89479
:10360000DEBF0FBECDBFDF91CF911F910F91FF9015
:10361000EF90DF90CF900895CF92DF92EF92FF92DC
:103620000F931F93CF93DF93CDB7DEB7AF970FB64E
:10363000F894DEBF0FBECDBF8C016B017A0184E927
:1036400091E09A8389831B821C821D821E821C86C4
:103650001B8648EE53E060E070E04D875E876F8721
:10366000788B2AE431E03A872987988F8F8B198EDF
:103670001A8E1B8E1C8E24E029A39BA78AA71CA64A
:103680001DA61EA61FA6D8011C968C91843060F43E
:103690000E94370E882321F0F80184850E940E0EC7
:1036A00084E0D8011C968C9380912A0490912B047D
:1036B000A0912C04B0912D048EA39FA3A8A7B9A715
:1036C0008B839C83AD83BE8318861F82AE01465DCB
:1036D0005F4FB601CE0101960E9439180097C1F0E4
:1036E000D801ED91FC910684F785E02D84E991E005
:1036F0009DA38CA38CA59DA5AEA5BFA58EA39FA3BE
:10370000A8A7B9A7A701BE016C5D7F4FC8010995A5
:10371000AF960FB6F894DEBF0FBECDBFDF91CF914D
:103720001F910F91FF90EF90DF90CF900895CF936E
:10373000DF931F92CDB7DEB741E050E0BE016F5F6F
:103740007F4FFC0184850E94C4161816190634F4B4
:10375000898190E00F90DF91CF9108958FEF9FEFD7
:10376000F9CF0F931F93CF93DF93EC010E94F806DC
:10377000688779878A879B87CE010E94971B97FF6E
:1037800015C00E94F806088519852A853B85601BAF
:10379000710B820B930B0C811D812E813F81601771
:1037A00071078207930740F38FEF9FEFDF91CF916F
:1037B0001F910F910895FC018485843010F40C94BE
:1037C000C41690E080E008950F931F93CF93DF938A
:1037D00000D0CDB7DEB7FC0124852430E0F48C01A5
:1037E00080E591E00E940E0522E030E0AE014F5FDF
:1037F0005F4F60E170E0F80184850E943C1189818F
:103800009A819827892798270F900F90DF91CF9161
:103810001F910F91089590E080E0F6CFEF92FF9214
:103820000F931F93CF93DF9300D000D0CDB7DEB7B7
:103830008C017B01FB0184858430A8F084E991E050
:10384000F801918380831282138214821582C80149
:103850000F900F900F900F90DF91CF911F910F91CC
:10386000FF90EF90089580E591E00E940E0524E01E
:1038700030E0AE014F5F5F4F6CE070E0F701848590
:103880000E943C1184E991E0F80191838083898151
:103890009A81AB81BC8182839383A483B583D7CF84
:1038A0000F931F93CF93DF9300D0CDB7DEB7FC010A
:1038B00024852430E0F48C0180E591E00E940E051F
:1038C00022E030E0AE014F5F5F4F64E070E0F8014E
:1038D00084850E943C1189819A819827892798279D
:1038E0000F900F90DF91CF911F910F91089590E06D
:1038F00080E0F6CFAF92BF92CF92DF92EF92FF922D
:103900000F931F93CF93DF93CDB7DEB7C456D10982
:103910000FB6F894DEBF0FBECDBF6C01062F660F49
:10392000110BC8010E94A62A9E012F5F3F4F79010B
:103930005901021B130BF501EE19FF09882349F009
:10394000C8018A0D9B1D0E94A62AF50181935F0183
:10395000F2CFEE0DFF1D1082B701C6010E94130DBC
:10396000C601CC59DF4F0FB6F894DEBF0FBECDBFF6
:10397000DF91CF911F910F91FF90EF90DF90CF904B
:10398000BF90AF900895CF92DF92EF92FF920F9386
:103990001F93CF93DF937B01DB011496CD90DC90D6
:1039A000D0E0C0E0082F880F110BCC15DD05D4F452
:1039B000F70184819581C817D90728F40190F08117
:1039C000E02D309761F410923003E0E3F3E0608182
:1039D000C8018C0F9D1F0E94AE2A2196E6CFEC0FE6
:1039E000FD1FF5CF60E0C8018C0D9D1DDF91CF91CB
:1039F0001F910F91FF90EF90DF90CF900C94AE2A23
:103A00001F920F920FB60F9211242F933F934F9353
:103A10005F936F937F938F939F93AF93BF93EF9336
:103A2000FF938DE693E00E949405FF91EF91BF9183
:103A3000AF919F918F917F916F915F914F913F9146
:103A40002F910F900FBE0F901F9018951F920F92FD
:103A50000FB60F9211242F938F939F93EF93FF93A1
:103A6000E0917D03F0917E038081E0918303F091EA
:103A7000840382FD1BC09081809186038F5F8F73CA
:103A800020918703821741F0E0918603F0E0E3592B
:103A9000FC4F958F80938603FF91EF919F918F91BB
:103AA0002F910F900FBE0F901F9018958081F4CF2B
:103AB0001F920F920FB60F9211242F933F938F9363
:103AC0009F93AF93BF938091320390913303A09162
:103AD0003403B09135033091310323E0230F2D37A8
:103AE00058F50196A11DB11D209331038093320337
:103AF00090933303A0933403B0933503809136033E
:103B000090913703A0913803B09139030196A11D1C
:103B1000B11D8093360390933703A0933803B0937D
:103B20003903BF91AF919F918F913F912F910F904A
:103B30000FBE0F901F90189526E8230F0296A11D27
:103B4000B11DD2CFEDE6F3E01382128288EE93E04E
:103B5000A0E0B0E084839583A683B78382E891E0F8
:103B60009183808385EC90E09587848784EC90E056
:103B70009787868780EC90E0918B808B81EC90E03A
:103B8000938B828B82EC90E0958B848B86EC90E01B
:103B9000978B868B118E128E138E148EEAE0F4E0D2
:103BA00084E991E0918380831282138214821582CA
:103BB000E0E1F4E091838083128213821482158203
:103BC000E6E1F4E0918380831282138214821582ED
:103BD000ECE1F4E0918380831282138214821582D7
:103BE000E2E2F4E0918380831282138214821582D0
:103BF000EEE2F4E0918380831282138214821582B4
:103C0000E8E2F4E0918380831282138214821582A9
:103C1000E4E3F4E09183808312821382148215829C
:103C2000EAE3F4E091838083128213821482158286
:103C3000EDE6F4E091838083128213821482158270
:103C400060E085E00E946F06E5EBF9E0E491AFE506
:103C5000B4E0EC93E1EAF9E0E491F0E0EE0FFF1F4D
:103C6000EE56F64F8591949112969C938E931197F0
:103C70001B961C921B971D961C921D971C961C92BE
:103C80001C971A961C921A9719961C9219971896B7
:103C90001C92189717961C92179716961C921697B7
:103CA00015961C92159714961C92149713961C92B5
:103CB0001397ECE4F4E085E195E0928B818BB68379
:103CC000A5831482108289E0818381E082838383CB
:103CD000E6E4F4E0138212828AE991E09183808322
:103CE00080E590E09583848368EA71E080E494E065
:103CF0000C94130DCF93DF93CDB7DEB7C254D10927
:103D00000FB6F894DEBF0FBECDBF789484B5826045
:103D100084BD84B5816084BD85B5826085BD85B56F
:103D2000816085BD80916E00816080936E001092ED
:103D30008100809181008260809381008091810068
:103D400081608093810080918000816080938000F9
:103D50008091B10084608093B1008091B000816057
:103D60008093B00080917A00846080937A00809183
:103D70007A00826080937A0080917A0081608093DB
:103D80007A0080917A00806880937A001092C10056
:103D90006AE0CE01C1960E947A1C64E6CE0182964A
:103DA0000E947A1C68EA71E0CE01C1960E943C0C28
:103DB000811108C070E060E0CE01C1960E943C0C09
:103DC000882381F06AEA71E0CE0101960E94130D0A
:103DD000BE016F5F7F4F8AE00E94C31CCE01019637
:103DE0000E944E0D68EA71E0CE0182960E943C0C62
:103DF000811108C070E060E0CE0182960E943C0C08
:103E0000882381F069EA71E0CE0101960E94130DCA
:103E1000BE016F5F7F4F84E60E94C31CCE010196F6
:103E20000E944E0DE0915104F091520413861586C4
:103E300014861286118610861782168215821482C5
:103E400013821092500401E0BE016F5F7F4F80919A
:103E50005104909152040E94EE0A882309F454C040
:103E600067E0CE0101960E94040798858913ECCF84
:103E700080914C04811128C080915104909152048A
:103E80000E94B607BE016F5F7F4F809151049091F1
:103E900052040E94970740E064EB80915104909196
:103EA00052040E94630780915104909152040E9431
:103EB0001007182F80915104909152040E94B60768
:103EC000111102C000934C0410914D04898180317E
:103ED00009F417C6CE0101960E943A08811750F4E2
:103EE00080914D0480934D04809150048F5F8093A6
:103EF0005004AACF8981803111F48CE0F3CFCE0138
:103F000001960E943A08EECF61E086E00E946F06BB
:103F100061E086E00E942306E0917D03F0917E033C
:103F200082E08083E0917903F0917A031082E0913E
:103F30007B03F0917C0380E1808310928503E09104
:103F40008103F091820386E08083E0917F03F0910A
:103F50008003808180618083E0917F03F091800302
:103F6000808188608083E0917F03F091800380816D
:103F700080688083E0917F03F091800380818F7D52
:103F800080830E94BE0A60ED77E080E090E00E94AE
:103F9000C50604E911E01A8309838091000190911C
:103FA0000101A0910201B09103018B839C83AD8339
:103FB000BE83CE0101960E941A0F86E494E00E940F
:103FC000B7138FEA91E00E94150C85EB91E00E94F7
:103FD000150C1A8309831B821C821D821E8280E5B8
:103FE00091E00E940E0544E050E0BE016D5F7F4FFE
:103FF0008FE090E00E94560D6DE673E0CE010196D1
:104000000E94C70B8DE693E00E94110CCE018296B0
:104010000E944E0DCE01C1960E944E0DF0E0AF2ED3
:10402000F0E0BF2E0E94F806C0903E03D0903F0300
:10403000E0904003F09041036C197D098E099F09BF
:10404000603177428105910528F4CD28CE28CF280C
:1040500009F07DC00E94F80660933E0370933F0311
:104060008093400390934103E0915104F0915204F6
:10407000138615861486128611861086178216827C
:10408000158214821382BE016E5D7F4F80915104B0
:10409000909152040E94EE0A81118EC060E070E09F
:1040A0008EEF92EC60933A0370933B0380933C0352
:1040B00090933D036AE0CE0182960E947A1C64E6EA
:1040C000CE0101960E947A1C8AA19BA1412C512C01
:1040D0003201009721F00E94A7252B013C01898124
:1040E0009A81C12CD12C7601009721F00E94A7253E
:1040F0006B017C0120913A0330913B0340913C03DA
:1041000050913D03C301B2010E942F2B2B013C01B2
:10411000A70196010E94CB2B18160CF0ADC08CECB9
:1041200091E00E94150C61ED71E080E494E00E9442
:10413000BF0C60E086E00E9423060E94BE0ACE010A
:1041400001960E944E0DCE0182960E944E0D66E4AD
:1041500074E0CE0182960E94EB158EA5843008F0A3
:10416000C4C4CE0182960E94650E882309F4BDC4A2
:10417000CE0182960E94BB16892B99F38DB69EB60E
:1041800068EA71E0CE01CD960E94130DCE018296B1
:104190000E94B11B97FD86C08A30910509F482C048
:1041A00089831A8241E050E0BE016F5F7F4FCE01EC
:1041B000CD960E94810CEACF67E0CE0182960E94E4
:1041C000040799A589136ACF8091510490915204F4
:1041D0000E94B607882309F461CFBE016F5F7F4F4D
:1041E000CE0182960E94EE07882309F457CF68E03B
:1041F000CE0101960E940407998589134FCF6A81E9
:1042000070E0762F6627770F770F770F298148E0C8
:10421000249F90011124262B372B8AA18031D1F4C1
:10422000688570E08F81AB01481B5109CA019695E2
:10423000982F8827979587950E94D52BCB0140977B
:10424000B90153E0660F771F5A95E1F760789C013A
:10425000260F371F213854EE35070CF41FCFB90154
:10426000330F880B990B0E94862920E030E040E054
:104270005CE30E94E52916CFC701B6019058A3015F
:1042800092010E94CB2B18160CF057CF85ED91E0D0
:104290000E94150C6AED71E080E494E00E94BF0C6E
:1042A00061E048CF2396EEACFFAC2397C70101969F
:1042B0002DB73EB7281B390B0FB6F8943EBF0FBE83
:1042C0002DBF4DB75EB74F5F5F4F6A01E114F10438
:1042D00069F051E0E51AF1086DAD7EADA701C601A8
:1042E0000E94132EF601EE0DFF1D108266E771E0AD
:1042F000C6010E94AB2566E771E090E080E00E9475
:10430000AB257C01BC01CE0101960E94130D63ED2B
:1043100072E0CE0101960E943C0C182FCE0101964E
:104320000E944E0D112309F40BC26EE679E0CE0116
:1043300082960E942A0C66E579E0CE0182960E9460
:104340002A0CCE0182960E94110C66E479E0CE011F
:1043500082960E942A0C6FE379E0CE0182960E9439
:104360002A0C68E379E0CE0182960E942A0C61E271
:1043700079E0CE0182960E942A0C61EF78E0CE01AE
:1043800082960E942A0C65EC78E0CE0182960E940B
:104390002A0C60E878E0CE0182960E942A0C6BE13C
:1043A00078E0CE0182960E942A0C6BEF77E0CE0176
:1043B00082960E942A0C68EE77E0CE0182960E94D7
:1043C0002A0C6CEB77E0CE0182960E942A0C69EAF7
:1043D00077E0CE0182960E942A0C6BE877E0CE014E
:1043E00082960E942A0C6BE477E0CE0182960E94AE
:1043F0002A0C62E477E0CE0182960E942A0C6DEED0
:1044000076E0CE0182960E942A0C6BEE76E0CE0119
:1044100082960E942A0C6CED76E0CE0182960E9474
:104420002A0C62ED76E0CE0182960E942A0C68EC9E
:1044300076E0CE0182960E942A0C65E976E0CE01F4
:1044400082960E942A0C6DE876E0CE0182960E9448
:104450002A0C66E876E0CE0182960E942A0C6CE374
:1044600076E0CE0182960E942A0C62E176E0CE01CF
:1044700082960E942A0C6AE0CE0101960E947A1C64
:104480006EED71E0CE01C1960E94130DBE016F5F0B
:104490007F4FCE01C1960E94000D6FE472E00E9432
:1044A000EA0CBC01CE0182960E944D15CE01C19648
:1044B0000E944E0DCE0101960E944E0D64E6CE0183
:1044C00001960E947A1C65E572E0CE01C1960E94B9
:1044D000130DBE016F5F7F4FCE01C1960E94000D8C
:1044E0006FE472E00E94EA0CBC01CE0182960E9449
:1044F0004D15CE01C1960E944E0DCE0101960E942F
:104500004E0D62ED75E0CE0182960E942A0C66EC9B
:1045100075E0CE0182960E942A0C61ED71E080E484
:1045200094E00E943C0C882331F062E975E0CE01F2
:1045300082960E942A0C6AED71E080E494E00E9469
:104540003C0C882331F060E675E0CE0182960E9433
:104550002A0C65E475E0CE0182960E942A0C6AE17D
:1045600075E0CE0182960E94290AC0903A03D0904D
:104570003B03E0903C03F0903D03A7019601C70187
:10458000B6010E94D02B6EEB72E081111BC0260198
:104590003701E89477F82FEF3FEF4FE75FE7C3016C
:1045A000B2010E94D02B81114DC02FEF3FEF4FE79A
:1045B0005FE7C301B2010E947F2918160CF042C0C8
:1045C00062EC72E0CE0182960E946C0B65E175E0B0
:1045D000CE0182960E942A0C68EA74E0CE0182968F
:1045E0000E942A0C67E774E0CE0182960E942A0C92
:1045F0006DE674E0CE0182960E942A0C65E674E0B6
:10460000CE0182960E942A0C6DE574E0CE0182965E
:104610000E942A0C61E070E080E090E00E94C506F4
:10462000CE0182960E94870ECE0182960E94B61419
:10463000CE01CD960E944E0D0FB6F8949EBE0FBED1
:104640008DBE8FCD2FEF3FEF4FE75FE4C701B6017F
:104650000E94CB2B18161CF466EC72E0B3CF2FEF40
:104660003FEF4FE75FECC701B6010E947F2987FD4E
:10467000F3CF20E030E0A901C701B6010E947F29F5
:1046800087FF09C06DE2CE0182960E94130AF7FAF5
:10469000F094F7F8F0942AE037ED43EA5BE3C701C2
:1046A000B6010E94302B2B013C010E949C2B6B0118
:1046B0007C010E9484299B01AC01C301B2010E94CC
:1046C0002F2B2B013C012AE0B701A601CE018296D7
:1046D0000E947B0B6EE2CE0182960E94130A20E0BC
:1046E00030E040E251E4C301B2010E94E5292B0110
:1046F0003C010E949C2B6B01F12CE12C2AE0B701BC
:10470000A601CE0182960E947B0BC701B6010E94D2
:1047100084299B01AC01C301B2010E942F2B20E030
:1047200030E040E251E40E94E5290E949C2BAB015D
:1047300070E060E02AE0CE0182960E947B0B46CFBB
:10474000B701CE0101960E94130D6AEC72E0CE0112
:1047500001960E943C0C182FCE0101960E944E0D2E
:10476000112309F483C06DE474E0CE0182960E94A7
:104770002A0C65E374E0CE0182960E942A0CCE01D9
:1047800082960E94110C63E374E0CE0182960E942F
:104790002A0C65E274E0CE0182960E94290A6AE042
:1047A000CE0101960E947A1CBE016F5F7F4FCE0141
:1047B00082960E944615CE0101960E944E0D63E23C
:1047C00074E0CE0182960E942A0C6DE074E0CE0166
:1047D00082960E94290A64E6CE0101960E947A1C04
:1047E000BE016F5F7F4FCE0182960E944615CE01BB
:1047F00001960E944E0D6BE074E0CE0182960E94FD
:104800002A0C65EF73E0CE0182960E94290A60911E
:104810003A0370913B0380913C0390913D031AAAA7
:1048200019AA1CAA1BAA1EAA1DAA8E010F5F1F4F40
:1048300022E044E00E948925009799F0BC01CE0156
:10484000C1960E94BF0CBE016F5C7F4FCE01829665
:104850000E944D15CE01C1960E944E0D63EF73E08C
:10486000D5CECE01C1960E94AD0CEDCFB701CE01E1
:1048700001960E94130D65ED72E0CE0101960E9433
:104880003C0C182FCE0101960E944E0D112329F0E9
:10489000CE0182960E94870ECBCEB701CE01C7967D
:1048A0000E94130D62EE72E0CE0101960E94130D7C
:1048B0004D815E818BAD9CAD8417950778F08FA9F3
:1048C00098AD009759F069817A816115710531F0D1
:1048D0000E94052E11E0892B09F010E0CE0101960F
:1048E0000E944E0D112309F4FBC064E771E0C7017B
:1048F0000E94AB250E94150C64E771E090E080E017
:104900000E94AB2562E771E00E94AB257C0162E763
:1049100071E090E080E00E94AB258C0160E771E0DF
:10492000C7010E94AB2560E771E090E080E00E9443
:10493000AB256C0160E771E0C8010E94AB2560E720
:1049400071E090E080E00E94AB257C01B601CE01D1
:1049500001960E94130DBE016F5F7F4F8AE00E9497
:10496000C31CCE0101960E944E0DB701CE010196E7
:104970000E94130DBE016F5F7F4F84E60E94C31C2F
:10498000CE0101960E944E0D63EE73E0CE01829639
:104990000E942A0C6BEC73E0CE0182960E942A0CD6
:1049A000CE0182960E94110C6BEB73E0CE018296D1
:1049B0000E942A0C64EB73E0CE0182960E942A0CBE
:1049C0006DEA73E0CE0182960E942A0C66E973E0DC
:1049D000CE0182960E942A0C65E673E0CE01829693
:1049E0000E942A0C62E373E0CE0182960E942A0C98
:1049F0006AE273E0CE0182960E942A0C63E273E0C1
:104A0000CE0182960E942A0C61EF72E0CE0182965E
:104A10000E942A0CB601CE0101960E94130D6FEE82
:104A200072E0CE01C1960E94130DBE016F5F7F4FF1
:104A3000CE01C1960E94000D61E173E00E94EA0C74
:104A4000BC01CE0182960E944D15CE01C1960E94F6
:104A50004E0DCE0101960E944E0DB701CE0101967A
:104A60000E94130D67E173E0CE01C1960E94130D01
:104A7000BE016F5F7F4FCE01C1960E94000D61E1C4
:104A800073E00E94EA0CBC01CE0182960E944D1593
:104A9000CE01C1960E944E0DCE0101960E944E0D90
:104AA00061EC72E0CE0182960E942A0C69EB72E002
:104AB000CE0182960E942A0C61EB72E0CE018296B2
:104AC0000E942A0C61E070E080E090E00E94C50640
:104AD000CE0182960E94870ECE0182960E94B61465
:104AE000CE01C7960E944E0DA3CDA114B10409F4C6
:104AF00099CA0E948005882309F494CA0E94000084
:104B00008DCA1D3008F0ECC9F8C980E494E00C941B
:104B10004E0DEF920F931F93CF93DF93E80134E094
:104B200047FD34E1042E000C550B57FF03C051958F
:104B300041955109E32E022F242FAE010E94D72563
:104B4000CE01DF91CF911F910F91EF9008956627CD
:104B500077270C94362743E754E00E94B025089548
:104B6000FA01A191B081009719F41097E1F0CD01FD
:104B7000DC01CD010D90002011F4C00113C0FB0138
:104B80002191222319F02015D9F7F3CFFB012191B0
:104B9000201519F41E92119606C02223C1F70D901C
:104BA0000020A1F7D001FA01A193B0830895A9E0F4
:104BB000B0E0EDEDF5E20C94CD2A6A01F22EB02EB4
:104BC000102FFBE3AF2EA01608F41BE31F5F012F8D
:104BD00027E0AE014F5F5F4F0E948628BC018981AC
:104BE000982F9970913009F43FC09BE2E1FC04C01A
:104BF0009E2D9170E0FC3AC05E2D5071E82FE87058
:104C000083FF46C084E0911101C083E0EF2DE81BD3
:104C10008F1508F0E0E0D6018E2F20E2552351F1E8
:104C2000992329F0D6019C93C60101966C01960147
:104C30002D5F3F4FE2FE24C08EE4D6018C9391E4B9
:104C400011969C93119712968C93D9018E2F90E216
:104C500081111BC0E20FF32FF11D10828EEF9FEF29
:104C60002996ECE00C94E92A9DE2C6CF90E2C4CFED
:104C70002D9381508111FCCFCE0ED11CE0E0D0CF1E
:104C80008EE6D6018C9391E6DBCF9D938150E0CFE9
:104C9000482F447082FF3DC084E0911101C083E041
:104CA0008F1510F4EF2DE81BD6018E2F20E255232F
:104CB00009F1992329F0D6019C93C60101966C0154
:104CC00096012D5F3F4FE2FE1BC089E4D6018C9315
:104CD0008EE411968C93119786E412968C93D901E9
:104CE0008E2F90E2882309F4B5CF9D938150FACF9F
:104CF0002D9381508111FCCFCE0ED11CE0E0D9CF95
:104D000089E6D6018C938EE611968C93119786E6F0
:104D1000E4CF9B0177FF02C030E020E0A1E0B0E0EB
:104D2000911102C0B0E0A0E0F9013196AE0FBF1FB3
:104D30008B2C912CBB2009F461C05401EFEFAE1A0B
:104D4000BE0AAA0DBB1DFA161B0619F014F04F2D52
:104D50004A1B511188C0E3FC59C07601A42FB0E270
:104D6000A1114FC0C40ED11C992309F45BC040E0CF
:104D7000D6011196F60190836D01552309F448C0C0
:104D8000012F060F9A81582F507184FF03C0913371
:104D900009F4015010160CF047C0093008F008E083
:104DA000EEE2FE2E5B01A01AB10885019194819478
:104DB00091082F3F320729F4D601FC92F601319673
:104DC0006F016217730794F1021713077CF5DB017B
:104DD000A21BB30BAA24A394B12CAC0EBD1EAA0D2A
:104DE000BB1D11968C9121503109D60111962815C1
:104DF0003905F4F0F60180836D01DBCFB12CA12CD5
:104E0000A0CFF701B1937F01A150AACF9111B0CFEC
:104E1000D601942F50E302C05D9391509111FCCFC5
:104E2000C40ED11C40E0ACCF01E0BACF80E3DBCFB1
:104E30006217730731F4963388F4953311F45523D0
:104E400069F0F6018083FD01842F90E2811108C092
:104E5000A40FB11D1C9290E080E002CF81E3F1CF5E
:104E600091938150F3CF911183CF8ACFB0E0A0E02E
:104E7000ECE3F7E20C94CD2A5C017B01611571052E
:104E800019F0DB018D939C9385010F5F1F4FF50196
:104E9000D0818D2F90E00E945E296C01892BB9F59D
:104EA000DD32B9F50F5F1F4FD5011196DC91C1E0DE
:104EB0005801F1E0AF1AB10843E050E060E770E05C
:104EC000C5010E946729892B69F5680182E0C80E37
:104ED000D11C45E050E06BE670E0C6010E946729F6
:104EE000892B21F4680197E0C90ED11CE114F1046B
:104EF00019F0D701CD92DC9260E070E080E89FEF7E
:104F0000C111FFC060E070E080E89FE7FAC058017F
:104F1000BBCFDB3229F485010E5F1F4FF501D18134
:104F2000C0E0C6CF43E050E068E670E0C5010E94F3
:104F30006729892BE9F0F80110E000E020E030E07B
:104F4000A9015F01B0ED8B2E8D0E89E08815C8F1A7
:104F50009C2E689491F88C2F8870C2FF16C0811126
:104F600002C00F5F1F4F3196D501DC91C92DE9CFEB
:104F7000E114F10429F00E5F1F4FF7011183008344
:104F800060E070E080EC9FE7BCC0882311F0015026
:104F90001109A5E0B0E00E94BC2A9B01AC01220FE0
:104FA000331F441F551F280D311D411D511D283928
:104FB00099E93907490799E15907A8F2C6609C2E7B
:104FC000D2CFAEEF8A1206C0C3FD3CC09C2E6894BF
:104FD00093F8C9CFDF7DD534A9F580818D3239F4BE
:104FE000C061DF011296818162E070E006C0DF01DE
:104FF0008B32C1F3119661E070E080535D01A61A17
:10500000B70A8A30F8F4E0E8CE16ECE0DE065CF48D
:10501000B601660F771F660F771FC60ED71ECC0C22
:10502000DD1CC80ED11C5D01FFEFAF1ABF0A8C91C9
:1050300080538A30A8F1C4FF03C0D194C194D10831
:105040000C0D1D1DC1FF09C0E114F10431F081E018
:10505000A81AB108D701AD92BC92CA01B9010E9449
:105060008429C370C33009F490584B015C0120E0DF
:1050700030E0A9010E947F29882309F440C0CFE9CC
:10508000D0E017FF05C0119501951109C7E8D0E0E0
:105090006E01B8E1CB1AD10880E2E82EF12C0FC0E6
:1050A000D501B1CFFE0125913591459154910E194D
:1050B0001F09C501B4010E94E5294B015C01D5011E
:1050C000C4010E151F0574F72497F594E794CC16C8
:1050D000DD06A9F78A2F880F8B2F881F8F3F49F095
:1050E00020E030E0A901C501B4010E947F298111AF
:1050F00006C082E290E09093760480937504C50127
:10510000B401CDB7DEB7ECE00C94E92A283008F002
:1051100027E03327DA01990F311D87FD9160009652
:105120006105710539F432602E5F3D9330E32A95B5
:10513000E1F708959F3F30F080387105610509F06F
:105140003C5F3C5F3D93913008F08068911DDF9398
:10515000CF931F930F93FF92EF92192F987F9695FD
:10516000E92F96959695E90FFF27E350FF4F992772
:105170003327EE24FF24A701E70105900894079444
:1051800028F4360FE71EF81E491F511D660F771FC2
:10519000881F991F0694A1F70590079428F4E70E3D
:1051A000F81E491F561FC11D770F881F991F661FC4
:1051B0000694A1F70590079428F4F80E491F561F8E
:1051C000C71FD11D880F991F661F771F0694A1F76F
:1051D0000590079420F4490F561FC71FD81F990F39
:1051E000661F771F881F0694A9F784911095177082
:1051F00041F0D695C79557954795F794E7941A953A
:10520000C1F7E3EAF0E06894159015913591659146
:10521000959105907FE27395E118F10A430B560BC7
:10522000C90BD009C0F7E10CF11E431F561FC91F5F
:10523000D01D7EF4703311F48A95E6CFE8940150C6
:1052400030F0080F0AF40027021708F4202F2395E6
:10525000022F7A3328F079E37D932A95E9F710C07D
:105260007D932A9589F606949795679537951795B6
:105270001794E118F10A430B560BC90BD00998F0AB
:1052800023957E9173957A3308F070E37C93201315
:10529000B8F77E9170617D9330F0839571E37D93D3
:1052A00070E32A95E1F71124EF90FF900F911F9181
:1052B000CF91DF91992787FD9095089591110C94D6
:1052C000522A803219F089508550C8F70895FB01A1
:1052D000DC014150504088F08D9181341CF08B35B9
:1052E0000CF4805E659161341CF06B350CF4605EEB
:1052F000861B611171F3990B0895881BFCCF0E94E6
:10530000C12908F481E00895E89409C097FB3EF4B0
:1053100090958095709561957F4F8F4F9F4F992302
:10532000A9F0F92F96E9BB279395F6958795779580
:105330006795B795F111F8CFFAF4BB0F11F460FF40
:105340001BC06F5F7F4F8F4F9F4F16C0882311F098
:1053500096E911C0772321F09EE8872F762F05C0AC
:10536000662371F096E8862F70E060E02AF09A9547
:10537000660F771F881FDAF7880F9695879597F93C
:105380000895990F0008550FAA0BE0E8FEEF1616D6
:105390001706E807F907C0F012161306E407F50729
:1053A00098F0621B730B840B950B39F40A2661F09D
:1053B000232B242B252B21F408950A2609F4A14040
:1053C000A6958FEF811D811D08950E94F8290C94E8
:1053D0006C2A0E945E2A38F00E94652A20F09523EC
:1053E00011F00C94552A0C945B2A11240C94A02AD9
:1053F0000E947D2A70F3959FC1F3950F50E0551FD1
:10540000629FF001729FBB27F00DB11D639FAA2719
:10541000F00DB11DAA1F649F6627B00DA11D661F68
:10542000829F2227B00DA11D621F739FB00DA11D89
:10543000621F839FA00D611D221F749F3327A00D43
:10544000611D231F849F600D211D822F762F6A2FDF
:1054500011249F5750409AF0F1F088234AF0EE0F44
:10546000FF1FBB1F661F771F881F91505040A9F771
:105470009E3F510580F00C94552A0C94A02A5F3F62
:10548000E4F3983ED4F3869577956795B795F795AD
:10549000E7959F5FC1F7FE2B880F911D9695879525
:1054A00097F9089599278827089597F99F6780E8C5
:1054B00070E060E008959FEF80EC089500240A9466
:1054C0001616170618060906089500240A941216DF
:1054D0001306140605060895092E0394000C11F412
:1054E000882352F0BB0F40F4BF2B11F460FF04C0BF
:1054F0006F5F7F4F8F4F9F4F089557FD9058440F18
:10550000551F59F05F3F71F04795880F97FB991F22
:1055100061F09F3F79F087950895121613061406DF
:10552000551FF2CF4695F1DF08C01616170618066C
:10553000991FF1CF86957105610508940895E89447
:10554000BB2766277727CB0197F90895F999FECFF6
:1055500092BD81BDF89A992780B50895262FF999B3
:10556000FECF1FBA92BD81BD20BD0FB6F894FA9A46
:10557000F99A0FBE019608950E94202BA59F900DC9
:10558000B49F900DA49F800D911D112408952F921A
:105590003F924F925F926F927F928F929F92AF92C3
:1055A000BF92CF92DF92EF92FF920F931F93CF9310
:1055B000DF93CDB7DEB7CA1BDB0B0FB6F894DEBFA7
:1055C0000FBECDBF09942A88398848885F846E84CD
:1055D0007D848C849B84AA84B984C884DF80EE8017
:1055E000FD800C811B81AA81B981CE0FD11D0FB620
:1055F000F894DEBF0FBECDBFED010895A1E21A2ED3
:10560000AA1BBB1BFD010DC0AA1FBB1FEE1FFF1F66
:10561000A217B307E407F50720F0A21BB30BE40BB6
:10562000F50B661F771F881F991F1A9469F76095FD
:105630007095809590959B01AC01BD01CF010895B7
:10564000A29FB001B39FC001A39F700D811D1124C3
:10565000911DB29F700D811D1124911D0895505808
:10566000BB27AA270E94472B0C946C2A0E945E2A13
:1056700038F00E94652A20F039F49F3F19F426F48F
:105680000C945B2A0EF4E095E7FB0C94552AE92F65
:105690000E947D2A58F3BA1762077307840795079B
:1056A00020F079F4A6F50C949F2A0EF4E0950B2EC9
:1056B000BA2FA02D0B01B90190010C01CA01A00164
:1056C0001124FF27591B99F0593F50F4503E68F1BF
:1056D0001A16F040A22F232F342F4427585FF3CF00
:1056E000469537952795A795F0405395C9F77EF4D1
:1056F0001F16BA0B620B730B840BBAF09150A1F01A
:10570000FF0FBB1F661F771F881FC2F70EC0BA0F9F
:10571000621F731F841F48F4879577956795B79527
:10572000F7959E3F08F0B0CF9395880F08F0992722
:10573000EE0F9795879508950E94852A88F09F57C8
:1057400098F0B92F9927B751B0F0E1F0660F771FA5
:10575000881F991F1AF0BA95C9F714C0B13091F09B
:105760000E949F2AB1E008950C949F2A672F782FFA
:105770008827B85F39F0B93FCCF386957795679560
:10578000B395D9F73EF490958095709561957F4FCC
:105790008F4F9F4F08950E94C12908F48FEF0895FD
:1057A0000E94C129880B990B089597FB072E16F4C8
:1057B000009407D077FD09D00E94E92B07FC05D0A3
:1057C0003EF4909581959F4F0895709561957F4F18
:1057D0000895AA1BBB1B51E107C0AA1FBB1FA61738
:1057E000B70710F0A61BB70B881F991F5A95A9F78A
:1057F00080959095BC01CD010895EE0FFF1F059097
:10580000F491E02D09940F931F93CF93DF9382308F
:10581000910510F482E090E0E0917904F0917A042F
:1058200030E020E0B0E0A0E0309799F42115310598
:1058300009F44AC0281B390B24303105D8F58A8178
:105840009B816115710589F1FB0193838283FE01C0
:1058500011C0408151810281138148175907E0F03E
:105860004817590799F4109761F012960C93129704
:1058700013961C933296CF01DF91CF911F910F9118
:1058800008950093790410937A04F4CF211531051B
:1058900051F04217530738F0A901DB019A01BD010D
:1058A000DF01F801C1CFEF01F9CF90937A04809323
:1058B0007904CDCFFE01E20FF31F81939193225023
:1058C000310939832883D7CF209177043091780428
:1058D000232B41F420910E0130910F013093780475
:1058E0002093770420910C0130910D012115310591
:1058F00041F42DB73EB74091100150911101241B86
:10590000350BE0917704F0917804E217F307A0F4E7
:105910002E1B3F0B2817390778F0AC014E5F5F4F05
:105920002417350748F04E0F5F1F509378044093BB
:105930007704819391939FCFF0E0E0E09CCFCF93E9
:10594000DF930097E9F0FC01329713821282A09155
:105950007904B0917A04ED0130E020E01097A1F4D1
:1059600020813181820F931F209177043091780438
:105970002817390709F061C0F0937804E0937704A1
:10598000DF91CF910895EA01CE17DF07E8F54A814C
:105990005B819E0141155105B1F7E901FB83EA8363
:1059A00049915991C40FD51FEC17FD0761F480810F
:1059B00091810296840F951FE901998388838281E2
:1059C00093819B838A83F0E0E0E012968D919C9115
:1059D00013970097B9F52D913C911197CD0102963F
:1059E000820F931F2091770430917804281739078C
:1059F00039F6309751F510927A0410927904B093E9
:105A00007804A0937704BCCFD383C28340815181B3
:105A1000840F951FC817D90761F44E5F5F4F8881C7
:105A20009981480F591F518340838A819B819383B9
:105A300082832115310509F0B0CFF0937A04E09309
:105A400079049ECFFD01DC01C0CF13821282D7CF33
:105A5000B0E0A0E0EEE2FDE20C94C92A8C010097D0
:105A600051F4CB010E94032C8C01C801CDB7DEB7E5
:105A7000E0E10C94E52AFC01E60FF71F9C0122509F
:105A80003109E217F30708F49DC0D901CD91DC91EB
:105A90001197C617D70798F0C530D10530F3CE015E
:105AA00004978617970708F3C61BD70B2297C19355
:105AB000D1936D937C93CF010E949F2CD6CF5B0135
:105AC000AC1ABD0A4C018C0E9D1EA0917904B091B8
:105AD0007A04512C412CF12CE12C109731F5809156
