:100000000C94C5040C94ED040C94ED040C94ED04D4
:100010000C94ED040C94ED040C94ED040C94ED049C
:100020000C94ED040C94ED040C94ED040C94ED048C
:100030000C94ED040C94ED040C94ED040C94ED047C
:100040000C9429180C94ED040C94F7170C94D11708
:100050000C94ED040C94ED040C94ED040C94ED045C
:100060000C94ED040C94ED044E414E494E49545904
:10007000494E46CDCCCC3D0AD7233C17B7D1387773
:10008000CC2B329595E6241FB14F0A000020410089
:1000900000C84200401C4620BCBE4CCA1B0E5AAED3
:1000A000C59D74005EBCE2613FDD83C29C7E20A3DF
:1000B000FD1F419DC3217FFCA2401E5F01E3BD3EA9
:1000C0006082DC237D9FC1421CFEA0E1BF5D0380F6
:1000D000DE3C62BEE0025CDF81633D7C22C09E1D8F
:1000E00043A1FF4618FAA427799BC584DA3866E550
:1000F000BB5907DB856739BAE406581947A5FB7871
:1001000026C49A653BD987045AB8E6A7F91B45C6A9
:10011000987A24F8A6441A99C7257B3A6486D85B56
:1001200005E7B98CD2306EEDB3510F4E10F2AC2F03
:100130007193CD114FADF3702ECC92D38D6F31B240
:10014000EC0E50AFF1134DCE90722C6D33D18F0C5D
:1001500052B0EE326C8ED0530DEFB1F0AE4C129126
:10016000CF2D73CA947628ABF517490856B4EA69BF
:1001700037D58B5709EBB536688AD495CB2977F4F8
:10018000AA4816E9B7550B88D6346A2B7597C94A21
:1001900014F6A8742AC896154BA9F7B6E80A54D7DE
:1001A000896B3500000000250028002B00000000AE
:1001B0000800020100000304070000000000000026
:1001C000003C2F68746D6C3E003C2F626F64793E7A
:1001D000003C623E507265736D65726F76616E6948
:1001E000652E2E2E2050726F73696D2063616B61D6
:1001F0006A74653C2F623E3C2F63656E7465723E87
:10020000003C63656E7465723E3C68333E536572B4
:10021000766572207072696A616C20646174612015
:100220007A20666F726D756CC3A172613A3C2F685B
:10023000333E003C626F64793E003C2F6865616428
:100240003E003C7469746C653E4854545020776598
:1002500062736572766572202D2041726475696ED5
:100260006F202B2045746865726E65743C2F74692D
:10027000746C653E003C6D65746120687474702D0B
:1002800065717569763D27526566726573682720CA
:10029000636F6E74656E743D27353B2075726C3DDF
:1002A0002F27202F3E003C6D6574612063686172CA
:1002B0007365743D277574662D38273E003C68656C
:1002C00061643E003C68746D6C3E003C21444F43C9
:1002D000545950452068746D6C3E00436F6E7465D0
:1002E0006E742D547970653A20746578742F687433
:1002F0006D6C00485454502F312E31203230302054
:100300004F4B003C626F64793E003C2F686561642E
:100310003E003C7469746C653E48545450207765C7
:1003200062736572766572202D2041726475696E04
:100330006F202B2045746865726E65743C2F74695C
:10034000746C653E003C6C696E6B2072656C3D2779
:100350007374796C65736865657427206872656667
:100360003D2768747470733A2F2F6D617863646EE3
:100370002E626F6F74737472617063646E2E636F3C
:100380006D2F626F6F7473747261702F332E342E01
:10039000312F6373732F626F6F7473747261702E79
:1003A0006D696E2E637373273E003C6D657461202A
:1003B0006E616D653D2776696577706F7274272071
:1003C000636F6E74656E743D2777696474683D640D
:1003D00065766963652D77696474682C20696E6938
:1003E0007469616C2D7363616C653D31273E003C1F
:1003F0006D65746120636861727365743D277574FF
:10040000662D38273E003C686561643E003C687498
:100410006D6C3E003C21444F435459504520687454
:100420006D6C3E00436F6E74656E742D547970650B
:100430003A20746578742F68746D6C004854545079
:100440002F312E3120323030204F4B003C2F68743A
:100450006D6C3E003C2F626F64793E003C2F6365FB
:100460006E7465723E003C68343E5665727A69610E
:1004700020667265652D312E302E30206275696CD4
:10048000642031302E204A756C20323032303C2FBF
:1004900068343E003C68333E4175746F723A204DBB
:1004A000617274696E2043686C65626F7665632063
:1004B0002D206D617274696E697573393640676D90
:1004C00061696C2E636F6D202D2068747470733AAF
:1004D0002F2F61726475696E6F2E706870352E7380
:1004E0006B3C2F68333E0020C2B04300416B7475F3
:1004F000C3A16C6E61207465706C6F74612073654C
:100500006E7A6F726120445331384232303A2000A3
:100510003C6469762069643D22636F756E74646F14
:10052000776E223E3C2F6469763E003C623E3C661C
:100530006F6E7420636F6C6F723D27726564273E27
:1005400056C3BD737475703A205679706E7574C356
:10055000BD3C2F666F6E743E3C2F623E003C623E97
:100560003C666F6E7420636F6C6F723D27677265B7
:10057000656E273E56C3BD737475703A205A61701C
:100580006E7574C3BD3C2F666F6E743E3C2F623E29
:10059000003C2F666F726D3E3C68723E003C696E97
:1005A00070757420747970653D277375626D697418
:1005B0002720636C6173733D2762746E2062746ED2
:1005C0002D73756363657373272076616C75653D64
:1005D000275A6170C3AD7361C5A5273E003C666FA5
:1005E000726D20616374696F6E3D272F616374695A
:1005F0006F6E2E68746D6C27206D6574686F643D36
:1006000027676574273E003C63656E7465723E3CE7
:1006100068333E5A6164616A74652064C3A1746181
:1006200020707265207465726D6F73746174202818
:10063000627564C3BA20756C6FC5BE656EC3A920B0
:10064000646F20454550524F4D293A3C2F68333E48
:10065000003C626F64793E003C2F686561643E0037
:100660003C7469746C653E485454502077656273DD
:100670006572766572202D2041726475696E6F20F7
:100680002B2045746865726E65743C2F7469746CB8
:10069000653E003C2F7363726970743E007D2C20B0
:1006A00031303030293B0074696D656C65667420AB
:1006B0002D3D20313B007D00646F63756D656E7468
:1006C0002E676574456C656D656E74427949642862
:1006D00022636F756E74646F776E22292E696E6E59
:1006E000657248544D4C203D2074696D656C65669B
:1006F00074202B20222073656BC3BA6E6420646F54
:10070000207265C5A17461727475223B007D2065FD
:100710006C7365207B00646F63756D656E742E6706
:100720006574456C656D656E744279496428226311
:100730006F756E74646F776E22292E696E6E6572A6
:1007400048544D4C203D20225265C5A174617274FD
:100750002E2E2E223B00636C656172496E746572A9
:1007600076616C28646F776E6C6F616454696D6537
:1007700072293B0069662874696D656C6566742032
:100780003C3D2030297B0076617220646F776E6C6F
:100790006F616454696D6572203D20736574496EA4
:1007A00074657276616C2866756E6374696F6E2805
:1007B000297B007661722074696D656C65667420B2
:1007C0003D2031303B003C73637269707420747952
:1007D00070653D27746578742F6A61766173637202
:1007E000697074273E003C6C696E6B2072656C3DCD
:1007F000277374796C657368656574272068726502
:10080000663D2768747470733A2F2F6D6178636446
:100810006E2E626F6F74737472617063646E2E6398
:100820006F6D2F626F6F7473747261702F332E341B
:100830002E312F6373732F626F6F747374726170D4
:100840002E6D696E2E637373273E003C6D65746177
:10085000206E616D653D2776696577706F727427CC
:1008600020636F6E74656E743D2777696474683DAC
:100870006465766963652D77696474682C20696E98
:10088000697469616C2D7363616C653D31273E004D
:100890003C6D65746120687474702D65717569763E
:1008A0003D27526566726573682720636F6E7465B5
:1008B0006E743D273130273B202F3E003C6D657420
:1008C00061206E616D653D27617574686F722720C8
:1008D000636F6E74656E743D274D617274696E202E
:1008E00043686C65626F766563273E003C6D657496
:1008F0006120636861727365743D277574662D3875
:10090000273E003C686561643E003C68746D6C3E47
:10091000003C21444F43545950452068746D6C3E4F
:1009200000436F6E74656E742D547970653A20744F
:100930006578742F68746D6C00485454502F312EB4
:100940003120323030204F4B0000000000240027BF
:10095000002A0000000000230026002900040404EF
:100960000404040404020202020202030303030358
:100970000301020408102040800102040810200135
:100980000204081020007318BB2011241FBECFEFF3
:10099000D8E0DEBFCDBF13E0A0E0B1E0ECE1FEE4C3
:1009A00002C005900D92AE32B107D9F724E0AEE255
:1009B000B3E001C01D92A536B207E1F714E0C4EC24
:1009C000D4E004C02197FE010E94DE24C33CD1077D
:1009D000C9F70E944E190C9401270C940000089549
:1009E000089521E0FC018485883009F420E0822FFD
:1009F0000895AF92BF92CF92DF92EF92FF920F9342
:100A00001F93CF93DF936C017B018B01040F151FA4
:100A1000EB015E01AE18BF08C017D10759F069910C
:100A2000D601ED91FC910190F081E02DC601099570
:100A3000892B79F7C501DF91CF911F910F91FF901D
:100A4000EF90DF90CF90BF90AF900895FC01538D51
:100A5000448D252F30E0842F90E0821B930B541798
:100A600010F0CF96089501970895FC01918D828D25
:100A7000981761F0A28DAE0FBF2FB11D5D968C91BE
:100A8000928D9F5F9F73928F90E008958FEF9FEFFD
:100A90000895FC01918D828D981731F0828DE80FB9
:100AA000F11D858D90E008958FEF9FEF0895FC0173
:100AB000918D228D892F90E0805C9F4F821B910940
:100AC0008F739927089584E593E00E94570521E0EC
:100AD000892B09F420E0822F089580E090E0892B93
:100AE00029F00E94630581110C9400000895FC0117
:100AF000A48DA80FB92FB11DA35ABF4F2C91848D7F
:100B000090E001968F739927848FA689B7892C93DB
:100B1000A089B1898C91837080648C93938D848D2E
:100B2000981306C00288F389E02D80818F7D808331
:100B30000895EF92FF920F931F93CF93DF93EC01F1
:100B400081E0888F9B8D8C8D98131AC0E889F98974
:100B5000808185FF15C09FB7F894EE89FF89608377
:100B6000E889F98980818370806480839FBF81E0F8
:100B700090E0DF91CF911F910F91FF90EF9008953A
:100B8000F62E0B8D10E00F5F1F4F0F731127E02E15
:100B90008C8D8E110CC00FB607FCFACFE889F9894D
:100BA000808185FFF5CFCE010E947705F1CFEB8DD7
:100BB000EC0FFD2FF11DE35AFF4FF0829FB7F89421
:100BC0000B8FEA89FB8980818062CFCFCF93DF933F
:100BD000EC01888D8823B9F0AA89BB89E889F98955
:100BE0008C9185FD03C0808186FD0DC00FB607FC8A
:100BF000F7CF8C9185FFF2CF808185FFEDCFCE01BD
:100C00000E947705E9CFDF91CF91089590E0FC0134
:100C1000E355FE4F2491FC01EF58F64F3491FC014F
:100C2000E35AF64FE491EE23C9F0222339F0233042
:100C300001F1A8F4213019F1223029F1F0E0EE0F92
:100C4000FF1FED55FE4FA591B4918FB7F894EC912D
:100C5000611126C030953E233C938FBF0895273005
:100C6000A9F02830C9F0243049F7809180008F7DA9
:100C700003C0809180008F7780938000DFCF84B5A0
:100C80008F7784BDDBCF84B58F7DFBCF8091B000A3
:100C90008F778093B000D2CF8091B0008F7DF9CF55
:100CA0003E2BDACFCF93DF9390E0FC01EF58F64F65
:100CB0002491835A964FFC0184918823D1F090E0CF
:100CC000880F991FFC01E75BF64FA591B491FC01D9
:100CD000ED55FE4FC591D49161110EC09FB7F894A8
:100CE0008C91E22FE0958E238C932881E223E88378
:100CF0009FBFDF91CF9108958FB7F894EC91E22BCD
:100D0000EC938FBFF6CF3FB7F89480913403909166
:100D10003503A0913603B091370326B5A89B05C0D3
:100D20002F3F19F00196A11DB11D3FBFBA2FA92F6A
:100D3000982F8827BC01CD01620F711D811D911D67
:100D400042E0660F771F881F991F4A95D1F70895D3
:100D50008F929F92AF92BF92CF92DF92EF92FF92CB
:100D60006B017C010E9483064B015C01C114D1041C
:100D7000E104F104B9F00E948306681979098A092F
:100D80009B09683E73408105910580F321E0C21AFA
:100D9000D108E108F10888EE880E83E0981EA11CB6
:100DA000B11CE4CFFF90EF90DF90CF90BF90AF9059
:100DB0009F908F9008952FB7F894609130037091B1
:100DC000310380913203909133032FBF0895DC01EA
:100DD00080E0615038F0ED91E827F0E0ED55FF4FED
:100DE0008491F7CF0895DC012C911196ED91FC913F
:100DF000F8948181822B81839281322F30959323C5
:100E0000928387E090E00197F1F7818183238183CA
:100E100083E290E00197F1F790817894EFECF0E0B5
:100E20003197F1F7922381E009F480E00895FC0105
:100E300090810180F281E02D292F209560FF14C060
:100E4000F8948281822382838181892B8183A3E22A
:100E5000B0E01197F1F78281982B9283789487ED17
:100E600090E00197F1F70895F894828182238283BC
:100E70008181892B8183AFEFB0E01197F1F78281F7
:100E8000982B928378948FE090E0EBCFDF92EF92F3
:100E9000FF920F931F93CF93DF93EC01D62EE42E96
:100EA00008E010E0FF24F39461E08D2D8F2109F418
:100EB00060E0CE010E941707FF0C01501109A1F755
:100EC000E11010C0F894E981FA81918188818095C0
:100ED00089238183E981FA819281888180958923A0
:100EE00082837894DF91CF911F910F91FF90EF90C3
:100EF000DF900895EF92FF920F931F93CF93DF93AC
:100F00008C017B0140E065E50E944607E70188E02F
:100F1000E80EF11C699140E0C8010E944607CE1519
:100F2000DF05C1F7DF91CF911F910F91FF90EF90F7
:100F30000895FC0190810180F281E02DF894818177
:100F4000292F20958223818378943DE743E050E068
:100F5000315029F1DA011197F1F780818923C1F32A
:100F6000F8948281822382838181892B8183789482
:100F7000ABE7B7E01197F1F7F89481818223818381
:100F8000A3E1B1E01197F1F78081982381E009F0A6
:100F900080E07894E3E6F6E03197F1F7089580E099
:100FA0000895AF92BF92CF92DF92EF92FF920F938C
:100FB0001F93CF93DF938B01BC0180913B049091F1
:100FC0003C040E947A0740E06EEB80913B049091D4
:100FD0003C040E944607E801680189E0C80ED11C64
:100FE000A0903B04B0903C0488E0E82EF12C10E087
:100FF00001E0C5010E94F3068111102B000F81E072
:10100000E81AF108B1F71993CC16DD0649F780917B
:101010003B0490913C040E94990791E0813009F0D3
:1010200090E0892FDF91CF911F910F91FF90EF906A
:10103000DF90CF90BF90AF9008950F931F93CF9301
:10104000DF93CDB7DEB729970FB6F894DEBF0FBE9A
:10105000CDBF8C0180913B0490913C040E94990784
:10106000811102C080E01FC0BE016F5F7F4FC801C9
:101070000E94D1078823B1F368E0CE0101960E9457
:10108000E70699858913EECF8D818F33B9F020F46F
:101090008F3141F789E007C08F3521F08F3711F785
:1010A0008CE001C08BE029960FB6F894DEBF0FBE2E
:1010B000CDBFDF91CF911F910F9108958AE0F3CFBB
:1010C00061E0809151030C94060660E08091510329
:1010D0000C94060608958EBD00000DB407FEFDCFEA
:1010E0008EB508958CBD9DBD0895DF92EF92FF925D
:1010F0000F931F93CF93DF93D82FD92EC62F7A014A
:1011000089018091F1039091F2030E9472080E947C
:1011100065088D2D0E946B088D2F0E946B088C2F07
:101120000E946B08E701E00EF11E80E00E946B0850
:101130008993EC16FD06C9F70E946008C801DF918B
:10114000CF911F910F91FF90EF90DF900895CF9373
:10115000DF93D82FC62F8091F1039091F2030E9464
:1011600072080E94650880E00E946B088D2F0E9423
:101170006B088C2F0E946B0880E00E946B08C82FC0
:101180000E9460088C2FDF91CF910895DF92EF923B
:10119000FF920F931F93CF93DF93D82FD92EC62F93
:1011A0007A0189018091F1039091F2030E94720803
:1011B0000E9465088D2D0E946B088D2F0E946B0880
:1011C0008C2F0E946B08E701E00EF11ECE15DF05A3
:1011D00021F089910E946B08F9CF0E946008C80134
:1011E000DF91CF911F910F91FF90EF90DF900895C5
:1011F0001F93CF93DF93182FD62FC42F8091F10325
:101200009091F2030E9472080E94650880E00E949B
:101210006B08812F0E946B088D2F0E946B088C2F0A
:101220000E946B080E94600881E0DF91CF911F91BE
:101230000895CF92DF92EF92FF920F931F93CF9377
:10124000DF93CDB7DEB7C254D1090FB6F894DEBF35
:101250000FBECDBFFC0182819381A481B58123960D
:101260008CAF9DAFAEAFBFAF239721E023962FAFDA
:10127000239723964CAD5DAD6EAD7FAD23974BAB01
:101280005CAB6DAB7EAB89AF9AAFABAFBCAF8DA79C
:101290009EA7AFA7B8AB28AB4DA55EA56FA578A953
:1012A0004FA358A769A77AA72EAB4BA95CA96DA934
:1012B0007EA949A35AA36BA37CA38B8F9C8FAD8F70
:1012C000BE8F4EE851E05C8B4B8B3FEF3D8B3E8BEE
:1012D0003F8B188E5E874D872AA7CFA0D8A4E9A49C
:1012E000FAA4CF86D88AE98AFA8A2CA309A11AA17E
:1012F0002BA13CA109871A872B873C875A834983F6
:101300008B839C83AD83BE8310911704109351038C
:1013100068EE73E080E090E00E94A80661E0812F13
:101320000E9452061FB7F89480915003811127C084
:10133000E7E6F9E08491EBE7F9E09491E82FF0E03B
:10134000EE0FFF1FE75BF64FA591B491EC91E923F7
:1013500021F461E08AE00E94060661E08AE00E94D2
:1013600052068CB580618CBD8CB580648CBD61E00B
:101370008DE00E94520661E08BE00E94520680914F
:1013800050038F5F809350031FBF60E090E080E0C8
:101390000E94A708482F406864E090E080E00E9427
:1013A000F8081CE088E0E82EF12C42E0612F8EE185
:1013B00090E00E94F80842E0612F8FE190E00E94E7
:1013C000F808F1E0EF1AF108105EE114F10469F792
:1013D00026E030E046E051E064E089E090E00E94E1
:1013E000C60824E030E0AE014D5F5F4F64E08FE05F
:1013F00090E00E94C60824E030E0AE01415F5F4FFC
:1014000064E081E090E00E94C60824E030E0AE0194
:101410004B5E5F4F64E085E090E00E94C60881E08B
:101420008C8789859A85AB85BC8580930D049093C4
:101430000E04A0930F04B0931004CE5BDF4F0FB6E1
:10144000F894DEBF0FBECDBFDF91CF911F910F91FA
:10145000FF90EF90DF90CF9008959B018295880FC9
:10146000807E6CE0680FC9010C94F808CF93DF937D
:10147000EC01898D9A8D892B41F0E881F9810284F4
:10148000F385E02DCE010995F4CFDF91CF9108953A
:10149000CF93DF931F92CDB7DEB76983DC01ED9167
:1014A000FC910280F381E02D41E050E0BE016F5FCE
:1014B0007F4F09950F90DF91CF9108951F93CF93A0
:1014C000DF93FB01DC0158961C921E9257972281F4
:1014D000211109C02381211106C02481211103C0DB
:1014E0002581222339F14115510521F1EA01DC0161
:1014F0001C961C91AF014E5F5F4F612F6295660F86
:10150000607E645F24E030E08CE090E00E94C608DA
:101510004D2F60E170E0812F0E942D0A4C2F61E178
:1015200070E0812F0E942D0A81E090E0DF91CF9141
:101530001F91089590E080E0F9CFFC01818D928D9C
:101540000895FC018589968908952EE831E0FC0113
:1015500031832083FB014189528963897489FC01AD
:101560004283538364837583089580E00895CF9305
:10157000DF931F92CDB7DEB76983DC01ED91FC915B
:101580000280F381E02D41E050E0BE016F5F7F4FAC
:1015900009950F90DF91CF9108950895FC019485EE
:1015A000FB018485981303C081E0983009F480E042
:1015B0000895CF93DF931F92CDB7DEB76983DC0127
:1015C000ED91FC910280F381E02D41E050E0BE01FD
:1015D0006F5F7F4F09950F90DF91CF910895EF9244
:1015E000FF920F931F93CF93DF938C017B01D0E089
:1015F000C0E0F701EC0FFD1F6491662339F0C801CC
:101600000E94D90A892B11F02196F3CFCE01DF91E8
:10161000CF911F910F91FF90EF900895DC01ED9114
:10162000FC91028CF38DE02D099591E089270895B6
:101630009B018295880F807E68E0680FC9010C9439
:10164000A708CF93C82F462F61E070E00E942D0AB3
:1016500061E070E08C2F0E94180B8111F9CFCF91BF
:101660000895CF93C82F60E170E00E94210B4FEFE7
:1016700062E070E08C2FCF910C942D0A0F931F9392
:10168000CF93DF93C82FD62F8A010E94310B4D2FA5
:1016900070E060E08C2F0E942D0A01151105B9F051
:1016A000412F64E070E08C2F0E942D0A402F65E0EE
:1016B00070E08C2F0E942D0A61E070E08C2F0E9458
:1016C000210B81E0DF91CF911F910F91089500913F
:1016D0005203109153030F5F1F4F10935303009356
:1016E0005203DECFCF93DF93EC018C85883061F01D
:1016F0000E94310BEC85F0E0EE0FFF1FE85CFC4F21
:101700001182108288E08C87DF91CF910895BF927B
:10171000CF92DF92EF92FF920F931F93CF93DF93BD
:10172000B82E6B017A01890164E270E00E94180B07
:10173000C82F65E270E08B2D0E94180BD0E0DC2FE3
:10174000CC278C0D9D2D911DC80FD91F6B2D629537
:10175000660F607E6C5E9801A701CE010E94C608EC
:10176000C00FD11F4D2F64E270E08B2D0E942D0A17
:101770004C2F65E270E08B2DDF91CF911F910F917F
:10178000FF90EF90DF90CF90BF900C942D0ACF92F6
:10179000DF92EF92FF920F931F93CF93DF93D82E98
:1017A0007B018A01C22E68E270E00E94180BC82FEC
:1017B000D0E0DC2FCC2769E270E08D2D0E94180B61
:1017C000C80FD11D6D2D6295660F607E685E980111
:1017D000A701CE010E947508C11016C0C00FD11F0D
:1017E0004D2F68E270E08D2D0E942D0A4C2F69E28A
:1017F00070E08D2DDF91CF911F910F91FF90EF90B1
:10180000DF90CF900C942D0ADF91CF911F910F9113
:10181000FF90EF90DF90CF9008950F931F93CF9399
:10182000DF931F92CDB7DEB78C01DC01ED91FC9107
:101830000084F185E02D0995892B91F021E041E0AC
:1018400050E0BE016F5F7F4FF80184850E94C70B97
:10185000898190E00F90DF91CF911F910F910895B2
:101860008FEF9FEFF7CFCF93DF931F92CDB7DEB708
:10187000FC01218D328D8FEF9FEF232B59F021E05A
:1018800041E050E0BE016F5F7F4F84850E94C70B2F
:10189000898190E00F90DF91CF9108951F93CF93AE
:1018A000DF93182F66E270E00E94180BC82FD0E07B
:1018B000DC2FCC2767E270E0812F0E94180B8C0F81
:1018C0009D2F911DDF91CF911F910895FF920F934E
:1018D0001F93CF93DF93F82E10E000E08F2D0E942E
:1018E0004E0CEC01892B21F08F2D0E944E0C8C01A7
:1018F000C017D10799F7CE01DF91CF911F910F91BA
:10190000FF900895FC018485883011F00C94660CDA
:1019100090E080E008951F93CF93DF93182F60E24B
:1019200070E00E94180BC82FD0E0DC2FCC2761E2BA
:1019300070E0812F0E94180B8C0F9D2F911DDF915D
:10194000CF911F910895FF920F931F93CF93DF9331
:10195000F82E10E000E08F2D0E948B0CEC01892BFB
:1019600021F08F2D0E948B0C8C01C017D10799F7A5
:10197000CE01DF91CF911F910F91FF900895AF920B
:10198000BF92CF92DF92FF920F931F93CF93DF937B
:101990008C015B01EA01FC01C788D08CF4848F2D97
:1019A0000E94A30C8C179D0720F48F2D0E94A30C7E
:1019B000EC019E01A501B6018F2D0E94870BF80155
:1019C0008789908D8C0F9D1F908F878BCE01DF9123
:1019D000CF911F910F91FF90DF90CF90BF90AF906C
:1019E0000895FC018485883021F063E070E00C9458
:1019F000180B80E00895CF93DF93FC0124852830F5
:101A0000D9F0EC010E94F10C843189F0882379F03F
:101A1000883169F021E08C3159F4E881F981008442
:101A2000F185E02DCE01099521E0892B09F420E014
:101A3000822FDF91CF91089580E0FBCFCF92DF928C
:101A4000EF92FF92CF93DF93EC018C85883089F180
:101A500068E070E00E94210B0E94DB066B017C01B4
:101A6000CE010E94F10C882391F00E94DB066C19D4
:101A70007D098E099F09683E73408105910538F400
:101A800061E070E080E090E00E94A806E9CFCE011E
:101A90000E94F10C882319F08C850E94310BEC8593
:101AA000F0E0EE0FFF1FE85CFC4F1182108288E02F
:101AB0008C87DF91CF91FF90EF90DF90CF900895CA
:101AC0004F925F926F927F928F929F92AF92BF924E
:101AD000CF92DF92EF92FF921F93CF93DF93CDB718
:101AE000DEB72D970FB6F894DEBF0FBECDBF7C01D9
:101AF00098E3A92E93E0B92E10E0D12CC12C28EE4A
:101B0000422E23E0522E612C712C3EE3832E31E0D5
:101B1000932E1C821B824D825E826F8278869A820F
:101B200089821D87D5012D913D915D01F701848149
:101B3000958128173907B1F4CE0101960E94F10C66
:101B4000843199F1CE0101960E94F10C8C3151F44F
:101B5000CE0101960E94820C892B21F4CE010196C0
:101B60000E941E0D1F5F1830A1F6CD2841F4D70149
:101B7000ED91FC910084F185E02DC70109952D962A
:101B80000FB6F894DEBF0FBECDBFDF91CF911F918E
:101B9000FF90EF90DF90CF90BF90AF909F908F908D
:101BA0007F906F905F904F900895CC24C394D12C78
:101BB000D9CFCF92DF92EF92FF921F93CF93DF9313
:101BC000182F6B017A010E94660CEC010097D9F482
:101BD00063E070E0812F0E94180B843159F0882354
:101BE00049F0C1E0D0E08C3111F4D0E0C0E0D195F3
:101BF000C195D109CE01DF91CF911F91FF90EF9058
:101C0000DF90CF900895E816F9060CF4E7011C1652
:101C10001D0684F720E0AE01B601812F0E94C70B9C
:101C200060E470E0812F0E94210BE4CFCF93DF931B
:101C3000FC01218D328D2115310529F48FEF9FEFA5
:101C4000DF91CF910895EC0184854217530708F086
:101C5000A9010E94D90D1816190684F7298D3A8D0D
:101C6000281B390B3A8F298FEBCF0F931F93CF93FC
:101C7000DF931F92CDB7DEB7FC01218D328D232B70
:101C800041F48FEF9FEF0F90DF91CF911F910F9154
:101C900008958C0141E050E0BE016F5F7F4FFC0171
:101CA00084850E94D90D181619065CF7F801818DFC
:101CB000928D0197928F818F898190E0E4CFFC0112
:101CC00084850C94D90DCF93DF931F92CDB7DEB7E7
:101CD00041E050E0BE016F5F7F4FFC0184850E94B0
:101CE000D90D1816190634F4898190E00F90DF9110
:101CF000CF9108958FEF9FEFF9CF0F931F93CF935D
:101D0000DF93EC010E94DB06688779878A879B87CF
:101D1000CE010E94630E97FF15C00E94DB06088566
:101D200019852A853B85601B710B820B930B0C81F7
:101D30001D812E813F81601771078207930740F351
:101D40008FEF9FEFDF91CF911F910F910895CF9368
:101D5000FC01C48560E270E08C2F0E94210B62E0E0
:101D600070E08C2F0E94180B84FD11C062E070E0BF
:101D70008C2F0E94180B83FFF2CF48E162E070E0E5
:101D80008C2F0E942D0A90E080E0CF91089540E1D1
:101D900062E070E08C2F0E942D0A81E090E0F5CF88
:101DA000EF92FF921F93CF93DF93FC01248528309D
:101DB00039F080E0DF91CF911F91FF90EF9008956F
:101DC0007B01EC0110E063E070E0812F0E94180BB2
:101DD00081110EC01C878C85883059F3FE86ED86F4
:101DE0001A8E198EA70162E00E943E0B81E0E2CFBD
:101DF000883181F31F5F183031F7EDCF8F929F92BA
:101E0000AF92BF92CF92DF92EF92FF920F931F9308
:101E1000CF93DF93CDB7DEB72D970FB6F894DEBF23
:101E20000FBECDBF7C0110E000E038EE832E33E022
:101E3000932EA12CB12C4EE3C42E41E0D42E1C8253
:101E40001B828D829E82AF82B886DA82C9820D871C
:101E5000CE0101960E94F10C811130C0F70144813E
:101E6000558161E0802F0E943E0B63E070E0802F7F
:101E70000E94180B833129F462E070E0802F0E94E9
:101E8000210BF70184819581000F111FF801E85C97
:101E9000FC4F918380832D960FB6F894DEBF0FBE62
:101EA000CDBFDF91CF911F910F91FF90EF90DF9009
:101EB000CF90BF90AF909F908F9008950F5F1F4F6E
:101EC0000830110509F0BBCFE6CF8F929F92AF92F9
:101ED000BF92CF92DF92EF92FF920F931F93CF9317
:101EE0006C015B017A01FC01C485C830A1F481E07A
:101EF00090E0F60193838283F12CE12CC701CF910E
:101F00001F910F91FF90EF90DF90CF90BF90AF9017
:101F10009F908F9008958A014130584010F000E062
:101F200018E08C2F0E94A30C4C0163E070E08C2F12
:101F30000E94180B873111F08C3109F5801691063B
:101F400080F39801A50170E060E08C2F0E94870B60
:101F500060E270E08C2F0E94210B62E070E08C2F19
:101F60000E94180B84FD0EC063E070E08C2F0E946D
:101F7000180B8111F2CF8C2F0E94310BB8CF10E0DB
:101F800000E0DFCF40E162E070E08C2F0E942D0A7C
:101F9000012B09F0B3CFABCF3F924F925F926F927C
:101FA0007F928F929F92AF92BF92CF92DF92EF92E9
:101FB000FF920F931F93CF93DF93CDB7DEB72D978B
:101FC0000FB6F894DEBF0FBECDBF6C015B014A01B6
:101FD0000E94600D88E3E82E83E0F82E312C10E09B
:101FE00000E098EE492E93E0592E612C712C1C8252
:101FF0001B824D825E826F8278868EE391E09A83A7
:1020000089833D86F701219131917F01F601848119
:1020100095812817390771F4CE0101960E94F10CC1
:10202000873141F4A401B501CE0101960E94650FEC
:10203000080F191F3394F8E03F12D9CFC8012D962D
:102040000FB6F894DEBF0FBECDBFDF91CF911F91C9
:102050000F91FF90EF90DF90CF90BF90AF909F9047
:102060008F907F906F905F904F903F900895DF9298
:10207000EF92FF920F931F93CF93DF93FC01248580
:10208000283051F090E080E0DF91CF911F910F91C7
:10209000FF90EF90DF9008957A01EB018C01D12C35
:1020A00063E070E08D2D0E94180B811128C0F801AB
:1020B000D486F8018485883029F32091000130917D
:1020C00001012F5F3F4F19F130930101209300016F
:1020D000409100015091010161E00E943E0B8A8114
:1020E0008F3FC1F48B818F3F01F58C818F3FE9F4E5
:1020F0008D818F3FD1F488E0F8018487C3CF8B7F37
:102100008831A9F2D394F8E0DF12CACFD2CF20E011
:1021100034E0DACF811109C08B81811106C08C8136
:10212000811103C08D81882331F3E114F10419F387
:10213000F801D484AE014E5F5F4F6D2D6295660F3E
:10214000607E645F24E030E08CE090E00E94C6088E
:102150004F2D60E170E08D2D0E942D0A4E2D61E122
:1021600070E08D2D0E942D0A64E070E08D2D0E949C
:10217000210BC8010E94F10C873161F061E070E031
:1021800080E090E00E94A806C8010E94F10C811135
:10219000F0CFB1CF81E090E077CF90E080E008957C
:1021A000DC01ED91FC91048CF58DE02D099480917A
:1021B0003B0490913C040E94990740E06CEC8091B4
:1021C0003B0490913C040E9446074091360464E42D
:1021D00080913B0490913C040E9446078091380412
:1021E0008823A1F0E0913704E9506EEE72E0E3300D
:1021F00038F4F0E0EE0FFF1FEC59FE4F6081718163
:10220000072E000C880B990B0C94A8060895BF921A
:10221000CF92DF92EF92FF920F931F93CF93DF93B2
:10222000EC01B62EC72EED84E11004C00E94990780
:1022300081110EC01B861D861C8680E0DF91CF9128
:102240001F910F91FF90EF90DF90CF90BF90089576
:1022500040E060EFCE010E944607D12C01E011E082
:10226000CE010E94F306F82ECE010E94F30691E003
:10227000F91218C0813099F51134E0F2EB86E110C3
:1022800002C081E08D878B818823A1F22396EB2DFC
:10229000FC2DCF01089629912193E817F907D9F76A
:1022A00081E0CCCFED2DF0E0F8120FC08B85181730
:1022B000A0F4DE01AE0FBF1F13968C91802379F43A
:1022C000F12C193008F41C87E12EEC0FFD1F8381DF
:1022D000902F9095892383830AC08113F1CFFE014B
:1022E000ED0DF11D8381802B8383FF24F3946F2DEB
:1022F000CE010E9417071F5F000F11F4D39401E075
:1023000087E08D1508F0ACCFB7CFFB01019000201E
:10231000E9F73197AF01461B570BDC01ED91FC91BA
:102320000280F381E02D09948F929F92AF92BF9229
:10233000EF92FF920F931F93CF93DF93CDB7DEB74A
:10234000A1970FB6F894DEBF0FBECDBF7C01FA0196
:10235000CB0119A2223008F42AE08E010F5D1F4F35
:10236000822E912CB12CA12CBF01A50194010E94B9
:10237000DF23F901CA016A300CF5605DD8016E9364
:102380008D01232B242B252B79F790E080E01097EB
:1023900021F0BD01C7010E948511A1960FB6F894E6
:1023A000DEBF0FBECDBFDF91CF911F910F91FF9088
:1023B000EF90BF90AF909F908F900895695CDECFB3
:1023C0008F929F92AF92BF92CF92DF92EF92FF9245
:1023D0000F931F93CF93DF937C01EB016C0182E09D
:1023E000C80ED11C4701E5E08E0E911C10E000E004
:1023F000F60141916F0150E070E060E02AE0CE010B
:102400000E9494115C01E881F9810190F081E02D36
:102410006EE2CE0109958A0D9B1D080F191FC81485
:10242000D90431F7F701458150E070E060E02AE01F
:10243000CE010E949411800F911FDF91CF911F91C7
:102440000F91FF90EF90DF90CF90BF90AF909F9053
:102450008F90089560E971E00C9485110F931F939C
:10246000CF93DF938C01D0E0C0E06115710519F0C6
:102470000E948511EC01C8010E942A128C0F9D1F39
:10248000DF91CF911F910F9108950F931F93CF93D9
:10249000DF93EC01FB0144815581608171810E94D1
:1024A000650F8C01CE010E942A12800F911FDF91CF
:1024B000CF911F910F9108950F931F93CF93DF93A7
:1024C000EC010E94EF0A8C01CE010E942A12800FBB
:1024D000911FDF91CF911F910F9108950F931F933B
:1024E000CF93DF93CDB7DEB728970FB6F894DEBF52
:1024F0000FBECDBF8C01DC01ED91FC910680F78110
:10250000E02D0995F80184850E94660C892BB1F1B4
:1025100048E050E0BE016F5F7F4FD8011C968C9160
:102520000E94D90D18161906F4F4D801519684E0CA
:10253000FE01319601900D928A95E1F78D8190E030
:10254000982F88272E81820F911DF801968B858BFD
:102550008F81282F30E0322F22278885820F932FFA
:10256000911D928F818F28960FB6F894DEBF0FBE13
:10257000CDBFDF91CF911F910F91089590E080E042
:10258000F2CF4F925F926F927F928F929F92AF9213
:10259000BF92CF92DF92EF92FF920F931F93CF9350
:1025A000DF93CDB7DEB763970FB6F894DEBF0FBEEB
:1025B000CDBF7C016B013A01FB01DB018D918111E3
:1025C000FDCF30E020E090E080E05AE041914423EC
:1025D00001F1843091050CF042C04E3269F42F3F76
:1025E000310509F0E4F5D301A80FB91F12962C9319
:1025F000019630E020E0EACF529FB001539F700D6A
:102600001124242F440F330B20533109260F371F79
:10261000DDCF2F3F310509F014F584309105FCF42E
:10262000680E791EF3012283CC24C394D12CC601F9
:1026300063960FB6F894DEBF0FBECDBFDF91CF918A
:102640001F910F91FF90EF90DF90CF90BF90AF90D0
:102650009F908F907F906F905F904F900895F701BB
:10266000428153816481758180912004909121047D
:10267000A0912204B0912304481759076A077B07E9
:1026800009F400C28701085F1F4F0E94DB066F70CC
:1026900077277C5FC8010E94D00E813009F0F7C116
:1026A0008EE891E09A838983F70182819381A481E6
:1026B000B5818B839C83AD83BE8345E350E0BE012F
:1026C0006F5F7F4FC8010E945E0A892B31F4D12CC5
:1026D000C12CC8010E94720BAACF0E94DB06F70131
:1026E0007783668342E050E0B7016A5F7F4FC8019D
:1026F0000E94BF0C81E090E09A83898342E050E021
:10270000BE016F5F7F4FC8010E94BF0C80E091E067
:102710009A83898342E050E0BE016F5F7F4FC8011A
:102720000E94BF0C1A82198242E050E0BE016F5F26
:102730007F4FC8010E94BF0C42E050E0BE016F5FB6
:102740007F4FC8010E94BF0C42E050E0BE016F5FA6
:102750007F4FC8010E94BF0C5601F601808188237B
:1027600001F16501F60181912F01882311F08E326C
:10277000B1F446018A189B081814190474F48D8664
:1027800041E050E0BE01635F7F4FC8010E94BF0C73
:10279000A401B501C8010E94BF0C5201DECF620145
:1027A000E1CF1D8641E050E0BE01635F7F4FC8016D
:1027B0000E94BF0CC12CDD24D394DA82C98242E08E
:1027C00050E0BE016F5F7F4FC8010E94BF0CDA82EC
:1027D000C98242E050E0BE016F5F7F4FC8010E9496
:1027E000BF0CC8010E94A70E892B09F470CFF3E03B
:1027F000AF2EB12C230122E0420E511C43C0F70141
:102800004281538164817581818D928DA38DB48DB8
:10281000481759076A077B0709F02AC1858D968DED
:10282000C59709F025C181A192A10C970CF425C18F
:102830004CE050E0BE016F5F7F4FC8010E94160E52
:102840008B819C819827892798279A8B898BF70100
:102850004681578129813A814217530711F497FD28
:102860002FC0C8010E94360AECEFCE2EDD24DA9488
:1028700081E0A81AB10809F42CCFFFEFCF16DF06CC
:1028800009F027CF0E94DB063B014C01C8010E94E2
:102890006E12181619060CF4B2CF0E94DB066619E8
:1028A000770988099909693873418105910508F00C
:1028B000DBC062E370E080E090E00E94A806E6CF13
:1028C0008F709270892B41F0C8010E94360A7BEF0D
:1028D000C72EDD24DA94CCCF6F80788476246724E9
:1028E0007624D12CC12C61147104D1F4C8010E944A
:1028F000360A6AEFC62EDD24DA94BACF8D858111AF
:1029000017C0C8010E94350EC8010E94350EC801CB
:102910000E94350EC8010E94350EFFEFCF1ADF0A64
:102920008D819E81982789279827C816D906A8F4F3
:1029300041E050E0BE01635F7F4FC8010E94160E68
:102940008D858823D9F28D859FEF980F9D878823E9
:10295000A9F2C8010E94350EF6CF912C812C41E0DE
:1029600050E0BE016D5E7F4FC8010E94160E8B893C
:10297000982F907C61F4882389F08B899FEF980FC2
:102980009B8B882341F0C8010E94350EF6CFC80109
:102990000E94350E1B8A8B898111E1CF42E050E005
:1029A000BE01615F7F4FC8010E94160E42E050E0F9
:1029B000BE01635F7F4FC8010E94160EC8010E94CE
:1029C000350EC8010E94350EC8010E94350EC8019F
:1029D0000E94350E42E050E0BE016F5E7F4FC8019D
:1029E0000E94160E8F85988981159140E9F4CD8457
:1029F000DE84DC24CD24DC2481E0C816D104A1F4DB
:102A000089899A898115944041F0C8010E94360A4B
:102A100057EFC52EDD24DA942BCF44E050E0B2010D
:102A2000C8010E94160E24CFD12CC12C89899A8905
:102A3000982789279827C816D90638F4C8010E9414
:102A4000350EFFEFCF1ADF0AF1CF2FEF821A920A6D
:102A50006814790409F083CFC8010E94360A46EF52
:102A6000C42EDD24DA9404CFCC24CA94DC2C00CF0D
:102A70002EEFC22EDD24DA94FBCE9DEFC92EDD248D
:102A8000DA94F6CE8EEFC82EDD24DA94D0CDD12C98
:102A9000C12CCDCDCF92DF92EF92FF920F931F9377
:102AA000CF93DF93CDB7DEB7AF970FB6F894DEBF05
:102AB0000FBECDBF7C016A010EE811E01A830983C5
:102AC0001C861B8688EE93E0A0E0B0E08D879E8791
:102AD000AF87B88B86E191E09A87898788E08D8BF4
:102AE000198F088F1A8E1B8E1C8E1D8E1BA70AA78E
:102AF0001CA61DA61EA61FA680910D0490910E0473
:102B0000A0910F04B09110048EA39FA3A8A7B9A70A
:102B10008B839C83AD83BE8318861F82AE01465D86
:102B20005F4FCE0101960E94C11281309105B1F430
:102B3000D701ED91FC910488F589E02D1DA30CA32C
:102B40008CA59DA5AEA5BFA58EA39FA3A8A7B9A739
:102B5000A601BE016C5D7F4FC7010995AF960FB608
:102B6000F894DEBF0FBECDBFDF91CF911F910F91C3
:102B7000FF90EF90DF90CF900895CF92DF92EF9289
:102B8000FF920F931F93CF93DF93CDB7DEB7AF972D
:102B90000FB6F894DEBF0FBECDBF7C016A010EE810
:102BA00011E01A8309831C861B8688EE93E0A0E05F
:102BB000B0E08D879E87AF87B88B86E191E09A87DA
:102BC000898788E08D8B198F088F1A8E1B8E1C8E3B
:102BD0001D8E1BA70AA71CA61DA61EA61FA68091B8
:102BE0000D0490910E04A0910F04B09110048EA3D7
:102BF0009FA3A8A7B9A78B839C83AD83BE831886A8
:102C00001F82AE01465D5F4FCE0101960E94C11248
:102C100081309105B1F4D701ED91FC910684F785DF
:102C2000E02D1DA30CA38CA59DA5AEA5BFA58EA3CD
:102C30009FA3A8A7B9A7A601BE016C5D7F4FC701DE
:102C40000995AF960FB6F894DEBF0FBECDBFDF91EA
:102C5000CF911F910F91FF90EF90DF90CF9008954B
:102C60000E94C626FC0124813581232B31F421E00A
:102C7000FB01672B49F4822F0895808191816115B2
:102C8000710539F421E0FC0180818823A1F320E063
:102C9000F2CF0E94D42621E0892B69F3F8CF0F935D
:102CA0001F93CF93DF93EC0188819981009759F0AE
:102CB0002A813B812617370730F081E0DF91CF91E1
:102CC0001F910F9108958B016F5F7F4F0E9409261E
:102CD000009759F0998388831B830A832C813D8157
:102CE000232B59F7FC011082E8CF80E0E7CFEF9269
:102CF000FF920F931F93CF93DF936115710541F4FA
:102D000080E0DF91CF911F910F91FF90EF90089598
:102D100041155105B1F07B01EC010C811D81040FBF
:102D2000151FB8010E944F16882351F3288139815D
:102D30008C819D81B701820F931F0E94DD261D8328
:102D40000C8381E0DECFCF93DF93EC018881998102
:102D5000009711F00E948025198218821D821C8222
:102D60001B821A82DF91CF910895EF92FF920F9309
:102D70001F93CF93DF93EC01198218821B821A8272
:102D80001D821C826115710521F18B01FB010190EF
:102D90000020E9F731977F01E61AF70AB7010E9490
:102DA0004F16811109C0CE01DF91CF911F910F9174
:102DB000FF90EF900C94A316FD82EC82B8018881FD
:102DC0009981DF91CF911F910F91FF90EF900C941B
:102DD000DD26DF91CF911F910F91FF90EF90089525
:102DE0000F931F93CF93DF938C01EC010990002088
:102DF000E9F72197C81BD90BBE018AE294E00E9433
:102E00004F16811108C08AE294E0DF91CF911F91A3
:102E10000F910C94A316D0932F04C0932E04B801E5
:102E200080912A0490912B04DF91CF911F910F91F3
:102E30000C94DD26CF93DF93EC01FB010190002081
:102E4000E9F73197AF01461B570B0E9477168111A6
:102E500003C0CE010E94A316CE01DF91CF91089549
:102E6000CF93DF93EC01FB01448155816081718137
:102E70000E947716811103C0CE010E94A316CE01D5
:102E8000DF91CF910895FC0180819181009711F02D
:102E90000C9480250895AF92BF92CF92DF92EF926B
:102EA000FF920F931F93CF93DF93CDB7DEB7C45636
:102EB000D1090FB6F894DEBF0FBECDBF6C01062F4F
:102EC000660F110BC8010E9487239E012F5F3F4FA1
:102ED00079015901021B130BF501EE19FF09882333
:102EE00049F0C8018A0D9B1D0E948723F50181933B
:102EF0005F01F2CFEE0DFF1D1082B701C6010E94E7
:102F0000B516C601CC59DF4F0FB6F894DEBF0FBE21
:102F1000CDBFDF91CF911F910F91FF90EF90DF9088
:102F2000CF90BF90AF900895CF92DF92EF92FF9233
:102F30000F931F93CF93DF937B01DB011496CD900A
:102F4000DC90D0E0C0E0082F880F110BCC15DD0518
:102F5000D4F4F70184819581C817D90728F401902A
:102F6000F081E02D309761F410922E03EEE2F3E051
:102F70006081C8018C0F9D1F0E948F232196E6CF90
:102F8000EC0FFD1FF5CF60E0C8018C0D9D1DDF919A
:102F9000CF911F910F91FF90EF90DF90CF900C9405
:102FA0008F231F920F920FB60F9211242F933F93EE
:102FB0004F935F936F937F938F939F93AF93BF9341
:102FC000EF93FF9384E593E00E947705FF91EF91E3
:102FD000BF91AF919F918F917F916F915F914F9131
:102FE0003F912F910F900FBE0F901F9018951F9239
:102FF0000F920FB60F9211242F938F939F93EF93FD
:10300000FF93E0916403F09165038081E0916A038E
:10301000F0916B0382FD1BC0908180916D038F5FE7
:103020008F7320916E03821741F0E0916D03F0E001
:10303000EC5AFC4F958F80936D03FF91EF919F9118
:103040008F912F910F900FBE0F901F901895808138
:10305000F4CF1F920F920FB60F9211242F933F932C
:103060008F939F93AF93BF938091300390913103DF
:10307000A0913203B091330330912F0323E0230F4B
:103080002D3758F50196A11DB11D20932F03809374
:10309000300390933103A0933203B09333038091B4
:1030A000340390913503A0913603B0913703019614
:1030B000A11DB11D8093340390933503A093360373
:1030C000B0933703BF91AF919F918F913F912F9113
:1030D0000F900FBE0F901F90189526E8230F0296B1
:1030E000A11DB11DD2CFCF93E4E5F3E0138212828C
:1030F00088EE93E0A0E0B0E084839583A683B78355
:103100008EE691E09183808385EC90E095878487BB
:1031100084EC90E09787868780EC90E0918B808BA1
:1031200081EC90E0938B828B82EC90E0958B848B8A
:1031300086EC90E0978B868B118E128E138E148EF8
:10314000E1EFF3E080E58083C1E0C183E3EFF3E0EA
:103150008EE891E09183808312821382148215821B
:10316000E9EFF3E091838083128213821482158247
:10317000EFEFF3E091838083128213821482158231
:10318000E5E0F4E091838083128213821482158239
:10319000E8E1F4E091838083128213821482158225
:1031A000EBE0F4E091838083128213821482158213
:1031B000138612862AE02487EEE1F4E0918380836F
:1031C0001282138214821582E4E2F4E091838083F8
:1031D0001282138214821582E7E5F4E091838083E2
:1031E000128213821482158260E085E00E945206EA
:1031F000E6E7F9E0E491A9E4B4E0EC93E2E6F9E073
:10320000E491F0E0EE0FFF1FED5AF64F8591949197
:1032100012969C938E9311971B961C921B971D964A
:103220001C921D971C961C921C971A961C921A971A
:1032300019961C92199718961C92189717961C921B
:10324000179716961C92169715961C92159714961A
:103250001C92149713961C921397E6E3F4E08FEEFA
:1032600094E0928B818BB683A5831482108289E0CF
:103270008183C283C383E0E3F4E01382128280E897
:1032800091E09183808380E590E09583848362E977
:1032900071E08AE294E0CF910C94B516CF93DF935E
:1032A000CDB7DEB7AC970FB6F894DEBF0FBECDBF7B
:1032B000789484B5826084BD84B5816084BD85B511
:1032C000826085BD85B5816085BD80916E0081601D
:1032D00080936E00109281008091810082608093C3
:1032E00081008091810081608093810080918000C5
:1032F0008160809380008091B10084608093B100F0
:103300008091B00081608093B00080917A008460E9
:1033100080937A0080917A00826080937A00809115
:103320007A00816080937A0080917A00806880932F
:103330007A001092C1006AE0CE014B960E944B17B2
:1033400064E6CE010E960E944B1762E971E0CE0151
:103350004B960E943216811108C070E060E0CE01E9
:103360004B960E943216882381F064E971E0CE0109
:1033700001960E94B516BE016F5F7F4F8AE00E94E2
:103380009417CE0101960E94431762E971E0CE01C5
:103390000E960E943216811108C070E060E0CE01E6
:1033A0000E960E943216882381F063E971E0CE0107
:1033B00001960E94B516BE016F5F7F4F84E60E94A2
:1033C0009417CE0101960E944317E0913B04F091BF
:1033D0003C04138615861486128611861086178281
:1033E000168215821482138210923A0401E0BE0103
:1033F0006F5F7F4F80913B0490913C040E940711C6
:10340000882309F454C067E0CE0101960E94E706C4
:1034100098858913ECCF80913604811128C0809162
:103420003B0490913C040E949907BE016F5F7F4F5F
:1034300080913B0490913C040E947A0740E064EB49
:1034400080913B0490913C040E94460780913B048C
:1034500090913C040E94F306182F80913B049091B8
:103460003C040E949907111102C000933604109188
:1034700037048981803109F47AC6CE0101960E9411
:103480001D08811750F48091370480933704809190
:103490003A048F5F80933A04AACF8981803111F476
:1034A0008CE0F3CFCE0101960E941D08EECF61E0C3
:1034B00086E00E94520661E086E00E940606E091E6
:1034C0006403F091650382E08083E0916003F091F2
:1034D00061031082E0916203F091630380E18083D5
:1034E00010926C03E0916803F091690386E0808399
:1034F000E0916603F0916703808180618083E091B1
:103500006603F0916703808188608083E0916603A1
:10351000F0916703808180688083E0916603F09179
:10352000670380818F7D80830E94D71060ED77E0F4
:1035300080E090E00E94A8060EE811E01A8309835B
:103540008091020190910301A0910401B0910501C5
:103550008B839C83AD83BE83CE0101960E941909A3
:1035600080E394E00E94FE0E69E971E084E593E057
:103570000E942E126FE971E084E593E00E942E1202
:103580001A8309831B821C821D821E8224E030E084
:10359000AE014D5F5F4F60E08FE090E00E947508E4
:1035A00064E573E0CE0101960E94E01184E593E0AA
:1035B0000E942A12CE010E960E944317CE014B960E
:1035C0000E944317F8EE8F2EF3E09F2EA12CB12C12
:1035D0000EE311E00E94DB06C0904C03D0904D0337
:1035E000E0904E03F0904F036C197D098E099F09FE
:1035F000603177428105910528F4CD28CE28CF2867
:1036000009F07DC00E94DB0660934C0370934D036C
:1036100080934E0390934F03E0913B04F0913C0460
:1036200013861586148612861186108617821682D6
:10363000158214821382BE01625F7F4F80913B042A
:1036400090913C040E9407118111CCC060E070E0B1
:103650008EEF92EC609348037093490380934A0382
:1036600090934B036AE0CE010E960E944B1764E6DE
:10367000CE0101960E944B178E859F85412C512CBF
:103680003201009721F00E94BF202B013C0189816B
:103690009A81C12CD12C7601009721F00E94BF2085
:1036A0006B017C01209148033091490340914A030A
:1036B00050914B03C301B2010E9410242B013C0125
:1036C000A70196010E94AC2418160CF0EBC066EB23
:1036D00071E084E593E00E942E128BEB91E00E9452
:1036E000F01660E086E00E9406060E94D710CE0128
:1036F00001960E944317CE010E960E94431780E365
:1037000094E00E94600D88E3E82E83E0F82ED12C2F
:103710001C821B828D829E82AF82B8861A830983A7
:10372000DD86F701219131917F01809134049091E0
:1037300035042817390709F0D2C0CE0101960E943E
:10374000F10C873109F0C4C0CE0101960E94820CB1
:10375000892B09F4C4C08B819C81998B888B8D81C6
:103760009E81AF81B8858A8B9B8BAC8BBD8B898505
:103770009A85AB85BC858E8B9F8BA88FB98F1F8751
:103780000E878D858A8F8A8D883009F4E3C4CE0137
:103790000E960E94FB0C882309F4DCC4CE010E9621
:1037A0000E94820C892B99F32DB63EB662E971E036
:1037B000CE0187960E94B516CE010E960E947D0E10
:1037C00097FD9BC08A30910509F497C089831A82BE
:1037D00041E050E0BE016F5F7F4FCE0187960E94AF
:1037E0007716EACF67E0CE010E960E94E7069D8924
:1037F00089132CCF80913B0490913C040E9499073F
:10380000882309F423CFBE016F5F7F4FCE010E9650
:103810000E94D107882309F419CF68E0CE010196F0
:103820000E94E7069985891311CF6A8170E0762F8F
:103830006627770F770F770F298148E0249F900143
:103840001124262B372B8E858031D1F4688570E0CA
:103850008F81FB01E81BF109CF019695982F8827EE
:10386000979587950E94B624CB014097B90153E004
:10387000660F771F5A95E1F760789C01260F371F76
:103880002138F4EE3F070CF4E1CEB901330F880B79
:10389000990B0E94672220E030E040E05CE30E9448
:1038A000C622D8CEC701B6019058A30192010E944A
:1038B000AC2418160CF019CF6FEB71E084E593E09F
:1038C0000E942E1284EC91E00E94F01661E00ACF73
:1038D000CE0101960E94F10C8C3109F435CFD394BE
:1038E000F8E0DF1215CF198A188A8A8A9B8AAC8A77
:1038F000BD8A1F870E87DA8E46CFEBA4FCA4C701D2
:1039000001962DB73EB7281B390B0FB6F8943EBF72
:103910000FBE2DBF4DB75EB74F5F5F4F6A01E11419
:10392000F10469F051E0E51AF1086FA178A5A7014B
:10393000C6010E94F226F601EE0DFF1D108262E61E
:1039400071E0C6010E94C32062E671E090E080E071
:103950000E94C3207C01BC01CE0101960E94B516D5
:103960006DEB72E0CE0101960E943216D82ECE0188
:1039700001960E944317DD2009F406C269E379E04D
:10398000CE010E960E945C1261E279E0CE010E96A5
:103990000E945C12CE010E960E942A1261E179E02B
:1039A000CE010E960E945C126AE079E0CE010E967E
:1039B0000E945C1263E079E0CE010E960E945C12D8
:1039C0006CEE78E0CE010E960E945C126CEB78E013
:1039D000CE010E960E945C1260E978E0CE010E9650
:1039E0000E945C126BE478E0CE010E960E945C129D
:1039F00066EE77E0CE010E960E945C1266EC77E0F0
:103A0000CE010E960E945C1263EB77E0CE010E961B
:103A10000E945C1267E877E0CE010E960E945C126D
:103A200064E777E0CE010E960E945C1266E577E0CF
:103A3000CE010E960E945C1266E177E0CE010E96F2
:103A40000E945C126DE077E0CE010E960E945C123F
:103A500068EB76E0CE010E960E945C1266EB76E093
:103A6000CE010E960E945C1267EA76E0CE010E96B9
:103A70000E945C126DE976E0CE010E960E945C1207
:103A800063E976E0CE010E960E945C1260E676E075
:103A9000CE010E960E945C1268E576E0CE010E968D
:103AA0000E945C1261E576E0CE010E960E945C12E7
:103AB00067E076E0CE010E960E945C126DED75E037
:103AC000CE010E960E945C126AE0CE0101960E9421
:103AD0004B1768EC71E0CE014B960E94B516BE0103
:103AE0006F5F7F4FCE014B960E94301769E372E003
:103AF0000E941A17BC01CE010E960E944512CE01FB
:103B00004B960E944317CE0101960E94431764E62C
:103B1000CE0101960E944B176FE372E0CE014B96E7
:103B20000E94B516BE016F5F7F4FCE014B960E947B
:103B3000301769E372E00E941A17BC01CE010E969D
:103B40000E944512CE014B960E944317CE0101966A
:103B50000E9443176DE975E0CE010E960E945C123B
:103B600061E975E0CE010E960E945C126BEB71E08C
:103B70008AE294E00E943216882331F06DE575E008
:103B8000CE010E960E945C1264EC71E08AE294E031
:103B90000E943216882331F06BE275E0CE010E965A
:103BA0000E945C1260E175E0CE010E960E945C12EC
:103BB0006CEE74E0CE010E960E94EF0AC0904803AE
:103BC000D0904903E0904A03F0904B03A70196017F
:103BD000C701B6010E94B12468EA72E081111AC0DF
:103BE00026013701E89477F82FEF3FEF4FE75FE7C3
:103BF000C301B2010E94B124811148C02FEF3FEFF1
:103C00004FE75FE7C301B2010E9460221816F4F586
:103C10006CEA72E0CE010E960E94851167EE74E0A8
:103C2000CE010E960E945C1264E974E0CE010E96FD
:103C30000E945C1266E674E0CE010E960E945C1251
:103C40006CE574E0CE010E960E945C1264E574E0AF
:103C5000CE010E960E945C126CE474E0CE010E96CA
:103C60000E945C1261E070E080E090E00E94A80693
:103C7000CE010E960E941E0DCE0187960E9443171C
:103C80000FB6F8943EBE0FBE2DBE81CD2FEF3FEF95
:103C90004FE75FE4C701B6010E94AC2418161CF47C
:103CA00060EB72E0B7CF2FEF3FEF4FE75FECC7015C
:103CB000B6010E94602287FDF3CF20E030E0A90129
:103CC000C701B6010E94602287FF09C06DE2CE01E4
:103CD0000E960E94D90AF7FAF094F7F8F0942AE0C9
:103CE00037ED43EA5BE3C701B6010E9411242B01C3
:103CF0003C010E947D246B017C010E9465229B0196
:103D0000AC01C301B2010E9410242B013C012AE046
:103D1000B701A601CE010E960E9494116EE2CE016B
:103D20000E960E94D90A20E030E040E251E4C3013F
:103D3000B2010E94C6222B013C010E947D246B012E
:103D4000F12CE12C2AE0B701A601CE010E960E94CB
:103D50009411C701B6010E9465229B01AC01C30109
:103D6000B2010E94102420E030E040E251E40E94C1
:103D7000C6220E947D24AB0170E060E02AE0CE0103
:103D80000E960E9494114ACFB701CE0101960E946F
:103D9000B51664EB72E0CE0101960E943216D82E61
:103DA000CE0101960E944317DD2009F499C06CE30F
:103DB00074E0CE010E960E945C1264E274E0CE01C3
:103DC0000E960E945C12CE010E960E942A1264E1A9
:103DD00074E0CE010E960E945C126DE074E0CE019C
:103DE0000E960E945C1266E074E0CE010E960E9470
:103DF0005C126FEE73E0CE010E960E945C126AEACE
:103E000073E0CE010E960E945C1265E473E0CE0171
:103E10000E960E945C1262E173E0CE010E960E9443
:103E20005C126AE073E0CE010E960E945C1263E0C1
:103E300073E0CE010E960E945C126AE0CE010196FC
:103E40000E944B176FEB72E0CE014B960E94B516A5
:103E5000BE016F5F7F4FCE014B960E94301764EC1E
:103E600072E00E941A17BC01CE010E960E94451204
:103E7000CE014B960E944317CE0101960E94431734
:103E800064E6CE0101960E944B176FEB72E0CE0103
:103E90004B960E94B516BE016F5F7F4FCE014B96C9
:103EA0000E94301764EC72E00E941A17BC01CE0128
:103EB0000E960E944512CE014B960E944317CE01EA
:103EC00001960E9443176AEC72E0CE010E960E94A2
:103ED0002E1262ED72E0CE010E960E942E12C2CE1C
:103EE000B701CE0101960E94B5166AED72E0CE01CF
:103EF00001960E943216D82ECE0101960E944317D9
:103F0000D110B6CEB701CE0181960E94B51667EEEC
:103F100072E0CE0101960E94B5164D815E818DA1A1
:103F20009EA18417950780F089A19AA1009761F05E
:103F300069817A816115710539F00E94E426DD24DA
:103F4000D394892B09F0D12CCE0101960E944317FE
:103F5000DD2009F4FAC060E671E0C7010E94C320C9
:103F6000BC0184E593E00E942E1260E671E090E0CF
:103F700080E00E94C3206EE571E00E94C3206C01C6
:103F80006EE571E090E080E00E94C3207C016CE56A
:103F900071E0C6010E94C3206CE571E090E080E012
:103FA0000E94C3206C016CE571E0C7010E94C32030
:103FB0006CE571E090E080E00E94C3207C01B601D6
:103FC000CE0101960E94B516BE016F5F7F4F8AE059
:103FD0000E949417CE0101960E944317B701CE01AB
:103FE00001960E94B516BE016F5F7F4F84E60E9466
:103FF0009417CE0101960E94431763EF72E0CE0141
:104000000E960E945C126BED72E0CE010E960E943D
:104010005C12CE010E960E942A126BEC72E0CE0169
:104020000E960E945C1264EC72E0CE010E960E9425
:104030005C126DEB72E0CE010E960E945C1266EA95
:1040400072E0CE010E960E945C1265E772E0CE012E
:104050000E960E945C1262E472E0CE010E960E94FF
:104060005C126AE372E0CE010E960E945C1263E37A
:1040700072E0CE010E960E945C1261E072E0CE0109
:104080000E960E945C12B601CE0101960E94B516F2
:1040900064EF72E0CE014B960E94B516BE016F5FD1
:1040A0007F4FCE014B960E94301764EC72E00E9465
:1040B0001A17BC01CE010E960E944512CE014B96F6
:1040C0000E944317CE0101960E944317B701CE010B
:1040D00001960E94B51666E173E0CE014B960E94F0
:1040E000B516BE016F5F7F4FCE014B960E94301711
:1040F00064EC72E00E941A17BC01CE010E960E9479
:104100004512CE014B960E944317CE0101960E94A4
:10411000431761ED71E0CE010E960E945C1269ECCE
:1041200071E0CE010E960E945C1261EC71E0CE014E
:104130000E960E945C1261E070E080E090E00E94C8
:10414000A806CE010E960E941E0DCE0181960E94F9
:10415000431792CD80E090E0892B09F43BCA0E947E
:104160006305882309F434CA0E94000031CA1D3057
:1041700008F089C995C98AE294E00C944317662730
:1041800077270C94EF204DE554E00E94C820089555
:10419000FA01A191B081009719F41097E1F0CD01D7
:1041A000DC01CD010D90002011F4C00113C0FB0112
:1041B0002191222319F02015D9F7F3CFFB0121918A
:1041C000201519F41E92119606C02223C1F70D90F6
:1041D0000020A1F7D001FA01A193B0830895B0E0C7
:1041E000A0E0E5EFF0E20C94AE235C017B016115E9
:1041F000710519F0DB018D939C9385010F5F1F4FB3
:10420000F501D0818D2F90E00E943F226C01892B17
:10421000B9F5DD32B9F50F5F1F4FD5011196DC916D
:10422000C1E05801F1E0AF1AB10843E050E060E7A7
:1042300070E0C5010E944822892B69F5680182E07F
:10424000C80ED11C45E050E06BE670E0C6010E944C
:104250004822892B21F4680197E0C90ED11CE11492
:10426000F10419F0D701CD92DC9260E070E080E8B3
:104270009FEFC111FFC060E070E080E89FE7FAC0E7
:104280005801BBCFDB3229F485010E5F1F4FF501CA
:10429000D181C0E0C6CF43E050E068E670E0C501E0
:1042A0000E944822892BE9F0F80110E000E020E0AC
:1042B00030E0A9015F01B0ED8B2E8D0E89E08815ED
:1042C000C8F19C2E689491F88C2F8870C2FF16C09C
:1042D000811102C00F5F1F4F3196D501DC91C92DAE
:1042E000E9CFE114F10429F00E5F1F4FF7011183AC
:1042F000008360E070E080EC9FE7BCC0882311F091
:1043000001501109A5E0B0E00E949D239B01AC0182
:10431000220F331F441F551F280D311D411D511DF4
:10432000283999E93907490799E15907A8F2C66080
:104330009C2ED2CFAEEF8A1206C0C3FD3CC09C2E8D
:10434000689493F8C9CFDF7DD534A9F580818D328B
:1043500039F4C061DF011296818162E070E006C02D
:10436000DF018B32C1F3119661E070E080535D0193
:10437000A61AB70A8A30F8F4E0E8CE16ECE0DE06BA
:104380005CF4B601660F771F660F771FC60ED71E47
:10439000CC0CDD1CC80ED11C5D01FFEFAF1ABF0AAB
:1043A0008C9180538A30A8F1C4FF03C0D194C1948A
:1043B000D1080C0D1D1DC1FF09C0E114F10431F03D
:1043C00081E0A81AB108D701AD92BC92CA01B90127
:1043D0000E946522C370C33009F490584B015C0100
:1043E00020E030E0A9010E946022882309F440C047
:1043F000CFE9D0E017FF05C0119501951109C7E875
:10440000D0E06E01B8E1CB1AD10880E2E82EF12CA1
:104410000FC0D501B1CFFE01259135914591549141
:104420000E191F09C501B4010E94C6224B015C018F
:10443000D501C4010E151F0574F72497F594E79470
:10444000CC16DD06A9F78A2F880F8B2F881F8F3F88
:1044500049F020E030E0A901C501B4010E946022CA
:10446000811106C082E290E09093600480935F0423
:10447000C501B401CDB7DEB7ECE00C94CA239111AD
:104480000C943323803219F089508550C8F7089571
:10449000FB01DC014150504088F08D9181341CF0CB
:1044A0008B350CF4805E659161341CF06B350CF437
:1044B000605E861B611171F3990B0895881BFCCF18
:1044C0000E94A22208F481E00895E89409C097FBB5
:1044D0003EF490958095709561957F4F8F4F9F4FDB
:1044E0009923A9F0F92F96E9BB279395F69587951F
:1044F00077956795B795F111F8CFFAF4BB0F11F4E2
:1045000060FF1BC06F5F7F4F8F4F9F4F16C0882388
:1045100011F096E911C0772321F09EE8872F762FBE
:1045200005C0662371F096E8862F70E060E02AF0FF
:104530009A95660F771F881FDAF7880F96958795EB
:1045400097F90895990F0008550FAA0BE0E8FEEFC0
:1045500016161706E807F907C0F012161306E40747
:10456000F50798F0621B730B840B950B39F40A2640
:1045700061F0232B242B252B21F408950A2609F41E
:10458000A140A6958FEF811D811D08950E94D9221B
:104590000C944D230E943F2338F00E94462320F0C4
:1045A000952311F00C9436230C943C2311240C9485
:1045B00081230E945E2370F3959FC1F3950F50E015
:1045C000551F629FF001729FBB27F00DB11D639FC5
:1045D000AA27F00DB11DAA1F649F6627B00DA11D6B
:1045E000661F829F2227B00DA11D621F739FB00D11
:1045F000A11D621F839FA00D611D221F749F332781
:10460000A00D611D231F849F600D211D822F762F19
:104610006A2F11249F5750409AF0F1F088234AF0F6
:10462000EE0FFF1FBB1F661F771F881F9150504062
:10463000A9F79E3F510580F00C9436230C948123FA
:104640005F3FE4F3983ED4F3869577956795B795E9
:10465000F795E7959F5FC1F7FE2B880F911D969503
:10466000879597F9089599278827089597F99F675F
:1046700080E870E060E008959FEF80EC08950024EA
:104680000A941616170618060906089500240A94B7
:1046900012161306140605060895092E0394000C3D
:1046A00011F4882352F0BB0F40F4BF2B11F460FFCC
:1046B00004C06F5F7F4F8F4F9F4F089557FD9058F5
:1046C000440F551F59F05F3F71F04795880F97FBD6
:1046D000991F61F09F3F79F0879508951216130690
:1046E0001406551FF2CF4695F1DF08C016161706BF
:1046F0001806991FF1CF86957105610508940895F4
:10470000E894BB2766277727CB0197F90895F99995
:10471000FECF92BD81BDF89A992780B50895262FC6
:10472000F999FECF1FBA92BD81BD20BD0FB6F89496
:10473000FA9AF99A0FBE019608950E940124A59F46
:10474000900DB49F900DA49F800D911D112408958C
:104750002F923F924F925F926F927F928F929F9291
:10476000AF92BF92CF92DF92EF92FF920F931F937F
:10477000CF93DF93CDB7DEB7CA1BDB0B0FB6F89430
:10478000DEBF0FBECDBF09942A88398848885F8470
:104790006E847D848C849B84AA84B984C884DF80E1
:1047A000EE80FD800C811B81AA81B981CE0FD11DC5
:1047B0000FB6F894DEBF0FBECDBFED010895A1E2A4
:1047C0001A2EAA1BBB1BFD010DC0AA1FBB1FEE1F8B
:1047D000FF1FA217B307E407F50720F0A21BB30BD6
:1047E000E40BF50B661F771F881F991F1A9469F752
:1047F00060957095809590959B01AC01BD01CF01AE
:104800000895A29FB001B39FC001A39F700D811DA9
:104810001124911DB29F700D811D1124911D0895C9
:104820005058BB27AA270E9428240C944D230E948D
:104830003F2338F00E94462320F039F49F3F19F4BB
:1048400026F40C943C230EF4E095E7FB0C943623FD
:10485000E92F0E945E2358F3BA1762077307840793
:10486000950720F079F4A6F50C9480230EF4E095DA
:104870000B2EBA2FA02D0B01B90190010C01CA011A
:10488000A0011124FF27591B99F0593F50F4503EC5
:1048900068F11A16F040A22F232F342F4427585FB7
:1048A000F3CF469537952795A795F0405395C9F7CF
:1048B0007EF41F16BA0B620B730B840BBAF0915087
:1048C000A1F0FF0FBB1F661F771F881FC2F70EC026
:1048D000BA0F621F731F841F48F4879577956795F9
:1048E000B795F7959E3F08F0B0CF9395880F08F0E5
:1048F0009927EE0F9795879508950E94662388F073
:104900009F5798F0B92F9927B751B0F0E1F0660F93
:10491000771F881F991F1AF0BA95C9F714C0B130D4
:1049200091F00E948023B1E008950C948023672FBA
:10493000782F8827B85F39F0B93FCCF38695779503
:104940006795B395D9F73EF49095809570956195EC
:104950007F4F8F4F9F4F08950E94A22208F48FEF40
:1049600008950E94A222880B990B089597FB072EA9
:1049700016F4009407D077FD09D00E94CA2407FCE2
:1049800005D03EF4909581959F4F0895709561955F
:104990007F4F0895AA1BBB1B51E107C0AA1FBB1F75
:1049A000A617B70710F0A61BB70B881F991F5A95BB
:1049B000A9F780959095BC01CD010895EE0FFF1FDA
:1049C0000590F491E02D09940F931F93CF93DF93FB
:1049D0008230910510F482E090E0E0916304F09160
:1049E000640430E020E0B0E0A0E0309799F42115B5
:1049F000310509F44AC0281B390B24303105D8F59C
:104A00008A819B816115710589F1FB019383828302
:104A1000FE0111C04081518102811381481759075D
:104A2000E0F04817590799F4109761F012960C932B
:104A3000129713961C933296CF01DF91CF911F915D
:104A40000F9108950093630410936404F4CF21152B
:104A5000310551F04217530738F0A901DB019A01E3
:104A6000BD01DF01F801C1CFEF01F9CF90936404DC
:104A700080936304CDCFFE01E20FF31F81939193E6
:104A80002250310939832883D7CF20916104309196
:104A90006204232B41F420910E0130910F013093D9
:104AA00062042093610420910C0130910D012115C5
:104AB000310541F42DB73EB74091100150911101DD
:104AC000241B350BE0916104F0916204E217F307B7
:104AD000A0F42E1B3F0B2817390778F0AC014E5F6E
:104AE0005F4F2417350748F04E0F5F1F5093620445
:104AF00040936104819391939FCFF0E0E0E09CCFDD
:104B0000CF93DF930097E9F0FC0132971382128272
:104B1000A0916304B0916404ED0130E020E01097AF
:104B2000A1F420813181820F931F20916104309183
:104B300062042817390709F061C0F0936204E0931A
:104B40006104DF91CF910895EA01CE17DF07E8F500
:104B50004A815B819E0141155105B1F7E901FB8353
:104B6000EA8349915991C40FD51FEC17FD0761F4F1
:104B7000808191810296840F951FE9019983888332
:104B8000828193819B838A83F0E0E0E012968D918D
:104B90009C9113970097B9F52D913C911197CD01F8
:104BA0000296820F931F20916104309162042817AE
:104BB000390739F6309751F5109264041092630466
:104BC000B0936204A0936104BCCFD383C2834081BD
:104BD0005181840F951FC817D90761F44E5F5F4F4D
:104BE00088819981480F591F518340838A819B8115
:104BF000938382832115310509F0B0CFF0936404CB
:104C0000E09363049ECFFD01DC01C0CF13821282CA
:104C1000D7CFB0E0A0E0EFE0F6E20C94AA238C013D
:104C2000009751F4CB010E94E4248C01C801CDB758
:104C3000DEB7E0E10C94C623FC01E60FF71F9C01F0
:104C400022503109E217F30708F49DC0D901CD9134
:104C5000DC911197C617D70798F0C530D10530F30E
:104C6000CE0104978617970708F3C61BD70B229728
:104C7000C193D1936D937C93CF010E948025D6CFB1
:104C80005B01AC1ABD0A4C018C0E9D1EA091630401
:104C9000B0916404512C412CF12CE12C109731F58A
:104CA00080916104909162048815990509F05CC0B7
:104CB0004616570608F058C080910C0190910D01DE
:104CC000009741F48DB79EB74091100150911101AA
:104CD000841B950BE817F90708F055C0F0936204A0
:104CE000E0936104F90171836083A0CF8D919C9161
:104CF000119712966C90129713967C901397A815A3
:104D0000B90559F56C0142E0C40ED11CCA14DB048C
:104D100020F1AC014A195B09DA011296159780F06F
:104D20006282738251834083D9016D937C93E11435
:104D3000F10471F0D7011396FC93EE93129776CF9E
:104D400022968C0F9D1FF90191838083F301EFCF91
:104D5000F0936404E093630469CF4816590608F49D
:104D60002C017D01D3019ACFCB010E94E4247C0168
:104D7000009749F0AE01B8010E94CB26C8010E94FD
:104D80008025870153CF10E000E050CF81E090E014
:104D9000F8940C940127FB01DC0102C001900D92F4
:104DA00041505040D8F70895FB01DC018D910190EE
:104DB00080190110D9F3990B0895FB01DC010190D2
:104DC0000D920020E1F70895FB01DC0141505040B5
:104DD00030F08D910190801919F40020B9F7881BEB
:104DE000990B0895FB01DC014150504048F00190BF
:104DF0000D920020C9F701C01D9241505040E0F7CC
:104E0000089514E0C4ECD4E004C0FE010E94DE2446
:0C4E10002196C53CD107C9F7F894FFCFEC
:104E1C000004C0A80401DEADBEEFFEED0000650489
:104E2C00800000000000480ABF0CCD10360A9D0A15
:104E3C00350E330CD00EB50A720B5E0A4A15A70E4E
:104E4C006E12160ED010A50AA10A00000000D90A95
:104E5C00650FCD10F004820C630E0D0C3710BD15D0
:104E6C005F0E1E0DFB0CF104CE0A0E0B3D0026004E
:104E7C003F0020005E00BC00770100000000990597
:104E8C00F9042605E605570535054905000000001F
:104E9C00B70ACC0FCD10CD0AFE0E00000000E011B9
:104EAC000D0A0032302E32350052656164790045AE
:104EBC00746865726E657420736869656C64206EC5
:104ECC00612049503A0052454C45205A41500052FD
:104EDC00454C4520565950003C623E526566657201
:104EEC00656EC48D6EC3A1207465706C6F74613A6D
:104EFC003C2F623E3C62723E3C696E70757420744D
:104F0C007970653D276E756D626572272069643D09
:104F1C0027666E616D6527206E616D653D27666E37
:104F2C00616D6527206D696E3D273527206D617891
:104F3C003D2735302720737465703D27302E323570
:104F4C00272076616C75653D003E3C62723E003CEC
:104F5C00623E487973746572C3A97A613A3C2F62D8
:104F6C003E3C62723E3C696E70757420747970655B
:104F7C003D276E756D626572272069643D27666EEC
:104F8C00616D653227206E616D653D27666E616DC2
:104F9C00653227206D696E3D273027206D61783D85
:104FAC002731302720737465703D27302E3235271A
:104FBC002076616C75653D006E616E00696E6600F1
:104FCC006F7666002F6765745F646174612F003CB7
:104FDC006C693E003C2F6C693E003C2F626F64791B
:104FEC003E003C2F68746D6C3E002F6661766963E1
:104FFC006F6E2E69636F002F616374696F6E2E681C
:10500C00746D6C003C6C693E3C623E526566657228
:10501C00656EC48D6EC3A1207465706C6F74613A3B
:10502C00203C2F623E003C6C693E3C623E487973EA
:0E503C00746572C3A97A613A203C2F623E006F
:00000001FF
