:100000000C9405050C942D050C942D050C942D05D0
:100010000C942D050C942D050C942D050C942D0598
:100020000C942D050C942D050C942D050C942D0588
:100030000C942D050C942D050C942D050C942D0578
:100040000C94891D0C942D050C94571D0C94311D96
:100050000C942D050C942D050C942D050C942D0558
:100060000C942D050C942D054E414E494E49545982
:10007000494E46CDCCCC3D0AD7233C17B7D1387773
:10008000CC2B329595E6241FB14F0A000020410089
:1000900000C84200401C4620BCBE4CCA1B0E5AAED3
:1000A000C59D7400407A10F35A00A0724E180900E2
:1000B00010A5D4E80000E87648170000E40B5402CD
:1000C0000000CA9A3B000000E1F505000080969808
:1000D00000000040420F000000A086010000001058
:1000E0002700000000E8030000000064000000009A
:1000F000000A00000000000100000000002C76D87B
:1001000088DC674F0823DFC1DFAE59E1B1B796E560
:10011000E3E453C63AE651997696E8E6C28426EBC4
:10012000898C9B62ED407C6FFCEFBC9C9F40F2BAD7
:10013000A56FA5F490055A2AF75C936B6CF9676D6F
:10014000C11BFCE0E40D47FEF520E6B500D0ED90C4
:100150002E0300943577050080841E080000204E91
:100160000A000000C80C333333330F986E1283112A
:1001700041EF8D2114893BE65516CFFEE6DB18D101
:10018000844B381BF77C1D901DA4BBE424203284D3
:10019000725E228100C9F124ECA1E53D27005EBC1E
:1001A000E2613FDD83C29C7E20A3FD1F419DC321F0
:1001B0007FFCA2401E5F01E3BD3E6082DC237D9F89
:1001C000C1421CFEA0E1BF5D0380DE3C62BEE002D6
:1001D0005CDF81633D7C22C09E1D43A1FF4618FA6F
:1001E000A427799BC584DA3866E5BB5907DB8567A8
:1001F00039BAE406581947A5FB7826C49A653BD955
:1002000087045AB8E6A7F91B45C6987A24F8A6448D
:100210001A99C7257B3A6486D85B05E7B98CD2303A
:100220006EEDB3510F4E10F2AC2F7193CD114FAD57
:10023000F3702ECC92D38D6F31B2EC0E50AFF11320
:100240004DCE90722C6D33D18F0C52B0EE326C8E3D
:10025000D0530DEFB1F0AE4C1291CF2D73CA9476FE
:1002600028ABF517490856B4EA6937D58B5709EB1F
:10027000B536688AD495CB2977F4AA4816E9B755DC
:100280000B88D6346A2B7597C94A14F6A8742AC805
:1002900096154BA9F7B6E80A54D7896B35000000CC
:1002A0000800020100000304070000000000000035
:1002B00000485454502F312E3120343034204E6FAA
:1002C0007420466F756E64003C2F68746D6C3E0040
:1002D0003C2F626F64793E003C623E507265736DE4
:1002E00065726F76616E69652E2E2E2050726F7367
:1002F000696D2063616B616A74653C2F623E3C2FBF
:1003000063656E7465723E003C63656E7465723E33
:100310003C68333E536572766572207072696A611B
:100320006C2064617461207A20666F726D756CC395
:10033000A172613A3C2F68333E003C626F64793EA3
:10034000003C2F686561643E003C7469746C653ED6
:100350004854545020776562736572766572202D1B
:100360002041726475696E6F202B20457468657238
:100370006E65743C2F7469746C653E003C6D6574E9
:100380006120687474702D65717569763D275265BA
:1003900066726573682720636F6E74656E743D279F
:1003A000353B2075726C3D2F27202F3E003C6D653C
:1003B000746120636861727365743D277574662D7E
:1003C00038273E003C686561643E003C68746D6C93
:1003D0003E003C21444F43545950452068746D6C95
:1003E0003E00436F6E74656E742D547970653A20CB
:1003F000746578742F68746D6C00485454502F31B4
:100400002E3120323030204F4B007D00224163746A
:1004100075616C5F54656D7065726174757265228B
:100420003A002C00225461726765745F54656D70E8
:1004300065726174757265223A002C0022487973E6
:1004400074657265736973223A007B00436F6E7442
:10045000656E742D547970653A206170706C6963B3
:100460006174696F6E2F6A736F6E00485454502F19
:10047000312E3120323030204F4B003C2F68746DCC
:100480006C3E003C2F626F64793E003C2F63656ECA
:100490007465723E003C68343E5665727A6961202C
:1004A00066726565202D20312E302E3220627569EE
:1004B0006C643A2030312E204F6374203230323059
:1004C0003C2F68343E003C68333E4175746F723A8D
:1004D000204D617274696E2043686C65626F766549
:1004E00063202D206D617274696E697573393640B1
:1004F000676D61696C2E636F6D202D206874747058
:10050000733A2F2F6D617274696E69757339362E67
:100510006769746875622E696F2F7465726D6F7389
:100520007461742D65746865726E65742F3C2F68F4
:10053000333E00730020006D00200068002000643E
:10054000003C623E557074696D653A203C2F623EF6
:10055000003C68723E0020C2B043003C623E416BEA
:100560007475C3A16C6E61207465706C6F746120CA
:1005700073656E7A6F726120445331384232303A7B
:100580003C2F623E20003C6469762069643D226312
:100590006F756E74646F776E223E3C2F6469763E91
:1005A000003C623E3C666F6E7420636F6C6F723D00
:1005B00027726564273E56C3BD737475703A205622
:1005C00079706E7574C3BD3C2F666F6E743E3C2FA0
:1005D000623E003C623E3C666F6E7420636F6C6FDF
:1005E000723D27677265656E273E56C3BD7374758D
:1005F000703A205A61706E7574C3BD3C2F666F6E81
:10060000743E3C2F623E003C2F666F726D3E3C682C
:10061000723E003C696E70757420747970653D2778
:100620007375626D69742720636C6173733D276213
:10063000746E2062746E2D73756363657373272007
:1006400076616C75653D275A6170C3AD7361C5A550
:10065000273E003C666F726D20616374696F6E3D6A
:10066000272F616374696F6E2E68746D6C27206D1F
:100670006574686F643D27676574273E003C636559
:100680006E7465723E3C68333E5A6164616A74659B
:100690002064C3A174612070726520776562736500
:1006A000727665722028627564C3BA20756C6FC556
:1006B000BE656EC3A920646F20454550524F4D2939
:1006C0003A3C2F68333E003C626F64793E003C2F19
:1006D000686561643E003C7469746C653E485454BE
:1006E0005020776562736572766572202D204172A5
:1006F0006475696E6F202B2045746865726E657431
:100700003C2F7469746C653E003C2F736372697092
:10071000743E007D2C2031303030293B0074696DEF
:10072000656C656674202D3D20313B007D00646F53
:1007300063756D656E742E676574456C656D656E69
:1007400074427949642822636F756E74646F776EA2
:1007500022292E696E6E657248544D4C203D2074DE
:10076000696D656C656674202B20222073656BC3F0
:10077000BA6E6420646F207265C5A174617274756D
:10078000223B007D20656C7365207B00646F637580
:100790006D656E742E676574456C656D656E74422B
:1007A0007949642822636F756E74646F776E2229AD
:1007B0002E696E6E657248544D4C203D2022526564
:1007C000C5A1746172742E2E2E223B00636C65618C
:1007D00072496E74657276616C28646F776E6C6FA7
:1007E000616454696D6572293B0069662874696D9E
:1007F000656C656674203C3D2030297B0076617213
:1008000020646F776E6C6F616454696D6572203D12
:1008100020736574496E74657276616C2866756EB6
:100820006374696F6E28297B007661722074696D2C
:10083000656C656674203D2031303B003C7363720B
:1008400069707420747970653D27746578742F6AB7
:10085000617661736372697074273E003C6C696EE7
:100860006B2072656C3D277374796C657368656580
:10087000742720687265663D2768747470733A2F18
:100880002F6D617863646E2E626F6F747374726122
:100890007063646E2E636F6D2F626F6F747374720A
:1008A00061702F332E342E312F6373732F626F6F6D
:1008B0007473747261702E6D696E2E637373273E4C
:1008C000003C6D657461206E616D653D27766965DC
:1008D00077706F72742720636F6E74656E743D2736
:1008E00077696474683D6465766963652D776964CA
:1008F00074682C20696E697469616C2D7363616C16
:10090000653D31273E003C6D6574612068747470EC
:100910002D65717569763D27526566726573682726
:1009200020636F6E74656E743D273130273B202F36
:100930003E003C6D657461206E616D653D2761759B
:1009400074686F722720636F6E74656E743D274DF7
:10095000617274696E2043686C65626F76656327A7
:100960003E003C6D65746120636861727365743D1F
:10097000277574662D38273E003C686561643E002B
:100980003C68746D6C3E003C21444F4354595045C3
:100990002068746D6C3E00436F6E74656E742D54E8
:1009A0007970653A20746578742F68746D6C0048AE
:1009B0005454502F312E3120323030204F4B000014
:1009C000000000250028002B000000000024002764
:1009D000002A00000000002300260029000404046F
:1009E00004040404040202020202020303030303D8
:1009F00003010204081020408001020408102001B5
:100A0000020408102000D31D8B2611241FBECFEF37
:100A1000D8E0DEBFCDBF13E0A0E0B1E0EAE6FEE53E
:100A200002C005900D92A633B107D9F724E0A6E3E2
:100A3000B3E001C01D92A138B207E1F715E0C4E0B0
:100A4000D5E004C02197FE010E94032DC330D107D9
:100A5000C9F70E94AB1E0C94282F0C9400008CBD8B
:100A60009DBD0895FC01818D928D08950895AF92EA
:100A7000BF92CF92DF92EF92FF920F931F93CF938B
:100A8000DF936C017B018B01040F151FEB015E01ED
:100A9000AE18BF08C017D10759F06991D601ED9182
:100AA000FC910190F081E02DC6010995892B79F721
:100AB000C501DF91CF911F910F91FF90EF90DF90D3
:100AC000CF90BF90AF900895FC01538D448D252F9A
:100AD00030E0842F90E0821B930B541710F0CF96D8
:100AE000089501970895FC01918D828D981761F00A
:100AF000A28DAE0FBF2FB11D5D968C91928D9F5F21
:100B00009F73928F90E008958FEF9FEF0895FC01FF
:100B1000918D828D981731F0828DE80FF11D858DB2
:100B200090E008958FEF9FEF0895FC01918D228D45
:100B3000892F90E0805C9F4F821B91098F739927CA
:100B4000089583E793E00E94950521E0892B09F43D
:100B500020E0822F089580E090E0892B29F00E9408
:100B6000A10581110C9400000895FC01A48DA80F2B
:100B7000B92FB11DA35ABF4F2C91848D90E00196DF
:100B80008F739927848FA689B7892C93A089B189FF
:100B90008C91837080648C93938D848D981306C0A0
:100BA0000288F389E02D80818F7D80830895EF9204
:100BB000FF920F931F93CF93DF93EC0181E0888F17
:100BC0009B8D8C8D98131AC0E889F989808185FFE7
:100BD00015C09FB7F894EE89FF896083E889F98989
:100BE00080818370806480839FBF81E090E0DF918B
:100BF000CF911F910F91FF90EF900895F62E0B8DDE
:100C000010E00F5F1F4F0F731127E02E8C8D8E1198
:100C10000CC00FB607FCFACFE889F989808185FFFF
:100C2000F5CFCE010E94B505F1CFEB8DEC0FFD2F76
:100C3000F11DE35AFF4FF0829FB7F8940B8FEA89BA
:100C4000FB8980818062CFCFCF93DF93EC01888DC9
:100C50008823B9F0AA89BB89E889F9898C9185FD37
:100C600003C0808186FD0DC00FB607FCF7CF8C91C5
:100C700085FFF2CF808185FFEDCFCE010E94B505C3
:100C8000E9CFDF91CF91089590E0FC01E356FD4F4D
:100C90002491FC01EF50F64F3491FC01E352F64FE2
:100CA000E491EE23C9F0222339F0233001F1A8F4B6
:100CB000213019F1223029F1F0E0EE0FFF1FE1544D
:100CC000F64FA591B4918FB7F894EC91611126C0BD
:100CD00030953E233C938FBF08952730A9F02830EC
:100CE000C9F0243049F7809180008F7D03C0809146
:100CF00080008F7780938000DFCF84B58F7784BDAD
:100D0000DBCF84B58F7DFBCF8091B0008F77809350
:100D1000B000D2CF8091B0008F7DF9CF3E2BDACFDB
:100D2000CF93DF9390E0FC01EF50F64F2491835274
:100D3000964FFC0184918823D1F090E0880F991F91
:100D4000FC01E753F64FA591B491FC01E154F64F35
:100D5000C591D49161110EC09FB7F8948C91E22F88
:100D6000E0958E238C932881E223E8839FBFDF9157
:100D7000CF9108958FB7F894EC91E22BEC938FBF4D
:100D8000F6CF3FB7F89480913C0390913D03A0913A
:100D90003E03B0913F0326B5A89B05C02F3F19F035
:100DA0000196A11DB11D3FBFBA2FA92F982F8827EB
:100DB000BC01CD01620F711D811D911D42E0660FC6
:100DC000771F881F991F4A95D1F708958F929F9298
:100DD000AF92BF92CF92DF92EF92FF926B017C01B4
:100DE0000E94C1064B015C01C114D104E104F1046D
:100DF000B9F00E94C106681979098A099B09683E01
:100E000073408105910580F321E0C21AD108E10801
:100E1000F10888EE880E83E0981EA11CB11CE4CF77
:100E2000FF90EF90DF90CF90BF90AF909F908F900A
:100E300008952FB7F8946091380370913903809129
:100E40003A0390913B032FBF0895DC0180E061508D
:100E500038F0ED91E827F0E0E356FE4F8491F7CFAC
:100E60000895DC012C911196ED91FC91F89481810B
:100E7000822B81839281322F30959323928387E056
:100E800090E00197F1F781818323818383E290E0F1
:100E90000197F1F790817894EFECF0E03197F1F75A
:100EA000922381E009F480E00895FC0190810180A3
:100EB000F281E02D292F209560FF14C0F8948281E3
:100EC000822382838181892B8183A3E2B0E0119701
:100ED000F1F78281982B9283789487ED90E00197C7
:100EE000F1F70895F8948281822382838181892B8E
:100EF0008183AFEFB0E01197F1F78281982B928355
:100F000078948FE090E0EBCFDF92EF92FF920F9317
:100F10001F93CF93DF93EC01D62EE42E08E010E070
:100F2000FF24F39461E08D2D8F2109F460E0CE0160
:100F30000E945507FF0C01501109A1F7E11010C0E4
:100F4000F894E981FA819181888180958923818350
:100F5000E981FA81928188818095892382837894BE
:100F6000DF91CF911F910F91FF90EF90DF90089547
:100F7000EF92FF920F931F93CF93DF938C017B012E
:100F800040E065E50E948407E70188E0E80EF11C77
:100F9000699140E0C8010E948407CE15DF05C1F7C2
:100FA000DF91CF911F910F91FF90EF900895FC0179
:100FB00090810180F281E02DF8948181292F209584
:100FC0008223818378943DE743E050E0315029F15A
:100FD000DA011197F1F780818923C1F3F8948281B6
:100FE000822382838181892B81837894ABE7B7E068
:100FF0001197F1F7F894818182238183A3E1B1E015
:101000001197F1F78081982381E009F080E07894CE
:10101000E3E6F6E03197F1F7089580E00895AF92A6
:10102000BF92CF92DF92EF92FF920F931F93CF93D5
:10103000DF938B01BC0180915704909158040E946A
:10104000B80740E06EEB80915704909158040E94DD
:101050008407E801680189E0C80ED11CA0905704FC
:10106000B090580488E0E82EF12C10E001E0C501B2
:101070000E9431078111102B000F81E0E81AF1085E
:10108000B1F71993CC16DD0649F78091570490917A
:1010900058040E94D70791E0813009F090E0892F31
:1010A000DF91CF911F910F91FF90EF90DF90CF9044
:1010B000BF90AF9008950F931F93CF93DF93CDB759
:1010C000DEB729970FB6F894DEBF0FBECDBF8C01F7
:1010D00080915704909158040E94D707811102C053
:1010E00080E01FC0BE016F5F7F4FC8010E940F08E4
:1010F0008823B1F368E0CE0101960E942507998507
:101100008913EECF8D818F33B9F020F48F3141F701
:1011100089E007C08F3521F08F3711F78CE001C0CF
:101120008BE029960FB6F894DEBF0FBECDBFDF91DE
:10113000CF911F910F9108958AE0F3CFFC01208198
:101140002EBD9B012150310941F051810DB407FEA4
:10115000FDCF4EB55EBD4193F5CF61507109860F4D
:10116000971F0DB407FEFDCF2EB5FC012083089517
:10117000E0916D03F0916E03808190916C03892B57
:1011800080830895E0916D03F0916E0390818091CA
:101190006C0380958923808308958EBD00000DB473
:1011A00007FEFDCF8EB50895AF92BF92CF92DF922A
:1011B000EF92FF920F931F93CF93DF93CDB7DEB7DC
:1011C00028970FB6F894DEBF0FBECDBF8C017B0110
:1011D0006A01809170038333E1F45801A40EB51EB7
:1011E000A016B10609F46FC00E94C20880EF0E94E9
:1011F000CD08812F0E94CD08802F0E94CD080F5F5F
:101200001F4FF70181917F010E94CD080E94B8080D
:10121000E7CF5B01A40EB51E8433C1F40E94C2085F
:1012200019830A838D2D80688B83CC8264E070E003
:10123000CE0101960E949E08AE14BF0409F441C07D
:10124000F70181917F010E94CD08F6CF0E94C2086C
:101250000F3F110509F028F419820A8384E08B837B
:101260000CC017FD17C019820A8333E01695079545
:101270003A95E1F7007E0C600B8386E0C816D10436
:10128000A0F5F701DE011496EA15FB0599F08191AE
:101290008D93FACFC80126E0969587952A95E1F7B8
:1012A000807E19830A830115104C10F48461D7CF16
:1012B0008C61D5CFB6016D5F7F4FCE0101960E9444
:1012C0009E080E94B808C60128960FB6F894DEBFA3
:1012D0000FBECDBFDF91CF911F910F91FF90EF9087
:1012E000DF90CF90BF90AF90089563E070E0CE01A3
:1012F00001960E949E08F70181917F010E94CD080E
:10130000AE14BF04C1F7DDCFCF93DF931F92CDB7EB
:10131000DEB7898341E050E0BE016F5F7F4F90E010
:1013200080E00E94D4080F90DF91CF91089590E063
:1013300020917003233339F40C96982F990F990F4D
:10134000990F80E008954896F8CFDA01E091710393
:10135000F0E0FE2FEE27E60FF71F90E0982F88278A
:10136000A901BD018E0F9F1F0C94D408CF93DF936A
:1013700000D0CDB7DEB779836A8322E030E0AE01DA
:101380004F5F5F4F60E170E00E94A5090F900F90E2
:10139000DF91CF910895CF93DF9300D0CDB7DEB723
:1013A00079836A8322E030E0AE014F5F5F4F64E0F3
:1013B00070E00E94A5090F900F90DF91CF910895E2
:1013C000CF93DF931F92CDB7DEB72091710330E04A
:1013D000322F2227260F371F90E0982F8827498326
:1013E00041E050E0BE016F5F7F4F820F931F0E946C
:1013F000D4080F90DF91CF910895CF93DF931F9280
:10140000CDB7DEB76983DC01ED91FC910280F381F9
:10141000E02D41E050E0BE016F5F7F4F09950F90D6
:10142000DF91CF910895CF93DF931F92CDB7DEB7B1
:101430006983DC01ED91FC910280F381E02D41E0B4
:1014400050E0BE016F5F7F4F09950F90DF91CF9104
:101450000895FC019485FB018485981303C081E005
:10146000943008F080E00895CF93DF931F92CDB7BA
:10147000DEB76983DC01ED91FC910280F381E02D00
:1014800041E050E0BE016F5F7F4F09950F90DF9103
:10149000CF910895EF92FF920F931F93CF93DF9315
:1014A0008C017B01D0E0C0E0F701EC0FFD1F6491DF
:1014B000662339F0C8010E94340A892B11F0219665
:1014C000F3CFCE01DF91CF911F910F91FF90EF905D
:1014D0000895FC01768765870895DC01ED91FC9104
:1014E000068CF78DE02D099591E089270895862FC8
:1014F000089581E08627089521E0FC0184858430E9
:1015000008F020E0822F08950895FF920F931F9313
:10151000CF93DF93EB01FC01178A168A2A812111F0
:1015200009C02B81211106C02C81211103C02D81FE
:10153000222301F141155105E9F08A01FC01F08CEB
:1015400080E591E00E942F05AE014E5F5F4F24E0E1
:1015500030E06CE070E08F2D0E94A509B8018F2D5E
:101560000E94B60981E090E0DF91CF911F910F9129
:10157000FF90089580E0F7CFFC018485958508955C
:10158000FC0184899589089524E931E0FC013183C7
:101590002083FB014089518962897389FC01428360
:1015A0005383648375830895DC01ED91FC91048C71
:1015B000F58DE02D0994089590E080E008958091E4
:1015C0005704909158040E94D70740E06CEC80913A
:1015D0005704909158040E9484074091520464E497
:1015E00080915704909158040E948407809154047C
:1015F0008823A1F0E0915304E9506EEE72E0E330ED
:1016000038F4F0E0EE0FFF1FE858FE4F6081718163
:10161000072E000C880B990B0C94E6060895BF92D8
:10162000CF92DF92EF92FF920F931F93CF93DF93AE
:10163000EC01B62EC72EED84E11004C00E94D7073E
:1016400081110EC01B861D861C8680E0DF91CF9124
:101650001F910F91FF90EF90DF90CF90BF90089572
:1016600040E060EFCE010E948407D12C01E011E040
:10167000CE010E943107F82ECE010E94310791E081
:10168000F91218C0813099F51134E0F2EB86E110BF
:1016900002C081E08D878B818823A1F22396EB2DF8
:1016A000FC2DCF01089629912193E817F907D9F766
:1016B00081E0CCCFED2DF0E0F8120FC08B8518172C
:1016C000A0F4DE01AE0FBF1F13968C91802379F436
:1016D000F12C193008F41C87E12EEC0FFD1F8381DB
:1016E000902F9095892383830AC08113F1CFFE0147
:1016F000ED0DF11D8381802B8383FF24F3946F2DE7
:10170000CE010E9455071F5F000F11F4D39401E032
:1017100087E08D1508F0ACCFB7CFFB01019000201A
:10172000E9F73197AF01461B570BDC01ED91FC91B6
:101730000280F381E02D09948F929F92AF92BF9225
:10174000EF92FF920F931F93CF93DF93CDB7DEB746
:10175000A1970FB6F894DEBF0FBECDBF7C01FA0192
:10176000CB0119A2223008F42AE08E010F5D1F4F31
:10177000822E912CB12CA12CBF01A50194010E94B5
:10178000042CF901CA016A300CF5605DD8016E9332
:101790008D01232B242B252B79F790E080E01097E7
:1017A00021F0BD01C7010E948D0BA1960FB6F894E0
:1017B000DEBF0FBECDBFDF91CF911F910F91FF9084
:1017C000EF90BF90AF909F908F900895695CDECFAF
:1017D0008F929F92AF92BF92CF92DF92EF92FF9241
:1017E0000F931F93CF93DF937C01EB016C0182E099
:1017F000C80ED11C4701E5E08E0E911C10E000E000
:10180000F60141916F0150E070E060E02AE0CE0106
:101810000E949C0B5C01E881F9810190F081E02D30
:101820006EE2CE0109958A0D9B1D080F191FC81481
:10183000D90431F7F701458150E070E060E02AE01B
:10184000CE010E949C0B800F911FDF91CF911F91C1
:101850000F91FF90EF90DF90CF90BF90AF909F904F
:101860008F90089566EA71E00C948D0BCF93DF930F
:1018700063E773E00E94E80BEC0183E793E00E94CA
:10188000320C8C0F9D1FDF91CF910895CF93DF9382
:10189000D0E0C0E0009731F0BC0183E793E00E9404
:1018A0008D0BEC0183E793E00E94320C8C0F9D1F9F
:1018B000DF91CF9108950F931F93CF93DF93EC01A6
:1018C0000E944A0A8C01CE010E94320C800F911FA7
:1018D000DF91CF911F910F910895FC0124813581F3
:1018E000232B31F421E0FB01672B49F4822F08956B
:1018F000808191816115710539F421E0FC018081BD
:101900008823A1F320E0F2CF0E94FB2E21E0892B57
:1019100069F3F8CF0F931F93CF93DF93EC01888186
:101920009981009759F02A813B812617370730F0BB
:1019300081E0DF91CF911F910F9108958B016F5F2F
:101940007F4F0E942E2E009759F0998388831B8326
:101950000A832C813D81232B59F7FC011082E8CFAB
:1019600080E0E7CFEF92FF920F931F93CF93DF9327
:101970006115710541F480E0DF91CF911F910F91C6
:10198000FF90EF90089541155105B1F07B01EC01F6
:101990000C811D81040F151FB8010E948A0C882339
:1019A00051F3288139818C819D81B701820F931F6A
:1019B0000E94042F1D830C8381E0DECFCF93DF9341
:1019C000EC0188819981009711F00E94A52D198260
:1019D00018821D821C821B821A82DF91CF9108958A
:1019E000EF92FF920F931F93CF93DF938C017B01B4
:1019F000EB0109900020E9F72197C61BD70BBE0128
:101A00000E948A0C811109C0C801DF91CF911F91FA
:101A10000F91FF90EF900C94DE0CF801D583C483F6
:101A2000B70180819181DF91CF911F910F91FF903C
:101A3000EF900C94042FCF93DF93EC01FB01019006
:101A40000020E9F73197AF01461B570B0E94B20CFB
:101A5000811103C0CE010E94DE0CCE01DF91CF9137
:101A60000895CF93DF93EC01FB01448155816081A0
:101A700071810E94B20C811103C0CE010E94DE0C64
:101A8000CE01DF91CF910895EF92FF920F931F93B4
:101A9000CF93DF93EC01198218821B821A821D8278
:101AA0001C826115710521F18B01FB010190002061
:101AB000E9F731977F01E61AF70AB7010E948A0C0D
:101AC000811109C0CE01DF91CF911F910F91FF903D
:101AD000EF900C94DE0CFD82EC82B8018881998134
:101AE000DF91CF911F910F91FF90EF900C94042FF5
:101AF000DF91CF911F910F91FF90EF900895FC011E
:101B000080819181009711F00C94A52D0895AF92DA
:101B1000BF92CF92DF92EF92FF920F931F93CF93DA
:101B2000DF9300D000D0CDB7DEB78C016B017A0116
:101B3000809170038333E9F45B016801C40ED51E04
:101B4000C016D106A9F10E94C2088FE00E94CD08FC
:101B5000812F0E94CD08802F0E94CD080F5F1F4F5C
:101B600080E00E94CD08F50181935F010E94B808D2
:101B7000E7CF843369F50E94C20819830A838F2D49
:101B80008F778B83EC8264E070E0CE0101960E9437
:101B90009E08A70170E060E0C6010E94F42EE114E7
:101BA000F10421F0B701C6010E949E080E94B80806
:101BB000C7010F900F900F900F90DF91CF911F9161
:101BC0000F91FF90EF90DF90CF90BF90AF9008956E
:101BD0000E94C2080F3F110509F030F419820A83F0
:101BE0001B8263E070E0D1CF17FD0BC019820A831E
:101BF00033E0169507953A95E1F7007E08600B8370
:101C0000F0CFC80126E0969587952A95E1F7807E6A
:101C100019830A830115104C18F480618B83E1CF7E
:101C20008861FCCFCF93DF931F92CDB7DEB72091B1
:101C3000710330E0322F2227260F371F90E0982FB4
:101C4000882741E050E0BE016F5F7F4F820F931FF6
:101C50000E94870D89810F90DF91CF910895CF93D6
:101C6000C82F462F61E070E00E94E00961E070E05B
:101C70008C2F0E94120E8111F9CFCF910895CF932E
:101C8000C82F80E591E00E942F0568E070E08C2F5E
:101C9000CF910C942F0ECF93C82F80E591E00E9436
:101CA0002F0560E170E08C2FCF910C942F0ECF9315
:101CB000DF93EC01888D843020F40E944B0E84E089
:101CC000888FDF91CF91089563E070E00C94120E3D
:101CD000CF93C82F80E591E00E942F058C2FCF91E4
:101CE0000C94640EEF92FF920F931F93CF937C019D
:101CF00004E613E0C0E0F801219131918F01F70172
:101D0000848195812817390729F0CF5FC43099F76E
:101D100080E006C08C2F0E94680E8431B1F781E00C
:101D2000CF911F910F91FF90EF900895CF93DF9384
:101D3000EC018C858430D0F40E94680E843189F0E7
:101D4000882379F0883169F021E08C3159F4E881F9
:101D5000F9810084F185E02DCE01099521E0892BE0
:101D600009F420E0822FDF91CF91089580E0FBCF2E
:101D7000CF92DF92EF92FF92CF93DF93EC018C85AD
:101D8000843068F40E943F0E0E9419076B017C01A9
:101D90008C850E94680E811109C084E08C87DF91D8
:101DA000CF91FF90EF90DF90CF90089561E070E0C9
:101DB00080E090E00E94E6060E941907AB01BC019A
:101DC0004C195D096E097F098D859E85B0E0A0E004
:101DD000481759076A077B07D8F28C850E944B0E7B
:101DE000DCCFCF93FC01C08D80E591E00E942F05F0
:101DF00060E270E08C2F0E942F0E62E070E08C2F6A
:101E00000E94120E84FD16C062E070E08C2F0E94CA
:101E1000120E83FF0AC048E162E070E08C2F0E943E
:101E2000E00980E090E0CF91089580E591E00E9484
:101E30002F05E3CF40E162E070E08C2F0E94E009C3
:101E400081E0F0CFCF93DF931F92CDB7DEB741E0B3
:101E500050E0BE016F5F7F4F90E080E00E94870DF1
:101E600089810F90DF91CF910895CF93DF93C4E1E3
:101E7000D0E00E94220F882361F061E070E080E0F2
:101E800090E00E94E6062197A1F780E0DF91CF91D4
:101E9000089581E0FBCFCF92DF92EF92FF920F93F4
:101EA0001F93CF93DF93CDB7DEB7C454D1090FB6DC
:101EB000F894DEBF0FBECDBFFC0182819381A48167
:101EC000B58123968CAF9DAFAEAFBFAF239721E016
:101ED00023962FAF239723964CAD5DAD6EAD7FADAE
:101EE00023974BAB5CAB6DAB7EAB89AF9AAFABAF1F
:101EF000BCAF8DA79EA7AFA7B8AB28AB4DA55EA57D
:101F00006FA578A94FA358A769A77AA72EAB4BA9AD
:101F10005CA96DA97EA949A35AA36BA37CA38B8F4F
:101F20009C8FAD8FBE8F44E951E05C8B4B8B3FEFB4
:101F30003D8B3E8B3F8B188E5E874D872AA7CFA0A7
:101F4000D8A4E9A4FAA4CF86D88AE98AFA8A2CA36D
:101F500009A11AA12BA13CA109871A872B873C87CD
:101F60005A8349838B839C83AD83BE8380917203A4
:101F70008111AFC060E372E080E090E00E94E6066D
:101F8000DFB6F89407EE19E03BEFE32E39E0F32ECD
:101F900080916F03811125C0F8018491F70194911C
:101FA000E82FF0E0EE0FFF1FE753F64FA591B49135
:101FB0008C91982321F461E08AE00E94440661E05C
:101FC0008AE00E9490068CB580618CBD8CB58064DF
:101FD0008CBD61E08DE00E94900661E08BE00E9484
:101FE000900680916F038F5F80936F03DFBEF801CF
:101FF0000491E02FF0E0EE0FFF1FE154F64F8591C2
:10200000949190936E0380936D03F701E490E092B6
:102010006C0361E08AE00E9490060E94B80880E5A7
:1020200091E00E942F0584E38093700380E80E9472
:1020300084090E94350F882309F481C088E00E943A
:1020400084090E94220F883009F079C080E10E9443
:1020500084090E94220F803109F071C080E00E9443
:1020600084090E94220F182F811169C041E050E0BD
:10207000BE016D5B7F4F8FE190E00E94870D24963B
:102080008FAD2497833009F05AC080E480937103A8
:1020900042E06EE170E0812F0E94E00942E06FE1D2
:1020A00070E0812F0E94E0091F5F143089F740E043
:1020B0006EE170E0812F0E94E00940E06FE170E086
:1020C000812F0E94E0091F5F183089F781E080931B
:1020D000720380E591E00E942F0546E050E066E043
:1020E00071E089E090E00E94D40844E050E0BE0135
:1020F0006D5F7F4F8FE090E00E94D40844E050E095
:10210000BE01615F7F4F81E090E00E94D40844E00F
:1021100050E0BE016B5E7F4F85E090E00E94D408E6
:1021200081E08C8789859A85AB85BC858093300456
:1021300090933104A0933204B09333046FC087E3CB
:102140008093700380E80E9484090E94350F8823E1
:1021500039F188E00E9484090E94220F883001F53D
:1021600080E10E9484090E94220F182F8031C1F45F
:1021700080E00E9484090E94220F811111C041E079
:1021800050E0BE016D5B7F4F89E390E00E94870DB8
:1021900024968FAD2497843019F41093710396CF51
:1021A00083E38093700380E80E9484090E94350FC6
:1021B000882391F180E10E9484090E94220F8031DE
:1021C00059F582E10E9484090E94220F823121F593
:1021D00080E00E9484090E94220F81111DC084E0CA
:1021E0008093710315E525961FAF259741E050E0D8
:1021F000BE016C5B7F4F8BE190E00E94D408249677
:102200001FAF249741E050E0BE016D5B7F4F8AE134
:1022100090E00E94D4085ACF10927003CC5BDF4F3D
:102220000FB6F894DEBF0FBECDBFDF91CF911F91E7
:102230000F91FF90EF90DF90CF9008951F93CF9371
:10224000DF931F92CDB7DEB7182F80E591E00E9493
:102250002F05812F0E94970927E0129FF00111247A
:10226000E85BFC4F22813381377041E050E0BE01D2
:102270006F5F7F4F820F931F0E94870D89810F90A0
:10228000DF91CF911F910895FC01808D843040F43F
:10229000218D328D232B21F00E941E1190E0089594
:1022A0008FEF9FEF0895CF93DF93FC0124852430B7
:1022B00028F08FEF9FEFDF91CF910895EC0101900F
:1022C000F081E02D0084F185E02D0995892B89F3BB
:1022D0008C850E941E1190E0EECFDA01E09171032F
:1022E000F0E0FE2FEE27E60FF71F90E0982F8827EB
:1022F000A901BD018E0F9F1F0C94870D8F929F9295
:10230000AF92BF92CF92DF92EF92FF921F93CF9343
:10231000DF93CDB7DEB72C970FB6F894DEBF0FBEB4
:10232000CDBF2091700314E0222329F16B017C01C1
:1023300080E591E00E942F055E0127E0A20EB11C0E
:10234000450110E0812F0E94640EF40181934F013A
:10235000882349F11F5F1430A9F710E0F50181913E
:102360005F018D31D9F08831C9F08A518230B0F0E7
:102370001F5F143099F7812F2C960FB6F894DEBFAB
:102380000FBECDBFDF91CF911F91FF90EF90DF90F7
:10239000CF90BF90AF909F908F90089560E170E0D4
:1023A000812F0E942F0EA12EB12CF501EE0FFF1FE1
:1023B000EC59FC4F1182108283EE93E00197F1F704
:1023C00042E870E060E0812F0E94E0094FEF62E098
:1023D00070E0812F0E94E009B601C114D10491F48C
:1023E000809104019091050101968115F0EC9F0701
:1023F00008F45CC09093050180930401609104018E
:1024000070910501812F0E94CB0986E0E2E1F1E0A5
:10241000DE01119601900D928A95E1F7F701838113
:102420008F778C8384818D8385818E83A7014E5F16
:102430005F4F24E030E06CE070E0812F0E94A5093E
:10244000B601812F0E94B60926E030E0AE014F5F51
:102450005F4F66E070E0812F0E94A50961E070E0A7
:10246000812F0E942F0E27E02A9DC0012B9D900DE9
:1024700011249C01285B3C4F7901F90111821082E3
:1024800022E030E0AE01455F5F4F68E270E0812FEF
:102490000E946D118B859C85982789279827F701C5
:1024A0009383828316821582148265CF80E090EC3C
:1024B000A1CFCF92DF92EF92FF920F931F93CF9312
:1024C000DF9300D000D000D0CDB7DEB78C016B0118
:1024D0007A01FC01808D843010F40E944B0E84E957
:1024E00091E09A838983F60182819381A481B581E9
:1024F0008B839C83AD83BE83B701CE0101960E947E
:102500007E11F801808F8430A0F4F586E486128E67
:10251000118E81E026960FB6F894DEBF0FBECDBFB8
:10252000DF91CF911F910F91FF90EF90DF90CF90AF
:10253000089580E0EFCFAF92BF92CF92DF92EF92FB
:10254000FF920F931F93CF93DF9300D000D000D062
:10255000CDB7DEB7082F6B0180E591E00E942F0513
:102560009E012F5F3F4F7901590110E0812F0E949A
:10257000640EF50181935F01882341F11F5F1430E0
:10258000A9F710E0F70181917F018D31D1F08831F9
:10259000C1F08A518230A8F01F5F143099F7812F63
:1025A00026960FB6F894DEBF0FBECDBFDF91CF9158
:1025B0001F910F91FF90EF90DF90CF90BF90AF9061
:1025C000089560E170E0812F0E942F0EE12EF12C22
:1025D000F701EE0FFF1FEC59FC4F1182108283EEC2
:1025E00093E00197F1F7402F70E060E0812F0E94A7
:1025F000E0094FEF62E070E0812F0E94E009B60130
:10260000CD2889F4809104019091050101968115EE
:10261000F0EC9F0798F1909305018093040160917D
:10262000040170910501812F0E94CB0961E070E0E7
:10263000812F0E942F0E27E02E9DC0012F9D900D0F
:1026400011249C01285B3C4F7901F9011182108211
:1026500022E030E0AE014B5F5F4F68E270E0812F17
:102660000E946D118D819E81982789279827F701F7
:102670009383828316821582148291CF80E090EC3E
:10268000CACFCF92DF92EF92FF921F93CF93DF9347
:10269000EC017B016A018C85843048F40E94680E4D
:1026A000882319F08C850E943F0E84E08C87F70107
:1026B00082819381A481B5810097A105B10551F470
:1026C00090E080E0DF91CF911F91FF90EF90DF903D
:1026D000CF9008958F3F9F4FAF4FBF4F89F38091A9
:1026E0007003811103C084E08C87EACF70E060E062
:1026F00081E20E949B12182F8C87843008F780E5B6
:1027000091E00E942F05A7014E5F5F4F24E030E06B
:102710006CE070E0812F0E94A509B601812F0E9414
:10272000B60964E070E0812F0E942F0E0E94190705
:102730006B017C018C850E94680E873109F18C3118
:10274000F9F0882309F4BCCF0E941907AB01BC0142
:102750004C195D096E097F098D859E85B0E0A0E06A
:1027600084179507A607B70738F061E070E080E0AE
:1027700090E00E94E606DECF8C850E944B0EB3CF20
:1027800081E090E09FCF0F931F93CF93DF93EC01F5
:102790008B01888D843010F40E944B0E8091700361
:1027A000811107C094E0988FDF91CF911F910F9115
:1027B0000895B80182E00E949B12888F843030F423
:1027C0001D870C871A8E198E81E0EECF80E0ECCF4A
:1027D0000F931F93CF9320917003222349F18C0113
:1027E000FC016481758181E20E949B12C82F8430B4
:1027F000F8F480E591E00E942F058C2F0E94640E72
:10280000833131F08C2FCF911F910F910C943F0E9B
:1028100062E070E08C2F0E942F0EF8018481958178
:10282000EC2FF0E0EE0FFF1FEC59FC4F91838083FB
:10283000CF911F910F9108957F928F929F92AF92A7
:10284000BF92CF92DF92EF92FF920F931F93CF939D
:10285000DF9300D0CDB7DEB7782E8B014A01590146
:1028600022E030E0AE014F5F5F4F64E270E00E9413
:102870006D11E980FA80FE24EF24FE24E00EF11EA3
:102880009701377040917003072D10E0433309F032
:1028900042C0085F1F4F102F0027110F110F110F9B
:1028A000C901800F911F4733C9F1A9014A0D5B1D72
:1028B0004130584098F160E078E06B01C21AD30AC9
:1028C000A601B4010E94D408A5014C195D09B40108
:1028D0006C0D7D1DC8010E94D408EA0CFB1CF98216
:1028E000EA8222E030E0AE014F5F5F4F64E270E0C9
:1028F000872D0E94A5090F900F90DF91CF911F9116
:102900000F91FF90EF90DF90CF90BF90AF909F908E
:102910008F907F900895005F1F4FBDCFA501B40138
:10292000DACFEF92FF921F93CF93DF9300D0CDB712
:10293000DEB7182F22E030E0AE014F5F5F4F60E25C
:1029400070E00E946D11E980FA80FE24EF24FE24DD
:1029500022E030E0AE014F5F5F4F60E270E0812F18
:102960000E946D1189819A81982789279827E816F6
:10297000F90689F487E0189FF0011124E85BFC4F09
:10298000F582E482C7010F900F90DF91CF911F91E4
:10299000FF90EF9008957C01DBCF1F93CF93DF93DF
:1029A000182F80E591E00E942F05812F0E9491143D
:1029B000EC01812F0E94640E873121F08C3111F0DF
:1029C000D0E0C0E0CE01DF91CF911F910895CF9369
:1029D000DF93EC018C85843060F40E94680E8731AF
:1029E00011F08C3131F48C850E94CD148115984002
:1029F00088F3DF91CF910895FC018485843010F431
:102A00000C94CD1490E080E00895CF92DF92EF9285
:102A1000FF921F93CF93DF93182F7B01EA01413080
:102A2000584010F0C0E0D8E080E591E00E942F050A
:102A3000812F0E9491146C01812F0E94640E8731B6
:102A400011F08C3121F5CC16DD0670F380E591E0B4
:102A50000E942F059E01A70170E060E0812F0E9477
:102A60001C1460E270E0812F0E942F0E62E070E083
:102A7000812F0E94120E84FD0DC0812F0E94640ED2
:102A80008823B9F080E591E00E942F05EFCFD0E0D8
:102A9000C0E0DCCF40E162E070E0812F0E94E009FD
:102AA000CE01DF91CF911F91FF90EF90DF90CF90FB
:102AB0000895D0E0C0E0F4CF0F931F93CF93DF933E
:102AC0008C01EA01FC018485843048F40E940515DC
:102AD000892B39F481E090E0F80193838283D0E080
:102AE000C0E0CE01DF91CF911F910F910895FB01BE
:102AF00044815581608171810C945C150F931F9303
:102B0000CF93DF93EC010E9477158C01CE010E94D8
:102B1000320C800F911FDF91CF911F910F9108957B
:102B20009F92AF92BF92CF92DF92EF92FF920F935C
:102B30001F93CF93DF938C015B01942EE52EFC0154
:102B4000C688D788F08C80E591E00E942F058F2DF4
:102B50000E949114C92DDE2D8C179D0708F4EC01FD
:102B60009E01A501B6018F2D0E941C14F8018689D3
:102B700097898C0F9D1F978B868BCE01DF91CF910C
:102B80001F910F91FF90EF90DF90CF90BF90AF908B
:102B90009F900895FF920F931F93CF93DF9300D0E0
:102BA000CDB7DEB7F82E22E030E0AE014F5F5F4FC9
:102BB00066E270E00E946D1109811A8110270127D9
:102BC000102722E030E0AE014F5F5F4F66E270E019
:102BD0008F2D0E946D1189819A81982789279827C6
:102BE0000817190749F4C8010F900F90DF91CF9192
:102BF0001F910F91FF9008958C01E3CF1F93CF9306
:102C0000DF93182F87E0189FE0011124C85BDC4F89
:102C100088819981009761F480E591E00E942F05F9
:102C2000812F0E94CA152E81821B91099983888366
:102C3000DF91CF911F910895AF92BF92CF92DF9213
:102C4000EF92FF920F931F93CF93DF93EC017B01E1
:102C500080917003811120C01B821A8288EE93E05C
:102C6000A0E0B0E08C839D83AE83BF838CE191E0D4
:102C70009983888384E08C8788EE93E09E878D8794
:102C8000CE01DF91CF911F910F91FF90EF90DF90D8
:102C9000CF90BF90AF90089584E6C82E83E0D82EE1
:102CA00010E094E0B92EA12CD6012D913D916D013B
:102CB000F701848195812817390791F4812F0E94AB
:102CC000680E082F873111F08C3139F5812F0E9461
:102CD000FE15892B59F50C3119F4812F0E943F0EF6
:102CE0001F5F143009F7A11008C0D701ED91FC91C6
:102CF0000084F185E02DC70109951B821A8288EEB8
:102D000093E0A0E0B0E08C839D83AE83BF838CE131
:102D100091E099838883BC86AFCF843149F08111DB
:102D2000DFCFF601329711821082DACFB12ED8CFE1
:102D3000AA24A394D5CF8F929F92AF92BF92CF92A5
:102D4000DF92EF92FF921F93CF93DF93CDB7DEB761
:102D50002F970FB6F894DEBF0FBECDBF5C014B01BD
:102D60007A01809170038823A1F1B501CE0101960B
:102D70000E941C1684E6C82E83E0D82E10E0F601CF
:102D8000219131916F01F5018481958128173907CF
:102D900051F4812F0E94680E873129F4A701B401F4
:102DA000812F0E9405151F5F143049F7C7012F9628
:102DB0000FB6F894DEBF0FBECDBFDF91CF911F914C
:102DC000FF90EF90DF90CF90BF90AF909F908F904B
:102DD0000895F12CE12CEACFFC018485843010F4B5
:102DE0000C94FE1590E080E008954F925F927F92E0
:102DF0008F929F92AF92BF92CF92DF92EF92FF920B
:102E00000F931F93CF93DF9300D0CDB7DEB7782E0B
:102E10006B014A01A82EB12C27E0829FC00111242A
:102E2000FC01E85BFC4F7F010081118180E591E0AE
:102E30000E942F050815190554F4872D0E94CA1504
:102E4000F70126818C01021B1109118300830115F2
:102E5000110519F5872D0E94640E843159F08823DD
:102E600049F001E010E08C3111F410E000E0119520
:102E700001951109C8010F900F90DF91CF911F911B
:102E80000F91FF90EF90DF90CF90BF90AF909F9009
:102E90008F907F905F904F900895801691060CF46C
:102EA000840187E08A9DF0018B9DF00D1124E85B81
:102EB000FC4FE280F380C114D10451F12701F7E007
:102EC0005F22872D0E949709840D951D2091700324
:102ED000273309F453C09801240D351D21303840A3
:102EE00008F44CC020E038E0490184189508A4019A
:102EF000B6010E94870D2601480C591C6801C818AC
:102F0000D908872D0E949709A601B2010E94870D5A
:102F1000E00EF11E87E08A9DF0018B9DF00D1124DB
:102F2000E85BFC4FF382E28220813181201B310B70
:102F3000318320838681800F912F911D8A3F9105D7
:102F400010F4232BF1F487E08A9DF0018B9DF00DA6
:102F50001124E85BFC4F1682F982EA8222E030E01D
:102F6000AE014F5F5F4F68E270E0872D0E94A509B8
:102F700060E470E0872D0E942F0E7CCFA801B6017F
:102F8000C5CF868377CFCF93DF93FC01218D328D20
:102F90002115310529F48FEF9FEFDF91CF9108952F
:102FA000EC01808D4217530708F0A9010E94F51625
:102FB0001816190684F7298D3A8D281B390B3A8F7C
:102FC000298FEBCF0F931F93CF93DF931F92CDB732
:102FD000DEB7FC01218D328D232B41F48FEF9FEF63
:102FE0000F90DF91CF911F910F9108958C0141E0D7
:102FF00050E0BE016F5F7F4FFC01808D0E94F5168F
:10300000181619065CF7F801818D928D0197928F41
:10301000818F898190E0E4CF0F931F93CF93DF934B
:10302000CDB7DEB728970FB6F894DEBF0FBECDBF81
:103030008C01D80159964D915C915A9741155105D3
:1030400051F0ED91FC91048CF58DE02D70E060E085
:10305000C8010995EECFF801808D0E94FE15892BDD
:10306000B1F148E050E0BE016F5F7F4FD801589644
:103070008C910E94F51618161906F4F4D801509692
:1030800084E0FE01319601900D928A95E1F78D81E1
:1030900090E0982F88272E81820F911DF801958B43
:1030A000848B8F81282F30E0322F22278885820F52
:1030B000932F911D928F818F28960FB6F894DEBFC3
:1030C0000FBECDBFDF91CF911F910F91089590E07A
:1030D00080E0F2CF4F925F926F927F928F929F9299
:1030E000AF92BF92CF92DF92EF92FF920F931F9316
:1030F000CF93DF93CDB7DEB763970FB6F894DEBFFB
:103100000FBECDBF7C016B013A01FB0120E090E0D6
:1031100080E06AE03191332309F461C040ED430F50
:103120004A3008F04DC0689FA001699F500D1124DE
:10313000CA01C097830F911D37FD9A958F3F910566
:1031400049F340F3F7014281538164817581809195
:103150003C0490913D04A0913E04B0913F04481777
:1031600059076A077B0709F40DC28701085F1F4FE3
:103170000E9419076F7077277C5FC8010E94C313F4
:10318000813009F004C284E991E09A838983F701D0
:1031900082819381A481B5818B839C83AD83BE831F
:1031A00045E350E0BE016F5F7F4FC8010E94850A72
:1031B000892BA9F5D12CC12CC8010E94570E17C02C
:1031C0003E3209F0BFCF233009F4BCCFD301A20FA8
:1031D000B11D12968C932F5F90E080E09BCF23303F
:1031E00009F0B0CFF3018583CC24C394D12CC60160
:1031F00063960FB6F894DEBF0FBECDBFDF91CF91BF
:103200001F910F91FF90EF90DF90CF90BF90AF9004
:103210009F908F907F906F905F904F9008950E9445
:103220001907F7017783668342E050E0B7016A5FD0
:103230007F4FC8010E94901581E090E09A838983B6
:1032400042E050E0BE016F5F7F4FC8010E949015C1
:1032500080E091E09A83898342E050E0BE016F5F95
:103260007F4FC8010E9490151A82198242E050E0F7
:10327000BE016F5F7F4FC8010E94901542E050E091
:10328000BE016F5F7F4FC8010E94901542E050E081
:10329000BE016F5F7F4FC8010E9490155601F60175
:1032A0008081882301F16501F60181912F01882336
:1032B00011F08E32B1F446018A189B0818141904D3
:1032C00074F48D8641E050E0BE01635F7F4FC8011A
:1032D0000E949015A401B501C8010E9490155201E9
:1032E000DECF6201E1CF1D8641E050E0BE01635FA9
:1032F0007F4FC8010E949015C12CDD24D394DA823F
:10330000C98242E050E0BE016F5F7F4FC8010E945A
:103310009015DA82C98242E050E0BE016F5F7F4FB4
:10332000C8010E949015C8010E94F10E892B09F472
:1033300041CFF3E0AF2EB12C230122E0420E511C0D
:10334000D4C0F7014281538164817581808D918D54
:10335000A28DB38D481759076A077B0709F008C18A
:10336000848D958DC59709F003C181A192A15DEF70
:10337000C52EDD24DA940C970CF4ADC04CE050E07F
:10338000BE016F5F7F4FC8010E94C3178B819C8174
:103390009827892798279A8B898BF701468157812F
:1033A00029813A814217530709F0E7C097FFE5C02A
:1033B0008F7092703BEFC32EDD24DA94892B09F0D5
:1033C0008AC06F8078847624672476242AEFC22E00
:1033D000DD24DA946114710409F47DC0D12CC12C70
:1033E0008D819E81982789279827C816D906F8F4D9
:1033F00041E050E0BE01635F7F4FC8010E94C317E8
:103400004D85442331F050E070E060E0C8010E9437
:10341000C3178D858111ECCF44E050E070E060E08F
:10342000C8010E94C317FFEFCF1ADF0AD9CF912C32
:10343000812C41E050E0BE016D5E7F4FC8010E94CB
:10344000C3174B89842F807C09F06CC0442331F072
:1034500050E070E060E0C8010E94C3178B898111C1
:10346000E8CF42E050E0BE01615F7F4FC8010E949B
:10347000C31742E050E0BE01635F7F4FC8010E9466
:10348000C31744E050E070E060E0C8010E94C31739
:1034900042E050E0BE016F5E7F4FC8010E94C3173B
:1034A0008F85988949895A898115914009F043C0CF
:1034B000CD84DE84DC24CD24DC2481E0C816D10454
:1034C000D1F54115544009F04AC044E050E0B20142
:1034D000C8010E94C31721E0A21AB10809F46CCEFA
:1034E000FFEFCF16DF0609F067CE0E9419073B01F8
:1034F0004C01C8010E940C18181619060CF421CFB3
:103500000E94190766197709880999096938734172
:103510008105910548F562E370E080E090E00E944B
:10352000E606E7CF41E050E070E060E0C8010E94AD
:10353000C3171B8A93CF54274527542770E060E0B8
:10354000C8010E94C317FFEF8F1A9F0A68147904FD
:1035500009F06FCF96EFC92EDD24DA94BCCFE7EFE8
:10356000CE2EDD24DA94B7CFCC24CA94DC2CB3CF92
:103570006EEFC62EDD24DA94AECF4CEFC42EDD24E0
:10358000DA94A9CF8EEFC82EDD24DA9430CED12C78
:10359000C12C2DCECF92DF92EF92FF920F931F930B
:1035A000CF93DF93CDB7DEB7AF970FB6F894DEBFFA
:1035B0000FBECDBF7C016A0104E911E01A830983C3
:1035C0001C861B8688EE93E0A0E0B0E08D879E8786
:1035D000AF87B88B8AE491E09A878987188F0F8B21
:1035E000198E1A8E1B8E1C8E84E089A31BA70AA736
:1035F0001CA61DA61EA61FA6809130049091310422
:10360000A0913204B09133048EA39FA3A8A7B9A7B9
:103610008B839C83AD83BE8318861F82AE01465D7B
:103620005F4FCE0101960E946A1881309105B1F476
:10363000D701ED91FC910488F589E02D1DA30CA321
:103640008CA59DA5AEA5BFA58EA39FA3A8A7B9A72E
:10365000A601BE016C5D7F4FC7010995AF960FB6FD
:10366000F894DEBF0FBECDBFDF91CF911F910F91B8
:10367000FF90EF90DF90CF900895CF92DF92EF927E
:10368000FF920F931F93CF93DF93CDB7DEB7AF9722
:103690000FB6F894DEBF0FBECDBF8C016B017A016F
:1036A00084E991E09A8389831B821C821D821E8299
:1036B0001C861B8648EE53E060E070E04D875E8715
:1036C0006F87788B2AE431E03A872987988F8F8B30
:1036D000198E1A8E1B8E1C8E24E029A39BA78AA705
:1036E0001CA61DA61EA61FA6D8011C968C91843070
:1036F00060F40E94680E882321F0F80184850E94FE
:103700003F0E84E0D8011C968C93809130049091F8
:103710003104A0913204B09133048EA39FA3A8A7D3
:10372000B9A78B839C83AD83BE8318861F82AE01AD
:10373000465D5F4FB601CE0101960E946A18009760
:10374000C1F0D801ED91FC910684F785E02D84E964
:1037500091E09DA38CA38CA59DA5AEA5BFA58EA32E
:103760009FA3A8A7B9A7A701BE016C5D7F4FC801A1
:103770000995AF960FB6F894DEBF0FBECDBFDF91AF
:10378000CF911F910F91FF90EF90DF90CF90089510
:10379000CF93DF931F92CDB7DEB741E050E0BE017B
:1037A0006F5F7F4FFC0184850E94F516181619067D
:1037B00034F4898190E00F90DF91CF9108958FEFDD
:1037C0009FEFF9CF0F931F93CF93DF93EC010E94EC
:1037D0001907688779878A879B87CE010E94C81B53
:1037E00097FF15C00E941907088519852A853B8512
:1037F000601B710B820B930B0C811D812E813F810D
:10380000601771078207930740F38FEF9FEFDF91F7
:10381000CF911F910F910895FC018485843010F49D
:103820000C94F51690E080E008950F931F93CF93CA
:10383000DF9300D0CDB7DEB7FC0124852430E0F45F
:103840008C0180E591E00E942F0522E030E0AE017E
:103850004F5F5F4F60E170E0F80184850E946D1159
:1038600089819A819827892798270F900F90DF9157
:10387000CF911F910F91089590E080E0F6CFEF92E5
:10388000FF920F931F93CF93DF9300D000D0CDB75B
:10389000DEB78C017B01FB0184858430A8F084E9CC
:1038A00091E0F80191838083128213821482158241
:1038B000C8010F900F900F900F90DF91CF911F9143
:1038C0000F91FF90EF90089580E591E00E942F0501
:1038D00024E030E0AE014F5F5F4F6CE070E0F70135
:1038E00084850E946D1184E991E0F80191838083C1
:1038F00089819A81AB81BC8182839383A483B583C0
:10390000D7CF0F931F93CF93DF9300D0CDB7DEB700
:10391000FC0124852430E0F48C0180E591E00E94D4
:103920002F0522E030E0AE014F5F5F4F64E070E0B2
:10393000F80184850E946D1189819A8198278927D1
:1039400098270F900F90DF91CF911F910F910895BD
:1039500090E080E0F6CFAF92BF92CF92DF92EF92ED
:10396000FF920F931F93CF93DF93CDB7DEB7C4566B
:10397000D1090FB6F894DEBF0FBECDBF6C01062F84
:10398000660F110BC8010E94AC2B9E012F5F3F4FA9
:1039900079015901021B130BF501EE19FF09882368
:1039A00049F0C8018A0D9B1D0E94AC2BF501819343
:1039B0005F01F2CFEE0DFF1D1082B701C6010E941C
:1039C000440DC601CC59DF4F0FB6F894DEBF0FBED1
:1039D000CDBFDF91CF911F910F91FF90EF90DF90BE
:1039E000CF90BF90AF900895CF92DF92EF92FF9269
:1039F0000F931F93CF93DF937B01DB011496CD9040
:103A0000DC90D0E0C0E0082F880F110BCC15DD054D
:103A1000D4F4F70184819581C817D90728F401905F
:103A2000F081E02D309761F410923603E6E3F3E085
:103A30006081C8018C0F9D1F0E94B42B2196E6CF98
:103A4000EC0FFD1FF5CF60E0C8018C0D9D1DDF91CF
:103A5000CF911F910F91FF90EF90DF90CF900C943A
:103A6000B42B1F920F920FB60F9211242F933F93F6
:103A70004F935F936F937F938F939F93AF93BF9376
:103A8000EF93FF9383E793E00E94B505FF91EF91D9
:103A9000BF91AF919F918F917F916F915F914F9166
:103AA0003F912F910F900FBE0F901F9018951F926E
:103AB0000F920FB60F9211242F938F939F93EF9332
:103AC000FF93E0918303F09184038081E091890367
:103AD000F0918A0382FD1BC0908180918C038F5FDF
:103AE0008F7320918D03821741F0E0918C03F0E0F9
:103AF000ED58FC4F958F80938C03FF91EF919F9130
:103B00008F912F910F900FBE0F901F90189580816D
:103B1000F4CF1F920F920FB60F9211242F933F9361
:103B20008F939F93AF93BF93809138039091390304
:103B3000A0913A03B0913B033091370323E0230F68
:103B40002D3758F50196A11DB11D209337038093A1
:103B5000380390933903A0933A03B0933B038091C9
:103B60003C0390913D03A0913E03B0913F03019629
:103B7000A11DB11D80933C0390933D03A0933E0390
:103B8000B0933F03BF91AF919F918F913F912F9140
:103B90000F900FBE0F901F90189526E8230F0296E6
:103BA000A11DB11DD2CFE3E7F3E01382128288EEAC
:103BB00093E0A0E0B0E084839583A683B78382E896
:103BC00091E09183808385EC90E09587848784ECF5
:103BD00090E09787868780EC90E0918B808B81ECDA
:103BE00090E0938B828B82EC90E0958B848B86ECBB
:103BF00090E0978B868B118E128E138E148EE0E1DF
:103C0000F4E084E991E0918380831282138214822C
:103C10001582E6E1F4E0918380831282138214829C
:103C20001582ECE1F4E09183808312821382148286
:103C30001582E2E2F4E0918380831282138214827F
:103C40001582E8E2F4E09183808312821382148269
:103C50001582E4E3F4E0918380831282138214825C
:103C60001582EEE2F4E09183808312821382148243
:103C70001582EAE3F4E09183808312821382148236
:103C80001582E0E4F4E0918380831282138214822F
:103C90001582E3E7F4E09183808312821382148219
:103CA000158260E085E00E949006E6EFF9E0E4917D
:103CB000A5E6B4E0EC93E2EEF9E0E491F0E0EE0F7B
:103CC000FF1FED52F64F8591949112969C938E931F
:103CD00011971B961C921B971D961C921D971C9664
:103CE0001C921C971A961C921A9719961C92199757
:103CF00018961C92189717961C92179716961C9256
:103D0000169715961C92159714961C921497139655
:103D10001C921397E2E5F4E086E395E0928B818BA9
:103D2000B683A5831482108289E0818381E0828337
:103D30008383ECE4F4E0138212828AE991E09183B8
:103D4000808380E590E09583848368EA71E086E46F
:103D500094E00C94440DCF93DF93CDB7DEB7CE54EF
:103D6000D1090FB6F894DEBF0FBECDBF789484B5ED
:103D7000826084BD84B5816084BD85B5826085BD67
:103D800085B5816085BD80916E00816080936E00F5
:103D900010928100809181008260809381008091E7
:103DA0008100816080938100809180008160809398
:103DB00080008091B10084608093B1008091B00058
:103DC00081608093B00080917A00846080937A0053
:103DD00080917A00826080937A0080917A0081607D
:103DE00080937A0080917A00806880937A001092A4
:103DF000C1006AE0CE01C1960E94AB1C64E6CE0110
:103E000082960E94AB1C68EA71E0CE01C1960E94C6
:103E10006D0C811108C070E060E0CE01C1960E9477
:103E20006D0C882381F06AEA71E0CE0101960E9450
:103E3000440DBE016F5F7F4F8AE00E94F41CCE01EB
:103E400001960E947F0D68EA71E0CE0182960E9481
:103E50006D0C811108C070E060E0CE0182960E9476
:103E60006D0C882381F069EA71E0CE0101960E9411
:103E7000440DBE016F5F7F4F84E60E94F41CCE01AB
:103E800001960E947F0DE0915704F091580413862B
:103E90001586148612861186108617821682158260
:103EA000148213821092560401E0BE016F5F7F4FAF
:103EB00080915704909158040E940F0B882309F4B5
:103EC00054C067E0CE0101960E94250798858913AA
:103ED000ECCF80915204811128C0809157049091B9
:103EE00058040E94D707BE016F5F7F4F809157042F
:103EF000909158040E94B80740E064EB8091570409
:103F0000909158040E94840780915704909158041E
:103F10000E943107182F80915704909158040E94F5
:103F2000D707111102C000935204109153048981E4
:103F3000803109F4ECC6CE0101960E945B0881171E
:103F400050F48091530480935304809156048F5F02
:103F500080935604AACF8981803111F48CE0F3CF8D
:103F6000CE0101960E945B08EECF61E086E00E94E0
:103F7000900661E086E00E944406E0918303F091A0
:103F8000840382E08083E0917F03F09180031082BC
:103F9000E0918103F091820380E1808310928B0392
:103FA000E0918703F091880386E08083E0918503A8
:103FB000F0918603808180618083E0918503F09198
:103FC0008603808188608083E0918503F091860379
:103FD000808180688083E0918503F09186038081F1
:103FE0008F7D80830E94DF0A60ED77E080E090E0C3
:103FF0000E94E60604E911E01A830983809100011A
:1040000090910101A0910201B09103018B839C83E7
:10401000AD83BE83CE0101960E944B0F8CE494E0E9
:104020000E94E8138FEA91E00E94460C85EB91E034
:104030000E94460C1A8309831B821C821D821E82E9
:1040400080E591E00E942F0544E050E0BE016D5FE5
:104050007F4F8FE090E00E94870DCE0101960E9475
:10406000360CCE0182960E947F0DCE01C1960E9431
:104070007F0D0E941907C0904403D0904503E09043
:104080004603F09047036C197D098E099F09603142
:1040900077428105910528F4CD28CE28CF2809F054
:1040A0009AC085EB91E00E94460C84E991E09A83E6
:1040B00089831B821C821D821E8280E591E00E9402
:1040C0002F0544E050E0BE016D5F7F4F8FE090E030
:1040D0000E94870DCE0101960E94360C0E9419079E
:1040E0006093440370934503809346039093470382
:1040F000E0915704F09158041386158614861286B1
:104100001186108617821682158214821382BE01D0
:104110006E5D7F4F80915704909158040E940F0B61
:1041200081118EC060E070E08EEF92EC60934003EE
:104130007093410380934203909343036AE0CE015E
:1041400082960E94AB1C64E6CE0101960E94AB1CD5
:104150008AA19BA1812C912C5401009721F00E94EF
:10416000AD264B015C0189819A81C12CD12C76014D
:10417000009721F00E94AD266B017C012091400345
:10418000309141034091420350914303C501B40172
:104190000E94352C4B015C01A70196010E94D12C95
:1041A00018160CF0ADC08CEC91E00E94460C61ED4D
:1041B00071E086E494E00E94F00C60E086E00E94EA
:1041C00044060E94DF0ACE0101960E947F0DCE01B7
:1041D00082960E947F0D6CE474E0CE0182960E946C
:1041E0001C168EA5843008F085C5CE0182960E94EB
:1041F000960E882309F47EC5CE0182960E94EC16A5
:10420000892B99F32DB63EB668EA71E0CE01CD96C2
:104210000E94440DCE0182960E94E21B97FD86C04B
:104220008A30910509F482C089831A8241E050E006
:10423000BE016F5F7F4FCE01CD960E94B20CEACFD8
:1042400067E0CE0182960E94250799A589136ACF5F
:1042500080915704909158040E94D707882309F44D
:1042600061CFBE016F5F7F4FCE0182960E940F0823
:10427000882309F457CF68E0CE0101960E942507F4
:10428000998589134FCF6A8170E0762F6627770F63
:10429000770F770F298148E0249F90011124262B66
:1042A000372B8AA18031D1F4688570E08F81AB0112
:1042B000481B5109CA019695982F8827979587958D
:1042C0000E94DB2CCB014097B90153E0660F771FAA
:1042D0005A95E1F760789C01260F371F213854EE7C
:1042E00035070CF41FCFB901330F880B990B0E94CF
:1042F0008C2A20E030E040E05CE30E94EB2A16CFFD
:10430000C701B6019058A50194010E94D12C18163E
:104310000CF057CF85ED91E00E94460C6AED71E0FC
:1043200086E494E00E94F00C61E048CF2396EEAC66
:10433000FFAC2397C70101962DB73EB7281B390B59
:104340000FB6F8943EBF0FBE2DBF4DB75EB74F5F9F
:104350005F4F6A01E114F10469F051E0E51AF108D8
:104360006DAD7EADA701C6010E94192FF601EE0DBD
:10437000FF1D108266E771E0C6010E94B12666E764
:1043800071E090E080E00E94B1267C01BC01CE018A
:1043900001960E94440D6EED71E0CE0101960E94DF
:1043A0006D0C182FCE0101960E947F0D112309F488
:1043B000C1C20E94190720E03CE546E255E00E9498
:1043C000042C27962CAF3DAF4EAF5FAF27970E94CE
:1043D000190720E03CE546E255E00E94042C20E865
:1043E0003EEE46E350E00E94042C2B962CAF3DAFEE
:1043F0004EAF5FAF2B970E94190720E03CE546E2E5
:1044000055E00E94042C20E83EEE46E350E00E9476
:10441000042C20E63AEE40E050E00E94042C2F9657
:104420002CAF3DAF4EAF5FAF2F970E94190720E032
:104430003CE546E255E00E94042C20E83EEE46E3CF
:1044400050E00E94042C20E63AEE40E050E00E944A
:10445000042C28EE33E040E050E00E94042C490197
:104460005A016FEA79E0CE0182960E945B0C67E9FF
:1044700079E0CE0182960E945B0CCE0182960E946A
:10448000320C67E879E0CE0182960E945B0C60E80E
:1044900079E0CE0182960E945B0C69E779E0CE015B
:1044A00082960E945B0C62E679E0CE0182960E94C1
:1044B0005B0C62E379E0CE0182960E945B0C66E0C1
:1044C00079E0CE0182960E945B0C61EC78E0CE012F
:1044D00082960E945B0C6CE578E0CE0182960E9489
:1044E0005B0C6CE378E0CE0182960E945B0C69E283
:1044F00078E0CE0182960E945B0C6DEF77E0CE01F2
:1045000082960E945B0C6AEE77E0CE0182960E9452
:104510005B0C6CEC77E0CE0182960E945B0C6CE841
:1045200077E0CE0182960E945B0C63E877E0CE01D3
:1045300082960E945B0C6EE277E0CE0182960E942A
:104540005B0C6CE277E0CE0182960E945B0C6DE121
:1045500077E0CE0182960E945B0C63E177E0CE01AA
:1045600082960E945B0C69E077E0CE0182960E9401
:104570005B0C66ED76E0CE0182960E945B0C6EECE1
:1045800076E0CE0182960E945B0C67EC76E0CE016D
:1045900082960E945B0C6DE776E0CE0182960E94C7
:1045A0005B0C63E576E0CE0182960E945B0C6AE0CC
:1045B000CE0101960E94AB1C60EE71E0CE01C19667
:1045C0000E94440DBE016F5F7F4FCE01C1960E94D5
:1045D000310D61E572E00E941B0DBC01CE01829697
:1045E0000E947E15CE01C1960E947F0DCE010196DC
:1045F0000E947F0D64E6CE0101960E94AB1C67E528
:1046000072E0CE01C1960E94440DBE016F5F7F4FE4
:10461000CE01C1960E94310D61E572E00E941B0D32
:10462000BC01CE0182960E947E15CE01C1960E94E9
:104630007F0DCE0101960E947F0D63E176E0CE01F1
:1046400082960E945B0C67E076E0CE0182960E9423
:104650005B0C61ED71E086E494E00E946D0C8823B0
:1046600031F063ED75E0CE0182960E945B0C6AED3D
:1046700071E086E494E00E946D0C882331F061EAD9
:1046800075E0CE0182960E945B0C66E875E0CE0173
:1046900082960E945B0C6BE575E0CE0182960E94CB
:1046A0004A0AC0904003D0904103E0904203F0904A
:1046B0004303A7019601C701B6010E94D62C60EC06
:1046C00072E081111BC026013701E89477F82FEFC3
:1046D0003FEF4FE75FE7C301B2010E94D62C811183
:1046E000ABC02FEF3FEF4FE75FE7C301B2010E947E
:1046F000852A18160CF0A0C064EC72E0CE018296F8
:104700000E948D0B66E575E0CE0182960E945B0CDF
:1047100061E575E0CE0182960E944A0A61E475E087
:10472000CE0182960E944A0A2AE027964CAD5DADE2
:104730006EAD7FAD2797CE0182960E949C0B6FE3F2
:1047400075E0CE0182960E944A0A6DE375E0CE01C3
:1047500082960E944A0A2AE02B964CAD5DAD6EAD62
:104760007FAD2B97CE0182960E949C0B6BE375E088
:10477000CE0182960E944A0A69E375E0CE018296D4
:104780000E944A0A2AE02F964CAD5DAD6EAD7FAD1A
:104790002F97CE0182960E949C0B67E375E0CE01B5
:1047A00082960E944A0A65E375E0CE0182960E94D5
:1047B0004A0A2AE0B501A401CE0182960E949C0B10
:1047C00063E375E0CE0182960E944A0A66EC74E0CB
:1047D000CE0182960E945B0C65E974E0CE01829660
:1047E0000E945B0C6BE874E0CE0182960E945B0C29
:1047F00063E874E0CE0182960E945B0C6BE774E084
:10480000CE0182960E945B0C61E070E080E090E057
:104810000E94E606CE0182960E94B80ECE018296D4
:104820000E94E714CE01CD960E947F0D0FB6F8943A
:104830003EBE0FBE2DBED9CC2FEF3FEF4FE75FE45A
:10484000C701B6010E94D12C18161CF468EC72E066
:1048500055CF2FEF3FEF4FE75FECC701B6010E9446
:10486000852A87FDF3CF20E030E0A901C701B6011A
:104870000E94852A87FF09C06DE2CE0182960E94C0
:10488000340AF7FAF094F7F8F0942AE037ED43EAA7
:104890005BE3C701B6010E94362C2B013C010E944C
:1048A000A22C6B017C010E948A2A9B01AC01C301EE
:1048B000B2010E94352C2B013C012AE0B701A60170
:1048C000CE0182960E949C0B6EE2CE0182960E94DF
:1048D000340A20E030E040E251E4C301B2010E941A
:1048E000EB2A2B013C010E94A22C6B01F12CE12C44
:1048F0002AE0B701A601CE0182960E949C0BC70157
:10490000B6010E948A2A9B01AC01C301B2010E9438
:10491000352C20E030E040E251E40E94EB2A0E9476
:10492000A22CAB0170E060E02AE0CE0182960E94EA
:104930009C0BE8CEB701CE0101960E94440D6CECB1
:1049400072E0CE0101960E946D0C182FCE010196E7
:104950000E947F0D112309F483C06BE674E0CE0141
:1049600082960E945B0C6CE474E0CE0182960E94F9
:104970005B0CCE0182960E94320C6AE474E0CE0198
:1049800082960E945B0C6CE374E0CE0182960E94DA
:104990004A0A64E6CE0101960E94AB1CBE016F5F1D
:1049A0007F4FCE0182960E947715CE0101960E941C
:1049B0007F0D6AE374E0CE0182960E945B0C64E294
:1049C00074E0CE0182960E944A0A6AE0CE01019606
:1049D0000E94AB1CBE016F5F7F4FCE0182960E948A
:1049E0007715CE0101960E947F0D62E274E0CE0140
:1049F00082960E945B0C6CE074E0CE0182960E946D
:104A00004A0A609140037091410380914203909162
:104A100043031AAA19AA1CAA1BAA1EAA1DAA8E0120
:104A20000F5F1F4F22E044E00E948F26009799F00D
:104A3000BC01CE01C1960E94F00CBE016F5C7F4F9D
:104A4000CE0182960E947E15CE01C1960E947F0DF6
:104A50006AE074E0D5CECE01C1960E94DE0CEDCFA7
:104A6000B701CE0101960E94440D6BED72E0CE01BC
:104A700001960E946D0C182FCE0101960E947F0DA9
:104A8000112329F0CE0182960E94B80ECBCEB70139
:104A9000CE01C7960E94440D68EE72E0CE010196E9
:104AA0000E94440D4D815E818BAD9CAD84179507AE
:104AB00078F08FA998AD009759F069817A816115D6
:104AC000710531F00E940B2F11E0892B09F010E0E5
:104AD000CE0101960E947F0D112309F400C164E705
:104AE00071E0C7010E94B1260E94460C64E771E0A4
:104AF00090E080E00E94B12662E771E00E94B1265A
:104B00006C0162E771E090E080E00E94B1267C01D8
:104B100060E771E0C6010E94B12660E771E090E0B5
:104B200080E00E94B1266C0160E771E0C7010E943D
:104B3000B12660E771E090E080E00E94B1267C0140
:104B4000B601CE0101960E94440DBE016F5F7F4FFA
:104B50008AE00E94F41CCE0101960E947F0DB701ED
:104B6000CE0101960E94440DBE016F5F7F4F84E627
:104B70000E94F41CCE0101960E947F0D6AEF73E043
:104B8000CE0182960E945B0C62EE73E0CE018296AB
:104B90000E945B0CCE0182960E94320C62ED73E0A3
:104BA000CE0182960E945B0C6BEC73E0CE01829684
:104BB0000E945B0C64EC73E0CE0182960E945B0C59
:104BC0006DEA73E0CE0182960E945B0C6CE773E0A5
:104BD000CE0182960E945B0C69E473E0CE0182965E
:104BE0000E945B0C61E473E0CE0182960E945B0C34
:104BF0006AE373E0CE0182960E945B0C68E073E08A
:104C0000CE0182960E945B0CB601CE0101960E94F5
:104C1000440D65EF72E0CE01C1960E94440DBE01C5
:104C20006F5F7F4FCE01C1960E94310D67E173E047
:104C30000E941B0DBC01CE0182960E947E15CE0102
:104C4000C1960E947F0DCE0101960E947F0DB70193
:104C5000CE0101960E94440D6DE173E0CE01C19634
:104C60000E94440DBE016F5F7F4FCE01C1960E942E
:104C7000310D67E173E00E941B0DBC01CE018296ED
:104C80000E947E15CE01C1960E947F0DCE01019635
:104C90000E947F0D68ED72E0CE0182960E945B0C4F
:104CA00060ED72E0CE0182960E945B0C68EC72E0CF
:104CB000CE0182960E945B0C61E070E080E090E0A3
:104CC0000E94E606CE0182960E94B80ECE01829620
:104CD0000E94E714CE01C7960E947F0DA3CD61EB21
:104CE00072E0CE0182960E945B0CCE0182960E94F9
:104CF000320CE2CF80E090E0892B09F4BAC90E941F
:104D0000A105882309F4B5C90E940000B2C91D306D
:104D100008F017C923C986E494E00C947F0DEF9244
:104D20000F931F93CF93DF93E80134E047FD34E105
:104D3000042E000C550B57FF03C0519541955109A6
:104D4000E32E022F242FAE010E94DD26CE01DF913B
:104D5000CF911F910F91EF900895662777270C94BC
:104D60003C2849E754E00E94B6260895FA01A19133
:104D7000B081009719F41097E1F0CD01DC01CD016D
:104D80000D90002011F4C00113C0FB0121912223DA
:104D900019F02015D9F7F3CFFB012191201519F453
:104DA0001E92119606C02223C1F70D900020A1F794
:104DB000D001FA01A193B0830895A9E0B0E0E3EE39
:104DC000F6E20C94D32B6A01F22EB02E102FFBE3E7
:104DD000AF2EA01608F41BE31F5F012F27E0AE01E2
:104DE0004F5F5F4F0E948C29BC018981982F997079
:104DF000913009F43FC09BE2E1FC04C09E2D91700C
:104E0000E0FC3AC05E2D5071E82FE87083FF46C089
:104E100084E0911101C083E0EF2DE81B8F1508F0AD
:104E2000E0E0D6018E2F20E2552351F1992329F09D
:104E3000D6019C93C60101966C0196012D5F3F4FF0
:104E4000E2FE24C08EE4D6018C9391E411969C93EB
:104E5000119712968C93D9018E2F90E281111BC06D
:104E6000E20FF32FF11D10828EEF9FEF2996ECE0F9
:104E70000C94EF2B9DE2C6CF90E2C4CF2D938150CE
:104E80008111FCCFCE0ED11CE0E0D0CF8EE6D60152
:104E90008C9391E6DBCF9D938150E0CF482F4470F7
:104EA00082FF3DC084E0911101C083E08F1510F4B2
:104EB000EF2DE81BD6018E2F20E2552309F199230F
:104EC00029F0D6019C93C60101966C0196012D5FD5
:104ED0003F4FE2FE1BC089E4D6018C938EE411960D
:104EE0008C93119786E412968C93D9018E2F90E2C1
:104EF000882309F4B5CF9D938150FACF2D9381502B
:104F00008111FCCFCE0ED11CE0E0D9CF89E6D601CD
:104F10008C938EE611968C93119786E6E4CF9B01D5
:104F200077FF02C030E020E0A1E0B0E0911102C0C4
:104F3000B0E0A0E0F9013196AE0FBF1F8B2C912C91
:104F4000BB2009F461C05401EFEFAE1ABE0AAA0DEE
:104F5000BB1DFA161B0619F014F04F2D4A1B5111F8
:104F600088C0E3FC59C07601A42FB0E2A1114FC064
:104F7000C40ED11C992309F45BC040E0D601119600
:104F8000F60190836D01552309F448C0012F060FE7
:104F90009A81582F507184FF03C0913309F4015056
:104FA00010160CF047C0093008F008E0EEE2FE2EC3
:104FB0005B01A01AB10885019194819491082F3F5B
:104FC000320729F4D601FC92F60131966F0162177F
:104FD000730794F1021713077CF5DB01A21BB30BD7
:104FE000AA24A394B12CAC0EBD1EAA0DBB1D119614
:104FF0008C9121503109D601119628153905F4F00C
:10500000F60180836D01DBCFB12CA12CA0CFF7017D
:10501000B1937F01A150AACF9111B0CFD601942FA7
:1050200050E302C05D9391509111FCCFC40ED11C8E
:1050300040E0ACCF01E0BACF80E3DBCF621773076B
:1050400031F4963388F4953311F4552369F0F60161
:105050008083FD01842F90E2811108C0A40FB11D4F
:105060001C9290E080E002CF81E3F1CF91938150D8
:10507000F3CF911183CF8ACFB0E0A0E0E2E4F8E271
:105080000C94D32B5C017B016115710519F0DB01D8
:105090008D939C9385010F5F1F4FF501D0818D2F5C
:1050A00090E00E94642A6C01892BB9F5DD32B9F5D4
:1050B0000F5F1F4FD5011196DC91C1E05801F1E05F
:1050C000AF1AB10843E050E060E770E0C5010E940C
:1050D0006D2A892B69F5680182E0C80ED11C45E074
:1050E00050E06BE670E0C6010E946D2A892B21F426
:1050F000680197E0C90ED11CE114F10419F0D70141
:10510000CD92DC9260E070E080E89FEFC111FFC0BB
:1051100060E070E080E89FE7FAC05801BBCFDB3267
:1051200029F485010E5F1F4FF501D181C0E0C6CF84
:1051300043E050E068E670E0C5010E946D2A892BCB
:10514000E9F0F80110E000E020E030E0A9015F01A3
:10515000B0ED8B2E8D0E89E08815C8F19C2E6894D9
:1051600091F88C2F8870C2FF16C0811102C00F5FAA
:105170001F4F3196D501DC91C92DE9CFE114F1041F
:1051800029F00E5F1F4FF7011183008360E070E08C
:1051900080EC9FE7BCC0882311F001501109A5E005
:1051A000B0E00E94C22B9B01AC01220F331F441FB1
:1051B000551F280D311D411D511D283999E9390709
:1051C000490799E15907A8F2C6609C2ED2CFAEEFED
:1051D0008A1206C0C3FD3CC09C2E689493F8C9CFC8
:1051E000DF7DD534A9F580818D3239F4C061DF01CE
:1051F0001296818162E070E006C0DF018B32C1F35C
:10520000119661E070E080535D01A61AB70A8A30FA
:10521000F8F4E0E8CE16ECE0DE065CF4B601660FCA
:10522000771F660F771FC60ED71ECC0CDD1CC80E6D
:10523000D11C5D01FFEFAF1ABF0A8C9180538A30F9
:10524000A8F1C4FF03C0D194C194D1080C0D1D1D59
:10525000C1FF09C0E114F10431F081E0A81AB108DE
:10526000D701AD92BC92CA01B9010E948A2AC370CB
:10527000C33009F490584B015C0120E030E0A901F3
:105280000E94852A882309F440C0CFE9D0E017FFA7
:1052900005C0119501951109C7E8D0E06E01B8E18C
:1052A000CB1AD10880E2E82EF12C0FC0D501B1CF86
:1052B000FE0125913591459154910E191F09C501A3
:1052C000B4010E94EB2A4B015C01D501C4010E150B
:1052D0001F0574F72497F594E794CC16DD06A9F71B
:1052E0008A2F880F8B2F881F8F3F49F020E030E0F6
:1052F000A901C501B4010E94852A811106C082E27C
:1053000090E090937C0480937B04C501B401CDB7F9
:10531000DEB7ECE00C94EF2B283008F027E03327C1
:10532000DA01990F311D87FD9160009661057105C5
:1053300039F432602E5F3D9330E32A95E1F708950A
:105340009F3F30F080387105610509F03C5F3C5F9C
:105350003D93913008F08068911DDF93CF931F93A8
:105360000F93FF92EF92192F987F9695E92F9695BC
:105370009695E90FFF27E350FF4F99273327EE2437
:10538000FF24A701E70105900894079428F4360F3D
:10539000E71EF81E491F511D660F771F881F991FB2
:1053A0000694A1F70590079428F4E70EF81E491F0C
:1053B000561FC11D770F881F991F661F0694A1F7FE
:1053C0000590079428F4F80E491F561FC71FD11DDA
:1053D000880F991F661F771F0694A1F70590079401
:1053E00020F4490F561FC71FD81F990F661F771F3C
:1053F000881F0694A9F784911095177041F0D695EF
:10540000C79557954795F794E7941A95C1F7E3EA3E
:10541000F0E06894159015913591659195910590FE
:105420007FE27395E118F10A430B560BC90BD009C3
:10543000C0F7E10CF11E431F561FC91FD01D7EF49B
:10544000703311F48A95E6CFE894015030F0080FDC
:105450000AF40027021708F4202F2395022F7A332D
:1054600028F079E37D932A95E9F710C07D932A957A
:1054700089F6069497956795379517951794E118CF
:10548000F10A430B560BC90BD00998F023957E9176
:1054900073957A3308F070E37C932013B8F77E910C
:1054A00070617D9330F0839571E37D9370E32A956D
:1054B000E1F71124EF90FF900F911F91CF91DF91B1
:1054C000992787FD9095089591110C94582B80325F
:1054D00019F089508550C8F70895FB01DC0141504F
:1054E000504088F08D9181341CF08B350CF4805E37
:1054F000659161341CF06B350CF4605E861B6111A4
:1055000071F3990B0895881BFCCF0E94C72A08F4F9
:1055100081E00895E89409C097FB3EF4909580954A
:10552000709561957F4F8F4F9F4F9923A9F0F92F69
:1055300096E9BB279395F695879577956795B795E7
:10554000F111F8CFFAF4BB0F11F460FF1BC06F5FCD
:105550007F4F8F4F9F4F16C0882311F096E911C0DF
:10556000772321F09EE8872F762F05C0662371F000
:1055700096E8862F70E060E02AF09A95660F771F14
:10558000881FDAF7880F9695879597F90895990FF0
:105590000008550FAA0BE0E8FEEF16161706E807FD
:1055A000F907C0F012161306E407F50798F0621B1E
:1055B000730B840B950B39F40A2661F0232B242BF3
:1055C000252B21F408950A2609F4A140A6958FEF12
:1055D000811D811D08950E94FE2A0C94722B0E9449
:1055E000642B38F00E946B2B20F0952311F00C9463
:1055F0005B2B0C94612B11240C94A62B0E94832B03
:1056000070F3959FC1F3950F50E0551F629FF00115
:10561000729FBB27F00DB11D639FAA27F00DB11D2E
:10562000AA1F649F6627B00DA11D661F829F2227B7
:10563000B00DA11D621F739FB00DA11D621F839F3E
:10564000A00D611D221F749F3327A00D611D231F14
:10565000849F600D211D822F762F6A2F11249F5762
:1056600050409AF0F1F088234AF0EE0FFF1FBB1F65
:10567000661F771F881F91505040A9F79E3F510524
:1056800080F00C945B2B0C94A62B5F3FE4F3983EC8
:10569000D4F3869577956795B795F795E7959F5FCE
:1056A000C1F7FE2B880F911D9695879597F9089560
:1056B00099278827089597F99F6780E870E060E050
:1056C00008959FEF80EC089500240A94161617069B
:1056D00018060906089500240A94121613061406E3
:1056E00005060895092E0394000C11F4882352F046
:1056F000BB0F40F4BF2B11F460FF04C06F5F7F4FFE
:105700008F4F9F4F089557FD9058440F551F59F0E4
:105710005F3F71F04795880F97FB991F61F09F3F9E
:1057200079F087950895121613061406551FF2CFC7
:105730004695F1DF08C0161617061806991FF1CF17
:1057400086957105610508940895E894BB2766273E
:105750007727CB0197F90895F999FECF92BD81BDC6
:10576000F89A992780B50895262FF999FECF1FBA88
:1057700092BD81BD20BD0FB6F894FA9AF99A0FBE7A
:10578000019608950E94262CA59F900DB49F900D20
:10579000A49F800D911D112408952F923F924F9246
:1057A0005F926F927F928F929F92AF92BF92CF92B1
:1057B000DF92EF92FF920F931F93CF93DF93CDB7BA
:1057C000DEB7CA1BDB0B0FB6F894DEBF0FBECDBF32
:1057D00009942A88398848885F846E847D848C8403
:1057E0009B84AA84B984C884DF80EE80FD800C810C
:1057F0001B81AA81B981CE0FD11D0FB6F894DEBFEF
:105800000FBECDBFED010895A1E21A2EAA1BBB1B4E
:10581000FD010DC0AA1FBB1FEE1FFF1FA217B3077C
:10582000E407F50720F0A21BB30BE40BF50B661F92
:10583000771F881F991F1A9469F760957095809556
:1058400090959B01AC01BD01CF010895A29FB001CD
:10585000B39FC001A39F700D811D1124911DB29FA4
:10586000700D811D1124911D08955058BB27AA2742
:105870000E944D2C0C94722B0E94642B38F00E94D5
:105880006B2B20F039F49F3F19F426F40C94612B14
:105890000EF4E095E7FB0C945B2BE92F0E94832B21
:1058A00058F3BA17620773078407950720F079F455
:1058B000A6F50C94A52B0EF4E0950B2EBA2FA02D77
:1058C0000B01B90190010C01CA01A0011124FF27AD
:1058D000591B99F0593F50F4503E68F11A16F040A8
:1058E000A22F232F342F4427585FF3CF46953795A7
:1058F0002795A795F0405395C9F77EF41F16BA0B6C
:10590000620B730B840BBAF09150A1F0FF0FBB1F19
:10591000661F771F881FC2F70EC0BA0F621F731F62
:10592000841F48F4879577956795B795F7959E3FBF
:1059300008F0B0CF9395880F08F09927EE0F979550
:10594000879508950E948B2B88F09F5798F0B92F68
:105950009927B751B0F0E1F0660F771F881F991FA4
:105960001AF0BA95C9F714C0B13091F00E94A52B76
:10597000B1E008950C94A52B672F782F8827B85F86
:1059800039F0B93FCCF3869577956795B395D9F7FC
:105990003EF490958095709561957F4F8F4F9F4F06
:1059A00008950E94C72A08F48FEF08950E94C72A1D
:1059B000880B990B089597FB072E16F4009407D0D7
:1059C00077FD09D00E94EF2C07FC05D03EF490959E
:1059D00081959F4F0895709561957F4F0895AA1BFB
:1059E000BB1B51E107C0AA1FBB1FA617B70710F0CA
:1059F000A61BB70B881F991F5A95A9F780959095FC
:105A0000BC01CD010895EE0FFF1F0590F491E02D2C
:105A100009940F931F93CF93DF938230910510F475
:105A200082E090E0E0917F04F091800430E020E09B
:105A3000B0E0A0E0309799F42115310509F44AC08F
:105A4000281B390B24303105D8F58A819B816115DB
:105A5000710589F1FB0193838283FE0111C04081AE
:105A600051810281138148175907E0F048175907FF
:105A700099F4109761F012960C93129713961C9359
:105A80003296CF01DF91CF911F910F91089500932E
:105A90007F0410938004F4CF2115310551F0421793
:105AA000530738F0A901DB019A01BD01DF01F801BC
:105AB000C1CFEF01F9CF9093800480937F04CDCFC5
:105AC000FE01E20FF31F8193919322503109398334
:105AD0002883D7CF20917D0430917E04232B41F47D
