:100000000C94C5040C94ED040C94ED040C94ED04D4
:100010000C94ED040C94ED040C94ED040C94ED049C
:100020000C94ED040C94ED040C94ED040C94ED048C
:100030000C94ED040C94ED040C94ED040C94ED047C
:100040000C94381D0C94ED040C94061D0C94E01CCB
:100050000C94ED040C94ED040C94ED040C94ED045C
:100060000C94ED040C94ED044E414E494E49545904
:10007000494E46CDCCCC3D0AD7233C17B7D1387773
:10008000CC2B329595E6241FB14F0A000020410089
:1000900000C84200401C4620BCBE4CCA1B0E5AAED3
:1000A000C59D74005EBCE2613FDD83C29C7E20A3DF
:1000B000FD1F419DC3217FFCA2401E5F01E3BD3EA9
:1000C0006082DC237D9FC1421CFEA0E1BF5D0380F6
:1000D000DE3C62BEE0025CDF81633D7C22C09E1D8F
:1000E00043A1FF4618FAA427799BC584DA3866E550
:1000F000BB5907DB856739BAE406581947A5FB7871
:1001000026C49A653BD987045AB8E6A7F91B45C6A9
:10011000987A24F8A6441A99C7257B3A6486D85B56
:1001200005E7B98CD2306EEDB3510F4E10F2AC2F03
:100130007193CD114FADF3702ECC92D38D6F31B240
:10014000EC0E50AFF1134DCE90722C6D33D18F0C5D
:1001500052B0EE326C8ED0530DEFB1F0AE4C129126
:10016000CF2D73CA947628ABF517490856B4EA69BF
:1001700037D58B5709EBB536688AD495CB2977F4F8
:10018000AA4816E9B7550B88D6346A2B7597C94A21
:1001900014F6A8742AC896154BA9F7B6E80A54D7DE
:1001A000896B35000000080002010000030407000D
:1001B000000000000000003C2F68746D6C3E003CA5
:1001C0002F626F64793E003C623E507265736D65CC
:1001D000726F76616E69652E2E2E2050726F736974
:1001E0006D2063616B616A74653C2F623E3C2F63D6
:1001F000656E7465723E003C63656E7465723E3C6C
:1002000068333E536572766572207072696A616CFC
:100210002064617461207A20666F726D756CC3A171
:1002200072613A3C2F68333E003C626F64793E0055
:100230003C2F686561643E003C7469746C653E489F
:1002400054545020776562736572766572202D2054
:1002500041726475696E6F202B2045746865726EFB
:1002600065743C2F7469746C653E003C6D65746107
:1002700020687474702D65717569763D27526566C6
:10028000726573682720636F6E74656E743D2735E1
:100290003B2075726C3D2F27202F3E003C6D65740E
:1002A0006120636861727365743D277574662D38CB
:1002B000273E003C686561643E003C68746D6C3E9E
:1002C000003C21444F43545950452068746D6C3EA6
:1002D00000436F6E74656E742D547970653A2074A6
:1002E0006578742F68746D6C00485454502F312E0B
:1002F0003120323030204F4B003C626F64793E0039
:100300003C2F686561643E003C7469746C653E48CE
:1003100054545020776562736572766572202D2083
:1003200041726475696E6F202B2045746865726E2A
:1003300065743C2F7469746C653E003C6C696E6B2F
:100340002072656C3D277374796C6573686565749C
:100350002720687265663D2768747470733A2F2F82
:100360006D617863646E2E626F6F74737472617006
:1003700063646E2E636F6D2F626F6F74737472613E
:10038000702F332E342E312F6373732F626F6F747F
:1003900073747261702E6D696E2E637373273E00E5
:1003A0003C6D657461206E616D653D27766965778A
:1003B000706F72742720636F6E74656E743D27775B
:1003C000696474683D6465766963652D77696474F2
:1003D000682C20696E697469616C2D7363616C654A
:1003E0003D31273E003C6D65746120636861727326
:1003F00065743D277574662D38273E003C6865613D
:10040000643E003C68746D6C3E003C21444F435494
:100410005950452068746D6C3E00436F6E74656E74
:10042000742D547970653A20746578742F68746DF2
:100430006C00485454502F312E3120323030204F30
:100440004B003C2F68746D6C3E003C2F626F6479EA
:100450003E003C2F63656E7465723E003C68343E1E
:100460005665727A696120667265652D312E302E6F
:1004700030206275696C642031302E204A756C2002
:10048000323032303C2F68343E003C68333E417598
:10049000746F723A204D617274696E2043686C65A6
:1004A000626F766563202D206D617274696E697567
:1004B00073393640676D61696C2E636F6D202D2036
:1004C00068747470733A2F2F61726475696E6F2E41
:1004D000706870352E736B3C2F68333E0020C2B0BD
:1004E0004300416B7475C3A16C6E61207465706CC0
:1004F0006F74612073656E7A6F7261204453313876
:100500004232303A20003C6469762069643D2263BF
:100510006F756E74646F776E223E3C2F6469763E11
:10052000003C623E3C666F6E7420636F6C6F723D80
:1005300027726564273E56C3BD737475703A2056A2
:1005400079706E7574C3BD3C2F666F6E743E3C2F20
:10055000623E003C623E3C666F6E7420636F6C6F5F
:10056000723D27677265656E273E56C3BD7374750D
:10057000703A205A61706E7574C3BD3C2F666F6E01
:10058000743E3C2F623E003C2F666F726D3E3C68AD
:10059000723E003C696E70757420747970653D27F9
:1005A0007375626D69742720636C6173733D276294
:1005B000746E2062746E2D73756363657373272088
:1005C00076616C75653D275A6170C3AD7361C5A5D1
:1005D000273E003C666F726D20616374696F6E3DEB
:1005E000272F616374696F6E2E68746D6C27206DA0
:1005F0006574686F643D27676574273E003C6365DA
:100600006E7465723E3C68333E5A6164616A74651B
:100610002064C3A1746120707265207465726D6F6F
:10062000737461742028627564C3BA20756C6FC5D9
:10063000BE656EC3A920646F20454550524F4D29B9
:100640003A3C2F68333E003C626F64793E003C2F99
:10065000686561643E003C7469746C653E4854543E
:100660005020776562736572766572202D20417225
:100670006475696E6F202B2045746865726E6574B1
:100680003C2F7469746C653E003C2F736372697013
:10069000743E007D2C2031303030293B0074696D70
:1006A000656C656674202D3D20313B007D00646FD4
:1006B00063756D656E742E676574456C656D656EEA
:1006C00074427949642822636F756E74646F776E23
:1006D00022292E696E6E657248544D4C203D20745F
:1006E000696D656C656674202B20222073656BC371
:1006F000BA6E6420646F207265C5A17461727475EE
:10070000223B007D20656C7365207B00646F637500
:100710006D656E742E676574456C656D656E7442AB
:100720007949642822636F756E74646F776E22292D
:100730002E696E6E657248544D4C203D20225265E4
:10074000C5A1746172742E2E2E223B00636C65610C
:1007500072496E74657276616C28646F776E6C6F27
:10076000616454696D6572293B0069662874696D1E
:10077000656C656674203C3D2030297B0076617293
:1007800020646F776E6C6F616454696D6572203D93
:1007900020736574496E74657276616C2866756E37
:1007A0006374696F6E28297B007661722074696DAD
:1007B000656C656674203D2031303B003C7363728C
:1007C00069707420747970653D27746578742F6A38
:1007D000617661736372697074273E003C6C696E68
:1007E0006B2072656C3D277374796C657368656501
:1007F000742720687265663D2768747470733A2F99
:100800002F6D617863646E2E626F6F7473747261A2
:100810007063646E2E636F6D2F626F6F747374728A
:1008200061702F332E342E312F6373732F626F6FED
:100830007473747261702E6D696E2E637373273ECC
:10084000003C6D657461206E616D653D277669655C
:1008500077706F72742720636F6E74656E743D27B6
:1008600077696474683D6465766963652D7769644A
:1008700074682C20696E697469616C2D7363616C96
:10088000653D31273E003C6D65746120687474706D
:100890002D65717569763D275265667265736827A7
:1008A00020636F6E74656E743D273130273B202FB7
:1008B0003E003C6D657461206E616D653D2761751C
:1008C00074686F722720636F6E74656E743D274D78
:1008D000617274696E2043686C65626F7665632728
:1008E0003E003C6D65746120636861727365743DA0
:1008F000277574662D38273E003C686561643E00AC
:100900003C68746D6C3E003C21444F435459504543
:100910002068746D6C3E00436F6E74656E742D5468
:100920007970653A20746578742F68746D6C00482E
:100930005454502F312E3120323030204F4B000094
:10094000000000250028002B0000000000240027E4
:10095000002A0000000000230026002900040404EF
:100960000404040404020202020202030303030358
:100970000301020408102040800102040810200135
:10098000020408102000821D7E2511241FBECFEF17
:10099000D8E0DEBFCDBF13E0A0E0B1E0E6EAF7E5C6
:1009A00002C005900D92A434B107D9F724E0A4E465
:1009B000B3E001C01D92AF38B207E1F714E0C4EC18
:1009C000D4E004C02197FE010E94A129C33CD107B5
:1009D000C9F70E945A1E0C94C62B0C9400008CBDC3
:1009E0009DBD0895FC01818D928D08950895AF926B
:1009F000BF92CF92DF92EF92FF920F931F93CF930C
:100A0000DF936C017B018B01040F151FEB015E016D
:100A1000AE18BF08C017D10759F06991D601ED9102
:100A2000FC910190F081E02DC6010995892B79F7A1
:100A3000C501DF91CF911F910F91FF90EF90DF9053
:100A4000CF90BF90AF900895FC01538D448D252F1A
:100A500030E0842F90E0821B930B541710F0CF9658
:100A6000089501970895FC01918D828D981761F08A
:100A7000A28DAE0FBF2FB11D5D968C91928D9F5FA1
:100A80009F73928F90E008958FEF9FEF0895FC0180
:100A9000918D828D981731F0828DE80FF11D858D33
:100AA00090E008958FEF9FEF0895FC01918D228DC6
:100AB000892F90E0805C9F4F821B91098F7399274B
:100AC000089581E893E00E94550521E0892B09F4FF
:100AD00020E0822F089580E090E0892B29F00E9489
:100AE000610581110C9400000895FC01A48DA80FEC
:100AF000B92FB11DA35ABF4F2C91848D90E0019660
:100B00008F739927848FA689B7892C93A089B1897F
:100B10008C91837080648C93938D848D981306C020
:100B20000288F389E02D80818F7D80830895EF9284
:100B3000FF920F931F93CF93DF93EC0181E0888F97
:100B40009B8D8C8D98131AC0E889F989808185FF67
:100B500015C09FB7F894EE89FF896083E889F98909
:100B600080818370806480839FBF81E090E0DF910B
:100B7000CF911F910F91FF90EF900895F62E0B8D5E
:100B800010E00F5F1F4F0F731127E02E8C8D8E1119
:100B90000CC00FB607FCFACFE889F989808185FF80
:100BA000F5CFCE010E947505F1CFEB8DEC0FFD2F37
:100BB000F11DE35AFF4FF0829FB7F8940B8FEA893B
:100BC000FB8980818062CFCFCF93DF93EC01888D4A
:100BD0008823B9F0AA89BB89E889F9898C9185FDB8
:100BE00003C0808186FD0DC00FB607FCF7CF8C9146
:100BF00085FFF2CF808185FFEDCFCE010E94750584
:100C0000E9CFDF91CF91089590E0FC01ED55FE4FC3
:100C10002491FC01EF58F64F3491FC01E35AF64F52
:100C2000E491EE23C9F0222339F0233001F1A8F436
:100C3000213019F1223029F1F0E0EE0FFF1FE15CC5
:100C4000F64FA591B4918FB7F894EC91611126C03D
:100C500030953E233C938FBF08952730A9F028306C
:100C6000C9F0243049F7809180008F7D03C08091C6
:100C700080008F7780938000DFCF84B58F7784BD2D
:100C8000DBCF84B58F7DFBCF8091B0008F778093D1
:100C9000B000D2CF8091B0008F7DF9CF3E2BDACF5C
:100CA000CF93DF9390E0FC01EF58F64F2491835AE5
:100CB000964FFC0184918823D1F090E0880F991F12
:100CC000FC01E75BF64FA591B491FC01E15CF64FA6
:100CD000C591D49161110EC09FB7F8948C91E22F09
:100CE000E0958E238C932881E223E8839FBFDF91D8
:100CF000CF9108958FB7F894EC91E22BEC938FBFCE
:100D0000F6CF3FB7F89480914A0390914B03A0919E
:100D10004C03B0914D0326B5A89B05C02F3F19F099
:100D20000196A11DB11D3FBFBA2FA92F982F88276B
:100D3000BC01CD01620F711D811D911D42E0660F46
:100D4000771F881F991F4A95D1F708958F929F9218
:100D5000AF92BF92CF92DF92EF92FF926B017C0134
:100D60000E9481064B015C01C114D104E104F1042D
:100D7000B9F00E948106681979098A099B09683EC1
:100D800073408105910580F321E0C21AD108E10882
:100D9000F10888EE880E83E0981EA11CB11CE4CFF8
:100DA000FF90EF90DF90CF90BF90AF909F908F908B
:100DB00008952FB7F894609146037091470380918E
:100DC0004803909149032FBF0895DC0180E06150F2
:100DD00038F0ED91E827F0E0ED55FF4F8491F7CF23
:100DE0000895DC012C911196ED91FC91F89481818C
:100DF000822B81839281322F30959323928387E0D7
:100E000090E00197F1F781818323818383E290E071
:100E10000197F1F790817894EFECF0E03197F1F7DA
:100E2000922381E009F480E00895FC019081018023
:100E3000F281E02D292F209560FF14C0F894828163
:100E4000822382838181892B8183A3E2B0E0119781
:100E5000F1F78281982B9283789487ED90E0019747
:100E6000F1F70895F8948281822382838181892B0E
:100E70008183AFEFB0E01197F1F78281982B9283D5
:100E800078948FE090E0EBCFDF92EF92FF920F9398
:100E90001F93CF93DF93EC01D62EE42E08E010E0F1
:100EA000FF24F39461E08D2D8F2109F460E0CE01E1
:100EB0000E941507FF0C01501109A1F7E11010C0A5
:100EC000F894E981FA8191818881809589238183D1
:100ED000E981FA819281888180958923828378943F
:100EE000DF91CF911F910F91FF90EF90DF900895C8
:100EF000EF92FF920F931F93CF93DF938C017B01AF
:100F000040E065E50E944407E70188E0E80EF11C37
:100F1000699140E0C8010E944407CE15DF05C1F782
:100F2000DF91CF911F910F91FF90EF900895FC01F9
:100F300090810180F281E02DF8948181292F209504
:100F40008223818378943DE743E050E0315029F1DA
:100F5000DA011197F1F780818923C1F3F894828136
:100F6000822382838181892B81837894ABE7B7E0E8
:100F70001197F1F7F894818182238183A3E1B1E095
:100F80001197F1F78081982381E009F080E078944F
:100F9000E3E6F6E03197F1F7089580E00895AF9227
:100FA000BF92CF92DF92EF92FF920F931F93CF9356
:100FB000DF938B01BC0180916504909166040E94CF
:100FC000780740E06EEB80916504909166040E9482
:100FD0004407E801680189E0C80ED11CA0906504AF
:100FE000B090660488E0E82EF12C10E001E0C50125
:100FF0000E94F1068111102B000F81E0E81AF10820
:10100000B1F71993CC16DD0649F7809165049091EC
:1010100066040E94970791E0813009F090E0892FE3
:10102000DF91CF911F910F91FF90EF90DF90CF90C4
:10103000BF90AF9008950F931F93CF93DF93CDB7D9
:10104000DEB729970FB6F894DEBF0FBECDBF8C0177
:1010500080916504909166040E949707811102C0F7
:1010600080E01FC0BE016F5F7F4FC8010E94CF07A5
:101070008823B1F368E0CE0101960E94E5069985C8
:101080008913EECF8D818F33B9F020F48F3141F782
:1010900089E007C08F3521F08F3711F78CE001C050
:1010A0008BE029960FB6F894DEBF0FBECDBFDF915F
:1010B000CF911F910F9108958AE0F3CFFC01208119
:1010C0002EBD9B012150310941F051810DB407FE25
:1010D000FDCF4EB55EBD4193F5CF61507109860FCE
:1010E000971F0DB407FEFDCF2EB5FC012083089598
:1010F000E0917B03F0917C03808190917A03892BAE
:1011000080830895E0917B03F0917C03908180912E
:101110007A0380958923808308958EBD00000DB4E5
:1011200007FEFDCF8EB50895AF92BF92CF92DF92AA
:10113000EF92FF920F931F93CF93DF93CDB7DEB75C
:1011400028970FB6F894DEBF0FBECDBF8C017B0190
:101150006A0180917E038333E1F45801A40EB51E29
:10116000A016B10609F46FC00E94820880EF0E94A9
:101170008D08812F0E948D08802F0E948D080F5F9F
:101180001F4FF70181917F010E948D080E9478080E
:10119000E7CF5B01A40EB51E8433C1F40E94820820
:1011A00019830A838D2D80688B83CC8264E070E084
:1011B000CE0101960E945E08AE14BF0409F441C03E
:1011C000F70181917F010E948D08F6CF0E9482086D
:1011D0000F3F110509F028F419820A8384E08B83FC
:1011E0000CC017FD17C019820A8333E016950795C6
:1011F0003A95E1F7007E0C600B8386E0C816D104B7
:10120000A0F5F701DE011496EA15FB0599F081912E
:101210008D93FACFC80126E0969587952A95E1F738
:10122000807E19830A830115104C10F48461D7CF96
:101230008C61D5CFB6016D5F7F4FCE0101960E94C4
:101240005E080E947808C60128960FB6F894DEBFA3
:101250000FBECDBFDF91CF911F910F91FF90EF9007
:10126000DF90CF90BF90AF90089563E070E0CE0123
:1012700001960E945E08F70181917F010E948D080E
:10128000AE14BF04C1F7DDCFCF93DF931F92CDB76C
:10129000DEB7898341E050E0BE016F5F7F4F90E091
:1012A00080E00E9494080F90DF91CF91089590E024
:1012B00020917E03233339F40C96982F990F990FC0
:1012C000990F80E008954896F8CFDA01E0917F0306
:1012D000F0E0FE2FEE27E60FF71F90E0982F88270B
:1012E000A901BD018E0F9F1F0C949408CF93DF932B
:1012F00000D0CDB7DEB779836A8322E030E0AE015B
:101300004F5F5F4F60E170E00E9465090F900F90A2
:10131000DF91CF910895CF93DF9300D0CDB7DEB7A3
:1013200079836A8322E030E0AE014F5F5F4F64E073
:1013300070E00E9465090F900F90DF91CF910895A2
:10134000CF93DF931F92CDB7DEB720917F0330E0BC
:10135000322F2227260F371F90E0982F88274983A6
:1013600041E050E0BE016F5F7F4F820F931F0E94EC
:1013700094080F90DF91CF910895CF93DF931F9240
:10138000CDB7DEB76983DC01ED91FC910280F3817A
:10139000E02D41E050E0BE016F5F7F4F09950F9057
:1013A000DF91CF910895CF93DF931F92CDB7DEB732
:1013B0006983DC01ED91FC910280F381E02D41E035
:1013C00050E0BE016F5F7F4F09950F90DF91CF9185
:1013D0000895FC019485FB018485981303C081E086
:1013E000943008F080E00895CF93DF931F92CDB73B
:1013F000DEB76983DC01ED91FC910280F381E02D81
:1014000041E050E0BE016F5F7F4F09950F90DF9183
:10141000CF910895EF92FF920F931F93CF93DF9395
:101420008C017B01D0E0C0E0F701EC0FFD1F64915F
:10143000662339F0C8010E94F409892B11F0219626
:10144000F3CFCE01DF91CF911F910F91FF90EF90DD
:101450000895FC01768765870895DC01ED91FC9184
:10146000068CF78DE02D099591E089270895862F48
:10147000089581E08627089521E0FC018485843069
:1014800008F020E0822F08950895FF920F931F9394
:10149000CF93DF93EB01FC01178A168A2A81211171
:1014A00009C02B81211106C02C81211103C02D817F
:1014B000222301F141155105E9F08A01FC01F08C6C
:1014C00080E591E00E94EF04AE014E5F5F4F24E0A3
:1014D00030E06CE070E08F2D0E946509B8018F2D1F
:1014E0000E94760981E090E0DF91CF911F910F91EA
:1014F000FF90089580E0F7CFFC01848595850895DD
:10150000FC0184899589089524E931E0FC01318347
:101510002083FB014089518962897389FC014283E0
:101520005383648375830895DC01ED91FC91048CF1
:10153000F58DE02D0994089590E080E00895809164
:101540006504909166040E94970740E06CEC8091DE
:101550006504909166040E9444074091600464E42D
:1015600080916504909166040E9444078091620412
:101570008823A1F0E0916104E9506EEE72E0E3305F
:1015800038F4F0E0EE0FFF1FE858FE4F60817181E4
:10159000072E000C880B990B0C94A6060895BF9299
:1015A000CF92DF92EF92FF920F931F93CF93DF932F
:1015B000EC01B62EC72EED84E11004C00E949707FF
:1015C00081110EC01B861D861C8680E0DF91CF91A5
:1015D0001F910F91FF90EF90DF90CF90BF900895F3
:1015E00040E060EFCE010E944407D12C01E011E001
:1015F000CE010E94F106F82ECE010E94F10691E084
:10160000F91218C0813099F51134E0F2EB86E1103F
:1016100002C081E08D878B818823A1F22396EB2D78
:10162000FC2DCF01089629912193E817F907D9F7E6
:1016300081E0CCCFED2DF0E0F8120FC08B851817AC
:10164000A0F4DE01AE0FBF1F13968C91802379F4B6
:10165000F12C193008F41C87E12EEC0FFD1F83815B
:10166000902F9095892383830AC08113F1CFFE01C7
:10167000ED0DF11D8381802B8383FF24F3946F2D67
:10168000CE010E9415071F5F000F11F4D39401E0F3
:1016900087E08D1508F0ACCFB7CFFB01019000209B
:1016A000E9F73197AF01461B570BDC01ED91FC9137
:1016B0000280F381E02D09948F929F92AF92BF92A6
:1016C000EF92FF920F931F93CF93DF93CDB7DEB7C7
:1016D000A1970FB6F894DEBF0FBECDBF7C01FA0113
:1016E000CB0119A2223008F42AE08E010F5D1F4FB2
:1016F000822E912CB12CA12CBF01A50194010E9436
:10170000A228F901CA016A300CF5605DD8016E9318
:101710008D01232B242B252B79F790E080E0109767
:1017200021F0BD01C7010E944D0BA1960FB6F894A0
:10173000DEBF0FBECDBFDF91CF911F910F91FF9004
:10174000EF90BF90AF909F908F900895695CDECF2F
:101750008F929F92AF92BF92CF92DF92EF92FF92C1
:101760000F931F93CF93DF937C01EB016C0182E019
:10177000C80ED11C4701E5E08E0E911C10E000E080
:10178000F60141916F0150E070E060E02AE0CE0187
:101790000E945C0B5C01E881F9810190F081E02DF1
:1017A0006EE2CE0109958A0D9B1D080F191FC81402
:1017B000D90431F7F701458150E070E060E02AE09C
:1017C000CE010E945C0B800F911FDF91CF911F9182
:1017D0000F91FF90EF90DF90CF90BF90AF909F90D0
:1017E0008F90089566EA71E00C944D0B0F931F9350
:1017F000CF93DF938C01D0E0C0E06115710519F043
:101800000E944D0BEC01C8010E94F20B8C0F9D1F32
:10181000DF91CF911F910F9108950F931F93CF9355
:10182000DF93EC010E940A0A8C01CE010E94F20BA8
:10183000800F911FDF91CF911F910F910895FC01AF
:1018400024813581232B31F421E0FB01672B49F4FE
:10185000822F0895808191816115710539F421E00D
:10186000FC0180818823A1F320E0F2CF0E94992B14
:1018700021E0892B69F3F8CF0F931F93CF93DF9368
:10188000EC0188819981009759F02A813B812617C4
:10189000370730F081E0DF91CF911F910F910895CC
:1018A0008B016F5F7F4F0E94CC2A009759F099837C
:1018B00088831B830A832C813D81232B59F7FC01EC
:1018C0001082E8CF80E0E7CFEF92FF920F931F9353
:1018D000CF93DF936115710541F480E0DF91CF91E3
:1018E0001F910F91FF90EF90089541155105B1F0B0
:1018F0007B01EC010C811D81040F151FB8010E94B2
:101900003C0C882351F3288139818C819D81B7015A
:10191000820F931F0E94A22B1D830C8381E0DECFD8
:10192000CF93DF93EC0188819981009711F00E9499
:10193000432A198218821D821C821B821A82DF911F
:10194000CF9108950F931F93CF93DF938C01EC01F8
:1019500009900020E9F72197C81BD90BBE0184E547
:1019600094E00E943C0C811108C084E594E0DF9172
:10197000CF911F910F910C94900CD0935904C09368
:101980005804B8018091540490915504DF91CF918F
:101990001F910F910C94A22BCF93DF93EC01FB01CD
:1019A00001900020E9F73197AF01461B570B0E94C9
:1019B000640C811103C0CE010E94900CCE01DF9116
:1019C000CF910895CF93DF93EC01FB0144815581C2
:1019D000608171810E94640C811103C0CE010E945C
:1019E000900CCE01DF91CF910895EF92FF920F936B
:1019F0001F93CF93DF93EC01198218821B821A8206
:101A00001D821C826115710521F18B01FB01019082
:101A10000020E9F731977F01E61AF70AB7010E9423
:101A20003C0C811109C0CE01DF91CF911F910F9124
:101A3000FF90EF900C94900CFD82EC82B8018881AD
:101A40009981DF91CF911F910F91FF90EF900C94AE
:101A5000A22BDF91CF911F910F91FF90EF900895EE
:101A6000FC0180819181009711F00C94432A089524
:101A7000AF92BF92CF92DF92EF92FF920F931F939C
:101A8000CF93DF9300D000D0CDB7DEB78C016B01D0
:101A90007A0180917E038333E9F45B016801C40E0F
:101AA000D51EC016D106A9F10E9482088FE00E94BF
:101AB0008D08812F0E948D08802F0E948D080F5F56
:101AC0001F4F80E00E948D08F50181935F010E9405
:101AD0007808E7CF843369F50E94820819830A8366
:101AE0008F2D8F778B83EC8264E070E0CE010196BE
:101AF0000E945E08A70170E060E0C6010E94922B80
:101B0000E114F10421F0B701C6010E945E080E94B1
:101B10007808C7010F900F900F900F90DF91CF9131
:101B20001F910F91FF90EF90DF90CF90BF90AF90FB
:101B300008950E9482080F3F110509F030F41982C0
:101B40000A831B8263E070E0D1CF17FD0BC01982BE
:101B50000A8333E0169507953A95E1F7007E086011
:101B60000B83F0CFC80126E0969587952A95E1F77B
:101B7000807E19830A830115104C18F480618B83D1
:101B8000E1CF8861FCCFCF93DF931F92CDB7DEB753
:101B900020917F0330E0322F2227260F371F90E05D
:101BA000982F882741E050E0BE016F5F7F4F820F82
:101BB000931F0E94380D89810F90DF91CF91089576
:101BC000CF93C82F462F61E070E00E94A00961E02A
:101BD00070E08C2F0E94C30D8111F9CFCF91089531
:101BE000CF93C82F80E591E00E94EF0468E070E099
:101BF0008C2FCF910C94E00DCF93C82F80E591E00E
:101C00000E94EF0460E170E08C2FCF910C94E00D06
:101C1000CF93DF93EC01888D843020F40E94FC0D7B
:101C200084E0888FDF91CF91089563E070E00C9499
:101C3000C30DCF93C82F80E591E00E94EF048C2F55
:101C4000CF910C94150EEF92FF920F931F93CF93A9
:101C50007C0102E713E0C0E0F801219131918F018E
:101C6000F701848195812817390729F0CF5FC430A7
:101C700099F780E006C08C2F0E94190E8431B1F7CD
:101C800081E0CF911F910F91FF90EF900895CF9336
:101C9000DF93EC018C858430D0F40E94190E8431DE
:101CA00089F0882379F0883169F021E08C3159F48A
:101CB000E881F9810084F185E02DCE01099521E0CC
:101CC000892B09F420E0822FDF91CF91089580E0E5
:101CD000FBCFCF92DF92EF92FF92CF93DF93EC0195
:101CE0008C85843068F40E94F00D0E94D9066B0147
:101CF0007C018C850E94190E811109C084E08C87BB
:101D0000DF91CF91FF90EF90DF90CF90089561E049
:101D100070E080E090E00E94A6060E94D906AB0128
:101D2000BC014C195D096E097F098D859E85B0E067
:101D3000A0E0481759076A077B07D8F28C850E94F4
:101D4000FC0DDCCFCF93FC01C08D80E591E00E94BB
:101D5000EF0460E270E08C2F0E94E00D62E070E022
:101D60008C2F0E94C30D84FD16C062E070E08C2FA2
:101D70000E94C30D83FF0AC048E162E070E08C2F2F
:101D80000E94A00980E090E0CF91089580E591E065
:101D90000E94EF04E3CF40E162E070E08C2F0E94EC
:101DA000A00981E0F0CFCF93DF931F92CDB7DEB7CC
:101DB00041E050E0BE016F5F7F4F90E080E00E9405
:101DC000380D89810F90DF91CF910895CF93DF93E4
:101DD000C4E1D0E00E94D30E882361F061E070E09E
:101DE00080E090E00E94A6062197A1F780E0DF91B5
:101DF000CF91089581E0FBCFCF92DF92EF92FF92D7
:101E00000F931F93CF93DF93CDB7DEB7C454D1099F
:101E10000FB6F894DEBF0FBECDBFFC018281938167
:101E2000A481B58123968CAF9DAFAEAFBFAF239792
:101E300021E023962FAF239723964CAD5DAD6EAD79
:101E40007FAD23974BAB5CAB6DAB7EAB89AF9AAFED
:101E5000ABAFBCAF8DA79EA7AFA7B8AB28AB4DA5C6
:101E60005EA56FA578A94FA358A769A77AA72EAB3F
:101E70004BA95CA96DA97EA949A35AA36BA37CA316
:101E80008B8F9C8FAD8FBE8F44E951E05C8B4B8B69
:101E90003FEF3D8B3E8B3F8B188E5E874D872AA789
:101EA000CFA0D8A4E9A4FAA4CF86D88AE98AFA8A6E
:101EB0002CA309A11AA12BA13CA109871A872B8762
:101EC0003C875A8349838B839C83AD83BE838091F7
:101ED00080038111AFC060E372E080E090E00E9477
:101EE000A606DFB6F89407E619E03BE7E32E39E0F3
:101EF000F32E80917D03811125C0F8018491F701B3
:101F00009491E82FF0E0EE0FFF1FE75BF64FA591ED
:101F1000B4918C91982321F461E08AE00E94040638
:101F200061E08AE00E9450068CB580618CBD8CB562
:101F300080648CBD61E08DE00E94500661E08BE022
:101F40000E94500680917D038F5F80937D03DFBEEA
:101F5000F8010491E02FF0E0EE0FFF1FE15CF64F77
:101F60008591949190937C0380937B03F701E49097
:101F7000E0927A0361E08AE00E9450060E947808AD
:101F800080E591E00E94EF0484E380937E0380E883
:101F90000E9444090E94E60E882309F481C088E06B
:101FA0000E9444090E94D30E883009F079C080E174
:101FB0000E9444090E94D30E803109F071C080E074
:101FC0000E9444090E94D30E182F811169C041E07C
:101FD00050E0BE016D5B7F4F8FE190E00E94380DB5
:101FE00024968FAD2497833009F05AC080E4809303
:101FF0007F0342E06EE170E0812F0E94A00942E081
:102000006FE170E0812F0E94A0091F5F143089F7F3
:1020100040E06EE170E0812F0E94A00940E06FE196
:1020200070E0812F0E94A0091F5F183089F781E0BE
:102030008093800380E591E00E94EF0446E050E049
:1020400066E071E089E090E00E94940844E050E08E
:10205000BE016D5F7F4F8FE090E00E94940844E0E6
:1020600050E0BE01615F7F4F81E090E00E949408E4
:1020700044E050E0BE016B5E7F4F85E090E00E943F
:10208000940881E08C8789859A85AB85BC8580938F
:102090003E0490933F04A0934004B09341046FC06A
:1020A00087E380937E0380E80E9444090E94E60E45
:1020B000882339F188E00E9444090E94D30E8830B9
:1020C00001F580E10E9444090E94D30E182F80314F
:1020D000C1F480E00E9444090E94D30E811111C016
:1020E00041E050E0BE016D5B7F4F89E390E00E94CC
:1020F000380D24968FAD2497843019F410937F0304
:1021000096CF83E380937E0380E80E9444090E9477
:10211000E60E882391F180E10E9444090E94D30ECB
:10212000803159F582E10E9444090E94D30E823128
:1021300021F580E00E9444090E94D30E81111DC048
:1021400084E080937F0315E525961FAF259741E036
:1021500050E0BE016C5B7F4F8BE190E00E949408E1
:1021600024961FAF249741E050E0BE016D5B7F4F86
:102170008AE190E00E9494085ACF10927E03CC5BD3
:10218000DF4F0FB6F894DEBF0FBECDBFDF91CF910A
:102190001F910F91FF90EF90DF90CF9008951F93C4
:1021A000CF93DF931F92CDB7DEB7182F80E591E074
:1021B0000E94EF04812F0E94570927E0129FF0012F
:1021C0001124EA5AFC4F22813381377041E050E0FC
:1021D000BE016F5F7F4F820F931F0E94380D898170
:1021E0000F90DF91CF911F910895FC01808D843075
:1021F00040F4218D328D232B21F00E94CF1090E0EE
:1022000008958FEF9FEF0895CF93DF93FC0124850E
:10221000243028F08FEF9FEFDF91CF910895EC01EC
:102220000190F081E02D0084F185E02D0995892B46
:1022300089F38C850E94CF1090E0EECFDA01E09117
:102240007F03F0E0FE2FEE27E60FF71F90E0982FB8
:102250008827A901BD018E0F9F1F0C94380D8F9206
:102260009F92AF92BF92CF92DF92EF92FF921F9315
:10227000CF93DF93CDB7DEB72C970FB6F894DEBFC0
:102280000FBECDBF20917E0314E0222329F16B0104
:102290007C0180E591E00E94EF045E0127E0A20E40
:1022A000B11C450110E0812F0E94150EF4018193AD
:1022B0004F01882349F11F5F1430A9F710E0F501A1
:1022C00081915F018D31D9F08831C9F08A51823016
:1022D000B0F01F5F143099F7812F2C960FB6F89449
:1022E000DEBF0FBECDBFDF91CF911F91FF90EF906A
:1022F000DF90CF90BF90AF909F908F90089560E156
:1023000070E0812F0E94E00DA12EB12CF501EE0F9F
:10231000FF1FEE58FC4F1182108283EE93E001976D
:10232000F1F742E870E060E0812F0E94A0094FEFD2
:1023300062E070E0812F0E94A009B601C114D104AF
:1023400091F4809104019091050101968115F0ECC2
:102350009F0708F45CC0909305018093040160918D
:10236000040170910501812F0E948B0986E0E2E152
:10237000F1E0DE01119601900D928A95E1F7F701E7
:1023800083818F778C8384818D8385818E83A70160
:102390004E5F5F4F24E030E06CE070E0812F0E94E0
:1023A0006509B601812F0E94760926E030E0AE0172
:1023B0004F5F5F4F66E070E0812F0E94650961E02A
:1023C00070E0812F0E94E00D27E02A9DC0012B9D27
:1023D000900D11249C012A5A3C4F7901F901118278
:1023E000108222E030E0AE01455F5F4F68E270E0AE
:1023F000812F0E941E118B859C85982789279827FD
:10240000F7019383828316821582148265CF80E060
:1024100090ECA1CFCF92DF92EF92FF920F931F9398
:10242000CF93DF9300D000D000D0CDB7DEB78C01C2
:102430006B017A01FC01808D843010F40E94FC0D48
:1024400084E991E09A838983F60182819381A48152
:10245000B5818B839C83AD83BE83B701CE0101968A
:102460000E942F11F801808F8430A0F4F586E48655
:10247000128E118E81E026960FB6F894DEBF0FBE45
:10248000CDBFDF91CF911F910F91FF90EF90DF9023
:10249000CF90089580E0EFCFAF92BF92CF92DF92BE
:1024A000EF92FF920F931F93CF93DF9300D000D052
:1024B00000D0CDB7DEB7082F6B0180E591E00E9418
:1024C000EF049E012F5F3F4F7901590110E0812FEA
:1024D0000E94150EF50181935F01882341F11F5F72
:1024E0001430A9F710E0F70181917F018D31D1F00F
:1024F0008831C1F08A518230A8F01F5F143099F7FB
:10250000812F26960FB6F894DEBF0FBECDBFDF91A8
:10251000CF911F910F91FF90EF90DF90CF90BF90E0
:10252000AF90089560E170E0812F0E94E00DE12EF0
:10253000F12CF701EE0FFF1FEE58FC4F11821082B5
:1025400083EE93E00197F1F7402F70E060E0812F78
:102550000E94A0094FEF62E070E0812F0E94A00965
:10256000B601CD2889F4809104019091050101966E
:102570008115F0EC9F0798F1909305018093040179
:102580006091040170910501812F0E948B0961E027
:1025900070E0812F0E94E00D27E02E9DC0012F9D4D
:1025A000900D11249C012A5A3C4F7901F9011182A6
:1025B000108222E030E0AE014B5F5F4F68E270E0D6
:1025C000812F0E941E118D819E819827892798272F
:1025D000F7019383828316821582148291CF80E063
:1025E00090ECCACFCF92DF92EF92FF921F93CF93DE
:1025F000DF93EC017B016A018C85843048F40E94F2
:10260000190E882319F08C850E94F00D84E08C87C8
:10261000F70182819381A481B5810097A105B1055D
:1026200051F490E080E0DF91CF911F91FF90EF9007
:10263000DF90CF9008958F3F9F4FAF4FBF4F89F3EB
:1026400080917E03811103C084E08C87EACF70E023
:1026500060E081E20E944C12182F8C87843008F7CA
:1026600080E591E00E94EF04A7014E5F5F4F24E0F8
:1026700030E06CE070E0812F0E946509B601812F87
:102680000E94760964E070E0812F0E94E00D0E94B4
:10269000D9066B017C018C850E94190E873109F1E6
:1026A0008C31F9F0882309F4BCCF0E94D906AB0124
:1026B000BC014C195D096E097F098D859E85B0E0CE
:1026C000A0E084179507A607B70738F061E070E02F
:1026D00080E090E00E94A606DECF8C850E94FC0D73
:1026E000B3CF81E090E09FCF0F931F93CF93DF9301
:1026F000EC018B01888D843010F40E94FC0D8091D8
:102700007E03811107C094E0988FDF91CF911F91D4
:102710000F910895B80182E00E944C12888F843096
:1027200030F41D870C871A8E198E81E0EECF80E081
:10273000ECCF0F931F93CF9320917E03222349F177
:102740008C01FC016481758181E20E944C12C82FCA
:102750008430F8F480E591E00E94EF048C2F0E9411
:10276000150E833131F08C2FCF911F910F910C9466
:10277000F00D62E070E08C2F0E94E00DF801848182
:102780009581EC2FF0E0EE0FFF1FEE58FC4F918388
:102790008083CF911F910F9108957F928F929F9286
:1027A000AF92BF92CF92DF92EF92FF920F931F935F
:1027B000CF93DF9300D0CDB7DEB7782E8B014A01DF
:1027C000590122E030E0AE014F5F5F4F64E270E0FC
:1027D0000E941E11E980FA80FE24EF24FE24E00E00
:1027E000F11E9701377040917E03072D10E04333AF
:1027F00009F042C0085F1F4F102F0027110F110F63
:10280000110FC901800F911F4733C9F1A9014A0D6A
:102810005B1D4130584098F160E078E06B01C21ACE
:10282000D30AA601B4010E949408A5014C195D09C0
:10283000B4016C0D7D1DC8010E949408EA0CFB1CBC
:10284000F982EA8222E030E0AE014F5F5F4F64E23E
:1028500070E0872D0E9465090F900F90DF91CF9156
:102860001F910F91FF90EF90DF90CF90BF90AF90AE
:102870009F908F907F900895005F1F4FBDCFA5015F
:10288000B401DACFEF92FF921F93CF93DF9300D082
:10289000CDB7DEB7182F22E030E0AE014F5F5F4FBB
:1028A00060E270E00E941E11E980FA80FE24EF24AD
:1028B000FE2422E030E0AE014F5F5F4F60E270E047
:1028C000812F0E941E1189819A8198278927982734
:1028D000E816F90689F487E0189FF0011124EA5AF6
:1028E000FC4FF582E482C7010F900F90DF91CF91EA
:1028F0001F91FF90EF9008957C01DBCF1F93CF9342
:10290000DF93182F80E591E00E94EF04812F0E9451
:102910004214EC01812F0E94150E873121F08C3179
:1029200011F0D0E0C0E0CE01DF91CF911F9108956A
:10293000CF93DF93EC018C85843060F40E94190EF4
:10294000873111F08C3131F48C850E947E14811511
:10295000984088F3DF91CF910895FC0184858430FD
:1029600010F40C947E1490E080E00895CF92DF92F2
:10297000EF92FF921F93CF93DF93182F7B01EA0111
:102980004130584010F0C0E0D8E080E591E00E946E
:10299000EF04812F0E9442146C01812F0E94150EBA
:1029A000873111F08C3121F5CC16DD0670F380E50E
:1029B00091E00E94EF049E01A70170E060E0812F8A
:1029C0000E94CD1360E270E0812F0E94E00D62E072
:1029D00070E0812F0E94C30D84FD0DC0812F0E94E5
:1029E000150E8823B9F080E591E00E94EF04EFCF47
:1029F000D0E0C0E0DCCF40E162E070E0812F0E94D7
:102A0000A009CE01DF91CF911F91FF90EF90DF9051
:102A1000CF900895D0E0C0E0F4CF0F931F93CF93F1
:102A2000DF938C01EA01FC018485843048F40E9424
:102A3000B614892B39F481E090E0F8019383828306
:102A4000D0E0C0E0CE01DF91CF911F910F910895AA
:102A50000F931F93CF93DF93EC01FB0144815581CA
:102A6000608171810E940D158C01CE010E94F20BD4
:102A7000800F911FDF91CF911F910F9108959F9229
:102A8000AF92BF92CF92DF92EF92FF920F931F937C
:102A9000CF93DF938C015B01942EE52EFC01C68859
:102AA000D788F08C80E591E00E94EF048F2D0E9482
:102AB0004214C92DDE2D8C179D0708F4EC019E01F0
:102AC000A501B6018F2D0E94CD13F8018689978943
:102AD0008C0F9D1F978B868BCE01DF91CF911F911D
:102AE0000F91FF90EF90DF90CF90BF90AF909F90AD
:102AF0000895FF920F931F93CF93DF9300D0CDB72C
:102B0000DEB7F82E22E030E0AE014F5F5F4F66E2A5
:102B100070E00E941E1109811A81102701271027D9
:102B200022E030E0AE014F5F5F4F66E270E08F2D34
:102B30000E941E1189819A81982789279827081752
:102B4000190749F4C8010F900F90DF91CF911F91A1
:102B50000F91FF9008958C01E3CF1F93CF93DF93E4
:102B6000182F87E0189FE0011124CA5ADC4F888192
:102B70009981009761F480E591E00E94EF04812F34
:102B80000E9479152E81821B910999838883DF9198
:102B9000CF911F910895AF92BF92CF92DF92EF92A3
:102BA000FF920F931F93CF93DF93EC017B018091F2
:102BB0007E03811120C01B821A8288EE93E0A0E080
:102BC000B0E08C839D83AE83BF838CE191E09983D9
:102BD000888384E08C8788EE93E09E878D87CE0182
:102BE000DF91CF911F910F91FF90EF90DF90CF90E9
:102BF000BF90AF90089582E7C82E83E0D82E10E0F2
:102C000094E0B92EA12CD6012D913D916D01F701D3
:102C1000848195812817390791F4812F0E94190E1C
:102C2000082F873111F08C3139F5812F0E94AD15B5
:102C3000892B59F50C3119F4812F0E94F00D1F5F7B
:102C4000143009F7A11008C0D701ED91FC91008460
:102C5000F185E02DC70109951B821A8288EE93E069
:102C6000A0E0B0E08C839D83AE83BF838CE191E0D4
:102C700099838883BC86AFCF843149F08111DFCF3F
:102C8000F601329711821082DACFB12ED8CFAA2462
:102C9000A394D5CF8F929F92AF92BF92CF92DF92A3
:102CA000EF92FF921F93CF93DF93CDB7DEB72F97AD
:102CB0000FB6F894DEBF0FBECDBF5C014B017A01A9
:102CC00080917E038823A1F1B501CE0101960E9477
:102CD000CB1582E7C82E83E0D82E10E0F6012191B3
:102CE00031916F01F501848195812817390751F4DD
:102CF000812F0E94190E873129F4A701B401812F79
:102D00000E94B6141F5F143049F7C7012F960FB603
:102D1000F894DEBF0FBECDBFDF91CF911F91FF9022
:102D2000EF90DF90CF90BF90AF909F908F900895DD
:102D3000F12CE12CEACFFC018485843010F40C9452
:102D4000AD1590E080E008954F925F927F928F9250
:102D50009F92AF92BF92CF92DF92EF92FF920F932A
:102D60001F93CF93DF9300D0CDB7DEB7782E6B01E2
:102D70004A01A82EB12C27E0829FC0011124FC013A
:102D8000EA5AFC4F7F010081118180E591E00E94A9
:102D9000EF040815190554F4872D0E947915F701E1
:102DA00026818C01021B1109118300830115110575
:102DB00019F5872D0E94150E843159F0882349F0AA
:102DC00001E010E08C3111F410E000E01195019564
:102DD0001109C8010F900F90DF91CF911F910F91B2
:102DE000FF90EF90DF90CF90BF90AF909F908F902B
:102DF0007F905F904F900895801691060CF48401A7
:102E000087E08A9DF0018B9DF00D1124EA5AFC4F5A
:102E1000E280F380C114D10451F12701F7E05F2271
:102E2000872D0E945709840D951D20917E0327331D
:102E300009F453C09801240D351D2130384008F4A1
:102E40004CC020E038E0490184189508A401B6017F
:102E50000E94380D2601480C591C6801C818D90871
:102E6000872D0E945709A601B2010E94380DE00E7D
:102E7000F11E87E08A9DF0018B9DF00D1124EA5A26
:102E8000FC4FF382E28220813181201B310B3183A0
:102E900020838681800F912F911D8A3F910510F428
:102EA000232BF1F487E08A9DF0018B9DF00D112416
:102EB000EA5AFC4F1682F982EA8222E030E0AE0143
:102EC0004F5F5F4F68E270E0872D0E94650960E404
:102ED00070E0872D0E94E00D7CCFA801B601C5CF20
:102EE000868377CFCF93DF93FC01218D328D21151F
:102EF000310529F48FEF9FEFDF91CF910895EC0119
:102F0000808D4217530708F0A9010E94A4161816D5
:102F1000190684F7298D3A8D281B390B3A8F298F92
:102F2000EBCF0F931F93CF93DF931F92CDB7DEB7F5
:102F3000FC01218D328D232B41F48FEF9FEF0F90F9
:102F4000DF91CF911F910F9108958C0141E050E0E6
:102F5000BE016F5F7F4FFC01808D0E94A416181682
:102F600019065CF7F801818D928D0197928F818F00
:102F7000898190E0E4CF0F931F93CF93DF93CDB778
:102F8000DEB728970FB6F894DEBF0FBECDBF8C0119
:102F9000D80159964D915C915A974115510551F0C0
:102FA000ED91FC91048CF58DE02D70E060E0C8019E
:102FB0000995EECFF801808D0E94AD15892BB1F1F6
:102FC00048E050E0BE016F5F7F4FD80158968C916A
:102FD0000E94A41618161906F4F4D801509684E03D
:102FE000FE01319601900D928A95E1F78D8190E076
:102FF000982F88272E81820F911DF801958B848B45
:103000008F81282F30E0322F22278885820F932F3F
:10301000911D928F818F28960FB6F894DEBF0FBE58
:10302000CDBFDF91CF911F910F91089590E080E087
:10303000F2CF4F925F926F927F928F929F92AF9258
:10304000BF92CF92DF92EF92FF920F931F93CF9395
:10305000DF93CDB7DEB763970FB6F894DEBF0FBE30
:10306000CDBF7C016B013A01FB0120E090E080E0E4
:103070006AE03191332309F461C040ED430F4A30D7
:1030800008F04DC0689FA001699F500D1124CA012E
:10309000C097830F911D37FD9A958F3F910549F396
:1030A00040F3F701428153816481758180914A0424
:1030B00090914B04A0914C04B0914D0448175907CE
:1030C0006A077B0709F40DC28701085F1F4F0E9442
:1030D000D9066F7077277C5FC8010E947413813016
:1030E00009F004C284E991E09A838983F70182811F
:1030F0009381A481B5818B839C83AD83BE8345E39B
:1031000050E0BE016F5F7F4FC8010E94450A892BC6
:10311000A9F5D12CC12CC8010E94080E17C03E325F
:1031200009F0BFCF233009F4BCCFD301A20FB11DEA
:1031300012968C932F5F90E080E09BCF233009F0B4
:10314000B0CFF3018583CC24C394D12CC601639600
:103150000FB6F894DEBF0FBECDBFDF91CF911F91A8
:103160000F91FF90EF90DF90CF90BF90AF909F9026
:103170008F907F906F905F904F9008950E94D90636
:10318000F7017783668342E050E0B7016A5F7F4FC3
:10319000C8010E943F1581E090E09A83898342E054
:1031A00050E0BE016F5F7F4FC8010E943F1580E075
:1031B00091E09A83898342E050E0BE016F5F7F4FC8
:1031C000C8010E943F151A82198242E050E0BE01F8
:1031D0006F5F7F4FC8010E943F1542E050E0BE0183
:1031E0006F5F7F4FC8010E943F1542E050E0BE0173
:1031F0006F5F7F4FC8010E943F155601F601808125
:10320000882301F16501F60181912F01882311F0D6
:103210008E32B1F446018A189B081814190474F40C
:103220008D8641E050E0BE01635F7F4FC8010E9480
:103230003F15A401B501C8010E943F155201DECF20
:103240006201E1CF1D8641E050E0BE01635F7F4F28
:10325000C8010E943F15C12CDD24D394DA82C982B3
:1032600042E050E0BE016F5F7F4FC8010E943F15F2
:10327000DA82C98242E050E0BE016F5F7F4FC80131
:103280000E943F15C8010E94A20E892B09F441CF6C
:10329000F3E0AF2EB12C230122E0420E511CD4C02A
:1032A000F7014281538164817581808D918DA28D5A
:1032B000B38D481759076A077B0709F008C1848D49
:1032C000958DC59709F003C181A192A15DEFC52E2F
:1032D000DD24DA940C970CF4ADC04CE050E0BE0154
:1032E0006F5F7F4FC8010E9472178B819C81982766
:1032F000892798279A8B898BF701468157812981E5
:103300003A814217530709F0E7C097FFE5C08F7075
:1033100092703BEFC32EDD24DA94892B09F08AC02A
:103320006F8078847624672476242AEFC22EDD24E9
:10333000DA946114710409F47DC0D12CC12C8D8103
:103340009E81982789279827C816D906F8F441E066
:1033500050E0BE01635F7F4FC8010E9472174D8528
:10336000442331F050E070E060E0C8010E94721721
:103370008D858111ECCF44E050E070E060E0C80141
:103380000E947217FFEFCF1ADF0AD9CF912C812C40
:1033900041E050E0BE016D5E7F4FC8010E94721790
:1033A0004B89842F807C09F06CC0442331F050E0BD
:1033B00070E060E0C8010E9472178B898111E8CF2C
:1033C00042E050E0BE01615F7F4FC8010E9472176A
:1033D00042E050E0BE01635F7F4FC8010E94721758
:1033E00044E050E070E060E0C8010E94721742E0E3
:1033F00050E0BE016F5E7F4FC8010E9472178F853B
:10340000988949895A898115914009F043C0CD8432
:10341000DE84DC24CD24DC2481E0C816D104D1F57F
:103420004115544009F04AC044E050E0B201C801DF
:103430000E94721721E0A21AB10809F46CCEFFEFC6
:10344000CF16DF0609F067CE0E94D9063B014C017A
:10345000C8010E94BB17181619060CF421CF0E9450
:10346000D906661977098809990969387341810570
:10347000910548F562E370E080E090E00E94A606C6
:10348000E7CF41E050E070E060E0C8010E947217B1
:103490001B8A93CF54274527542770E060E0C8016A
:1034A0000E947217FFEF8F1A9F0A6814790409F0BF
:1034B0006FCF96EFC92EDD24DA94BCCFE7EFCE2E86
:1034C000DD24DA94B7CFCC24CA94DC2CB3CF6EEFD2
:1034D000C62EDD24DA94AECF4CEFC42EDD24DA9470
:1034E000A9CF8EEFC82EDD24DA9430CED12CC12C9A
:1034F0002DCECF92DF92EF92FF920F931F93CF9337
:10350000DF93CDB7DEB7AF970FB6F894DEBF0FBE2F
:10351000CDBF7C016A0104E911E01A8309831C868E
:103520001B8688EE93E0A0E0B0E08D879E87AF8792
:10353000B88B8AE491E09A878987188F0F8B198E50
:103540001A8E1B8E1C8E84E089A31BA70AA71CA6BB
:103550001DA61EA61FA680913E0490913F04A09137
:103560004004B09141048EA39FA3A8A7B9A78B8361
:103570009C83AD83BE8318861F82AE01465D5F4F7C
:10358000CE0101960E94191881309105B1F4D7013E
:10359000ED91FC910488F589E02D1DA30CA38CA569
:1035A0009DA5AEA5BFA58EA39FA3A8A7B9A7A60159
:1035B000BE016C5D7F4FC7010995AF960FB6F894B9
:1035C000DEBF0FBECDBFDF91CF911F910F91FF9056
:1035D000EF90DF90CF900895CF92DF92EF92FF921D
:1035E0000F931F93CF93DF93CDB7DEB7AF970FB68F
:1035F000F894DEBF0FBECDBF8C016B017A0184E968
:1036000091E09A8389831B821C821D821E821C8604
:103610001B8648EE53E060E070E04D875E876F8761
:10362000788B2AE431E03A872987988F8F8B198E1F
:103630001A8E1B8E1C8E24E029A39BA78AA71CA68A
:103640001DA61EA61FA6D8011C968C91843060F47E
:103650000E94190E882321F0F80184850E94F00D44
:1036600084E0D8011C968C9380913E0490913F0495
:10367000A0914004B09141048EA39FA3A8A7B9A72D
:103680008B839C83AD83BE8318861F82AE01465D0B
:103690005F4FB601CE0101960E9419180097C1F044
:1036A000D801ED91FC910684F785E02D84E991E045
:1036B0009DA38CA38CA59DA5AEA5BFA58EA39FA3FE
:1036C000A8A7B9A7A701BE016C5D7F4FC8010995E6
:1036D000AF960FB6F894DEBF0FBECDBFDF91CF918E
:1036E0001F910F91FF90EF90DF90CF900895CF93AF
:1036F000DF931F92CDB7DEB741E050E0BE016F5FB0
:103700007F4FFC0184850E94A4161816190634F414
:10371000898190E00F90DF91CF9108958FEF9FEF17
:10372000F9CF0F931F93CF93DF93EC010E94D9063B
:10373000688779878A879B87CE010E94771B97FFCE
:1037400015C00E94D906088519852A853B85601B0E
:10375000710B820B930B0C811D812E813F816017B1
:1037600071078207930740F38FEF9FEFDF91CF91AF
:103770001F910F910895FC018485843010F40C94FE
:10378000A41690E080E008950F931F93CF93DF93EA
:1037900000D0CDB7DEB7FC0124852430E0F48C01E5
:1037A00080E591E00E94EF0422E030E0AE014F5F3F
:1037B0005F4F60E170E0F80184850E941E118981ED
:1037C0009A819827892798270F900F90DF91CF91A2
:1037D0001F910F91089590E080E0F6CFEF92FF9255
:1037E0000F931F93CF93DF9300D000D0CDB7DEB7F8
:1037F0008C017B01FB0184858430A8F084E991E091
:10380000F801918380831282138214821582C80189
:103810000F900F900F900F90DF91CF911F910F910C
:10382000FF90EF90089580E591E00E94EF0424E07E
:1038300030E0AE014F5F5F4F6CE070E0F7018485D0
:103840000E941E1184E991E0F801918380838981AF
:103850009A81AB81BC8182839383A483B583D7CFC4
:103860000F931F93CF93DF9300D0CDB7DEB7FC014A
:1038700024852430E0F48C0180E591E00E94EF047F
:1038800022E030E0AE014F5F5F4F64E070E0F8018E
:1038900084850E941E1189819A81982789279827FB
:1038A0000F900F90DF91CF911F910F91089590E0AD
:1038B00080E0F6CFAF92BF92CF92DF92EF92FF926D
:1038C0000F931F93CF93DF93CDB7DEB7C456D109C3
:1038D0000FB6F894DEBF0FBECDBF6C01062F660F8A
:1038E000110BC8010E944A289E012F5F3F4F7901AA
:1038F0005901021B130BF501EE19FF09882349F04A
:10390000C8018A0D9B1D0E944A28F50181935F0121
:10391000F2CFEE0DFF1D1082B701C6010E94F50C1B
:10392000C601CC59DF4F0FB6F894DEBF0FBECDBF36
:10393000DF91CF911F910F91FF90EF90DF90CF908B
:10394000BF90AF900895CF92DF92EF92FF920F93C6
:103950001F93CF93DF937B01DB011496CD90DC9016
:10396000D0E0C0E0082F880F110BCC15DD05D4F492
:10397000F70184819581C817D90728F40190F08157
:10398000E02D309761F410924403E4E4F3E06081A9
:10399000C8018C0F9D1F0E9452282196E6CFEC0F84
:1039A000FD1FF5CF60E0C8018C0D9D1DDF91CF910B
:1039B0001F910F91FF90EF90DF90CF900C945228C1
:1039C0001F920F920FB60F9211242F933F934F9394
:1039D0005F936F937F938F939F93AF93BF93EF9377
:1039E000FF9381E893E00E947505FF91EF91BF91ED
:1039F000AF919F918F917F916F915F914F913F9187
:103A00002F910F900FBE0F901F9018951F920F923D
:103A10000FB60F9211242F938F939F93EF93FF93E1
:103A2000E0919103F09192038081E0919703F091EE
:103A3000980382FD1BC0908180919A038F5F8F73E2
:103A400020919B03821741F0E0919A03F0E0EF5739
:103A5000FC4F958F80939A03FF91EF919F918F91E7
:103A60002F910F900FBE0F901F9018958081F4CF6B
:103A70001F920F920FB60F9211242F933F938F93A3
:103A80009F93AF93BF938091460390914703A0917A
:103A90004803B09149033091450323E0230F2D37AC
:103AA00058F50196A11DB11D20934503809346034F
:103AB00090934703A0934803B093490380914A032E
:103AC00090914B03A0914C03B0914D030196A11D21
:103AD000B11D80934A0390934B03A0934C03B09382
:103AE0004D03BF91AF919F918F913F912F910F9077
:103AF0000FBE0F901F90189526E8230F0296A11D68
:103B0000B11DD2CFE1E8F3E01382128288EE93E098
:103B1000A0E0B0E084839583A683B78382E891E038
:103B20009183808385EC90E09587848784EC90E096
:103B30009787868780EC90E0918B808B81EC90E07A
:103B4000938B828B82EC90E0958B848B86EC90E05B
:103B5000978B868B118E128E138E148EEEE1F4E00D
:103B600084E991E09183808312821382148215820A
:103B7000E4E2F4E09183808312821382148215823E
:103B8000EAE2F4E091838083128213821482158228
:103B9000E0E3F4E091838083128213821482158221
:103BA000E6E3F4E09183808312821382148215820B
:103BB000E2E4F4E0918380831282138214821582FE
:103BC000ECE3F4E0918380831282138214821582E5
:103BD000E8E4F4E0918380831282138214821582D8
:103BE000EEE4F4E0918380831282138214821582C2
:103BF000E1E8F4E0918380831282138214821582BB
:103C000060E085E00E945006E6E7F9E0E491A3E772
:103C1000B4E0EC93E2E6F9E0E491F0E0EE0FFF1F90
:103C2000ED5AF64F8591949112969C938E9311972D
:103C30001B961C921B971D961C921D971C961C92FE
:103C40001C971A961C921A9719961C9219971896F7
:103C50001C92189717961C92179716961C921697F7
:103C600015961C92159714961C92149713961C92F5
:103C70001397E0E6F4E086EF94E0928B818BB683B5
:103C8000A5831482108289E0818381E0828383830B
:103C9000EAE5F4E0138212828AE991E0918380835D
:103CA00080E590E09583848368EA71E084E594E0A0
:103CB0000C94F50CCF93DF93CDB7DEB7A9970FB671
:103CC000F894DEBF0FBECDBF789484B5826084BD0A
:103CD00084B5816084BD85B5826085BD85B5816010
:103CE00085BD80916E00816080936E00109281008E
:103CF0008091810082608093810080918100816049
:103D00008093810080918000816080938000809109
:103D1000B10084608093B1008091B0008160809395
:103D2000B00080917A00846080937A0080917A005C
:103D3000826080937A0080917A00816080937A001B
:103D400080917A00806880937A001092C1006AE0C6
:103D5000CE0148960E945A1C64E6CE0140960E940D
:103D60005A1C68EA71E0CE0148960E941F0C81112E
:103D700008C070E060E0CE0148960E941F0C8823C6
:103D800081F06AEA71E0CE0101960E94F50CBE0155
:103D90006F5F7F4F8AE00E94A31CCE0101960E94B4
:103DA000300D68EA71E0CE0140960E941F0C81112F
:103DB00008C070E060E0CE0140960E941F0C88238E
:103DC00081F069EA71E0CE0101960E94F50CBE0116
:103DD0006F5F7F4F84E60E94A31CCE0101960E9474
:103DE000300DE0916504F091660413861586148603
:103DF000128611861086178216821582148213820B
:103E00001092640401E0BE016F5F7F4F80916504F2
:103E1000909166040E94CF0A882309F454C067E099
:103E2000CE0101960E94E50698858913ECCF80911A
:103E30006004811128C080916504909166040E94FD
:103E40009707BE016F5F7F4F809165049091660474
:103E50000E94780740E064EB8091650490916604CD
:103E60000E94440780916504909166040E94F106C7
:103E7000182F80916504909166040E949707111194
:103E800002C000936004109161048981803109F4BB
:103E900031C6CE0101960E941B08811750F4809113
:103EA000610480936104809164048F5F8093640453
:103EB000AACF8981803111F48CE0F3CFCE01019635
:103EC0000E941B08EECF61E086E00E94500661E090
:103ED00086E00E940406E0919103F091920382E053
:103EE0008083E0918D03F0918E031082E0918F0327
:103EF000F091900380E1808310929903E091950303
:103F0000F091960386E08083E0919303F09194030F
:103F1000808180618083E0919303F091940380819C
:103F200088608083E0919303F0919403808180689E
:103F30008083E0919303F091940380818F7D80834F
:103F40000E949F0A60ED77E080E090E00E94A60664
:103F500004E911E01A830983809100019091010125
:103F6000A0910201B09103018B839C83AD83BE833A
:103F7000CE0101960E94FC0E8AE594E00E949913FE
:103F80006FEA71E081E893E00E94F60B65EB71E067
:103F900081E893E00E94F60B1A8309831B821C823E
:103FA0001D821E8280E591E00E94EF0444E050E013
:103FB000BE016D5F7F4F8FE090E00E94380D61E899
:103FC00073E0CE0101960E94A80B81E893E00E9465
:103FD000F20BCE0140960E94300DCE0148960E9411
:103FE000300D00E010E00E94D906C0905203D0903E
:103FF0005303E0905403F09055036C197D098E092A
:104000009F09603177428105910528F4CD28CE289B
:10401000CF2809F07DC00E94D906609352037093A7
:1040200053038093540390935503E0916504F091FA
:1040300066041386158614861286118610861782EA
:104040001682158214821382BE01605F7F4F8091B9
:104050006504909166040E94CF0A81118EC060E0D1
:1040600070E08EEF92EC60934E0370934F03809359
:104070005003909351036AE0CE0140960E945A1C6F
:1040800064E6CE0101960E945A1C88899989412CC8
:10409000512C3201009721F00E9482252B013C0116
:1040A00089819A81C12CD12C7601009721F00E9440
:1040B00082256B017C0120914E0330914F0340918A
:1040C000500350915103C301B2010E94D3282B0128
:1040D0003C01A70196010E946F2918160CF0ADC093
:1040E0006CEC71E081E893E00E94F60B81ED91E0C9
:1040F0000E94A20C60E086E00E9404060E949F0AD3
:10410000CE0101960E94300DCE0140960E94300DE6
:104110006AE574E0CE0101960E94CB158D8584304E
:1041200008F0DCC4CE0101960E94470E882309F4F2
:10413000D5C4CE0101960E949B16892B99F3ADB68A
:10414000BEB668EA71E0CE0184960E94F50CCE01FD
:1041500001960E94911B97FD86C08A30910509F453
:1041600082C0888B198A41E050E0BE01605F7F4FBA
:10417000CE0184960E94640CEACF67E0CE0140969F
:104180000E94E5069F8989136ACF8091650490910A
:1041900066040E949707882309F461CFBE016F5F10
:1041A0007F4FCE0140960E94CF07882309F457CF56
:1041B00068E0CE0101960E94E506998589134FCFEC
:1041C0006A8170E0762F6627770F770F770F298146
:1041D00048E0249F90011124262B372B88898031B9
:1041E000D1F4688570E08F81AB01481B5109CA0189
:1041F0009695982F8827979587950E947929CB01C6
:104200004097B90153E0660F771F5A95E1F7607840
:104210009C01260F371F213854EE35070CF41FCFB1
:10422000B901330F880B990B0E942A2720E030E058
:1042300040E05CE30E94892716CFC701B601905881
:10424000A30192010E946F2918160CF057CF65ED5B
:1042500071E081E893E00E94F60B8AED91E00E9404
:10426000A20C61E048CFE8A4F9A4C70101962DB7DC
:104270003EB7281B390B0FB6F8943EBF0FBE2DBFBB
:104280004DB75EB74F5F5F4F6A01E114F10469F00B
:1042900051E0E51AF1086CA17DA1A701C6010E94B9
:1042A000B72BF601EE0DFF1D108266E771E0C60127
:1042B0000E94862566E771E090E080E00E948625F6
:1042C0007C01BC01CE0140960E94F50C63ED72E0CA
:1042D000CE0140960E941F0CD82ECE0140960E941F
:1042E000300DDD2009F40BC26FE279E0CE010196BA
:1042F0000E940D0C67E179E0CE0101960E940D0C41
:10430000CE0101960E94F20B67E079E0CE010196A2
:104310000E940D0C60E079E0CE0101960E940D0C28
:1043200069EF78E0CE0101960E940D0C62EE78E014
:10433000CE0101960E940D0C62EB78E0CE01019651
:104340000E940D0C66E878E0CE0101960E940D0CEB
:1043500061E478E0CE0101960E940D0C6CED77E0EF
:10436000CE0101960E940D0C6CEB77E0CE01019618
:104370000E940D0C69EA77E0CE0101960E940D0CB7
:104380006DE777E0CE0101960E940D0C6AE677E0BA
:10439000CE0101960E940D0C6CE477E0CE010196EF
:1043A0000E940D0C6CE077E0CE0101960E940D0C8E
:1043B00063E077E0CE0101960E940D0C6EEA76E094
:1043C000CE0101960E940D0C6CEA76E0CE010196BA
:1043D0000E940D0C6DE976E0CE0101960E940D0C55
:1043E00063E976E0CE0101960E940D0C69E876E063
:1043F000CE0101960E940D0C66E576E0CE01019695
:104400000E940D0C6EE476E0CE0101960E940D0C28
:1044100067E476E0CE0101960E940D0C6DEF75E029
:10442000CE0101960E940D0C63ED75E0CE01019660
:104430000E940D0C6AE0CE0140960E945A1C6EED5F
:1044400071E0CE0148960E94F50CBE01605F7F4F7F
:10445000CE0148960E94E20C6FE472E00E94CC0C00
:10446000BC01CE0101960E942815CE0148960E94FB
:10447000300DCE0140960E94300D64E6CE0140968C
:104480000E945A1C65E572E0CE0148960E94F50C28
:10449000BE01605F7F4FCE0148960E94E20C6FE440
:1044A00072E00E94CC0CBC01CE0101960E9428153E
:1044B000CE0148960E94300DCE0140960E94300DEC
:1044C00063E975E0CE0101960E940D0C67E875E086
:1044D000CE0101960E940D0C61ED71E084E594E03F
:1044E0000E941F0C882331F063E575E0CE01019630
:1044F0000E940D0C6AED71E084E594E00E941F0CAF
:10450000882331F061E275E0CE0101960E940D0C26
:1045100066E075E0CE0101960E940D0C62EE74E03B
:10452000CE0101960E940A0AC0904E03D0904F031C
:10453000E0905003F0905103A7019601C701B60126
:104540000E9474296EEB72E081111BC026013701B5
:10455000E89477F82FEF3FEF4FE75FE7C301B20131
:104560000E94742981114DC02FEF3FEF4FE75FE7A5
:10457000C301B2010E94232718160CF042C062EC5E
:1045800072E0CE0101960E944D0B6DED74E0CE01FC
:1045900001960E940D0C6AE874E0CE0101960E941B
:1045A0000D0C6CE574E0CE0101960E940D0C62E5E5
:1045B00074E0CE0101960E940D0C6AE474E0CE0115
:1045C00001960E940D0C62E474E0CE0101960E94F7
:1045D0000D0C61E070E080E090E00E94A606CE0144
:1045E00001960E94690ECE0101960E949814CE0198
:1045F00084960E94300D0FB6F894BEBE0FBEADBEBD
:1046000091CD2FEF3FEF4FE75FE4C701B6010E9466
:104610006F2918161CF466EC72E0B3CF2FEF3FEF52
:104620004FE75FECC701B6010E94232787FDF3CF58
:1046300020E030E0A901C701B6010E94232787FFCF
:1046400009C06DE2CE0101960E94F409F7FAF094D8
:10465000F7F8F0942AE037ED43EA5BE3C701B601CF
:104660000E94D4282B013C010E9440296B017C014F
:104670000E9428279B01AC01C301B2010E94D328EC
:104680002B013C012AE0B701A601CE0101960E9450
:104690005C0B6EE2CE0101960E94F40920E030E04E
:1046A00040E251E4C301B2010E9489272B013C0181
:1046B0000E9440296B01F12CE12C2AE0B701A601F0
:1046C000CE0101960E945C0BC701B6010E9428270B
:1046D0009B01AC01C301B2010E94D32820E030E06D
:1046E00040E251E40E9489270E944029AB0170E01A
:1046F00060E02AE0CE0101960E945C0B46CFB70134
:10470000CE0140960E94F50C6AEC72E0CE01409614
:104710000E941F0CD82ECE0140960E94300DDD2045
:1047200009F499C062E374E0CE0101960E940D0C79
:104730006AE174E0CE0101960E940D0CCE01019653
:104740000E94F20B6AE074E0CE0101960E940D0C0B
:1047500063E074E0CE0101960E940D0C6CEF73E0F3
:10476000CE0101960E940D0C65EE73E0CE0101961C
:104770000E940D0C60EA73E0CE0101960E940D0CC0
:104780006BE373E0CE0101960E940D0C68E073E0CC
:10479000CE0101960E940D0C60E073E0CE010196FF
:1047A0000E940D0C69EF72E0CE0101960E940D0C83
:1047B0006AE0CE0140960E945A1C65ED72E0CE017F
:1047C00048960E94F50CBE01605F7F4FCE0148966F
:1047D0000E94E20C6AED72E00E94CC0CBC01CE019A
:1047E00001960E942815CE0148960E94300DCE01F8
:1047F00040960E94300D64E6CE0140960E945A1CFD
:1048000065ED72E0CE0148960E94F50CBE01605F36
:104810007F4FCE0148960E94E20C6AED72E00E9442
:10482000CC0CBC01CE0101960E942815CE01489601
:104830000E94300DCE0140960E94300D60EE72E075
:10484000CE0101960E94F60B68EE72E0CE01019651
:104850000E94F60BBECEB701CE0140960E94F50C29
:1048600060EF72E0CE0140960E941F0CD82ECE0160
:1048700040960E94300DDD2029F0CE0101960E9465
:10488000690EB5CEB701CE014E960E94F50C6DEFC4
:1048900072E0CE0140960E94F50C4C895D898AA198
:1048A0009BA18417950780F08E8D9F8D009761F0F6
:1048B000688979896115710539F00E94A92BDD2479
:1048C000D394892B09F0D12CCE0140960E94300D53
:1048D000DD2009F4FEC064E771E0C7010E9486256F
:1048E000BC0181E893E00E94F60B64E771E090E080
:1048F00080E00E94862562E771E00E9486256C01B7
:1049000062E771E090E080E00E9486257C0160E72C
:1049100071E0C6010E94862560E771E090E080E0CA
:104920000E9486256C0160E771E0C7010E94862520
:1049300060E771E090E080E00E9486257C01B6018E
:10494000CE0140960E94F50CBE01605F7F4F8AE069
:104950000E94A31CCE0140960E94300DB701CE01EB
:1049600040960E94F50CBE01605F7F4F84E60E9476
:10497000A31CCE0140960E94300D69EE72E0CE017C
:1049800001960E940D0C61ED72E0CE0101960E942D
:104990000D0CCE0101960E94F20B61EC72E0CE018B
:1049A00001960E940D0C6AEB72E0CE0101960E9406
:1049B0000D0C63EB72E0CE0101960E940D0C6CE9C8
:1049C00072E0CE0101960E940D0C6BE672E0CE0102
:1049D00001960E940D0C68E372E0CE0101960E94E0
:1049E0000D0C60E372E0CE0101960E940D0C69E2AD
:1049F00072E0CE0101960E940D0C67EF71E0CE01CE
:104A000001960E940D0CB601CE0140960E94F50C55
:104A10006AE073E0CE0148960E94F50CBE01605F2B
:104A20007F4FCE0148960E94E20C6AED72E00E9430
:104A3000CC0CBC01CE0101960E942815CE014896EF
:104A40000E94300DCE0140960E94300DB701CE017C
:104A500040960E94F50C6CE273E0CE0148960E94ED
:104A6000F50CBE01605F7F4FCE0148960E94E20CBC
:104A70006AED72E00E94CC0CBC01CE0101960E944E
:104A80002815CE0148960E94300DCE0140960E9416
:104A9000300D67EC71E0CE0101960E940D0C6FEBBA
:104AA00071E0CE0101960E940D0C67EB71E0CE0122
:104AB00001960E940D0C61E070E080E090E00E94A1
:104AC000A606CE0101960E94690ECE0101960E94B3
:104AD0009814CE014E960E94300D89CD0115110516
:104AE00009F481CA0E946105882309F47CCA0E94E6
:104AF000000079CA1D3008F0D2C9DEC984E594E00F
:104B00000C94300D662777270C94B22547E854E0C3
:104B10000E948B250895FA01A191B081009719F4A4
:104B20001097E1F0CD01DC01CD010D90002011F4D2
:104B3000C00113C0FB012191222319F02015D9F7E0
:104B4000F3CFFB012191201519F41E92119606C096
:104B50002223C1F70D900020A1F7D001FA01A19303
:104B6000B0830895B0E0A0E0E8EBF5E20C94712882
:104B70005C017B016115710519F0DB018D939C933C
:104B800085010F5F1F4FF501D0818D2F90E00E94AE
:104B900002276C01892BB9F5DD32B9F50F5F1F4F84
:104BA000D5011196DC91C1E05801F1E0AF1AB108CE
:104BB00043E050E060E770E0C5010E940B27892BBD
:104BC00069F5680182E0C80ED11C45E050E06BE653
:104BD00070E0C6010E940B27892B21F4680197E041
:104BE000C90ED11CE114F10419F0D701CD92DC9269
:104BF00060E070E080E89FEFC111FFC060E070E00E
:104C000080E89FE7FAC05801BBCFDB3229F4850169
:104C10000E5F1F4FF501D181C0E0C6CF43E050E0E9
:104C200068E670E0C5010E940B27892BE9F0F801C6
:104C300010E000E020E030E0A9015F01B0ED8B2E34
:104C40008D0E89E08815C8F19C2E689491F88C2F00
:104C50008870C2FF16C0811102C00F5F1F4F3196CE
:104C6000D501DC91C92DE9CFE114F10429F00E5FE3
:104C70001F4FF7011183008360E070E080EC9FE735
:104C8000BCC0882311F001501109A5E0B0E00E94DA
:104C900060289B01AC01220F331F441F551F280DB4
:104CA000311D411D511D283999E93907490799E1FD
:104CB0005907A8F2C6609C2ED2CFAEEF8A1206C06A
:104CC000C3FD3CC09C2E689493F8C9CFDF7DD534DA
:104CD000A9F580818D3239F4C061DF01129681819E
:104CE00062E070E006C0DF018B32C1F3119661E033
:104CF00070E080535D01A61AB70A8A30F8F4E0E844
:104D0000CE16ECE0DE065CF4B601660F771F660F88
:104D1000771FC60ED71ECC0CDD1CC80ED11C5D0142
:104D2000FFEFAF1ABF0A8C9180538A30A8F1C4FFFD
:104D300003C0D194C194D1080C0D1D1DC1FF09C041
:104D4000E114F10431F081E0A81AB108D701AD9265
:104D5000BC92CA01B9010E942827C370C33009F46C
:104D600090584B015C0120E030E0A9010E9423270C
:104D7000882309F440C0CFE9D0E017FF05C01195A2
:104D800001951109C7E8D0E06E01B8E1CB1AD1084E
:104D900080E2E82EF12C0FC0D501B1CFFE012591A4
:104DA0003591459154910E191F09C501B4010E9416
:104DB00089274B015C01D501C4010E151F0574F74D
:104DC0002497F594E794CC16DD06A9F78A2F880F6F
:104DD0008B2F881F8F3F49F020E030E0A901C501EB
:104DE000B4010E942327811106C082E290E09093D3
:104DF0008A0480938904C501B401CDB7DEB7ECE025
:104E00000C948D2891110C94F627803219F089505A
:104E10008550C8F70895FB01DC014150504088F0EF
:104E20008D9181341CF08B350CF4805E659161347A
:104E30001CF06B350CF4605E861B611171F3990BED
:104E40000895881BFCCF0E94652708F481E008952F
:104E5000E89409C097FB3EF4909580957095619514
:104E60007F4F8F4F9F4F9923A9F0F92F96E9BB27CA
:104E70009395F695879577956795B795F111F8CF46
:104E8000FAF4BB0F11F460FF1BC06F5F7F4F8F4FB1
:104E90009F4F16C0882311F096E911C0772321F0A7
:104EA0009EE8872F762F05C0662371F096E8862F3F
:104EB00070E060E02AF09A95660F771F881FDAF796
:104EC000880F9695879597F90895990F0008550FC3
:104ED000AA0BE0E8FEEF16161706E807F907C0F080
:104EE00012161306E407F50798F0621B730B840B88
:104EF000950B39F40A2661F0232B242B252B21F462
:104F000008950A2609F4A140A6958FEF811D811D01
:104F100008950E949C270C9410280E94022838F0C3
:104F20000E94092820F0952311F00C94F9270C9485
:104F3000FF2711240C9444280E94212870F3959F88
:104F4000C1F3950F50E0551F629FF001729FBB2780
:104F5000F00DB11D639FAA27F00DB11DAA1F649F1C
:104F60006627B00DA11D661F829F2227B00DA11DCF
:104F7000621F739FB00DA11D621F839FA00D611D55
:104F8000221F749F3327A00D611D231F849F600D76
:104F9000211D822F762F6A2F11249F5750409AF09F
:104FA000F1F088234AF0EE0FFF1FBB1F661F771F2B
:104FB000881F91505040A9F79E3F510580F00C94F6
:104FC000F9270C9444285F3FE4F3983ED4F3869588
:104FD00077956795B795F795E7959F5FC1F7FE2B96
:104FE000880F911D9695879597F908959927882799
:104FF000089597F99F6780E870E060E008959FEF5B
:1050000080EC089500240A9416161706180609065F
:10501000089500240A94121613061406050608952E
:10502000092E0394000C11F4882352F0BB0F40F4B6
:10503000BF2B11F460FF04C06F5F7F4F8F4F9F4FF6
:10504000089557FD9058440F551F59F05F3F71F078
:105050004795880F97FB991F61F09F3F79F08795DF
:105060000895121613061406551FF2CF4695F1DF68
:1050700008C0161617061806991FF1CF86957105F8
:10508000610508940895E894BB2766277727CB012C
:1050900097F90895F999FECF92BD81BDF89A9927A5
:1050A00080B50895262FF999FECF1FBA92BD81BD14
:1050B00020BD0FB6F894FA9AF99A0FBE019608959A
:1050C0000E94C428A59F900DB49F900DA49F800DB1
:1050D000911D112408952F923F924F925F926F92EB
:1050E0007F928F929F92AF92BF92CF92DF92EF9278
:1050F000FF920F931F93CF93DF93CDB7DEB7CA1BF9
:10510000DB0B0FB6F894DEBF0FBECDBF09942A8823
:10511000398848885F846E847D848C849B84AA84CB
:10512000B984C884DF80EE80FD800C811B81AA8158
:10513000B981CE0FD11D0FB6F894DEBF0FBECDBF23
:10514000ED010895A1E21A2EAA1BBB1BFD010DC0A3
:10515000AA1FBB1FEE1FFF1FA217B307E407F50727
:1051600020F0A21BB30BE40BF50B661F771F881F03
:10517000991F1A9469F760957095809590959B0199
:10518000AC01BD01CF010895A29FB001B39FC00142
:10519000A39F700D811D1124911DB29F700D811D63
:1051A0001124911D08955058BB27AA270E94EB286F
:1051B0000C9410280E94022838F00E94092820F040
:1051C00039F49F3F19F426F40C94FF270EF4E09570
:1051D000E7FB0C94F927E92F0E94212858F3BA170E
:1051E000620773078407950720F079F4A6F50C94FD
:1051F00043280EF4E0950B2EBA2FA02D0B01B90118
:1052000090010C01CA01A0011124FF27591B99F03C
:10521000593F50F4503E68F11A16F040A22F232F48
:10522000342F4427585FF3CF469537952795A79598
:10523000F0405395C9F77EF41F16BA0B620B730B3F
:10524000840BBAF09150A1F0FF0FBB1F661F771FB0
:10525000881FC2F70EC0BA0F621F731F841F48F465
:10526000879577956795B795F7959E3F08F0B0CFEE
:105270009395880F08F09927EE0F979587950895D5
:105280000E94292888F09F5798F0B92F9927B75185
:10529000B0F0E1F0660F771F881F991F1AF0BA95DA
:1052A000C9F714C0B13091F00E944328B1E00895CD
:1052B0000C944328672F782F8827B85F39F0B93FBF
:1052C000CCF3869577956795B395D9F73EF490958D
:1052D0008095709561957F4F8F4F9F4F08950E94E5
:1052E000652708F48FEF08950E946527880B990BB6
:1052F000089597FB072E16F4009407D077FD09D088
:105300000E948D2907FC05D03EF4909581959F4F12
:105310000895709561957F4F0895AA1BBB1B51E1BD
:1053200007C0AA1FBB1FA617B70710F0A61BB70B15
:10533000881F991F5A95A9F780959095BC01CD01BA
:105340000895EE0FFF1F0590F491E02D09940F933F
:105350001F93CF93DF938230910510F482E090E0A9
:10536000E0918D04F0918E0430E020E0B0E0A0E008
:10537000309799F42115310509F44AC0281B390BDF
:1053800024303105D8F58A819B816115710589F139
:10539000FB0193838283FE0111C040815181028110
:1053A000138148175907E0F04817590799F41097E7
:1053B00061F012960C93129713961C933296CF01BC
:1053C000DF91CF911F910F91089500938D04109359
:1053D0008E04F4CF2115310551F04217530738F0F0
:1053E000A901DB019A01BD01DF01F801C1CFEF0185
:1053F000F9CF90938E0480938D04CDCFFE01E20F00
:10540000F31F819391932250310939832883D7CF99
:1054100020918B0430918C04232B41F420910E01B8
:1054200030910F0130938C0420938B0420910C0158
:1054300030910D012115310541F42DB73EB7409152
:10544000100150911101241B350BE0918B04F09158
:105450008C04E217F307A0F42E1B3F0B2817390723
:1054600078F0AC014E5F5F4F2417350748F04E0FC0
:105470005F1F50938C0440938B04819391939FCF33
:10548000F0E0E0E09CCFCF93DF930097E9F0FC01E0
:10549000329713821282A0918D04B0918E04ED0197
:1054A00030E020E01097A1F420813181820F931F1A
:1054B00020918B0430918C042817390709F061C0C2
:1054C000F0938C04E0938B04DF91CF910895EA016F
:1054D000CE17DF07E8F54A815B819E014115510532
:1054E000B1F7E901FB83EA8349915991C40FD51FB4
:1054F000EC17FD0761F4808191810296840F951F5E
:10550000E90199838883828193819B838A83F0E078
:10551000E0E012968D919C9113970097B9F52D912B
:105520003C911197CD010296820F931F20918B041D
:1055300030918C042817390739F6309751F51092BD
:105540008E0410928D04B0938C04A0938B04BCCF76
:10555000D383C28340815181840F951FC817D90717
:1055600061F44E5F5F4F88819981480F591F5183C5
:1055700040838A819B81938382832115310509F0C1
:10558000B0CFF0938E04E0938D049ECFFD01DC013B
:10559000C0CF13821282D7CFB0E0A0E0E2EDFAE2F2
:1055A0000C946D288C01009751F4CB010E94A7291F
:1055B0008C01C801CDB7DEB7E0E10C948928FC016D
:1055C000E60FF71F9C0122503109E217F30708F498
:1055D0009DC0D901CD91DC911197C617D70798F0DE
:1055E000C530D10530F3CE0104978617970708F32D
:1055F000C61BD70B2297C193D1936D937C93CF0198
:105600000E94432AD6CF5B01AC1ABD0A4C018C0E16
:105610009D1EA0918D04B0918E04512C412CF12C33
:10562000E12C109731F580918B0490918C048815B2
:10563000990509F05CC04616570608F058C08091DD
:105640000C0190910D01009741F48DB79EB74091E8
:10565000100150911101841B950BE817F90708F010
:1056600055C0F0938C04E0938B04F901718360833F
:10567000A0CF8D919C91119712966C9012971396D2
:105680007C901397A815B90559F56C0142E0C40E3A
:10569000D11CCA14DB0420F1AC014A195B09DA0100
:1056A0001296159780F06282738251834083D901EC
:1056B0006D937C93E114F10471F0D7011396FC9380
:1056C000EE93129776CF22968C0F9D1FF90191834E
:1056D0008083F301EFCFF0938E04E0938D0469CFC4
:1056E0004816590608F42C017D01D3019ACFCB014D
:1056F0000E94A7297C01009749F0AE01B8010E94E1
:10570000892BC8010E94432A870153CF10E000E093
:1057100050CFFB01DC0102C001900D92415050407E
:10572000D8F70895DC0101C06D9341505040E0F777
:105730000895FB01DC018D91019080190110D9F3CE
:10574000990B0895FB01DC0101900D920020E1F717
:105750000895FB01DC014150504030F08D910190E3
:10576000801919F40020B9F7881B990B0895FB01E3
:10577000DC014150504048F001900D920020C9F7E3
:1057800001C01D9241505040E0F7089514E0C4EC70
:10579000D4E004C0FE010E94A1292196C53CD10796
:0657A000C9F7F894FFCFE9
:1057A600C0A8040100C0DEADBEEFFEED00008F0410
:1057B600800001005E00000000000000F4090D15E5
:1057C600AD1498149B16771B0411F212EC1ABB1B2E
:1057D600690E470E3C0A390A370AE9092D0A301CB8
:1057E600EE1BC41B290A00000000BD093F159C0AD8
:1057F600F604F2049117F51074130A12080E450AFE
:10580600791AA20EBB177217940A840A800A7C0AB8
:105816003D0026003F0020005E00BC00770100002E
:1058260000009705F7042405E405550533054705EB
:1058360000000000A80B00000000D3094A169C0ACD
:105846009B0A9913230E0D0A0032302E3235005270
:10585600656164790045746865726E657420736865
:1058660069656C64206E612049503A0052454C458A
:10587600205A41500052454C4520565950003C6232
:105886003E5265666572656EC48D6EC3A1207465F1
:10589600706C6F74613A3C2F623E3C62723E3C69AA
:1058A6006E70757420747970653D276E756D6265CE
:1058B60072272069643D27666E616D6527206E61DB
:1058C6006D653D27666E616D6527206D696E3D27A6
:1058D6003527206D61783D27353027207374657034
:1058E6003D27302E3235272076616C75653D003EAA
:1058F6003C62723E003C623E487973746572C3A98D
:105906007A613A3C2F623E3C62723E3C696E70752B
:105916007420747970653D276E756D6265722720F7
:1059260069643D27666E616D653227206E616D651F
:105936003D27666E616D653227206D696E3D2730A5
:1059460027206D61783D2731302720737465703DBF
:1059560027302E3235272076616C75653D006E61E5
:105966006E00696E66006F7666002F6765745F6409
:105976006174612F003C6C693E003C2F6C693E00EF
:105986003C2F626F64793E003C2F68746D6C3E005C
:105996002F66617669636F6E2E69636F002F616390
:1059A60074696F6E2E68746D6C003C6C693E3C6267
:1059B6003E5265666572656EC48D6EC3A1207465C0
:1059C600706C6F74613A203C2F623E003C6C693EFD
:1059D6003C623E487973746572C3A97A613A203C89
:0459E6002F623E00EE
:00000001FF
