:100000000C94CA060C94F2060C94F2060C94F206B8
:100010000C94F2060C94F2060C94F2060C94F20680
:100020000C94F2060C94F2060C94F2060C94F20670
:100030000C94F2060C94F2060C94F2060C94F20660
:100040000C942F220C94F2060C94FD210C94D721D1
:100050000C94F2060C94F2060C94F2060C94F20640
:100060000C94F2060C94F2064E414E494E495459F6
:10007000494E46CDCCCC3D0AD7233C17B7D1387773
:10008000CC2B329595E6241FB14F0A000020410089
:1000900000C84200401C4620BCBE4CCA1B0E5AAED3
:1000A000C59D7400407A10F35A00A0724E180900E2
:1000B00010A5D4E80000E87648170000E40B5402CD
:1000C0000000CA9A3B000000E1F505000080969808
:1000D00000000040420F000000A086010000001058
:1000E0002700000000E8030000000064000000009A
:1000F000000A00000000000100000000002C76D87B
:1001000088DC674F0823DFC1DFAE59E1B1B796E560
:10011000E3E453C63AE651997696E8E6C28426EBC4
:10012000898C9B62ED407C6FFCEFBC9C9F40F2BAD7
:10013000A56FA5F490055A2AF75C936B6CF9676D6F
:10014000C11BFCE0E40D47FEF520E6B500D0ED90C4
:100150002E0300943577050080841E080000204E91
:100160000A000000C80C333333330F986E1283112A
:1001700041EF8D2114893BE65516CFFEE6DB18D101
:10018000844B381BF77C1D901DA4BBE424203284D3
:10019000725E228100C9F124ECA1E53D27005EBC1E
:1001A000E2613FDD83C29C7E20A3FD1F419DC321F0
:1001B0007FFCA2401E5F01E3BD3E6082DC237D9F89
:1001C000C1421CFEA0E1BF5D0380DE3C62BEE002D6
:1001D0005CDF81633D7C22C09E1D43A1FF4618FA6F
:1001E000A427799BC584DA3866E5BB5907DB8567A8
:1001F00039BAE406581947A5FB7826C49A653BD955
:1002000087045AB8E6A7F91B45C6987A24F8A6448D
:100210001A99C7257B3A6486D85B05E7B98CD2303A
:100220006EEDB3510F4E10F2AC2F7193CD114FAD57
:10023000F3702ECC92D38D6F31B2EC0E50AFF11320
:100240004DCE90722C6D33D18F0C52B0EE326C8E3D
:10025000D0530DEFB1F0AE4C1291CF2D73CA9476FE
:1002600028ABF517490856B4EA6937D58B5709EB1F
:10027000B536688AD495CB2977F4AA4816E9B755DC
:100280000B88D6346A2B7597C94A14F6A8742AC805
:1002900096154BA9F7B6E80A54D7896B35000000CC
:1002A0000800020100000304070000000000000035
:1002B0000000000000250028002B000000000024A2
:1002C0000027002A0045746865726E6574207468A2
:1002D00065726D6F7374617420495020616464723B
:1002E0006573733A004275696C6420312E302E3488
:1002F0002066726F6D2031382E20536570203230A9
:100300003231005765626170702063726561746597
:10031000642062793A204D617274696E2043686C82
:1003200065626F76656300485454502F312E31203A
:10033000343034204E6F7420466F756E64003C2F4D
:1003400068746D6C3E003C2F626F64793E003C62C5
:100350003E5265646972656374696E67202E2E2E45
:1003600020506C6561736520776169743C2F623E33
:100370003C2F63656E7465723E003C68333E3C669C
:100380006F6E7420636F6C6F723D27726564273ED9
:10039000546865206461746120656E74657265647B
:1003A000206973206E6F742061206E756D626572B6
:1003B00021212120506C6561736520747279206160
:1003C0006761696E20616674657220726564697226
:1003D000656374696E672E3C2F666F6E743E3C2FAA
:1003E00068333E003C63656E7465723E3C68333E24
:1003F00053657276657220726563656976656420FF
:1004000064617461732066726F6D2048544D4C2096
:10041000666F726D3A3C2F68333E003C626F6479C0
:100420003E003C2F686561643E003C7469746C65F5
:100430003E48545450207765627365727665722029
:100440002D2041726475696E6F202B20457468659C
:10045000726E65743C2F7469746C653E003C6D650A
:10046000746120687474702D65717569763D2752CA
:100470006566726573682720636F6E74656E743D80
:1004800027353B2075726C3D2F27202F3E003C6D99
:1004900065746120636861727365743D2775746665
:1004A0002D38273E003C686561643E003C68746DF1
:1004B0006C3E003C21444F43545950452068746DB4
:1004C0006C3E00436F6E74656E742D547970653A9E
:1004D00020746578742F68746D6C00485454502FE4
:1004E000312E3120323030204F4B00557365722051
:1004F000696E70757420666F72206B657920666E08
:10050000616D65322028487973746572657369730B
:1005100029206973206E6F742061206E756D62658D
:100520007221005573657220696E70757420666F54
:1005300072206B657920666E616D6520285461724A
:100540006765742074656D70657261747572652974
:10055000206973206E6F742061206E756D62657204
:1005600021007D002241637475616C5F54656D707C
:1005700065726174757265223A002C0022546172B2
:100580006765745F54656D7065726174757265221C
:100590003A002C002248797374657265736973227E
:1005A0003A007B00436F6E74656E742D54797065EC
:1005B0003A206170706C69636174696F6E2F6A7341
:1005C0006F6E00485454502F312E3120323030207D
:1005D0004F4B003C2F68746D6C3E003C2F626F6483
:1005E000793E003C2F63656E7465723E003C683452
:1005F0003E467265652076657273696F6E202D20A8
:10060000312E302E34206275696C643A2031382ED8
:10061000205365702E20323032313C2F68343E003A
:100620003C68333E417574686F723A204D61727454
:10063000696E2043686C65626F766563202D206D5E
:10064000617274696E697573393640676D61696C82
:100650002E636F6D202D2068747470733A2F2F6D88
:10066000617274696E69757339362E67697468755D
:10067000622E696F2F7465726D6F737461742D656E
:10068000746865726E65742F656E2F3C2F68333EFB
:1006900000730020006D0020006800200064003C12
:1006A000623E557074696D653A203C2F623E003C95
:1006B00068723E0020C2B043003C623E41637475E4
:1006C000616C2074656D7065726174757265206609
:1006D000726F6D20445331384232303A3C2F623EC3
:1006E00020003C6469762069643D22636F756E74F6
:1006F000646F776E223E3C2F6469763E003C623E1A
:100700003C666F6E7420636F6C6F723D2772656418
:10071000273E4F75747075743A204F46463C2F66DD
:100720006F6E743E3C2F623E003C623E3C666F6ED4
:100730007420636F6C6F723D27677265656E273E2C
:100740004F75747075743A204F4E3C2F666F6E74FF
:100750003E3C2F623E003C2F666F726D3E3C6872DD
:100760003E003C696E70757420747970653D277326
:1007700075626D69742720636C6173733D276274C1
:100780006E2062746E2D73756363657373272076B4
:10079000616C75653D2753656E64273E003C666F4E
:1007A000726D20616374696F6E3D272F6163746998
:1007B0006F6E2E68746D6C27206D6574686F643D74
:1007C00027676574273E003C63656E7465723E3C26
:1007D00068333E456E746572206461746120666F93
:1007E0007220776562736572766572202877696C0E
:1007F0006C2062652073746F72656420696E204599
:100800004550524F4D293A3C2F68333E003C626FB1
:1008100064793E003C2F686561643E003C746974F5
:100820006C653E48545450207765627365727665F6
:1008300072202D2041726475696E6F202B204574E3
:100840006865726E65743C2F7469746C653E003C1B
:100850002F7363726970743E007D2C20313030300C
:10086000293B0074696D656C656674202D3D2031EF
:100870003B007D00646F63756D656E742E676574F3
:10088000456C656D656E74427949642822636F75A5
:100890006E74646F776E22292E696E6E657248548D
:1008A0004D4C203D2074696D656C656674202B206D
:1008B00022207365636F6E647320746F20726566A7
:1008C00072657368223B007D20656C7365207B0038
:1008D000646F63756D656E742E676574456C656DC8
:1008E000656E74427949642822636F756E74646F13
:1008F000776E22292E696E6E657248544D4C203DEC
:100900002022526566726573682E2E2E223B00638C
:100910006C656172496E74657276616C28646F777C
:100920006E6C6F616454696D6572293B006966285D
:1009300074696D656C656674203C3D2030297B00D0
:1009400076617220646F776E6C6F616454696D6557
:1009500072203D20736574496E74657276616C28EF
:1009600066756E6374696F6E28297B0076617220EC
:1009700074696D656C656674203D2033303B003CC6
:1009800073637269707420747970653D277465783B
:10099000742F6A617661736372697074273E003CDC
:1009A0006C696E6B2072656C3D277374796C65732E
:1009B000686565742720687265663D276874747081
:1009C000733A2F2F6D617863646E2E626F6F74734C
:1009D0007472617063646E2E636F6D2F626F6F74DB
:1009E00073747261702F332E342E312F6373732F13
:1009F000626F6F7473747261702E6D696E2E6373A3
:100A000073273E003C6D657461206E616D653D2706
:100A100076696577706F72742720636F6E74656E88
:100A2000743D2777696474683D6465766963652DF4
:100A300077696474682C20696E697469616C2D73C0
:100A400063616C653D31273E003C6D6574612068D3
:100A50007474702D65717569763D2752656672658F
:100A600073682720636F6E74656E743D273330277B
:100A70003B202F3E003C6D657461206E616D653DCD
:100A800027617574686F722720636F6E74656E746A
:100A90003D274D617274696E2043686C65626F76A4
:100AA0006563273E003C6D65746120636861727305
:100AB00065743D277574662D38273E003C2F73639F
:100AC000726970743E00736D6172746C6F6F6B2825
:100AD00027696E6974272C20276462353065666546
:100AE0003966666632383061313764623532623871
:100AF000326265323231323430636262643364624E
:100B00006527293B007D2928646F63756D656E74C8
:100B1000293B00632E636861727365743D277574A9
:100B2000662D38273B632E7372633D27687474709B
:100B3000733A2F2F7265632E736D6172746C6F6FD1
:100B40006B2E636F6D2F7265636F726465722E6AB0
:100B500073273B682E617070656E644368696C64CE
:100B60002863293B0076617220633D642E637265C1
:100B7000617465456C656D656E7428277363726971
:100B8000707427293B6F2E6170693D6E6577204137
:100B90007272617928293B632E6173796E633D74AB
:100BA0007275653B632E747970653D277465787442
:100BB0002F6A617661736372697074273B00766196
:100BC00072206F3D736D6172746C6F6F6B3D6675F3
:100BD0006E6374696F6E28297B206F2E6170692E99
:100BE0007075736828617267756D656E7473297DA1
:100BF0002C683D642E676574456C656D656E747315
:100C000042795461674E616D652827686561642784
:100C1000295B305D3B0077696E646F772E736D6181
:100C200072746C6F6F6B7C7C2866756E6374696F11
:100C30006E286429207B003C736372697074207491
:100C40007970653D27746578742F6A617661736386
:100C500072697074273E003C686561643E003C68C0
:100C6000746D6C3E003C21444F43545950452068FC
:100C7000746D6C3E00436F6E74656E742D547970A4
:100C8000653A20746578742F68746D6C004854540C
:100C9000502F312E3120323030204F4B00416374C1
:100CA00075616C207374617465206F66206F757454
:100CB0007075743A2000446966666572656E636596
:100CC000206265747765656E207461726765742053
:100CD000616E642061637475616C2074656D702051
:100CE0006973206E6F742061626F7665206F722069
:100CF00062656C6F772074686520687973746572BB
:100D0000657369732E20546865206F7574707574EF
:100D100020737461746520646F6573206E6F742036
:100D20006368616E67652E004F7574707574206F0F
:100D30006666004F7574707574206F6E0045746838
:100D400065726E657420746865726D6F737461741A
:100D500020495020616464726573733A000000009A
:100D600000230026002900040404040404040402EF
:100D70000202020202030303030303010204081038
:100D80002040800102040810200102040810200005
:100D900079221A2F11241FBECFEFD8E0DEBFCDBFBE
:100DA00012E0A0E0B1E0E6E4F1E702C005900D92A8
:100DB000A23DB107D9F724E0A2EDB2E001C01D9237
:100DC000A538B207E1F716E0C9ECD6E004C02197D8
:100DD000FE010E946436C83CD107C9F70E94512326
:100DE0000C9496380C9400008CBD9DBD089520E3B2
:100DF000FC0120833296862F82958F706F706A3047
:100E000030F4605D6293682F8111F5CF0895695CBD
:100E1000F9CFFC01818D928D08950895FC01248104
:100E200035816217730748F480819181009729F01A
:100E3000860F971FFC018081089580E00895DB01F3
:100E400014964D915C9115976D917C91DC01ED911B
:100E5000FC910280F381E02D0994EF92FF920F93B1
:100E60001F93CF93DF938C017B01D0E0C0E0F701AB
:100E7000EC0FFD1F6491662361F0D801ED91FC91A8
:100E80000190F081E02DC8010995892B11F0219680
:100E9000EECFCE01DF91CF911F910F91FF90EF9098
:100EA0000895AF92BF92CF92DF92EF92FF920F938D
:100EB0001F93CF93DF936C017B018B01040F151FF0
:100EC000EB015E01AE18BF08C017D10759F0699158
:100ED000D601ED91FC910190F081E02DC6010995BC
:100EE000892B79F7C501DF91CF911F910F91FF9069
:100EF000EF90DF90CF90BF90AF900895FC01538D9D
:100F0000448D252F30E0842F90E0821B930B5417E3
:100F100010F0CF96089501970895FC01918D828D70
:100F2000981761F0A28DAE0FBF2FB11D5D968C9109
:100F3000928D9F5F9F73928F90E008958FEF9FEF48
:100F40000895FC01918D828D981731F0828DE80F04
:100F5000F11D858D90E008958FEF9FEF0895FC01BE
:100F6000918D228D892F90E0805C9F4F821B91098B
:100F70008F739927089587E793E00E94AF0721E0D8
:100F8000892B09F420E0822F089580E090E0892BDE
:100F900029F00E94BB0781110C9400000895FC0108
:100FA000A48DA80FB92FB11DA35ABF4F2C91848DCA
:100FB00090E001968F739927848FA689B7892C9327
:100FC000A089B1898C91837080648C93938D848D7A
:100FD000981306C00288F389E02D80818F7D80837D
:100FE0000895EF92FF920F931F93CF93DF93EC013D
:100FF00081E0888F9B8D8C8D98131AC0E889F989C0
:10100000808185FF15C09FB7F894EE89FF896083C2
:10101000E889F98980818370806480839FBF81E043
:1010200090E0DF91CF911F910F91FF90EF90089585
:10103000F62E0B8D10E00F5F1F4F0F731127E02E60
:101040008C8D8E110CC00FB607FCFACFE889F98998
:10105000808185FFF5CFCE010E94CF07F1CFEB8DC8
:10106000EC0FFD2FF11DE35AFF4FF0829FB7F8946C
:101070000B8FEA89FB8980818062CFCFCF93DF938A
:10108000EC01888D8823B9F0AA89BB89E889F989A0
:101090008C9185FD03C0808186FD0DC00FB607FCD5
:1010A000F7CF8C9185FFF2CF808185FFEDCFCE0108
:1010B0000E94CF07E9CFDF91CF91089590E0FC0126
:1010C000E356FD4F2491FC01E558F24F3491FC01A9
:1010D000E959F24FE491EE23C9F0222339F023308D
:1010E00001F1A8F4213019F1223029F1F0E0EE0FDE
:1010F000FF1FEF54FD4FA591B4918FB7F894EC9179
:10110000611126C030953E233C938FBF0895273050
:10111000A9F02830C9F0243049F7809180008F7DF4
:1011200003C0809180008F7780938000DFCF84B5EB
:101130008F7784BDDBCF84B58F7DFBCF8091B000EE
:101140008F778093B000D2CF8091B0008F7DF9CFA0
:101150003E2BDACFCF93DF9390E0FC01E558F24FBE
:1011600024918959924FFC0184918823D1F090E019
:10117000880F991FFC01E554FD4FA591B491FC0126
:10118000EF54FD4FC591D49161110EC09FB7F894F3
:101190008C91E22FE0958E238C932881E223E883C3
:1011A0009FBFDF91CF9108958FB7F894EC91E22B18
:1011B000EC938FBFF6CF3FB7F8948091D80290910F
:1011C000D902A091DA02B091DB0226B5A89B05C036
:1011D0002F3F19F00196A11DB11D3FBFBA2FA92FB6
:1011E000982F8827BC01CD01620F711D811D911DB3
:1011F00042E0660F771F881F991F4A95D1F708951F
:101200008F929F92AF92BF92CF92DF92EF92FF9216
:101210006B017C010E94DB084B015C01C114D1040D
:10122000E104F104B9F00E94DB08681979098A0920
:101230009B09683E73408105910580F321E0C21A45
:10124000D108E108F10888EE880E83E0981EA11C01
:10125000B11CE4CFFF90EF90DF90CF90BF90AF90A4
:101260009F908F9008952FB7F8946091D402709159
:10127000D5028091D6029091D7022FBF0895DC014C
:1012800080E0615038F0ED91E827F0E0E356FE4F42
:101290008491F7CF0895DC012C911196ED91FC918A
:1012A000F8948181822B81839281322F3095932310
:1012B000928387E090E00197F1F781818323818316
:1012C00083E290E00197F1F790817894EFECF0E001
:1012D0003197F1F7922381E009F480E00895FC0151
:1012E00090810180F281E02D292F209560FF14C0AC
:1012F000F8948281822382838181892B8183A3E276
:10130000B0E01197F1F78281982B9283789487ED62
:1013100090E00197F1F70895F89482818223828307
:101320008181892B8183AFEFB0E01197F1F7828142
:10133000982B928378948FE090E0EBCFDF92EF923E
:10134000FF920F931F93CF93DF93EC01D62EE42EE1
:1013500008E010E0FF24F39461E08D2D8F2109F463
:1013600060E0CE010E946F09FF0C01501109A1F746
:10137000E11010C0F894E981FA819181888180950B
:1013800089238183E981FA819281888180958923EB
:1013900082837894DF91CF911F910F91FF90EF900E
:1013A000DF900895EF92FF920F931F93CF93DF93F7
:1013B0008C017B0140E065E50E949E09E70188E021
:1013C000E80EF11C699140E0C8010E949E09CE150B
:1013D000DF05C1F7DF91CF911F910F91FF90EF9043
:1013E0000895FC0190810180F281E02DF8948181C3
:1013F000292F20958223818378943DE743E050E0B4
:10140000315029F1DA011197F1F780818923C1F375
:10141000F8948281822382838181892B81837894CD
:10142000ABE7B7E01197F1F7F894818182238183CC
:10143000A3E1B1E01197F1F78081982381E009F0F1
:1014400080E07894E3E6F6E03197F1F7089580E0E4
:101450000895AF92BF92CF92DF92EF92FF920F93D7
:101460001F93CF93DF938B01BC0180915B0490911C
:101470005C040E94D20940E06EEB80915B04909185
:101480005C040E949E09E801680189E0C80ED11C35
:10149000A0905B04B0905C0488E0E82EF12C10E092
:1014A00001E0C5010E944B098111102B000F81E062
:1014B000E81AF108B1F71993CC16DD0649F78091C7
:1014C0005B0490915C040E94F10991E0813009F085
:1014D00090E0892FDF91CF911F910F91FF90EF90B6
:1014E000DF90CF90BF90AF9008950F931F93CF934D
:1014F000DF93CDB7DEB729970FB6F894DEBF0FBEE6
:10150000CDBF8C0180915B0490915C040E94F10935
:10151000811102C080E01FC0BE016F5F7F4FC80114
:101520000E94290A8823B1F368E0CE0101960E9447
:101530003F0999858913EECF8D818F33B9F020F45F
:101540008F3141F789E007C08F3521F08F3711F7D0
:101550008CE001C08BE029960FB6F894DEBF0FBE79
:10156000CDBFDF91CF911F910F9108958AE0F3CF06
:10157000FC0120812EBD9B012150310941F0518198
:101580000DB407FEFDCF4EB55EBD4193F5CF615062
:101590007109860F971F0DB407FEFDCF2EB5FC0114
:1015A00020830895E091DD02F091DE028081909128
:1015B000DC02892B80830895E091DD02F091DE0248
:1015C00090818091DC0280958923808308958EBD6F
:1015D00000000DB407FEFDCF8EB50895AF92BF9207
:1015E000CF92DF92EF92FF920F931F93CF93DF93EF
:1015F000CDB7DEB728970FB6F894DEBF0FBECDBFCC
:101600008C017B016A01809176038333E1F45801F8
:10161000A40EB51EA016B10609F46FC00E94DC0A24
:1016200080EF0E94E70A812F0E94E70A802F0E9424
:10163000E70A0F5F1F4FF70181917F010E94E70AC0
:101640000E94D20AE7CF5B01A40EB51E8433C1F419
:101650000E94DC0A19830A838D2D80688B83CC82DB
:1016600064E070E0CE0101960E94B80AAE14BF0497
:1016700009F441C0F70181917F010E94E70AF6CF8A
:101680000E94DC0A0F3F110509F028F419820A8331
:1016900084E08B830CC017FD17C019820A8333E0E6
:1016A000169507953A95E1F7007E0C600B8386E06E
:1016B000C816D104A0F5F701DE011496EA15FB0562
:1016C00099F081918D93FACFC80126E09695879580
:1016D0002A95E1F7807E19830A830115104C10F4D6
:1016E0008461D7CF8C61D5CFB6016D5F7F4FCE01BE
:1016F00001960E94B80A0E94D20AC60128960FB627
:10170000F894DEBF0FBECDBFDF91CF911F910F9137
:10171000FF90EF90DF90CF90BF90AF90089563E07F
:1017200070E0CE0101960E94B80AF70181917F0115
:101730000E94E70AAE14BF04C1F7DDCFCF93DF9359
:101740001F92CDB7DEB7898341E050E0BE016F5FE5
:101750007F4F90E080E00E94EE0A0F90DF91CF91E2
:10176000089590E020917603233339F40C96982F56
:10177000990F990F990F80E008954896F8CFDA01F4
:10178000E091E002F0E0FE2FEE27E60FF71F90E079
:10179000982F8827A901BD018E0F9F1F0C94EE0A78
:1017A000CF93DF9300D0CDB7DEB779836A8322E091
:1017B00030E0AE014F5F5F4F60E170E00E94BF0B11
:1017C0000F900F90DF91CF910895CF93DF9300D0CA
:1017D000CDB7DEB779836A8322E030E0AE014F5F98
:1017E0005F4F64E070E00E94BF0B0F900F90DF919D
:1017F000CF910895CF93DF931F92CDB7DEB720919D
:10180000E00230E0322F2227260F371F90E0982F7A
:101810008827498341E050E0BE016F5F7F4F820F10
:10182000931F0E94EE0A0F90DF91CF910895CF93FE
:10183000DF931F92CDB7DEB76983DC01ED91FC9198
:101840000280F381E02D41E050E0BE016F5F7F4FE9
:1018500009950F90DF91CF910895CF93DF931F9259
:10186000CDB7DEB76983DC01ED91FC910280F38195
:10187000E02D41E050E0BE016F5F7F4F09950F9072
:10188000DF91CF910895FC019485FB018485981325
:1018900003C081E0943008F080E00895CF93DF9397
:1018A0001F92CDB7DEB76983DC01ED91FC91028018
:1018B000F381E02D41E050E0BE016F5F7F4F09955D
:1018C0000F90DF91CF910895FC0176876587089589
:1018D000DC01ED91FC91068CF78DE02D099591E0EE
:1018E00089270895862F089581E08627089521E0AD
:1018F000FC018485843008F020E0822F089544E0C4
:1019000050E0BC018FE090E00C94EE0A0895FF9245
:101910000F931F93CF93DF93EB01FC01178A168A75
:101920002A81211109C02B81211106C02C8121118E
:1019300003C02D81222301F141155105E9F08A01EF
:10194000FC01F08C80E591E00E94F406AE014E5F50
:101950005F4F24E030E06CE070E08F2D0E94BF0B01
:10196000B8018F2D0E94D00B81E090E0DF91CF91E4
:101970001F910F91FF90089580E0F7CFFC018485BF
:1019800095850895FC0184899589089524E931E0BD
:10199000FC0131832083FB0140895189628973896D
:1019A000FC0142835383648375830895DC01ED91C8
:1019B000FC91048CF58DE02D0994089590E080E071
:1019C000089580915B0490915C040E94F10940E0CD
:1019D0006CEC80915B0490915C040E949E094091A4
:1019E000560464E480915B0490915C040E949E091B
:1019F000809158048823A1F0E0915704E9506EEEDD
:101A000072E0E33038F4F0E0EE0FFF1FE858FE4FCD
:101A100060817181072E000C880B990B0C940009D2
:101A20000895BF92CF92DF92EF92FF920F931F9390
:101A3000CF93DF93EC01B62EC72EED84E11004C0E6
:101A40000E94F10981110EC01B861D861C8680E054
:101A5000DF91CF911F910F91FF90EF90DF90CF908A
:101A6000BF90089540E060EFCE010E949E09D12C06
:101A700001E011E0CE010E944B09F82ECE010E9438
:101A80004B0991E0F91218C0813099F51134E0F258
:101A9000EB86E11002C081E08D878B818823A1F263
:101AA0002396EB2DFC2DCF01089629912193E81761
:101AB000F907D9F781E0CCCFED2DF0E0F8120FC097
:101AC0008B851817A0F4DE01AE0FBF1F13968C9103
:101AD000802379F4F12C193008F41C87E12EEC0FE7
:101AE000FD1F8381902F9095892383830AC08113E2
:101AF000F1CFFE01ED0DF11D8381802B8383FF2447
:101B0000F3946F2DCE010E946F091F5F000F11F437
:101B1000D39401E087E08D1508F0ACCFB7CFAF923A
:101B2000BF92CF92DF92EF92FF920F931F93CF93CA
:101B3000DF9300D000D0CDB7DEB78C016B017A0106
:101B4000809176038333E9F45B016801C40ED51EEE
:101B5000C016D106A9F10E94DC0A8FE00E94E70AB4
:101B6000812F0E94E70A802F0E94E70A0F5F1F4F14
:101B700080E00E94E70AF50181935F010E94D20A8A
:101B8000E7CF843369F50E94DC0A19830A838F2D1D
:101B90008F778B83EC8264E070E0CE0101960E9427
:101BA000B80AA70170E060E0C6010E946238E11443
:101BB000F10421F0B701C6010E94B80A0E94D20ABE
:101BC000C7010F900F900F900F90DF91CF911F9151
:101BD0000F91FF90EF90DF90CF90BF90AF9008955E
:101BE0000E94DC0A0F3F110509F030F419820A83C4
:101BF0001B8263E070E0D1CF17FD0BC019820A830E
:101C000033E0169507953A95E1F7007E08600B835F
:101C1000F0CFC80126E0969587952A95E1F7807E5A
:101C200019830A830115104C18F480618B83E1CF6E
:101C30008861FCCFCF93DF931F92CDB7DEB72091A1
:101C4000E00230E0322F2227260F371F90E0982F36
:101C5000882741E050E0BE016F5F7F4F820F931FE6
:101C60000E948F0D89810F90DF91CF910895CF93BE
:101C7000C82F462F61E070E00E94FA0B61E070E02F
:101C80008C2F0E941A0E8111F9CFCF910895CF9316
:101C9000C82F80E591E00E94F40668E070E08C2F88
:101CA000CF910C94370ECF93C82F80E591E00E941E
:101CB000F40660E170E08C2FCF910C94370ECF9337
:101CC000DF93EC01888D843020F40E94530E84E071
:101CD000888FDF91CF91089563E070E00C941A0E25
:101CE000CF93C82F80E591E00E94F4068C2FCF910E
:101CF0000C946C0EEF92FF920F931F93CF937C0185
:101D00000EE613E0C0E0F801219131918F01F70157
:101D1000848195812817390729F0CF5FC43099F75E
:101D200080E006C08C2F0E94700E8431B1F781E0F4
:101D3000CF911F910F91FF90EF900895CF93DF9374
:101D4000EC018C858430D0F40E94700E843189F0CF
:101D5000882379F0883169F021E08C3159F4E881E9
:101D6000F9810084F185E02DCE01099521E0892BD0
:101D700009F420E0822FDF91CF91089580E0FBCF1E
:101D8000CF92DF92EF92FF92CF93DF93EC018C859D
:101D9000843068F40E94470E0E9433096B017C0175
:101DA0008C850E94700E811109C084E08C87DF91C0
:101DB000CF91FF90EF90DF90CF90089561E070E0B9
:101DC00080E090E00E9400090E943309AB01BC0151
:101DD0004C195D096E097F098D859E85B0E0A0E0F4
:101DE000481759076A077B07D8F28C850E94530E63
:101DF000DCCFCF93FC01C08D80E591E00E94F4061A
:101E000060E270E08C2F0E94370E62E070E08C2F51
:101E10000E941A0E84FD16C062E070E08C2F0E94B2
:101E20001A0E83FF0AC048E162E070E08C2F0E9426
:101E3000FA0B80E090E0CF91089580E591E00E9458
:101E4000F406E3CF40E162E070E08C2F0E94FA0BD1
:101E500081E0F0CFCF93DF931F92CDB7DEB741E0A3
:101E600050E0BE016F5F7F4F90E080E00E948F0DD9
:101E700089810F90DF91CF910895CF93DF93C4E1D3
:101E8000D0E00E942A0F882361F061E070E080E0DA
:101E900090E00E9400092197A1F780E0DF91CF91A7
:101EA000089581E0FBCF1F93CF93DF931F92CDB7AF
:101EB000DEB7182F80E591E00E94F406812F0E9482
:101EC000B10B27E0129FF0011124EE5AFC4F228142
:101ED0003381377041E050E0BE016F5F7F4F820F6A
:101EE000931F0E948F0D89810F90DF91CF911F91D9
:101EF0000895FC01808D843040F4218D328D232B98
:101F000021F00E94530F90E008958FEF9FEF089506
:101F1000CF93DF93FC012485243028F08FEF9FEFCF
:101F2000DF91CF910895EC010190F081E02D0084C4
:101F3000F185E02D0995892B89F38C850E94530F3B
:101F400090E0EECFDA01E091E002F0E0FE2FEE2724
:101F5000E60FF71F90E0982F8827A901BD018E0F8B
:101F60009F1F0C948F0D8F929F92AF92BF92CF9232
:101F7000DF92EF92FF921F93CF93DF93CDB7DEB73F
:101F80002C970FB6F894DEBF0FBECDBF209176031D
:101F900014E0222329F16B017C0180E591E00E948D
:101FA000F4065E0127E0A20EB11C450110E0812F6E
:101FB0000E946C0EF40181934F01882349F11F5F49
:101FC0001430A9F710E0F50181915F018D31D9F04E
:101FD0008831C9F08A518230B0F01F5F143099F710
:101FE000812F2C960FB6F894DEBF0FBECDBFDF91C8
:101FF000CF911F91FF90EF90DF90CF90BF90AF9067
:102000009F908F90089560E170E0812F0E94370EBD
:10201000A12EB12CF501EE0FFF1FE259FC4F1182EA
:10202000108283EE93E00197F1F742E870E060E000
:10203000812F0E94FA0B4FEF62E070E0812F0E9427
:10204000FA0BB601C114D10491F48091060190916C
:10205000070101968115F0EC9F0708F45CC090938E
:102060000701809306016091060170910701812F9D
:102070000E94E50B86E0E2E1F1E0DE0111960190BD
:102080000D928A95E1F7F70183818F778C838481A4
:102090008D8385818E83A7014E5F5F4F24E030E002
:1020A0006CE070E0812F0E94BF0BB601812F0E946F
:1020B000D00B26E030E0AE014F5F5F4F66E070E08E
:1020C000812F0E94BF0B61E070E0812F0E94370ECC
:1020D00027E02A9DC0012B9D900D11249C012E5AB2
:1020E0003C4F7901F9011182108222E030E0AE010B
:1020F000455F5F4F68E270E0812F0E94A20F8B85E1
:102100009C85982789279827F701938382831682D5
:102110001582148265CF80E090ECA1CFCF92DF9240
:10212000EF92FF920F931F93CF93DF9300D000D0D5
:1021300000D0CDB7DEB78C016B017A01FC01808D38
:10214000843010F40E94530E84E991E09A838983CD
:10215000F60182819381A481B5818B839C83AD83B9
:10216000BE83B701CE0101960E94B30FF801808FA4
:102170008430A0F4F586E486128E118E81E02696D6
:102180000FB6F894DEBF0FBECDBFDF91CF911F9188
:102190000F91FF90EF90DF90CF90089580E0EFCF08
:1021A000AF92BF92CF92DF92EF92FF920F931F9365
:1021B000CF93DF9300D000D000D0CDB7DEB7082F8B
:1021C0006B0180E591E00E94F4069E012F5F3F4F76
:1021D0007901590110E0812F0E946C0EF501819365
:1021E0005F01882341F11F5F1430A9F710E0F70168
:1021F00081917F018D31D1F08831C1F08A518230D7
:10220000A8F01F5F143099F7812F26960FB6F89427
:10221000DEBF0FBECDBFDF91CF911F910F91FF9019
:10222000EF90DF90CF90BF90AF90089560E170E0A5
:10223000812F0E94370EE12EF12CF701EE0FFF1FC8
:10224000E259FC4F1182108283EE93E00197F1F77F
:10225000402F70E060E0812F0E94FA0B4FEF62E0A8
:1022600070E0812F0E94FA0BB601CD2889F480918D
:1022700006019091070101968115F0EC9F0798F1F6
:102280009093070180930601609106017091070108
:10229000812F0E94E50B61E070E0812F0E94370ED4
:1022A00027E02E9DC0012F9D900D11249C012E5AD8
:1022B0003C4F7901F9011182108222E030E0AE0139
:1022C0004B5F5F4F68E270E0812F0E94A20F8D810B
:1022D0009E81982789279827F70193838283168206
:1022E0001582148291CF80E090ECCACFCF92DF921A
:1022F000EF92FF921F93CF93DF93EC017B016A0172
:102300008C85843048F40E94700E882319F08C85E7
:102310000E94470E84E08C87F70182819381A4811B
:10232000B5810097A105B10551F490E080E0DF91FF
:10233000CF911F91FF90EF90DF90CF9008958F3F46
:102340009F4FAF4FBF4F89F380917603811103C038
:1023500084E08C87EACF70E060E081E20E94D010D8
:10236000182F8C87843008F780E591E00E94F406EE
:10237000A7014E5F5F4F24E030E06CE070E0812FFA
:102380000E94BF0BB601812F0E94D00B64E070E069
:10239000812F0E94370E0E9433096B017C018C85CE
:1023A0000E94700E873109F18C31F9F0882309F40D
:1023B000BCCF0E943309AB01BC014C195D096E0909
:1023C0007F098D859E85B0E0A0E084179507A6075C
:1023D000B70738F061E070E080E090E00E9400090B
:1023E000DECF8C850E94530EB3CF81E090E09FCF6B
:1023F0000F931F93CF93DF93EC018B01888D843073
:1024000010F40E94530E80917603811107C094E06E
:10241000988FDF91CF911F910F910895B80182E0BD
:102420000E94D010888F843030F41D870C871A8E5C
:10243000198E81E0EECF80E0ECCF0F931F93CF9306
:1024400020917603222349F18C01FC01648175817E
:1024500081E20E94D010C82F8430F8F480E591E02A
:102460000E94F4068C2F0E946C0E833131F08C2F69
:10247000CF911F910F910C94470E62E070E08C2F6A
:102480000E94370EF80184819581EC2FF0E0EE0F69
:10249000FF1FE259FC4F91838083CF911F910F91D1
:1024A00008957F928F929F92AF92BF92CF92DF92C8
:1024B000EF92FF920F931F93CF93DF9300D0CDB78E
:1024C000DEB7782E8B014A01590122E030E0AE01DF
:1024D0004F5F5F4F64E270E00E94A20FE980FA80D4
:1024E000FE24EF24FE24E00EF11E97013770409188
:1024F0007603072D10E0433309F042C0085F1F4FF9
:10250000102F0027110F110F110FC901800F911FFC
:102510004733C9F1A9014A0D5B1D4130584098F17C
:1025200060E078E06B01C21AD30AA601B4010E94F0
:10253000EE0AA5014C195D09B4016C0D7D1DC801A1
:102540000E94EE0AEA0CFB1CF982EA8222E030E0EB
:10255000AE014F5F5F4F64E270E0872D0E94BF0BBA
:102560000F900F90DF91CF911F910F91FF90EF90FF
:10257000DF90CF90BF90AF909F908F907F90089505
:10258000005F1F4FBDCFA501B401DACFEF92FF92DC
:102590001F93CF93DF9300D0CDB7DEB7182F22E083
:1025A00030E0AE014F5F5F4F60E270E00E94A20F2B
:1025B000E980FA80FE24EF24FE2422E030E0AE0120
:1025C0004F5F5F4F60E270E0812F0E94A20F898110
:1025D0009A81982789279827E816F90689F487E0D1
:1025E000189FF0011124EE5AFC4FF582E482C701D6
:1025F0000F900F90DF91CF911F91FF90EF90089572
:102600007C01DBCF1F93CF93DF93182F80E591E000
:102610000E94F406812F0E94C612EC01812F0E94B5
:102620006C0E873121F08C3111F0D0E0C0E0CE018A
:10263000DF91CF911F910895CF93DF93EC018C85AB
:10264000843060F40E94700E873111F08C3131F4C7
:102650008C850E9402138115984088F3DF91CF91F9
:102660000895FC018485843010F40C94021390E0EA
:1026700080E00895CF92DF92EF92FF921F93CF9365
:10268000DF93182F7B01EA014130584010F0C0E081
:10269000D8E080E591E00E94F406812F0E94C612E6
:1026A0006C01812F0E946C0E873111F08C3121F565
:1026B000CC16DD0670F380E591E00E94F4069E01E1
:1026C000A70170E060E0812F0E94511260E270E08B
:1026D000812F0E94370E62E070E0812F0E941A0E57
:1026E00084FD0DC0812F0E946C0E8823B9F080E517
:1026F00091E00E94F406EFCFD0E0C0E0DCCF40E1F3
:1027000062E070E0812F0E94FA0BCE01DF91CF9141
:102710001F91FF90EF90DF90CF900895D0E0C0E040
:10272000F4CF0F931F93CF93DF938C01EA01FC0149
:102730008485843048F40E943A13892B39F481E06F
:1027400090E0F80193838283D0E0C0E0CE01DF9176
:10275000CF911F910F9108959F92AF92BF92CF9208
:10276000DF92EF92FF920F931F93CF93DF938C0131
:102770005B01942EE52EFC01C688D788F08C80E59D
:1027800091E00E94F4068F2D0E94C612C92DDE2D05
:102790008C179D0708F4EC019E01A501B6018F2D51
:1027A0000E945112F801868997898C0F9D1F978B83
:1027B000868BCE01DF91CF911F910F91FF90EF900B
:1027C000DF90CF90BF90AF909F900895FF920F93AE
:1027D0001F93CF93DF9300D0CDB7DEB7F82E22E062
:1027E00030E0AE014F5F5F4F66E270E00E94A20FE3
:1027F00009811A8110270127102722E030E0AE015D
:102800004F5F5F4F66E270E08F2D0E94A20F8981BB
:102810009A819827892798270817190749F4C8012A
:102820000F900F90DF91CF911F910F91FF9008951E
:102830008C01E3CF1F93CF93DF93182F87E0189F6E
:10284000E0011124CE5ADC4F88819981009761F410
:1028500080E591E00E94F406812F0E94E6132E810C
:10286000821B910999838883DF91CF911F910895ED
:10287000AF92BF92CF92DF92EF92FF920F931F938E
:10288000CF93DF93EC017B0180917603811120C00F
:102890001B821A8288EE93E0A0E0B0E08C839D83D7
:1028A000AE83BF838CE191E09983888384E08C8739
:1028B00088EE93E09E878D87CE01DF91CF911F91A7
:1028C0000F91FF90EF90DF90CF90BF90AF90089561
:1028D0008EE6C82E83E0D82E10E094E0B92EA12C0D
:1028E000D6012D913D916D01F701848195812817C5
:1028F000390791F4812F0E94700E082F873111F053
:102900008C3139F5812F0E941A14892B59F50C311D
:1029100019F4812F0E94470E1F5F143009F7A11090
:1029200008C0D701ED91FC910084F185E02DC7012D
:1029300009951B821A8288EE93E0A0E0B0E08C83B8
:102940009D83AE83BF838CE191E099838883BC86AD
:10295000AFCF843149F08111DFCFF6013297118278
:102960001082DACFB12ED8CFAA24A394D5CF8F92DC
:102970009F92AF92BF92CF92DF92EF92FF921F93FE
:10298000CF93DF93CDB7DEB72F970FB6F894DEBFA6
:102990000FBECDBF5C014B017A0180917603882385
:1029A000A1F1B501CE0101960E9438148EE6C82E21
:1029B00083E0D82E10E0F601219131916F01F501ED
:1029C000848195812817390751F4812F0E94700E58
:1029D000873129F4A701B401812F0E943A131F5FA8
:1029E000143049F7C7012F960FB6F894DEBF0FBE1B
:1029F000CDBFDF91CF911F91FF90EF90DF90CF90EF
:102A0000BF90AF909F908F900895F12CE12CEACF6A
:102A1000FC018485843010F40C941A1490E080E05A
:102A200008954F925F927F928F929F92AF92BF9242
:102A3000CF92DF92EF92FF920F931F93CF93DF938A
:102A400000D0CDB7DEB7782E6B014A01A82EB12C8D
:102A500027E0829FC0011124FC01EE5AFC4F7F0148
:102A60000081118180E591E00E94F40608151905A6
:102A700054F4872D0E94E613F70126818C01021B76
:102A80001109118300830115110519F5872D0E9485
:102A90006C0E843159F0882349F001E010E08C314C
:102AA00011F410E000E0119501951109C8010F9093
:102AB0000F90DF91CF911F910F91FF90EF90DF90DA
:102AC000CF90BF90AF909F908F907F905F904F90EE
:102AD0000895801691060CF4840187E08A9DF00128
:102AE0008B9DF00D1124EE5AFC4FE280F380C1144F
:102AF000D10451F12701F7E05F22872D0E94B10B2D
:102B0000840D951D20917603273309F453C0980155
:102B1000240D351D2130384008F44CC020E038E049
:102B2000490184189508A401B6010E948F0D260161
:102B3000480C591C6801C818D908872D0E94B10B90
:102B4000A601B2010E948F0DE00EF11E87E08A9D62
:102B5000F0018B9DF00D1124EE5AFC4FF382E282BE
:102B600020813181201B310B318320838681800FAE
:102B7000912F911D8A3F910510F4232BF1F487E0EA
:102B80008A9DF0018B9DF00D1124EE5AFC4F1682A8
:102B9000F982EA8222E030E0AE014F5F5F4F68E2E7
:102BA00070E0872D0E94BF0B60E470E0872D0E94CB
:102BB000370E7CCFA801B601C5CF868377CFCF93E0
:102BC000DF93FC01218D328D2115310529F48FEF22
:102BD0009FEFDF91CF910895EC01808D421753074D
:102BE00008F0A9010E9411151816190684F7298DFD
:102BF0003A8D281B390B3A8F298FEBCF0F931F93F8
:102C0000CF93DF931F92CDB7DEB7FC01218D328DBC
:102C1000232B41F48FEF9FEF0F90DF91CF911F9106
:102C20000F9108958C0141E050E0BE016F5F7F4F2E
:102C3000FC01808D0E941115181619065CF7F80129
:102C4000818D928D0197928F818F898190E0E4CF61
:102C5000CF93DF931F92CDB7DEB741E050E0BE01C6
:102C60006F5F7F4FFC0184850E94111518161906AD
:102C700034F4898190E00F90DF91CF9108958FEF28
:102C80009FEFF9CF0F931F93CF93DF93EC010E9437
:102C90003309688779878A879B87CE010E94281627
:102CA00097FF15C00E943309088519852A853B8541
:102CB000601B710B820B930B0C811D812E813F8158
:102CC000601771078207930740F38FEF9FEFDF9143
:102CD000CF911F910F910895FC018485843010F4E9
:102CE0000C94111590E080E008950F931F93CF93FB
:102CF000DF9300D0CDB7DEB7FC0124852430E0F4AB
:102D00008C0180E591E00E94F40622E030E0AE0103
:102D10004F5F5F4F60E170E0F80184850E94A20F71
:102D200089819A819827892798270F900F90DF91A2
:102D3000CF911F910F91089590E080E0F6CF0F930F
:102D40001F93CF93DF9300D0CDB7DEB7FC0124856E
:102D50002430E0F48C0180E591E00E94F40622E04A
:102D600030E0AE014F5F5F4F64E070E0F8018485B2
:102D70000E94A20F89819A819827892798270F900E
:102D80000F90DF91CF911F910F91089590E080E017
:102D9000F6CFDC0184E991E08D939D9384E0FB0103
:102DA00001900D928A95E1F70895EF92FF920F93AB
:102DB0001F93CF93DF9300D000D0CDB7DEB78C0147
:102DC0007B01FB0184858430A8F084E991E0F8015F
:102DD000918380831282138214821582C8010F901E
:102DE0000F900F900F90DF91CF911F910F91FF9057
:102DF000EF90089580E591E00E94F40624E030E031
:102E0000AE014F5F5F4F6CE070E0F70184850E9478
:102E1000A20FBE016F5F7F4FC8010E94C916DECFAF
:102E20000F931F93CF93DF93CDB7DEB728970FB6DD
:102E3000F894DEBF0FBECDBF8C01D80159964D91DD
:102E40005C915A974115510551F0ED91FC91048C1C
:102E5000F58DE02D70E060E0C8010995EECFF80136
:102E6000808D0E941A14892BB1F148E050E0BE0118
:102E70006F5F7F4FD80158968C910E9411151816DC
:102E80001906F4F4D801509684E0FE0131960190C1
:102E90000D928A95E1F78D8190E0982F88272E81F9
:102EA000820F911DF801958B848B8F81282F30E044
:102EB000322F22278885820F932F911D928F818F29
:102EC00028960FB6F894DEBF0FBECDBFDF91CF912D
:102ED0001F910F91089590E080E0F2CF4F925F92A2
:102EE0006F927F928F929F92AF92BF92CF92DF921A
:102EF000EF92FF920F931F93CF93DF93CDB7DEB77F
:102F000063970FB6F894DEBF0FBECDBF7C016B0197
:102F10003A01FB0120E090E080E06AE03191332348
:102F200009F461C040ED430F4A3008F04DC0689F7E
:102F3000A001699F500D1124CA01C097830F911DF4
:102F400037FD9A958F3F910549F340F3F701428190
:102F50005381648175818091400490914104A091D6
:102F60004204B0914304481759076A077B0709F4E4
:102F70000DC28701085F1F4F0E9433096F707727CA
:102F80007C5FC8010E94F811813009F004C284E915
:102F900091E09A838983F70182819381A481B5812D
:102FA0008B839C83AD83BE8345E350E0BE016F5F9E
:102FB0007F4FC8010E94870C892BA9F5D12CC12C09
:102FC000C8010E945F0E17C03E3209F0BFCF233008
:102FD00009F4BCCFD301A20FB11D12968C932F5FC1
:102FE00090E080E09BCF233009F0B0CFF3018583E0
:102FF000CC24C394D12CC60163960FB6F894DEBFDF
:103000000FBECDBFDF91CF911F910F91FF90EF9039
:10301000DF90CF90BF90AF909F908F907F906F90F8
:103020005F904F9008950E943309F701778366837C
:1030300042E050E0B7016A5F7F4FC8010E94AC13C5
:1030400081E090E09A83898342E050E0BE016F5FA7
:103050007F4FC8010E94AC1380E091E09A8389837E
:1030600042E050E0BE016F5F7F4FC8010E94AC1389
:103070001A82198242E050E0BE016F5F7F4FC801A3
:103080000E94AC1342E050E0BE016F5F7F4FC80169
:103090000E94AC1342E050E0BE016F5F7F4FC80159
:1030A0000E94AC135601F6018081882301F165016D
:1030B000F60181912F01882311F08E32B1F446017F
:1030C0008A189B081814190474F48D8641E050E0A6
:1030D000BE01635F7F4FC8010E94AC13A401B5011C
:1030E000C8010E94AC135201DECF6201E1CF1D8600
:1030F00041E050E0BE01635F7F4FC8010E94AC1306
:10310000C12CDD24D394DA82C98242E050E0BE01B2
:103110006F5F7F4FC8010E94AC13DA82C98242E020
:1031200050E0BE016F5F7F4FC8010E94AC13C80121
:103130000E94F90E892B09F441CFF3E0AF2EB12C98
:10314000230122E0420E511CD4C0F7014281538179
:1031500064817581808D918DA28DB38D481759073B
:103160006A077B0709F008C1848D958DC59709F022
:1031700003C181A192A15DEFC52EDD24DA940C97E5
:103180000CF4ADC04CE050E0BE016F5F7F4FC80152
:103190000E94DF158B819C819827892798279A8B1D
:1031A000898BF7014681578129813A81421753075C
:1031B00009F0E7C097FFE5C08F7092703BEFC32E18
:1031C000DD24DA94892B09F08AC06F807884762414
:1031D000672476242AEFC22EDD24DA946114710468
:1031E00009F47DC0D12CC12C8D819E81982789271F
:1031F0009827C816D906F8F441E050E0BE01635F95
:103200007F4FC8010E94DF154D85442331F050E007
:1032100070E060E0C8010E94DF158D858111ECCF60
:1032200044E050E070E060E0C8010E94DF15FFEF6D
:10323000CF1ADF0AD9CF912C812C41E050E0BE019A
:103240006D5E7F4FC8010E94DF154B89842F807C03
:1032500009F06CC0442331F050E070E060E0C80138
:103260000E94DF158B898111E8CF42E050E0BE015A
:10327000615F7F4FC8010E94DF1542E050E0BE0150
:10328000635F7F4FC8010E94DF1544E050E070E0AB
:1032900060E0C8010E94DF1542E050E0BE016F5EB1
:1032A0007F4FC8010E94DF158F85988949895A8907
:1032B0008115914009F043C0CD84DE84DC24CD2407
:1032C000DC2481E0C816D104D1F54115544009F041
:1032D0004AC044E050E0B201C8010E94DF1521E07D
:1032E000A21AB10809F46CCEFFEFCF16DF0609F081
:1032F00067CE0E9433093B014C01C8010E941017A0
:10330000181619060CF421CF0E94330966197709A3
:1033100088099909693873418105910548F562E387
:1033200070E080E090E00E940009E7CF41E050E0CB
:1033300070E060E0C8010E94DF151B8A93CF54271C
:103340004527542770E060E0C8010E94DF15FFEFB9
:103350008F1A9F0A6814790409F06FCF96EFC92E6F
:10336000DD24DA94BCCFE7EFCE2EDD24DA94B7CF9C
:10337000CC24CA94DC2CB3CF6EEFC62EDD24DA94B5
:10338000AECF4CEFC42EDD24DA94A9CF8EEFC82E39
:10339000DD24DA9430CED12CC12C2DCECF92DF9209
:1033A000EF92FF920F931F93CF93DF93CDB7DEB7CA
:1033B000AF970FB6F894DEBF0FBECDBF7C016A0198
:1033C00004E911E01A8309831C861B8688EE93E0CA
:1033D000A0E0B0E08D879E87AF87B88B8AE491E04C
:1033E0009A878987188F0F8B198E1A8E1B8E1C8EC9
:1033F00084E089A31BA70AA71CA61DA61EA61FA6BC
:103400008091340490913504A0913604B091370432
:103410008EA39FA3A8A7B9A78B839C83AD83BE83EC
:1034200018861F82AE01465D5F4FCE0101960E9455
:103430006E1781309105B1F4D701ED91FC910488AC
:10344000F589E02D1DA30CA38CA59DA5AEA5BFA558
:103450008EA39FA3A8A7B9A7A601BE016C5D7F4F4D
:10346000C7010995AF960FB6F894DEBF0FBECDBF6A
:10347000DF91CF911F910F91FF90EF90DF90CF9050
:103480000895CF92DF92EF92FF920F931F93CF9305
:10349000DF93CDB7DEB7AF970FB6F894DEBF0FBEA0
:1034A000CDBF8C016B017A0184E991E09A83898315
:1034B0001B821C821D821E821C861B8648EE53E0E6
:1034C00060E070E04D875E876F87788B2AE431E09B
:1034D0003A872987988F8F8B198E1A8E1B8E1C8E98
:1034E00024E029A39BA78AA71CA61DA61EA61FA68B
:1034F000D8011C968C91843060F40E94700E882351
:1035000021F0F80184850E94470E84E0D8011C96C2
:103510008C938091340490913504A0913604B0913D
:1035200037048EA39FA3A8A7B9A78B839C83AD83E1
:10353000BE8318861F82AE01465D5F4FB601CE0185
:1035400001960E946E170097C1F0D801ED91FC9191
:103550000684F785E02D84E991E09DA38CA38CA5DA
:103560009DA5AEA5BFA58EA39FA3A8A7B9A7A70198
:10357000BE016C5D7F4FC8010995AF960FB6F894F8
:10358000DEBF0FBECDBFDF91CF911F910F91FF9096
:10359000EF90DF90CF900895FB0101900020E9F7B4
:1035A0003197AF01461B570BDC01ED91FC91028076
:1035B000F381E02D09948F929F92AF92BF92EF9288
:1035C000FF920F931F93CF93DF93CDB7DEB7A197F1
:1035D0000FB6F894DEBF0FBECDBF7C01FA01CB0160
:1035E00019A2223008F42AE08E010F5D1F4F822EAF
:1035F000912CB12CA12CBF01A50194010E945E3534
:10360000F901CA016A300CF5605DD8016E938D0135
:10361000232B242B252B79F790E080E0109721F0C5
:10362000BD01C7010E94CC1AA1960FB6F894DEBF67
:103630000FBECDBFDF91CF911F910F91FF90EF9003
:10364000BF90AF909F908F900895695CDECF8F926E
:103650009F92AF92BF92CF92DF92EF92FF920F9321
:103660001F93CF93DF937C01EB016C0182E0C80EC6
:10367000D11C4701E5E08E0E911C10E000E0F60140
:1036800041916F0150E070E060E02AE0CE010E94BD
:10369000DB1A5C01E881F9810190F081E02D6EE296
:1036A000CE0109958A0D9B1D080F191FC814D90456
:1036B00031F7F701458150E070E060E02AE0CE018B
:1036C0000E94DB1A800F911FDF91CF911F910F9104
:1036D000FF90EF90DF90CF90BF90AF909F908F9032
:1036E000089566EA71E00C94CC1ACF93DF9367E7F4
:1036F00073E00E94271BEC0187E793E00E94711B97
:103700008C0F9D1FDF91CF9108950F931F93CF933F
:10371000DF93EC010E941F078C01CE010E94711BF8
:10372000800F911FDF91CF911F910F9108950F93FB
:103730001F93CF93DF93EC010E942D078C01CE01E4
:103740000E94711B800F911FDF91CF911F910F91EC
:103750000895FC0124813581232B31F421E0FB0104
:10376000672B49F4822F089580819181611571053D
:1037700039F421E0FC0180818823A1F320E0F2CF1D
:103780000E94693821E0892B69F3F8CF7F928F92EC
:103790009F92AF92BF92CF92DF92EF92FF920F93E0
:1037A0001F93CF93DF93CDB7DEB7A6970FB6F894EC
:1037B000DEBF0FBECDBF8C01762E942E852E20E26B
:1037C000A22ECE0101967C01DC01EA2D1D92EA9524
:1037D000E9F76801F3E4CF0ED11C84E991E09AA3E4
:1037E00089A38FEF8BA38CA38DA38EA343E450E01A
:1037F000BE016F5D7F4FC6010E94870C019609F4E0
:10380000BFC081E089838A8386E0B82EBB821C8298
:10381000D80114966D917D918D919C9117970E947E
:1038200049366D837E838F83988789869A8680E860
:1038300090E09C878B874CE150E0B701C6010E9465
:10384000AC13FE0137968AE1DF011D928A95E9F7F4
:103850004801B8E08B0E911CF401D70101900D9244
:10386000BA94E1F740E150E0B701C6010E94AC1301
:10387000F7011192AA94E9F796E0A92EB12C40E243
:1038800050E0B701C6010E94AC13F1E0AF1AB108D5
:10389000B1F783E6898392E89A8393E59B838C83CF
:1038A00085E38D8381E08E837F829DE3988797E017
:1038B00099878A8786E0F401DE011B9601900D92BC
:1038C0008A95E1F78CE0898B8A8B69EA71E0CE01F9
:1038D00043960E947238D8011B966C91CE0149968E
:1038E0000E94F706F8016485CE014B960E94F70608
:1038F000D8011D966C91CE014D960E94F7064EE1BF
:1039000050E0B701C6010E94AC13B3E07B121EC0A9
:1039100082E3898384E08A83F80196859B83978577
:103920009C8390899D8391899E8396E39F8388875A
:10393000828D8987838D8A87848D8B87858D8C87FF
:103940004CE050E0B701C6010E94AC1387E38983C5
:1039500086E08A8391E09B8393E09C838D838FE054
:103960008E838AE38F838BE388878FEF898749E093
:1039700050E0B701C6010E94AC13C6010E94F90EC7
:10398000A6960FB6F894DEBF0FBECDBFDF91CF91E4
:103990001F910F91FF90EF90DF90CF90BF90AF906D
:1039A0009F908F907F9008950F931F93CF93DF93F5
:1039B000EC0188819981009759F02A813B81261773
:1039C000370730F081E0DF91CF911F910F9108957B
:1039D0008B016F5F7F4F0E948F37009759F099835B
:1039E00088831B830A832C813D81232B59F7FC019B
:1039F0001082E8CF80E0E7CFEF92FF920F931F9302
:103A0000CF93DF936115710541F480E0DF91CF9191
:103A10001F910F91FF90EF90089541155105B1F05E
:103A20007B01EC010C811D81040F151FB8010E9460
:103A3000D41C882351F3288139818C819D81B70161
:103A4000820F931F0E9472381D830C8381E0DECFAA
:103A5000CF93DF93EC0188819981009711F00E9448
:103A60000637198218821D821C821B821A82DF91FE
:103A7000CF910895CF93DF93EC01FB0101900020DB
:103A8000E9F73197AF01461B570B0E94FC1C8111CF
:103A900003C0CE010E94281DCE01DF91CF91089571
:103AA000CF93DF93EC01FB014481558160817181EB
:103AB0000E94FC1C811103C0CE010E94281DCE0172
:103AC000DF91CF910895EF92FF920F931F93CF93C1
:103AD000DF93EC017B018A01BA010E94D41C8111A1
:103AE0000BC0CE010E94281DCE01DF91CF911F9106
:103AF0000F91FF90EF9008951D830C83B70188818B
:103B000099810E947238F0CFFB0101900020E9F703
:103B10003197AF01461B570B0C94631DCF93DF9376
:103B2000EC01FB018617970749F0608171816115EF
:103B3000710541F0448155810E94631DCE01DF91E2
:103B4000CF9108950E94281DF9CFFC0111821082A7
:103B500013821282158214826115710551F0FB01E6
:103B600001900020E9F73197AF01461B570B0C94E9
:103B7000631D0895FC0180819181009711F00C94E0
:103B800006370895CF92DF92FF920F931F93CF9342
:103B9000DF9300D000D000D0CDB7DEB78C0168EA4B
:103BA00071E0CE0101960E94A51D70E060E0C801A1
:103BB0000E940E078B3211F08D3281F5F80184815D
:103BC0009581029728F06081718161157105F1F48A
:103BD0001092D20262ED72E0CE0101960E94841D25
:103BE000CD80DE8010E000E0F12C0C151D0509F100
:103BF000B801CE0101960E940E078E32A9F4F11091
:103C000016C0FF24F3940F5F1F4FEFCF6F5F7F4FFE
:103C100019F7CE0101960E94281DE2CFB801CE010E
:103C200001960E948E1DDCCF80538A3060F310E035
:103C300001C011E0CE0101960E94BA1D812F269687
:103C40000FB6F894DEBF0FBECDBFDF91CF911F91AD
:103C50000F91FF90DF90CF9008953F924F925F9227
:103C60006F927F928F929F92AF92BF92CF92DF928C
:103C7000EF92FF920F931F93CF93DF93CDB7DEB7F1
:103C8000EA970FB6F894DEBF0FBECDBF7C012A01C4
:103C90003B0169010E9433094B015C0187010D5B07
:103CA0001F4FC8010E941017181619069CF00E9499
:103CB0003309681979098A099B0946165706680667
:103CC000790608F466C162E370E080E090E00E944B
:103CD0000009E7CF42E250E0BE016F5F7F4FC801AD
:103CE0000E94DF1589818230D1F0312C832DEA9634
:103CF0000FB6F894DEBF0FBECDBFDF91CF911F91FD
:103D00000F91FF90EF90DF90CF90BF90AF909F907A
:103D10008F907F906F905F904F903F900895F80143
:103D2000848995898334910501F76D817E818F8126
:103D300098850E9449364B015C01F6018082918290
:103D4000A282B38246E050E0B701685F7F4FCE01A8
:103D50004D960E944C38892B41F6F7018081918164
:103D6000A281B38188169906AA06BB0608F4BDCFC6
:103D700084819581A681B78188159905AA05BB051F
:103D800008F4B3CF89899A89AB89BC8986879787DC
:103D9000A08BB18B4EEC50E070E060E0C8010E9457
:103DA000DF15312CC701829698AB8FA7F701B69625
:103DB000FAABE9AB08969CAB8BAB67019AE1C90EF5
:103DC000D11CBD96FEABEDABC701429698AF8FAB51
:103DD000FD97FAAFE9AF4701FEE18F0E911CF801A4
:103DE000818D928D181619060CF080CFC8010E94A3
:103DF000FE158333910509F4B2C014F581309105A5
:103E000009F464C044F4892B51F3C8010E94FE15E3
:103E1000AC01552775C08330910509F462C006973F
:103E2000A1F7C8010E94FE15B82E44E050E0B4018D
:103E3000C8010E94DF15EB2DE450FF0BAF0160C0FD
:103E40008A33910509F45FC084F585339105B1F19A
:103E5000C697D9F6C8010E94FE155C01B601CE01D5
:103E600089960E94C9168BA59CA5ADA5BEA5892BD8
:103E70008A2B8B2BB1F0EDA9FEA940805180628086
:103E80007380B601CE0183960E94C9168DA19EA1B2
:103E9000AFA1B8A5A501481659066A067B0609F028
:103EA000B8CF44E050E0B60118C08B33910509F457
:103EB00040C08F3F910509F492CFA7CFC8010E945F
:103EC000FE15C8010E94FE15382E89CFC8010E9438
:103ED000FE1544E050E06FA978ADC8010E94DF15DF
:103EE0007ECFC8010E94FE15B82E44E050E069ADB7
:103EF0007AADC8010E94DF158B2D8450990BAC015F
:103F000070E060E0EACFC8010E94FE1544E050E096
:103F100069A97AA9C8010E94DF15F70166A177A1F6
:103F200080A591A50E94493666A377A380A791A793
:103F300056CFC8010E94FE1544E050E06BA97CA951
:103F4000C8010E94DF15F70162A573A584A595A598
:103F50000E94493662A773A784A795A740CFC801DE
:103F60000E94FE1544E050E06FA578A9C8010E94A8
:103F7000DF15F70162A173A184A195A10E944936C2
:103F800062A373A384A395A366A777A780AB91AB25
:103F900026CF33243A94AACE2F923F924F925F922B
:103FA0006F927F928F929F92AF92BF92CF92DF9249
:103FB000EF92FF920F931F93CF93DF9300D000D027
:103FC00000D0CDB7DEB78C010E94882F2FEC37E0F0
:103FD00040E050E00E94F534DC01CB010196A11DC8
:103FE000B11DF80184839583A683B7838083918371
:103FF000A283B3835801F3E4AF0EB11CC5010E9444
:104000005F0E64E470E0C5010E94F811882309F492
:1040100045C10E9433092B013C01480182E4880E0E
:10402000911C48EEC42E43E0D42EE12CF12C52E03A
:10403000252E1E821D82D4018C918330B1F1811115
:1040400066C0F80184819581A681B7810196A11D82
:10405000B11D84839583A683B7830E9433096419B5
:10406000750986099709A70196010E945E35A90185
:1040700061E0C8010E94C61B81E0D4018C938D8150
:104080009E810197C1F20E9433096419750986095E
:104090009709D801D6962D913D914D915C91D99774
:1040A000261737074807590720F6C5010E945F0EFB
:1040B000F80184819581A681B7810196A11DB11D6A
:1040C00084839583A683B7830E943309F801FE9603
:1040D00060837183828393838D819E8126960FB640
:1040E000F894DEBF0FBECDBFDF91CF911F910F912E
:1040F000FF90EF90DF90CF90BF90AF909F908F9008
:104100007F906F905F904F903F902F9008958430F4
:10411000F1F4F80184819581A681B7810196A11DF2
:10412000B11D84839583A683B7830E9433096419E4
:10413000750986099709A70196010E945E35A901B4
:1041400063E0C8010E94C61BD4012C9298CF813035
:1041500051F5F80142AD53AD64AD75AD9E012F5FD1
:104160003F4FC8010E942D1E382EF2E08F1390C0E1
:1041700089819A81AB81BC81F80184839583A68370
:10418000B7830E9433096419750986099709A70145
:1041900096010E945E35A90163E0C8010E94C61B1A
:1041A000D4013C926CCF823009F069CFF80142AD66
:1041B00053AD64AD75AD9E012F5F3F4FC8010E94A6
:1041C0002D1E382EF5E08F135DC0E3E0D401EC9393
:1041D000F80182A193A1A4A1B5A1892B8A2B8B2BD5
:1041E00041F484E893E0A0E0B0E082A393A3A4A309
:1041F000B5A3F80186A197A1A0A5B1A5892B8A2B0B
:104200008B2B61F482A193A1A4A1B5A1B695A7952A
:104210009795879586A397A3A0A7B1A7F80182A534
:1042200093A5A4A5B5A5892B8A2B8B2BA9F482A1D4
:1042300093A1A4A1B5A1AC01BD0123E0769567953A
:10424000579547952A95D1F7841B950BA60BB70B6D
:1042500082A793A7A4A7B5A7F80186A197A1A0A5B7
:10426000B1A586A797A7A0ABB1AB82A593A5A4A53E
:10427000B5A582AB93ABA4ABB5AB81E090E09E83D8
:104280008D83FDCE96E0891303C0D4011C92F7CE36
:10429000BFEF3B12F4CEF4011082F1CE1E821D82DC
:1042A0001BCFAF92BF92CF92DF92EF92FF920F930C
:1042B0001F93CF93DF93CDB7DEB7C456D1090FB6A6
:1042C000F894DEBF0FBECDBF6C01062F660F110B39
:1042D000C8010E94DF349E012F5F3F4F79015901D1
:1042E000021B130BF501EE19FF09882349F0C801E1
:1042F0008A0D9B1D0E94DF34F50181935F01F2CF8F
:10430000EE0DFF1D1082B701C6010E94A51DC6015A
:10431000CC59DF4F0FB6F894DEBF0FBECDBFDF9193
:10432000CF911F910F91FF90EF90DF90CF90BF90B2
:10433000AF900895CF92DF92EF92FF920F931F9369
:10434000CF93DF937B01DB011496CD90DC90D0E01E
:10435000C0E0082F880F110BCC15DD05D4F4F70150
:1043600084819581C817D90728F40190F081E02D48
:10437000309761F41092D202E2EDF2E06081C80160
:104380008C0F9D1F0E94E7342196E6CFEC0FFD1F96
:10439000F5CF60E0C8018C0D9D1DDF91CF911F917D
:1043A0000F91FF90EF90DF90CF900C94E7341F9225
:1043B0000F920FB60F9211242F933F934F935F9359
:1043C0006F937F938F939F93AF93BF93EF93FF93DD
:1043D00087E793E00E94CF07FF91EF91BF91AF91E4
:1043E0009F918F917F916F915F914F913F912F910D
:1043F0000F900FBE0F901F9018951F920F920FB63F
:104400000F9211242F938F939F93EF93FF93E0913B
:104410008703F09188038081E0918D03F0918E03F2
:1044200082FD1BC09081809190038F5F8F732091DC
:104430009103821741F0E0919003F0E0E958FC4FBE
:10444000958F80939003FF91EF919F918F912F9182
:104450000F900FBE0F901F9018958081F4CF1F9280
:104460000F920FB60F9211242F933F938F939F9328
:10447000AF93BF938091D4029091D502A091D602C0
:10448000B091D7023091D30223E0230F2D3758F596
:104490000196A11DB11D2093D3028093D402909365
:1044A000D502A093D602B093D7028091D802909102
:1044B000D902A091DA02B091DB020196A11DB11DD3
:1044C0008093D8029093D902A093DA02B093DB02D2
:1044D000BF91AF919F918F913F912F910F900FBE00
:1044E0000F901F90189526E8230F0296A11DB11D6D
:1044F000D2CFE7E7F3E01382128288EE93E0A0E0E8
:10450000B0E084839583A683B78382E891E09183AA
:10451000808385EC90E09587848784EC90E0978792
:10452000868780EC90E0918B808B81EC90E0938B80
:10453000828B82EC90E0958B848B86EC90E0978B5D
:10454000868B118E128E138E148EE4E1F4E084E9D2
:1045500091E0918380831282138214821582EAE1B2
:10456000F4E0918380831282138214821582E0E248
:10457000F4E0918380831282138214821582E6E232
:10458000F4E0918380831282138214821582ECE21C
:10459000F4E0918380831282138214821582E8E30F
:1045A000F4E0918380831282138214821582E2E305
:1045B000F4E0918380831282138214821582EEE3E9
:1045C000F4E0918380831282138214821582E4E4E2
:1045D000F4E0918380831282138214821582E7E7CC
:1045E000F4E091838083128213821482158260E04A
:1045F00085E00E94AA08E0E8FDE0E491A9E6B4E0C5
:10460000EC93ECE6FDE0E491F0E0EE0FFF1FE35ADF
:10461000F24F8591949112969C938E9311971B96CD
:104620001C921B971D961C921D971C961C921C9702
:104630001A961C921A9719961C92199718961C9202
:10464000189717961C92179716961C921697159600
:104650001C92159714961C92149713961C921397FC
:10466000E6E5F4E08DE097E0928B818BB683A5833D
:104670001482108289E0818381E082838383E0E574
:10468000F4E0138212828AE991E09183808380E5CD
:1046900090E09583848368EA71E08AE494E00C9466
:1046A000A51DCF93DF93CDB7DEB7CC55D1090FB69B
:1046B000F894DEBF0FBECDBF789484B5826084BD10
:1046C00084B5816084BD85B5826085BD85B5816016
:1046D00085BD80916E00816080936E001092810094
:1046E000809181008260809381008091810081604F
:1046F0008093810080918000816080938000809110
:10470000B10084608093B1008091B000816080939B
:10471000B00080917A00846080937A0080917A0062
:10472000826080937A0080917A00816080937A0021
:1047300080917A00806880937A001092C1006AE0CC
:10474000CE01C1960E94512164E6CE0182960E945C
:10475000512168EA71E0CE01C1960E94A91B811126
:1047600008C070E060E0CE01C1960E94A91B8823BA
:1047700081F060EB71E0CE0101960E94A51DBE01A3
:104780006F5F7F4F84E60E949A21CE0101960E94BE
:10479000BA1D68EA71E0CE0182960E94A91B8111C0
:1047A00008C070E060E0CE0182960E94A91B8823B9
:1047B00081F061EB71E0CE0101960E94A51DBE0162
:1047C0006F5F7F4F8AE00E949A21CE0101960E947E
:1047D000BA1DE0915B04F0915C0413861586148683
:1047E0001286118610861782168215821482138211
:1047F00010925A0401E0BE016F5F7F4F80915B040D
:1048000090915C040E94110D882309F455C067E063
:10481000CE0101960E943F0998858913ECCF8091C3
:104820005604811128C080915B0490915C040E9421
:10483000F109BE016F5F7F4F80915B0490915C0432
:104840000E94D20940E064EB80915B0490915C048B
:104850000E949E0980915B0490915C040E944B0928
:10486000182F80915B0490915C040E94F109111152
:1048700002C000935604109157048981803111F4CD
:104880000C94142FCE0101960E94750A811750F4E2
:10489000809157048093570480915A048F5F8093CE
:1048A0005A04A9CF8981803111F48CE0F3CFCE0175
:1048B00001960E94750AEECF61E086E00E94AA0888
:1048C00061E086E00E945E08E0918703F091880332
:1048D00082E08083E0918303F09184031082E09171
:1048E0008503F091860380E1808310928F03E0912D
:1048F0008B03F0918C0386E08083E0918903F09133
:104900008A03808180618083E0918903F0918A032A
:10491000808188608083E0918903F0918A0380819F
:1049200080688083E0918903F0918A0380818F7D84
:1049300080830E94E10C60ED77E080E090E00E94CF
:1049400000098091400381112AC01092280310921F
:10495000270388EE93E0A0E0B0E0809329039093D2
:104960002A03A0932B03B0932C038AE491E0909345
:1049700026038093250384E991E090933403809388
:1049800033031092350310923603109237031092BE
:10499000380384E080933D0381E08093400382EEFE
:1049A00092E090934903809348038091E102811142
:1049B000ADC060E372E080E090E00E940009DFB6E5
:1049C000F89401E71DE095E8E92E9DE0F92E80912D
:1049D000DF02811125C0F8018491F7019491E82F3D
:1049E000F0E0EE0FFF1FE554FD4FA591B4918C91BF
:1049F000982321F461E08AE00E945E0861E08AE089
:104A00000E94AA088CB580618CBD8CB580648CBD79
:104A100061E08DE00E94AA0861E08BE00E94AA0894
:104A20008091DF028F5F8093DF02DFBEF801049187
:104A3000E02FF0E0EE0FFF1FEF54FD4F85919491B2
:104A40009093DE028093DD02F701E490E092DC02B5
:104A500061E08AE00E94AA080E94D20A80E591E003
:104A60000E94F40684E38093760380E80E949E0B04
:104A70000E943D0F882309F4F5C088E00E949E0B38
:104A80000E942A0F883009F0EDC080E10E949E0B41
:104A90000E942A0F803109F0E5C080E00E949E0B41
:104AA0000E942A0F182F8111DDC041E050E0BE01A5
:104AB0006F5F7F4F8FE190E00E948F0D898183307F
:104AC00009F0D0C080E48093E00242E06EE170E043
:104AD000812F0E94FA0B42E06FE170E0812F0E946B
:104AE000FA0B1F5F143089F740E06EE170E0812F10
:104AF0000E94FA0B40E06FE170E0812F0E94FA0BF8
:104B00001F5F183089F781E08093E10280E591E032
:104B10000E94F40646E050E060E071E089E090E039
:104B20000E94EE0A84E991E09A8389831B821C82A9
:104B30001D821E82CE0103960E947F0C8091480345
:104B400090914903DC0192961D921D921D921C9238
:104B50009597FC0116A217A210A611A69A961D926F
:104B60001D921D921C929D9740E65AEE60E070E007
:104B700046AB57AB60AF71AF40EA5FE060E070E01A
:104B8000DA964D935D936D937C93DD973E9624E189
:104B9000DF011D922A95E9F726E0E0E0F1E0DC0173
:104BA000189601900D922A95E1F7FC01EE5BFF4FFC
:104BB00010820E94CC1F019709F0C1C080E591E0EE
:104BC0000E94F4060091480310914903B801625F06
:104BD0007F4FCE0101960E94C916CE0103960E9416
:104BE0007F0CB8016A5E7F4FCE0101960E94C91604
:104BF00044E050E0BE016D5F7F4F81E090E00E9495
:104C0000EE0AB8016E5E7F4FCE0101960E94C91672
:104C100044E050E0BE016D5F7F4F85E090E00E9470
:104C2000EE0AB801625E7F4FCE0101960E94C9165E
:104C30008B819C81AD81BE81809334049093350437
:104C4000A0933604B09337040E94DB087F738091F1
:104C500006019091070168277927709307016093F7
:104C600006016DC087E38093760380E80E949E0B67
:104C70000E943D0F882329F188E00E949E0B0E942C
:104C80002A0F8830F1F480E10E949E0B0E942A0FC7
:104C9000182F8031B1F480E00E949E0B0E942A0FF1
:104CA00081110FC041E050E0BE016F5F7F4F89E38B
:104CB00090E00E948F0D8981843019F41093E002F6
:104CC00022CF83E38093760380E80E949E0B0E94AC
:104CD0003D0F882391F180E10E949E0B0E942A0FD4
:104CE000803159F582E10E949E0B0E942A0F823189
:104CF00021F580E00E949E0B0E942A0F81111DC0A9
:104D000084E08093E00215E561961FAF619741E072
:104D100050E0BE01605B7F4F8BE190E00E94EE0AA5
:104D200060961FAF609741E050E0BE01615B7F4F2E
:104D30008AE190E00E94EE0AE6CE1092760380E5CA
:104D400094E00E941D1263E073E087E793E00E9405
:104D5000971B65EE72E087E793E00E94971B65EC76
:104D600072E087E793E00E94971B84E991E09A83C1
:104D700089831B821C821D821E8280E591E00E9435
:104D8000F40644E050E0BE016D5F7F4F8FE090E09D
:104D90000E948F0DCE0101960E94751B88E199E259
:104DA0000FB6F894A895809360000FBE90936000B2
:104DB000CE0182960E94BA1DCE01C1960E94BA1DF4
:104DC000A8950E94330900914E0310914F03209142
:104DD000500330915103601B710B820B930B6031B8
:104DE00077428105910528F4012B022B032B09F052
:104DF00076C10E94330960934E0370934F038093F2
:104E00005003909351036DE37DE087E793E00E94A8
:104E1000971B84E991E09A8389831B821C821D82FF
:104E20001E8280E591E00E94F40644E050E0BE015D
:104E30006D5F7F4F8FE090E00E948F0DCE01019655
:104E40000E94751BE0915B04F0915C04138615864B
:104E50001486128611861086178216821582148295
:104E60001382BE016E5D7F4F80915B0490915C0464
:104E70000E94110D81116AC160E070E08EEF92EC2A
:104E800060934A0370934B0380934C0390934D03BC
:104E90006AE0CE01C1960E94512164E6CE0182965D
:104EA0000E94512189A99AA9812C912C5401009723
:104EB00021F00E94E02F4B015C018AA19BA1C12C33
:104EC000D12C7601009721F00E94E02F6B017C012C
:104ED00020914A0330914B0340914C0350914D0374
:104EE000C501B4010E948F354B015C01A7019601F9
:104EF0000E942B3618160CF089C163E37DE087E72A
:104F000093E00E94971B66EB71E08AE494E00E94B4
:104F1000841D60E086E00E945E08E0904803F09007
:104F20004903E114F10409F4D0C00E9433094B0194
:104F30005C0167018EE3C80ED11CF601808191816E
:104F4000A281B381A5019401281B390B4A0B5B0B8D
:104F5000CA01B901683E33E0730781059105A0F1EC
:104F600028EE33E040E050E00E945E35861A970A52
:104F7000A80AB90AD6018D929D92AD92BC92139760
:104F8000F70186A597A5A0A9B1A949015A01880CE6
:104F9000991CAA1CBB1C88159905AA05BB0508F01D
:104FA0005FC116A617A610AA11AAF70182A993A994
:104FB000A4A9B5A988159905AA05BB0508F059C18A
:104FC00012AA13AA14AA15AAF70186A597A5A0A943
:104FD000B1A9892B8A2B8B2B09F054C1EE5BFF4FB3
:104FE0008081833009F04EC184E08083C7010E9434
:104FF000CC1F0196D701D2964D915D916D917C9118
:10500000D597452B462B472BA1F4F701EE5BFF4FBD
:105010002081233011F021110CC01082F7013E963F
:1050200084E1DF011D928A95E9F7C7010E94CC1F38
:1050300003968230910519F0049709F046C080E587
:1050400091E00E94F406E0904803F0904903B70114
:10505000625F7F4FCE0101960E94C916CE01039672
:105060000E947F0CB7016A5E7F4FCE0101960E94BD
:10507000C91644E050E0BE016D5F7F4F81E090E0D3
:105080000E94EE0AB7016E5E7F4FCE0101960E942C
:10509000C91644E050E0BE016D5F7F4F85E090E0AF
:1050A0000E94EE0AB701625E7F4FCE0101960E9418
:1050B000C9168B819C81AD81BE818093340490930D
:1050C0003504A0933604B09337040E94E10CCE015E
:1050D00082960E94BA1DCE01C1960E94BA1D60E55B
:1050E00074E0CE0182960E9438148EA5843008F0B8
:1050F0008BC6CE0182960E949E0E882309F484C638
:10510000CE0182960E940815892B99F32DB63EB6E2
:1051100068EA71E0CE01875B9F4F0E94A51DCE011A
:1051200082960E94421697FDB0C08A30910509F41C
:10513000ACC089831A8241E050E0BE016F5F7F4FAF
:10514000CE01875B9F4F0E94FC1CE9CF67E0CE0138
:1051500082960E943F0999A589138ECE80915B04A7
:1051600090915C040E94F109882309F485CEBE0168
:105170006F5F7F4FCE0182960E94290A882309F42F
:105180007BCE68E0CE0101960E943F099985891384
:1051900073CE6A8170E0762F6627770F770F770FCF
:1051A0002981E8E02E9F90011124262B372B8AA11C
:1051B0008031D1F4688570E08F81AB01481B5109C3
:1051C000CA019695982F8827979587950E9435361E
:1051D000CB014097B901F3E0660F771FFA95E1F72D
:1051E00060789C01260F371F213854EE35070CF4E8
:1051F00043CEB901330F880B990B0E94BF3320E0D7
:1052000030E040E05CE30E941E343ACEC701B601B4
:105210009058A50194010E942B36181674F468E288
:105220007DE087E793E00E94971B69EB71E08AE4D9
:1052300094E00E94841D61E06DCE66EB7CE087E720
:1052400093E00E94971B6DE97CE087E793E00E9462
:105250002D076AE474E087E793E00E94851B5DCE2A
:10526000821B930BA40BB50B86A797A7A0ABB1AB82
:105270009CCE821B930BA40BB50B82AB93ABA4AB60
:10528000B5ABA2CE90E080E0B5CE2F96EEACFFACF1
:105290002F97C7010196EDB7FEB7E81BF90B0FB6C4
:1052A000F894FEBF0FBEEDBF2DB73EB72F5F3F4F47
:1052B0006901E114F10479F031E0E31AF1082B9669
:1052C0006EAD7FAD2B97A701C6010E948738F6010E
:1052D000EE0DFF1D108266E771E0C6010E94E42F0B
:1052E00066E771E090E080E00E94E42F7C01BC0161
:1052F000CE0101960E94A51D6DEB71E0CE010196D5
:105300000E94A91B182FCE0101960E94BA1D1123DD
:1053100009F4F2C20E94330920E03CE546E255E080
:105320000E945E3565962CAF3DAF4EAF5FAF65977F
:105330000E94330920E03CE546E255E00E945E35DC
:1053400020E83EEE46E350E00E945E3569962CAFC1
:105350003DAF4EAF5FAF69970E94330920E03CE557
:1053600046E255E00E945E3520E83EEE46E350E01E
:105370000E945E3520E63AEE40E050E00E945E3545
:105380006D962CAF3DAF4EAF5FAF6D970E94330966
:1053900020E03CE546E255E00E945E3520E83EEE26
:1053A00046E350E00E945E3520E63AEE40E050E0F1
:1053B0000E945E3528EE33E040E050E00E945E350A
:1053C00049015A016DE87CE0CE0182960E94971B4C
:1053D00065E77CE0CE0182960E94971BCE01829603
:1053E0000E94711B65E67CE0CE0182960E94971BAD
:1053F0006EE57CE0CE0182960E94971B67E57CE01B
:10540000CE0182960E94971B67E37CE0CE018296D4
:105410000E94971B66E17CE0CE0182960E94971B5A
:105420006EEB7BE0CE0182960E94971B65E67BE0E7
:10543000CE0182960E94971B63E17BE0CE018296AB
:105440000E94971B65E07BE0CE0182960E94971B2D
:1054500066EC7AE0CE0182960E94971B6CEB7AE0B4
:10546000CE0182960E94971B65EA7AE0CE01829671
:105470000E94971B65E77AE0CE0182960E94971BF7
:1054800069E47AE0CE0182960E94971B64E07AE09C
:10549000CE0182960E94971B6FE979E0CE01829639
:1054A0000E94971B6FE779E0CE0182960E94971BBE
:1054B0006CE679E0CE0182960E94971B60E479E069
:1054C000CE0182960E94971B6DE279E0CE01829612
:1054D0000E94971B6FE079E0CE0182960E94971B95
:1054E00060ED78E0CE0182960E94971B67EC78E031
:1054F000CE0182960E94971B64E778E0CE018296E7
:105500000E94971B62E778E0CE0182960E94971B6B
:1055100063E678E0CE0182960E94971B69E578E009
:10552000CE0182960E94971B6FE478E0CE018296AE
:105530000E94971B6CE178E0CE0182960E94971B37
:1055400064E178E0CE0182960E94971B6DE078E0DE
:10555000CE0182960E94971B67EC77E0CE0182967F
:105560000E94971B6DE977E0CE0182960E94971BFF
:105570006AE0CE0101960E9451216FEB71E0CE01ED
:10558000C1960E94A51DBE016F5F7F4FCE01C196DF
:105590000E94501D6FE072E00E943A1DBC01CE01D6
:1055A00082960E94851BCE01C1960E94BA1DCE0133
:1055B00001960E94BA1D64E6CE0101960E94512117
:1055C00065E172E0CE01C1960E94A51DBE016F5F2C
:1055D0007F4FCE01C1960E94501D6FE072E00E9485
:1055E0003A1DBC01CE0182960E94851BCE01C19658
:1055F0000E94BA1DCE0101960E94BA1D62E677E0B4
:10560000CE0182960E94971B66E577E0CE018296D6
:105610000E94971B66EB71E08AE494E00E94A91B4C
:10562000882331F069E277E0CE0182960E94971BD1
:1056300069EB71E08AE494E00E94A91B882331F0B1
:105640006DEF76E0CE0182960E94971B62EE76E0C7
:10565000CE0182960E94971B69EB76E0CE0182967E
:105660000E942D07C0904A03D0904B03E0904C035A
:10567000F0904D03A7019601C701B6010E94303694
:105680006FE572E081111BC026013701E89477F8BD
:105690002FEF3FEF4FE75FE7C301B2010E943036C3
:1056A0008111ACC02FEF3FEF4FE75FE7C301B201BD
:1056B0000E94B83318160CF0A1C063E672E0CE0168
:1056C00082960E94CC1A64EB76E0CE0182960E940C
:1056D000971B6FEA76E0CE0182960E942D076FE954
:1056E00076E0CE0182960E942D072AE065964CADA9
:1056F0005DAD6EAD7FAD6597CE0182960E94DB1ADF
:105700006DE976E0CE0182960E942D076BE976E086
:10571000CE0182960E942D072AE069964CAD5DADC0
:105720006EAD7FAD6997CE0182960E94DB1A69E962
:1057300076E0CE0182960E942D0767E976E0CE01E1
:1057400082960E942D072AE06D964CAD5DAD6EAD40
:105750007FAD6D97CE0182960E94DB1A65E976E0F7
:10576000CE0182960E942D0763E976E0CE018296F3
:105770000E942D072AE0B501A401CE0182960E9465
:10578000DB1A61E976E0CE0182960E942D0760E285
:1057900076E0CE0182960E94971B6DEE75E0CE01F9
:1057A00082960E94971B63EE75E0CE0182960E945E
:1057B000971B6BED75E0CE0182960E94971B63EDFF
:1057C00075E0CE0182960E94971B61E070E080E058
:1057D00090E00E940009CE0182960E94C00ECE0188
:1057E00082960E941C13CE01875B9F4F0E94BA1DB8
:1057F0000FB6F8943EBE0FBE2DBE7BCC2FEF3FEF11
:105800004FE75FE4C701B6010E942B3618161CF45F
:1058100067E672E054CF2FEF3FEF4FE75FECC70131
:10582000B6010E94B83387FDF3CF20E030E0A90134
:10583000C701B6010E94B83387FF09C06DE2CE01EF
:1058400082960E944E0CF7FAF094F7F8F0942AE052
:1058500037ED43EA5BE3C701B6010E9490352B01A7
:105860003C010E94FC356B017C010E94BD339B0111
:10587000AC01C301B2010E948F352B013C012AE02B
:10588000B701A601CE0182960E94DB1A6EE2CE011C
:1058900082960E944E0C20E030E040E251E4C301C9
:1058A000B2010E941E342B013C010E94FC356B01A9
:1058B000F12CE12C2AE0B701A601CE0182960E94CC
:1058C000DB1AC701B6010E94BD339B01AC01C301C5
:1058D000B2010E948F3520E030E040E251E40E94A6
:1058E0001E340E94FC35AB0170E060E02AE0CE017E
:1058F00082960E94DB1AE7CEB701CE0101960E9484
:10590000A51D6BE672E0CE0101960E94A91B182F1F
:10591000CE0101960E94BA1D112309F483C063ECE5
:1059200075E0CE0182960E94971B64EA75E0CE0175
:1059300082960E94971BCE0182960E94711B62EA9A
:1059400075E0CE0182960E94971B64E975E0CE0156
:1059500082960E942D0764E6CE0101960E94512195
:10596000BE016F5F7F4FCE0182960E941F07CE015E
:1059700001960E94BA1D62E975E0CE0182960E94EE
:10598000971B6CE775E0CE0182960E942D076AE0B6
:10599000CE0101960E945121BE016F5F7F4FCE0163
:1059A00082960E941F07CE0101960E94BA1D6AE7E7
:1059B00075E0CE0182960E94971B64E675E0CE01E9
:1059C00082960E942D0760914A0370914B0380914B
:1059D0004C0390914D031AAA19AA1CAA1BAA1EAA2D
:1059E0001DAA8E010F5F1F4F22E044E00E941E2F70
:1059F000009799F0BC01CE01C1960E94841DBE01A2
:105A00006F5C7F4FCE0182960E94851BCE01C196AE
:105A10000E94BA1D62E675E0D4CECE01C1960E9406
:105A2000281DEDCFB701CE0101960E94A51D6AE7A2
:105A300072E0CE0101960E94A91B182FCE0101969B
:105A40000E94BA1D112329F0CE0182960E94C00E39
:105A5000CACEB701CE018D5B9F4F0E94A51D67E89E
:105A600072E0CE0101960E94A51D4D815E812996AE
:105A70008EAD9FAD29978417950788F025968EAD3A
:105A80009FAD2597009759F069817A81611571055D
:105A900031F00E94793811E0892B09F010E0CE0135
:105AA00001960E94BA1D112309F495C164E771E0C3
:105AB000C7010E94E42F009729F0BC0187E793E01B
:105AC0000E94CC1A87E793E00E94711B64E771E0A3
:105AD00090E080E00E94E42F62E771E00E94E42FF2
