:100000000C94CA060C94F2060C94F2060C94F206B8
:100010000C94F2060C94F2060C94F2060C94F20680
:100020000C94F2060C94F2060C94F2060C94F20670
:100030000C94F2060C94F2060C94F2060C94F20660
:100040000C943D1E0C94F2060C940B1E0C94E51DB2
:100050000C94F2060C94F2060C94F2060C94F20640
:100060000C94F2060C94F2064E414E494E495459F6
:10007000494E46CDCCCC3D0AD7233C17B7D1387773
:10008000CC2B329595E6241FB14F0A000020410089
:1000900000C84200401C4620BCBE4CCA1B0E5AAED3
:1000A000C59D7400407A10F35A00A0724E180900E2
:1000B00010A5D4E80000E87648170000E40B5402CD
:1000C0000000CA9A3B000000E1F505000080969808
:1000D00000000040420F000000A086010000001058
:1000E0002700000000E8030000000064000000009A
:1000F000000A00000000000100000000002C76D87B
:1001000088DC674F0823DFC1DFAE59E1B1B796E560
:10011000E3E453C63AE651997696E8E6C28426EBC4
:10012000898C9B62ED407C6FFCEFBC9C9F40F2BAD7
:10013000A56FA5F490055A2AF75C936B6CF9676D6F
:10014000C11BFCE0E40D47FEF520E6B500D0ED90C4
:100150002E0300943577050080841E080000204E91
:100160000A000000C80C333333330F986E1283112A
:1001700041EF8D2114893BE65516CFFEE6DB18D101
:10018000844B381BF77C1D901DA4BBE424203284D3
:10019000725E228100C9F124ECA1E53D27005EBC1E
:1001A000E2613FDD83C29C7E20A3FD1F419DC321F0
:1001B0007FFCA2401E5F01E3BD3E6082DC237D9F89
:1001C000C1421CFEA0E1BF5D0380DE3C62BEE002D6
:1001D0005CDF81633D7C22C09E1D43A1FF4618FA6F
:1001E000A427799BC584DA3866E5BB5907DB8567A8
:1001F00039BAE406581947A5FB7826C49A653BD955
:1002000087045AB8E6A7F91B45C6987A24F8A6448D
:100210001A99C7257B3A6486D85B05E7B98CD2303A
:100220006EEDB3510F4E10F2AC2F7193CD114FAD57
:10023000F3702ECC92D38D6F31B2EC0E50AFF11320
:100240004DCE90722C6D33D18F0C52B0EE326C8E3D
:10025000D0530DEFB1F0AE4C1291CF2D73CA9476FE
:1002600028ABF517490856B4EA6937D58B5709EB1F
:10027000B536688AD495CB2977F4AA4816E9B755DC
:100280000B88D6346A2B7597C94A14F6A8742AC805
:1002900096154BA9F7B6E80A54D7896B35000000CC
:1002A00000250028002B00000000080002010000CB
:1002B000030407000000000000000000000000240C
:1002C0000027002A0045746865726E6574207468A2
:1002D00065726D6F7374617420495020616464723B
:1002E0006573733A004275696C6420312E302E3488
:1002F0002066726F6D2031382E20536570203230A9
:100300003231005765626170702063726561746597
:10031000642062793A204D617274696E2043686C82
:1003200065626F76656300485454502F312E31203A
:10033000343034204E6F7420466F756E64003C2F4D
:1003400068746D6C3E003C2F626F64793E003C62C5
:100350003E5265646972656374696E67202E2E2E45
:1003600020506C6561736520776169743C2F623E33
:100370003C2F63656E7465723E003C68333E3C669C
:100380006F6E7420636F6C6F723D27726564273ED9
:10039000546865206461746120656E74657265647B
:1003A000206973206E6F742061206E756D626572B6
:1003B00021212120506C6561736520747279206160
:1003C0006761696E20616674657220726564697226
:1003D000656374696E672E3C2F666F6E743E3C2FAA
:1003E00068333E003C63656E7465723E3C68333E24
:1003F00053657276657220726563656976656420FF
:1004000064617461732066726F6D2048544D4C2096
:10041000666F726D3A3C2F68333E003C626F6479C0
:100420003E003C2F686561643E003C7469746C65F5
:100430003E48545450207765627365727665722029
:100440002D2041726475696E6F202B20457468659C
:10045000726E65743C2F7469746C653E003C6D650A
:10046000746120687474702D65717569763D2752CA
:100470006566726573682720636F6E74656E743D80
:1004800027353B2075726C3D2F27202F3E003C6D99
:1004900065746120636861727365743D2775746665
:1004A0002D38273E003C686561643E003C68746DF1
:1004B0006C3E003C21444F43545950452068746DB4
:1004C0006C3E00436F6E74656E742D547970653A9E
:1004D00020746578742F68746D6C00485454502FE4
:1004E000312E3120323030204F4B00557365722051
:1004F000696E70757420666F72206B657920666E08
:10050000616D65322028487973746572657369730B
:1005100029206973206E6F742061206E756D62658D
:100520007221005573657220696E70757420666F54
:1005300072206B657920666E616D6520285461724A
:100540006765742074656D70657261747572652974
:10055000206973206E6F742061206E756D62657204
:1005600021007D002241637475616C5F54656D707C
:1005700065726174757265223A002C0022546172B2
:100580006765745F54656D7065726174757265221C
:100590003A002C002248797374657265736973227E
:1005A0003A007B00436F6E74656E742D54797065EC
:1005B0003A206170706C69636174696F6E2F6A7341
:1005C0006F6E00485454502F312E3120323030207D
:1005D0004F4B003C2F68746D6C3E003C2F626F6483
:1005E000793E003C2F63656E7465723E003C683452
:1005F0003E467265652076657273696F6E202D20A8
:10060000312E302E34206275696C643A2031382ED8
:10061000205365702E20323032313C2F68343E003A
:100620003C68333E417574686F723A204D61727454
:10063000696E2043686C65626F766563202D206D5E
:10064000617274696E697573393640676D61696C82
:100650002E636F6D202D2068747470733A2F2F6D88
:10066000617274696E69757339362E67697468755D
:10067000622E696F2F7465726D6F737461742D656E
:10068000746865726E65742F656E2F3C2F68333EFB
:1006900000730020006D0020006800200064003C12
:1006A000623E557074696D653A203C2F623E003C95
:1006B00068723E0020C2B043003C623E41637475E4
:1006C000616C2074656D7065726174757265206609
:1006D000726F6D20445331384232303A3C2F623EC3
:1006E00020003C6469762069643D22636F756E74F6
:1006F000646F776E223E3C2F6469763E003C623E1A
:100700003C666F6E7420636F6C6F723D2772656418
:10071000273E4F75747075743A204F46463C2F66DD
:100720006F6E743E3C2F623E003C623E3C666F6ED4
:100730007420636F6C6F723D27677265656E273E2C
:100740004F75747075743A204F4E3C2F666F6E74FF
:100750003E3C2F623E003C2F666F726D3E3C6872DD
:100760003E003C696E70757420747970653D277326
:1007700075626D69742720636C6173733D276274C1
:100780006E2062746E2D73756363657373272076B4
:10079000616C75653D2753656E64273E003C666F4E
:1007A000726D20616374696F6E3D272F6163746998
:1007B0006F6E2E68746D6C27206D6574686F643D74
:1007C00027676574273E003C63656E7465723E3C26
:1007D00068333E456E746572206461746120666F93
:1007E0007220776562736572766572202877696C0E
:1007F0006C2062652073746F72656420696E204599
:100800004550524F4D293A3C2F68333E003C626FB1
:1008100064793E003C2F686561643E003C746974F5
:100820006C653E48545450207765627365727665F6
:1008300072202D2041726475696E6F202B204574E3
:100840006865726E65743C2F7469746C653E003C1B
:100850002F7363726970743E007D2C20313030300C
:10086000293B0074696D656C656674202D3D2031EF
:100870003B007D00646F63756D656E742E676574F3
:10088000456C656D656E74427949642822636F75A5
:100890006E74646F776E22292E696E6E657248548D
:1008A0004D4C203D2074696D656C656674202B206D
:1008B00022207365636F6E647320746F20726566A7
:1008C00072657368223B007D20656C7365207B0038
:1008D000646F63756D656E742E676574456C656DC8
:1008E000656E74427949642822636F756E74646F13
:1008F000776E22292E696E6E657248544D4C203DEC
:100900002022526566726573682E2E2E223B00638C
:100910006C656172496E74657276616C28646F777C
:100920006E6C6F616454696D6572293B006966285D
:1009300074696D656C656674203C3D2030297B00D0
:1009400076617220646F776E6C6F616454696D6557
:1009500072203D20736574496E74657276616C28EF
:1009600066756E6374696F6E28297B0076617220EC
:1009700074696D656C656674203D2033303B003CC6
:1009800073637269707420747970653D277465783B
:10099000742F6A617661736372697074273E003CDC
:1009A0006C696E6B2072656C3D277374796C65732E
:1009B000686565742720687265663D276874747081
:1009C000733A2F2F6D617863646E2E626F6F74734C
:1009D0007472617063646E2E636F6D2F626F6F74DB
:1009E00073747261702F332E342E312F6373732F13
:1009F000626F6F7473747261702E6D696E2E6373A3
:100A000073273E003C6D657461206E616D653D2706
:100A100076696577706F72742720636F6E74656E88
:100A2000743D2777696474683D6465766963652DF4
:100A300077696474682C20696E697469616C2D73C0
:100A400063616C653D31273E003C6D6574612068D3
:100A50007474702D65717569763D2752656672658F
:100A600073682720636F6E74656E743D273330277B
:100A70003B202F3E003C6D657461206E616D653DCD
:100A800027617574686F722720636F6E74656E746A
:100A90003D274D617274696E2043686C65626F76A4
:100AA0006563273E003C6D65746120636861727305
:100AB00065743D277574662D38273E003C2F73639F
:100AC000726970743E00736D6172746C6F6F6B2825
:100AD00027696E6974272C20276462353065666546
:100AE0003966666632383061313764623532623871
:100AF000326265323231323430636262643364624E
:100B00006527293B007D2928646F63756D656E74C8
:100B1000293B00632E636861727365743D277574A9
:100B2000662D38273B632E7372633D27687474709B
:100B3000733A2F2F7265632E736D6172746C6F6FD1
:100B40006B2E636F6D2F7265636F726465722E6AB0
:100B500073273B682E617070656E644368696C64CE
:100B60002863293B0076617220633D642E637265C1
:100B7000617465456C656D656E7428277363726971
:100B8000707427293B6F2E6170693D6E6577204137
:100B90007272617928293B632E6173796E633D74AB
:100BA0007275653B632E747970653D277465787442
:100BB0002F6A617661736372697074273B00766196
:100BC00072206F3D736D6172746C6F6F6B3D6675F3
:100BD0006E6374696F6E28297B206F2E6170692E99
:100BE0007075736828617267756D656E7473297DA1
:100BF0002C683D642E676574456C656D656E747315
:100C000042795461674E616D652827686561642784
:100C1000295B305D3B0077696E646F772E736D6181
:100C200072746C6F6F6B7C7C2866756E6374696F11
:100C30006E286429207B003C736372697074207491
:100C40007970653D27746578742F6A617661736386
:100C500072697074273E003C686561643E003C68C0
:100C6000746D6C3E003C21444F43545950452068FC
:100C7000746D6C3E00436F6E74656E742D547970A4
:100C8000653A20746578742F68746D6C004854540C
:100C9000502F312E3120323030204F4B00416374C1
:100CA00075616C207374617465206F66206F757454
:100CB0007075743A2000446966666572656E636596
:100CC000206265747765656E207461726765742053
:100CD000616E642061637475616C2074656D702051
:100CE0006973206E6F742061626F7665206F722069
:100CF00062656C6F772074686520687973746572BB
:100D0000657369732E20546865206F7574707574EF
:100D100020737461746520646F6573206E6F742036
:100D20006368616E67652E004F7574707574206F0F
:100D30006666004F7574707574206F6E0045746838
:100D400065726E657420746865726D6F737461741A
:100D500020495020616464726573733A000000009A
:100D600000230026002900040404040404040402EF
:100D70000202020202030303030303010204081038
:100D80002040800102040810200102040810200005
:100D9000871E0B2B11241FBECFEFD8E0DEBFCDBFC7
:100DA00012E0A0E0B1E0E4E2F9E602C005900D92A5
:100DB000AC3BB107D9F723E0ACEBB2E001C01D9228
:100DC000A33FB207E1F716E0C9ECD6E004C02197D3
:100DD000FE010E945532C83CD107C9F70E94621F2C
:100DE0000C9485340C940000089520E3FC012083CA
:100DF0003296862F82958F706F706A3030F4605D06
:100E00006293682F8111F5CF0895695CF9CF089539
:100E100021E0FC018485883009F420E0822F0895C8
:100E2000FC01248135816217730748F48081918128
:100E3000009729F0860F971FFC018081089580E0BC
:100E40000895DB0114964D915C9115976D917C91FD
:100E5000DC01ED91FC910280F381E02D0994EF9289
:100E6000FF920F931F93CF93DF938C017B01D0E010
:100E7000C0E0F701EC0FFD1F6491662361F0D8011B
:100E8000ED91FC910190F081E02DC8010995892B2D
:100E900011F02196EECFCE01DF91CF911F910F91EE
:100EA000FF90EF900895AF92BF92CF92DF92EF92B2
:100EB000FF920F931F93CF93DF936C017B018B0104
:100EC000040F151FEB015E01AE18BF08C017D10754
:100ED00059F06991D601ED91FC910190F081E02DDE
:100EE000C6010995892B79F7C501DF91CF911F9133
:100EF0000F91FF90EF90DF90CF90BF90AF9008954B
:100F0000FC01538D448D252F30E0842F90E0821B0F
:100F1000930B541710F0CF96089501970895FC0194
:100F2000918D828D981761F0A28DAE0FBF2FB11DEC
:100F30005D968C91928D9F5F9F73928F90E0089544
:100F40008FEF9FEF0895FC01918D828D981731F0FE
:100F5000828DE80FF11D858D90E008958FEF9FEF52
:100F60000895FC01918D228D892F90E0805C9F4F28
:100F7000821B91098F739927089582EE92E00E9457
:100F8000B10721E0892B09F420E0822F089580E049
:100F900090E0892B29F00E94BD0781110C9400007C
:100FA0000895FC01A48DA80FB92FB11DA35ABF4FFE
:100FB0002C91848D90E001968F739927848FA68958
:100FC000B7892C93A089B1898C91837080648C93AC
:100FD000938D848D981306C00288F389E02D80815B
:100FE0008F7D80830895EF92FF920F931F93CF938D
:100FF000DF93EC0181E0888F9B8D8C8D98131AC054
:10100000E889F989808185FF15C09FB7F894EE893A
:10101000FF896083E889F989808183708064808397
:101020009FBF81E090E0DF91CF911F910F91FF90E2
:10103000EF900895F62E0B8D10E00F5F1F4F0F738A
:101040001127E02E8C8D8E110CC00FB607FCFACF45
:10105000E889F989808185FFF5CFCE010E94D1070B
:10106000F1CFEB8DEC0FFD2FF11DE35AFF4FF08216
:101070009FB7F8940B8FEA89FB8980818062CFCF7C
:10108000CF93DF93EC01888D8823B9F0AA89BB89BF
:10109000E889F9898C9185FD03C0808186FD0DC0AA
:1010A0000FB607FCF7CF8C9185FFF2CF808185FFCB
:1010B000EDCFCE010E94D107E9CFDF91CF91089506
:1010C00090E0FC01E955FD4F2491FC01E558F24FF9
:1010D0003491FC01E959F24FE491EE23C9F0222347
:1010E00039F0233001F1A8F4213019F1223029F12F
:1010F000F0E0EE0FFF1FE356FD4FA591B4918FB7BF
:10110000F894EC91611126C030953E233C938FBF3B
:1011100008952730A9F02830C9F0243049F780918C
:1011200080008F7D03C0809180008F778093800046
:10113000DFCF84B58F7784BDDBCF84B58F7DFBCFC8
:101140008091B0008F778093B000D2CF8091B000B3
:101150008F7DF9CF3E2BDACFCF93DF9390E0FC0168
:10116000E558F24F24918959924FFC0184918823CC
:10117000D1F090E0880F991FFC01E554FD4FA59137
:10118000B491FC01E356FD4FC591D49161110EC09D
:101190009FB7F8948C91E22FE0958E238C93288151
:1011A000E223E8839FBFDF91CF9108958FB7F89432
:1011B000EC91E22BEC938FBFF6CF3FB7F894809180
:1011C000C2029091C302A091C402B091C50226B59B
:1011D000A89B05C02F3F19F00196A11DB11D3FBF6F
:1011E000BA2FA92F982F8827BC01CD01620F711D3E
:1011F000811D911D42E0660F771F881F991F4A9538
:10120000D1F708958F929F92AF92BF92CF92DF92C3
:10121000EF92FF926B017C010E94DD084B015C01A3
:10122000C114D104E104F104B9F00E94DD08681989
:1012300079098A099B09683E73408105910580F30D
:1012400021E0C21AD108E108F10888EE880E83E097
:10125000981EA11CB11CE4CFFF90EF90DF90CF90BF
:10126000BF90AF909F908F9008952FB7F8946091A2
:10127000BE027091BF028091C0029091C1022FBF47
:101280000895DC0180E0615038F0ED91E827F0E04E
:10129000E356FE4F8491F7CF0895DC012C9111960F
:1012A000ED91FC91F8948181822B81839281322F80
:1012B00030959323928387E090E00197F1F7818145
:1012C0008323818383E290E00197F1F79081789402
:1012D000EFECF0E03197F1F7922381E009F480E040
:1012E0000895FC0190810180F281E02D292F209545
:1012F00060FF14C0F8948281822382838181892BCC
:101300008183A3E2B0E01197F1F78281982B928359
:10131000789487ED90E00197F1F70895F894828131
:10132000822382838181892B8183AFEFB0E0119783
:10133000F1F78281982B928378948FE090E0EBCF45
:10134000DF92EF92FF920F931F93CF93DF93EC0105
:10135000D62EE42E08E010E0FF24F39461E08D2DFA
:101360008F2109F460E0CE010E947109FF0C015049
:101370001109A1F7E11010C0F894E981FA81918177
:101380008881809589238183E981FA81928188818E
:101390008095892382837894DF91CF911F910F915B
:1013A000FF90EF90DF900895EF92FF920F931F93BD
:1013B000CF93DF938C017B0140E065E50E94A0099B
:1013C000E70188E0E80EF11C699140E0C8010E9445
:1013D000A009CE15DF05C1F7DF91CF911F910F91C5
:1013E000FF90EF900895FC0190810180F281E02D43
:1013F000F8948181292F20958223818378943DE779
:1014000043E050E0315029F1DA011197F1F7808182
:101410008923C1F3F8948281822382838181892B7D
:1014200081837894ABE7B7E01197F1F7F894818165
:1014300082238183A3E1B1E01197F1F780819823A2
:1014400081E009F080E07894E3E6F6E03197F1F787
:10145000089580E00895AF92BF92CF92DF92EF920D
:10146000FF920F931F93CF93DF938B01BC01809169
:10147000C9039091CA030E94D40940E06EEB8091A9
:10148000C9039091CA030E94A009E801680189E09C
:10149000C80ED11CA090C903B090CA0388E0E82E02
:1014A000F12C10E001E0C5010E944D098111102BC3
:1014B000000F81E0E81AF108B1F71993CC16DD06A8
:1014C00049F78091C9039091CA030E94F30991E002
:1014D000813009F090E0892FDF91CF911F910F911A
:1014E000FF90EF90DF90CF90BF90AF9008950F9353
:1014F0001F93CF93DF93CDB7DEB729970FB6F8943C
:10150000DEBF0FBECDBF8C018091C9039091CA038D
:101510000E94F309811102C080E01FC0BE016F5F0D
:101520007F4FC8010E942B0A8823B1F368E0CE01E7
:1015300001960E94410999858913EECF8D818F33E1
:10154000B9F020F48F3141F789E007C08F3521F0E1
:101550008F3711F78CE001C08BE029960FB6F89415
:10156000DEBF0FBECDBFDF91CF911F910F910895C8
:101570008AE0F3CF61E08091C7020C94600860E0DC
:101580008091C7020C94600808958EBD00000DB4D0
:1015900007FEFDCF8EB508958CBD9DBD0895DF92E9
:1015A000EF92FF920F931F93CF93DF93D82FD92EF3
:1015B000C62F7A01890180917F03909180030E9458
:1015C000CC0A0E94BF0A8D2D0E94C50A8D2F0E9451
:1015D000C50A8C2F0E94C50AE701E00EF11E80E0CB
:1015E0000E94C50A8993EC16FD06C9F70E94BA0A43
:1015F000C801DF91CF911F910F91FF90EF90DF9085
:101600000895CF93DF93D82FC62F80917F039091B9
:1016100080030E94CC0A0E94BF0A80E00E94C50A93
:101620008D2F0E94C50A8C2F0E94C50A80E00E945F
:10163000C50AC82F0E94BA0A8C2FDF91CF91089556
:10164000DF92EF92FF920F931F93CF93DF93D82FE8
:10165000D92EC62F7A01890180917F039091800352
:101660000E94CC0A0E94BF0A8D2D0E94C50A8D2FB0
:101670000E94C50A8C2F0E94C50AE701E00EF11EE8
:10168000CE15DF0521F089910E94C50AF9CF0E948D
:10169000BA0AC801DF91CF911F910F91FF90EF908F
:1016A000DF9008951F93CF93DF93182FD62FC42F69
:1016B00080917F03909180030E94CC0A0E94BF0A10
:1016C00080E00E94C50A812F0E94C50A8D2F0E94CA
:1016D000C50A8C2F0E94C50A0E94BA0A81E0DF91D8
:1016E000CF911F9108959B018295880F807E6CE0B9
:1016F000680FC9010C94520BCF93DF93EC01898DD5
:101700009A8D892B41F0E881F9810284F385E02DDF
:10171000CE010995F4CFDF91CF910895CF93DF9358
:101720001F92CDB7DEB76983DC01ED91FC91028099
:10173000F381E02D41E050E0BE016F5F7F4F0995DE
:101740000F90DF91CF9108951F93CF93DF93FB010B
:10175000DC0158961C921E9257972281211109C0D4
:101760002381211106C02481211103C02581222358
:1017700039F14115510521F1EA01DC011C961C915A
:10178000AF014E5F5F4F612F6295660F607E645FB1
:1017900024E030E08CE090E00E94200B4D2F60E1CF
:1017A00070E0812F0E94730B4C2F61E170E0812F5C
:1017B0000E94730B81E090E0DF91CF911F9108951B
:1017C00090E080E0F9CFFC01818D928D0895FC01BD
:1017D0008589968908952EE831E0FC0131832083C4
:1017E000FB014189528963897489FC0142835383D7
:1017F00064837583089580E00895CF93DF931F92EB
:10180000CDB7DEB76983DC01ED91FC910280F381F5
:10181000E02D41E050E0BE016F5F7F4F09950F90D2
:10182000DF91CF9108950895FC019485FB01848593
:10183000981303C081E0983009F480E00895CF93B5
:10184000DF931F92CDB7DEB76983DC01ED91FC9188
:101850000280F381E02D41E050E0BE016F5F7F4FD9
:1018600009950F90DF91CF910895DC01ED91FC91E6
:10187000028CF38DE02D099591E0892708959B0155
:101880008295880F807E68E0680FC9010C94010B77
:10189000CF93C82F462F61E070E00E94730B61E088
:1018A00070E08C2F0E943F0C8111F9CFCF910895E9
:1018B000CF93C82F60E170E00E94480C4FEF62E0C8
:1018C00070E08C2FCF910C94730B0F931F93CF93D9
:1018D000DF93C82FD62F8A010E94580C4D2F70E03D
:1018E00060E08C2F0E94730B01151105B9F0412F98
:1018F00064E070E08C2F0E94730B402F65E070E075
:101900008C2F0E94730B61E070E08C2F0E94480CBA
:1019100081E0DF91CF911F910F9108950091E00236
:101920001091E1020F5F1F4F1093E1020093E0025C
:10193000DECFCF93DF93EC018C85883061F00E947D
:10194000580CEC85F0E0EE0FFF1FE853FD4F1182BD
:10195000108288E08C87DF91CF910895CF92DF923B
:10196000EF92FF920F931F93CF93DF93D82E7B01BB
:101970008A01C22E68E270E00E943F0CC82FD0E0BE
:10198000DC2FCC2769E270E08D2D0E943F0CC80F40
:10199000D11D6D2D6295660F607E685E9801A7016E
:1019A000CE010E94CF0AC11016C0C00FD11F4D2F0B
:1019B00068E270E08D2D0E94730B4C2F69E270E09D
:1019C0008D2DDF91CF911F910F91FF90EF90DF90C0
:1019D000CF900C94730BDF91CF911F910F91FF90DB
:1019E000EF90DF90CF9008950F931F93CF93DF93E5
:1019F0001F92CDB7DEB78C01DC01ED91FC91008424
:101A0000F185E02D0995892B91F021E041E050E02E
:101A1000BE016F5F7F4FF80184850E94AE0C898103
:101A200090E00F90DF91CF911F910F9108958FEF6C
:101A30009FEFF7CFCF93DF931F92CDB7DEB7FC01B7
:101A4000218D328D8FEF9FEF232B59F021E041E064
:101A500050E0BE016F5F7F4F84850E94AE0C89818C
:101A600090E00F90DF91CF910895BF92CF92DF92D7
:101A7000EF92FF920F931F93CF93DF93B82E6B01DA
:101A80007A01890164E270E00E943F0CC82F65E290
:101A900070E08B2D0E943F0CD0E0DC2FCC278C0D0A
:101AA0009D2D911DC80FD91F6B2D6295660F607E0D
:101AB0006C5E9801A701CE010E94200BC00FD11FC0
:101AC0004D2F64E270E08B2D0E94730B4C2F65E26A
:101AD00070E08B2DDF91CF911F910F91FF90EF90D0
:101AE000DF90CF90BF900C94730B1F93CF93DF9335
:101AF000182F66E270E00E943F0CC82FD0E0DC2F68
:101B0000CC2767E270E0812F0E943F0C8C0F9D2F45
:101B1000911DDF91CF911F910895FF920F931F9315
:101B2000CF93DF93F82E10E000E08F2D0E94750D0B
:101B3000EC01892B21F08F2D0E94750D8C01C017AF
:101B4000D10799F7CE01DF91CF911F910F91FF90AF
:101B50000895FC018485883011F00C948D0D90E07F
:101B600080E008951F93CF93DF93182F60E270E019
:101B70000E943F0CC82FD0E0DC2FCC2761E270E040
:101B8000812F0E943F0C8C0F9D2F911DDF91CF91D3
:101B90001F910895FF920F931F93CF93DF93F82E19
:101BA00010E000E08F2D0E94B20DEC01892B21F096
:101BB0008F2D0E94B20D8C01C017D10799F7CE016D
:101BC000DF91CF911F910F91FF900895AF92BF9237
:101BD000CF92DF92FF920F931F93CF93DF938C01ED
:101BE0005B01EA01FC01C788D08CF4848F2D0E9430
:101BF000CA0D8C179D0720F48F2D0E94CA0DEC0191
:101C00009E01A501B6018F2D0E94350DF80187892F
:101C1000908D8C0F9D1F908F878BCE01DF91CF9180
:101C20001F910F91FF90DF90CF90BF90AF900895DC
:101C3000FC018485883021F063E070E00C943F0C57
:101C400080E00895CF93DF93FC0124852830D9F0FC
:101C5000EC010E94180E843189F0882379F08831D4
:101C600069F021E08C3159F4E881F9810084F18533
:101C7000E02DCE01099521E0892B09F420E0822F87
:101C8000DF91CF91089580E0FBCFCF92DF92EF926A
:101C9000FF92CF93DF93EC018C85883089F168E067
:101CA00070E00E94480C0E9435096B017C01CE0156
:101CB0000E94180E882391F00E9435096C197D0945
:101CC0008E099F09683E73408105910538F461E0F3
:101CD00070E080E090E00E940209E9CFCE010E940E
:101CE000180E882319F08C850E94580CEC85F0E0C2
:101CF000EE0FFF1FE853FD4F1182108288E08C87A2
:101D0000DF91CF91FF90EF90DF90CF9008954F92A9
:101D10005F926F927F928F929F92AF92BF92CF927B
:101D2000DF92EF92FF921F93CF93DF93CDB7DEB791
:101D30002D970FB6F894DEBF0FBECDBF7C0198EC97
:101D4000A92E92E0B92E10E0D12CC12C28EE422E03
:101D500023E0522E612C712C3EE3832E31E0932E32
:101D60001C821B824D825E826F8278869A82898273
:101D70001D87D5012D913D915D01F70184819581EC
:101D800028173907B1F4CE0101960E94180E84314C
:101D900099F1CE0101960E94180E8C3151F4CE01BA
:101DA00001960E94A90D892B21F4CE0101960E9473
:101DB000450E1F5F1830A1F6CD2841F4D701ED91F3
:101DC000FC910084F185E02DC70109952D960FB691
:101DD000F894DEBF0FBECDBFDF91CF911F91FF9072
:101DE000EF90DF90CF90BF90AF909F908F907F90BB
:101DF0006F905F904F900895CC24C394D12CD9CF8D
:101E0000CF92DF92EF92FF921F93CF93DF93182F21
:101E10006B017A010E948D0DEC010097D9F463E00B
:101E200070E0812F0E943F0C843159F0882349F0E3
:101E3000C1E0D0E08C3111F4D0E0C0E0D195C19583
:101E4000D109CE01DF91CF911F91FF90EF90DF90EC
:101E5000CF900895E816F9060CF4E7011C161D064C
:101E600084F720E0AE01B601812F0E94AE0C60E441
:101E700070E0812F0E94480CE4CFCF93DF93FC01E8
:101E8000218D328D2115310529F48FEF9FEFDF91E0
:101E9000CF910895EC0184854217530708F0A901FA
:101EA0000E94000F1816190684F7298D3A8D281BF9
:101EB000390B3A8F298FEBCF0F931F93CF93DF937B
:101EC0001F92CDB7DEB7FC01218D328D232B41F45B
:101ED0008FEF9FEF0F90DF91CF911F910F9108959A
:101EE0008C0141E050E0BE016F5F7F4FFC018485B3
:101EF0000E94000F181619065CF7F801818D928D6B
:101F00000197928F818F898190E0E4CFFC018485D5
:101F10000C94000FCF93DF931F92CDB7DEB741E053
:101F200050E0BE016F5F7F4FFC0184850E94000F6F
:101F30001816190634F4898190E00F90DF91CF9143
:101F400008958FEF9FEFF9CF0F931F93CF93DF93F8
:101F5000EC010E943509688779878A879B87CE01C3
:101F60000E948A0F97FF15C00E94350908851985C0
:101F70002A853B85601B710B820B930B0C811D81A5
:101F80002E813F81601771078207930740F38FEF1F
:101F90009FEFDF91CF911F910F910895CF93FC0197
:101FA000C48560E270E08C2F0E94480C62E070E013
:101FB0008C2F0E943F0C84FD11C062E070E08C2FDA
:101FC0000E943F0C83FFF2CF48E162E070E08C2F6B
:101FD0000E94730B90E080E0CF91089540E162E0B1
:101FE00070E08C2F0E94730B81E090E0F5CFEF92B0
:101FF000FF921F93CF93DF93FC012485283039F0A3
:1020000080E0DF91CF911F91FF90EF9008957B01C9
:10201000EC0110E063E070E0812F0E943F0C811121
:102020000EC01C878C85883059F3FE86ED861A8E8B
:10203000198EA70162E00E94650C81E0E2CF883131
:1020400081F31F5F183031F7EDCF8F929F92AF92DF
:10205000BF92CF92DF92EF92FF920F931F93CF9395
:10206000DF93CDB7DEB72D970FB6F894DEBF0FBE66
:10207000CDBF7C0110E000E038EE832E33E0932EDC
:10208000A12CB12C4EE3C42E41E0D42E1C821B8225
:102090008D829E82AF82B886DA82C9820D87CE0198
:1020A00001960E94180E811130C0F70144815581BC
:1020B00061E0802F0E94650C63E070E0802F0E9439
:1020C0003F0C833129F462E070E0802F0E94480CBD
:1020D000F70184819581000F111FF801E853FD4F2E
:1020E000918380832D960FB6F894DEBF0FBECDBFCF
:1020F000DF91CF911F910F91FF90EF90DF90CF90E4
:10210000BF90AF909F908F9008950F5F1F4F083042
:10211000110509F0BBCFE6CF8F929F92AF92BF928D
:10212000CF92DF92EF92FF920F931F93CF936C01A8
:102130005B017A01FC01C485C830A1F481E090E024
:10214000F60193838283F12CE12CC701CF911F917B
:102150000F91FF90EF90DF90CF90BF90AF909F9046
:102160008F9008958A014130584010F000E018E047
:102170008C2F0E94CA0D4C0163E070E08C2F0E94EE
:102180003F0C873111F08C3109F58016910680F3F0
:102190009801A50170E060E08C2F0E94350D60E28F
:1021A00070E08C2F0E94480C62E070E08C2F0E943F
:1021B0003F0C84FD0EC063E070E08C2F0E943F0C4A
:1021C0008111F2CF8C2F0E94580CB8CF10E000E0A4
:1021D000DFCF40E162E070E08C2F0E94730B012B97
:1021E00009F0B3CFABCF3F924F925F926F927F9245
:1021F0008F929F92AF92BF92CF92DF92EF92FF9217
:102200000F931F93CF93DF93CDB7DEB72D970FB604
:10221000F894DEBF0FBECDBF6C015B014A010E9486
:10222000870E88ECE82E82E0F82E312C10E000E0DA
:1022300098EE492E93E0592E612C712C1C821B8242
:102240004D825E826F8278868EE391E09A838983E5
:102250003D86F701219131917F01F60184819581BD
:102260002817390771F4CE0101960E94180E8731A4
:1022700041F4A401B501CE0101960E948C10080F13
:10228000191F3394F8E03F12D9CFC8012D960FB62D
:10229000F894DEBF0FBECDBFDF91CF911F910F919C
:1022A000FF90EF90DF90CF90BF90AF909F908F9076
:1022B0007F906F905F904F903F900895DF92EF92E4
:1022C000FF920F931F93CF93DF93FC012485283057
:1022D00051F090E080E0DF91CF911F910F91FF903E
:1022E000EF90DF9008957A01EB018C01D12C63E02F
:1022F00070E08D2D0E943F0C811128C0F801D4861A
:10230000F8018485883029F3209100013091010182
:102310002F5F3F4F19F1309301012093000140914D
:1023200000015091010161E00E94650C8A818F3F9C
:10233000C1F48B818F3F01F58C818F3FE9F48D8152
:102340008F3FD1F488E0F8018487C3CF8B7F883139
:10235000A9F2D394F8E0DF12CACFD2CF20E034E064
:10236000DACF811109C08B81811106C08C81811166
:1023700003C08D81882331F3E114F10419F3F801CE
:10238000D484AE014E5F5F4F6D2D6295660F607E07
:10239000645F24E030E08CE090E00E94200B4F2D41
:1023A00060E170E08D2D0E94730B4E2D61E170E0B5
:1023B0008D2D0E94730B64E070E08D2D0E94480CFF
:1023C000C8010E94180E873161F061E070E080E082
:1023D00090E00E940209C8010E94180E8111F0CFFE
:1023E000B1CF81E090E077CF90E080E0089524E0E5
:1023F00030E0AC0164E08FE090E00C94200BDC0155
:10240000ED91FC91048CF58DE02D09948091C90328
:102410009091CA030E94F30940E06CEC8091C903DB
:102420009091CA030E94A0094091C40364E4809182
:10243000C9039091CA030E94A0098091C603882312
:10244000A1F0E091C503E9506EEE72E0E33038F49C
:10245000F0E0EE0FFF1FEC59FE4F60817181072EF7
:10246000000C880B990B0C9402090895BF92CF922F
:10247000DF92EF92FF920F931F93CF93DF93EC01C4
:10248000B62EC72EED84E11004C00E94F30981111D
:102490000EC01B861D861C8680E0DF91CF911F91A8
:1024A0000F91FF90EF90DF90CF90BF90089540E0A4
:1024B00060EFCE010E94A009D12C01E011E0CE0115
:1024C0000E944D09F82ECE010E944D0991E0F912AB
:1024D00018C0813099F51134E0F2EB86E11002C0AA
:1024E00081E08D878B818823A1F22396EB2DFC2D33
:1024F000CF01089629912193E817F907D9F781E0D0
:10250000CCCFED2DF0E0F8120FC08B851817A0F49A
:10251000DE01AE0FBF1F13968C91802379F4F12C4E
:10252000193008F41C87E12EEC0FFD1F8381902FDA
:102530009095892383830AC08113F1CFFE01ED0DAD
:10254000F11D8381802B8383FF24F3946F2DCE01B3
:102550000E9471091F5F000F11F4D39401E087E01E
:102560008D1508F0ACCFB7CFCF93DF93EC01888106
:102570009981009711F00E94F732198218821D820A
:102580001C821B821A82DF91CF910895FC01808109
:102590009181009711F00C94F7320895DC018EE8D8
:1025A00091E08D939D9384E0FB0101900D928A95BB
:1025B000E1F708950F931F93CF93DF93CDB7DEB765
:1025C00028970FB6F894DEBF0FBECDBF8C01DC019B
:1025D000ED91FC910680F781E02D0995F801848545
:1025E0000E948D0D892BB1F148E050E0BE016F5F74
:1025F0007F4FD8011C968C910E94000F1816190667
:10260000F4F4D801519684E0FE01319601900D92C8
:102610008A95E1F78D8190E0982F88272E81820F8F
:10262000911DF801968B858B8F81282F30E0322FFA
:1026300022278885820F932F911D928F818F289654
:102640000FB6F894DEBF0FBECDBFDF91CF911F91C3
:102650000F91089590E080E0F2CF4F925F926F92D9
:102660007F928F929F92AF92BF92CF92DF92EF9222
:10267000FF920F931F93CF93DF93CDB7DEB763978E
:102680000FB6F894DEBF0FBECDBF7C016B013A01DF
:10269000FB01DB018D918111FDCF30E020E090E066
:1026A00080E05AE04191442301F1843091050CF01F
:1026B00042C04E3269F42F3F310509F0E4F5D301F1
:1026C000A80FB91F12962C93019630E020E0EACFB4
:1026D000529FB001539F700D1124242F440F330BD0
:1026E00020533109260F371FDDCF2F3F310509F069
:1026F00014F584309105FCF4680E791EF3012283F1
:10270000CC24C394D12CC60163960FB6F894DEBFD7
:102710000FBECDBFDF91CF911F910F91FF90EF9032
:10272000DF90CF90BF90AF909F908F907F906F90F1
:102730005F904F900895F7014281538164817581C4
:102740008091AE039091AF03A091B003B091B1031B
:10275000481759076A077B0709F400C28701085F19
:102760001F4F0E9435096F7077277C5FC8010E9458
:10277000F70F813009F0F7C18EE891E09A838983E1
:10278000F70182819381A481B5818B839C83AD8382
:10279000BE8345E350E0BE016F5F7F4FC8010E94DA
:1027A000A40B892B31F4D12CC12CC8010E94990CA7
:1027B000AACF0E943509F7017783668342E050E093
:1027C000B7016A5F7F4FC8010E94E60D81E090E08B
:1027D0009A83898342E050E0BE016F5F7F4FC8015A
:1027E0000E94E60D80E091E09A83898342E050E008
:1027F000BE016F5F7F4FC8010E94E60D1A821982E9
:1028000042E050E0BE016F5F7F4FC8010E94E60DBD
:1028100042E050E0BE016F5F7F4FC8010E94E60DAD
:1028200042E050E0BE016F5F7F4FC8010E94E60D9D
:102830005601F6018081882301F16501F60181913D
:102840002F01882311F08E32B1F446018A189B08BB
:102850001814190474F48D8641E050E0BE01635FE2
:102860007F4FC8010E94E60DA401B501C8010E9476
:10287000E60D5201DECF6201E1CF1D8641E050E05E
:10288000BE01635F7F4FC8010E94E60DC12CDD24AD
:10289000D394DA82C98242E050E0BE016F5F7F4F7D
:1028A000C8010E94E60DDA82C98242E050E0BE0112
:1028B0006F5F7F4FC8010E94E60DC8010E94CE0FD6
:1028C000892B09F470CFF3E0AF2EB12C230122E065
:1028D000420E511C43C0F7014281538164817581CE
:1028E000818D928DA38DB48D481759076A077B0798
:1028F00009F02AC1858D968DC59709F025C181A162
:1029000092A10C970CF425C14CE050E0BE016F5F22
:102910007F4FC8010E943D0F8B819C81982789279A
:1029200098279A8B898BF7014681578129813A81B3
:102930004217530711F497FD2FC0C8010E947C0B6A
:10294000ECEFCE2EDD24DA9481E0A81AB10809F468
:102950002CCFFFEFCF16DF0609F027CF0E943509F5
:102960003B014C01C8010E94DA12181619060CF43A
:10297000B2CF0E9435096619770988099909693823
:1029800073418105910508F0DBC062E370E080E0EF
:1029900090E00E940209E6CF8F709270892B41F07F
:1029A000C8010E947C0B7BEFC72EDD24DA94CCCFCC
:1029B0006F807884762467247624D12CC12C61140E
:1029C0007104D1F4C8010E947C0B6AEFC62EDD248D
:1029D000DA94BACF8D85811117C0C8010E945C0FAF
:1029E000C8010E945C0FC8010E945C0FC8010E94D0
:1029F0005C0FFFEFCF1ADF0A8D819E819827892710
:102A00009827C816D906A8F441E050E0BE01635FDC
:102A10007F4FC8010E943D0F8D858823D9F28D8597
:102A20009FEF980F9D878823A9F2C8010E945C0F31
:102A3000F6CF912C812C41E050E0BE016D5E7F4FBE
:102A4000C8010E943D0F8B89982F907C61F48823E8
:102A500089F08B899FEF980F9B8B882341F0C801E9
:102A60000E945C0FF6CFC8010E945C0F1B8A8B8905
:102A70008111E1CF42E050E0BE01615F7F4FC801AC
:102A80000E943D0F42E050E0BE01635F7F4FC801EE
:102A90000E943D0FC8010E945C0FC8010E945C0F9C
:102AA000C8010E945C0FC8010E945C0F42E050E028
:102AB000BE016F5E7F4FC8010E943D0F8F859889D0
:102AC00081159140E9F4CD84DE84DC24CD24DC241E
:102AD00081E0C816D104A1F489899A8981159440AE
:102AE00041F0C8010E947C0B57EFC52EDD24DA941B
:102AF0002BCF44E050E0B201C8010E943D0F24CF2B
:102B0000D12CC12C89899A89982789279827C8169A
:102B1000D90638F4C8010E945C0FFFEFCF1ADF0A14
:102B2000F1CF2FEF821A920A6814790409F083CF4B
:102B3000C8010E947C0B46EFC42EDD24DA9404CF3A
:102B4000CC24CA94DC2C00CF2EEFC22EDD24DA94E4
:102B5000FBCE9DEFC92EDD24DA94F6CE8EEFC82E83
:102B6000DD24DA94D0CDD12CC12CCDCDCF92DF9203
:102B7000EF92FF920F931F93CF93DF93CDB7DEB702
:102B8000AF970FB6F894DEBF0FBECDBF7C016A01D0
:102B90000EE811E01A8309831C861B8688EE93E0F9
:102BA000A0E0B0E08D879E87AF87B88B86E191E08B
:102BB0009A87898788E08D8B198F088F1A8E1B8ED4
:102BC0001C8E1D8E1BA70AA71CA61DA61EA61FA62F
:102BD00080919B0390919C03A0919D03B0919E03D3
:102BE0008EA39FA3A8A7B9A78B839C83AD83BE8325
:102BF00018861F82AE01465D5F4FCE0101960E948E
:102C00002D1381309105B1F4D701ED91FC91048829
:102C1000F589E02D1DA30CA38CA59DA5AEA5BFA590
:102C20008EA39FA3A8A7B9A7A601BE016C5D7F4F85
:102C3000C7010995AF960FB6F894DEBF0FBECDBFA2
:102C4000DF91CF911F910F91FF90EF90DF90CF9088
:102C50000895CF92DF92EF92FF920F931F93CF933D
:102C6000DF93CDB7DEB7AF970FB6F894DEBF0FBED8
:102C7000CDBF7C016A010EE811E01A8309831C862E
:102C80001B8688EE93E0A0E0B0E08D879E87AF873B
:102C9000B88B86E191E09A87898788E08D8B198FC0
:102CA000088F1A8E1B8E1C8E1D8E1BA70AA71CA6B2
:102CB0001DA61EA61FA680919B0390919C03A09128
:102CC0009D03B0919E038EA39FA3A8A7B9A78B8352
:102CD0009C83AD83BE8318861F82AE01465D5F4F25
:102CE000CE0101960E942D1381309105B1F4D701D8
:102CF000ED91FC910684F785E02D1DA30CA38CA516
:102D00009DA5AEA5BFA58EA39FA3A8A7B9A7A60101
:102D1000BE016C5D7F4FC7010995AF960FB6F89461
:102D2000DEBF0FBECDBFDF91CF911F910F91FF90FE
:102D3000EF90DF90CF9008950E943D34FB01019009
:102D40000020E9F73197AF01461B570BDC01ED91ED
:102D5000FC910280F381E02D09948F929F92AF92B3
:102D6000BF92EF92FF920F931F93CF93DF93CDB754
:102D7000DEB7A1970FB6F894DEBF0FBECDBF7C01C2
:102D8000FA01CB0119A2223008F42AE08E010F5D6E
:102D90001F4F822E912CB12CA12CBF01A5019401B3
:102DA0000E944F31F901CA016A300CF5605DD8010B
:102DB0006E938D01232B242B252B79F790E080E057
:102DC000109721F0BD01C7010E949E16A1960FB673
:102DD000F894DEBF0FBECDBFDF91CF911F910F9151
:102DE000FF90EF90BF90AF909F908F900895695C97
:102DF000DECF8F929F92AF92BF92CF92DF92EF92EF
:102E0000FF920F931F93CF93DF937C01EB016C0133
:102E100082E0C80ED11C4701E5E08E0E911C10E047
:102E200000E0F60141916F0150E070E060E02AE0BF
:102E3000CE010E94AD165C01E881F9810190F0811C
:102E4000E02D6EE2CE0109958A0D9B1D080F191F1A
:102E5000C814D90431F7F701458150E070E060E013
:102E60002AE0CE010E94AD16800F911FDF91CF9115
:102E70001F910F91FF90EF90DF90CF90BF90AF9098
:102E80009F908F90089560E971E00C949E16CF9307
:102E9000DF9362EE72E00E94F916EC0182EE92E09E
:102EA0000E9443178C0F9D1FDF91CF9108950F93C0
:102EB0001F93CF93DF93EC010E9421078C01CE0179
:102EC0000E944317800F911FDF91CF911F910F91A7
:102ED00008950F931F93CF93DF93EC010E942F0768
:102EE0008C01CE010E944317800F911FDF91CF917B
:102EF0001F910F910895FC0124813581232B31F41A
:102F000021E0FB01672B49F4822F08958081918194
:102F10006115710539F421E0FC0180818823A1F35A
:102F200020E0F2CF0E94583421E0892B69F3F8CFDA
:102F30007F928F929F92AF92BF92CF92DF92EF9249
:102F4000FF920F931F93CF93DF93CDB7DEB7A69772
:102F50000FB6F894DEBF0FBECDBF8C01762E942E37
:102F6000852E20E2A22ECE0101967C01DC01EA2D05
:102F70001D92EA95E9F76801FBE4CF0ED11C8EE8BB
:102F800091E09AA389A38FEF8BA38CA38DA38EA32B
:102F900043E450E0BE016F5D7F4FC6010E94A40B69
:102FA000019609F4BFC081E089838A8386E0B82E48
:102FB000BB821C82D80114966D917D918D919C915C
:102FC00017970E943A326D837E838F839887898614
:102FD0009A8680E890E09C878B874CE150E0B701AF
:102FE000C6010E94E60DFE0137968AE1DF011D92BF
:102FF0008A95E9F74801B8E08B0E911CF401D701DE
:1030000001900D92BA94E1F740E150E0B701C6019A
:103010000E94E60DF7011192AA94E9F796E0A92E15
:10302000B12C40E250E0B701C6010E94E60DF1E08C
:10303000AF1AB108B1F783E6898392E89A8393E5E2
:103040009B838C8385E38D8381E08E837F829DE3E8
:10305000988797E099878A8786E0F401DE011B96BE
:1030600001900D928A95E1F78CE0898B8A8B63E958
:1030700071E0CE0143960E946134D8011B966C9199
:10308000CE0149960E94F506F8016485CE014B9663
:103090000E94F506D8011D966C91CE014D960E94B6
:1030A000F5064EE150E0B701C6010E94E60DB3E01F
:1030B0007B121EC082E3898384E08A83F8019685AF
:1030C0009B8397859C8390899D8391899E8396E3BA
:1030D0009F838887868D8987878D8A8780A18B8744
:1030E00081A18C874CE050E0B701C6010E94E60D3B
:1030F00087E3898386E08A8391E09B8393E09C83C6
:103100008D838FE08E838AE38F838BE388878FEFB5
:10311000898749E050E0B701C6010E94E60DC6016B
:103120000E94CE0FA6960FB6F894DEBF0FBECDBF9D
:10313000DF91CF911F910F91FF90EF90DF90CF9093
:10314000BF90AF909F908F907F9008950F931F93A3
:10315000CF93DF93EC0188819981009759F02A8100
:103160003B812617370730F081E0DF91CF911F9127
:103170000F9108958B016F5F7F4F0E9480330097FE
:1031800059F0998388831B830A832C813D81232BEB
:1031900059F7FC011082E8CF80E0E7CFEF92FF9271
:1031A0000F931F93CF93DF936115710541F480E076
:1031B000DF91CF911F910F91FF90EF9008954115EE
:1031C0005105B1F07B01EC010C811D81040F151F2D
:1031D000B8010E94A618882351F3288139818C8177
:1031E0009D81B701820F931F0E9461341D830C8360
:1031F00081E0DECFCF93DF93EC01FB010190002053
:10320000E9F73197AF01461B570B0E94CE18811189
:1032100003C0CE010E94B412CE01DF91CF91089578
:10322000CF93DF93EC01FB01448155816081718173
:103230000E94CE18811103C0CE010E94B412CE01AB
:10324000DF91CF910895EF92FF920F931F93CF9349
:10325000DF93EC017B018A01BA010E94A61881115B
:103260000BC0CE010E94B412CE01DF91CF911F910D
:103270000F91FF90EF9008951D830C83B701888113
:1032800099810E946134F0CFFB0101900020E9F7A1
:103290003197AF01461B570B0C942319CF93DF9343
:1032A000EC01FB018617970749F060817181611578
:1032B000710541F0448155810E942319CE01DF91AF
:1032C000CF9108950E94B412F9CFFC0111821082AF
:1032D00013821282158214826115710551F0FB016F
:1032E00001900020E9F73197AF01461B570B0C9472
:1032F00023190895CF92DF92FF920F931F93CF93DC
:10330000DF9300D000D000D0CDB7DEB78C0162E9EA
:1033100071E0CE0101960E94651970E060E0C8017D
:103320000E9410078B3211F08D3281F5F8018481F3
:103330009581029728F06081718161157105F1F422
:103340001092BC026CEB72E0CE0101960E9444190F
:10335000CD80DE8010E000E0F12C0C151D0509F198
:10336000B801CE0101960E9410078E32A9F4F11027
:1033700016C0FF24F3940F5F1F4FEFCF6F5F7F4F97
:1033800019F7CE0101960E94B412E2CFB801CE0126
:1033900001960E944E19DCCF80538A3060F310E012
:1033A00001C011E0CE0101960E94C612812F26961F
:1033B0000FB6F894DEBF0FBECDBFDF91CF911F9146
:1033C0000F91FF90DF90CF9008952F923F924F92F0
:1033D0005F926F927F928F929F92AF92BF92DF9295
:1033E000EF92FF920F931F93CF93DF93CDB7DEB78A
:1033F000E4970FB6F894DEBF0FBECDBF7C014A0143
:103400005B0119010E9435092B013C018701055B15
:103410001F4FC8010E94DA12181619069CF00E946C
:103420003509641975098609970986169706A8064D
:10343000B90608F4C6C162E370E080E090E00E9443
:103440000209E7CF42E250E0BE016F5F7F4FC80143
:103450000E943D0F8981823009F0AEC1F801858953
:1034600096898334910509F0A7C16D817E818F8192
:1034700098850E943A322B013C01F1014082518231
:103480006282738246E050E0B701685F7F4FCE01F1
:103490004D960E944234892B99F4F70180819181E5
:1034A000A281B381481659066A067B0648F08481DA
:1034B0009581A681B78184159505A605B705E8F421
:1034C000C8010E947C0BD12C8D2DE4960FB6F89488
:1034D000DEBF0FBECDBFDF91CF911F910F91FF9047
:1034E000EF90DF90BF90AF909F908F907F906F9004
:1034F0005F904F903F902F90089589899A89AB896A
:10350000BC8986879787A08BB18B8EECA82EB12CB7
:10351000C8010E945C0FF1E0AF1AB108C9F7D12CC5
:10352000C7014E964C01F701E45AFF4FFAA7E9A7ED
:1035300040969CA78BA7F297FEA7EDA7089798AB9C
:103540008FA77097FAABE9AB1701F2E22F0E311C8F
:1035500040979CAB8BABF801818D928D18161906A4
:103560000CF02BC1C8010E945C0F8F30910509F44B
:10357000A8C08CF58330910509F46CC08CF40097D9
:1035800051F3019709F45BC0C8010E945C0FB82E8B
:10359000BA94FFEFBF16F9F2C8010E945C0FF8CF92
:1035A0008630910509F472C00C9771F7C8010E942A
:1035B0005C0F5C01BB24C50101960E945B32F701E0
:1035C000958B848BA501BC01C8010E94FF11F701F6
:1035D000848995898AC08633910509F48BC074F477
:1035E0008333910509F4CEC0C59771F6C8010E94D6
:1035F0005C0FC8010E945C0FD82EADCF8B339105B4
:1036000009F4AAC08F3F910509F4A5CFCA9709F024
:10361000BBCFC8010E945C0F44E050E06DA57EA5C1
:10362000C8010E943D0FF70162A573A584A595A569
:103630000E943A3262A773A784A795A78CCFC801CE
:103640000E945C0F44E050E06BA97CA9C8010E9475
:103650003D0F81CFC8010E945C0FA82E44E050E0CE
:1036600069A97AA9C8010E943D0F712C612C8A2D8D
:103670008450990B5C016A147B040CF06CCFC80178
:103680000E945C0F9FEF691A790AF5CFC8010E946A
:103690005C0FA82E44E050E0B101C8010E943D0F2C
:1036A000712C612CEA2DE450FF0B5F016A147B043E
:1036B0000CF051CFC8010E945C0FFFEF6F1A7F0A18
:1036C000F5CFC8010E945C0F5C01BB24C5010196C7
:1036D0000E945B32F701938B828BA501BC01C8016C
:1036E0000E94FF11F70182899389A80EB91EF50186
:1036F000108231CFC8010E945C0FB82EF701868D71
:10370000811109C0878D811106C080A1811103C07C
:1037100081A18823A1F0E9A5FAA5408051806280AB
:103720007380B401CE0183960E94CE128DA19EA11A
:10373000AFA1B8A584159505A605B70521F444E009
:1037400050E0B40183CFBA94FFEFBF1609F403CF62
:10375000C8010E945C0FF7CFC8010E945C0F44E0D3
:1037600050E06BA57CA5C8010E943D0FF70166A53E
:1037700077A580A991A90E943A3266A777A780AB66
:1037800091ABE9CEC8010E945C0F44E050E06FA508
:1037900078A9C8010E943D0FF70166A177A180A515
:1037A00091A50E943A3266A377A380A791A762AB46
:1037B00073AB84AB95ABCFCED12CC8010E947C0BF0
:1037C00083CEDD24DA9480CE2F923F924F925F9287
:1037D0006F927F928F929F92AF92BF92CF92DF9221
:1037E000EF92FF920F931F93CF93DF93CDB7DEB786
:1037F00029970FB6F894DEBF0FBECDBF8C010E9493
:10380000792B2FEC37E040E050E00E94E630DC01FD
:10381000CB010196A11DB11DF80184839583A68378
:10382000B78380839183A283B3835801FBE4AF0EF7
:10383000B11CC5010E94990C64E470E0C5010E94AE
:10384000F70F882309F438C10E9435092B013C0188
:1038500048018AE4880E911C180192E4290E311C5B
:1038600048EEC42E43E0D42EE12CF12CD801DE9694
:10387000B987A8871F821E82F40180818330A9F155
:1038800081115DC0F80184819581A681B78101967F
:10389000A11DB11D84839583A683B7830E9435093A
:1038A0006419750986099709A70196010E944F318D
:1038B000A90161E0C8010E94981781E0D4018C93AE
:1038C0008E819F810197C1F20E94350964197509A3
:1038D00086099709A885B9852D913D914D915C91F7
:1038E000261737074807590728F6C5010E94990C83
:1038F000F80184819581A681B7810196A11DB11D32
:1039000084839583A683B7838E819F8129960FB682
:10391000F894DEBF0FBECDBFDF91CF911F910F9105
:10392000FF90EF90DF90CF90BF90AF909F908F90DF
:103930007F906F905F904F903F902F9008958430CC
:10394000F9F4F80184819581A681B7810196A11DC2
:10395000B11D84839583A683B7830E9435096419BA
:10396000750986099709A70196010E944F31A9019F
:1039700063E0C8010E949817E2E0D401EC93A0CF65
:10398000813049F5D1014D915D916D917C919E0100
:103990002F5F3F4FC8010E94E5198D83823009F0E7
:1039A00084C089819A81AB81BC81F801848395832D
:1039B000A683B7830E94350964197509860997099A
:1039C000A70196010E944F31A90163E0C8010E943E
:1039D0009817ED81D2CF823009F072CFD1014D918D
:1039E0005D916D917C919E012F5F3F4FC8010E94B8
:1039F000E5198D83853009F052C083E0F40180839E
:103A0000F80186A197A1A0A5B1A5892B8A2B8B2BA4
:103A100041F484E893E0A0E0B0E086A397A3A0A7D8
:103A2000B1A7F80182A593A5A4A5B5A5892B8A2BDA
:103A30008B2B61F486A197A1A0A5B1A5B695A795FA
:103A40009795879582A793A7A4A7B5A7F80182A504
:103A500093A5A4A5B5A546A557A560A971A9452B11
:103A6000462B472B51F4AC01BD01440F551F661F77
:103A7000771F46A757A760AB71ABF80182AB93AB3A
:103A8000A4ABB5AB86A597A5A0A9B1A986AB97AB0A
:103A9000A0AFB1AF81E090E09F838E8311CF9D8175
:103AA000963019F4D4011C920BCFBD81BF3F09F0B1
:103AB00007CFF401108204CF1F821E8225CFAF9260
:103AC000BF92CF92DF92EF92FF920F931F93CF930B
:103AD000DF93CDB7DEB7C456D1090FB6F894DEBF79
:103AE0000FBECDBF6C01062F660F110BC8010E94DF
:103AF000D0309E012F5F3F4F79015901021B130BFC
:103B0000F501EE19FF09882349F0C8018A0D9B1DB4
:103B10000E94D030F50181935F01F2CFEE0DFF1DC1
:103B20001082B701C6010E946519C601CC59DF4F4A
:103B30000FB6F894DEBF0FBECDBFDF91CF911F91BE
:103B40000F91FF90EF90DF90CF90BF90AF900895CE
:103B5000CF92DF92EF92FF920F931F93CF93DF9359
:103B60007B01DB011496CD90DC90D0E0C0E0082F03
:103B7000880F110BCC15DD05D4F4F70184819581F4
:103B8000C817D90728F40190F081E02D309761F42F
:103B90001092BC02ECEBF2E06081C8018C0F9D1F1B
:103BA0000E94D8302196E6CFEC0FFD1FF5CF60E0E4
:103BB000C8018C0D9D1DDF91CF911F910F91FF903A
:103BC000EF90DF90CF900C94D8301F920F920FB6E9
:103BD0000F9211242F933F934F935F936F937F9393
:103BE0008F939F93AF93BF93EF93FF9382EE92E0F7
:103BF0000E94D107FF91EF91BF91AF919F918F915B
:103C00007F916F915F914F913F912F910F900FBED8
:103C10000F901F9018951F920F920FB60F921124BC
:103C20002F938F939F93EF93FF93E091F202F09184
:103C3000F3028081E091F802F091F90282FD1BC04D
:103C400090818091FB028F5F8F732091FC0282171D
:103C500041F0E091FB02F0E0EE51FD4F958F809333
:103C6000FB02FF91EF919F918F912F910F900FBECB
:103C70000F901F9018958081F4CF1F920F920FB66E
:103C80000F9211242F933F938F939F93AF93BF93E2
:103C90008091BE029091BF02A091C002B091C1027A
:103CA0003091BD0223E0230F2D3758F50196A11D59
:103CB000B11D2093BD028093BE029093BF02A093DA
:103CC000C002B093C1028091C2029091C302A09140
:103CD000C402B091C5020196A11DB11D8093C2021C
:103CE0009093C302A093C402B093C502BF91AF9159
:103CF0009F918F913F912F910F900FBE0F901F902A
:103D0000189526E8230F0296A11DB11DD2CFCF939F
:103D1000E2EEF2E01382128288EE93E0A0E0B0E0DF
:103D200084839583A683B7838EE691E09183808315
:103D300085EC90E09587848784EC90E09787868770
:103D400080EC90E0918B808B81EC90E0938B828B68
:103D500082EC90E0958B848B86EC90E0978B868B41
:103D6000118E128E138E148EEFE7F3E080E58083C0
:103D7000C1E0C183E1E8F3E08EE891E091838083C4
:103D80001282138214821582E7E8F3E09183808324
:103D90001282138214821582EDE8F3E0918380830E
:103DA0001282138214821582E3E9F3E09183808307
:103DB0001282138214821582E6EAF3E091838083F3
:103DC0001282138214821582E9E9F3E091838083E1
:103DD0001282138214821582138612862AE02487A7
:103DE000ECEAF3E0918380831282138214821582BD
:103DF000E2EBF3E0918380831282138214821582B6
:103E0000E5EEF3E09183808312821382148215829F
:103E100060E085E00E94AC08E0E8FDE0E491A7EDF9
:103E2000B3E0EC93ECE6FDE0E491F0E0EE0FFF1F71
:103E3000E35AF24F8591949112969C938E93119729
:103E40001B961C921B971D961C921D971C961C92EC
:103E50001C971A961C921A9719961C9219971896E5
:103E60001C92189717961C92179716961C921697E5
:103E700015961C92159714961C92149713961C92E3
:103E80001397E4ECF3E084EF96E0928B818BB6839A
:103E9000A5831482108289E08183C283C383EEEB01
:103EA000F3E01382128280E891E09183808380E5C1
:103EB00090E09583848362E971E088EB93E0CF9191
:103EC0000C946519CF93DF93CDB7DEB7C855D109F0
:103ED0000FB6F894DEBF0FBECDBF789484B5826074
:103EE00084BD84B5816084BD85B5826085BD85B59E
:103EF000816085BD80916E00816080936E0010921C
:103F00008100809181008260809381008091810096
:103F10008160809381008091800081608093800027
:103F20008091B10084608093B1008091B000816085
:103F30008093B00080917A00846080937A008091B1
:103F40007A00826080937A0080917A008160809309
:103F50007A0080917A00806880937A001092C10084
:103F60006AE0CE018F960E945F1D64E6CE018296C4
:103F70000E945F1D62E971E0CE018F960E947B175F
:103F8000811108C070E060E0CE018F960E947B171F
:103F9000882381F06AE971E0CE0101960E946519DB
:103FA000BE016F5F7F4F84E60E94A81DCE0101967F
:103FB0000E94C61262E971E0CE0182960E947B17D0
:103FC000811108C070E060E0CE0182960E947B17EC
:103FD000882381F06BE971E0CE0101960E9465199A
:103FE000BE016F5F7F4F8AE00E94A81DCE0101963F
:103FF0000E94C612E091C903F091CA031386158688
:1040000014861286118610861782168215821482F3
:1040100013821092C80301E0BE016F5F7F4F809151
:10402000C9039091CA030E943612882309F455C02F
:1040300067E0CE0101960E94410998858913ECCF73
:104040008091C403811128C08091C9039091CA0353
:104050000E94F309BE016F5F7F4F8091C903909169
:10406000CA030E94D40940E064EB8091C903909197
:10407000CA030E94A0098091C9039091CA030E94BB
:104080004D09182F8091C9039091CA030E94F3092A
:10409000111102C00093C4031091C50389818031BE
:1040A00011F40C94052BCE0101960E94770A81171A
:1040B00050F48091C5038093C5038091C8038F5F3E
:1040C0008093C803A9CF8981803111F48CE0F3CFAC
:1040D000CE0101960E94770AEECF61E086E00E9451
:1040E000AC0861E086E00E946008E091F202F09185
:1040F000F30282E08083E091EE02F091EF02108201
:10410000E091F002F091F10280E180831092FA02D6
:10411000E091F602F091F70286E08083E091F402EC
:10412000F091F502808180618083E091F402F0914A
:10413000F502808188608083E091F402F091F502BD
:10414000808180688083E091F402F091F5028081A3
:104150008F7D80830E94061260ED77E080E090E022
:104160000E9402098091A3039091A403009711F08B
:104170000E94F73286E690E00E945B3226E6DC0180
:104180001D922A95E9F7FC01E55BFF4F138212822D
:1041900048EE53E060E070E04483558366837783A4
:1041A00026E131E03183208328E024873F962EE802
:1041B00031E031832083128213821482158290931E
:1041C000A4038093A3031091A5031093C70268EE84
:1041D00073E080E090E00E94020961E0812F0E947C
:1041E000AC081FB7F8948091C602811127C0E1E79F
:1041F000FDE08491E5E8FDE09491E82FF0E0EE0F1A
:10420000FF1FE554FD4FA591B491EC91E92321F4F2
:1042100061E08AE00E94600861E08AE00E94AC08E8
:104220008CB580618CBD8CB580648CBD61E08DE007
:104230000E94AC0861E08BE00E94AC088091C6024D
:104240008F5F8093C6021FBF60E090E080E00E9415
:10425000010B482F406864E090E080E00E94520B20
:104260001CE0F8E0EF2EF12C42E0612F8EE190E0AF
:104270000E94520B42E0612F8FE190E00E94520BAE
:10428000B1E0EB1AF108105EE114F10469F726E0E1
:1042900030E042E051E064E089E090E00E94200BD1
:1042A0008EE891E09A8389831B821C821D821E8284
:1042B000CE0103960E94F7118091A3039091A4036D
:1042C000FC0116A217A210A611A612A613A614A6E8
:1042D00015A616A617A610AA11AA12AE13AE14AEF2
:1042E00015AEFE9640E65AEE60E070E040835183E2
:1042F00062837383349648E853E160E070E0408362
:10430000518362837383F49724E1DF011D922A9520
:10431000E9F726E0E2E0F1E0DC01189601900D9269
:104320002A95E1F7FC01E65BFF4F10820E94E41B37
:10433000019709F05CC06091A3037091A403625FD0
:104340007F4FCE0101960E94CE12CE0103960E94AD
:10435000F7116091A3037091A403665E7F4FCE01B5
:1043600001960E94CE1224E030E0AE014D5F5F4F17
:1043700064E081E090E00E94200B6091A3037091C3
:10438000A4036A5E7F4FCE0101960E94CE1224E004
:1043900030E0AE014D5F5F4F64E085E090E00E9449
:1043A000200B6091A3037091A4036E5D7F4FCE013B
:1043B00001960E94CE128B819C81AD81BE8180933B
:1043C0009B0390939C03A0939D03B0939E03E09165
:1043D000A303F091A403828993899093A00380930F
:1043E0009F03848995899093A2038093A1038EEB08
:1043F00093E00E94251063E073E082EE92E00E9459
:10440000691765EE72E082EE92E00E94691765EC32
:1044100072E082EE92E00E9469178EE891E09A8342
:1044200089831B821C821D821E8224E030E0AE0143
:104430004D5F5F4F60E08FE090E00E94CF0ACE01B9
:1044400001960E94471788E199E20FB6F894A89563
:10445000809360000FBE90936000CE0182960E9410
:10446000C612CE018F960E94C612A8950E943509E9
:104470000091DC021091DD022091DE023091DF021A
:10448000601B710B820B930B6031774281059105A4
:1044900028F4012B022B032B09F0B5C10E9435092A
:1044A0006093DC027093DD028093DE029093DF0262
:1044B0006DE37DE082EE92E00E9469178EE891E064
:1044C0009A8389831B821C821D821E8224E030E035
:1044D000AE014D5F5F4F60E08FE090E00E94CF0A39
:1044E000CE0101960E944717E091C903F091CA03DB
:1044F00013861586148612861186108617821682F8
:10450000158214821382BE016E5D7F4F8091C903B4
:104510009091CA030E9436128111F2C160E070E0EE
:104520008EEF92EC6093D8027093D9028093DA02F6
:104530009093DB026AE0CE018F960E945F1D64E6D5
:10454000CE0182960E945F1D8FA598A9812C912C87
:104550005401009721F00E94D12B4B015C018AA1EC
:104560009BA1C12CD12C7601009721F00E94D12B68
:104570006B017C012091D8023091D9024091DA027E
:104580005091DB02C501B4010E9480314B015C01F6
:10459000A70196010E941C3218160CF011C263E3A9
:1045A0007DE082EE92E00E94691760EA71E088EB9C
:1045B00093E00E94441960E086E00E946008009148
:1045C000A3031091A4030115110509F412C10E945F
:1045D00035094B015C01F80182AD93ADA4ADB5ADD9
:1045E00098012A5B3F4F7901892B8A2B8B2B09F489
:1045F00026C2F90180819181A281B381A501940134
:10460000281B390B4A0B5B0BCA01B90197FD4EC041
:1046100028EE33E040E050E00E94E63061966CAF57
:104620007DAF8EAF9FAF61972401350188EE480EB4
:1046300083E0581E611C711C61968CAD9DADAEADC2
:10464000BFAD6197481A590A6A0A7B0AD7014D9291
:104650005D926D927C921397BA01A9014F5F5F4FF3
:104660006F4F7F4FF80182A993A9A4A9B5A96A0148
:104670007B01CC0CDD1CEE1CFF1C8C159D05AE05D2
:10468000BF050CF0C7C112AA13AA14AA15AAF801F3
:1046900086A997A9A0ADB1AD8C159D05AE05BF0546
:1046A0000CF0C1C116AA17AA10AE11AE7801FAE437
:1046B000EF0EF11CD7018C91833009F0BDC1F801D8
:1046C00082A993A9A4A9B5A9181619061A061B064A
:1046D0000CF4B2C184E0D7018C93C8010E94E41BA2
:1046E0000196F7012081233011F0211119C0D80162
:1046F000D6964D915D916D917C91D99714161506C2
:10470000160617066CF0F701108284E1F8013E9658
:10471000DF011D928A95E9F7C8010E94E41B039608
:10472000D801DA968D929D92AD92BC92DD9782303F
:10473000910519F0049709F05CC06091A303709192
:10474000A403625F7F4FCE0101960E94CE12CE017C
:1047500003960E94F7116091A3037091A403665E13
:104760007F4FCE0101960E94CE1224E030E0AE01D0
:104770004D5F5F4F64E081E090E00E94200B60910C
:10478000A3037091A4036A5E7F4FCE0101960E943D
:10479000CE1224E030E0AE014D5F5F4F64E085E073
:1047A00090E00E94200B6091A3037091A4036E5DC2
:1047B0007F4FCE0101960E94CE128B819C81AD81EC
:1047C000BE8180939B0390939C03A0939D03B09321
:1047D0009E03E091A303F091A403828993899093AF
:1047E000A00380939F03848995899093A20380936B
:1047F000A1030E940612CE0182960E94C612CE012B
:104800008F960E94C6128EEB93E00E94870E08ECF2
:1048100012E0D12C8EE3E82E81E0F82E1C821B8260
:1048200028EE33E040E050E02D833E834F835887ED
:10483000FA82E982DD86D8012D913D918D0180912A
:10484000C2039091C3032817390709F00DC1CE01A7
:1048500001960E94180E873109F0FFC0CE01019623
:104860000E94A90D892B09F4FFC08B819C819DA317
:104870008CA38D819E81AF81B8858EA39FA3A8A7AD
:10488000B9A789859A85AB85BC858AA79BA7ACA764
:10489000BDA78EE391E09BA38AA38D858EA78EA5ED
:1048A000883009F4A2C6CE0182960E94220E882387
:1048B00009F49BC6CE0182960E94A90D892B99F31B
:1048C0002DB63EB662E971E0CE01895B9F4F0E9432
:1048D0006519CE0182960E94A40F97FDD9C08A3037
:1048E000910509F4D5C089831A8241E050E0BE01E8
:1048F0006F5F7F4FCE01895B9F4F0E94CE18E9CF3B
:1049000067E0CE0182960E94410999A5891306CEDF
:104910008091C9039091CA030E94F309882309F486
:10492000FDCDBE016F5F7F4FCE0182960E942B0AA4
:10493000882309F4F3CD68E0CE0101960E94410975
:1049400099858913EBCD6A8170E0762F6627770F02
:10495000770F770F2981E8E02E9F90011124262BF5
:10496000372B8AA18031D1F4688570E08F81AB014B
:10497000481B5109CA019695982F882797958795C6
:104980000E942632CB014097B90153E0660F771F92
:104990005A95E1F760789C01260F371F213854EEB5
:1049A00035070CF4BBCDB901330F880B990B0E946E
:1049B000B02F20E030E040E05CE30E940F30B2CD49
:1049C000C701B6019058A50194010E941C32181627
:1049D00074F468E27DE082EE92E00E94691763EA77
:1049E00071E088EB93E00E94441961E0E5CD66EB4D
:1049F0007CE082EE92E00E9469176DE97CE082EE35
:104A000092E00E942F0768EB73E082EE92E00E9432
:104A10005717D5CD841B950BA60BB70B82AB93AB69
:104A2000A4ABB5AB34CE841B950BA60BB70B86ABF2
:104A300097ABA0AFB1AF3ACE90E080E052CED501B7
:104A4000C40188519C4FAF4FBF4FF90180839183C0
:104A5000A283B38390E080E063CECE0101960E94F2
:104A6000180E8C3109F4FACED394B8E0DB12D6CE0E
:104A70001DA21CA228EE33E040E050E02EA33FA38D
:104A800048A759A78EE391E09BA38AA3DEA607CF90
:104A90002D960EAD1FAD2D97C80101964DB75EB78F
:104AA000481B590B0FB6F8945EBF0FBE4DBF8DB7B4
:104AB0009EB701967C010115110569F0015011099D
:104AC00029966EAD7FAD2997A8010E947634F70133
:104AD000E00FF11F108262E671E0C7010E94D52B42
:104AE00062E671E090E080E00E94D52B8C01BC0171
:104AF000CE0101960E94651967EA71E0CE01019628
:104B00000E947B17F82ECE0101960E94C612FF204C
:104B100009F4EEC20E94350920E03CE546E255E08A
:104B20000E944F3161962CAF3DAF4EAF5FAF6197A2
:104B30000E94350920E03CE546E255E00E944F31F5
:104B400020E83EEE46E350E00E944F3165962CAFE0
:104B50003DAF4EAF5FAF65970E94350920E03CE561
:104B600046E255E00E944F3120E83EEE46E350E039
:104B70000E944F3120E63AEE40E050E00E944F3173
:104B800069962CAF3DAF4EAF5FAF69970E94350974
:104B900020E03CE546E255E00E944F3120E83EEE41
:104BA00046E350E00E944F3120E63AEE40E050E00C
:104BB0000E944F3128EE33E040E050E00E944F3138
:104BC00049015A016DE87CE0CE0182960E94691786
:104BD00065E77CE0CE0182960E946917CE0182963D
:104BE0000E94431765E67CE0CE0182960E94691719
:104BF0006EE57CE0CE0182960E94691767E57CE055
:104C0000CE0182960E94691767E37CE0CE0182960E
:104C10000E94691766E17CE0CE0182960E946917C6
:104C20006EEB7BE0CE0182960E94691765E67BE021
:104C3000CE0182960E94691763E17BE0CE018296E5
:104C40000E94691765E07BE0CE0182960E94691799
:104C500066EC7AE0CE0182960E9469176CEB7AE0EE
:104C6000CE0182960E94691765EA7AE0CE018296AB
:104C70000E94691765E77AE0CE0182960E94691763
:104C800069E47AE0CE0182960E94691764E07AE0D6
:104C9000CE0182960E9469176FE979E0CE01829673
:104CA0000E9469176FE779E0CE0182960E9469172A
:104CB0006CE679E0CE0182960E94691760E479E0A3
:104CC000CE0182960E9469176DE279E0CE0182964C
:104CD0000E9469176FE079E0CE0182960E94691701
:104CE00060ED78E0CE0182960E94691767EC78E06B
:104CF000CE0182960E94691764E778E0CE01829621
:104D00000E94691762E778E0CE0182960E946917D7
:104D100063E678E0CE0182960E94691769E578E043
:104D2000CE0182960E9469176FE478E0CE018296E8
:104D30000E9469176CE178E0CE0182960E946917A3
:104D400064E178E0CE0182960E9469176DE078E018
:104D5000CE0182960E94691767EC77E0CE018296B9
:104D60000E9469176DE977E0CE0182960E9469176B
:104D70006AE0CE0101960E945F1D69EA71E0CE01F2
:104D80008F960E946519BE016F5F7F4FCE018F968F
:104D90000E94101969EF71E00E94FA18BC01CE015F
:104DA00082960E945717CE018F960E94C612CE019E
:104DB00001960E94C61264E6CE0101960E945F1D14
:104DC0006FEF71E0CE018F960E946519BE016F5F93
:104DD0007F4FCE018F960E94101969EF71E00E94FB
:104DE000FA18BC01CE0182960E945717CE018F9609
:104DF0000E94C612CE0101960E94C61262E677E0BA
:104E0000CE0182960E94691766E577E0CE01829610
:104E10000E94691760EA71E088EB93E00E947B17BB
:104E2000882331F069E277E0CE0182960E9469170B
:104E300063EA71E088EB93E00E947B17882331F0EE
:104E40006DEF76E0CE0182960E94691762EE76E001
:104E5000CE0182960E94691769EB76E0CE018296B8
:104E60000E942F07C090D802D090D902E090DA02B9
:104E7000F090DB02A7019601C701B6010E94213222
:104E800069E472E081111BC026013701E89477F8CC
:104E90002FEF3FEF4FE75FE7C301B2010E942132DE
:104EA0008111A8C02FEF3FEF4FE75FE7C301B201C9
:104EB0000E94A92F18160CF09DC06DE472E0CE017F
:104EC00082960E949E1664EB76E0CE0182960E9446
:104ED00069176FEA76E0CE0182960E942F076FE98C
:104EE00076E0CE0182960E942F072AE061964CADB3
:104EF0005DAD6EAD7FAD6197CE0182960E94AD161D
:104F00006DE976E0CE0182960E942F076BE976E08C
:104F1000CE0182960E942F072AE065964CAD5DADCA
:104F20006EAD7FAD6597CE0182960E94AD1669E9A0
:104F300076E0CE0182960E942F0767E976E0CE01E7
:104F400082960E942F072AE069964CAD5DAD6EAD4A
:104F50007FAD6997CE0182960E94AD1665E976E035
:104F6000CE0182960E942F0763E976E0CE018296F9
:104F70000E942F072AE0B501A401CE0182960E946B
:104F8000AD1661E976E0CE0182960E942F0760E2BD
:104F900076E0CE0182960E9469176DEE75E0CE0133
:104FA00082960E94691763EE75E0CE0182960E9498
:104FB00069176BED75E0CE0182960E94691763ED6B
:104FC00075E0CE0182960E94691761E070E080E092
:104FD00090E00E940209CE0182960E94450ECE0109
:104FE000895B9F4F0E94C6120FB6F8943EBE0FBE5B
:104FF0002DBE59CC2FEF3FEF4FE75FE4C701B6015D
:105000000E941C3218161CF461E572E058CF2FEF95
:105010003FEF4FE75FECC701B6010E94A92F87FD64
:10502000F3CF20E030E0A901C701B6010E94A92F0B
:1050300087FF09C06DE2CE0182960E941F0CF7FA2D
:10504000F094F7F8F0942AE037ED43EA5BE3C70108
:10505000B6010E9481312B013C010E94ED316B01B0
:105060007C010E94AE2F9B01AC01C301B2010E94E2
:1050700080312B013C012AE0B701A601CE018296C6
:105080000E94AD166EE2CE0182960E941F0C20E0B7
:1050900030E040E251E4C301B2010E940F302B0125
:1050A0003C010E94ED316B01F12CE12C2AE0B701AB
:1050B000A601CE0182960E94AD16C701B6010E94DC
:1050C000AE2F9B01AC01C301B2010E94803120E0F0
:1050D00030E040E251E40E940F300E94ED31AB011C
:1050E00070E060E02AE0CE0182960E94AD16EBCE21
:1050F000B801CE0101960E94651965E572E0CE0106
:1051000001960E947B17F82ECE0101960E94C612CE
:10511000FF2009F483C063EC75E0CE0182960E9403
:10512000691764EA75E0CE0182960E946917CE0184
:1051300082960E94431762EA75E0CE0182960E9431
:10514000691764E975E0CE0182960E942F0764E634
:10515000CE0101960E945F1DBE016F5F7F4FCE01A1
:1051600082960E942107CE0101960E94C61262E932
:1051700075E0CE0182960E9469176CE775E0CE015A
:1051800082960E942F076AE0CE0101960E945F1D61
:10519000BE016F5F7F4FCE0182960E942107CE0134
:1051A00001960E94C6126AE775E0CE0182960E94BF
:1051B000691764E675E0CE0182960E942F07609120
:1051C000D8027091D9028091DA029091DB0218AA7C
:1051D0001FA61AAA19AA1CAA1BAA8E010F5F1F4F8D
:1051E00022E044E00E940F2B009799F0BC01CE0111
:1051F0008F960E944419BE01615D7F4FCE01829659
:105200000E945717CE018F960E94C61262E675E083
:10521000D8CECE018F960E94B412EDCFB801CE0148
:1052200001960E94651964E672E0CE0101960E9423
:105230007B17F82ECE0101960E94C612F110CBCE3C
:10524000B801CE018F5B9F4F0E94651961E772E044
:10525000CE0101960E9465194D815E8127968EAD23
:105260009FAD27978417950790F023968EAD9FAD3D
:105270002397009761F069817A816115710539F092
:105280000E946834FF24F394892B09F0F12CCE019D
:1052900001960E94C612FF2009F492C160E671E0F7
:1052A000C8010E94D52B009729F0BC0182EE92E044
:1052B0000E949E1682EE92E00E94431760E671E023
:1052C00090E080E00E94D52B6EE571E00E94D52B26
:1052D0007C016EE571E090E080E00E94D52B8C01AE
:1052E0006CE571E0C7010E94D52B6CE571E090E0A0
:1052F00080E00E94D52B7C016CE571E0C8010E9422
:10530000D52B6CE571E090E080E00E94D52B8C01FC
:10531000B701CE01CB960E946519B801CE01C596A2
:105320000E9465191A8219821C821B821E821D82AC
:10533000BE01655C7F4FCE0101960E944E19CE01E1
:1053400001960E947A19D82ECE0101960E94C612AB
:10535000DD2009F4E0C0B701CE0101960E94651975
:10536000BE016F5F7F4F8AE00E94A81DCE010196AB
:105370000E94C6121A8219821C821B821E821D8202
:10538000BE016B5C7F4FCE0101960E944E19CE018B
:1053900001960E947A19D82ECE0101960E94C6125B
:1053A000DD2009F4BFC0B801CE0101960E94651945
:1053B000BE016F5F7F4F84E60E94A81DCE0101965B
:1053C0000E94C6126BED74E0CE0182960E946917AE
:1053D00063EC74E0CE0182960E946917CE0182963A
:1053E0000E94431763EB74E0CE0182960E94691716
:1053F0006CEA74E0CE0182960E94691765EA74E057
:10540000CE0182960E9469176EE874E0CE01829602
:105410000E9469176DE574E0CE0182960E946917BB
:105420006AE274E0CE0182960E94691762E274E03B
:10543000CE0182960E9469176BE174E0CE018296DC
:105440000E94691764EE73E0CE0182960E9469178C
:105450001A8219821C821B821E821D82BE016B5C15
:105460007F4FCE0101960E944E19CE0101960E94F7
:105470007A19DD24D3948823C1F018AA1FA61AAA8A
:1054800019AA1CAA1BAABE016B5C7F4FCE018F9686
:105490000E944E19CE018F960E947A19DD24D39472
:1054A000D826CE018F960E94C612CE0101960E9488
:1054B000C612DD20F1F16AE773E0CE0182960E9408
:1054C00069176EE473E0CE0182960E94691766E464
:1054D00073E0CE0182960E9469176EE373E0CE01FD
:1054E00082960E94691761E070E080E090E00E947F
:1054F0000209CE0182960E94450ECE01C5960E94F9
:10550000C612CE01CB960E94C612CE018F5B9F4F72
:105510000E94C61264CD63E275E082EE92E00E94C2
:10552000691728CF6BEE74E082EE92E00E94691753
:1055300049CFB701CE0101960E9465196EE772E06E
:10554000CE018F960E946519BE016F5F7F4FCE011D
:105550008F960E9410196EE972E00E94FA18BC0141
:10556000CE0182960E945717CE018F960E94C612D6
:10557000CE0101960E94C612B801CE0101960E948A
:10558000651964EA72E0CE018F960E946519BE012A
:105590006F5F7F4FCE018F960E9410196EE972E007
:1055A0000E94FA18BC01CE0182960E945717CE01C4
:1055B0008F960E94C612CE0101960E94C61281CF1C
:1055C00067E273E0CE0182960E946917CE0182964F
:1055D0000E94431761E070E080E090E00E940209C1
:1055E000CE0182960E94450E90CF80E090E0892BFC
:1055F00011F40C9435220E94BD07882311F40C94F9
:1056000035220E9400000C9435221D3010F00C94BD
:1056100059200C94662088EB93E00C94C612EF920C
:105620000F931F93CF93DF93E80134E047FD34E1FC
:10563000042E000C550B57FF03C05195419551099D
:10564000E32E022F242FAE010E94012CCE01DF9108
:10565000CF911F910F91EF9008958F929F92AF92EB
:10566000BF92CF92DF92EF92FF92CF93DF93EC0144
:10567000688179818A819B81611571058105910518
:1056800021F464E279ED8BE597E02DE133EF41E021
:1056900050E00E94E63049015A019B01AC01A7EAA3
:1056A000B1E40E9405316B017C01ACEEB4EFA501C1
:1056B00094010E941331C60ED71EE81EF91EF7FE94
:1056C00006C081E0C81AD108E10880E8F80AC8825B
:1056D000D982EA82FB82C701B6019F77DF91CF9121
:1056E000FF90EF90DF90CF90BF90AF909F908F9002
:1056F00008958F929F92AF92BF92CF92DF92EF92D6
:10570000FF92609108017091090180910A019091C6
:105710000B01611571058105910521F464E279EDB4
:105720008BE597E02DE133EF41E050E00E94E63059
:1057300049015A019B01AC01A7EAB1E40E9405317D
:105740006B017C01ACEEB4EFA50194010E94133112
:10575000C60ED71EE81EF91EF7FE06C081E0C81A65
:10576000D108E10880E8F80AC0920801D092090146
:10577000E0920A01F0920B01C701B6019F77FF90FA
:10578000EF90DF90CF90BF90AF909F908F90089553
:10579000609308017093090180930A0190930B01B3
:1057A0000895662777270C94602D4BEE53E00E94F6
:1057B000DA2B0895FA01A191B081009719F410979E
:1057C000E1F0CD01DC01CD010D90002011F4C0010C
:1057D00013C0FB012191222319F02015D9F7F3CF33
:1057E000FB012191201519F41E92119606C0222367
:1057F000C1F70D900020A1F7D001FA01A193B08369
:105800000895A9E0B0E0E7E0FCE20C941E316A01E3
:10581000F22EB02E102FFBE3AF2EA01608F41BE3E0
:105820001F5F012F27E0AE014F5F5F4F0E94B02E38
:10583000BC018981982F9970913009F43FC09BE297
:10584000E1FC04C09E2D9170E0FC3AC05E2D5071C9
:10585000E82FE87083FF46C084E0911101C083E027
:10586000EF2DE81B8F1508F0E0E0D6018E2F20E227
:10587000552351F1992329F0D6019C93C601019635
:105880006C0196012D5F3F4FE2FE24C08EE4D601ED
:105890008C9391E411969C93119712968C93D90155
:1058A0008E2F90E281111BC0E20FF32FF11D1082A9
:1058B0008EEF9FEF2996ECE00C943A319DE2C6CF33
:1058C00090E2C4CF2D9381508111FCCFCE0ED11C1C
:1058D000E0E0D0CF8EE6D6018C9391E6DBCF9D93AE
:1058E0008150E0CF482F447082FF3DC084E0911189
:1058F00001C083E08F1510F4EF2DE81BD6018E2F29
:1059000020E2552309F1992329F0D6019C93C60181
:1059100001966C0196012D5F3F4FE2FE1BC089E4AA
:10592000D6018C938EE411968C93119786E412968F
:105930008C93D9018E2F90E2882309F4B5CF9D93E3
:105940008150FACF2D9381508111FCCFCE0ED11C06
:10595000E0E0D9CF89E6D6018C938EE611968C9340
:10596000119786E6E4CF9B0177FF02C030E020E08C
:10597000A1E0B0E0911102C0B0E0A0E0F9013196E1
:10598000AE0FBF1F8B2C912CBB2009F461C05401BA
:10599000EFEFAE1ABE0AAA0DBB1DFA161B0619F0D0
:1059A00014F04F2D4A1B511188C0E3FC59C07601F9
:1059B000A42FB0E2A1114FC0C40ED11C992309F449
:1059C0005BC040E0D6011196F60190836D0155232E
:1059D00009F448C0012F060F9A81582F507184FF97
:1059E00003C0913309F4015010160CF047C0093080
:1059F00008F008E0EEE2FE2E5B01A01AB108850176
:105A00009194819491082F3F320729F4D601FC929A
:105A1000F60131966F016217730794F102171307AD
:105A20007CF5DB01A21BB30BAA24A394B12CAC0E12
:105A3000BD1EAA0DBB1D11968C9121503109D601B6
:105A4000119628153905F4F0F60180836D01DBCF3E
:105A5000B12CA12CA0CFF701B1937F01A150AACF07
:105A60009111B0CFD601942F50E302C05D939150B5
:105A70009111FCCFC40ED11C40E0ACCF01E0BACFF5
:105A800080E3DBCF6217730731F4963388F49533E4
:105A900011F4552369F0F6018083FD01842F90E213
:105AA000811108C0A40FB11D1C9290E080E002CFCC
:105AB00081E3F1CF91938150F3CF911183CF8ACFBE
:105AC000B0E0A0E0E6E6FDE20C941E315C017B0153
:105AD0006115710519F0DB018D939C9385010F5FB2
