:100000000C94CA060C94F2060C94F2060C94F206B8
:100010000C94F2060C94F2060C94F2060C94F20680
:100020000C94F2060C94F2060C94F2060C94F20670
:100030000C94F2060C94F2060C94F2060C94F20660
:100040000C94B21F0C94F2060C94801F0C945A1F4F
:100050000C94F2060C94F2060C94F2060C94F20640
:100060000C94F2060C94F2064E414E494E495459F6
:10007000494E46CDCCCC3D0AD7233C17B7D1387773
:10008000CC2B329595E6241FB14F0A000020410089
:1000900000C84200401C4620BCBE4CCA1B0E5AAED3
:1000A000C59D7400407A10F35A00A0724E180900E2
:1000B00010A5D4E80000E87648170000E40B5402CD
:1000C0000000CA9A3B000000E1F505000080969808
:1000D00000000040420F000000A086010000001058
:1000E0002700000000E8030000000064000000009A
:1000F000000A00000000000100000000002C76D87B
:1001000088DC674F0823DFC1DFAE59E1B1B796E560
:10011000E3E453C63AE651997696E8E6C28426EBC4
:10012000898C9B62ED407C6FFCEFBC9C9F40F2BAD7
:10013000A56FA5F490055A2AF75C936B6CF9676D6F
:10014000C11BFCE0E40D47FEF520E6B500D0ED90C4
:100150002E0300943577050080841E080000204E91
:100160000A000000C80C333333330F986E1283112A
:1001700041EF8D2114893BE65516CFFEE6DB18D101
:10018000844B381BF77C1D901DA4BBE424203284D3
:10019000725E228100C9F124ECA1E53D27005EBC1E
:1001A000E2613FDD83C29C7E20A3FD1F419DC321F0
:1001B0007FFCA2401E5F01E3BD3E6082DC237D9F89
:1001C000C1421CFEA0E1BF5D0380DE3C62BEE002D6
:1001D0005CDF81633D7C22C09E1D43A1FF4618FA6F
:1001E000A427799BC584DA3866E5BB5907DB8567A8
:1001F00039BAE406581947A5FB7826C49A653BD955
:1002000087045AB8E6A7F91B45C6987A24F8A6448D
:100210001A99C7257B3A6486D85B05E7B98CD2303A
:100220006EEDB3510F4E10F2AC2F7193CD114FAD57
:10023000F3702ECC92D38D6F31B2EC0E50AFF11320
:100240004DCE90722C6D33D18F0C52B0EE326C8E3D
:10025000D0530DEFB1F0AE4C1291CF2D73CA9476FE
:1002600028ABF517490856B4EA6937D58B5709EB1F
:10027000B536688AD495CB2977F4AA4816E9B755DC
:100280000B88D6346A2B7597C94A14F6A8742AC805
:1002900096154BA9F7B6E80A54D7896B35000000CC
:1002A0000800020100000304070000000000000035
:1002B0000045746865726E657420746865726D6F50
:1002C0007374617420495020616464726573733A79
:1002D000004275696C6420312E302E342066726FB6
:1002E0006D2031382E205365702032303231005766
:1002F0006562617070206372656174656420627903
:100300003A204D617274696E2043686C65626F7645
:10031000656300485454502F312E3120343034203E
:100320004E6F7420466F756E64003C2F68746D6C60
:100330003E003C2F626F64793E003C623E52656431
:100340006972656374696E67202E2E2E20506C656D
:1003500061736520776169743C2F623E3C2F636551
:100360006E7465723E003C68333E3C666F6E74206E
:10037000636F6C6F723D27726564273E5468652019
:100380006461746120656E746572656420697320B0
:100390006E6F742061206E756D626572212121205F
:1003A000506C656173652074727920616761696E54
:1003B0002061667465722072656469726563746930
:1003C0006E672E3C2F666F6E743E3C2F68333E0086
:1003D0003C63656E7465723E3C68333E536572766D
:1003E0006572207265636569766564206461746115
:1003F000732066726F6D2048544D4C20666F726D8D
:100400003A3C2F68333E003C626F64793E003C2FDB
:10041000686561643E003C7469746C653E48545480
:100420005020776562736572766572202D20417267
:100430006475696E6F202B2045746865726E6574F3
:100440003C2F7469746C653E003C6D657461206876
:100450007474702D65717569763D27526566726595
:1004600073682720636F6E74656E743D27353B207B
:1004700075726C3D2F27202F3E003C6D6574612006
:10048000636861727365743D277574662D38273E05
:10049000003C686561643E003C68746D6C3E003CE5
:1004A00021444F43545950452068746D6C3E0043BD
:1004B0006F6E74656E742D547970653A207465782A
:1004C000742F68746D6C00485454502F312E3120B5
:1004D000323030204F4B005573657220696E707555
:1004E0007420666F72206B657920666E616D65326F
:1004F000202848797374657265736973292069735C
:10050000206E6F742061206E756D626572210055DA
:1005100073657220696E70757420666F72206B65EA
:100520007920666E616D652028546172676574205C
:1005300074656D70657261747572652920697320C8
:100540006E6F742061206E756D62657221007D0092
:100550002241637475616C5F54656D70657261747E
:10056000757265223A002C00225461726765745FCF
:1005700054656D7065726174757265223A002C0065
:100580002248797374657265736973223A007B003F
:10059000436F6E74656E742D547970653A20617086
:1005A000706C69636174696F6E2F6A736F6E004857
:1005B0005454502F312E3120323030204F4B003CDC
:1005C0002F68746D6C3E003C2F626F64793E003C76
:1005D0002F63656E7465723E003C68343E467265FA
:1005E000652076657273696F6E202D20312E302E56
:1005F00034206275696C643A2031382E205365705E
:100600002E20323032313C2F68343E003C68333E7D
:10061000417574686F723A204D617274696E20433F
:10062000686C65626F766563202D206D61727469F8
:100630006E697573393640676D61696C2E636F6DD5
:10064000202D2068747470733A2F2F6D6172746955
:100650006E69757339362E6769746875622E696FB5
:100660002F7465726D6F737461742D657468657233
:100670006E65742F656E2F3C2F68333E007300202B
:10068000006D0020006800200064003C623E557050
:1006900074696D653A203C2F623E003C68723E00F2
:1006A00020C2B043003C623E41637475616C2074AB
:1006B000656D70657261747572652066726F6D200C
:1006C000445331384232303A3C2F623E20003C6481
:1006D00069762069643D22636F756E74646F776E0E
:1006E000223E3C2F6469763E003C623E3C666F6E63
:1006F0007420636F6C6F723D27726564273E4F757F
:10070000747075743A204F46463C2F666F6E743E87
:100710003C2F623E003C623E3C666F6E7420636F0D
:100720006C6F723D27677265656E273E4F757470FA
:1007300075743A204F4E3C2F666F6E743E3C2F62AC
:100740003E003C2F666F726D3E3C68723E003C6915
:100750006E70757420747970653D277375626D696C
:10076000742720636C6173733D2762746E2062741A
:100770006E2D73756363657373272076616C756581
:100780003D2753656E64273E003C666F726D2061A5
:100790006374696F6E3D272F616374696F6E2E6895
:1007A000746D6C27206D6574686F643D2767657490
:1007B000273E003C63656E7465723E3C68333E457F
:1007C0006E746572206461746120666F7220776553
:1007D00062736572766572202877696C6C20626539
:1007E0002073746F72656420696E20454550524FC6
:1007F0004D293A3C2F68333E003C626F64793E00DD
:100800003C2F686561643E003C7469746C653E48C9
:1008100054545020776562736572766572202D207E
:1008200041726475696E6F202B2045746865726E25
:1008300065743C2F7469746C653E003C2F73637261
:100840006970743E007D2C2031303030293B0074BB
:10085000696D656C656674202D3D20313B007D001F
:10086000646F63756D656E742E676574456C656D38
:10087000656E74427949642822636F756E74646F83
:10088000776E22292E696E6E657248544D4C203D5C
:100890002074696D656C656674202B202220736559
:1008A000636F6E647320746F20726566726573681F
:1008B000223B007D20656C7365207B00646F63754F
:1008C0006D656E742E676574456C656D656E7442FA
:1008D0007949642822636F756E74646F776E22297C
:1008E0002E696E6E657248544D4C203D2022526533
:1008F00066726573682E2E2E223B00636C656172F2
:10090000496E74657276616C28646F776E6C6F6186
:100910006454696D6572293B0069662874696D6568
:100920006C656674203C3D2030297B007661722026
:10093000646F776E6C6F616454696D6572203D20E1
:10094000736574496E74657276616C2866756E6342
:1009500074696F6E28297B007661722074696D65F9
:100960006C656674203D2033303B003C73637269D4
:10097000707420747970653D27746578742F6A618E
:100980007661736372697074273E003C6C696E6BAC
:100990002072656C3D277374796C65736865657446
:1009A0002720687265663D2768747470733A2F2F2C
:1009B0006D617863646E2E626F6F747374726170B0
:1009C00063646E2E636F6D2F626F6F7473747261E8
:1009D000702F332E342E312F6373732F626F6F7429
:1009E00073747261702E6D696E2E637373273E008F
:1009F0003C6D657461206E616D653D277669657734
:100A0000706F72742720636F6E74656E743D277704
:100A1000696474683D6465766963652D776964749B
:100A2000682C20696E697469616C2D7363616C65F3
:100A30003D31273E003C6D65746120687474702DF3
:100A400065717569763D2752656672657368272002
:100A5000636F6E74656E743D273330273B202F3EE5
:100A6000003C6D657461206E616D653D2761757434
:100A7000686F722720636F6E74656E743D274D61D9
:100A80007274696E2043686C65626F766563273E99
:100A9000003C6D65746120636861727365743D2705
:100AA0007574662D38273E003C2F7363726970742D
:100AB0003E00736D6172746C6F6F6B2827696E698D
:100AC00074272C2027646235306566653966666652
:100AD00032383061313764623532623832626532C1
:100AE0003231323430636262643364626527293B99
:100AF000007D2928646F63756D656E74293B006302
:100B00002E636861727365743D277574662D38278E
:100B10003B632E7372633D2768747470733A2F2F92
:100B20007265632E736D6172746C6F6F6B2E636F81
:100B30006D2F7265636F726465722E6A73273B68EE
:100B40002E617070656E644368696C642863293B2C
:100B50000076617220633D642E6372656174654541
:100B60006C656D656E7428277363726970742729CC
:100B70003B6F2E6170693D6E6577204172726179BD
:100B800028293B632E6173796E633D747275653BF2
:100B9000632E747970653D27746578742F6A617669
:100BA00061736372697074273B00766172206F3DD8
:100BB000736D6172746C6F6F6B3D66756E63746993
:100BC0006F6E28297B206F2E6170692E7075736897
:100BD00028617267756D656E7473297D2C683D643C
:100BE0002E676574456C656D656E747342795461EA
:100BF000674E616D6528276865616427295B305DF4
:100C00003B0077696E646F772E736D6172746C6FE1
:100C10006F6B7C7C2866756E6374696F6E286429BF
:100C2000207B003C73637269707420747970653D39
:100C300027746578742F6A61766173637269707462
:100C4000273E003C686561643E003C68746D6C3E04
:100C5000003C21444F43545950452068746D6C3E0C
:100C600000436F6E74656E742D547970653A20740C
:100C70006578742F68746D6C00485454502F312E71
:100C80003120323030204F4B0041637475616C204D
:100C90007374617465206F66206F75747075743A33
:100CA0002000446966666572656E636520626574DE
:100CB0007765656E2074617267657420616E64206B
:100CC00061637475616C2074656D70206973206E4A
:100CD0006F742061626F7665206F722062656C6F41
:100CE00077207468652068797374657265736973B9
:100CF0002E20546865206F7574707574207374614C
:100D0000746520646F6573206E6F74206368616E14
:100D100067652E004F7574707574206F6666004F9E
:100D20007574707574206F6E0045746865726E65B9
:100D30007420746865726D6F7374617420495020FB
:100D4000616464726573733A000000000025002836
:100D5000002B0000000000240027002A00000000F3
:100D600000230026002900040404040404040402EF
:100D70000202020202030303030303010204081038
:100D80002040800102040810200102040810200005
:100D9000FC1FC02911241FBECFEFD8E0DEBFCDBF9E
:100DA00012E0A0E0B1E0E4EDF4E602C005900D929F
:100DB000AC3CB107D9F724E0ACECB2E001C01D9225
:100DC000A731B207E1F716E0C9ECD6E004C02197DD
:100DD000FE010E943830C83CD107C9F70E94D420D8
:100DE0000C945D320C9400008CBD9DBD0895FC01F7
:100DF000818D928D08950895FC01248135816217BB
:100E0000730748F480819181009729F0860F971F1E
:100E1000FC018081089580E00895DB0114964D91D6
:100E20005C9115976D917C91DC01ED91FC910280B4
:100E3000F381E02D0994EF92FF920F931F93CF93CC
:100E4000DF938C017B01D0E0C0E0F701EC0FFD1FC8
:100E50006491662361F0D801ED91FC910190F081DD
:100E6000E02DC8010995892B11F02196EECFCE0116
:100E7000DF91CF911F910F91FF90EF900895AF9266
:100E8000BF92CF92DF92EF92FF920F931F93CF9377
:100E9000DF936C017B018B01040F151FEB015E01D9
:100EA000AE18BF08C017D10759F06991D601ED916E
:100EB000FC910190F081E02DC6010995892B79F70D
:100EC000C501DF91CF911F910F91FF90EF90DF90BF
:100ED000CF90BF90AF900895FC01538D448D252F86
:100EE00030E0842F90E0821B930B541710F0CF96C4
:100EF000089501970895FC01918D828D981761F0F6
:100F0000A28DAE0FBF2FB11D5D968C91928D9F5F0C
:100F10009F73928F90E008958FEF9FEF0895FC01EB
:100F2000918D828D981731F0828DE80FF11D858D9E
:100F300090E008958FEF9FEF0895FC01918D228D31
:100F4000892F90E0805C9F4F821B91098F739927B6
:100F5000089589E093E00E949D0721E0892B09F420
:100F600020E0822F089580E090E0892B29F00E94F4
:100F7000A90781110C9400000895FC01A48DA80F0D
:100F8000B92FB11DA35ABF4F2C91848D90E00196CB
:100F90008F739927848FA689B7892C93A089B189EB
:100FA0008C91837080648C93938D848D981306C08C
:100FB0000288F389E02D80818F7D80830895EF92F0
:100FC000FF920F931F93CF93DF93EC0181E0888F03
:100FD0009B8D8C8D98131AC0E889F989808185FFD3
:100FE00015C09FB7F894EE89FF896083E889F98975
:100FF00080818370806480839FBF81E090E0DF9177
:10100000CF911F910F91FF90EF900895F62E0B8DC9
:1010100010E00F5F1F4F0F731127E02E8C8D8E1184
:101020000CC00FB607FCFACFE889F989808185FFEB
:10103000F5CFCE010E94BD07F1CFEB8DEC0FFD2F58
:10104000F11DE35AFF4FF0829FB7F8940B8FEA89A6
:10105000FB8980818062CFCFCF93DF93EC01888DB5
:101060008823B9F0AA89BB89E889F9898C9185FD23
:1010700003C0808186FD0DC00FB607FCF7CF8C91B1
:1010800085FFF2CF808185FFEDCFCE010E94BD07A5
:10109000E9CFDF91CF91089590E0FC01E356FD4F39
:1010A0002491FC01E558F24F3491FC01E959F24FCB
:1010B000E491EE23C9F0222339F0233001F1A8F4A2
:1010C000213019F1223029F1F0E0EE0FFF1FE75B2C
:1010D000F24FA591B4918FB7F894EC91611126C0AD
:1010E00030953E233C938FBF08952730A9F02830D8
:1010F000C9F0243049F7809180008F7D03C0809132
:1011000080008F7780938000DFCF84B58F7784BD98
:10111000DBCF84B58F7DFBCF8091B0008F7780933C
:10112000B000D2CF8091B0008F7DF9CF3E2BDACFC7
:10113000CF93DF9390E0FC01E558F24F2491895959
:10114000924FFC0184918823D1F090E0880F991F81
:10115000FC01ED5AF24FA591B491FC01E75BF24F0F
:10116000C591D49161110EC09FB7F8948C91E22F74
:10117000E0958E238C932881E223E8839FBFDF9143
:10118000CF9108958FB7F894EC91E22BEC938FBF39
:10119000F6CF3FB7F8948091D2029091D302A091FC
:1011A000D402B091D50226B5A89B05C02F3F19F0F7
:1011B0000196A11DB11D3FBFBA2FA92F982F8827D7
:1011C000BC01CD01620F711D811D911D42E0660FB2
:1011D000771F881F991F4A95D1F708958F929F9284
:1011E000AF92BF92CF92DF92EF92FF926B017C01A0
:1011F0000E94C9084B015C01C114D104E104F1044F
:10120000B9F00E94C908681979098A099B09683EE2
:1012100073408105910580F321E0C21AD108E108ED
:10122000F10888EE880E83E0981EA11CB11CE4CF63
:10123000FF90EF90DF90CF90BF90AF909F908F90F6
:1012400008952FB7F8946091CE027091CF028091EB
:10125000D0029091D1022FBF0895DC0180E061504F
:1012600038F0ED91E827F0E0E356FE4F8491F7CF98
:101270000895DC012C911196ED91FC91F8948181F7
:10128000822B81839281322F30959323928387E042
:1012900090E00197F1F781818323818383E290E0DD
:1012A0000197F1F790817894EFECF0E03197F1F746
:1012B000922381E009F480E00895FC01908101808F
:1012C000F281E02D292F209560FF14C0F8948281CF
:1012D000822382838181892B8183A3E2B0E01197ED
:1012E000F1F78281982B9283789487ED90E00197B3
:1012F000F1F70895F8948281822382838181892B7A
:101300008183AFEFB0E01197F1F78281982B928340
:1013100078948FE090E0EBCFDF92EF92FF920F9303
:101320001F93CF93DF93EC01D62EE42E08E010E05C
:10133000FF24F39461E08D2D8F2109F460E0CE014C
:101340000E945D09FF0C01501109A1F7E11010C0C6
:10135000F894E981FA81918188818095892381833C
:10136000E981FA81928188818095892382837894AA
:10137000DF91CF911F910F91FF90EF90DF90089533
:10138000EF92FF920F931F93CF93DF938C017B011A
:1013900040E065E50E948C09E70188E0E80EF11C59
:1013A000699140E0C8010E948C09CE15DF05C1F7A4
:1013B000DF91CF911F910F91FF90EF900895FC0165
:1013C00090810180F281E02DF8948181292F209570
:1013D0008223818378943DE743E050E0315029F146
:1013E000DA011197F1F780818923C1F3F8948281A2
:1013F000822382838181892B81837894ABE7B7E054
:101400001197F1F7F894818182238183A3E1B1E000
:101410001197F1F78081982381E009F080E07894BA
:10142000E3E6F6E03197F1F7089580E00895AF9292
:10143000BF92CF92DF92EF92FF920F931F93CF93C1
:10144000DF938B01BC018091ED039091EE030E942C
:10145000C00940E06EEB8091ED039091EE030E9495
:101460008C09E801680189E0C80ED11CA090ED0349
:10147000B090EE0388E0E82EF12C10E001E0C50109
:101480000E9439098111102B000F81E0E81AF10840
:10149000B1F71993CC16DD0649F78091ED039091D1
:1014A000EE030E94DF0991E0813009F090E0892F7E
:1014B000DF91CF911F910F91FF90EF90DF90CF9030
:1014C000BF90AF9008950F931F93CF93DF93CDB745
:1014D000DEB729970FB6F894DEBF0FBECDBF8C01E3
:1014E0008091ED039091EE030E94DF09811102C00B
:1014F00080E01FC0BE016F5F7F4FC8010E94170AC6
:101500008823B1F368E0CE0101960E942D099985E8
:101510008913EECF8D818F33B9F020F48F3141F7ED
:1015200089E007C08F3521F08F3711F78CE001C0BB
:101530008BE029960FB6F894DEBF0FBECDBFDF91CA
:10154000CF911F910F9108958AE0F3CFFC01208184
:101550002EBD9B012150310941F051810DB407FE90
:10156000FDCF4EB55EBD4193F5CF61507109860F39
:10157000971F0DB407FEFDCF2EB5FC012083089503
:10158000E0910303F0910403808190910203892B81
:1015900080830895E0910303F0910403908180918A
:1015A000020380958923808308958EBD00000DB4C9
:1015B00007FEFDCF8EB50895AF92BF92CF92DF9216
:1015C000EF92FF920F931F93CF93DF93CDB7DEB7C8
:1015D00028970FB6F894DEBF0FBECDBF8C017B01FC
:1015E0006A01809106038333E1F45801A40EB51E0D
:1015F000A016B10609F46FC00E94CA0A80EF0E94CB
:10160000D50A812F0E94D50A802F0E94D50A0F5F2C
:101610001F4FF70181917F010E94D50A0E94C00AE5
:10162000E7CF5B01A40EB51E8433C1F40E94CA0A41
:1016300019830A838D2D80688B83CC8264E070E0EF
:10164000CE0101960E94A60AAE14BF0409F441C05F
:10165000F70181917F010E94D50AF6CF0E94CA0A44
:101660000F3F110509F028F419820A8384E08B8367
:101670000CC017FD17C019820A8333E01695079531
:101680003A95E1F7007E0C600B8386E0C816D10422
:10169000A0F5F701DE011496EA15FB0599F081919A
:1016A0008D93FACFC80126E0969587952A95E1F7A4
:1016B000807E19830A830115104C10F48461D7CF02
:1016C0008C61D5CFB6016D5F7F4FCE0101960E9430
:1016D000A60A0E94C00AC60128960FB6F894DEBF7B
:1016E0000FBECDBFDF91CF911F910F91FF90EF9073
:1016F000DF90CF90BF90AF90089563E070E0CE018F
:1017000001960E94A60AF70181917F010E94D50AE5
:10171000AE14BF04C1F7DDCFCF93DF931F92CDB7D7
:10172000DEB7898341E050E0BE016F5F7F4F90E0FC
:1017300080E00E94DC0A0F90DF91CF91089590E045
:1017400020910603233339F40C96982F990F990FA3
:10175000990F80E008954896F8CFDA01E0910703E9
:10176000F0E0FE2FEE27E60FF71F90E0982F882776
:10177000A901BD018E0F9F1F0C94DC0ACF93DF934C
:1017800000D0CDB7DEB779836A8322E030E0AE01C6
:101790004F5F5F4F60E170E00E94AD0B0F900F90C4
:1017A000DF91CF910895CF93DF9300D0CDB7DEB70F
:1017B00079836A8322E030E0AE014F5F5F4F64E0DF
:1017C00070E00E94AD0B0F900F90DF91CF910895C4
:1017D000CF93DF931F92CDB7DEB72091070330E0A0
:1017E000322F2227260F371F90E0982F8827498312
:1017F00041E050E0BE016F5F7F4F820F931F0E9458
:10180000DC0A0F90DF91CF910895CF93DF931F9261
:10181000CDB7DEB76983DC01ED91FC910280F381E5
:10182000E02D41E050E0BE016F5F7F4F09950F90C2
:10183000DF91CF910895CF93DF931F92CDB7DEB79D
:101840006983DC01ED91FC910280F381E02D41E0A0
:1018500050E0BE016F5F7F4F09950F90DF91CF91F0
:101860000895FC019485FB018485981303C081E0F1
:10187000943008F080E00895CF93DF931F92CDB7A6
:10188000DEB76983DC01ED91FC910280F381E02DEC
:1018900041E050E0BE016F5F7F4F09950F90DF91EF
:1018A000CF910895FC01768765870895DC01ED915D
:1018B000FC91068CF78DE02D099591E0892708951C
:1018C000862F089581E08627089521E0FC01848514
:1018D000843008F020E0822F08950895FF920F933E
:1018E0001F93CF93DF93EB01FC01178A168A2A819D
:1018F000211109C02B81211106C02C81211103C0A7
:101900002D81222301F141155105E9F08A01FC01E5
:10191000F08C80E591E00E94F406AE014E5F5F4FCF
:1019200024E030E06CE070E08F2D0E94AD0BB80138
:101930008F2D0E94BE0B81E090E0DF91CF911F912F
:101940000F91FF90089580E0F7CFFC018485958585
:101950000895FC0184899589089524E931E0FC010A
:1019600031832083FB014089518962897389FC019D
:1019700042835383648375830895DC01ED91FC9168
:10198000048CF58DE02D0994089590E080E0089591
:101990008091ED039091EE030E94DF0940E06CEC32
:1019A0008091ED039091EE030E948C094091E80331
:1019B00064E48091ED039091EE030E948C09809184
:1019C000EA038823A1F0E091E903E9506EEE72E0AA
:1019D000E33038F4F0E0EE0FFF1FE858FE4F60816F
:1019E0007181072E000C880B990B0C94EE0808955A
:1019F000BF92CF92DF92EF92FF920F931F93CF93FC
:101A0000DF93EC01B62EC72EED84E11004C00E94D6
:101A1000DF0981110EC01B861D861C8680E0DF91C8
:101A2000CF911F910F91FF90EF90DF90CF90BF90DB
:101A3000089540E060EFCE010E948C09D12C01E0B6
:101A400011E0CE010E943909F82ECE010E94390919
:101A500091E0F91218C0813099F51134E0F2EB866B
:101A6000E11002C081E08D878B818823A1F223964B
:101A7000EB2DFC2DCF01089629912193E817F9074A
:101A8000D9F781E0CCCFED2DF0E0F8120FC08B85B7
:101A90001817A0F4DE01AE0FBF1F13968C918023A0
:101AA00079F4F12C193008F41C87E12EEC0FFD1F9E
:101AB0008381902F9095892383830AC08113F1CF6E
:101AC000FE01ED0DF11D8381802B8383FF24F394B0
:101AD0006F2DCE010E945D091F5F000F11F4D3949A
:101AE00001E087E08D1508F0ACCFB7CFFB01019086
:101AF0000020E9F73197AF01461B570BDC01ED9150
:101B0000FC910280F381E02D09948F929F92AF9215
:101B1000BF92EF92FF920F931F93CF93DF93CDB7B6
:101B2000DEB7A1970FB6F894DEBF0FBECDBF7C0124
:101B3000FA01CB0119A2223008F42AE08E010F5DD0
:101B40001F4F822E912CB12CA12CBF01A501940115
:101B50000E94392FF901CA016A300CF5605DD80185
:101B60006E938D01232B242B252B79F790E080E0B9
:101B7000109721F0BD01C7010E94760DA1960FB606
:101B8000F894DEBF0FBECDBFDF91CF911F910F91B3
:101B9000FF90EF90BF90AF909F908F900895695CF9
:101BA000DECF8F929F92AF92BF92CF92DF92EF9251
:101BB000FF920F931F93CF93DF937C01EB016C0196
:101BC00082E0C80ED11C4701E5E08E0E911C10E0AA
:101BD00000E0F60141916F0150E070E060E02AE022
:101BE000CE010E94850D5C01E881F9810190F081B0
:101BF000E02D6EE2CE0109958A0D9B1D080F191F7D
:101C0000C814D90431F7F701458150E070E060E075
:101C10002AE0CE010E94850D800F911FDF91CF91A8
:101C20001F910F91FF90EF90DF90CF90BF90AF90FA
:101C30009F908F90089566EA71E00C94760DCF9393
:101C4000DF9369E073E00E94D10DEC0189E093E03D
:101C50000E941B0E8C0F9D1FDF91CF9108950F9353
:101C60001F93CF93DF93EC010E940D078C01CE01EF
:101C70000E941B0E800F911FDF91CF911F910F913A
:101C800008950F931F93CF93DF93EC010E941B07DE
:101C90008C01CE010E941B0E800F911FDF91CF910E
:101CA0001F910F910895FC0124813581232B31F47C
:101CB00021E0FB01672B49F4822F089580819181F7
:101CC0006115710539F421E0FC0180818823A1F3BD
:101CD00020E0F2CF0E94303221E0892B69F3F8CF67
:101CE0000F931F93CF93DF93EC0188819981009725
:101CF00059F02A813B812617370730F081E0DF91C8
:101D0000CF911F910F9108958B016F5F7F4F0E94BC
:101D10006331009759F0998388831B830A832C8150
:101D20003D81232B59F7FC011082E8CF80E0E7CFFB
:101D3000EF92FF920F931F93CF93DF93611571057D
:101D400041F480E0DF91CF911F910F91FF90EF90D0
:101D5000089541155105B1F07B01EC010C811D8105
:101D6000040F151FB8010E94700E882351F32881BB
:101D700039818C819D81B701820F931F0E94393276
:101D80001D830C8381E0DECFCF93DF93EC0188814C
:101D90009981009711F00E94DA30198218821D8211
:101DA0001C821B821A82DF91CF910895CF93DF931B
:101DB000EC01FB0101900020E9F73197AF01461BD0
:101DC000570B0E94980E811103C0CE010E94C40ED1
:101DD000CE01DF91CF910895CF93DF93EC01FB010A
:101DE00044815581608171810E94980E811103C0E8
:101DF000CE010E94C40ECE01DF91CF910895EF92E3
:101E0000FF920F931F93CF93DF93EC017B018A0125
:101E1000BA010E94700E81110BC0CE010E94C40E47
:101E2000CE01DF91CF911F910F91FF90EF90089518
:101E30001D830C83B701888199810E943932F0CFCC
:101E4000FB0101900020E9F73197AF01461B570BCA
:101E50000C94FF0ECF93DF93EC01FB0186179707DD
:101E600049F0608171816115710541F044815581AE
:101E70000E94FF0ECE01DF91CF9108950E94C40E03
:101E8000F9CFFC0111821082138212821582148212
:101E90006115710551F0FB0101900020E9F73197C0
:101EA000AF01461B570B0C94FF0E0895FC01808177
:101EB0009181009711F00C94DA300895CF92DF925F
:101EC000FF920F931F93CF93DF9300D000D000D0E9
:101ED000CDB7DEB78C0168EA71E0CE0101960E94B1
:101EE000410F70E060E0C8010E94FC068B3211F0E7
:101EF0008D3281F5F80184819581029728F0608107
:101F0000718161157105F1F41092CC026CEC72E0F4
:101F1000CE0101960E94200FCD80DE8010E000E00F
:101F2000F12C0C151D0509F1B801CE0101960E9496
:101F3000FC068E32A9F4F11016C0FF24F3940F5F53
:101F40001F4FEFCF6F5F7F4F19F7CE0101960E94B1
:101F5000C40EE2CFB801CE0101960E942A0FDCCF59
:101F600080538A3060F310E001C011E0CE01019689
:101F70000E94560F812F26960FB6F894DEBF0FBE33
:101F8000CDBFDF91CF911F910F91FF90DF90CF9048
:101F90000895AF92BF92CF92DF92EF92FF920F938C
:101FA0001F93CF93DF9300D000D0CDB7DEB78C0165
:101FB0006B017A01809106038333E9F45B016801C8
:101FC000C40ED51EC016D106A9F10E94CA0A8FE020
:101FD0000E94D50A812F0E94D50A802F0E94D50A1F
:101FE0000F5F1F4F80E00E94D50AF50181935F01CA
:101FF0000E94C00AE7CF843369F50E94CA0A198398
:102000000A838F2D8F778B83EC8264E070E0CE01A2
:1020100001960E94A60AA70170E060E0C6010E9436
:102020002932E114F10421F0B701C6010E94A60A89
:102030000E94C00AC7010F900F900F900F90DF9180
:10204000CF911F910F91FF90EF90DF90CF90BF90B5
:10205000AF9008950E94CA0A0F3F110509F030F4AD
:1020600019820A831B8263E070E0D1CF17FD0BC099
:1020700019820A8333E0169507953A95E1F7007EB9
:1020800008600B83F0CFC80126E0969587952A95C6
:10209000E1F7807E19830A830115104C18F48061E2
:1020A0008B83E1CF8861FCCFCF93DF931F92CDB7B5
:1020B000DEB72091070330E0322F2227260F371F8B
:1020C00090E0982F882741E050E0BE016F5F7F4F7E
:1020D000820F931F0E94C90F89810F90DF91CF91CA
:1020E0000895CF93C82F462F61E070E00E94E80B5F
:1020F00061E070E08C2F0E9454108111F9CFCF91D4
:102100000895CF93C82F80E591E00E94F40668E01F
:1021100070E08C2FCF910C947110CF93C82F80E575
:1021200091E00E94F40660E170E08C2FCF910C9456
:102130007110CF93DF93EC01888D843020F40E94DE
:102140008D1084E0888FDF91CF91089563E070E077
:102150000C945410CF93C82F80E591E00E94F406B0
:102160008C2FCF910C94A610EF92FF920F931F9398
:10217000CF937C010AEF12E0C0E0F8012191319188
:102180008F01F701848195812817390729F0CF5FE6
:10219000C43099F780E006C08C2F0E94AA108431C9
:1021A000B1F781E0CF911F910F91FF90EF900895CB
:1021B000CF93DF93EC018C858430D0F40E94AA1079
:1021C000843189F0882379F0883169F021E08C31FD
:1021D00059F4E881F9810084F185E02DCE0109955B
:1021E00021E0892B09F420E0822FDF91CF9108951F
:1021F00080E0FBCFCF92DF92EF92FF92CF93DF93FD
:10220000EC018C85843068F40E9481100E942109C1
:102210006B017C018C850E94AA10811109C084E0A9
:102220008C87DF91CF91FF90EF90DF90CF90089552
:1022300061E070E080E090E00E94EE080E942109D9
:10224000AB01BC014C195D096E097F098D859E8526
:10225000B0E0A0E0481759076A077B07D8F28C85E1
:102260000E948D10DCCFCF93FC01C08D80E591E002
:102270000E94F40660E270E08C2F0E94711062E010
:1022800070E08C2F0E94541084FD16C062E070E054
:102290008C2F0E94541083FF0AC048E162E070E076
:1022A0008C2F0E94E80B80E090E0CF91089580E5AC
:1022B00091E00E94F406E3CF40E162E070E08C2FF1
:1022C0000E94E80B81E0F0CFCF93DF931F92CDB750
:1022D000DEB741E050E0BE016F5F7F4F90E080E0ED
:1022E0000E94C90F89810F90DF91CF910895CF93FC
:1022F000DF93C4E1D0E00E946411882361F061E0C3
:1023000070E080E090E00E94EE082197A1F780E065
:10231000DF91CF91089581E0FBCFCF92DF92EF92D2
:10232000FF920F931F93CF93DF93CDB7DEB7C454C3
:10233000D1090FB6F894DEBF0FBECDBFFC0182817C
:102340009381A481B58123968CAF9DAFAEAFBFAF13
:10235000239721E023962FAF239723964CAD5DADB5
:102360006EAD7FAD23974BAB5CAB6DAB7EAB89AFF6
:102370009AAFABAFBCAF8DA79EA7AFA7B8AB28AB4A
:102380004DA55EA56FA578A94FA358A769A77AA701
:102390002EAB4BA95CA96DA97EA949A35AA36BA337
:1023A0007CA38B8F9C8FAD8FBE8F44E951E05C8BFB
:1023B0004B8B3FEF3D8B3E8B3F8B188E5E874D875F
:1023C0002AA7CFA0D8A4E9A4FAA4CF86D88AE98AFC
:1023D000FA8A2CA309A11AA12BA13CA109871A876B
:1023E0002B873C875A8349838B839C83AD83BE8331
:1023F000809108038111AFC060E372E080E090E05B
:102400000E94EE08DFB6F89401E71DE035E8E32E00
:102410003DE0F32E80910503811125C0F8018491E0
:10242000F7019491E82FF0E0EE0FFF1FED5AF24F05
:10243000A591B4918C91982321F461E08AE00E94E7
:102440004C0861E08AE00E9498088CB580618CBDE0
:102450008CB580648CBD61E08DE00E94980861E0DD
:102460008BE00E949808809105038F5F809305039D
:10247000DFBEF8010491E02FF0E0EE0FFF1FE75BF5
:10248000F24F859194919093040380930303F70195
:10249000E490E092020361E08AE00E9498080E94C2
:1024A000C00A80E591E00E94F40684E3809306036D
:1024B00080E80E948C0B0E947711882309F481C068
:1024C00088E00E948C0B0E946411883009F079C06A
:1024D00080E10E948C0B0E946411803109F071C070
:1024E00080E00E948C0B0E946411182F811169C03A
:1024F00041E050E0BE016D5B7F4F8FE190E00E94B4
:10250000C90F24968FAD2497833009F05AC080E418
:102510008093070342E06EE170E0812F0E94E80B98
:1025200042E06FE170E0812F0E94E80B1F5F1430E2
:1025300089F740E06EE170E0812F0E94E80B40E0F7
:102540006FE170E0812F0E94E80B1F5F183089F760
:1025500081E08093080380E591E00E94F40646E064
:1025600050E066E071E089E090E00E94DC0A44E01F
:1025700050E0BE016D5F7F4F8FE090E00E94DC0A6B
:1025800044E050E0BE01615F7F4F81E090E00E9437
:10259000DC0A44E050E0BE016B5E7F4F85E090E0D6
:1025A0000E94DC0A81E08C8789859A85AB85BC8591
:1025B0008093C6039093C703A093C803B093C90345
:1025C0006FC087E38093060380E80E948C0B0E9413
:1025D0007711882339F188E00E948C0B0E946411E6
:1025E000883001F580E10E948C0B0E946411182F45
:1025F0008031C1F480E00E948C0B0E946411811133
:1026000011C041E050E0BE016D5B7F4F89E390E077
:102610000E94C90F24968FAD2497843019F410932B
:10262000070396CF83E38093060380E80E948C0B18
:102630000E947711882391F180E10E948C0B0E9407
:102640006411803159F582E10E948C0B0E94641163
:10265000823121F580E00E948C0B0E94641181116F
:102660001DC084E08093070315E525961FAF2597CD
:1026700041E050E0BE016C5B7F4F8BE190E00E9437
:10268000DC0A24961FAF249741E050E0BE016D5B49
:102690007F4F8AE190E00E94DC0A5ACF1092060335
:1026A000CC5BDF4F0FB6F894DEBF0FBECDBFDF911E
:1026B000CF911F910F91FF90EF90DF90CF900895F1
:1026C0001F93CF93DF931F92CDB7DEB7182F80E50E
:1026D00091E00E94F406812F0E949F0B27E0129F39
:1026E000F0011124E252FD4F22813381377041E025
:1026F00050E0BE016F5F7F4F820F931F0E94C90F92
:1027000089810F90DF91CF911F910895FC01808DF9
:10271000843040F4218D328D232B21F00E946013F0
:1027200090E008958FEF9FEF0895CF93DF93FC0122
:102730002485243028F08FEF9FEFDF91CF9108950B
:10274000EC010190F081E02D0084F185E02D0995E8
:10275000892B89F38C850E94601390E0EECFDA011B
:10276000E0910703F0E0FE2FEE27E60FF71F90E061
:10277000982F8827A901BD018E0F9F1F0C94C90FA8
:102780008F929F92AF92BF92CF92DF92EF92FF9281
:102790001F93CF93DF93CDB7DEB72C970FB6F89486
:1027A000DEBF0FBECDBF2091060314E0222329F126
:1027B0006B017C0180E591E00E94F4065E0127E058
:1027C000A20EB11C450110E0812F0E94A610F40159
:1027D00081934F01882349F11F5F1430A9F710E05E
:1027E000F50181915F018D31D9F08831C9F08A51AD
:1027F0008230B0F01F5F143099F7812F2C960FB6FE
:10280000F894DEBF0FBECDBFDF91CF911F91FF9037
:10281000EF90DF90CF90BF90AF909F908F900895F2
:1028200060E170E0812F0E947110A12EB12CF501A2
:10283000EE0FFF1FE650FD4F1182108283EE93E0F2
:102840000197F1F742E870E060E0812F0E94E80B09
:102850004FEF62E070E0812F0E94E80BB601C114D7
:10286000D10491F4809104019091050101968115A4
:10287000F0EC9F0708F45CC090930501809304017D
:102880006091040170910501812F0E94D30B86E0B5
:10289000E2E1F1E0DE01119601900D928A95E1F7F7
:1028A000F70183818F778C8384818D8385818E83EB
:1028B000A7014E5F5F4F24E030E06CE070E0812FB5
:1028C0000E94AD0BB601812F0E94BE0B26E030E0C6
:1028D000AE014F5F5F4F66E070E0812F0E94AD0B4D
:1028E00061E070E0812F0E94711027E02A9DC001F5
:1028F0002B9D900D11249C0122523D4F7901F9012D
:102900001182108222E030E0AE01455F5F4F68E245
:1029100070E0812F0E94AF138B859C8598278927B3
:102920009827F7019383828316821582148265CFDC
:1029300080E090ECA1CFCF92DF92EF92FF920F93C5
:102940001F93CF93DF9300D000D000D0CDB7DEB778
:102950008C016B017A01FC01808D843010F40E949F
:102960008D1084E991E09A838983F60182819381B5
:10297000A481B5818B839C83AD83BE83B701CE01D7
:1029800001960E94C013F801808F8430A0F4F58670
:10299000E486128E118E81E026960FB6F894DEBF83
:1029A0000FBECDBFDF91CF911F910F91FF90EF90A0
:1029B000DF90CF90089580E0EFCFAF92BF92CF929B
:1029C000DF92EF92FF920F931F93CF93DF9300D08C
:1029D00000D000D0CDB7DEB7082F6B0180E591E0C5
:1029E0000E94F4069E012F5F3F4F7901590110E0CC
:1029F000812F0E94A610F50181935F01882341F188
:102A00001F5F1430A9F710E0F70181917F018D312C
:102A1000D1F08831C1F08A518230A8F01F5F1430A4
:102A200099F7812F26960FB6F894DEBF0FBECDBF63
:102A3000DF91CF911F910F91FF90EF90DF90CF909A
:102A4000BF90AF90089560E170E0812F0E947110F7
:102A5000E12EF12CF701EE0FFF1FE650FD4F118222
:102A6000108283EE93E00197F1F7402F70E060E071
:102A7000812F0E94E80B4FEF62E070E0812F0E94EF
:102A8000E80BB601CD2889F48091040190910501ED
:102A900001968115F0EC9F0798F1909305018093C2
:102AA00004016091040170910501812F0E94D30BF4
:102AB00061E070E0812F0E94711027E02E9DC0011F
:102AC0002F9D900D11249C0122523D4F7901F90157
:102AD0001182108222E030E0AE014B5F5F4F68E26E
:102AE00070E0812F0E94AF138D819E8198278927E6
:102AF0009827F7019383828316821582148291CFDF
:102B000080E090ECCACFCF92DF92EF92FF921F93BA
:102B1000CF93DF93EC017B016A018C85843048F40C
:102B20000E94AA10882319F08C850E94811084E0ED
:102B30008C87F70182819381A481B5810097A105DB
:102B4000B10551F490E080E0DF91CF911F91FF90AB
:102B5000EF90DF90CF9008958F3F9F4FAF4FBF4FC3
:102B600089F380910603811103C084E08C87EACF4A
:102B700070E060E081E20E94DD14182F8C878430C1
:102B800008F780E591E00E94F406A7014E5F5F4FD1
:102B900024E030E06CE070E0812F0E94AD0BB601C4
:102BA000812F0E94BE0B64E070E0812F0E947110A3
:102BB0000E9421096B017C018C850E94AA1087313B
:102BC00009F18C31F9F0882309F4BCCF0E94210966
:102BD000AB01BC014C195D096E097F098D859E858D
:102BE000B0E0A0E084179507A607B70738F061E0CA
:102BF00070E080E090E00E94EE08DECF8C850E94BD
:102C00008D10B3CF81E090E09FCF0F931F93CF93B0
:102C1000DF93EC018B01888D843010F40E948D10BD
:102C200080910603811107C094E0988FDF91CF91C6
:102C30001F910F910895B80182E00E94DD14888FE2
:102C4000843030F41D870C871A8E198E81E0EECF08
:102C500080E0ECCF0F931F93CF93209106032223A4
:102C600049F18C01FC016481758181E20E94DD14CF
:102C7000C82F8430F8F480E591E00E94F4068C2F90
:102C80000E94A610833131F08C2FCF911F910F91AC
:102C90000C94811062E070E08C2F0E947110F8019A
:102CA00084819581EC2FF0E0EE0FFF1FE650FD4F81
:102CB00091838083CF911F910F9108957F928F927E
:102CC0009F92AF92BF92CF92DF92EF92FF920F93BB
:102CD0001F93CF93DF9300D0CDB7DEB7782E8B0153
:102CE0004A01590122E030E0AE014F5F5F4F64E2DC
:102CF00070E00E94AF13E980FA80FE24EF24FE24E6
:102D0000E00EF11E9701377040910603072D10E089
:102D1000433309F042C0085F1F4F102F0027110FE7
:102D2000110F110FC901800F911F4733C9F1A9017C
:102D30004A0D5B1D4130584098F160E078E06B012E
:102D4000C21AD30AA601B4010E94DC0AA5014C19DB
:102D50005D09B4016C0D7D1DC8010E94DC0AEA0CFE
:102D6000FB1CF982EA8222E030E0AE014F5F5F4F48
:102D700064E270E0872D0E94AD0B0F900F90DF9101
:102D8000CF911F910F91FF90EF90DF90CF90BF9068
:102D9000AF909F908F907F900895005F1F4FBDCFA1
:102DA000A501B401DACFEF92FF921F93CF93DF9387
:102DB00000D0CDB7DEB7182F22E030E0AE014F5F74
:102DC0005F4F60E270E00E94AF13E980FA80FE245A
:102DD000EF24FE2422E030E0AE014F5F5F4F60E25F
:102DE00070E0812F0E94AF1389819A8198278927EB
:102DF0009827E816F90689F487E0189FF001112456
:102E0000E252FD4FF582E482C7010F900F90DF91EF
:102E1000CF911F91FF90EF9008957C01DBCF1F931E
:102E2000CF93DF93182F80E591E00E94F406812F65
:102E30000E94D316EC01812F0E94A610873121F049
:102E40008C3111F0D0E0C0E0CE01DF91CF911F9125
:102E50000895CF93DF93EC018C85843060F40E9459
:102E6000AA10873111F08C3131F48C850E940F1734
:102E70008115984088F3DF91CF910895FC018485F6
:102E8000843010F40C940F1790E080E00895CF92F6
:102E9000DF92EF92FF921F93CF93DF93182F7B0166
:102EA000EA014130584010F0C0E0D8E080E591E000
:102EB0000E94F406812F0E94D3166C01812F0E947C
:102EC000A610873111F08C3121F5CC16DD0670F398
:102ED00080E591E00E94F4069E01A70170E060E0A9
:102EE000812F0E945E1660E270E0812F0E947110B7
:102EF00062E070E0812F0E94541084FD0DC0812F8C
:102F00000E94A6108823B9F080E591E00E94F406A3
:102F1000EFCFD0E0C0E0DCCF40E162E070E0812F95
:102F20000E94E80BCE01DF91CF911F91FF90EF90AF
:102F3000DF90CF900895D0E0C0E0F4CF0F931F93BF
:102F4000CF93DF938C01EA01FC018485843048F43F
:102F50000E944717892B39F481E090E0F8019383B0
:102F60008283D0E0C0E0CE01DF91CF911F910F911D
:102F700008959F92AF92BF92CF92DF92EF92FF920D
:102F80000F931F93CF93DF938C015B01942EE52E5B
:102F9000FC01C688D788F08C80E591E00E94F40699
:102FA0008F2D0E94D316C92DDE2D8C179D0708F496
:102FB000EC019E01A501B6018F2D0E945E16F8015D
:102FC000868997898C0F9D1F978B868BCE01DF9109
:102FD000CF911F910F91FF90EF90DF90CF90BF9016
:102FE000AF909F900895FF920F931F93CF93DF931D
:102FF00000D0CDB7DEB7F82E22E030E0AE014F5F53
:103000005F4F66E270E00E94AF1309811A811027BA
:103010000127102722E030E0AE014F5F5F4F66E2EC
:1030200070E08F2D0E94AF1389819A81982789279C
:1030300098270817190749F4C8010F900F90DF91DE
:10304000CF911F910F91FF9008958C01E3CF1F93B3
:10305000CF93DF93182F87E0189FE0011124C2520D
:10306000DD4F88819981009761F480E591E00E94AD
:10307000F406812F0E94F3172E81821B91099983F8
:103080008883DF91CF911F910895AF92BF92CF9225
:10309000DF92EF92FF920F931F93CF93DF93EC0198
:1030A0007B0180910603811120C01B821A8288EE69
:1030B00093E0A0E0B0E08C839D83AE83BF838CE17E
:1030C00091E09983888384E08C8788EE93E09E87E3
:1030D0008D87CE01DF91CF911F910F91FF90EF90DF
:1030E000DF90CF90BF90AF9008958AEFC82E82E016
:1030F000D82E10E094E0B92EA12CD6012D913D914F
:103100006D01F701848195812817390791F4812F8A
:103110000E94AA10082F873111F08C3139F5812FC8
:103120000E942718892B59F50C3119F4812F0E9420
:1031300081101F5F143009F7A11008C0D701ED916D
:10314000FC910084F185E02DC70109951B821A824C
:1031500088EE93E0A0E0B0E08C839D83AE83BF83D4
:103160008CE191E099838883BC86AFCF843149F0AC
:103170008111DFCFF601329711821082DACFB12EA2
:10318000D8CFAA24A394D5CF8F929F92AF92BF920B
:10319000CF92DF92EF92FF921F93CF93DF93CDB741
:1031A000DEB72F970FB6F894DEBF0FBECDBF5C0120
:1031B0004B017A01809106038823A1F1B501CE016C
:1031C00001960E9445188AEFC82E82E0D82E10E0A2
:1031D000F601219131916F01F501848195812817C4
:1031E000390751F4812F0E94AA10873129F4A701D1
:1031F000B401812F0E9447171F5F143049F7C701A0
:103200002F960FB6F894DEBF0FBECDBFDF91CF91E2
:103210001F91FF90EF90DF90CF90BF90AF909F9065
:103220008F900895F12CE12CEACFFC018485843045
:1032300010F40C94271890E080E008954F925F926C
:103240007F928F929F92AF92BF92CF92DF92EF9236
:10325000FF920F931F93CF93DF9300D0CDB7DEB7CC
:10326000782E6B014A01A82EB12C27E0829FC00165
:103270001124FC01E252FD4F7F010081118180E5A4
:1032800091E00E94F4060815190554F4872D0E9458
:10329000F317F70126818C01021B110911830083AA
:1032A0000115110519F5872D0E94A610843159F0DA
:1032B000882349F001E010E08C3111F410E000E0C7
:1032C000119501951109C8010F900F90DF91CF91D1
:1032D0001F910F91FF90EF90DF90CF90BF90AF9034
:1032E0009F908F907F905F904F90089580169106E9
:1032F0000CF4840187E08A9DF0018B9DF00D112470
:10330000E252FD4FE280F380C114D10451F1270154
:10331000F7E05F22872D0E949F0B840D951D209161
:103320000603273309F453C09801240D351D2130BD
:10333000384008F44CC020E038E049018418950872
:10334000A401B6010E94C90F2601480C591C68014E
:10335000C818D908872D0E949F0BA601B2010E94B0
:10336000C90FE00EF11E87E08A9DF0018B9DF00DE4
:103370001124E252FD4FF382E28220813181201B31
:10338000310B318320838681800F912F911D8A3FDD
:10339000910510F4232BF1F487E08A9DF0018B9DB9
:1033A000F00D1124E252FD4F1682F982EA8222E0EA
:1033B00030E0AE014F5F5F4F68E270E0872D0E9402
:1033C000AD0B60E470E0872D0E9471107CCFA801E6
:1033D000B601C5CF868377CFCF93DF93FC01218DD4
:1033E000328D2115310529F48FEF9FEFDF91CF91B9
:1033F0000895EC01808D4217530708F0A9010E943F
:103400001E191816190684F7298D3A8D281B390BB9
:103410003A8F298FEBCF0F931F93CF93DF931F9298
:10342000CDB7DEB7FC01218D328D232B41F48FEF18
:103430009FEF0F90DF91CF911F910F9108958C0115
:1034400041E050E0BE016F5F7F4FFC01808D0E9424
:103450001E19181619065CF7F801818D928D0197D7
:10346000928F818F898190E0E4CF0F931F93CF9348
:10347000DF93CDB7DEB728970FB6F894DEBF0FBE47
:10348000CDBF8C01D80159964D915C915A97411549
:10349000510551F0ED91FC91048CF58DE02D70E01B
:1034A00060E0C8010995EECFF801808D0E942718D1
:1034B000892BB1F148E050E0BE016F5F7F4FD8012A
:1034C00058968C910E941E1918161906F4F4D8010A
:1034D000509684E0FE01319601900D928A95E1F7B5
:1034E0008D8190E0982F88272E81820F911DF80101
:1034F000958B848B8F81282F30E0322F222788856F
:10350000820F932F911D928F818F28960FB6F8947A
:10351000DEBF0FBECDBFDF91CF911F910F910895F8
:1035200090E080E0F2CF4F925F926F927F928F9205
:103530009F92AF92BF92CF92DF92EF92FF920F9342
:103540001F93CF93DF93CDB7DEB763970FB6F89491
:10355000DEBF0FBECDBF7C016B013A01FB0120E055
:1035600090E080E06AE03191332309F461C040EDDE
:10357000430F4A3008F04DC0689FA001699F500D6D
:103580001124CA01C097830F911D37FD9A958F3F73
:10359000910549F340F3F7014281538164817581BC
:1035A0008091D2039091D303A091D403B091D5031D
:1035B000481759076A077B0709F40DC28701085F9E
:1035C0001F4F0E9421096F7077277C5FC8010E94FE
:1035D0000516813009F004C284E991E09A83898359
:1035E000F70182819381A481B5818B839C83AD8314
:1035F000BE8345E350E0BE016F5F7F4FC8010E946C
:103600006E0C892BA9F5D12CC12CC8010E949910F0
:1036100017C03E3209F0BFCF233009F4BCCFD3012D
:10362000A20FB11D12968C932F5F90E080E09BCF8C
:10363000233009F0B0CFF3018583CC24C394D12C7F
:10364000C60163960FB6F894DEBF0FBECDBFDF9103
:10365000CF911F910F91FF90EF90DF90CF90BF908F
:10366000AF909F908F907F906F905F904F90089554
:103670000E942109F7017783668342E050E0B70199
:103680006A5F7F4FC8010E94B91781E090E09A837A
:10369000898342E050E0BE016F5F7F4FC8010E9406
:1036A000B91780E091E09A83898342E050E0BE013F
:1036B0006F5F7F4FC8010E94B9171A82198242E0DA
:1036C00050E0BE016F5F7F4FC8010E94B91742E012
:1036D00050E0BE016F5F7F4FC8010E94B91742E002
:1036E00050E0BE016F5F7F4FC8010E94B9175601BD
:1036F000F6018081882301F16501F60181912F0196
:10370000882311F08E32B1F446018A189B081814F0
:10371000190474F48D8641E050E0BE01635F7F4F71
:10372000C8010E94B917A401B501C8010E94B917C8
:103730005201DECF6201E1CF1D8641E050E0BE01C3
:10374000635F7F4FC8010E94B917C12CDD24D39459
:10375000DA82C98242E050E0BE016F5F7F4FC8014C
:103760000E94B917DA82C98242E050E0BE016F5F61
:103770007F4FC8010E94B917C8010E943311892BDD
:1037800009F441CFF3E0AF2EB12C230122E0420E29
:10379000511CD4C0F7014281538164817581808DB1
:1037A000918DA28DB38D481759076A077B0709F0E1
:1037B00008C1848D958DC59709F003C181A192A19F
:1037C0005DEFC52EDD24DA940C970CF4ADC04CE00F
:1037D00050E0BE016F5F7F4FC8010E94EC198B81E2
:1037E0009C819827892798279A8B898BF701468196
:1037F000578129813A814217530709F0E7C097FFA3
:10380000E5C08F7092703BEFC32EDD24DA94892BD4
:1038100009F08AC06F8078847624672476242AEFA2
:10382000C22EDD24DA946114710409F47DC0D12C18
:10383000C12C8D819E81982789279827C816D90683
:10384000F8F441E050E0BE01635F7F4FC8010E9481
:10385000EC194D85442331F050E070E060E0C80180
:103860000E94EC198D858111ECCF44E050E070E0AE
:1038700060E0C8010E94EC19FFEFCF1ADF0AD9CF30
:10388000912C812C41E050E0BE016D5E7F4FC8015C
:103890000E94EC194B89842F807C09F06CC0442372
:1038A00031F050E070E060E0C8010E94EC198B89B3
:1038B0008111E8CF42E050E0BE01615F7F4FC80157
:1038C0000E94EC1942E050E0BE01635F7F4FC801E7
:1038D0000E94EC1944E050E070E060E0C8010E94F2
:1038E000EC1942E050E0BE016F5E7F4FC8010E94BC
:1038F000EC198F85988949895A898115914009F079
:1039000043C0CD84DE84DC24CD24DC2481E0C816D1
:10391000D104D1F54115544009F04AC044E050E0CB
:10392000B201C8010E94EC1921E0A21AB10809F401
:103930006CCEFFEFCF16DF0609F067CE0E9421099B
:103940003B014C01C8010E94351A181619060CF4E7
:1039500021CF0E94210966197709880999096938D8
:1039600073418105910548F562E370E080E090E0E5
:103970000E94EE08E7CF41E050E070E060E0C8014F
:103980000E94EC191B8A93CF54274527542770E0D7
:1039900060E0C8010E94EC19FFEF8F1A9F0A6814BB
:1039A000790409F06FCF96EFC92EDD24DA94BCCFED
:1039B000E7EFCE2EDD24DA94B7CFCC24CA94DC2CEA
:1039C000B3CF6EEFC62EDD24DA94AECF4CEFC42E0B
:1039D000DD24DA94A9CF8EEFC82EDD24DA9430CE20
:1039E000D12CC12C2DCECF92DF92EF92FF920F936C
:1039F0001F93CF93DF93CDB7DEB7AF970FB6F89491
:103A0000DEBF0FBECDBF7C016A0104E911E01A835D
:103A100009831C861B8688EE93E0A0E0B0E08D87CA
:103A20009E87AF87B88B8AE491E09A878987188F41
:103A30000F8B198E1A8E1B8E1C8E84E089A31BA7F8
:103A40000AA71CA61DA61EA61FA68091C6039091BC
:103A5000C703A091C803B091C9038EA39FA3A8A7D1
:103A6000B9A78B839C83AD83BE8318861F82AE016A
:103A7000465D5F4FCE0101960E94931A81309105F9
:103A8000B1F4D701ED91FC910488F589E02D1DA3D7
:103A90000CA38CA59DA5AEA5BFA58EA39FA3A8A78B
:103AA000B9A7A601BE016C5D7F4FC7010995AF960E
:103AB0000FB6F894DEBF0FBECDBFDF91CF911F913F
:103AC0000F91FF90EF90DF90CF900895CF92DF920B
:103AD000EF92FF920F931F93CF93DF93CDB7DEB793
:103AE000AF970FB6F894DEBF0FBECDBF8C016B0150
:103AF0007A0184E991E09A8389831B821C821D826A
:103B00001E821C861B8648EE53E060E070E04D8705
:103B10005E876F87788B2AE431E03A872987988F10
:103B20008F8B198E1A8E1B8E1C8E24E029A39BA7C7
:103B30008AA71CA61DA61EA61FA6D8011C968C919E
:103B4000843060F40E94AA10882321F0F801848553
:103B50000E94811084E0D8011C968C938091C6034A
:103B60009091C703A091C803B091C9038EA39FA3EE
:103B7000A8A7B9A78B839C83AD83BE8318861F82B9
:103B8000AE01465D5F4FB601CE0101960E94931AC9
:103B90000097C1F0D801ED91FC910684F785E02DE6
:103BA00084E991E09DA38CA38CA59DA5AEA5BFA59E
:103BB0008EA39FA3A8A7B9A7A701BE016C5D7F4FE5
:103BC000C8010995AF960FB6F894DEBF0FBECDBF02
:103BD000DF91CF911F910F91FF90EF90DF90CF90E9
:103BE0000895CF93DF931F92CDB7DEB741E050E049
:103BF000BE016F5F7F4FFC0184850E941E1918165D
:103C0000190634F4898190E00F90DF91CF910895E7
:103C10008FEF9FEFF9CF0F931F93CF93DF93EC01BB
:103C20000E942109688779878A879B87CE010E9435
:103C3000F11D97FF15C00E942109088519852A8565
:103C40003B85601B710B820B930B0C811D812E81B8
:103C50003F81601771078207930740F38FEF9FEF53
:103C6000DF91CF911F910F910895FC0184858430DD
:103C700010F40C941E1990E080E008950F931F93A8
:103C8000CF93DF9300D0CDB7DEB7FC01248524307D
:103C9000E0F48C0180E591E00E94F40622E030E03F
:103CA000AE014F5F5F4F60E170E0F80184850E94D4
:103CB000AF1389819A819827892798270F900F90B1
:103CC000DF91CF911F910F91089590E080E0F6CFA2
:103CD000EF92FF920F931F93CF93DF9300D000D00A
:103CE000CDB7DEB78C017B01FB0184858430A8F061
:103CF00084E991E0F8019183808312821382148217
:103D00001582C8010F900F900F900F90DF91CF9107
:103D10001F910F91FF90EF90089580E591E00E9430
:103D2000F40624E030E0AE014F5F5F4F6CE070E0DE
:103D3000F70184850E94AF1384E991E0F801918333
:103D4000808389819A81AB81BC8182839383A483A0
:103D5000B583D7CF0F931F93CF93DF9300D0CDB709
:103D6000DEB7FC0124852430E0F48C0180E591E08D
:103D70000E94F40622E030E0AE014F5F5F4F64E046
:103D800070E0F80184850E94AF1389819A81982799
:103D9000892798270F900F90DF91CF911F910F9156
:103DA000089590E080E0F6CFAF92BF92CF92DF927D
:103DB000EF92FF920F931F93CF93DF93CDB7DEB7B0
:103DC000C456D1090FB6F894DEBF0FBECDBF6C014B
:103DD000062F660F110BC8010E94E12E9E012F5F76
:103DE0003F4F79015901021B130BF501EE19FF0931
:103DF000882349F0C8018A0D9B1D0E94E12EF50120
:103E000081935F01F2CFEE0DFF1D1082B701C60155
:103E10000E94410FC601CC59DF4F0FB6F894DEBFA8
:103E20000FBECDBFDF91CF911F910F91FF90EF900B
:103E3000DF90CF90BF90AF900895CF92DF92EF9236
:103E4000FF920F931F93CF93DF937B01DB011496B7
:103E5000CD90DC90D0E0C0E0082F880F110BCC157E
:103E6000DD05D4F4F70184819581C817D90728F4BA
:103E70000190F081E02D309761F41092CC02ECECCF
:103E8000F2E06081C8018C0F9D1F0E94E92E2196EF
:103E9000E6CFEC0FFD1FF5CF60E0C8018C0D9D1D36
:103EA000DF91CF911F910F91FF90EF90DF90CF9016
:103EB0000C94E92E1F920F920FB60F9211242F939C
:103EC0003F934F935F936F937F938F939F93AF93A2
:103ED000BF93EF93FF9389E093E00E94BD07FF91AA
:103EE000EF91BF91AF919F918F917F916F915F9172
:103EF0004F913F912F910F900FBE0F901F901895EB
:103F00001F920F920FB60F9211242F938F939F93AE
:103F1000EF93FF93E0911903F0911A038081E091F0
:103F20001F03F091200382FD1BC09081809122032A
:103F30008F5F8F7320912303821741F0E09122035A
:103F4000F0E0E75FFC4F958F80932203FF91EF91A4
:103F50009F918F912F910F900FBE0F901F901895EA
:103F60008081F4CF1F920F920FB60F9211242F93DE
:103F70003F938F939F93AF93BF938091CE02909185
:103F8000CF02A091D002B091D1023091CD0223E0B6
:103F9000230F2D3758F50196A11DB11D2093CD0299
:103FA0008093CE029093CF02A093D002B093D1021F
:103FB0008091D2029091D302A091D402B091D50207
:103FC0000196A11DB11D8093D2029093D302A093BC
:103FD000D402B093D502BF91AF919F918F913F9141
:103FE0002F910F900FBE0F901F90189526E8230F6A
:103FF0000296A11DB11DD2CFE9E0F3E01382128237
:1040000088EE93E0A0E0B0E084839583A683B78335
:1040100082E891E09183808385EC90E095878487A6
:1040200084EC90E09787868780EC90E0918B808B82
:1040300081EC90E0938B828B82EC90E0958B848B6B
:1040400086EC90E0978B868B118E128E138E148ED9
:10405000E6EAF3E084E991E091838083128213829F
:1040600014821582ECEAF3E091838083128213823A
:1040700014821582E2EBF3E0918380831282138233
:1040800014821582E8EBF3E091838083128213821D
:1040900014821582EEEBF3E0918380831282138207
:1040A00014821582EAECF3E09183808312821382FA
:1040B00014821582E4ECF3E09183808312821382F0
:1040C00014821582E0EDF3E09183808312821382E3
:1040D00014821582E6EDF3E09183808312821382CD
:1040E00014821582E9E0F4E09183808312821382C6
:1040F0001482158260E085E00E949808E0E8FDE007
:10410000E491ABEFB3E0EC93ECE6FDE0E491F0E09A
:10411000EE0FFF1FE35AF24F8591949112969C93F4
:104120008E9311971B961C921B971D961C921D97A0
:104130001C961C921C971A961C921A9719961C9200
:10414000199718961C92189717961C9217971696FF
:104150001C92169715961C92159714961C921497FC
:1041600013961C921397E8EEF3E08BEF96E0928B98
:10417000818BB683A5831482108289E0818381E0DC
:1041800082838383E2EEF3E0138212828AE991E074
:104190009183808380E590E09583848368EA71E071
:1041A0008CED93E00C94410FCF93DF93CDB7DEB746
:1041B000CA55D1090FB6F894DEBF0FBECDBF7894B3
:1041C00084B5826084BD84B5816084BD85B582601C
:1041D00085BD85B5816085BD80916E0081608093CD
:1041E0006E00109281008091810082608093810036
:1041F0008091810081608093810080918000816046
:10420000809380008091B10084608093B1008091A0
:10421000B00081608093B00080917A0084608093C8
:104220007A0080917A00826080937A0080917A008F
:10423000816080937A0080917A00806880937A0010
:104240001092C1006AE0CE01C1960E94D41E64E6BD
:10425000CE0182960E94D41E68EA71E0CE01C1961A
:104260000E94530E811108C070E060E0CE01C1963B
:104270000E94530E882381F069EA71E0CE01019615
:104280000E94410FBE016F5F7F4F84E60E941D1F99
:10429000CE0101960E94560F68EA71E0CE01829627
:1042A0000E94530E811108C070E060E0CE0182963A
:1042B0000E94530E882381F06AEA71E0CE010196D4
:1042C0000E94410FBE016F5F7F4F8AE00E941D1F59
:1042D000CE0101960E94560FE091ED03F091EE039E
:1042E000138615861486128611861086178216820A
:1042F0001582148213821092EC0301E0BE016F5FFD
:104300007F4F8091ED039091EE030E94F80C88237B
:1043100009F455C067E0CE0101960E942D099885E9
:104320008913ECCF8091E803811128C08091ED03BF
:104330009091EE030E94DF09BE016F5F7F4F809175
:10434000ED039091EE030E94C00940E064EB809180
:10435000ED039091EE030E948C098091ED03909102
:10436000EE030E943909182F8091ED039091EE031E
:104370000E94DF09111102C00093E8031091E903C4
:104380008981803111F40C94BB29CE0101960E94E1
:10439000630A811750F48091E9038093E9038091C7
:1043A000EC038F5F8093EC03A9CF8981803111F4F6
:1043B0008CE0F3CFCE0101960E94630AEECF61E05C
:1043C00086E00E94980861E086E00E944C08E09137
:1043D0001903F0911A0382E08083E0911503F091B4
:1043E00016031082E0911703F091180380E1808397
:1043F00010922103E0911D03F0911E0386E080835B
:10440000E0911B03F0911C03808180618083E09127
:104410001B03F0911C03808188608083E0911B0363
:10442000F0911C03808180688083E0911B03F091F0
:104430001C0380818F7D80830E94C80C60ED77E033
:1044400080E090E00E94EE0804E911E01A830983FD
:104450008091000190910101A0910201B0910301AE
:104460008B839C83AD83BE83CE0101960E948D1108
:1044700082EE93E00E942A166FEE72E089E093E0EC
:104480000E94410E61ED72E089E093E00E94410ECE
:1044900061EB72E089E093E00E94410E1A83098388
:1044A0001B821C821D821E8280E591E00E94F40620
:1044B00044E050E0BE016D5F7F4F8FE090E00E94CE
:1044C000C90FCE0101960E941F0E88E199E20FB636
:1044D000F894A895809360000FBE90936000CE0181
:1044E00082960E94560FCE01C1960E94560FA89543
:1044F0000E942109C090DA02D090DB02E090DC0239
:10450000F090DD026C197D098E099F0960317742B8
:104510008105910528F4CD28CE28CF2809F09EC02A
:104520000E9421096093DA027093DB028093DC021F
:104530009093DD0269E27DE089E093E00E94410E04
:1045400084E991E09A8389831B821C821D821E82EA
:1045500080E591E00E94F40644E050E0BE016D5F0A
:104560007F4F8FE090E00E94C90FCE0101960E941C
:104570001F0EE091ED03F091EE031386158614866D
:104580001286118610861782168215821482138273
:10459000BE016E5D7F4F8091ED039091EE030E940E
:1045A000F80C811192C060E070E08EEF92EC6093A5
:1045B000D6027093D7028093D8029093D9026AE012
:1045C000CE0182960E94D41E64E6CE0101960E941E
:1045D000D41E8AA19BA1812C912C5401009721F01B
:1045E0000E94E2294B015C0189819A81C12CD12C66
:1045F0007601009721F00E94E2296B017C01209155
:10460000D6023091D7024091D8025091D902C5010B
:10461000B4010E946A2F4B015C01A70196010E9420
:10462000063018160CF0B1C06FE17DE089E093E030
:104630000E94410E6FEA71E08CED93E00E94200F22
:1046400060E086E00E944C080E94C80CCE010196F2
:104650000E94560FCE0182960E94560F62EE73E0C2
:10466000CE0182960E9445188EA5843008F076C649
:10467000CE0182960E94D810882309F46FC6CE011D
:1046800082960E941519892B99F32DB63EB668EAD9
:1046900071E0CE01875B9F4F0E94410FCE01829651
:1046A0000E940B1E97FD9BC08A30910509F497C0AC
:1046B00089831A8241E050E0BE016F5F7F4FCE01D7
:1046C000875B9F4F0E94980EE9CF67E0CE018296EC
:1046D0000E942D0999A5891366CF8091ED039091D1
:1046E000EE030E94DF09882309F45DCFBE016F5FEE
:1046F0007F4FCE0182960E94170A882309F453CF78
:1047000068E0CE0101960E942D09998589134BCF4F
:104710006A8170E0762F6627770F770F770F2981F0
:1047200048E0249F90011124262B372B8AA1803149
:10473000D1F4688570E08F81AB01481B5109CA0133
:104740009695982F8827979587950E941030CB01D2
:104750004097B90153E0660F771F5A95E1F76078EB
:104760009C01260F371F213854EE35070CF41BCF60
:10477000B901330F880B990B0E94C12D20E030E066
:1047800040E05CE30E94202E12CFC701B601905892
:10479000A50194010E940630181674F464E17DE0CE
:1047A00089E093E00E94410E62EB71E08CED93E0B2
:1047B0000E94200F61E045CF62EA7CE089E093E04F
:1047C0000E94410E69E87CE089E093E00E941B07AB
:1047D0006CED73E089E093E00E942F0E35CF2F96A9
:1047E000EEACFFAC2F97C70101962DB73EB7281B43
:1047F000390B0FB6F8943EBF0FBE2DBF4DB75EB755
:104800004F5F5F4F6A01E114F10479F051E0E51A5E
:10481000F1082B966EAD7FAD2B97A701C6010E94C4
:104820004E32F601EE0DFF1D108266E771E0C60103
:104830000E94E62966E771E090E080E00E94E629A8
:104840007C01BC01CE0101960E94410F66EB71E034
:10485000CE0101960E94530E182FCE0101960E94A0
:10486000560F112309F4F2C20E94210920E03CE511
:1048700046E255E00E94392F63962CAF3DAF4EAF14
:104880005FAF63970E94210920E03CE546E255E0D6
:104890000E94392F20E83EEE46E350E00E94392F77
:1048A00067962CAF3DAF4EAF5FAF67970E9421096F
:1048B00020E03CE546E255E00E94392F20E83EEE3C
:1048C00046E350E00E94392F20E63AEE40E050E007
:1048D0000E94392F6B962CAF3DAF4EAF5FAF6B97F9
:1048E0000E94210920E03CE546E255E00E94392F74
:1048F00020E83EEE46E350E00E94392F20E63AEEF3
:1049000040E050E00E94392F28EE33E040E050E0D4
:104910000E94392F49015A0169E77CE0CE01829655
:104920000E94410E61E67CE0CE0182960E94410E1B
:10493000CE0182960E941B0E61E57CE0CE0182963C
:104940000E94410E6AE47CE0CE0182960E94410EF4
:1049500063E47CE0CE0182960E94410E63E27CE03B
:10496000CE0182960E94410E62E07CE0CE018296EA
:104970000E94410E6AEA7BE0CE0182960E94410EBF
:1049800061E57BE0CE0182960E94410E6FEF7AE0F6
:10499000CE0182960E94410E61EF7AE0CE018296AE
:1049A0000E94410E62EB7AE0CE0182960E94410E97
:1049B00068EA7AE0CE0182960E94410E61E97AE0CF
:1049C000CE0182960E94410E61E67AE0CE01829687
:1049D0000E94410E65E37AE0CE0182960E94410E6C
:1049E00060EF79E0CE0182960E94410E6BE879E09B
:1049F000CE0182960E94410E6BE679E0CE0182964E
:104A00000E94410E68E579E0CE0182960E94410E37
:104A10006CE279E0CE0182960E94410E69E179E074
:104A2000CE0182960E94410E6BEF78E0CE01829615
:104A30000E94410E6CEB78E0CE0182960E94410EFE
:104A400063EB78E0CE0182960E94410E60E678E04A
:104A5000CE0182960E94410E6EE578E0CE018296EC
:104A60000E94410E6FE478E0CE0182960E94410ED2
:104A700065E478E0CE0182960E94410E6BE378E017
:104A8000CE0182960E94410E68E078E0CE018296C7
:104A90000E94410E60E078E0CE0182960E94410EB5
:104AA00069EF77E0CE0182960E94410E63EB77E0DA
:104AB000CE0182960E94410E69E877E0CE0182968F
:104AC0000E94410E6AE0CE0101960E94D41E68EB5E
:104AD00071E0CE01C1960E94410FBE016F5F7F4F12
:104AE000CE01C1960E94EC0E68E072E00E94D60EE4
:104AF000BC01CE0182960E942F0ECE01C1960E946B
:104B0000560FCE0101960E94560F64E6CE01019623
:104B10000E94D41E6EE072E0CE01C1960E94410F49
:104B2000BE016F5F7F4FCE01C1960E94EC0E68E020
:104B300072E00E94D60EBC01CE0182960E942F0E1A
:104B4000CE01C1960E94560FCE0101960E94560FCB
:104B50006EE477E0CE0182960E94410E62E477E037
:104B6000CE0182960E94410E6FEA71E08CED93E0D7
:104B70000E94530E882331F065E177E0CE018296E2
:104B80000E94410E62EB71E08CED93E00E94530EA7
:104B9000882331F069EE76E0CE0182960E94410EC4
:104BA0006EEC76E0CE0182960E94410E65EA76E0D8
:104BB000CE0182960E941B07C090D602D090D702E9
:104BC000E090D802F090D902A7019601C701B60182
:104BD0000E940B3068E572E081111BC0260137018D
:104BE000E89477F82FEF3FEF4FE75FE7C301B2019B
:104BF0000E940B308111ACC02FEF3FEF4FE75FE712
:104C0000C301B2010E94BA2D18160CF0A1C06CE5C8
:104C100072E0CE0182960E94760D60EA76E0CE01C7
:104C200082960E94410E6BE976E0CE0182960E9448
:104C30001B076BE876E0CE0182960E941B072AE0F4
:104C400063964CAD5DAD6EAD7FAD6397CE01829640
:104C50000E94850D69E876E0CE0182960E941B07CE
:104C600067E876E0CE0182960E941B072AE06796ED
:104C70004CAD5DAD6EAD7FAD6797CE0182960E9463
:104C8000850D65E876E0CE0182960E941B0763E8F9
:104C900076E0CE0182960E941B072AE06B964CAD0F
:104CA0005DAD6EAD7FAD6B97CE0182960E94850D96
:104CB00061E876E0CE0182960E941B076FE776E0FE
:104CC000CE0182960E941B072AE0B501A401CE0105
:104CD00082960E94850D6DE776E0CE0182960E9455
:104CE0001B076CE076E0CE0182960E94410E69EDD2
:104CF00075E0CE0182960E94410E6FEC75E0CE0108
:104D000082960E94410E67EC75E0CE0182960E9469
:104D1000410E6FEB75E0CE0182960E94410E61E07C
:104D200070E080E090E00E94EE08CE0182960E9442
:104D3000FA10CE0182960E942917CE01875B9F4F01
:104D40000E94560F0FB6F8943EBE0FBE2DBE90CCFB
:104D50002FEF3FEF4FE75FE4C701B6010E94063037
:104D600018161CF460E672E054CF2FEF3FEF4FE7C8
:104D70005FECC701B6010E94BA2D87FDF3CF20E09A
:104D800030E0A901C701B6010E94BA2D87FF09C012
:104D90006DE2CE0182960E943C0CF7FAF094F7F88F
:104DA000F0942AE037ED43EA5BE3C701B6010E94C5
:104DB0006B2F2B013C010E94D72F6B017C010E94BD
:104DC000BF2D9B01AC01C301B2010E946A2F2B01D0
:104DD0003C012AE0B701A601CE0182960E94850D12
:104DE0006EE2CE0182960E943C0C20E030E040E270
:104DF00051E4C301B2010E94202E2B013C010E940C
:104E0000D72F6B01F12CE12C2AE0B701A601CE01CE
:104E100082960E94850DC701B6010E94BF2D9B019D
:104E2000AC01C301B2010E946A2F20E030E040E2F1
:104E300051E40E94202E0E94D72FAB0170E060E069
:104E40002AE0CE0182960E94850DE7CEB701CE0101
:104E500001960E94410F64E672E0CE0101960E9425
:104E6000530E182FCE0101960E94560F112309F4FC
:104E700083C06FEA75E0CE0182960E94410E60E920
:104E800075E0CE0182960E94410ECE0182960E946C
:104E90001B0E6EE875E0CE0182960E94410E60E81E
:104EA00075E0CE0182960E941B0764E6CE01019652
:104EB0000E94D41EBE016F5F7F4FCE0182960E947A
:104EC0000D07CE0101960E94560F6EE775E0CE01E8
:104ED00082960E94410E68E675E0CE0182960E949D
:104EE0001B076AE0CE0101960E94D41EBE016F5FCF
:104EF0007F4FCE0182960E940D07CE0101960E943F
:104F0000560F66E675E0CE0182960E94410E60E57E
:104F100075E0CE0182960E941B076091D6027091C7
:104F2000D7028091D8029091D9021AAA19AA1CAA74
:104F30001BAA1EAA1DAA8E010F5F1F4F22E044E08C
:104F40000E94C429009799F0BC01CE01C1960E942D
:104F5000200FBE016F5C7F4FCE0182960E942F0E04
:104F6000CE01C1960E94560F6EE475E0D4CECE01FC
:104F7000C1960E94C40EEDCFB701CE0101960E94EA
:104F8000410F63E772E0CE0101960E94530E182F85
:104F9000CE0101960E94560F112329F0CE01829670
:104FA0000E94FA10CACEB701CE018D5B9F4F0E94BE
:104FB000410F60E872E0CE0101960E94410F4D81E1
:104FC0005E8129968EAD9FAD29978417950788F04D
:104FD00025968EAD9FAD2597009759F069817A810E
:104FE0006115710531F00E94403211E0892B09F002
:104FF00010E0CE0101960E94560F112309F495C1CD
:1050000064E771E0C7010E94E629009729F0BC011E
:1050100089E093E00E94760D89E093E00E941B0EE8
:1050200064E771E090E080E00E94E62962E771E0C9
:105030000E94E6296C0162E771E090E080E00E9446
:10504000E6297C0160E771E0C6010E94E62960E77D
:1050500071E090E080E00E94E6296C0160E771E079
:10506000C7010E94E62960E771E090E080E00E94BD
:10507000E6297C01B601CE01CD960E94410FB70111
:10508000CE01C7960E94410F1A8219821C821B8290
:105090001E821D82BE01635C7F4FCE0101960E947D
:1050A0002A0FCE0101960E945E0F182FCE010196A5
:1050B0000E94560F112309F4E3C0B601CE010196F8
:1050C0000E94410FBE016F5F7F4F8AE00E941D1F4B
:1050D000CE0101960E94560F1A8219821C821B82F1
:1050E0001E821D82BE01695C7F4FCE0101960E9427
:1050F0002A0FCE0101960E945E0F182FCE01019655
:105100000E94560F112309F4C2C0B701CE010196C7
:105110000E94410FBE016F5F7F4F84E60E941D1FFA
:10512000CE0101960E94560F67EC74E0CE01829684
:105130000E94410E6FEA74E0CE0182960E94410EF9
:10514000CE0182960E941B0E6FE974E0CE0182961A
:105150000E94410E68E974E0CE0182960E94410EE1
:1051600061E974E0CE0182960E94410E6AE774E024
:10517000CE0182960E94410E69E474E0CE018296CF
:105180000E94410E66E174E0CE0182960E94410EBB
:105190006EE074E0CE0182960E94410E67E074E0FA
:1051A000CE0182960E94410E60ED73E0CE018296A0
:1051B0000E94410E1A8219821C821B821E821D824D
:1051C000BE01695C7F4FCE0101960E942A0FCE017D
:1051D00001960E945E0F11E08823B9F01AAA19AA5D
:1051E0001CAA1BAA1EAA1DAABE01695C7F4FCE0184
:1051F000C1960E942A0FCE01C1960E945E0F11E057
:105200001827CE01C1960E94560FCE0101960E942A
:10521000560F112309F442C066E673E0CE01829670
:105220000E94410E6AE373E0CE0182960E94410E15
:1052300062E373E0CE0182960E94410E6AE273E05F
:10524000CE0182960E94410E61E070E080E090E025
:105250000E94EE08CE0182960E94FA10CE0182963C
:105260000E942917CE01C7960E94560FCE01CD96F7
:105270000E94560FCE018D5B9F4F0E94560F5DCD51
:105280006FE075E089E093E00E94410E25CF67ED65
:1052900074E089E093E00E94410E46CFB601CE0152
:1052A00001960E94410F6DE872E0CE01C1960E9406
:1052B000410FBE016F5F7F4FCE01C1960E94EC0E81
:1052C0006DEA72E00E94D60EBC01CE0182960E9469
:1052D0002F0ECE01C1960E94560FCE0101960E945C
:1052E000560FB701CE0101960E94410F63EB72E0A9
:1052F000CE01C1960E94410FBE016F5F7F4FCE016C
:10530000C1960E94EC0E6DEA72E00E94D60EBC01BE
:10531000CE0182960E942F0ECE01C1960E94560F9A
:10532000CE0101960E94560F7DCF63E173E0CE015E
:1053300082960E94410ECE0182960E941B0E61E071
:1053400070E080E090E00E94EE08CE0182960E941C
:10535000FA10CE0182960E9429178CCF80E090E04F
:10536000892B09F4C4C80E94A907882309F4BFC87F
:105370000E940000BCC81D3010F00C94CB2118C84E
:105380008CED93E00C94560FEF920F931F93CF93F5
:10539000DF93E80134E047FD34E1042E000C550BA7
:1053A00057FF03C0519541955109E32E022F242F39
:1053B000AE010E94122ACE01DF91CF911F910F9171
:1053C000EF900895662777270C94712B4FE054E0F7
:1053D0000E94EB290895FA01A191B081009719F478
:1053E0001097E1F0CD01DC01CD010D90002011F40A
:1053F000C00113C0FB012191222319F02015D9F718
:10540000F3CFFB012191201519F41E92119606C0CD
:105410002223C1F70D900020A1F7D001FA01A1933A
:10542000B0830895A9E0B0E0E8E1FAE20C94082F17
:105430006A01F22EB02E102FFBE3AF2EA01608F457
:105440001BE31F5F012F27E0AE014F5F5F4F0E94FC
:10545000C12CBC018981982F9970913009F43FC00B
:105460009BE2E1FC04C09E2D9170E0FC3AC05E2DF1
:105470005071E82FE87083FF46C084E0911101C0AD
:1054800083E0EF2DE81B8F1508F0E0E0D6018E2FAA
:1054900020E2552351F1992329F0D6019C93C601AE
:1054A00001966C0196012D5F3F4FE2FE24C08EE411
:1054B000D6018C9391E411969C93119712968C933C
:1054C000D9018E2F90E281111BC0E20FF32FF11D45
:1054D00010828EEF9FEF2996ECE00C94242F9DE232
:1054E000C6CF90E2C4CF2D9381508111FCCFCE0E58
:1054F000D11CE0E0D0CF8EE6D6018C9391E6DBCFD5
:105500009D938150E0CF482F447082FF3DC084E0DE
:10551000911101C083E08F1510F4EF2DE81BD60127
:105520008E2F20E2552309F1992329F0D6019C936F
:10553000C60101966C0196012D5F3F4FE2FE1BC034
:1055400089E4D6018C938EE411968C93119786E4AE
:1055500012968C93D9018E2F90E2882309F4B5CF4F
:105560009D938150FACF2D9381508111FCCFCE0EA7
:10557000D11CE0E0D9CF89E6D6018C938EE6119656
:105580008C93119786E6E4CF9B0177FF02C030E051
:1055900020E0A1E0B0E0911102C0B0E0A0E0F9018C
:1055A0003196AE0FBF1F8B2C912CBB2009F461C02C
:1055B0005401EFEFAE1ABE0AAA0DBB1DFA161B0668
:1055C00019F014F04F2D4A1B511188C0E3FC59C04B
:1055D0007601A42FB0E2A1114FC0C40ED11C9923B3
:1055E00009F45BC040E0D6011196F60190836D018D
:1055F000552309F448C0012F060F9A81582F507186
:1056000084FF03C0913309F4015010160CF047C019
:10561000093008F008E0EEE2FE2E5B01A01AB108A6
:1056200085019194819491082F3F320729F4D60186
:10563000FC92F60131966F016217730794F102171D
:1056400013077CF5DB01A21BB30BAA24A394B12C96
:10565000AC0EBD1EAA0DBB1D11968C9121503109B7
:10566000D601119628153905F4F0F60180836D01F5
:10567000DBCFB12CA12CA0CFF701B1937F01A150BA
:10568000AACF9111B0CFD601942F50E302C05D9301
:1056900091509111FCCFC40ED11C40E0ACCF01E081
:1056A000BACF80E3DBCF6217730731F4963388F407
:1056B000953311F4552369F0F6018083FD01842FA1
:1056C00090E2811108C0A40FB11D1C9290E080E00F
:1056D00002CF81E3F1CF91938150F3CF911183CF2A
:1056E0008ACFB0E0A0E0E7E7FBE20C94082F5C0172
:1056F0007B016115710519F0DB018D939C93850188
:105700000F5F1F4FF501D0818D2F90E00E94992DE2
:105710006C01892BB9F5DD32B9F50F5F1F4FD5014B
:105720001196DC91C1E05801F1E0AF1AB10843E0F5
:1057300050E060E770E0C5010E94A22D892B69F559
:10574000680182E0C80ED11C45E050E06BE670E0D5
:10575000C6010E94A22D892B21F4680197E0C90E91
:10576000D11CE114F10419F0D701CD92DC9260E074
:1057700070E080E89FEFC111FFC060E070E080E85A
:105780009FE7FAC05801BBCFDB3229F485010E5FD9
:105790001F4FF501D181C0E0C6CF43E050E068E67D
:1057A00070E0C5010E94A22D892BE9F0F80110E0FC
:1057B00000E020E030E0A9015F01B0ED8B2E8D0EFE
:1057C00089E08815C8F19C2E689491F88C2F887018
:1057D000C2FF16C0811102C00F5F1F4F3196D50165
:1057E000DC91C92DE9CFE114F10429F00E5F1F4FC0
:1057F000F7011183008360E070E080EC9FE7BCC09C
:10580000882311F001501109A5E0B0E00E94F72EA5
:105810009B01AC01220F331F441F551F280D311D62
:10582000411D511D283999E93907490799E159075F
:10583000A8F2C6609C2ED2CFAEEF8A1206C0C3FD7E
:105840003CC09C2E689493F8C9CFDF7DD534A9F570
:1058500080818D3239F4C061DF011296818162E06E
:1058600070E006C0DF018B32C1F3119661E070E099
:1058700080535D01A61AB70A8A30F8F4E0E8CE1624
:10588000ECE0DE065CF4B601660F771F660F771F4B
:10589000C60ED71ECC0CDD1CC80ED11C5D01FFEF5F
:1058A000AF1ABF0A8C9180538A30A8F1C4FF03C09D
:1058B000D194C194D1080C0D1D1DC1FF09C0E11484
:1058C000F10431F081E0A81AB108D701AD92BC9281
:1058D000CA01B9010E94BF2DC370C33009F49058AA
:1058E0004B015C0120E030E0A9010E94BA2D882321
:1058F00009F440C0CFE9D0E017FF05C0119501952C
:105900001109C7E8D0E06E01B8E1CB1AD10880E2F6
:10591000E82EF12C0FC0D501B1CFFE0125913591B4
:10592000459154910E191F09C501B4010E94202E02
:105930004B015C01D501C4010E151F0574F72497B6
:10594000F594E794CC16DD06A9F78A2F880F8B2FE4
:10595000881F8F3F49F020E030E0A901C501B40164
:105960000E94BA2D811106C082E290E09093120449
:1059700080931104C501B401CDB7DEB7ECE00C94FF
:10598000242F283008F027E03327DA01990F311D42
:1059900087FD916000966105710539F432602E5FD4
:1059A0003D9330E32A95E1F708959F3F30F080382A
:1059B0007105610509F03C5F3C5F3D93913008F053
:1059C0008068911DDF93CF931F930F93FF92EF9207
:1059D000192F987F9695E92F96959695E90FFF27B1
:1059E000E350FF4F99273327EE24FF24A701E70157
:1059F00005900894079428F4360FE71EF81E491FF7
:105A0000511D660F771F881F991F0694A1F70590F7
:105A1000079428F4E70EF81E491F561FC11D770F83
:105A2000881F991F661F0694A1F70590079428F414
:105A3000F80E491F561FC71FD11D880F991F661FDB
:105A4000771F0694A1F70590079420F4490F561F7D
:105A5000C71FD81F990F661F771F881F0694A9F7C5
:105A600084911095177041F0D695C7955795479535
:105A7000F794E7941A95C1F7E3EAF0E0689415907B
:105A8000159135916591959105907FE27395E11897
:105A9000F10A430B560BC90BD009C0F7E10CF11EFC
:105AA000431F561FC91FD01D7EF4703311F48A9511
:105AB000E6CFE894015030F0080F0AF400270217EF
:105AC00008F4202F2395022F7A3328F079E37D9371
:105AD0002A95E9F710C07D932A9589F60694979543
