:100000000C9405050C942D050C942D050C942D05D0
:100010000C942D050C942D050C942D050C942D0598
:100020000C942D050C942D050C942D050C942D0588
:100030000C942D050C942D050C942D050C942D0578
:100040000C94141C0C942D050C94E21B0C94BC1BFA
:100050000C942D050C942D050C942D050C942D0558
:100060000C942D050C942D054E414E494E49545982
:10007000494E46CDCCCC3D0AD7233C17B7D1387773
:10008000CC2B329595E6241FB14F0A000020410089
:1000900000C84200401C4620BCBE4CCA1B0E5AAED3
:1000A000C59D7400407A10F35A00A0724E180900E2
:1000B00010A5D4E80000E87648170000E40B5402CD
:1000C0000000CA9A3B000000E1F505000080969808
:1000D00000000040420F000000A086010000001058
:1000E0002700000000E8030000000064000000009A
:1000F000000A00000000000100000000002C76D87B
:1001000088DC674F0823DFC1DFAE59E1B1B796E560
:10011000E3E453C63AE651997696E8E6C28426EBC4
:10012000898C9B62ED407C6FFCEFBC9C9F40F2BAD7
:10013000A56FA5F490055A2AF75C936B6CF9676D6F
:10014000C11BFCE0E40D47FEF520E6B500D0ED90C4
:100150002E0300943577050080841E080000204E91
:100160000A000000C80C333333330F986E1283112A
:1001700041EF8D2114893BE65516CFFEE6DB18D101
:10018000844B381BF77C1D901DA4BBE424203284D3
:10019000725E228100C9F124ECA1E53D27005EBC1E
:1001A000E2613FDD83C29C7E20A3FD1F419DC321F0
:1001B0007FFCA2401E5F01E3BD3E6082DC237D9F89
:1001C000C1421CFEA0E1BF5D0380DE3C62BEE002D6
:1001D0005CDF81633D7C22C09E1D43A1FF4618FA6F
:1001E000A427799BC584DA3866E5BB5907DB8567A8
:1001F00039BAE406581947A5FB7826C49A653BD955
:1002000087045AB8E6A7F91B45C6987A24F8A6448D
:100210001A99C7257B3A6486D85B05E7B98CD2303A
:100220006EEDB3510F4E10F2AC2F7193CD114FAD57
:10023000F3702ECC92D38D6F31B2EC0E50AFF11320
:100240004DCE90722C6D33D18F0C52B0EE326C8E3D
:10025000D0530DEFB1F0AE4C1291CF2D73CA9476FE
:1002600028ABF517490856B4EA6937D58B5709EB1F
:10027000B536688AD495CB2977F4AA4816E9B755DC
:100280000B88D6346A2B7597C94A14F6A8742AC805
:1002900096154BA9F7B6E80A54D7896B35000000CC
:1002A00000250028002B00000000080002010000CB
:1002B000030407000000000000000000000000240C
:1002C0000027002A00485454502F312E312034305A
:1002D00034204E6F7420466F756E64003C2F687436
:1002E0006D6C3E003C2F626F64793E003C623E5074
:1002F0007265736D65726F76616E69652E2E2E2044
:1003000050726F73696D2063616B616A74653C2F15
:10031000623E3C2F63656E7465723E003C63656EA1
:100320007465723E3C68333E536572766572207028
:1003300072696A616C2064617461207A20666F72F0
:100340006D756CC3A172613A3C2F68333E003C620C
:100350006F64793E003C2F686561643E003C7469BF
:10036000746C653E485454502077656273657276AC
:100370006572202D2041726475696E6F202B2045B7
:10038000746865726E65743C2F7469746C653E00A8
:100390003C6D65746120687474702D657175697643
:1003A0003D27526566726573682720636F6E7465BA
:1003B0006E743D27353B2075726C3D2F27202F3EF4
:1003C000003C6D65746120636861727365743D27DC
:1003D0007574662D38273E003C686561643E003CBC
:1003E00068746D6C3E003C21444F43545950452085
:1003F00068746D6C3E00436F6E74656E742D547935
:1004000070653A20746578742F68746D6C00485478
:1004100054502F312E3120323030204F4B007D0090
:100420002241637475616C5F54656D7065726174AF
:10043000757265223A002C00225461726765745F00
:1004400054656D7065726174757265223A002C0096
:100450002248797374657265736973223A007B0070
:10046000436F6E74656E742D547970653A206170B7
:10047000706C69636174696F6E2F6A736F6E004888
:100480005454502F312E3120323030204F4B003C0D
:100490002F68746D6C3E003C2F626F64793E003CA7
:1004A0002F63656E7465723E003C68343E5665721B
:1004B0007A69612066726565202D20312E302E32DA
:1004C000206275696C643A2030312E204F637420AD
:1004D000323032303C2F68343E003C68333E417548
:1004E000746F723A204D617274696E2043686C6556
:1004F000626F766563202D206D617274696E697517
:1005000073393640676D61696C2E636F6D202D20E5
:1005100068747470733A2F2F6D617274696E6975A7
:100520007339362E6769746875622E696F2F74652A
:10053000726D6F737461742D65746865726E657425
:100540002F3C2F68333E00730020006D00200068B0
:1005500000200064003C623E557074696D653A206D
:100560003C2F623E003C68723E0020C2B043003C1B
:10057000623E416B7475C3A16C6E61207465706CD2
:100580006F74612073656E7A6F72612044533138E5
:100590004232303A3C2F623E20003C64697620694A
:1005A000643D22636F756E74646F776E223E3C2FDC
:1005B0006469763E003C623E3C666F6E7420636FF9
:1005C0006C6F723D27726564273E56C3BD737475A8
:1005D000703A205679706E7574C3BD3C2F666F6E8D
:1005E000743E3C2F623E003C623E3C666F6E74205F
:1005F000636F6C6F723D27677265656E273E56C3E9
:10060000BD737475703A205A61706E7574C3BD3CC9
:100610002F666F6E743E3C2F623E003C2F666F72F9
:100620006D3E3C68723E003C696E70757420747952
:1006300070653D277375626D69742720636C617303
:10064000733D2762746E2062746E2D7375636365EB
:100650007373272076616C75653D275A6170C3AD51
:100660007361C5A5273E003C666F726D206163749F
:10067000696F6E3D272F616374696F6E2E68746DAC
:100680006C27206D6574686F643D27676574273E2D
:10069000003C63656E7465723E3C68333E5A61642B
:1006A000616A74652064C3A17461207072652077EB
:1006B00065627365727665722028627564C3BA20BC
:1006C000756C6FC5BE656EC3A920646F204545502B
:1006D000524F4D293A3C2F68333E003C626F64799B
:1006E0003E003C2F686561643E003C7469746C6533
:1006F0003E48545450207765627365727665722067
:100700002D2041726475696E6F202B2045746865D9
:10071000726E65743C2F7469746C653E003C2F7377
:1007200063726970743E007D2C2031303030293B7B
:100730000074696D656C656674202D3D20313B0049
:100740007D00646F63756D656E742E676574456CAE
:10075000656D656E74427949642822636F756E74A5
:10076000646F776E22292E696E6E657248544D4C07
:10077000203D2074696D656C656674202B202220F5
:1007800073656BC3BA6E6420646F207265C5A17413
:1007900061727475223B007D20656C7365207B005F
:1007A000646F63756D656E742E676574456C656DF9
:1007B000656E74427949642822636F756E74646F44
:1007C000776E22292E696E6E657248544D4C203D1D
:1007D00020225265C5A1746172742E2E2E223B0018
:1007E000636C656172496E74657276616C28646FC2
:1007F000776E6C6F616454696D6572293B00696640
:100800002874696D656C656674203C3D2030297BD9
:100810000076617220646F776E6C6F616454696DED
:100820006572203D20736574496E74657276616CE3
:100830002866756E6374696F6E28297B0076617215
:100840002074696D656C656674203D2031303B0015
:100850003C73637269707420747970653D277465A8
:1008600078742F6A617661736372697074273E00D1
:100870003C6C696E6B2072656C3D277374796C6596
:1008800073686565742720687265663D27687474AF
:1008900070733A2F2F6D617863646E2E626F6F7480
:1008A000737472617063646E2E636F6D2F626F6F0D
:1008B0007473747261702F332E342E312F637373FF
:1008C0002F626F6F7473747261702E6D696E2E6318
:1008D0007373273E003C6D657461206E616D653DEC
:1008E0002776696577706F72742720636F6E746501
:1008F0006E743D2777696474683D646576696365E5
:100900002D77696474682C20696E697469616C2D37
:100910007363616C653D31273E003C6D65746120F9
:10092000687474702D65717569763D2752656672BD
:100930006573682720636F6E74656E743D27313070
:10094000273B202F3E003C6D657461206E616D6514
:100950003D27617574686F722720636F6E74656ED2
:10096000743D274D617274696E2043686C65626FD7
:10097000766563273E003C6D657461206368617233
:100980007365743D277574662D38273E003C686595
:1009900061643E003C68746D6C3E003C21444F43F2
:1009A000545950452068746D6C3E00436F6E7465F9
:1009B0006E742D547970653A20746578742F68745C
:1009C0006D6C00485454502F312E3120323030207D
:1009D0004F4B0000000000230026002900040404FF
:1009E00004040404040202020202020303030303D8
:1009F00003010204081020408001020408102001B5
:100A00000204081020005E1CDC2711241FBECFEF5B
:100A1000D8E0DEBFCDBF13E0A0E0B1E0E6ECF2E647
:100A200002C005900D92A632B107D9F724E0A6E2E4
:100A3000B3E001C01D92AD35B207E1F715E0C4E0A7
:100A4000D5E004C02197FE010E94262FC330D107B4
:100A5000C9F70E94391D0C9456310C94000008957A
:100A600020E3FC0120833296862F82958F706F7071
:100A70006A3030F4605D6293682F8111F5CF08957C
:100A8000695CF9CF089521E0FC018485883009F480
:100A900020E0822F0895AF92BF92CF92DF92EF9223
:100AA000FF920F931F93CF93DF936C017B018B0118
:100AB000040F151FEB015E01AE18BF08C017D10768
:100AC00059F06991D601ED91FC910190F081E02DF2
:100AD000C6010995892B79F7C501DF91CF911F9147
:100AE0000F91FF90EF90DF90CF90BF90AF9008955F
:100AF000FC01538D448D252F30E0842F90E0821B24
:100B0000930B541710F0CF96089501970895FC01A8
:100B1000918D828D981761F0A28DAE0FBF2FB11D00
:100B20005D968C91928D9F5F9F73928F90E0089558
:100B30008FEF9FEF0895FC01918D828D981731F012
:100B4000828DE80FF11D858D90E008958FEF9FEF66
:100B50000895FC01918D228D892F90E0805C9F4F3C
:100B6000821B91098F73992708958CE493E00E946A
:100B7000A90521E0892B09F420E0822F089580E067
:100B800090E0892B29F00E94B50581110C9400009A
:100B90000895FC01A48DA80FB92FB11DA35ABF4F12
:100BA0002C91848D90E001968F739927848FA6896C
:100BB000B7892C93A089B1898C91837080648C93C0
:100BC000938D848D981306C00288F389E02D80816F
:100BD0008F7D80830895EF92FF920F931F93CF93A1
:100BE000DF93EC0181E0888F9B8D8C8D98131AC068
:100BF000E889F989808185FF15C09FB7F894EE894F
:100C0000FF896083E889F9898081837080648083AB
:100C10009FBF81E090E0DF91CF911F910F91FF90F6
:100C2000EF900895F62E0B8D10E00F5F1F4F0F739E
:100C30001127E02E8C8D8E110CC00FB607FCFACF59
:100C4000E889F989808185FFF5CFCE010E94C90529
:100C5000F1CFEB8DEC0FFD2FF11DE35AFF4FF0822A
:100C60009FB7F8940B8FEA89FB8980818062CFCF90
:100C7000CF93DF93EC01888D8823B9F0AA89BB89D3
:100C8000E889F9898C9185FD03C0808186FD0DC0BE
:100C90000FB607FCF7CF8C9185FFF2CF808185FFDF
:100CA000EDCFCE010E94C905E9CFDF91CF91089524
:100CB00090E0FC01E955FD4F2491FC01EF50F64F07
:100CC0003491FC01E352F64FE491EE23C9F0222364
:100CD00039F0233001F1A8F4213019F1223029F143
:100CE000F0E0EE0FFF1FE356FD4FA591B4918FB7D3
:100CF000F894EC91611126C030953E233C938FBF50
:100D000008952730A9F02830C9F0243049F78091A0
:100D100080008F7D03C0809180008F77809380005A
:100D2000DFCF84B58F7784BDDBCF84B58F7DFBCFDC
:100D30008091B0008F778093B000D2CF8091B000C7
:100D40008F7DF9CF3E2BDACFCF93DF9390E0FC017C
:100D5000EF50F64F24918352964FFC0184918823E3
:100D6000D1F090E0880F991FFC01E554FD4FA5914B
:100D7000B491FC01E356FD4FC591D49161110EC0B1
:100D80009FB7F8948C91E22FE0958E238C93288165
:100D9000E223E8839FBFDF91CF9108958FB7F89446
:100DA000EC91E22BEC938FBFF6CF3FB7F894809194
:100DB0002C0390912D03A0912E03B0912F0326B503
:100DC000A89B05C02F3F19F00196A11DB11D3FBF83
:100DD000BA2FA92F982F8827BC01CD01620F711D52
:100DE000811D911D42E0660F771F881F991F4A954C
:100DF000D1F708958F929F92AF92BF92CF92DF92D8
:100E0000EF92FF926B017C010E94D5064B015C01C1
:100E1000C114D104E104F104B9F00E94D5066819A7
:100E200079098A099B09683E73408105910580F321
:100E300021E0C21AD108E108F10888EE880E83E0AB
:100E4000981EA11CB11CE4CFFF90EF90DF90CF90D3
:100E5000BF90AF909F908F9008952FB7F8946091B6
:100E600028037091290380912A0390912B032FBFAF
:100E70000895DC0180E0615038F0ED91E827F0E062
:100E8000E356FE4F8491F7CF0895DC012C91119623
:100E9000ED91FC91F8948181822B81839281322F94
:100EA00030959323928387E090E00197F1F7818159
:100EB0008323818383E290E00197F1F79081789416
:100EC000EFECF0E03197F1F7922381E009F480E054
:100ED0000895FC0190810180F281E02D292F209559
:100EE00060FF14C0F8948281822382838181892BE0
:100EF0008183A3E2B0E01197F1F78281982B92836E
:100F0000789487ED90E00197F1F70895F894828145
:100F1000822382838181892B8183AFEFB0E0119797
:100F2000F1F78281982B928378948FE090E0EBCF59
:100F3000DF92EF92FF920F931F93CF93DF93EC0119
:100F4000D62EE42E08E010E0FF24F39461E08D2D0E
:100F50008F2109F460E0CE010E946907FF0C015067
:100F60001109A1F7E11010C0F894E981FA8191818B
:100F70008881809589238183E981FA8192818881A2
:100F80008095892382837894DF91CF911F910F916F
:100F9000FF90EF90DF900895EF92FF920F931F93D1
:100FA000CF93DF938C017B0140E065E50E949807B9
:100FB000E70188E0E80EF11C699140E0C8010E9459
:100FC0009807CE15DF05C1F7DF91CF911F910F91E3
:100FD000FF90EF900895FC0190810180F281E02D57
:100FE000F8948181292F20958223818378943DE78D
:100FF00043E050E0315029F1DA011197F1F7808197
:101000008923C1F3F8948281822382838181892B91
:1010100081837894ABE7B7E01197F1F7F894818179
:1010200082238183A3E1B1E01197F1F780819823B6
:1010300081E009F080E07894E3E6F6E03197F1F79B
:10104000089580E00895AF92BF92CF92DF92EF9221
:10105000FF920F931F93CF93DF938B01BC0180917D
:101060003304909134040E94CC0740E06EEB8091F1
:101070003304909134040E949807E801680189E0E4
:10108000C80ED11CA0903304B090340488E0E82E40
:10109000F12C10E001E0C5010E9445078111102BE1
:1010A000000F81E0E81AF108B1F71993CC16DD06BC
:1010B00049F780913304909134040E94EB0791E04A
:1010C000813009F090E0892FDF91CF911F910F912E
:1010D000FF90EF90DF90CF90BF90AF9008950F9367
:1010E0001F93CF93DF93CDB7DEB729970FB6F89450
:1010F000DEBF0FBECDBF8C018091330490913404CC
:101100000E94EB07811102C080E01FC0BE016F5F2B
:101110007F4FC8010E9423088823B1F368E0CE0105
:1011200001960E94390799858913EECF8D818F33FF
:10113000B9F020F48F3141F789E007C08F3521F0F5
:101140008F3711F78CE001C08BE029960FB6F89429
:10115000DEBF0FBECDBFDF91CF911F910F910895DC
:101160008AE0F3CF61E0809131030C94580660E08F
:10117000809131030C94580608958EBD00000DB483
:1011800007FEFDCF8EB508958CBD9DBD0895DF92FD
:10119000EF92FF920F931F93CF93DF93D82FD92E07
:1011A000C62F7A0189018091E9039091EA030E9498
:1011B000C4080E94B7088D2D0E94BD088D2F0E9483
:1011C000BD088C2F0E94BD08E701E00EF11E80E0F3
:1011D0000E94BD088993EC16FD06C9F70E94B2086B
:1011E000C801DF91CF911F910F91FF90EF90DF9099
:1011F0000895CF93DF93D82FC62F8091E903909164
:10120000EA030E94C4080E94B70880E00E94BD085B
:101210008D2F0E94BD088C2F0E94BD0880E00E9487
:10122000BD08C82F0E94B2088C2FDF91CF9108957E
:10123000DF92EF92FF920F931F93CF93DF93D82FFC
:10124000D92EC62F7A0189018091E9039091EA0392
:101250000E94C4080E94B7088D2D0E94BD088D2FE2
:101260000E94BD088C2F0E94BD08E701E00EF11E10
:10127000CE15DF0521F089910E94BD08F9CF0E94AB
:10128000B208C801DF91CF911F910F91FF90EF90AD
:10129000DF9008951F93CF93DF93182FD62FC42F7D
:1012A0008091E9039091EA030E94C4080E94B70864
:1012B00080E00E94BD08812F0E94BD088D2F0E94F2
:1012C000BD088C2F0E94BD080E94B20881E0DF910A
:1012D000CF911F9108959B018295880F807E6CE0CD
:1012E000680FC9010C944A09CF93DF93EC01898DF3
:1012F0009A8D892B41F0E881F9810284F385E02DF4
:10130000CE010995F4CFDF91CF910895CF93DF936C
:101310001F92CDB7DEB76983DC01ED91FC910280AD
:10132000F381E02D41E050E0BE016F5F7F4F0995F2
:101330000F90DF91CF9108951F93CF93DF93FB011F
:10134000DC0158961C921E9257972281211109C0E8
:101350002381211106C02481211103C0258122236C
:1013600039F14115510521F1EA01DC011C961C916E
:10137000AF014E5F5F4F612F6295660F607E645FC5
:1013800024E030E08CE090E00E9418094D2F60E1ED
:1013900070E0812F0E946B094C2F61E170E0812F7A
:1013A0000E946B0981E090E0DF91CF911F91089539
:1013B00090E080E0F9CFFC01818D928D0895FC01D1
:1013C0008589968908952EE831E0FC0131832083D8
:1013D000FB014189528963897489FC0142835383EB
:1013E00064837583089580E00895CF93DF931F92FF
:1013F000CDB7DEB76983DC01ED91FC910280F3810A
:10140000E02D41E050E0BE016F5F7F4F09950F90E6
:10141000DF91CF9108950895FC019485FB018485A7
:10142000981303C081E0983009F480E00895CF93C9
:10143000DF931F92CDB7DEB76983DC01ED91FC919C
:101440000280F381E02D41E050E0BE016F5F7F4FED
:1014500009950F90DF91CF910895EF92FF920F932E
:101460001F93CF93DF938C017B01D0E0C0E0F701A5
:10147000EC0FFD1F6491662339F0C8010E94170A22
:10148000892B11F02196F3CFCE01DF91CF911F91DF
:101490000F91FF90EF900895DC01ED91FC91028C8B
:1014A000F38DE02D099591E0892708959B018295A0
:1014B000880F807E68E0680FC9010C94F908CF930B
:1014C000C82F462F61E070E00E946B0961E070E078
:1014D0008C2F0E94560A8111F9CFCF910895CF9396
:1014E000C82F60E170E00E945F0A4FEF62E070E099
:1014F0008C2FCF910C946B090F931F93CF93DF9395
:10150000C82FD62F8A010E946F0A4D2F70E060E02D
:101510008C2F0E946B0901151105B9F0412F64E071
:1015200070E08C2F0E946B09402F65E070E08C2FDB
:101530000E946B0961E070E08C2F0E945F0A81E0DD
:10154000DF91CF911F910F91089500914A0310915F
:101550004B030F5F1F4F10934B0300934A03DECFE3
:10156000CF93DF93EC018C85883061F00E946F0A85
:10157000EC85F0E0EE0FFF1FEE5CFC4F1182108255
:1015800088E08C87DF91CF910895CF92DF92EF9220
:10159000FF920F931F93CF93DF93D82E7B018A0185
:1015A000C22E68E270E00E94560AC82FD0E0DC2FFD
:1015B000CC2769E270E08D2D0E94560AC80FD11D1C
:1015C0006D2D6295660F607E685E9801A701CE0161
:1015D0000E94C708C11016C0C00FD11F4D2F68E26E
:1015E00070E08D2D0E946B094C2F69E270E08D2D0B
:1015F000DF91CF911F910F91FF90EF90DF90CF90EF
:101600000C946B09DF91CF911F910F91FF90EF9098
:10161000DF90CF9008950F931F93CF93DF931F9286
:10162000CDB7DEB78C01DC01ED91FC910084F18532
:10163000E02D0995892B91F021E041E050E0BE01B9
:101640006F5F7F4FF80184850E94C50A898190E011
:101650000F90DF91CF911F910F9108958FEF9FEF22
:10166000F7CFCF93DF931F92CDB7DEB7FC01218D6B
:10167000328D8FEF9FEF232B59F021E041E050E0B6
:10168000BE016F5F7F4F84850E94C50A898190E00B
:101690000F90DF91CF910895BF92CF92DF92EF929A
:1016A000FF920F931F93CF93DF93B82E6B017A01B4
:1016B000890164E270E00E94560AC82F65E270E07A
:1016C0008B2D0E94560AD0E0DC2FCC278C0D9D2D4F
:1016D000911DC80FD91F6B2D6295660F607E6C5EE1
:1016E0009801A701CE010E941809C00FD11F4D2FEC
:1016F00064E270E08B2D0E946B094C2F65E270E074
:101700008B2DDF91CF911F910F91FF90EF90DF9084
:10171000CF90BF900C946B091F93CF93DF93182F3A
:1017200066E270E00E94560AC82FD0E0DC2FCC277A
:1017300067E270E0812F0E94560A8C0F9D2F911D49
:10174000DF91CF911F910895FF920F931F93CF9335
:10175000DF93F82E10E000E08F2D0E948C0BEC013F
:10176000892B21F08F2D0E948C0B8C01C017D10783
:1017700099F7CE01DF91CF911F910F91FF900895BE
:10178000FC018485883011F00C94A40B90E080E07B
:1017900008951F93CF93DF93182F60E270E00E94AB
:1017A000560AC82FD0E0DC2FCC2761E270E0812FF1
:1017B0000E94560A8C0F9D2F911DDF91CF911F9192
:1017C0000895FF920F931F93CF93DF93F82E10E0AD
:1017D00000E08F2D0E94C90BEC01892B21F08F2D89
:1017E0000E94C90B8C01C017D10799F7CE01DF9178
:1017F000CF911F910F91FF900895AF92BF92CF921A
:10180000DF92FF920F931F93CF93DF938C015B01C5
:10181000EA01FC01C788D08CF4848F2D0E94E10B73
:101820008C179D0720F48F2D0E94E10BEC019E0187
:10183000A501B6018F2D0E944C0BF8018789908D70
:101840008C0F9D1F908F878BCE01DF91CF911F91C1
:101850000F91FF90DF90CF90BF90AF900895FC0163
:101860008485883021F063E070E00C94560A80E0B3
:101870000895CF93DF93FC0124852830D9F0EC0143
:101880000E942F0C843189F0882379F0883169F027
:1018900021E08C3159F4E881F9810084F185E02D53
:1018A000CE01099521E0892B09F420E0822FDF91F8
:1018B000CF91089580E0FBCFCF92DF92EF92FF921D
:1018C000CF93DF93EC018C85883089F168E070E07C
:1018D0000E945F0A0E942D076B017C01CE010E94CD
:1018E0002F0C882391F00E942D076C197D098E0919
:1018F0009F09683E73408105910538F461E070E00E
:1019000080E090E00E94FA06E9CFCE010E942F0C01
:10191000882319F08C850E946F0AEC85F0E0EE0FA9
:10192000FF1FEE5CFC4F1182108288E08C87DF91F4
:10193000CF91FF90EF90DF90CF9008954F925F92FC
:101940006F927F928F929F92AF92BF92CF92DF92CF
:10195000EF92FF921F93CF93DF93CDB7DEB72D9712
:101960000FB6F894DEBF0FBECDBF7C0192E3A92E67
:1019700093E0B92E10E0D12CC12C28EE422E23E0AA
:10198000522E612C712C3EE3832E31E0932E1C826B
:101990001B824D825E826F8278869A8289821D8741
:1019A000D5012D913D915D01F70184819581281725
:1019B0003907B1F4CE0101960E942F0C843199F1C0
:1019C000CE0101960E942F0C8C3151F4CE0101966C
:1019D0000E94C00B892B21F4CE0101960E945C0C61
:1019E0001F5F1830A1F6CD2841F4D701ED91FC918D
:1019F0000084F185E02DC70109952D960FB6F89466
:101A0000DEBF0FBECDBFDF91CF911F91FF90EF9052
:101A1000DF90CF90BF90AF909F908F907F906F900E
:101A20005F904F900895CC24C394D12CD9CFCF92FE
:101A3000DF92EF92FF921F93CF93DF93182F6B01EA
:101A40007A010E94A40BEC010097D9F463E070E0E6
:101A5000812F0E94560A843159F0882349F0C1E051
:101A6000D0E08C3111F4D0E0C0E0D195C195D1091E
:101A7000CE01DF91CF911F91FF90EF90DF90CF903B
:101A80000895E816F9060CF4E7011C161D0684F704
:101A900020E0AE01B601812F0E94C50A60E470E02B
:101AA000812F0E945F0AE4CFCF93DF93FC01218D49
:101AB000328D2115310529F48FEF9FEFDF91CF9102
:101AC0000895EC0184854217530708F0A9010E948C
:101AD000170D1816190684F7298D3A8D281B390B16
:101AE0003A8F298FEBCF0F931F93CF93DF931F92E2
:101AF000CDB7DEB7FC01218D328D232B41F48FEF62
:101B00009FEF0F90DF91CF911F910F9108958C015E
:101B100041E050E0BE016F5F7F4FFC0184850E9471
:101B2000170D181619065CF7F801818D928D019733
:101B3000928F818F898190E0E4CFFC0184850C94A1
:101B4000170DCF93DF931F92CDB7DEB741E050E082
:101B5000BE016F5F7F4FFC0184850E94170D181630
:101B6000190634F4898190E00F90DF91CF910895A8
:101B70008FEF9FEFF9CF0F931F93CF93DF93EC017C
:101B80000E942D07688779878A879B87CE010E94EC
:101B9000A10D97FF15C00E942D07088519852A857C
:101BA0003B85601B710B820B930B0C811D812E8179
:101BB0003F81601771078207930740F38FEF9FEF14
:101BC000DF91CF911F910F910895CF93FC01C485B0
:101BD00060E270E08C2F0E945F0A62E070E08C2F60
:101BE0000E94560A84FD11C062E070E08C2F0E94B2
:101BF000560A83FFF2CF48E162E070E08C2F0E942A
:101C00006B0990E080E0CF91089540E162E070E0E0
:101C10008C2F0E946B0981E090E0F5CFEF92FF924C
:101C20001F93CF93DF93FC012485283039F080E0A7
:101C3000DF91CF911F91FF90EF9008957B01EC0110
:101C400010E063E070E0812F0E94560A81110EC0FF
:101C50001C878C85883059F3FE86ED861A8E198E86
:101C6000A70162E00E947C0A81E0E2CF883181F323
:101C70001F5F183031F7EDCF8F929F92AF92BF92D6
:101C8000CF92DF92EF92FF920F931F93CF93DF9348
:101C9000CDB7DEB72D970FB6F894DEBF0FBECDBF20
:101CA0007C0110E000E038EE832E33E0932EA12C6F
:101CB000B12C4EE3C42E41E0D42E1C821B828D82B7
:101CC0009E82AF82B886DA82C9820D87CE010196E4
:101CD0000E942F0C811130C0F7014481558161E0D1
:101CE000802F0E947C0A63E070E0802F0E94560AD9
:101CF000833129F462E070E0802F0E945F0AF701CF
:101D000084819581000F111FF801EE5CFC4F9183D7
:101D100080832D960FB6F894DEBF0FBECDBFDF9146
:101D2000CF911F910F91FF90EF90DF90CF90BF90D8
:101D3000AF909F908F9008950F5F1F4F083011054F
:101D400009F0BBCFE6CF8F929F92AF92BF92CF9216
:101D5000DF92EF92FF920F931F93CF936C015B0181
:101D60007A01FC01C485C830A1F481E090E0F6015D
:101D700093838283F12CE12CC701CF911F910F91A6
:101D8000FF90EF90DF90CF90BF90AF909F908F909B
:101D900008958A014130584010F000E018E08C2F7F
:101DA0000E94E10B4C0163E070E08C2F0E94560A08
:101DB000873111F08C3109F58016910680F3980176
:101DC000A50170E060E08C2F0E944C0B60E270E097
:101DD0008C2F0E945F0A62E070E08C2F0E94560AEE
:101DE00084FD0EC063E070E08C2F0E94560A8111C2
:101DF000F2CF8C2F0E946F0AB8CF10E000E0DFCF47
:101E000040E162E070E08C2F0E946B09012B09F029
:101E1000B3CFABCFFB0144815581608171810C94BC
:101E2000A30E3F924F925F926F927F928F929F92FA
:101E3000AF92BF92CF92DF92EF92FF920F931F93D8
:101E4000CF93DF93CDB7DEB72D970FB6F894DEBFF3
:101E50000FBECDBF6C015B014A010E949E0C82E364
:101E6000E82E83E0F82E312C10E000E098EE492EA9
:101E700093E0592E612C712C1C821B824D825E8254
:101E80006F8278868EE391E09A8389833D86F7019D
:101E9000219131917F01F6018481958128173907BD
:101EA00071F4CE0101960E942F0C873141F4A401F8
:101EB000B501CE0101960E94A30E080F191F33949D
:101EC000F8E03F12D9CFC8012D960FB6F894DEBFC7
:101ED0000FBECDBFDF91CF911F910F91FF90EF907B
:101EE000DF90CF90BF90AF909F908F907F906F903A
:101EF0005F904F903F900895DF92EF92FF920F9383
:101F00001F93CF93DF93FC012485283051F090E09C
:101F100080E0DF91CF911F910F91FF90EF90DF90C4
:101F200008957A01EB018C01D12C63E070E08D2DD6
:101F30000E94560A811128C0F801D486F8018485D0
:101F4000883029F320910001309101012F5F3F4F2C
:101F500019F130930101209300014091000150914B
:101F6000010161E00E947C0A8A818F3FC1F48B816C
:101F70008F3F01F58C818F3FE9F48D818F3FD1F444
:101F800088E0F8018487C3CF8B7F8831A9F2D3948E
:101F9000F8E0DF12CACFD2CF20E034E0DACF8111EF
:101FA00009C08B81811106C08C81811103C08D8194
:101FB000882331F3E114F10419F3F801D484AE015C
:101FC0004E5F5F4F6D2D6295660F607E645F24E00B
:101FD00030E08CE090E00E9418094F2D60E170E045
:101FE0008D2D0E946B094E2D61E170E08D2D0E94B8
:101FF0006B0964E070E08D2D0E945F0AC8010E94A9
:102000002F0C873161F061E070E080E090E00E9489
:10201000FA06C8010E942F0C8111F0CFB1CF81E0E8
:1020200090E077CF90E080E0089524E030E0AC01CC
:1020300064E08FE090E00C941809DC01ED91FC91D4
:10204000048CF58DE02D0994809133049091340433
:102050000E94EB0740E06CEC8091330490913404D3
:102060000E94980740912E0464E48091330490917B
:1020700034040E949807809130048823A1F0E091F5
:102080002F04E9506EEE72E0E33038F4F0E0EE0F2A
:10209000FF1FEC59FE4F60817181072E000C880BE9
:1020A000990B0C94FA060895BF92CF92DF92EF92AB
:1020B000FF920F931F93CF93DF93EC01B62EC72EA1
:1020C000ED84E11004C00E94EB0781110EC01B8655
:1020D0001D861C8680E0DF91CF911F910F91FF90AC
:1020E000EF90DF90CF90BF90089540E060EFCE0179
:1020F0000E949807D12C01E011E0CE010E94450713
:10210000F82ECE010E94450791E0F91218C08130E7
:1021100099F51134E0F2EB86E11002C081E08D8781
:102120008B818823A1F22396EB2DFC2DCF010896FD
:1021300029912193E817F907D9F781E0CCCFED2D4C
:10214000F0E0F8120FC08B851817A0F4DE01AE0F77
:10215000BF1F13968C91802379F4F12C193008F469
:102160001C87E12EEC0FFD1F8381902F9095892312
:1021700083830AC08113F1CFFE01ED0DF11D838130
:10218000802B8383FF24F3946F2DCE010E94690777
:102190001F5F000F11F4D39401E087E08D1508F064
:1021A000ACCFB7CFCF93DF93EC01888199810097B3
:1021B00011F00E94C82F198218821D821C821B8276
:1021C0001A82DF91CF910895FC018081918100975F
:1021D00011F00C94C82F0895DC018EE891E08D93E6
:1021E0009D9384E0FB0101900D928A95E1F708959B
:1021F0000F931F93CF93DF93CDB7DEB728970FB61A
:10220000F894DEBF0FBECDBF8C01DC01ED91FC91D7
:102210000680F781E02D0995F80184850E94A40BC2
:10222000892BB1F148E050E0BE016F5F7F4FD801CC
:102230001C968C910E94170D18161906F4F4D801FB
:10224000519684E0FE01319601900D928A95E1F756
:102250008D8190E0982F88272E81820F911DF801A3
:10226000968B858B8F81282F30E0322F222788850F
:10227000820F932F911D928F818F28960FB6F8941D
:10228000DEBF0FBECDBFDF91CF911F910F9108959B
:1022900090E080E0F2CF4F925F926F927F928F92A8
:1022A0009F92AF92BF92CF92DF92EF92FF920F93E5
:1022B0001F93CF93DF93CDB7DEB763970FB6F89434
:1022C000DEBF0FBECDBF7C016B013A01FB01DB011C
:1022D0008D918111FDCF30E020E090E080E05AE068
:1022E0004191442301F1843091050CF042C04E32FB
:1022F00069F42F3F310509F0E4F5D301A80FB91FA8
:1023000012962C93019630E020E0EACF529FB00164
:10231000539F700D1124242F440F330B2053310988
:10232000260F371FDDCF2F3F310509F014F584301C
:102330009105FCF4680E791EF3012283CC24C3942A
:10234000D12CC60163960FB6F894DEBF0FBECDBF89
:10235000DF91CF911F910F91FF90EF90DF90CF9081
:10236000BF90AF909F908F907F906F905F904F90B5
:102370000895F70142815381648175818091180429
:1023800090911904A0911A04B0911B0448175907A1
:102390006A077B0709F400C28701085F1F4F0E948C
:1023A0002D076F7077277C5FC8010E940E0E813069
:1023B00009F0F7C18EE891E09A838983F701828161
:1023C0009381A481B5818B839C83AD83BE8345E3D8
:1023D00050E0BE016F5F7F4FC8010E949C09892BAE
:1023E00031F4D12CC12CC8010E94B00AAACF0E949E
:1023F0002D07F7017783668342E050E0B7016A5FFB
:102400007F4FC8010E94FD0B81E090E09A83898391
:1024100042E050E0BE016F5F7F4FC8010E94FD0B9C
:1024200080E091E09A83898342E050E0BE016F5FD3
:102430007F4FC8010E94FD0B1A82198242E050E0D2
:10244000BE016F5F7F4FC8010E94FD0B42E050E06C
:10245000BE016F5F7F4FC8010E94FD0B42E050E05C
:10246000BE016F5F7F4FC8010E94FD0B5601F60150
:102470008081882301F16501F60181912F01882374
:1024800011F08E32B1F446018A189B081814190411
:1024900074F48D8641E050E0BE01635F7F4FC80158
:1024A0000E94FD0BA401B501C8010E94FD0B520161
:1024B000DECF6201E1CF1D8641E050E0BE01635FE7
:1024C0007F4FC8010E94FD0BC12CDD24D394DA821A
:1024D000C98242E050E0BE016F5F7F4FC8010E9499
:1024E000FD0BDA82C98242E050E0BE016F5F7F4F90
:1024F000C8010E94FD0BC8010E94E50D892B09F45B
:1025000070CFF3E0AF2EB12C230122E0420E511C1C
:1025100043C0F7014281538164817581818D928D21
:10252000A38DB48D481759076A077B0709F02AC1A4
:10253000858D968DC59709F025C181A192A10C9733
:102540000CF425C14CE050E0BE016F5F7F4FC80125
:102550000E94540D8B819C819827892798279A8BFC
:10256000898BF7014681578129813A8142175307A8
:1025700011F497FD2FC0C8010E947409ECEFCE2E14
:10258000DD24DA9481E0A81AB10809F42CCFFFEF1A
:10259000CF16DF0609F027CF0E942D073B014C0123
:1025A000C8010E94F810181619060CF4B2CF0E9448
:1025B0002D076619770988099909693873418105DA
:1025C000910508F0DBC062E370E080E090E00E94DB
:1025D000FA06E6CF8F709270892B41F0C8010E94F5
:1025E00074097BEFC72EDD24DA94CCCF6F8078841A
:1025F000762467247624D12CC12C61147104D1F483
:10260000C8010E9474096AEFC62EDD24DA94BACF9D
:102610008D85811117C0C8010E94730DC8010E94E9
:10262000730DC8010E94730DC8010E94730DFFEF66
:10263000CF1ADF0A8D819E81982789279827C8168F
:10264000D906A8F441E050E0BE01635F7F4FC801A6
:102650000E94540D8D858823D9F28D859FEF980FA8
:102660009D878823A9F2C8010E94730DF6CF912C93
:10267000812C41E050E0BE016D5E7F4FC8010E9499
:10268000540D8B89982F907C61F4882389F08B8975
:102690009FEF980F9B8B882341F0C8010E94730D18
:1026A000F6CFC8010E94730D1B8A8B898111E1CF7F
:1026B00042E050E0BE01615F7F4FC8010E94540DAF
:1026C00042E050E0BE01635F7F4FC8010E94540D9D
:1026D000C8010E94730DC8010E94730DC8010E94B9
:1026E000730DC8010E94730D42E050E0BE016F5EA1
:1026F0007F4FC8010E94540D8F85988981159140A4
:10270000E9F4CD84DE84DC24CD24DC2481E0C81609
:10271000D104A1F489899A898115944041F0C801B6
:102720000E94740957EFC52EDD24DA942BCF44E0C4
:1027300050E0B201C8010E94540D24CFD12CC12C0D
:1027400089899A89982789279827C816D90638F43D
:10275000C8010E94730DFFEFCF1ADF0AF1CF2FEFF0
:10276000821A920A6814790409F083CFC8010E9482
:10277000740946EFC42EDD24DA9404CFCC24CA9425
:10278000DC2C00CF2EEFC22EDD24DA94FBCE9DEFA1
:10279000C92EDD24DA94F6CE8EEFC82EDD24DA942D
:1027A000D0CDD12CC12CCDCDCF92DF92EF92FF9224
:1027B0000F931F93CF93DF93CDB7DEB7AF970FB6CD
:1027C000F894DEBF0FBECDBF7C016A010EE811E0B8
:1027D0001A8309831C861B8688EE93E0A0E0B0E094
:1027E0008D879E87AF87B88B86E191E09A8789872E
:1027F00088E08D8B198F088F1A8E1B8E1C8E1D8E74
:102800001BA70AA71CA61DA61EA61FA6809105042D
:1028100090910604A0910704B09108048EA39FA391
:10282000A8A7B9A78B839C83AD83BE8318861F821C
:10283000AE01465D5F4FCE0101960E944B11813083
:102840009105B1F4D701ED91FC910488F589E02D53
:102850001DA30CA38CA59DA5AEA5BFA58EA39FA36C
:10286000A8A7B9A7A601BE016C5D7F4FC701099556
:10287000AF960FB6F894DEBF0FBECDBFDF91CF91FC
:102880001F910F91FF90EF90DF90CF900895CF921E
:10289000DF92EF92FF920F931F93CF93DF93CDB709
:1028A000DEB7AF970FB6F894DEBF0FBECDBF7C0189
:1028B0006A010EE811E01A8309831C861B8688EEE4
:1028C00093E0A0E0B0E08D879E87AF87B88B86E16C
:1028D00091E09A87898788E08D8B198F088F1A8EEF
:1028E0001B8E1C8E1D8E1BA70AA71CA61DA61EA62E
:1028F0001FA68091050490910604A0910704B09151
:1029000008048EA39FA3A8A7B9A78B839C83AD833C
:10291000BE8318861F82AE01465D5F4FCE010196D1
:102920000E944B1181309105B1F4D701ED91FC91DA
:102930000684F785E02D1DA30CA38CA59DA5AEA54F
:10294000BFA58EA39FA3A8A7B9A7A601BE016C5DD2
:102950007F4FC7010995AF960FB6F894DEBF0FBE43
:10296000CDBFDF91CF911F910F91FF90EF90DF903E
:10297000CF9008950E940E31FB0101900020E9F7ED
:102980003197AF01461B570BDC01ED91FC910280A2
:10299000F381E02D09948F929F92AF92BF92EF92B4
:1029A000FF920F931F93CF93DF93CDB7DEB7A1971D
:1029B0000FB6F894DEBF0FBECDBF7C01FA01CB018C
:1029C00019A2223008F42AE08E010F5D1F4F822EDB
:1029D000912CB12CA12CBF01A50194010E94202EA5
:1029E000F901CA016A300CF5605DD8016E938D0162
:1029F000232B242B252B79F790E080E0109721F0F2
:102A0000BD01C7010E94BC14A1960FB6F894DEBFA9
:102A10000FBECDBFDF91CF911F910F91FF90EF902F
:102A2000BF90AF909F908F900895695CDECF8F929A
:102A30009F92AF92BF92CF92DF92EF92FF920F934D
:102A40001F93CF93DF937C01EB016C0182E0C80EF2
:102A5000D11C4701E5E08E0E911C10E000E0F6016C
:102A600041916F0150E070E060E02AE0CE010E94E9
:102A7000CB145C01E881F9810190F081E02D6EE2D8
:102A8000CE0109958A0D9B1D080F191FC814D90482
:102A900031F7F701458150E070E060E02AE0CE01B7
:102AA0000E94CB14800F911FDF91CF911F910F9146
:102AB000FF90EF90DF90CF90BF90AF909F908F905E
:102AC000089560E971E00C94BC14CF93DF936CE43B
:102AD00073E00E941715EC018CE493E00E946115ED
:102AE0008C0F9D1FDF91CF910895CF93DF93D0E09E
:102AF000C0E0009731F0BC018CE493E00E94BC146C
:102B0000EC018CE493E00E9461158C0F9D1FDF9116
:102B1000CF9108950F931F93CF93DF93EC010E9401
:102B20000A0F8C01CE010E946115800F911FDF9169
:102B3000CF911F910F9108950F931F93CF93DF9320
:102B4000EC010E942D0A8C01CE010E946115800FBC
:102B5000911FDF91CF911F910F9108957F928F92D6
:102B60009F92AF92BF92CF92DF92EF92FF920F931C
:102B70001F93CF93DF93CDB7DEB7A6970FB6F89428
:102B8000DEBF0FBECDBF8C01762E942E852E20E2A7
:102B9000A22ECE0101967C01DC01EA2D1D92EA9560
:102BA000E9F76801FBE4CF0ED11C8EE891E09AA30F
:102BB00089A38FEF8BA38CA38DA38EA343E450E056
:102BC000BE016F5D7F4FC6010E949C09019609F40A
:102BD000BFC081E089838A8386E0B82EBB821C82D5
:102BE000D80114966D917D918D919C9117970E94BB
:102BF0000B2F6D837E838F83988789869A8680E8E2
:102C000090E09C878B874CE150E0B701C6010E94A1
:102C1000FD0BFE0137968AE1DF011D928A95E9F7E7
:102C20004801B8E08B0E911CF401D70101900D9280
:102C3000BA94E1F740E150E0B701C6010E94FD0BF4
:102C4000F7011192AA94E9F796E0A92EB12C40E27F
:102C500050E0B701C6010E94FD0BF1E0AF1AB108C8
:102C6000B1F783E6898392E89A8393E59B838C830B
:102C700085E38D8381E08E837F829DE3988797E053
:102C800099878A8786E0F401DE011B9601900D92F8
:102C90008A95E1F78CE0898B8A8B63E971E0CE013C
:102CA00043960E943231D8011B966C91CE01499611
:102CB0000E943005F8016485CE014B960E943005D4
:102CC000D8011D966C91CE014D960E9430054EE1C3
:102CD00050E0B701C6010E94FD0BB3E07B121EC09D
:102CE00082E3898384E08A83F80196859B839785B4
:102CF0009C8390899D8391899E8396E39F83888797
:102D0000868D8987878D8A8780A18B8781A18C8713
:102D10004CE050E0B701C6010E94FD0B87E38983B8
:102D200086E08A8391E09B8393E09C838D838FE090
:102D30008E838AE38F838BE388878FEF898749E0CF
:102D400050E0B701C6010E94FD0BC6010E94E50DCF
:102D5000A6960FB6F894DEBF0FBECDBFDF91CF9120
:102D60001F910F91FF90EF90DF90CF90BF90AF90A9
:102D70009F908F907F900895FC0124813581232BB3
:102D800031F421E0FB01672B49F4822F0895808103
:102D900091816115710539F421E0FC01808188235E
:102DA000A1F320E0F2CF0E94293121E0892B69F3C1
:102DB000F8CF0F931F93CF93DF93EC018881998114
:102DC000009759F02A813B812617370730F081E0C0
:102DD000DF91CF911F910F9108958B016F5F7F4F0E
:102DE0000E945130009759F0998388831B830A838E
:102DF0002C813D81232B59F7FC011082E8CF80E024
:102E0000E7CFEF92FF920F931F93CF93DF938C0145
:102E10007B01EB0109900020E9F72197C61BD70B36
:102E2000BE010E94D916811109C0C801DF91CF915E
:102E30001F910F91FF90EF900C94D210F801D58361
:102E4000C483B70180819181DF91CF911F910F9150
:102E5000FF90EF900C943231EF92FF920F931F93FB
:102E6000CF93DF936115710541F480E0DF91CF913D
:102E70001F910F91FF90EF90089541155105B1F00A
:102E80007B01EC010C811D81040F151FB8010E940C
:102E9000D916882351F3288139818C819D81B7010E
:102EA000820F931F0E9432311D830C8381E0DECF9D
:102EB000CF93DF93EC01FB0101900020E9F73197FC
:102EC000AF01461B570B0E942C17811103C0CE0186
:102ED0000E94D210CE01DF91CF910895CF93DF935E
:102EE000EC01FB0144815581608171810E942C17A6
:102EF000811103C0CE010E94D210CE01DF91CF918B
:102F00000895EF92FF920F931F93CF93DF93EC01FD
:102F1000198218821B821A821D821C82611571051A
:102F200021F18B01FB0101900020E9F731977F012E
:102F3000E61AF70AB7010E94D916811109C0CE011D
:102F4000DF91CF911F910F91FF90EF900C94D210D1
:102F5000FD82EC82B80188819981DF91CF911F9128
:102F60000F91FF90EF900C943231DF91CF911F9130
:102F70000F91FF90EF9008952F923F924F925F92A2
:102F80006F927F928F929F92AF92BF92DF92EF9259
:102F9000FF920F931F93CF93DF93CDB7DEB7E497E4
:102FA0000FB6F894DEBF0FBECDBF7C014A015B01B6
:102FB00019010E942D072B013C018701055B1F4F62
:102FC000C8010E94F810181619069CF00E942D07DF
:102FD000641975098609970986169706A806B90621
:102FE00008F4C6C162E370E080E090E00E94FA0657
:102FF000E7CF42E250E0BE016F5F7F4FC8010E9401
:10300000540D8981823009F0AEC1F8018589968915
:103010008334910509F0A7C16D817E818F819885E8
:103020000E940B2F2B013C01F101408251826282F0
:10303000738246E050E0B701685F7F4FCE014D9646
:103040000E941331892B99F4F70180819181A2812B
:10305000B381481659066A067B0648F0848195813B
:10306000A681B78184159505A605B705E8F4C801C2
:103070000E947409D12C8D2DE4960FB6F894DEBF12
:103080000FBECDBFDF91CF911F910F91FF90EF90B9
:10309000DF90BF90AF909F908F907F906F905F90E8
:1030A0004F903F902F90089589899A89AB89BC8968
:1030B00086879787A08BB18B8EECA82EB12CC80188
:1030C0000E94730DF1E0AF1AB108C9F7D12CC70106
:1030D0004E964C01F701E45AFF4FFAA7E9A7409634
:1030E0009CA78BA7F297FEA7EDA7089798AB8FA791
:1030F0007097FAABE9AB1701F2E22F0E311C409743
:103100009CAB8BABF801818D928D181619060CF0D3
:103110002BC1C8010E94730D8F30910509F4A8C01E
:103120008CF58330910509F46CC08CF4009751F351
:10313000019709F45BC0C8010E94730DB82EBA94C0
:10314000FFEFBF16F9F2C8010E94730DF8CF863069
:10315000910509F472C00C9771F7C8010E94730DB4
:103160005C01BB24C50101960E942C2FF701958BB1
:10317000848BA501BC01C8010E941D10F701848940
:1031800095898AC08633910509F48BC074F4833322
:10319000910509F4CEC0C59771F6C8010E94730D60
:1031A000C8010E94730DD82EADCF8B33910509F461
:1031B000AAC08F3F910509F4A5CFCA9709F0BBCFEC
:1031C000C8010E94730D44E050E06DA57EA5C801C2
:1031D0000E94540DF70162A573A584A595A50E94D0
:1031E0000B2F62A773A784A795A78CCFC8010E9455
:1031F000730D44E050E06BA97CA9C8010E94540DF6
:1032000081CFC8010E94730DA82E44E050E069A947
:103210007AA9C8010E94540D712C612C8A2D84500A
:10322000990B5C016A147B040CF06CCFC8010E94FE
:10323000730D9FEF691A790AF5CFC8010E94730DCB
:10324000A82E44E050E0B101C8010E94540D712C39
:10325000612CEA2DE450FF0B5F016A147B040CF033
:1032600051CFC8010E94730DFFEF6F1A7F0AF5CF8F
:10327000C8010E94730D5C01BB24C50101960E9428
:103280002C2FF701938B828BA501BC01C8010E94F2
:103290001D10F70182899389A80EB91EF5011082CD
:1032A00031CFC8010E94730DB82EF701868D8111B0
:1032B00009C0878D811106C080A1811103C081A141
:1032C0008823A1F0E9A5FAA540805180628073802F
:1032D000B401CE0183960E94EC108DA19EA1AFA1F6
:1032E000B8A584159505A605B70521F444E050E07E
:1032F000B40183CFBA94FFEFBF1609F403CFC8011E
:103300000E94730DF7CFC8010E94730D44E050E096
:103310006BA57CA5C8010E94540DF70166A577A591
:1033200080A991A90E940B2F66A777A780AB91ABCC
:10333000E9CEC8010E94730D44E050E06FA578A962
:10334000C8010E94540DF70166A177A180A591A53F
:103350000E940B2F66A377A380A791A762AB73ABE4
:1033600084AB95ABCFCED12CC8010E94740983CE1B
:10337000DD24DA9480CE2F923F924F925F926F922B
:103380007F928F929F92AF92BF92CF92DF92EF92F5
:10339000FF920F931F93CF93DF93CDB7DEB729979B
:1033A0000FB6F894DEBF0FBECDBF8C010E944A2835
:1033B0002FEC37E040E050E00E94B72DDC01CB015C
:1033C0000196A11DB11DF80184839583A683B7835F
:1033D00080839183A283B3835801FBE4AF0EB11CB9
:1033E000C5010E94B00A64E470E0C5010E940E0E9F
:1033F000882309F438C10E942D072B013C014801A4
:103400008AE4880E911C180192E4290E311C48EEC2
:10341000C42E43E0D42EE12CF12CD801DE96B987DE
:10342000A8871F821E82F40180818330A9F1811157
:103430005DC0F80184819581A681B7810196A11DA7
:10344000B11D84839583A683B7830E942D076419D9
:10345000750986099709A70196010E94202EA901E6
:1034600061E0C8010E94AE1581E0D4018C938E8189
:103470009F810197C1F20E942D0764197509860981
:103480009709A885B9852D913D914D915C9126179D
:1034900037074807590728F6C5010E94B00AF80106
:1034A00084819581A681B7810196A11DB11D848378
:1034B0009583A683B7838E819F8129960FB6F89452
:1034C000DEBF0FBECDBFDF91CF911F910F91FF9057
:1034D000EF90DF90CF90BF90AF909F908F907F90B4
:1034E0006F905F904F903F902F9008958430F9F443
:1034F000F80184819581A681B7810196A11DB11D36
:1035000084839583A683B7830E942D076419750968
:1035100086099709A70196010E94202EA90163E060
:10352000C8010E94AE15E2E0D401EC93A0CF813037
:1035300049F5D1014D915D916D917C919E012F5F77
:103540003F4FC8010E94BC178D83823009F084C0B0
:1035500089819A81AB81BC81F80184839583A6839C
:10356000B7830E942D076419750986099709A70179
:1035700096010E94202EA90163E0C8010E94AE15A9
:10358000ED81D2CF823009F072CFD1014D915D91A2
:103590006D917C919E012F5F3F4FC8010E94BC1727
:1035A0008D83853009F052C083E0F4018083F801F7
:1035B00086A197A1A0A5B1A5892B8A2B8B2B41F4BD
:1035C00084E893E0A0E0B0E086A397A3A0A7B1A70A
:1035D000F80182A593A5A4A5B5A5892B8A2B8B2BD1
:1035E00061F486A197A1A0A5B1A5B695A7959795D9
:1035F000879582A793A7A4A7B5A7F80182A593A54D
:10360000A4A5B5A546A557A560A971A9452B462B2C
:10361000472B51F4AC01BD01440F551F661F771FA6
:1036200046A757A760AB71ABF80182AB93ABA4ABD5
:10363000B5AB86A597A5A0A9B1A986AB97ABA0AF5E
:10364000B1AF81E090E09F838E8311CF9D81963052
:1036500019F4D4011C920BCFBD81BF3F09F007CFF5
:10366000F401108204CF1F821E8225CFAF92BF9239
:10367000CF92DF92EF92FF920F931F93CF93DF933E
:10368000CDB7DEB7C456D1090FB6F894DEBF0FBE72
:10369000CDBF6C01062F660F110BC8010E94A12D32
:1036A0009E012F5F3F4F79015901021B130BF5015A
:1036B000EE19FF09882349F0C8018A0D9B1D0E945D
:1036C000A12DF50181935F01F2CFEE0DFF1D108258
:1036D000B701C6010E948117C601CC59DF4F0FB652
:1036E000F894DEBF0FBECDBFDF91CF911F910F9138
:1036F000FF90EF90DF90CF90BF90AF900895CF9262
:10370000DF92EF92FF920F931F93CF93DF937B0192
:10371000DB011496CD90DC90D0E0C0E0082F880F3C
:10372000110BCC15DD05D4F4F70184819581C81700
:10373000D90728F40190F081E02D309761F41092C0
:103740002603E6E2F3E06081C8018C0F9D1F0E9412
:10375000A92D2196E6CFEC0FFD1FF5CF60E0C80143
:103760008C0D9D1DDF91CF911F910F91FF90EF90D8
:10377000DF90CF900C94A92D1F920F920FB60F924D
:1037800011242F933F934F935F936F937F938F9366
:103790009F93AF93BF93EF93FF938CE493E00E94CA
:1037A000C905FF91EF91BF91AF919F918F917F914B
:1037B0006F915F914F913F912F910F900FBE0F909E
:1037C0001F9018951F920F920FB60F9211242F93EE
:1037D0008F939F93EF93FF93E0915C03F0915D03D0
:1037E0008081E0916203F091630382FD1BC09081B0
:1037F000809165038F5F8F7320916603821741F07C
:10380000E0916503F0E0E45BFC4F958F80936503E6
:10381000FF91EF919F918F912F910F900FBE0F907D
:103820001F9018958081F4CF1F920F920FB60F92C0
:1038300011242F933F938F939F93AF93BF938091C6
:10384000280390912903A0912A03B0912B03309172
:10385000270323E0230F2D3758F50196A11DB11D35
:10386000209327038093280390932903A0932A038E
:10387000B0932B0380912C0390912D03A0912E03E4
:10388000B0912F030196A11DB11D80932C0390933D
:103890002D03A0932E03B0932F03BF91AF919F915F
:1038A0008F913F912F910F900FBE0F901F90189501
:1038B00026E8230F0296A11DB11DD2CFCF93ECE4D1
:1038C000F3E01382128288EE93E0A0E0B0E08483FC
:1038D0009583A683B7838EE691E09183808385EC00
:1038E00090E09587848784EC90E09787868780ECCA
:1038F00090E0918B808B81EC90E0938B828B82ECBB
:1039000090E0958B848B86EC90E0978B868B118E64
:10391000128E138E148EE9EEF3E080E58083C1E011
:10392000C183EBEEF3E08EE891E091838083128215
:10393000138214821582E1EFF3E091838083128277
:10394000138214821582E7EFF3E091838083128261
:10395000138214821582EDEFF3E09183808312824B
:10396000138214821582E0E1F4E091838083128255
:10397000138214821582E3E0F4E091838083128243
:10398000138214821582138612862AE02487E6E1C8
:10399000F4E0918380831282138214821582ECE119
:1039A000F4E0918380831282138214821582EFE403
:1039B000F4E091838083128213821482158260E086
:1039C00085E00E94A406E6EFF9E0E491A1E4B4E00A
:1039D000EC93E2EEF9E0E491F0E0EE0FFF1FED5220
:1039E000F64F8591949112969C938E9311971B9606
:1039F0001C921B971D961C921D971C961C921C973F
:103A00001A961C921A9719961C92199718961C923E
:103A1000189717961C92179716961C92169715963C
:103A20001C92159714961C92149713961C92139738
:103A3000EEE2F4E08FE295E0928B818BB683A58372
:103A40001482108289E08183C283C383E8E2F4E0B8
:103A50001382128280E891E09183808380E590E078
:103A60009583848362E971E082E294E0CF910C94C3
:103A70008117CF93DF93CDB7DEB7CC54D1090FB602
:103A8000F894DEBF0FBECDBF789484B5826084BD4C
:103A900084B5816084BD85B5826085BD85B5816052
:103AA00085BD80916E00816080936E0010928100D0
:103AB000809181008260809381008091810081608B
:103AC000809381008091800081608093800080914C
:103AD000B10084608093B1008091B00081608093D8
:103AE000B00080917A00846080937A0080917A009F
:103AF000826080937A0080917A00816080937A005E
:103B000080917A00806880937A001092C1006AE008
:103B1000CE018F960E94361B64E6CE0182960E94EB
:103B2000361B62E971E0CE018F960E94BC168111AE
:103B300008C070E060E0CE018F960E94BC1688231A
:103B400081F06BE971E0CE0101960E948117BE0100
:103B50006F5F7F4F8AE00E947F1BCE0101960E941B
:103B6000E41062E971E0CE0182960E94BC168111D8
:103B700008C070E060E0CE0182960E94BC168823E7
:103B800081F06AE971E0CE0101960E948117BE01C1
:103B90006F5F7F4F84E60E947F1BCE0101960E94DB
:103BA000E410E0913304F0913404138615861486F2
:103BB000128611861086178216821582148213824D
:103BC0001092320401E0BE016F5F7F4F8091330499
:103BD000909134040E945410882309F455C067E082
:103BE000CE0101960E94390798858913ECCF809108
:103BF0002E04811128C080913304909134040E94D6
:103C0000EB07BE016F5F7F4F8091330490913404C6
:103C10000E94CC0740E064EB80913304909134041F
:103C20000E94980780913304909134040E944507C4
:103C3000182F80913304909134040E94EB071111E6
:103C400002C000932E0410912F048981803111F459
:103C50000C94D627CE0101960E946F08811750F46C
:103C600080912F0480932F04809132048F5F809382
:103C70003204A9CF8981803111F48CE0F3CFCE01D9
:103C800001960E946F08EECF61E086E00E94A406D4
:103C900061E086E00E945806E0915C03F0915D03CC
:103CA00082E08083E0915803F09159031082E09103
:103CB0005A03F0915B0380E1808310926403E091EA
:103CC0006003F091610386E08083E0915E03F091F0
:103CD0005F03808180618083E0915E03F0915F03E8
:103CE000808188608083E0915E03F0915F03808132
:103CF00080688083E0915E03F0915F0380818F7D17
:103D000080830E94241060ED77E080E090E00E94C4
:103D1000FA0680910D0490910E04009711F00E9414
:103D2000C82F86E690E00E942C2F26E6DC011D922B
:103D30002A95E9F7FC01E55BFF4F1382128248EEFA
:103D400053E060E070E0448355836683778326E127
:103D500031E03183208328E024873F962EE831E04C
:103D600031832083128213821482158290930E0471
:103D700080930D0410910F041093310368EE73E0EB
:103D800080E090E00E94FA0661E0812F0E94A40684
:103D90001FB7F89480913003811127C0E7EEF9E056
:103DA0008491EBEFF9E09491E82FF0E0EE0FFF1F24
:103DB000E554FD4FA591B491EC91E92321F461E024
:103DC0008AE00E94580661E08AE00E94A4068CB551
:103DD00080618CBD8CB580648CBD61E08DE00E94FB
:103DE000A40661E08BE00E94A406809130038F5FFF
:103DF000809330031FBF60E090E080E00E94F908EC
:103E0000482F406864E090E080E00E944A091CE08E
:103E1000A8E0EA2EF12C42E0612F8EE190E00E94B2
:103E20004A0942E0612F8FE190E00E944A09B1E027
:103E3000EB1AF108105EE114F10469F726E030E0B6
:103E400042E051E064E089E090E00E9418098EE8C9
:103E500091E09A8389831B821C821D821E82CE017F
:103E600003960E94151080910D0490910E04FC01A0
:103E700016A217A210A611A612A613A614A615A67E
:103E800016A617A610AA11AA12AE13AE14AE15AE3E
:103E9000FE9640E65AEE60E070E040835183628314
:103EA0007383349648E853E160E070E040835183C7
:103EB00062837383F49724E1DF011D922A95E9F769
:103EC00026E0E2E0F1E0DC01189601900D922A95DF
:103ED000E1F7FC01E65BFF4F10820E94BB190197DE
:103EE00009F05CC060910D0470910E04625F7F4F19
:103EF000CE0101960E94EC10CE0103960E9415108F
:103F000060910D0470910E04665E7F4FCE010196A4
:103F10000E94EC1024E030E0AE014D5F5F4F64E0A2
:103F200081E090E00E94180960910D0470910E04E8
:103F30006A5E7F4FCE0101960E94EC1024E030E0D3
:103F4000AE014D5F5F4F64E085E090E00E9418098C
:103F500060910D0470910E046E5D7F4FCE0101964D
:103F60000E94EC108B819C81AD81BE818093050401
:103F700090930604A0930704B0930804E0910D0405
:103F8000F0910E048289938990930A048093090426
:103F90008489958990930C0480930B0488E294E0C3
:103FA0000E943C0E80EA91E00E94751586EA91E03D
:103FB0000E9475158EE891E09A8389831B821C828A
:103FC0001D821E8224E030E0AE014D5F5F4F60E055
:103FD0008FE090E00E94C708CE0101960E9465150F
:103FE000CE0182960E94E410CE018F960E94E410CA
:103FF0000E942D070091460310914703209148032A
:1040000030914903601B710B820B930B6031774237
:104010008105910528F4012B022B032B09F0B4C173
:1040200086EA91E00E9475158EE891E09A83898373
:104030001B821C821D821E8224E030E0AE014D5F97
:104040005F4F60E08FE090E00E94C708CE010196CC
:104050000E94651500910D0410910E0401151105C3
:1040600009F415C10E942D074B015C01F80182ADD6
:1040700093ADA4ADB5AD98012A5B3F4F7901892B73
:104080008A2B8B2B09F411C2F90180819181A281C5
:10409000B381A5019401281B390B4A0B5B0BCA01A4
:1040A000B90197FD51C028EE33E040E050E00E9496
:1040B000B72D25966CAF7DAF8EAF9FAF25972401AE
:1040C000350188EE480E83E0581E611C711C259650
:1040D0008CAD9DADAEADBFAD2597481A590A6A0AA1
:1040E0007B0AD7014D925D926D927C921397BA0133
:1040F000A9014F5F5F4F6F4F7F4FF80182A993A9CE
:10410000A4A9B5A96A017B01CC0CDD1CEE1CFF1C27
:104110008C159D05AE05BF050CF0B1C1D801D29636
:104120001D921D921D921C92D597F80186A997A900
:10413000A0ADB1AD8C159D05AE05BF050CF0A9C1B4
:1041400016AA17AA10AE11AE7801FAE4EF0EF11C10
:10415000D7018C91833009F0A5C1F80182A993A9F8
:10416000A4A9B5A9181619061A061B060CF49AC1BB
:1041700084E0D7018C93C8010E94BB190196F70116
:104180002081233011F0211119C0D801D6964D910C
:104190005D916D917C91D997141615061606170638
:1041A0006CF0F701108284E1F8013E96DF011D9268
:1041B0008A95E9F7C8010E94BB190396D801DA96DF
:1041C0008D929D92AD92BC92DD978230910519F04F
:1041D000049709F05CC060910D0470910E04625F59
:1041E0007F4FCE0101960E94EC10CE0103960E94F3
:1041F000151060910D0470910E04665E7F4FCE0124
:1042000001960E94EC1024E030E0AE014D5F5F4F5C
:1042100064E081E090E00E94180960910D047091C3
:104220000E046A5E7F4FCE0101960E94EC1024E0DE
:1042300030E0AE014D5F5F4F64E085E090E00E94AA
:10424000180960910D0470910E046E5D7F4FCE01D0
:1042500001960E94EC108B819C81AD81BE81809380
:10426000050490930604A0930704B0930804E0911A
:104270000D04F0910E048289938990930A0480932F
:1042800009048489958990930C0480930B040E94FF
:104290002D076093460370934703809348039093E0
:1042A0004903E0913304F091340413861586148693
:1042B0001286118610861782168215821482138246
:1042C000BE016E5D7F4F80913304909134040E9453
:1042D00054108111F8C060E070E08EEF92EC6093B2
:1042E00042037093430380934403909345036AE031
:1042F000CE0182960E94361B64E6CE0101960E9492
:10430000361B8AA19BA1812C912C5401009721F08E
:104310000E94A2284B015C0189819A81C12CD12C79
:104320007601009721F00E94A2286B017C01209168
:104330004203309143034091440350914503C5012A
:10434000B4010E94512E4B015C01A70196010E940D
:10435000ED2E18160CF017C18DEB91E00E9475152B
:1043600062EC71E082E294E00E94011760E086E076
:104370000E9458060E942410CE0101960E94E4106B
:10438000CE0182960E94E41088E294E00E949E0C86
:1043900002E313E0D12C8EE3E82E81E0F82E1C829C
:1043A0001B8228EE33E040E050E02D833E834F83B4
:1043B0005887FA82E982DD86D8012D913D918D01E1
:1043C00080912C0490912D042817390709F0F8C02A
:1043D000CE0101960E942F0C873109F0EAC0CE0170
:1043E00001960E94C00B892B09F4EAC08B819C8145
:1043F0009DA38CA38D819E81AF81B8858EA39FA341
:10440000A8A7B9A789859A85AB85BC858AA79BA7EC
:10441000ACA7BDA78EE391E09BA38AA38D858EA751
:104420008EA5883009F4B5C5CE0182960E94390C5C
:10443000882309F4AEC5CE0182960E94C00B892B59
:1044400099F32DB63EB662E971E0CE01CB960E949B
:104450008117CE0182960E94BB0D97FDC5C08A30A0
:10446000910509F4C1C089831A8241E050E0BE0180
:104470006F5F7F4FCE01CB960E942C17EACF841B33
:10448000950BA60BB70BF80182AB93ABA4ABB5AB06
:104490004CCE841B950BA60BB70B86AB97ABA0AF8E
:1044A000B1AF52CE90E080E06ACED501C401885110
:1044B0009C4FAF4FBF4FF90180839183A283B38399
:1044C00090E080E07BCE67E0CE0182960E943907C3
:1044D00099A5891300CF80913304909134040E94F0
:1044E000EB07882309F4F7CEBE016F5F7F4FCE0143
:1044F00082960E942308882309F4EDCE68E0CE015D
:1045000001960E94390799858913E5CE6A8170E08A
:10451000762F6627770F770F770F2981B8E02B9FCB
:1045200090011124262B372B8AA18031D1F4688584
:1045300070E08F81FB01E81BF109CF019695982F60
:104540008827979587950E94F72ECB014097B90150
:1045500053E0660F771F5A95E1F760789C01260FAC
:10456000371F2138F4EE3F070CF4B5CEB901330FF5
:10457000880B990B0E94812C20E030E040E05CE346
:104580000E94E02CACCEC701B6019058A501940161
:104590000E94ED2E18160CF0EDCE86EC91E00E94F4
:1045A00075156BEC71E082E294E00E94011761E006
:1045B000DECECE0101960E942F0C8C3109F40FCF74
:1045C000D394B8E0DB12EBCE1DA21CA228EE33E0A0
:1045D00040E050E02EA33FA348A759A78EE391E007
:1045E0009BA38AA3DEA61CCF21960EAD1FAD2197FB
:1045F000C80101964DB75EB7481B590B0FB6F8942A
:104600005EBF0FBE4DBF8DB79EB701967C010115F1
:10461000110559F0015011096BAD7CADA8010E9444
:104620004731F701E00FF11F108262E671E0C70128
:104630000E94A62862E671E090E080E00E94A62831
:104640008C01BC01CE0101960E9481176FEC71E0D4
:10465000CE0101960E94BC16F82ECE0101960E9452
:10466000E410FF2009F4BDC20E942D0720E03CE5C4
:1046700046E255E00E94202E25962CAF3DAF4EAF6E
:104680005FAF25970E942D0720E03CE546E255E00C
:104690000E94202E20E83EEE46E350E00E94202EAD
:1046A00029962CAF3DAF4EAF5FAF29970E942D07E3
:1046B00020E03CE546E255E00E94202E20E83EEE58
:1046C00046E350E00E94202E20E63AEE40E050E023
:1046D0000E94202E2D962CAF3DAF4EAF5FAF2D9791
:1046E0000E942D0720E03CE546E255E00E94202E86
:1046F00020E83EEE46E350E00E94202E20E63AEE0F
:1047000040E050E00E94202E28EE33E040E050E0F0
:104710000E94202E49015A0163EC79E0CE01829675
:104720000E949C156BEA79E0CE0182960E949C154E
:10473000CE0182960E9461156BE979E0CE018296E6
:104740000E949C1564E979E0CE0182960E949C1536
:104750006DE879E0CE0182960E949C1566E779E0CB
:10476000CE0182960E949C1566E479E0CE01829685
:104770000E949C156AE179E0CE0182960E949C1508
:1047800065ED78E0CE0182960E949C1560E778E0A6
:10479000CE0182960E949C1560E578E0CE0182965B
:1047A0000E949C156DE378E0CE0182960E949C15D4
:1047B00061E178E0CE0182960E949C156EEF77E071
:1047C000CE0182960E949C1560EE77E0CE01829623
:1047D0000E949C1560EA77E0CE0182960E949C15AB
:1047E00067E977E0CE0182960E949C1562E477E04B
:1047F000CE0182960E949C1560E477E0CE018296FD
:104800000E949C1561E377E0CE0182960E949C1580
:1048100067E277E0CE0182960E949C156DE177E019
:10482000CE0182960E949C156AEE76E0CE018296B9
:104830000E949C1562EE76E0CE0182960E949C1545
:104840006BED76E0CE0182960E949C1561E976E0E0
:10485000CE0182960E949C1567E676E0CE01829694
:104860000E949C156AE0CE0101960E94361B61ED04
:1048700071E0CE018F960E948117BE016F5F7F4F5E
:10488000CE018F960E946E1762E472E00E94581764
:10489000BC01CE0182960E948A15CE018F960E949D
:1048A000E410CE0101960E94E41064E6CE01019668
:1048B0000E94361B68E472E0CE018F960E94811739
:1048C000BE016F5F7F4FCE018F960E946E1762E42C
:1048D00072E00E945817BC01CE0182960E948A1590
:1048E000CE018F960E94E410CE0101960E94E41042
:1048F00067E276E0CE0182960E949C156BE176E03D
:10490000CE0182960E949C1562EC71E082E294E0F6
:104910000E94BC16882331F067EE75E0CE018296C6
:104920000E949C156BEC71E082E294E00E94BC1640
:10493000882331F065EB75E0CE0182960E949C15CC
:104940006AE975E0CE0182960E949C156FE675E0DB
:10495000CE0182960E942D0AC0904203D09043035C
:10496000E0904403F0904503A7019601C701B6010A
:104970000E94F22E61EB72E081111BC0260137010B
:10498000E89477F82FEF3FEF4FE75FE7C301B201FD
:104990000E94F22E8111A7C02FEF3FEF4FE75FE794
:1049A000C301B2010E947A2C18160CF09CC065EB72
:1049B00072E0CE0182960E94BC146AE675E0CE01D8
:1049C00082960E949C1565E675E0CE0182960E9453
:1049D0002D0A65E575E0CE0182960E942D0A2AE037
:1049E00025964CAD5DAD6EAD7FAD2597CE0182961F
:1049F0000E94CB1463E575E0CE0182960E942D0AD9
:104A000061E575E0CE0182960E942D0A2AE0299682
:104A10004CAD5DAD6EAD7FAD2997CE0182960E9403
:104A2000CB146FE475E0CE0182960E942D0A6DE4EE
:104A300075E0CE0182960E942D0A2AE02D964CAD9B
:104A40005DAD6EAD7FAD2D97CE0182960E94CB14E9
:104A50006BE475E0CE0182960E942D0A69E475E050
:104A6000CE0182960E942D0A2AE0B501A401CE0152
:104A700082960E94CB1467E475E0CE0182960E9474
:104A80002D0A6AED74E0CE0182960E949C1569EAB7
:104A900074E0CE0182960E949C156FE974E0CE010D
:104AA00082960E949C1567E974E0CE0182960E946E
:104AB0009C156FE874E0CE0182960E949C1561E01F
:104AC00070E080E090E00E94FA06CE0182960E949B
:104AD0005C0CCE01CB960E94E4100FB6F8943EBE5B
:104AE0000FBE2DBEA1CC2FEF3FEF4FE75FE4C70114
:104AF000B6010E94ED2E18161CF469EB72E059CF36
:104B00002FEF3FEF4FE75FECC701B6010E947A2C11
:104B100087FDF3CF20E030E0A901C701B6010E9474
:104B20007A2C87FF09C06DE2CE0182960E94170A97
:104B3000F7FAF094F7F8F0942AE037ED43EA5BE3F4
:104B4000C701B6010E94522E2B013C010E94BE2ECD
:104B50006B017C010E947F2C9B01AC01C301B2015F
:104B60000E94512E2B013C012AE0B701A601CE0183
:104B700082960E94CB146EE2CE0182960E94170AA2
:104B800020E030E040E251E4C301B2010E94E02C99
:104B90002B013C010E94BE2E6B01F12CE12C2AE07E
:104BA000B701A601CE0182960E94CB14C701B601BF
:104BB0000E947F2C9B01AC01C301B2010E94512EC7
:104BC00020E030E040E251E40E94E02C0E94BE2E42
:104BD000AB0170E060E02AE0CE0182960E94CB1427
:104BE000ECCEB801CE0101960E9481176DEB72E008
:104BF000CE0101960E94BC16F82ECE0101960E94AD
:104C0000E410FF2009F483C06FE774E0CE018296C0
:104C10000E949C1560E674E0CE0182960E949C156D
:104C2000CE0182960E9461156EE574E0CE018296F7
:104C30000E949C1560E574E0CE0182960E942D0AC8
:104C400064E6CE0101960E94361BBE016F5F7F4F66
:104C5000CE0182960E940A0FCE0101960E94E410B6
:104C60006EE474E0CE0182960E949C1568E374E0C5
:104C7000CE0182960E942D0A6AE0CE0101960E9422
:104C8000361BBE016F5F7F4FCE0182960E940A0FD6
:104C9000CE0101960E94E41066E374E0CE01829694
:104CA0000E949C1560E274E0CE0182960E942D0A5B
:104CB00060914203709143038091440390914503B6
:104CC00018AA1FA61AAA19AA1CAA1BAA8E010F5F4E
:104CD0001F4F22E044E00E94E027009799F0BC01BA
:104CE000CE018F960E940117BE01615D7F4FCE01FC
:104CF00082960E948A15CE018F960E94E4106EE182
:104D000074E0D9CECE018F960E94D210EDCFB801BB
:104D1000CE0101960E9481176CEC72E0CE010196E3
:104D20000E94BC16F82ECE0101960E94E410F110EC
:104D3000CCCEB801CE01C5960E94811769ED72E014
:104D4000CE0101960E9481174D815E8189AD9AAD99
:104D50008417950780F08DA99EA9009761F069815D
:104D60007A816115710539F00E943931FF24F3947D
:104D7000892B09F0F12CCE0101960E94E410FF204E
:104D800009F4FCC060E671E0C8010E94A6280E94F8
:104D9000751560E671E090E080E00E94A6286EE55F
:104DA00071E00E94A6287C016EE571E090E080E051
:104DB0000E94A6288C016CE571E0C7010E94A6281C
:104DC0006CE571E090E080E00E94A6287C016CE533
:104DD00071E0C8010E94A6286CE571E090E080E0D7
:104DE0000E94A6288C01B701CE0101960E9481176E
:104DF000BE016F5F7F4F8AE00E947F1BCE0101964C
:104E00000E94E410B801CE0101960E948117BE01F4
:104E10006F5F7F4F84E60E947F1BCE0101960E9448
:104E2000E4106EE074E0CE0182960E949C1566EF5D
:104E300073E0CE0182960E949C15CE0182960E945C
:104E4000611566EE73E0CE0182960E949C156FEDAF
:104E500073E0CE0182960E949C1568ED73E0CE014E
:104E600082960E949C1561EC73E0CE0182960E94AE
:104E70009C1560E973E0CE0182960E949C156DE559
:104E800073E0CE0182960E949C1565E573E0CE0129
:104E900082960E949C156EE473E0CE0182960E9479
:104EA0009C156CE173E0CE0182960E949C15B701BF
:104EB000CE0101960E94811766EE72E0CE018F96B8
:104EC0000E948117BE016F5F7F4FCE018F960E94B7
:104ED0006E1768E073E00E945817BC01CE018296FD
:104EE0000E948A15CE018F960E94E410CE01019691
:104EF0000E94E410B801CE0101960E9481176EE075
:104F000073E0CE018F960E948117BE016F5F7F4FC5
:104F1000CE018F960E946E1768E073E00E945817CA
:104F2000BC01CE0182960E948A15CE018F960E9406
:104F3000E410CE0101960E94E4106CEE72E0CE0106
:104F400082960E949C1564EE72E0CE0182960E94C9
:104F50009C156CED72E0CE0182960E949C1561E07A
:104F600070E080E090E00E94FA06CE0182960E94F6
:104F70005C0CCE01C5960E94E410ABCD65EC72E0EE
:104F8000CE0182960E949C15CE0182960E946115E8
:104F9000E6CF80E090E0892B09F42AC80E94B5058D
:104FA000882309F425C80E94000022C81D3010F093
:104FB0000C94301E0C943D1E82E294E00C94E4109C
:104FC000EF920F931F93CF93DF93E80134E047FDF7
:104FD00034E1042E000C550B57FF03C05195419549
:104FE0005109E32E022F242FAE010E94D228CE01B8
:104FF000DF91CF911F910F91EF9008958F929F9223
:10500000AF92BF92CF92DF92EF92FF92CF93DF9356
:10501000EC01688179818A819B8161157105810527
:10502000910521F464E279ED8BE597E02DE133EF12
:1050300041E050E00E94B72D49015A019B01AC01AB
:10504000A7EAB1E40E94D62D6B017C01ACEEB4EF6F
:10505000A50194010E94E42DC60ED71EE81EF91E7C
:10506000F7FE06C081E0C81AD108E10880E8F80A16
:10507000C882D982EA82FB82C701B6019F77DF919D
:10508000CF91FF90EF90DF90CF90BF90AF909F9027
:105090008F9008958F929F92AF92BF92CF92DF929E
:1050A000EF92FF92609108017091090180910A01CD
:1050B00090910B01611571058105910521F464E260
:1050C00079ED8BE597E02DE133EF41E050E00E9470
:1050D000B72D49015A019B01AC01A7EAB1E40E9436
:1050E000D62D6B017C01ACEEB4EFA50194010E94BA
:1050F000E42DC60ED71EE81EF91EF7FE06C081E09D
:10510000C81AD108E10880E8F80AC0920801D092D4
:105110000901E0920A01F0920B01C701B6019F77E5
:10512000FF90EF90DF90CF90BF90AF909F908F90C7
:105130000895609308017093090180930A01909388
:105140000B010895662777270C94312A45E554E032
:105150000E94AB280895FA01A191B081009719F43B
:105160001097E1F0CD01DC01CD010D90002011F48C
:10517000C00113C0FB012191222319F02015D9F79A
:10518000F3CFFB012191201519F41E92119606C050
:105190002223C1F70D900020A1F7D001FA01A193BD
:1051A000B0830895A9E0B0E0E8EDF8E20C94EF2DAB
:1051B0006A01F22EB02E102FFBE3AF2EA01608F4DA
:1051C0001BE31F5F012F27E0AE014F5F5F4F0E947F
:1051D000812BBC018981982F9970913009F43FC0CF
:1051E0009BE2E1FC04C09E2D9170E0FC3AC05E2D74
:1051F0005071E82FE87083FF46C084E0911101C030
:1052000083E0EF2DE81B8F1508F0E0E0D6018E2F2C
:1052100020E2552351F1992329F0D6019C93C60130
:1052200001966C0196012D5F3F4FE2FE24C08EE493
:10523000D6018C9391E411969C93119712968C93BE
:10524000D9018E2F90E281111BC0E20FF32FF11DC7
:1052500010828EEF9FEF2996ECE00C940B2E9DE2CE
:10526000C6CF90E2C4CF2D9381508111FCCFCE0EDA
:10527000D11CE0E0D0CF8EE6D6018C9391E6DBCF57
:105280009D938150E0CF482F447082FF3DC084E061
:10529000911101C083E08F1510F4EF2DE81BD601AA
:1052A0008E2F20E2552309F1992329F0D6019C93F2
:1052B000C60101966C0196012D5F3F4FE2FE1BC0B7
:1052C00089E4D6018C938EE411968C93119786E431
:1052D00012968C93D9018E2F90E2882309F4B5CFD2
:1052E0009D938150FACF2D9381508111FCCFCE0E2A
:1052F000D11CE0E0D9CF89E6D6018C938EE61196D9
:105300008C93119786E6E4CF9B0177FF02C030E0D3
:1053100020E0A1E0B0E0911102C0B0E0A0E0F9010E
:105320003196AE0FBF1F8B2C912CBB2009F461C0AE
:105330005401EFEFAE1ABE0AAA0DBB1DFA161B06EA
:1053400019F014F04F2D4A1B511188C0E3FC59C0CD
:105350007601A42FB0E2A1114FC0C40ED11C992335
:1053600009F45BC040E0D6011196F60190836D010F
:10537000552309F448C0012F060F9A81582F507108
:1053800084FF03C0913309F4015010160CF047C09C
:10539000093008F008E0EEE2FE2E5B01A01AB10829
:1053A00085019194819491082F3F320729F4D60109
:1053B000FC92F60131966F016217730794F10217A0
:1053C00013077CF5DB01A21BB30BAA24A394B12C19
:1053D000AC0EBD1EAA0DBB1D11968C91215031093A
:1053E000D601119628153905F4F0F60180836D0178
:1053F000DBCFB12CA12CA0CFF701B1937F01A1503D
:10540000AACF9111B0CFD601942F50E302C05D9383
:1054100091509111FCCFC40ED11C40E0ACCF01E003
:10542000BACF80E3DBCF6217730731F4963388F489
:10543000953311F4552369F0F6018083FD01842F23
:1054400090E2811108C0A40FB11D1C9290E080E091
:1054500002CF81E3F1CF91938150F3CF911183CFAC
:105460008ACFB0E0A0E0E7E3FAE20C94EF2D5C0114
:105470007B016115710519F0DB018D939C9385010A
:105480000F5F1F4FF501D0818D2F90E00E94592CA6
:105490006C01892BB9F5DD32B9F50F5F1F4FD501CE
:1054A0001196DC91C1E05801F1E0AF1AB10843E078
:1054B00050E060E770E0C5010E94622C892B69F51D
:1054C000680182E0C80ED11C45E050E06BE670E058
:1054D000C6010E94622C892B21F4680197E0C90E55
:1054E000D11CE114F10419F0D701CD92DC9260E0F7
:1054F00070E080E89FEFC111FFC060E070E080E8DD
:105500009FE7FAC05801BBCFDB3229F485010E5F5B
:105510001F4FF501D181C0E0C6CF43E050E068E6FF
:1055200070E0C5010E94622C892BE9F0F80110E0BF
:1055300000E020E030E0A9015F01B0ED8B2E8D0E80
:1055400089E08815C8F19C2E689491F88C2F88709A
:10555000C2FF16C0811102C00F5F1F4F3196D501E7
:10556000DC91C92DE9CFE114F10429F00E5F1F4F42
:10557000F7011183008360E070E080EC9FE7BCC01E
:10558000882311F001501109A5E0B0E00E94D62D4A
:105590009B01AC01220F331F441F551F280D311DE5
:1055A000411D511D283999E93907490799E15907E2
:1055B000A8F2C6609C2ED2CFAEEF8A1206C0C3FD01
:1055C0003CC09C2E689493F8C9CFDF7DD534A9F5F3
:1055D00080818D3239F4C061DF011296818162E0F1
:1055E00070E006C0DF018B32C1F3119661E070E01C
:1055F00080535D01A61AB70A8A30F8F4E0E8CE16A7
:10560000ECE0DE065CF4B601660F771F660F771FCD
:10561000C60ED71ECC0CDD1CC80ED11C5D01FFEFE1
:10562000AF1ABF0A8C9180538A30A8F1C4FF03C01F
:10563000D194C194D1080C0D1D1DC1FF09C0E11406
:10564000F10431F081E0A81AB108D701AD92BC9203
:10565000CA01B9010E947F2CC370C33009F490586D
:105660004B015C0120E030E0A9010E947A2C8823E4
:1056700009F440C0CFE9D0E017FF05C011950195AE
:105680001109C7E8D0E06E01B8E1CB1AD10880E279
:10569000E82EF12C0FC0D501B1CFFE012591359137
:1056A000459154910E191F09C501B4010E94E02CC7
:1056B0004B015C01D501C4010E151F0574F7249739
:1056C000F594E794CC16DD06A9F78A2F880F8B2F67
:1056D000881F8F3F49F020E030E0A901C501B401E7
:1056E0000E947A2C811106C082E290E090935804C7
:1056F00080935704C501B401CDB7DEB7ECE00C943C
:105700000B2E283008F027E03327DA01990F311DDE
:1057100087FD916000966105710539F432602E5F56
:105720003D9330E32A95E1F708959F3F30F08038AC
:105730007105610509F03C5F3C5F3D93913008F0D5
:105740008068911DDF93CF931F930F93FF92EF9289
:10575000192F987F9695E92F96959695E90FFF2733
:10576000E350FF4F99273327EE24FF24A701E701D9
:1057700005900894079428F4360FE71EF81E491F79
:10578000511D660F771F881F991F0694A1F705907A
:10579000079428F4E70EF81E491F561FC11D770F06
:1057A000881F991F661F0694A1F70590079428F497
:1057B000F80E491F561FC71FD11D880F991F661F5E
:1057C000771F0694A1F70590079420F4490F561F00
:1057D000C71FD81F990F661F771F881F0694A9F748
:1057E00084911095177041F0D695C79557954795B8
:1057F000F794E7941A95C1F7E3EAF0E068941590FE
:10580000159135916591959105907FE27395E11819
:10581000F10A430B560BC90BD009C0F7E10CF11E7E
:10582000431F561FC91FD01D7EF4703311F48A9593
:10583000E6CFE894015030F0080F0AF40027021771
:1058400008F4202F2395022F7A3328F079E37D93F3
:105850002A95E9F710C07D932A9589F606949795C5
:105860006795379517951794E118F10A430B560B76
:10587000C90BD00998F023957E9173957A3308F07F
:1058800070E37C932013B8F77E9170617D9330F0C4
:10589000839571E37D9370E32A95E1F71124EF90EE
:1058A000FF900F911F91CF91DF91992787FD9095E0
:1058B000089591110C944D2D803219F08950855026
:1058C000C8F70895FB01DC014150504088F08D91EC
:1058D00081341CF08B350CF4805E659161341CF0D2
:1058E0006B350CF4605E861B611171F3990B0895A2
:1058F000881BFCCF0E94BC2C08F481E00895E8943A
:1059000009C097FB3EF490958095709561957F4F07
:105910008F4F9F4F9923A9F0F92F96E9BB279395B5
:10592000F695879577956795B795F111F8CFFAF4C5
:10593000BB0F11F460FF1BC06F5F7F4F8F4F9F4FF6
:1059400016C0882311F096E911C0772321F09EE854
:10595000872F762F05C0662371F096E8862F70E0BA
:1059600060E02AF09A95660F771F881FDAF7880F94
:105970009695879597F90895990F0008550FAA0BEA
:10598000E0E8FEEF16161706E807F907C0F0121652
:105990001306E407F50798F0621B730B840B950B55
:1059A00039F40A2661F0232B242B252B21F40895AA
:1059B0000A2609F4A140A6958FEF811D811D089547
:1059C0000E94F32C0C94672D0E94592D38F00E94F0
:1059D000602D20F0952311F00C94502D0C94562D31
:1059E00011240C949B2D0E94782D70F3959FC1F388
:1059F000950F50E0551F629FF001729FBB27F00D7D
:105A0000B11D639FAA27F00DB11DAA1F649F6627D1
:105A1000B00DA11D661F829F2227B00DA11D621F20
:105A2000739FB00DA11D621F839FA00D611D221FDA
:105A3000749F3327A00D611D231F849F600D211DBE
:105A4000822F762F6A2F11249F5750409AF0F1F041
:105A500088234AF0EE0FFF1FBB1F661F771F881FAA
:105A600091505040A9F79E3F510580F00C94502D65
:105A70000C949B2D5F3FE4F3983ED4F38695779585
:105A80006795B795F795E7959F5FC1F7FE2B880F50
:105A9000911D9695879597F90895992788270895D8
:105AA00097F99F6780E870E060E008959FEF80ECD1
:105AB000089500240A941616170618060906089574
:105AC00000240A9412161306140605060895092EDA
:105AD0000394000C11F4882352F0BB0F40F4BF2B49
