:100000000C94FC050C9424060C9424060C942406F1
:100010000C9424060C9424060C9424060C942406B8
:100020000C9424060C9424060C9424060C942406A8
:100030000C9424060C9424060C9424060C94240698
:100040000C946F1D0C9424060C943D1D0C94171DEC
:100050000C9424060C9424060C9424060C94240678
:100060000C9424060C9424064E414E494E49545992
:10007000494E46CDCCCC3D0AD7233C17B7D1387773
:10008000CC2B329595E6241FB14F0A000020410089
:1000900000C84200401C4620BCBE4CCA1B0E5AAED3
:1000A000C59D7400407A10F35A00A0724E180900E2
:1000B00010A5D4E80000E87648170000E40B5402CD
:1000C0000000CA9A3B000000E1F505000080969808
:1000D00000000040420F000000A086010000001058
:1000E0002700000000E8030000000064000000009A
:1000F000000A00000000000100000000002C76D87B
:1001000088DC674F0823DFC1DFAE59E1B1B796E560
:10011000E3E453C63AE651997696E8E6C28426EBC4
:10012000898C9B62ED407C6FFCEFBC9C9F40F2BAD7
:10013000A56FA5F490055A2AF75C936B6CF9676D6F
:10014000C11BFCE0E40D47FEF520E6B500D0ED90C4
:100150002E0300943577050080841E080000204E91
:100160000A000000C80C333333330F986E1283112A
:1001700041EF8D2114893BE65516CFFEE6DB18D101
:10018000844B381BF77C1D901DA4BBE424203284D3
:10019000725E228100C9F124ECA1E53D27005EBC1E
:1001A000E2613FDD83C29C7E20A3FD1F419DC321F0
:1001B0007FFCA2401E5F01E3BD3E6082DC237D9F89
:1001C000C1421CFEA0E1BF5D0380DE3C62BEE002D6
:1001D0005CDF81633D7C22C09E1D43A1FF4618FA6F
:1001E000A427799BC584DA3866E5BB5907DB8567A8
:1001F00039BAE406581947A5FB7826C49A653BD955
:1002000087045AB8E6A7F91B45C6987A24F8A6448D
:100210001A99C7257B3A6486D85B05E7B98CD2303A
:100220006EEDB3510F4E10F2AC2F7193CD114FAD57
:10023000F3702ECC92D38D6F31B2EC0E50AFF11320
:100240004DCE90722C6D33D18F0C52B0EE326C8E3D
:10025000D0530DEFB1F0AE4C1291CF2D73CA9476FE
:1002600028ABF517490856B4EA6937D58B5709EB1F
:10027000B536688AD495CB2977F4AA4816E9B755DC
:100280000B88D6346A2B7597C94A14F6A8742AC805
:1002900096154BA9F7B6E80A54D7896B35000000CC
:1002A00000250028002B00000000080002010000CB
:1002B000030407000000000000000000000000240C
:1002C0000027002A0045746865726E6574207368A3
:1002D00069656C64206E612049503A004275696C12
:1002E0006420312E302E33207A2032322E204A6183
:1002F0006E20323032310057656261706C696B611B
:1003000063697520767974766F72696C3A204D61F5
:100310007274696E2043686C65626F76656300482D
:100320005454502F312E3120343034204E6F7420ED
:10033000466F756E64003C2F68746D6C3E003C2FF8
:10034000626F64793E003C623E507265736D657207
:100350006F76616E69652E2E2E2050726F73696DF7
:100360002063616B616A74653C2F623E3C2F63655C
:100370006E7465723E003C68333E3C666F6E74205E
:10038000636F6C6F723D27726564273E5A616461CA
:100390006E65207564616A65206E696520737520DD
:1003A0006369736C61212121204F70616B756A74E0
:1003B0006520706F6B757320706F20707265736D40
:1003C00065726F76616EC3AD2E3C2F666F6E743EA4
:1003D0003C2F68333E003C63656E7465723E3C683A
:1003E000333E536572766572207072696A616C2063
:1003F00064617461207A20666F726D756CC3A1723E
:10040000613A3C2F68333E003C626F64793E003CA9
:100410002F686561643E003C7469746C653E4854A5
:10042000545020776562736572766572202D204185
:10043000726475696E6F202B2045746865726E65F5
:10044000743C2F7469746C653E003C6D657461206A
:10045000687474702D65717569763D275265667292
:100460006573682720636F6E74656E743D27353B36
:100470002075726C3D2F27202F3E003C6D65746106
:1004800020636861727365743D277574662D382723
:100490003E003C686561643E003C68746D6C3E00E3
:1004A0003C21444F43545950452068746D6C3E00C4
:1004B000436F6E74656E742D547970653A2074655F
:1004C00078742F68746D6C00485454502F312E315D
:1004D00020323030204F4B00506F757A697661744E
:1004E000656C736B792076737475702070726520FB
:1004F0006B6C756320666E616D6532202848797378
:10050000746572657A6129206E6965206A65206369
:1005100069736C6F2100506F757A69766174656CD0
:10052000736B7920767374757020707265206B6CB4
:10053000756320666E616D6520284369656C6F7612
:1005400061207465706C6F746129206E6965206A22
:1005500065206369736C6F21007D002241637475AF
:10056000616C5F54656D7065726174757265223A75
:10057000002C00225461726765745F54656D70656C
:10058000726174757265223A002C00224879737486
:10059000657265736973223A007B00436F6E746500
:1005A0006E742D547970653A206170706C69636166
:1005B00074696F6E2F6A736F6E00485454502F31F8
:1005C0002E3120323030204F4B003C2F68746D6C40
:1005D0003E003C2F626F64793E003C2F63656E7471
:1005E00065723E003C68343E5665727A69612066E9
:1005F000726565202D20312E302E33206275696C96
:10060000643A2032322E204A616E2E20323032314E
:100610003C2F68343E003C68333E4175746F723A3B
:10062000204D617274696E2043686C65626F7665F7
:1006300063202D206D617274696E6975733936405F
:10064000676D61696C2E636F6D202D206874747006
:10065000733A2F2F6D617274696E69757339362E16
:100660006769746875622E696F2F7465726D6F7338
:100670007461742D65746865726E65742F3C2F68A3
:10068000333E00730020006D0020006800200064ED
:10069000003C623E557074696D653A203C2F623EA5
:1006A000003C68723E0020C2B043003C623E416B99
:1006B0007475C3A16C6E61207465706C6F74612079
:1006C00073656E7A6F726120445331384232303A2A
:1006D0003C2F623E20003C6469762069643D2263C1
:1006E0006F756E74646F776E223E3C2F6469763E40
:1006F000003C623E3C666F6E7420636F6C6F723DAF
:1007000027726564273E56C3BD737475703A2056D0
:1007100079706E7574C3BD3C2F666F6E743E3C2F4E
:10072000623E003C623E3C666F6E7420636F6C6F8D
:10073000723D27677265656E273E56C3BD7374753B
:10074000703A205A61706E7574C3BD3C2F666F6E2F
:10075000743E3C2F623E003C2F666F726D3E3C68DB
:10076000723E003C696E70757420747970653D2727
:100770007375626D69742720636C6173733D2762C2
:10078000746E2062746E2D737563636573732720B6
:1007900076616C75653D275A6170C3AD7361C5A5FF
:1007A000273E003C666F726D20616374696F6E3D19
:1007B000272F616374696F6E2E68746D6C27206DCE
:1007C0006574686F643D27676574273E003C636508
:1007D0006E7465723E3C68333E5A6164616A74654A
:1007E0002064C3A1746120707265207765627365AF
:1007F000727665722028627564C3BA20756C6FC505
:10080000BE656EC3A920646F20454550524F4D29E7
:100810003A3C2F68333E003C626F64793E003C2FC7
:10082000686561643E003C7469746C653E4854546C
:100830005020776562736572766572202D20417253
:100840006475696E6F202B2045746865726E6574DF
:100850003C2F7469746C653E003C2F736372697041
:10086000743E007D2C2031303030293B0074696D9E
:10087000656C656674202D3D20313B007D00646F02
:1008800063756D656E742E676574456C656D656E18
:1008900074427949642822636F756E74646F776E51
:1008A00022292E696E6E657248544D4C203D20748D
:1008B000696D656C656674202B20222073656BC39F
:1008C000BA6E6420646F207265C5A174617274751C
:1008D000223B007D20656C7365207B00646F63752F
:1008E0006D656E742E676574456C656D656E7442DA
:1008F0007949642822636F756E74646F776E22295C
:100900002E696E6E657248544D4C203D2022526512
:10091000C5A1746172742E2E2E223B00636C65613A
:1009200072496E74657276616C28646F776E6C6F55
:10093000616454696D6572293B0069662874696D4C
:10094000656C656674203C3D2030297B00766172C1
:1009500020646F776E6C6F616454696D6572203DC1
:1009600020736574496E74657276616C2866756E65
:100970006374696F6E28297B007661722074696DDB
:10098000656C656674203D2033303B003C736372B8
:1009900069707420747970653D27746578742F6A66
:1009A000617661736372697074273E003C6C696E96
:1009B0006B2072656C3D277374796C65736865652F
:1009C000742720687265663D2768747470733A2FC7
:1009D0002F6D617863646E2E626F6F7473747261D1
:1009E0007063646E2E636F6D2F626F6F74737472B9
:1009F00061702F332E342E312F6373732F626F6F1C
:100A00007473747261702E6D696E2E637373273EFA
:100A1000003C6D657461206E616D653D277669658A
:100A200077706F72742720636F6E74656E743D27E4
:100A300077696474683D6465766963652D77696478
:100A400074682C20696E697469616C2D7363616CC4
:100A5000653D31273E003C6D65746120687474709B
:100A60002D65717569763D275265667265736827D5
:100A700020636F6E74656E743D273330273B202FE3
:100A80003E003C6D657461206E616D653D2761754A
:100A900074686F722720636F6E74656E743D274DA6
:100AA000617274696E2043686C65626F7665632756
:100AB0003E003C6D65746120636861727365743DCE
:100AC000277574662D38273E003C686561643E00DA
:100AD0003C68746D6C3E003C21444F435459504572
:100AE0002068746D6C3E00436F6E74656E742D5497
:100AF0007970653A20746578742F68746D6C00485D
:100B00005454502F312E3120323030204F4B004181
:100B10006B7475616C6E792073746176207679736D
:100B20007475707520707265206B6F746F6C3A20ED
:100B300000526F7A6469656C206369656C6F7665D5
:100B40006A206120616B7475C3A16C6E656A207444
:100B500065706C6F7479206E6965206A65206E61BE
:100B6000642C20616E6920706F64206879737465ED
:100B700072657A6F752E205374617620767973745E
:100B8000757075207361206E656D656E692E004B02
:100B90006F746F6C207679706E757479004B6F741A
:100BA0006F6C207A61706E75747900457468657237
:100BB0006E657420736869656C64206E61204950AD
:100BC0003A00000000002300260029000404040469
:100BD00004040404020202020202030303030303E7
:100BE00001020408102040800102040810200102C4
:100BF00004081020B91D112A11241FBECFEFD8E020
:100C0000DEBFCDBF12E0A0E0B1E0E0E3F7E602C056
:100C100005900D92AC3FB107D9F724E0ACEFB2E0FC
:100C200001C01D92A333B207E1F715E0CBEFD5E089
:100C300004C02197FE010E945B31CA3FD107C9F76A
:100C40000E94941E0C948B330C940000089520E3B2
:100C5000FC0120833296862F82958F706F706A30E8
:100C600030F4605D6293682F8111F5CF0895695C5F
:100C7000F9CF089521E0FC018485883009F420E053
:100C8000822F0895FC01248135816217730748F48F
:100C900080819181009729F0860F971FFC01808148
:100CA000089580E00895DB0114964D915C911597AD
:100CB0006D917C91DC01ED91FC910280F381E02D3E
:100CC0000994EF92FF920F931F93CF93DF938C01C0
:100CD0007B01D0E0C0E0F701EC0FFD1F64916623BB
:100CE00061F0D801ED91FC910190F081E02DC801F7
:100CF0000995892B11F02196EECFCE01DF91CF918E
:100D00001F910F91FF90EF900895AF92BF92CF92F5
:100D1000DF92EF92FF920F931F93CF93DF936C01BB
:100D20007B018B01040F151FEB015E01AE18BF089C
:100D3000C017D10759F06991D601ED91FC9101904E
:100D4000F081E02DC6010995892B79F7C501DF9166
:100D5000CF911F910F91FF90EF90DF90CF90BF90B8
:100D6000AF900895FC01538D448D252F30E0842FE2
:100D700090E0821B930B541710F0CF9608950197C3
:100D80000895FC01918D828D981761F0A28DAE0FB0
:100D9000BF2FB11D5D968C91928D9F5F9F73928F37
:100DA00090E008958FEF9FEF0895FC01918D828D63
:100DB000981731F0828DE80FF11D858D90E0089530
:100DC0008FEF9FEF0895FC01918D228D892F90E088
:100DD000805C9F4F821B91098F739927089582E24F
:100DE00093E00E94E30621E0892B09F420E0822FA2
:100DF000089580E090E0892B29F00E94EF06811190
:100E00000C9400000895FC01A48DA80FB92FB11D0A
:100E1000A35ABF4F2C91848D90E001968F73992730
:100E2000848FA689B7892C93A089B1898C9183700E
:100E300080648C93938D848D981306C00288F38907
:100E4000E02D80818F7D80830895EF92FF920F9334
:100E50001F93CF93DF93EC0181E0888F9B8D8C8D66
:100E600098131AC0E889F989808185FF15C09FB75A
:100E7000F894EE89FF896083E889F989808183701D
:100E8000806480839FBF81E090E0DF91CF911F91CC
:100E90000F91FF90EF900895F62E0B8D10E00F5FED
:100EA0001F4F0F731127E02E8C8D8E110CC00FB6C3
:100EB00007FCFACFE889F989808185FFF5CFCE015B
:100EC0000E940307F1CFEB8DEC0FFD2FF11DE35ACC
:100ED000FF4FF0829FB7F8940B8FEA89FB898081DE
:100EE0008062CFCFCF93DF93EC01888D8823B9F058
:100EF000AA89BB89E889F9898C9185FD03C0808125
:100F000086FD0DC00FB607FCF7CF8C9185FFF2CFA1
:100F1000808185FFEDCFCE010E940307E9CFDF91ED
:100F2000CF91089590E0FC01E955FD4F2491FC011B
:100F3000E052F44F3491FC01E453F44FE491EE237A
:100F4000C9F0222339F0233001F1A8F4213019F13E
:100F5000223029F1F0E0EE0FFF1FE356FD4FA5917F
:100F6000B4918FB7F894EC91611126C030953E236F
:100F70003C938FBF08952730A9F02830C9F0243062
:100F800049F7809180008F7D03C0809180008F772A
:100F900080938000DFCF84B58F7784BDDBCF84B5AD
:100FA0008F7DFBCF8091B0008F778093B000D2CF40
:100FB0008091B0008F7DF9CF3E2BDACFCF93DF93B6
:100FC00090E0FC01E052F44F24918453944FFC01D3
:100FD00084918823D1F090E0880F991FFC01E5549B
:100FE000FD4FA591B491FC01E356FD4FC591D491FD
:100FF00061110EC09FB7F8948C91E22FE0958E237B
:101000008C932881E223E8839FBFDF91CF910895DD
:101010008FB7F894EC91E22BEC938FBFF6CF3FB7EC
:10102000F8948091020390910303A0910403B0917E
:10103000050326B5A89B05C02F3F19F00196A11DF9
:10104000B11D3FBFBA2FA92F982F8827BC01CD0112
:10105000620F711D811D911D42E0660F771F881F71
:10106000991F4A95D1F708958F929F92AF92BF92A0
:10107000CF92DF92EF92FF926B017C010E940F08EA
:101080004B015C01C114D104E104F104B9F00E94E8
:101090000F08681979098A099B09683E7340810520
:1010A000910580F321E0C21AD108E108F10888EE29
:1010B000880E83E0981EA11CB11CE4CFFF90EF9036
:1010C000DF90CF90BF90AF909F908F9008952FB7F3
:1010D000F8946091FE027091FF028091000390915C
:1010E00001032FBF0895DC0180E0615038F0ED91DD
:1010F000E827F0E0E356FE4F8491F7CF0895DC0136
:101100002C911196ED91FC91F8948181822B818331
:101110009281322F30959323928387E090E001975C
:10112000F1F781818323818383E290E00197F1F7D6
:1011300090817894EFECF0E03197F1F7922381E021
:1011400009F480E00895FC0190810180F281E02D96
:10115000292F209560FF14C0F89482818223828316
:101160008181892B8183A3E2B0E01197F1F782811D
:10117000982B9283789487ED90E00197F1F708958A
:10118000F8948281822382838181892B8183AFEFCE
:10119000B0E01197F1F78281982B928378948FE0D9
:1011A00090E0EBCFDF92EF92FF920F931F93CF93DC
:1011B000DF93EC01D62EE42E08E010E0FF24F39438
:1011C00061E08D2D8F2109F460E0CE010E94A3081B
:1011D000FF0C01501109A1F7E11010C0F894E9814A
:1011E000FA8191818881809589238183E981FA81BF
:1011F000928188818095892382837894DF91CF9131
:101200001F910F91FF90EF90DF900895EF92FF9262
:101210000F931F93CF93DF938C017B0140E065E533
:101220000E94D208E70188E0E80EF11C699140E0D5
:10123000C8010E94D208CE15DF05C1F7DF91CF911A
:101240001F910F91FF90EF900895FC019081018014
:10125000F281E02DF8948181292F209582238183CA
:1012600078943DE743E050E0315029F1DA011197DD
:10127000F1F780818923C1F3F894828182238283EC
:101280008181892B81837894ABE7B7E01197F1F7DF
:10129000F894818182238183A3E1B1E01197F1F772
:1012A0008081982381E009F080E07894E3E6F6E01D
:1012B0003197F1F7089580E00895AF92BF92CF92F1
:1012C000DF92EF92FF920F931F93CF93DF938B01E7
:1012D000BC018091090490910A040E94060940E033
:1012E0006EEB8091090490910A040E94D208E801F3
:1012F000680189E0C80ED11CA0900904B0900A04CE
:1013000088E0E82EF12C10E001E0C5010E947F0882
:101310008111102B000F81E0E81AF108B1F7199341
:10132000CC16DD0649F78091090490910A040E94C9
:10133000250991E0813009F090E0892FDF91CF916C
:101340001F910F91FF90EF90DF90CF90BF90AF90E3
:1013500008950F931F93CF93DF93CDB7DEB72997EF
:101360000FB6F894DEBF0FBECDBF8C01809109048B
:1013700090910A040E942509811102C080E01FC0DB
:10138000BE016F5F7F4FC8010E945D098823B1F3E2
:1013900068E0CE0101960E94730899858913EECF0B
:1013A0008D818F33B9F020F48F3141F789E007C088
:1013B0008F3521F08F3711F78CE001C08BE0299633
:1013C0000FB6F894DEBF0FBECDBFDF91CF911F9156
:1013D0000F9108958AE0F3CF61E0809107030C94A8
:1013E000920760E0809107030C94920708958EBDE8
:1013F00000000DB407FEFDCF8EB508958CBD9DBDD8
:101400000895DF92EF92FF920F931F93CF93DF9394
:10141000D82FD92EC62F7A0189018091BF039091D0
:10142000C0030E94FE090E94F1098D2D0E94F70958
:101430008D2F0E94F7098C2F0E94F709E701E00E1B
:10144000F11E80E00E94F7098993EC16FD06C9F7AA
:101450000E94EC09C801DF91CF911F910F91FF907D
:10146000EF90DF900895CF93DF93D82FC62F809110
:10147000BF039091C0030E94FE090E94F10980E021
:101480000E94F7098D2F0E94F7098C2F0E94F709FF
:1014900080E00E94F709C82F0E94EC098C2FDF9191
:1014A000CF910895DF92EF92FF920F931F93CF9306
:1014B000DF93D82FD92EC62F7A0189018091BF03DF
:1014C0009091C0030E94FE090E94F1098D2D0E9497
:1014D000F7098D2F0E94F7098C2F0E94F709E70169
:1014E000E00EF11ECE15DF0521F089910E94F7096B
:1014F000F9CF0E94EC09C801DF91CF911F910F91A4
:10150000FF90EF90DF9008951F93CF93DF93182FF4
:10151000D62FC42F8091BF039091C0030E94FE0973
:101520000E94F10980E00E94F709812F0E94F709CB
:101530008D2F0E94F7098C2F0E94F7090E94EC0959
:1015400081E0DF91CF911F9108959B018295880FD3
:10155000807E6CE0680FC9010C94840ACF93DF93FE
:10156000EC01898D9A8D892B41F0E881F981028403
:10157000F385E02DCE010995F4CFDF91CF91089549
:10158000CF93DF931F92CDB7DEB76983DC01ED9176
:10159000FC910280F381E02D41E050E0BE016F5FDD
:1015A0007F4F09950F90DF91CF9108951F93CF93AF
:1015B000DF93FB01DC0158961C921E925797228103
:1015C000211109C02381211106C02481211103C0EA
:1015D0002581222339F14115510521F1EA01DC0170
:1015E0001C961C91AF014E5F5F4F612F6295660F95
:1015F000607E645F24E030E08CE090E00E94520A5C
:101600004D2F60E170E0812F0E94A50A4C2F61E10F
:1016100070E0812F0E94A50A81E090E0DF91CF91D8
:101620001F91089590E080E0F9CFFC01818D928DAB
:101630000895FC018589968908952EE831E0FC0122
:1016400031832083FB014189528963897489FC01BC
:101650004283538364837583089580E00895CF9314
:10166000DF931F92CDB7DEB76983DC01ED91FC916A
:101670000280F381E02D41E050E0BE016F5F7F4FBB
:1016800009950F90DF91CF9108950895FC019485FD
:10169000FB018485981303C081E0983009F480E051
:1016A0000895CF93DF931F92CDB7DEB76983DC0136
:1016B000ED91FC910280F381E02D41E050E0BE010C
:1016C0006F5F7F4F09950F90DF91CF910895DC01F7
:1016D000ED91FC91028CF38DE02D099591E0892725
:1016E00008959B018295880F807E68E0680FC9018C
:1016F0000C94330ACF93C82F462F61E070E00E940C
:10170000A50A61E070E08C2F0E94710B8111F9CF66
:10171000CF910895CF93C82F60E170E00E947A0BBB
:101720004FEF62E070E08C2FCF910C94A50A0F93DD
:101730001F93CF93DF93C82FD62F8A010E948A0B65
:101740004D2F70E060E08C2F0E94A50A0115110555
:10175000B9F0412F64E070E08C2F0E94A50A402F61
:1017600065E070E08C2F0E94A50A61E070E08C2F8C
:101770000E947A0B81E0DF91CF911F910F91089524
:1017800000912003109121030F5F1F4F109321033D
:1017900000932003DECFCF93DF93EC018C8588305C
:1017A00061F00E948A0BEC85F0E0EE0FFF1FE85F0E
:1017B000FC4F1182108288E08C87DF91CF910895D1
:1017C000CF92DF92EF92FF920F931F93CF93DF930D
:1017D000D82E7B018A01C22E68E270E00E94710B54
:1017E000C82FD0E0DC2FCC2769E270E08D2D0E945D
:1017F000710BC80FD11D6D2D6295660F607E685EFE
:101800009801A701CE010E94010AC11016C0C00FA5
:10181000D11F4D2F68E270E08D2D0E94A50A4C2F3C
:1018200069E270E08D2DDF91CF911F910F91FF90B4
:10183000EF90DF90CF900C94A50ADF91CF911F918C
:101840000F91FF90EF90DF90CF9008950F931F932B
:10185000CF93DF931F92CDB7DEB78C01DC01ED9102
:10186000FC910084F185E02D0995892B91F021E010
:1018700041E050E0BE016F5F7F4FF80184850E9418
:10188000E00B898190E00F90DF91CF911F910F9134
:1018900008958FEF9FEFF7CFCF93DF931F92CDB7D0
:1018A000DEB7FC01218D328D8FEF9FEF232B59F096
:1018B00021E041E050E0BE016F5F7F4F84850E94D0
:1018C000E00B898190E00F90DF91CF910895BF9256
:1018D000CF92DF92EF92FF920F931F93CF93DF93FC
:1018E000B82E6B017A01890164E270E00E94710BED
:1018F000C82F65E270E08B2D0E94710BD0E0DC2FC9
:10190000CC278C0D9D2D911DC80FD91F6B2D629575
:10191000660F607E6C5E9801A701CE010E94520A9C
:10192000C00FD11F4D2F64E270E08B2D0E94A50ADD
:101930004C2F65E270E08B2DDF91CF911F910F91BD
:10194000FF90EF90DF90CF90BF900C94A50A1F936B
:10195000CF93DF93182F66E270E00E94710BC82FBF
:10196000D0E0DC2FCC2767E270E0812F0E94710B62
:101970008C0F9D2F911DDF91CF911F910895FF92A4
:101980000F931F93CF93DF93F82E10E000E08F2D7D
:101990000E94A70CEC01892B21F08F2D0E94A70C2F
:1019A0008C01C017D10799F7CE01DF91CF911F911C
:1019B0000F91FF900895FC018485883011F00C94FC
:1019C000BF0C90E080E008951F93CF93DF93182F12
:1019D00060E270E00E94710BC82FD0E0DC2FCC27B2
:1019E00061E270E0812F0E94710B8C0F9D2F911D81
:1019F000DF91CF911F910895FF920F931F93CF9383
:101A0000DF93F82E10E000E08F2D0E94E40CEC0133
:101A1000892B21F08F2D0E94E40C8C01C017D10777
:101A200099F7CE01DF91CF911F910F91FF9008950B
:101A3000AF92BF92CF92DF92FF920F931F93CF93FB
:101A4000DF938C015B01EA01FC01C788D08CF48430
:101A50008F2D0E94FC0C8C179D0720F48F2D0E9467
:101A6000FC0CEC019E01A501B6018F2D0E94670CB4
:101A7000F8018789908D8C0F9D1F908F878BCE01E9
:101A8000DF91CF911F910F91FF90DF90CF90BF908A
:101A9000AF900895FC018485883021F063E070E008
:101AA0000C94710B80E00895CF93DF93FC012485A3
:101AB0002830D9F0EC010E944A0D843189F0882346
:101AC00079F0883169F021E08C3159F4E881F981AD
:101AD0000084F185E02DCE01099521E0892B09F4E0
:101AE00020E0822FDF91CF91089580E0FBCFCF924D
:101AF000DF92EF92FF92CF93DF93EC018C858830D9
:101B000089F168E070E00E947A0B0E9467086B011F
:101B10007C01CE010E944A0D882391F00E94670843
:101B20006C197D098E099F09683E734081059105F6
:101B300038F461E070E080E090E00E943408E9CF82
:101B4000CE010E944A0D882319F08C850E948A0BD1
:101B5000EC85F0E0EE0FFF1FE85FFC4F1182108272
:101B600088E08C87DF91CF91FF90EF90DF90CF904E
:101B700008954F925F926F927F928F929F92AF9251
:101B8000BF92CF92DF92EF92FF921F93CF93DF939A
:101B9000CDB7DEB72D970FB6F894DEBF0FBECDBF21
:101BA0007C0198E0A92E93E0B92E10E0D12CC12C35
:101BB00028EE422E23E0522E612C712C3EE3832E20
:101BC00031E0932E1C821B824D825E826F8278866A
:101BD0009A8289821D87D5012D913D915D01F70182
:101BE0008481958128173907B1F4CE0101960E94AE
:101BF0004A0D843199F1CE0101960E944A0D8C3133
:101C000051F4CE0101960E94DB0C892B21F4CE0108
:101C100001960E94770D1F5F1830A1F6CD2841F480
:101C2000D701ED91FC910084F185E02DC701099564
:101C30002D960FB6F894DEBF0FBECDBFDF91CF91CA
:101C40001F91FF90EF90DF90CF90BF90AF909F904B
:101C50008F907F906F905F904F900895CC24C394A5
:101C6000D12CD9CFCF92DF92EF92FF921F93CF93D7
:101C7000DF93182F6B017A010E94BF0CEC010097D3
:101C8000D9F463E070E0812F0E94710B843159F028
:101C9000882349F0C1E0D0E08C3111F4D0E0C0E0FD
:101CA000D195C195D109CE01DF91CF911F91FF90C0
:101CB000EF90DF90CF900895E816F9060CF4E70155
:101CC0001C161D0684F720E0AE01B601812F0E948C
:101CD000E00B60E470E0812F0E947A0BE4CFCF9399
:101CE000DF93FC01218D328D2115310529F48FEF11
:101CF0009FEFDF91CF910895EC0184854217530740
:101D000008F0A9010E94320E1816190684F7298DD1
:101D10003A8D281B390B3A8F298FEBCF0F931F93E6
:101D2000CF93DF931F92CDB7DEB7FC01218D328DAB
:101D3000232B41F48FEF9FEF0F90DF91CF911F91F5
:101D40000F9108958C0141E050E0BE016F5F7F4F1D
:101D5000FC0184850E94320E181619065CF7F80102
:101D6000818D928D0197928F818F898190E0E4CF50
:101D7000FC0184850C94320ECF93DF931F92CDB774
:101D8000DEB741E050E0BE016F5F7F4FFC0184850C
:101D90000E94320E1816190634F4898190E00F90D3
:101DA000DF91CF9108958FEF9FEFF9CF0F931F939E
:101DB000CF93DF93EC010E946708688779878A8751
:101DC0009B87CE010E94BC0E97FF15C00E9467083A
:101DD000088519852A853B85601B710B820B930B47
:101DE0000C811D812E813F81601771078207930747
:101DF00040F38FEF9FEFDF91CF911F910F910895E7
:101E0000CF93FC01C48560E270E08C2F0E947A0BB6
:101E100062E070E08C2F0E94710B84FD11C062E0C3
:101E200070E08C2F0E94710B83FFF2CF48E162E0DB
:101E300070E08C2F0E94A50A90E080E0CF91089579
:101E400040E162E070E08C2F0E94A50A81E090E002
:101E5000F5CFEF92FF921F93CF93DF93FC01248580
:101E6000283039F080E0DF91CF911F91FF90EF9003
:101E700008957B01EC0110E063E070E0812F0E9487
:101E8000710B81110EC01C878C85883059F3FE863A
:101E9000ED861A8E198EA70162E00E94970B81E0F1
:101EA000E2CF883181F31F5F183031F7EDCF8F9289
:101EB0009F92AF92BF92CF92DF92EF92FF920F93D9
:101EC0001F93CF93DF93CDB7DEB72D970FB6F8945E
:101ED000DEBF0FBECDBF7C0110E000E038EE832EE8
:101EE00033E0932EA12CB12C4EE3C42E41E0D42E2E
:101EF0001C821B828D829E82AF82B886DA82C98262
:101F00000D87CE0101960E944A0D811130C0F70164
:101F10004481558161E0802F0E94970B63E070E05F
:101F2000802F0E94710B833129F462E070E0802FD2
:101F30000E947A0BF70184819581000F111FF8012F
:101F4000E85FFC4F918380832D960FB6F894DEBF37
:101F50000FBECDBFDF91CF911F910F91FF90EF90FA
:101F6000DF90CF90BF90AF909F908F9008950F5FBC
:101F70001F4F0830110509F0BBCFE6CF8F929F921B
:101F8000AF92BF92CF92DF92EF92FF920F931F9387
:101F9000CF936C015B017A01FC01C485C830A1F4C8
:101FA00081E090E0F60193838283F12CE12CC7015C
:101FB000CF911F910F91FF90EF90DF90CF90BF9046
:101FC000AF909F908F9008958A014130584010F053
:101FD00000E018E08C2F0E94FC0C4C0163E070E0E4
:101FE0008C2F0E94710B873111F08C3109F580160E
:101FF000910680F39801A50170E060E08C2F0E94AB
:10200000670C60E270E08C2F0E947A0B62E070E057
:102010008C2F0E94710B84FD0EC063E070E08C2F4A
:102020000E94710B8111F2CF8C2F0E948A0BB8CFC6
:1020300010E000E0DFCF40E162E070E08C2F0E9412
:10204000A50A012B09F0B3CFABCF3F924F925F921D
:102050006F927F928F929F92AF92BF92CF92DF92B8
:10206000EF92FF920F931F93CF93DF93CDB7DEB71D
:102070002D970FB6F894DEBF0FBECDBF6C015B018C
:102080004A010E94B90D88E0E82E83E0F82E312C39
:1020900010E000E098EE492E93E0592E612C712C4F
:1020A0001C821B824D825E826F8278868EE391E075
:1020B0009A8389833D86F701219131917F01F60151
:1020C000848195812817390771F4CE0101960E9409
:1020D0004A0D873141F4A401B501CE0101960E9459
:1020E000BE0F080F191F3394F8E03F12D9CFC80173
:1020F0002D960FB6F894DEBF0FBECDBFDF91CF9106
:102100001F910F91FF90EF90DF90CF90BF90AF9015
:102110009F908F907F906F905F904F903F90089529
:10212000DF92EF92FF920F931F93CF93DF93FC0107
:102130002485283051F090E080E0DF91CF911F910D
:102140000F91FF90EF90DF9008957A01EB018C01E1
:10215000D12C63E070E08D2D0E94710B811128C09D
:10216000F801D486F8018485883029F32091000194
:10217000309101012F5F3F4F19F1309301012093FE
:102180000001409100015091010161E00E94970B14
:102190008A818F3FC1F48B818F3F01F58C818F3F06
:1021A000E9F48D818F3FD1F488E0F8018487C3CFB3
:1021B0008B7F8831A9F2D394F8E0DF12CACFD2CF57
:1021C00020E034E0DACF811109C08B81811106C093
:1021D0008C81811103C08D81882331F3E114F104D6
:1021E00019F3F801D484AE014E5F5F4F6D2D6295F7
:1021F000660F607E645F24E030E08CE090E00E9437
:10220000520A4F2D60E170E08D2D0E94A50A4E2DDF
:1022100061E170E08D2D0E94A50A64E070E08D2DD3
:102220000E947A0BC8010E944A0D873161F061E07B
:1022300070E080E090E00E943408C8010E944A0DDE
:102240008111F0CFB1CF81E090E077CF90E080E0D6
:10225000089524E030E0AC0164E08FE090E00C945D
:10226000520ADC01ED91FC91048CF58DE02D09946E
:102270008091090490910A040E94250940E06CECC9
:102280008091090490910A040E94D20840910404AC
:1022900064E48091090490910A040E94D20880911C
:1022A00006048823A1F0E0910504E9506EEE72E087
:1022B000E33038F4F0E0EE0FFF1FEC59FE4F608181
:1022C0007181072E000C880B990B0C94340808952B
:1022D000BF92CF92DF92EF92FF920F931F93CF9313
:1022E000DF93EC01B62EC72EED84E11004C00E94EE
:1022F000250981110EC01B861D861C8680E0DF919A
:10230000CF911F910F91FF90EF90DF90CF90BF90F2
:10231000089540E060EFCE010E94D208D12C01E088
:1023200011E0CE010E947F08F82ECE010E947F08A6
:1023300091E0F91218C0813099F51134E0F2EB8682
:10234000E11002C081E08D878B818823A1F2239662
:10235000EB2DFC2DCF01089629912193E817F90761
:10236000D9F781E0CCCFED2DF0E0F8120FC08B85CE
:102370001817A0F4DE01AE0FBF1F13968C918023B7
:1023800079F4F12C193008F41C87E12EEC0FFD1FB5
:102390008381902F9095892383830AC08113F1CF85
:1023A000FE01ED0DF11D8381802B8383FF24F394C7
:1023B0006F2DCE010E94A3081F5F000F11F4D3946C
:1023C00001E087E08D1508F0ACCFB7CFCF93DF9356
:1023D000EC0188819981009711F00E94FD311982EA
:1023E00018821D821C821B821A82DF91CF91089570
:1023F000FC0180819181009711F00C94FD310895CA
:10240000DC018EE891E08D939D9384E0FB010190C7
:102410000D928A95E1F708950F931F93CF93DF9361
:10242000CDB7DEB728970FB6F894DEBF0FBECDBF8D
:102430008C01DC01ED91FC910680F781E02D09957E
:10244000F80184850E94BF0C892BB1F148E050E06F
:10245000BE016F5F7F4FD8011C968C910E94320E97
:1024600018161906F4F4D801519684E0FE0131964D
:1024700001900D928A95E1F78D8190E0982F882741
:102480002E81820F911DF801968B858B8F81282FCD
:1024900030E0322F22278885820F932F911D928F53
:1024A000818F28960FB6F894DEBF0FBECDBFDF91A7
:1024B000CF911F910F91089590E080E0F2CF4F925D
:1024C0005F926F927F928F929F92AF92BF92CF92C4
:1024D000DF92EF92FF920F931F93CF93DF93CDB7CD
:1024E000DEB763970FB6F894DEBF0FBECDBF7C0199
:1024F0006B013A01FB01DB018D918111FDCF30E0D1
:1025000020E090E080E05AE04191442301F18430E2
:1025100091050CF042C04E3269F42F3F310509F0AD
:10252000E4F5D301A80FB91F12962C93019630E061
:1025300020E0EACF529FB001539F700D1124242F49
:10254000440F330B20533109260F371FDDCF2F3FA8
:10255000310509F014F584309105FCF4680E791EFC
:10256000F3012283CC24C394D12CC60163960FB609
:10257000F894DEBF0FBECDBFDF91CF911F910F91B9
:10258000FF90EF90DF90CF90BF90AF909F908F9093
:102590007F906F905F904F900895F7014281538133
:1025A000648175818091EE039091EF03A091F00317
:1025B000B091F103481759076A077B0709F400C275
:1025C0008701085F1F4F0E9467086F7077277C5F45
:1025D000C8010E94290F813009F0F7C18EE891E00F
:1025E0009A838983F70182819381A481B5818B834A
:1025F0009C83AD83BE8345E350E0BE016F5F7F4F98
:10260000C8010E94D60A892B31F4D12CC12CC801F3
:102610000E94CB0BAACF0E946708F70177836683DD
:1026200042E050E0B7016A5F7F4FC8010E94180D79
:1026300081E090E09A83898342E050E0BE016F5FC1
:102640007F4FC8010E94180D80E091E09A83898332
:1026500042E050E0BE016F5F7F4FC8010E94180D3D
:102660001A82198242E050E0BE016F5F7F4FC801BD
:102670000E94180D42E050E0BE016F5F7F4FC8011D
:102680000E94180D42E050E0BE016F5F7F4FC8010D
:102690000E94180D5601F6018081882301F1650121
:1026A000F60181912F01882311F08E32B1F4460199
:1026B0008A189B081814190474F48D8641E050E0C0
:1026C000BE01635F7F4FC8010E94180DA401B501D0
:1026D000C8010E94180D5201DECF6201E1CF1D86B4
:1026E00041E050E0BE01635F7F4FC8010E94180DBA
:1026F000C12CDD24D394DA82C98242E050E0BE01CD
:102700006F5F7F4FC8010E94180DDA82C98242E0D4
:1027100050E0BE016F5F7F4FC8010E94180DC801D5
:102720000E94000F892B09F470CFF3E0AF2EB12C7B
:10273000230122E0420E511C43C0F7014281538124
:1027400064817581818D928DA38DB48D4817590751
:102750006A077B0709F02AC1858D968DC59709F018
:1027600025C181A192A10C970CF425C14CE050E049
:10277000BE016F5F7F4FC8010E946F0E8B819C81ED
:102780009827892798279A8B898BF701468157814B
:1027900029813A814217530711F497FD2FC0C801D0
:1027A0000E94AE0AECEFCE2EDD24DA9481E0A81A66
:1027B000B10809F42CCFFFEFCF16DF0609F027CFC1
:1027C0000E9467083B014C01C8010E940C121816B8
:1027D00019060CF4B2CF0E946708661977098809B8
:1027E0009909693873418105910508F0DBC062E3FE
:1027F00070E080E090E00E943408E6CF8F70927025
:10280000892B41F0C8010E94AE0A7BEFC72EDD2460
:10281000DA94CCCF6F807884762467247624D12C08
:10282000C12C61147104D1F4C8010E94AE0A6AEF90
:10283000C62EDD24DA94BACF8D85811117C0C80168
:102840000E948E0EC8010E948E0EC8010E948E0E3C
:10285000C8010E948E0EFFEFCF1ADF0A8D819E8184
:10286000982789279827C816D906A8F441E050E090
:10287000BE01635F7F4FC8010E946F0E8D85882364
:10288000D9F28D859FEF980F9D878823A9F2C80103
:102890000E948E0EF6CF912C812C41E050E0BE01BB
:1028A0006D5E7F4FC8010E946F0E8B89982F907CC0
:1028B00061F4882389F08B899FEF980F9B8B882385
:1028C00041F0C8010E948E0EF6CFC8010E948E0E04
:1028D0001B8A8B898111E1CF42E050E0BE01615F2C
:1028E0007F4FC8010E946F0E42E050E0BE01635F5F
:1028F0007F4FC8010E946F0EC8010E948E0EC80152
:102900000E948E0EC8010E948E0EC8010E948E0E7B
:1029100042E050E0BE016F5E7F4FC8010E946F0E23
:102920008F85988981159140E9F4CD84DE84DC247B
:10293000CD24DC2481E0C816D104A1F489899A89C8
:102940008115944041F0C8010E94AE0A57EFC52E90
:10295000DD24DA942BCF44E050E0B201C8010E949C
:102960006F0E24CFD12CC12C89899A899827892769
:102970009827C816D90638F4C8010E948E0EFFEFBA
:10298000CF1ADF0AF1CF2FEF821A920A6814790466
:1029900009F083CFC8010E94AE0A46EFC42EDD24A1
:1029A000DA9404CFCC24CA94DC2C00CF2EEFC22EB4
:1029B000DD24DA94FBCE9DEFC92EDD24DA94F6CE29
:1029C0008EEFC82EDD24DA94D0CDD12CC12CCDCD04
:1029D000CF92DF92EF92FF920F931F93CF93DF93EB
:1029E000CDB7DEB7AF970FB6F894DEBF0FBECDBF41
:1029F0007C016A010EE811E01A8309831C861B869C
:102A000088EE93E0A0E0B0E08D879E87AF87B88B1B
:102A100086E191E09A87898788E08D8B198F088FEE
:102A20001A8E1B8E1C8E1D8E1BA70AA71CA61DA608
:102A30001EA61FA68091DB039091DC03A091DD030D
:102A4000B091DE038EA39FA3A8A7B9A78B839C8315
:102A5000AD83BE8318861F82AE01465D5F4FCE01F7
:102A600001960E945F1281309105B1F4D701ED917A
:102A7000FC910488F589E02D1DA30CA38CA59DA5D0
:102A8000AEA5BFA58EA39FA3A8A7B9A7A601BE0107
:102A90006C5D7F4FC7010995AF960FB6F894DEBF06
:102AA0000FBECDBFDF91CF911F910F91FF90EF909F
:102AB000DF90CF900895CF92DF92EF92FF920F9325
:102AC0001F93CF93DF93CDB7DEB7AF970FB6F894D0
:102AD000DEBF0FBECDBF7C016A010EE811E01A8394
:102AE00009831C861B8688EE93E0A0E0B0E08D870A
:102AF0009E87AF87B88B86E191E09A87898788E0C7
:102B00008D8B198F088F1A8E1B8E1C8E1D8E1BA706
:102B10000AA71CA61DA61EA61FA68091DB039091E6
:102B2000DC03A091DD03B091DE038EA39FA3A8A7D1
:102B3000B9A78B839C83AD83BE8318861F82AE01A9
:102B4000465D5F4FCE0101960E945F128130910574
:102B5000B1F4D701ED91FC910684F785E02D1DA31A
:102B60000CA38CA59DA5AEA5BFA58EA39FA3A8A7CA
:102B7000B9A7A601BE016C5D7F4FC7010995AF964D
:102B80000FB6F894DEBF0FBECDBFDF91CF911F917E
:102B90000F91FF90EF90DF90CF9008950E94433304
:102BA000FB0101900020E9F73197AF01461B570B5D
:102BB000DC01ED91FC910280F381E02D09948F926C
:102BC0009F92AF92BF92EF92FF920F931F93CF937A
:102BD000DF93CDB7DEB7A1970FB6F894DEBF0FBE77
:102BE000CDBF7C01FA01CB0119A2223008F42AE002
:102BF0008E010F5D1F4F822E912CB12CA12CBF0195
:102C0000A50194010E945530F901CA016A300CF502
:102C1000605DD8016E938D01232B242B252B79F732
:102C200090E080E0109721F0BD01C7010E94D0150F
:102C3000A1960FB6F894DEBF0FBECDBFDF91CF9146
:102C40001F910F91FF90EF90BF90AF909F908F904A
:102C50000895695CDECF8F929F92AF92BF92CF9220
:102C6000DF92EF92FF920F931F93CF93DF937C013C
:102C7000EB016C0182E0C80ED11C4701E5E08E0E2D
:102C8000911C10E000E0F60141916F0150E070E00E
:102C900060E02AE0CE010E94DF155C01E881F98145
:102CA0000190F081E02D6EE2CE0109958A0D9B1D09
:102CB000080F191FC814D90431F7F701458150E0F6
:102CC00070E060E02AE0CE010E94DF15800F911FC6
:102CD000DF91CF911F910F91FF90EF90DF90CF90F8
:102CE000BF90AF909F908F90089560E971E00C9431
:102CF000D015CF93DF9362E273E00E942B16EC01B4
:102D000082E293E00E9475168C0F9D1FDF91CF9198
:102D100008950F931F93CF93DF93EC010E94530606
:102D20008C01CE010E947516800F911FDF91CF910B
:102D30001F910F9108950F931F93CF93DF93EC0191
:102D40000E9461068C01CE010E947516800F911FB2
:102D5000DF91CF911F910F910895FC01248135815E
:102D6000232B31F421E0FB01672B49F4822F0895D6
:102D7000808191816115710539F421E0FC01808128
:102D80008823A1F320E0F2CF0E945E3321E0892B5B
:102D900069F3F8CF7F928F929F92AF92BF92CF92BA
:102DA000DF92EF92FF920F931F93CF93DF93CDB7F4
:102DB000DEB7A6970FB6F894DEBF0FBECDBF8C016D
:102DC000762E942E852E20E2A22ECE0101967C0135
:102DD000DC01EA2D1D92EA95E9F76801FBE4CF0ECC
:102DE000D11C8EE891E09AA389A38FEF8BA38CA3CB
:102DF0008DA38EA343E450E0BE016F5D7F4FC601FB
:102E00000E94D60A019609F4BFC081E089838A83B3
:102E100086E0B82EBB821C82D80114966D917D91FC
:102E20008D919C9117970E9440316D837E838F8393
:102E3000988789869A8680E890E09C878B874CE10A
:102E400050E0B701C6010E94180DFE0137968AE1D5
:102E5000DF011D928A95E9F74801B8E08B0E911CBD
:102E6000F401D70101900D92BA94E1F740E150E0EE
:102E7000B701C6010E94180DF7011192AA94E9F753
:102E800096E0A92EB12C40E250E0B701C6010E94A5
:102E9000180DF1E0AF1AB108B1F783E6898392E823
:102EA0009A8393E59B838C8385E38D8381E08E8376
:102EB0007F829DE3988797E099878A8786E0F4016F
:102EC000DE011B9601900D928A95E1F78CE0898BCB
:102ED0008A8B63E971E0CE0143960E946733D80183
:102EE0001B966C91CE0149960E942706F8016485D5
:102EF000CE014B960E942706D8011D966C91CE01FB
:102F00004D960E9427064EE150E0B701C6010E948F
:102F1000180DB3E07B121EC082E3898384E08A83AC
:102F2000F80196859B8397859C8390899D839189E1
:102F30009E8396E39F838887868D8987878D8A877E
:102F400080A18B8781A18C874CE050E0B701C6013E
:102F50000E94180D87E3898386E08A8391E09B8332
:102F600093E09C838D838FE08E838AE38F838BE352
:102F700088878FEF898749E050E0B701C6010E943A
:102F8000180DC6010E94000FA6960FB6F894DEBF7A
:102F90000FBECDBFDF91CF911F910F91FF90EF90AA
:102FA000DF90CF90BF90AF909F908F907F900895CB
:102FB0000F931F93CF93DF93EC0188819981009742
:102FC00059F02A813B812617370730F081E0DF91E5
:102FD000CF911F910F9108958B016F5F7F4F0E94DA
:102FE0008632009759F0998388831B830A832C814A
:102FF0003D81232B59F7FC011082E8CF80E0E7CF19
:10300000EF92FF920F931F93CF93DF93611571059A
:1030100041F480E0DF91CF911F910F91FF90EF90ED
:10302000089541155105B1F07B01EC010C811D8122
:10303000040F151FB8010E94D817882351F3288167
:1030400039818C819D81B701820F931F0E94673364
:103050001D830C8381E0DECFCF93DF93EC01FB0176
:1030600001900020E9F73197AF01461B570B0E94F2
:103070000018811103C0CE010E94E611CE01DF913C
:10308000CF910895CF93DF93EC01FB0144815581EB
:10309000608171810E940018811103C0CE010E94DD
:1030A000E611CE01DF91CF910895EF92FF920F9339
:1030B0001F93CF93DF93EC017B018A01BA010E9439
:1030C000D81781110BC0CE010E94E611CE01DF910D
:1030D000CF911F910F91FF90EF9008951D830C8366
:1030E000B701888199810E946733F0CFFB0101907D
:1030F0000020E9F73197AF01461B570B0C94551888
:10310000CF93DF93EC01FB018617970749F06081AD
:1031100071816115710541F0448155810E945518F6
:10312000CE01DF91CF9108950E94E611F9CFFC0105
:103130001182108213821282158214826115710528
:1031400051F0FB0101900020E9F73197AF01461BD8
:10315000570B0C9455180895CF92DF92FF920F935E
:103160001F93CF93DF9300D000D000D0CDB7DEB750
:103170008C0162E971E0CE0101960E94971870E01F
:1031800060E0C8010E9442068B3211F08D3281F559
:10319000F80184819581029728F060817181611521
:1031A0007105F1F41092FC026CEF72E0CE01019611
:1031B0000E947618CD80DE8010E000E0F12C0C1526
:1031C0001D0509F1B801CE0101960E9442068E321A
:1031D000A9F4F11016C0FF24F3940F5F1F4FEFCF37
:1031E0006F5F7F4F19F7CE0101960E94E611E2CF83
:1031F000B801CE0101960E948018DCCF80538A303E
:1032000060F310E001C011E0CE0101960E94F811B8
:10321000812F26960FB6F894DEBF0FBECDBFDF918B
:10322000CF911F910F91FF90DF90CF9008952F9233
:103230003F924F925F926F927F928F929F92AF9246
:10324000BF92DF92EF92FF920F931F93CF93DF9382
:10325000CDB7DEB7E4970FB6F894DEBF0FBECDBF93
:103260007C014A015B0119010E9467082B013C01A6
:103270008701055B1F4FC8010E940C121816190622
:103280009CF00E94670864197509860997098616DB
:103290009706A806B90608F4C6C162E370E080E0AC
:1032A00090E00E943408E7CF42E250E0BE016F5F39
:1032B0007F4FC8010E946F0E8981823009F0AEC134
:1032C000F801858996898334910509F0A7C16D813C
:1032D0007E818F8198850E9440312B013C01F10154
:1032E000408251826282738246E050E0B701685F9B
:1032F0007F4FCE014D960E944833892B99F4F701F8
:1033000080819181A281B381481659066A067B06A5
:1033100048F084819581A681B78184159505A6051D
:10332000B705E8F4C8010E94AE0AD12C8D2DE496B1
:103330000FB6F894DEBF0FBECDBFDF91CF911F91C6
:103340000F91FF90EF90DF90BF90AF909F908F9084
:103350007F906F905F904F903F902F900895898954
:103360009A89AB89BC8986879787A08BB18B8EECB5
:10337000A82EB12CC8010E948E0EF1E0AF1AB10840
:10338000C9F7D12CC7014E964C01F701E45AFF4F03
:10339000FAA7E9A740969CA78BA7F297FEA7EDA7EF
:1033A000089798AB8FA77097FAABE9AB1701F2E2D9
:1033B0002F0E311C40979CAB8BABF801818D928D09
:1033C000181619060CF02BC1C8010E948E0E8F3002
:1033D000910509F4A8C08CF58330910509F46CC0FF
:1033E0008CF4009751F3019709F45BC0C8010E9467
:1033F0008E0EB82EBA94FFEFBF16F9F2C8010E94E4
:103400008E0EF8CF8630910509F472C00C9771F7D3
:10341000C8010E948E0E5C01BB24C50101960E946A
:103420006131F701958B848BA501BC01C8010E9415
:103430003111F701848995898AC08633910509F491
:103440008BC074F48333910509F4CEC0C59771F62F
:10345000C8010E948E0EC8010E948E0ED82EADCFDC
:103460008B33910509F4AAC08F3F910509F4A5CFCC
:10347000CA9709F0BBCFC8010E948E0E44E050E00D
:103480006DA57EA5C8010E946F0EF70162A573A508
:1034900084A595A50E94403162A773A784A795A72C
:1034A0008CCFC8010E948E0E44E050E06BA97CA92D
:1034B000C8010E946F0E81CFC8010E948E0EA82EF7
:1034C00044E050E069A97AA9C8010E946F0E712CEE
:1034D000612C8A2D8450990B5C016A147B040CF0DA
:1034E0006CCFC8010E948E0E9FEF691A790AF5CF42
:1034F000C8010E948E0EA82E44E050E0B101C80120
:103500000E946F0E712C612CEA2DE450FF0B5F01BD
:103510006A147B040CF051CFC8010E948E0EFFEF9D
:103520006F1A7F0AF5CFC8010E948E0E5C01BB2482
:10353000C50101960E946131F701938B828BA50131
:10354000BC01C8010E943111F70182899389A80E3C
:10355000B91EF501108231CFC8010E948E0EB82E1F
:10356000F701868D811109C0878D811106C080A168
:10357000811103C081A18823A1F0E9A5FAA54080AB
:10358000518062807380B401CE0183960E94001244
:103590008DA19EA1AFA1B8A584159505A605B70577
:1035A00021F444E050E0B40183CFBA94FFEFBF169A
:1035B00009F403CFC8010E948E0EF7CFC8010E9404
:1035C0008E0E44E050E06BA57CA5C8010E946F0EF2
:1035D000F70166A577A580A991A90E94403166A749
:1035E00077A780AB91ABE9CEC8010E948E0E44E074
:1035F00050E06FA578A9C8010E946F0EF70166A17F
:1036000077A180A591A50E94403166A377A380A7EA
:1036100091A762AB73AB84AB95ABCFCED12CC80175
:103620000E94AE0A83CEDD24DA9480CE2F923F92A0
:103630004F925F926F927F928F929F92AF92BF92C2
:10364000CF92DF92EF92FF920F931F93CF93DF936E
:10365000CDB7DEB729970FB6F894DEBF0FBECDBF4A
:103660008C010E947F2A2FEC37E040E050E00E945E
:10367000EC2FDC01CB010196A11DB11DF801848363
:103680009583A683B78380839183A283B3835801F4
:10369000FBE4AF0EB11CC5010E94CB0B64E470E0EB
:1036A000C5010E94290F882309F438C10E946708C8
:1036B0002B013C0148018AE4880E911C180192E418
:1036C000290E311C48EEC42E43E0D42EE12CF12CFF
:1036D000D801DE96B987A8871F821E82F4018081F7
:1036E0008330A9F181115DC0F80184819581A681A3
:1036F000B7810196A11DB11D84839583A683B783ED
:103700000E9467086419750986099709A70196013F
:103710000E945530A90161E0C8010E94CA1681E0EB
:10372000D4018C938E819F810197C1F20E9467081A
:103730006419750986099709A885B9852D913D9168
:103740004D915C91261737074807590728F6C501A0
:103750000E94CB0BF80184819581A681B7810196E7
:10376000A11DB11D84839583A683B7838E819F811C
:1037700029960FB6F894DEBF0FBECDBFDF91CF9173
:103780001F910F91FF90EF90DF90CF90BF90AF907F
:103790009F908F907F906F905F904F903F902F9071
:1037A00008958430F9F4F80184819581A681B78168
:1037B0000196A11DB11D84839583A683B7830E94C2
:1037C00067086419750986099709A70196010E947F
:1037D0005530A90163E0C8010E94CA16E2E0D40195
:1037E000EC93A0CF813049F5D1014D915D916D9160
:1037F0007C919E012F5F3F4FC8010E9417198D8356
:10380000823009F084C089819A81AB81BC81F80142
:1038100084839583A683B7830E946708641975091A
:1038200086099709A70196010E945530A90163E016
:10383000C8010E94CA16ED81D2CF823009F072CF42
:10384000D1014D915D916D917C919E012F5F3F4F14
:10385000C8010E9417198D83853009F052C083E09A
:10386000F4018083F80186A197A1A0A5B1A5892BB9
:103870008A2B8B2B41F484E893E0A0E0B0E086A390
:1038800097A3A0A7B1A7F80182A593A5A4A5B5A564
:10389000892B8A2B8B2B61F486A197A1A0A5B1A5BA
:1038A000B695A7959795879582A793A7A4A7B5A73F
:1038B000F80182A593A5A4A5B5A546A557A560A91D
:1038C00071A9452B462B472B51F4AC01BD01440F88
:1038D000551F661F771F46A757A760AB71ABF8014E
:1038E00082AB93ABA4ABB5AB86A597A5A0A9B1A9B4
:1038F00086AB97ABA0AFB1AF81E090E09F838E83A2
:1039000011CF9D81963019F4D4011C920BCFBD814B
:10391000BF3F09F007CFF401108204CF1F821E823F
:1039200025CFAF92BF92CF92DF92EF92FF920F938B
:103930001F93CF93DF93CDB7DEB7C456D1090FB62F
:10394000F894DEBF0FBECDBF6C01062F660F110BC2
:10395000C8010E94D62F9E012F5F3F4F7901590168
:10396000021B130BF501EE19FF09882349F0C8016A
:103970008A0D9B1D0E94D62FF50181935F01F2CF26
:10398000EE0DFF1D1082B701C6010E949718C601F7
:10399000CC59DF4F0FB6F894DEBF0FBECDBFDF911D
:1039A000CF911F910F91FF90EF90DF90CF90BF903C
:1039B000AF900895CF92DF92EF92FF920F931F93F3
:1039C000CF93DF937B01DB011496CD90DC90D0E0A8
:1039D000C0E0082F880F110BCC15DD05D4F4F701DA
:1039E00084819581C817D90728F40190F081E02DD2
:1039F000309761F41092FC02ECEFF2E06081C801B4
:103A00008C0F9D1F0E94DE2F2196E6CFEC0FFD1F2D
:103A1000F5CF60E0C8018C0D9D1DDF91CF911F9106
:103A20000F91FF90EF90DF90CF900C94DE2F1F92BC
:103A30000F920FB60F9211242F933F934F935F93E2
:103A40006F937F938F939F93AF93BF93EF93FF9366
:103A500082E293E00E940307FF91EF91BF91AF9143
:103A60009F918F917F916F915F914F913F912F9196
:103A70000F900FBE0F901F9018951F920F920FB6C8
:103A80000F9211242F938F939F93EF93FF93E091C5
:103A90003203F09133038081E0913803F0913903D0
:103AA00082FD1BC0908180913B038F5F8F732091BB
:103AB0003C03821741F0E0913B03F0E0EE5DFC4FE8
:103AC000958F80933B03FF91EF919F918F912F9161
:103AD0000F900FBE0F901F9018958081F4CF1F920A
:103AE0000F920FB60F9211242F933F938F939F93B2
:103AF000AF93BF938091FE029091FF02A0910003CB
:103B0000B09101033091FD0223E0230F2D3758F5CA
:103B10000196A11DB11D2093FD028093FE0290939A
:103B2000FF02A0930003B0930103809102039091E0
:103B30000303A0910403B09105030196A11DB11DDB
:103B40008093020390930303A0930403B0930503AF
:103B5000BF91AF919F918F913F912F910F900FBE89
:103B60000F901F90189526E8230F0296A11DB11DF6
:103B7000D2CFCF93E2E2F3E01382128288EE93E099
:103B8000A0E0B0E084839583A683B7838EE691E0BE
:103B90009183808385EC90E09587848784EC90E026
:103BA0009787868780EC90E0918B808B81EC90E00A
:103BB000938B828B82EC90E0958B848B86EC90E0EB
:103BC000978B868B118E128E138E148EEFEBF3E093
:103BD00080E58083C1E0C183E1ECF3E08EE891E011
:103BE000918380831282138214821582E7ECF3E0C2
:103BF000918380831282138214821582EDECF3E0AC
:103C0000918380831282138214821582E3EDF3E0A4
:103C1000918380831282138214821582E6EEF3E090
:103C2000918380831282138214821582E9EDF3E07E
:103C300091838083128213821482158213861286E6
:103C40002AE02487ECEEF3E09183808312821382D2
:103C500014821582E2EFF3E0918380831282138253
:103C600014821582E5E2F4E091838083128213824C
:103C70001482158260E085E00E94DE07E5EEFBE03D
:103C8000E491A7E1B4E0EC93E1EDFBE0E491F0E036
:103C9000EE0FFF1FEE53F44F8591949112969C9373
:103CA0008E9311971B961C921B971D961C921D9725
:103CB0001C961C921C971A961C921A9719961C9285
:103CC000199718961C92189717961C921797169684
:103CD0001C92169715961C92159714961C92149781
:103CE00013961C921397E4E0F4E086E296E0928B40
:103CF000818BB683A5831482108289E08183C2837D
:103D0000C383EEEFF3E01382128280E891E09183A7
:103D1000808380E590E09583848362E971E088EF99
:103D200093E0CF910C949718CF93DF93CDB7DEB784
:103D3000C855D1090FB6F894DEBF0FBECDBF789439
:103D400084B5826084BD84B5816084BD85B58260A0
:103D500085BD85B5816085BD80916E008160809351
:103D60006E001092810080918100826080938100BA
:103D700080918100816080938100809180008160CA
:103D8000809380008091B10084608093B100809125
:103D9000B00081608093B00080917A00846080934D
:103DA0007A0080917A00826080937A0080917A0014
:103DB000816080937A0080917A00806880937A0095
:103DC0001092C1006AE0CE018F960E94911C64E6B9
:103DD000CE0182960E94911C62E971E0CE018F961D
:103DE0000E94AD16811108C070E060E0CE018F9690
:103DF0000E94AD16882381F06BE971E0CE01019637
:103E00000E949718BE016F5F7F4F84E60E94DA1C04
:103E1000CE0101960E94F81162E971E0CE0182960E
:103E20000E94AD16811108C070E060E0CE0182965C
:103E30000E94AD16882381F06AE971E0CE010196F7
:103E40000E949718BE016F5F7F4F8AE00E94DA1CC4
:103E5000CE0101960E94F811E0910904F0910A0444
:103E6000138615861486128611861086178216828E
:103E70001582148213821092080401E0BE016F5F64
:103E80007F4F8091090490910A040E946811882351
:103E900009F455C067E0CE0101960E947308988529
:103EA0008913ECCF80910404811128C0809109040A
:103EB00090910A040E942509BE016F5F7F4F809197
:103EC000090490910A040E94060940E064EB809185
:103ED000090490910A040E94D208809109049091EB
:103EE0000A040E947F08182F8091090490910A0407
:103EF0000E942509111102C00093040410910504C9
:103F00008981803111F40C940B2ACE0101960E9414
:103F1000A909811750F480910504809305048091CC
:103F200008048F5F80930804A9CF8981803111F440
:103F30008CE0F3CFCE0101960E94A909EECF61E09B
:103F400086E00E94DE0761E086E00E949207E09131
:103F50003203F091330382E08083E0912E03F091ED
:103F60002F031082E0913003F091310380E18083D0
:103F700010923A03E0913603F091370386E0808394
:103F8000E0913403F0913503808180618083E0917A
:103F90003403F0913503808188608083E09134039D
:103FA000F0913503808180688083E0913403F09143
:103FB000350380818F7D80830E94381160ED77E02A
:103FC00080E090E00E9434088091E3039091E40344
:103FD000009711F00E94FD3186E690E00E94613169
:103FE00026E6DC011D922A95E9F7FC01E55BFF4F0F
:103FF0001382128248EE53E060E070E04483558300
:104000006683778326E131E03183208328E02487AB
:104010003F962EE831E0318320831282138214828E
:1040200015829093E4038093E3031091E5031093CA
:10403000070368EE73E080E090E00E94340861E0DE
:10404000812F0E94DE071FB7F8948091060381112B
:1040500027C0E6EDFBE08491EAEEFBE09491E82FC7
:10406000F0E0EE0FFF1FE554FD4FA591B491EC91E8
:10407000E92321F461E08AE00E94920761E08AE08E
:104080000E94DE078CB580618CBD8CB580648CBDD0
:1040900061E08DE00E94DE0761E08BE00E94DE07B8
:1040A000809106038F5F809306031FBF60E090E05E
:1040B00080E00E94330A482F406864E090E080E08E
:1040C0000E94840A1CE0A8E0EA2EF12C42E0612F55
:1040D0008EE190E00E94840A42E0612F8FE190E03F
:1040E0000E94840AB1E0EB1AF108105EE114F104B9
:1040F00069F726E030E042E051E064E089E090E0DA
:104100000E94520A8EE891E09A8389831B821C8266
:104110001D821E82CE0103960E9429118091E30325
:104120009091E403FC0116A217A210A611A612A6F4
:1041300013A614A615A616A617A610AA11AA12AEA3
:1041400013AE14AE15AEFE9640E65AEE60E070E097
:104150004083518362837383349648E853E160E07F
:1041600070E04083518362837383F49724E1DF011D
:104170001D922A95E9F726E0E2E0F1E0DC011896CD
:1041800001900D922A95E1F7FC01E65BFF4F10824A
:104190000E94161B019709F05CC06091E3037091C7
:1041A000E403625F7F4FCE0101960E940012CE01B0
:1041B00003960E9429116091E3037091E403665E07
:1041C0007F4FCE0101960E94001224E030E0AE0144
:1041D0004D5F5F4F64E081E090E00E94520A609181
:1041E000E3037091E4036A5E7F4FCE0101960E9463
:1041F000001224E030E0AE014D5F5F4F64E085E0E7
:1042000090E00E94520A6091E3037091E4036E5DB6
:104210007F4FCE0101960E9400128B819C81AD815F
:10422000BE818093DB039093DC03A093DD03B09306
:10423000DE03E091E303F091E40382899389909394
:10424000E0038093DF03848995899093E203809350
:10425000E1038EEF93E00E94570F67EF72E082E276
:1042600093E00E949B166CED72E082E293E00E9464
:104270009B1665EC72E082E293E00E949B168EE84A
:1042800091E09A8389831B821C821D821E8224E016
:1042900030E0AE014D5F5F4F60E08FE090E00E9444
:1042A000010ACE0101960E94791688E199E20FB6C3
:1042B000F894A895809360000FBE90936000CE01A3
:1042C00082960E94F811CE018F960E94F811A8954F
:1042D0000E94670800911C0310911D0320911E038A
:1042E00030911F03601B710B820B930B603177427F
:1042F0008105910528F4012B022B032B09F0B8C18D
:104300000E94670860931C0370931D0380931E0333
:1043100090931F036BEA7BE082E293E00E949B167E
:104320008EE891E09A8389831B821C821D821E8203
:1043300024E030E0AE014D5F5F4F60E08FE090E041
:104340000E94010ACE0101960E9479160091E303B2
:104350001091E4030115110509F415C10E946708C5
:104360004B015C01F80182AD93ADA4ADB5AD9801F0
:104370002A5B3F4F7901892B8A2B8B2B09F40BC2C7
:10438000F90180819181A281B381A5019401281B4B
:10439000390B4A0B5B0BCA01B90197FD51C028EEDE
:1043A00033E040E050E00E94EC2F61966CAF7DAFAF
:1043B0008EAF9FAF61972401350188EE480E83E0F0
:1043C000581E611C711C61968CAD9DADAEADBFAD2C
:1043D0006197481A590A6A0A7B0AD7014D925D9281
:1043E0006D927C921397BA01A9014F5F5F4F6F4F97
:1043F0007F4FF80182A993A9A4A9B5A96A017B01FD
:10440000CC0CDD1CEE1CFF1C8C159D05AE05BF05FC
:104410000CF0ABC1D801D2961D921D921D921C9238
:10442000D597F80186A997A9A0ADB1AD8C159D05CA
:10443000AE05BF050CF0A3C116AA17AA10AE11AEA7
:104440007801FAE4EF0EF11CD7018C91833009F06A
:104450009FC1F80182A993A9A4A9B5A918161906A4
:104460001A061B060CF494C184E0D7018C93C80192
:104470000E94161B0196F7012081233011F02111B3
:1044800019C0D801D6964D915D916D917C91D997C7
:1044900014161506160617066CF0F701108284E153
:1044A000F8013E96DF011D928A95E9F7C8010E9446
:1044B000161B0396D801DA968D929D92AD92BC920E
:1044C000DD978230910519F0049709F05CC0609186
:1044D000E3037091E403625F7F4FCE0101960E9477
:1044E0000012CE0103960E9429116091E30370919E
:1044F000E403665E7F4FCE0101960E94001224E025
:1045000030E0AE014D5F5F4F64E081E090E00E94DB
:10451000520A6091E3037091E4036A5E7F4FCE011B
:1045200001960E94001224E030E0AE014D5F5F4F23
:1045300064E085E090E00E94520A6091E30370918C
:10454000E4036E5D7F4FCE0101960E9400128B81C5
:104550009C81AD81BE818093DB039093DC03A093AB
:10456000DD03B093DE03E091E303F091E40382897D
:1045700093899093E0038093DF03848995899093D6
:10458000E2038093E103E0910904F0910A041386A9
:104590001586148612861186108617821682158259
:1045A00014821382BE016E5D7F4F80910904909149
:1045B0000A040E9468118111FCC060E070E08EEF77
:1045C00092EC609318037093190380931A039093ED
:1045D0001B036AE0CE0182960E94911C64E6CE0124
:1045E00001960E94911C8AA19BA1812C912C5401BF
:1045F000009721F00E94D72A4B015C0189819A81A2
:10460000C12CD12C7601009721F00E94D72A6B0192
:104610007C01209118033091190340911A035091A5
:104620001B03C501B4010E9486304B015C01A70148
:1046300096010E94223118160CF01BC16DE97BE037
:1046400082E293E00E949B1660EA71E088EF93E0BB
:104650000E94761860E086E00E9492070E9438115E
:10466000CE0101960E94F811CE0182960E94F811A7
:104670008EEF93E00E94B90D08E013E0D12C8EE399
:10468000E82E81E0F82E1C821B8228EE33E040E009
:1046900050E02D833E834F835887FA82E982DD867E
:1046A000D8012D913D918D018091020490910304D8
:1046B0002817390709F00EC1CE0101960E944A0D54
:1046C000873109F000C1CE0101960E94DB0C892BD5
:1046D00009F400C18B819C819DA38CA38D819E8157
:1046E000AF81B8858EA39FA3A8A7B9A789859A850E
:1046F000AB85BC858AA79BA7ACA7BDA78EE391E03D
:104700009BA38AA38D858EA78EA5883009F473C6D6
:10471000CE0182960E94540D882309F46CC6CE0106
:1047200082960E94DB0C892B99F32DB63EB662E986
:1047300071E0CE01895B9F4F0E949718CE0182964F
:104740000E94D60E97FDDAC08A30910509F4D6C0D2
:1047500089831A8241E050E0BE016F5F7F4FCE0136
:10476000895B9F4F0E940018E9CF841B950BA60B15
:10477000B70BF80182AB93ABA4ABB5AB52CE841BA5
:10478000950BA60BB70B86AB97ABA0AFB1AF58CECE
:1047900090E080E070CED501C40188519C4FAF4FAE
:1047A000BF4FF90180839183A283B38390E080E0BF
:1047B00081CE67E0CE0182960E94730899A5891385
:1047C000FCCE8091090490910A040E942509882357
:1047D00009F4F3CEBE016F5F7F4FCE0182960E9437
:1047E0005D09882309F4E9CE68E0CE0101960E94B4
:1047F000730899858913E1CE6A8170E0762F662768
:10480000770F770F770F2981B8E02B9F9001112444
:10481000262B372B8AA18031D1F4688570E08F81F7
:10482000FB01E81BF109CF019695982F88279795F2
:1048300087950E942C31CB014097B90153E0660F58
:10484000771F5A95E1F760789C01260F371F2138B2
:10485000F4EE3F070CF4B1CEB901330F880B990B7E
:104860000E94B62E20E030E040E05CE30E94152F6D
:10487000A8CEC701B6019058A50194010E9422312B
:10488000181674F46FE87BE082E293E00E949B16B6
:1048900064EA71E088EF93E00E94761861E0DBCE75
:1048A00061E37BE082E293E00E949B166FE07BE095
:1048B00082E293E00E94610668EF73E082E293E097
:1048C0000E948916CBCECE0101960E944A0D8C31F2
:1048D00009F4F9CED394B8E0DB12D5CE1DA21CA208
:1048E00028EE33E040E050E02EA33FA348A759A7AD
:1048F0008EE391E09BA38AA3DEA606CF2D960EAD94
:104900001FAD2D97C80101964DB75EB7481B590BD7
:104910000FB6F8945EBF0FBE4DBF8DB79EB7019620
:104920007C010115110569F00150110929966EAD40
:104930007FAD2997A8010E947C33F701E00FF11F9A
:10494000108262E671E0C7010E94DB2A62E671E034
:1049500090E080E00E94DB2A8C01BC01CE01019630
:104960000E94971868EA71E0CE0101960E94AD1688
:10497000F82ECE0101960E94F811FF2009F4BEC264
:104980000E94670820E03CE546E255E00E94553071
:1049900061962CAF3DAF4EAF5FAF61970E94670845
:1049A00020E03CE546E255E00E94553020E83EEE2E
:1049B00046E350E00E94553065962CAF3DAF4EAFB8
:1049C0005FAF65970E94670820E03CE546E255E04E
:1049D0000E94553020E83EEE46E350E00E945530FC
:1049E00020E63AEE40E050E00E94553069962CAF48
:1049F0003DAF4EAF5FAF69970E94670820E03CE58E
:104A000046E255E00E94553020E83EEE46E350E095
:104A10000E94553020E63AEE40E050E00E945530CA
:104A200028EE33E040E050E00E94553049015A0141
:104A30006FEF7AE0CE0182960E949B1667EE7AE0D5
:104A4000CE0182960E949B16CE0182960E94751618
:104A500067ED7AE0CE0182960E949B1660ED7AE0C7
:104A6000CE0182960E949B1669EC7AE0CE01829676
:104A70000E949B1662EB7AE0CE0182960E949B1602
:104A800062E87AE0CE0182960E949B1666E57AE0A3
:104A9000CE0182960E949B1661E17AE0CE01829659
:104AA0000E949B166CEA79E0CE0182960E949B16CA
:104AB0006CE879E0CE0182960E949B1669E779E066
:104AC000CE0182960E949B166DE479E0CE0182961B
:104AD0000E949B166AE379E0CE0182960E949B16A3
:104AE0006CE179E0CE0182960E949B166CED78E035
:104AF000CE0182960E949B1663ED78E0CE018296ED
:104B00000E949B166EE778E0CE0182960E949B166B
:104B10006CE778E0CE0182960E949B166DE678E005
:104B2000CE0182960E949B1663E678E0CE018296C3
:104B30000E949B1669E578E0CE0182960E949B1642
:104B400066E278E0CE0182960E949B166EE178E0E4
:104B5000CE0182960E949B1667E178E0CE01829694
:104B60000E949B166DEC77E0CE0182960E949B1608
:104B700063EA77E0CE0182960E949B166AE0CE013E
:104B800001960E94911C6AEA71E0CE018F960E9404
:104B90009718BE016F5F7F4FCE018F960E9442181B
:104BA00069E172E00E942C18BC01CE0182960E943D
:104BB0008916CE018F960E94F811CE0101960E94AF
:104BC000F81164E6CE0101960E94911C6FE172E03B
:104BD000CE018F960E949718BE016F5F7F4FCE0166
:104BE0008F960E94421869E172E00E942C18BC0165
:104BF000CE0182960E948916CE018F960E94F811EE
:104C0000CE0101960E94F81163E677E0CE0182960C
:104C10000E949B1667E577E0CE0182960E949B1664
:104C200060EA71E088EF93E00E94AD16882331F0CE
:104C300063E277E0CE0182960E949B1664EA71E0FF
:104C400088EF93E00E94AD16882331F061EF76E0A3
:104C5000CE0182960E949B1666ED76E0CE0182968A
:104C60000E949B166BEA76E0CE0182960E94610656
:104C7000C0901803D0901903E0901A03F0901B0322
:104C8000A7019601C701B6010E94273166E872E0CC
:104C900081111BC026013701E89477F82FEF3FEF11
:104CA0004FE75FE7C301B2010E9427318111A8C01D
:104CB0002FEF3FEF4FE75FE7C301B2010E94AF2E36
:104CC00018160CF09DC06AE872E0CE0182960E9430
:104CD000D01566EA76E0CE0182960E949B1661EAC4
:104CE00076E0CE0182960E94610661E976E0CE010F
:104CF00082960E9461062AE061964CAD5DAD6EAD74
:104D00007FAD6197CE0182960E94DF156FE876E055
:104D1000CE0182960E9461066DE876E0CE01829611
:104D20000E9461062AE065964CAD5DAD6EAD7FAD2B
:104D30006597CE0182960E94DF156BE876E0CE0182
:104D400082960E94610669E876E0CE0182960E9412
:104D500061062AE069964CAD5DAD6EAD7FAD699799
:104D6000CE0182960E94DF1567E876E0CE0182963A
:104D70000E94610665E876E0CE0182960E94610697
:104D80002AE0B501A401CE0182960E94DF1563E8F6
:104D900076E0CE0182960E94610666E176E0CE0161
:104DA00082960E949B1664EE75E0CE0182960E9468
:104DB0009B166AED75E0CE0182960E949B1662ED0D
:104DC00075E0CE0182960E949B166AEC75E0CE01DA
:104DD00082960E949B1661E070E080E090E00E9465
:104DE0003408CE0182960E94770DCE01895B9F4FD9
:104DF0000E94F8110FB6F8943EBE0FBE2DBE88CCAF
:104E00002FEF3FEF4FE75FE4C701B6010E94223169
:104E100018161CF46EE872E058CF2FEF3FEF4FE703
:104E20005FECC701B6010E94AF2E87FDF3CF20E0F3
:104E300030E0A901C701B6010E94AF2E87FF09C06B
:104E40006DE2CE0182960E94510BF7FAF094F7F8CA
:104E5000F0942AE037ED43EA5BE3C701B6010E9414
:104E600087302B013C010E94F3306B017C010E94D2
:104E7000B42E9B01AC01C301B2010E9486302B010C
:104E80003C012AE0B701A601CE0182960E94DF15FF
:104E90006EE2CE0182960E94510B20E030E040E2AB
:104EA00051E4C301B2010E94152F2B013C010E9465
:104EB000F3306B01F12CE12C2AE0B701A601CE0101
:104EC00082960E94DF15C701B6010E94B42E9B0195
:104ED000AC01C301B2010E94863020E030E040E224
:104EE00051E40E94152F0E94F330AB0170E060E0A6
:104EF0002AE0CE0182960E94DF15EBCEB801CE01EA
:104F000001960E94971862E972E0CE0101960E9414
:104F1000AD16F82ECE0101960E94F811FF2009F47B
:104F200083C06AEB75E0CE0182960E949B166BE906
:104F300075E0CE0182960E949B16CE0182960E9459
:104F4000751669E975E0CE0182960E949B166BE8A2
:104F500075E0CE0182960E94610664E6CE0101965C
:104F60000E94911CBE016F5F7F4FCE0182960E940E
:104F70005306CE0101960E94F81169E875E0CE0152
:104F800082960E949B1663E775E0CE0182960E948E
:104F900061066AE0CE0101960E94911CBE016F5F1E
:104FA0007F4FCE0182960E945306CE0101960E9449
:104FB000F81161E775E0CE0182960E949B166BE5C1
:104FC00075E0CE0182960E9461066091180370918F
:104FD000190380911A0390911B0318AA1FA61AAAFD
:104FE00019AA1CAA1BAA8E010F5F1F4F22E044E0E2
:104FF0000E94152A009799F0BC01CE018F960E945D
:105000007618BE01615D7F4FCE0182960E9489169F
:10501000CE018F960E94F81169E575E0D8CECE01D9
:105020008F960E94E611EDCFB801CE0101960E9445
:10503000971861EA72E0CE0101960E94AD16F82E33
:10504000CE0101960E94F811F110CBCEB801CE012D
:105050008F5B9F4F0E9497186EEA72E0CE01019617
:105060000E9497184D815E8127968EAD9FAD279740
:105070008417950790F023968EAD9FAD23970097E8
:1050800061F069817A816115710539F00E946E3392
:10509000FF24F394892B09F0F12CCE0101960E9494
:1050A000F811FF2009F492C160E671E0C8010E9486
:1050B000DB2A009729F0BC0182E293E00E94D01520
:1050C00082E293E00E94751660E671E090E080E075
:1050D0000E94DB2A6EE571E00E94DB2A7C016EE50E
:1050E00071E090E080E00E94DB2A8C016CE571E0C9
:1050F000C7010E94DB2A6CE571E090E080E00E942D
:10510000DB2A7C016CE571E0C8010E94DB2A6CE5BA
:1051100071E090E080E00E94DB2A8C01B701CE01B3
:10512000CB960E949718B801CE01C5960E94971899
:105130001A8219821C821B821E821D82BE01655C3E
:105140007F4FCE0101960E948018CE0101960E94E9
:10515000AC18D82ECE0101960E94F811DD2009F47A
:10516000E0C0B701CE0101960E949718BE016F5FA3
:105170007F4F8AE00E94DA1CCE0101960E94F8114E
:105180001A8219821C821B821E821D82BE016B5CE8
:105190007F4FCE0101960E948018CE0101960E9499
:1051A000AC18D82ECE0101960E94F811DD2009F42A
:1051B000BFC0B801CE0101960E949718BE016F5F73
:1051C0007F4F84E60E94DA1CCE0101960E94F811FE
:1051D00068EC74E0CE0182960E949B1660EB74E04E
:1051E000CE0182960E949B16CE0182960E94751671
:1051F00060EA74E0CE0182960E949B1669E974E031
:10520000CE0182960E949B1662E974E0CE018296DE
:105210000E949B166BE774E0CE0182960E949B165B
:105220006AE474E0CE0182960E949B1667E174E006
:10523000CE0182960E949B166FE074E0CE018296AA
:105240000E949B1668E074E0CE0182960E949B1635
:1052500066ED73E0CE0182960E949B161A82198237
:105260001C821B821E821D82BE016B5C7F4FCE01A1
:1052700001960E948018CE0101960E94AC18DD2490
:10528000D3948823C1F018AA1FA61AAA19AA1CAA87
:105290001BAABE016B5C7F4FCE018F960E948018C7
:1052A000CE018F960E94AC18DD24D394D826CE016F
:1052B0008F960E94F811CE0101960E94F811DD2010
:1052C000F1F166E773E0CE0182960E949B1666E4D8
:1052D00073E0CE0182960E949B166EE373E0CE01CE
:1052E00082960E949B1666E373E0CE0182960E942E
:1052F0009B1661E070E080E090E00E943408CE01EF
:1053000082960E94770DCE01C5960E94F811CE01BB
:10531000CB960E94F811CE018F5B9F4F0E94F8112F
:1053200064CD66E175E082E293E00E949B1628CF8F
:1053300068ED74E082E293E00E949B1649CFB701CA
:10534000CE0101960E9497186BEB72E0CE018F960A
:105350000E949718BE016F5F7F4FCE018F960E940B
:1053600042186DED72E00E942C18BC01CE018296AD
:105370000E948916CE018F960E94F811CE010196E7
:105380000E94F811B801CE0101960E94971863EEB1
:1053900072E0CE018F960E949718BE016F5F7F4F1B
:1053A000CE018F960E9442186DED72E00E942C187B
:1053B000BC01CE0182960E948916CE018F960E9472
:1053C000F811CE0101960E94F81181CF6FE173E0D0
:1053D000CE0182960E949B16CE0182960E9475167F
:1053E00061E070E080E090E00E943408CE01829697
:1053F0000E94770D90CF80E090E0892B11F40C94FF
:1054000067210E94EF06882311F40C9467210E9403
:1054100000000C9467211D3010F00C948B1F0C942D
:10542000981F88EF93E00C94F811EF920F931F935D
:10543000CF93DF93E80134E047FD34E1042E000C04
:10544000550B57FF03C0519541955109E32E022F8B
:10545000242FAE010E94072BCE01DF91CF911F9127
:105460000F91EF9008958F929F92AF92BF92CF923B
:10547000DF92EF92FF92CF93DF93EC016881798105
:105480008A819B81611571058105910521F464E292
:1054900079ED8BE597E02DE133EF41E050E00E949C
:1054A000EC2F49015A019B01AC01A7EAB1E40E942B
:1054B0000B306B017C01ACEEB4EFA50194010E94AE
:1054C0001930C60ED71EE81EF91EF7FE06C081E091
:1054D000C81AD108E10880E8F80AC882D982EA82AD
:1054E000FB82C701B6019F77DF91CF91FF90EF90CC
:1054F000DF90CF90BF90AF909F908F9008958F9244
:105500009F92AF92BF92CF92DF92EF92FF92609103
:1055100008017091090180910A0190910B016115B8
:1055200071058105910521F464E279ED8BE597E041
:105530002DE133EF41E050E00E94EC2F49015A0188
:105540009B01AC01A7EAB1E40E940B306B017C0126
:10555000ACEEB4EFA50194010E941930C60ED71E1F
:10556000E81EF91EF7FE06C081E0C81AD108E1085E
:1055700080E8F80AC0920801D0920901E0920A017D
:10558000F0920B01C701B6019F77FF90EF90DF907B
:10559000CF90BF90AF909F908F9008956093080137
:1055A0007093090180930A0190930B010895662777
:1055B00077270C94662C4BE254E00E94E02A089571
:1055C000FA01A191B081009719F41097E1F0CD0193
:1055D000DC01CD010D90002011F4C00113C0FB01CE
:1055E0002191222319F02015D9F7F3CFFB01219146
:1055F000201519F41E92119606C02223C1F70D90B2
:105600000020A1F7D001FA01A193B0830895A9E089
:10561000B0E0EDE0FBE20C9424306A01F22EB02EF3
:10562000102FFBE3AF2EA01608F41BE31F5F012F22
:1056300027E0AE014F5F5F4F0E94B62DBC0189810C
:10564000982F9970913009F43FC09BE2E1FC04C0AF
:105650009E2D9170E0FC3AC05E2D5071E82FE870ED
:1056600083FF46C084E0911101C083E0EF2DE81B69
:105670008F1508F0E0E0D6018E2F20E2552351F17E
:10568000992329F0D6019C93C60101966C019601DD
:105690002D5F3F4FE2FE24C08EE4D6018C9391E44F
:1056A00011969C93119712968C93D9018E2F90E2AC
:1056B00081111BC0E20FF32FF11D10828EEF9FEFBF
:1056C0002996ECE00C9440309DE2C6CF90E2C4CF26
:1056D0002D9381508111FCCFCE0ED11CE0E0D0CFB4
:1056E0008EE6D6018C9391E6DBCF9D938150E0CF7F
:1056F000482F447082FF3DC084E0911101C083E0D7
:105700008F1510F4EF2DE81BD6018E2F20E25523C4
:1057100009F1992329F0D6019C93C60101966C01E9
:1057200096012D5F3F4FE2FE1BC089E4D6018C93AA
:105730008EE411968C93119786E412968C93D9017E
:105740008E2F90E2882309F4B5CF9D938150FACF34
:105750002D9381508111FCCFCE0ED11CE0E0D9CF2A
:1057600089E6D6018C938EE611968C93119786E686
:10577000E4CF9B0177FF02C030E020E0A1E0B0E081
:10578000911102C0B0E0A0E0F9013196AE0FBF1F49
:105790008B2C912CBB2009F461C05401EFEFAE1AA1
:1057A000BE0AAA0DBB1DFA161B0619F014F04F2DE8
:1057B0004A1B511188C0E3FC59C07601A42FB0E206
:1057C000A1114FC0C40ED11C992309F45BC040E065
:1057D000D6011196F60190836D01552309F448C056
:1057E000012F060F9A81582F507184FF03C0913307
:1057F00009F4015010160CF047C0093008F008E019
:10580000EEE2FE2E5B01A01AB1088501919481940D
:1058100091082F3F320729F4D601FC92F601319608
:105820006F016217730794F1021713077CF5DB0110
:10583000A21BB30BAA24A394B12CAC0EBD1EAA0DBF
:10584000BB1D11968C9121503109D6011196281556
:105850003905F4F0F60180836D01DBCFB12CA12C6A
:10586000A0CFF701B1937F01A150AACF9111B0CF82
:10587000D601942F50E302C05D9391509111FCCF5B
:10588000C40ED11C40E0ACCF01E0BACF80E3DBCF47
:105890006217730731F4963388F4953311F4552366
:1058A00069F0F6018083FD01842F90E2811108C028
:1058B000A40FB11D1C9290E080E002CF81E3F1CFF4
:1058C00091938150F3CF911183CF8ACFB0E0A0E0C4
:1058D000ECE6FCE20C9424305C017B01611571055F
:1058E00019F0DB018D939C9385010F5F1F4FF5012C
:1058F000D0818D2F90E00E948E2E6C01892BB9F5FE
:10590000DD32B9F50F5F1F4FD5011196DC91C1E073
:105910005801F1E0AF1AB10843E050E060E770E0F1
:10592000C5010E94972E892B69F5680182E0C80E97
:10593000D11C45E050E06BE670E0C6010E94972E56
:10594000892B21F4680197E0C90ED11CE114F10400
:1059500019F0D701CD92DC9260E070E080E89FEF13
:10596000C111FFC060E070E080E89FE7FAC0580115
:10597000BBCFDB3229F485010E5F1F4FF501D181CA
:10598000C0E0C6CF43E050E068E670E0C5010E9489
:10599000972E892BE9F0F80110E000E020E030E0DC
:1059A000A9015F01B0ED8B2E8D0E89E08815C8F13D
:1059B0009C2E689491F88C2F8870C2FF16C08111BC
:1059C00002C00F5F1F4F3196D501DC91C92DE9CF81
:1059D000E114F10429F00E5F1F4FF70111830083DA
:1059E00060E070E080EC9FE7BCC0882311F00150BC
:1059F0001109A5E0B0E00E940B309B01AC01220F21
:105A0000331F441F551F280D311D411D511D2839BD
:105A100099E93907490799E15907A8F2C6609C2E10
:105A2000D2CFAEEF8A1206C0C3FD3CC09C2E689454
:105A300093F8C9CFDF7DD534A9F580818D3239F453
:105A4000C061DF011296818162E070E006C0DF0173
:105A50008B32C1F3119661E070E080535D01A61AAC
:105A6000B70A8A30F8F4E0E8CE16ECE0DE065CF423
:105A7000B601660F771F660F771FC60ED71ECC0CB8
:105A8000DD1CC80ED11C5D01FFEFAF1ABF0A8C915F
:105A900080538A30A8F1C4FF03C0D194C194D108C7
:105AA0000C0D1D1DC1FF09C0E114F10431F081E0AE
:105AB000A81AB108D701AD92BC92CA01B9010E94DF
:105AC000B42EC370C33009F490584B015C0120E040
:105AD00030E0A9010E94AF2E882309F440C0CFE92D
