:100000000C94CA060C94F2060C94F2060C94F206B8
:100010000C94F2060C94F2060C94F2060C94F20680
:100020000C94F2060C94F2060C94F2060C94F20670
:100030000C94F2060C94F2060C94F2060C94F20660
:100040000C94A31A0C94F2060C94711A0C944B1A8B
:100050000C94F2060C94F2060C94F2060C94F20640
:100060000C94F2060C94F2064E414E494E495459F6
:10007000494E46CDCCCC3D0AD7233C17B7D1387773
:10008000CC2B329595E6241FB14F0A000020410089
:1000900000C84200401C4620BCBE4CCA1B0E5AAED3
:1000A000C59D7400407A10F35A00A0724E180900E2
:1000B00010A5D4E80000E87648170000E40B5402CD
:1000C0000000CA9A3B000000E1F505000080969808
:1000D00000000040420F000000A086010000001058
:1000E0002700000000E8030000000064000000009A
:1000F000000A00000000000100000000002C76D87B
:1001000088DC674F0823DFC1DFAE59E1B1B796E560
:10011000E3E453C63AE651997696E8E6C28426EBC4
:10012000898C9B62ED407C6FFCEFBC9C9F40F2BAD7
:10013000A56FA5F490055A2AF75C936B6CF9676D6F
:10014000C11BFCE0E40D47FEF520E6B500D0ED90C4
:100150002E0300943577050080841E080000204E91
:100160000A000000C80C333333330F986E1283112A
:1001700041EF8D2114893BE65516CFFEE6DB18D101
:10018000844B381BF77C1D901DA4BBE424203284D3
:10019000725E228100C9F124ECA1E53D27005EBC1E
:1001A000E2613FDD83C29C7E20A3FD1F419DC321F0
:1001B0007FFCA2401E5F01E3BD3E6082DC237D9F89
:1001C000C1421CFEA0E1BF5D0380DE3C62BEE002D6
:1001D0005CDF81633D7C22C09E1D43A1FF4618FA6F
:1001E000A427799BC584DA3866E5BB5907DB8567A8
:1001F00039BAE406581947A5FB7826C49A653BD955
:1002000087045AB8E6A7F91B45C6987A24F8A6448D
:100210001A99C7257B3A6486D85B05E7B98CD2303A
:100220006EEDB3510F4E10F2AC2F7193CD114FAD57
:10023000F3702ECC92D38D6F31B2EC0E50AFF11320
:100240004DCE90722C6D33D18F0C52B0EE326C8E3D
:10025000D0530DEFB1F0AE4C1291CF2D73CA9476FE
:1002600028ABF517490856B4EA6937D58B5709EB1F
:10027000B536688AD495CB2977F4AA4816E9B755DC
:100280000B88D6346A2B7597C94A14F6A8742AC805
:1002900096154BA9F7B6E80A54D7896B35000000CC
:1002A00000250028002B00000000080002010000CB
:1002B0000304070000000000000000457468657238
:1002C0006E657420736869656C64206E61204950A6
:1002D0003A004275696C6420312E302E34207A2029
:1002E00031382E205365702032303231005765622C
:1002F00061706C696B6163697520767974766F7271
:10030000696C3A204D617274696E2043686C656255
:100310006F76656300485454502F312E31203430AD
:1003200034204E6F7420466F756E64003C2F6874E5
:100330006D6C3E003C2F626F64793E003C623E5023
:100340007265736D65726F76616E69652E2E2E20F3
:1003500050726F73696D2063616B616A74653C2FC5
:10036000623E3C2F63656E7465723E003C68333EAE
:100370003C666F6E7420636F6C6F723D27726564AC
:10038000273E5A6164616E65207564616A65206EFE
:100390006965207375206369736C61212121204F89
:1003A00070616B756A746520706F6B757320706F08
:1003B00020707265736D65726F76616EC3AD2E3C91
:1003C0002F666F6E743E3C2F68333E003C63656E53
:1003D0007465723E3C68333E536572766572207078
:1003E00072696A616C2064617461207A20666F7240
:1003F0006D756CC3A172613A3C2F68333E003C625C
:100400006F64793E003C2F686561643E003C74690E
:10041000746C653E485454502077656273657276FB
:100420006572202D2041726475696E6F202B204506
:10043000746865726E65743C2F7469746C653E00F7
:100440003C6D65746120687474702D657175697692
:100450003D27526566726573682720636F6E746509
:100460006E743D27353B2075726C3D2F27202F3E43
:10047000003C6D65746120636861727365743D272B
:100480007574662D38273E003C686561643E003C0B
:1004900068746D6C3E003C21444F435459504520D4
:1004A00068746D6C3E00436F6E74656E742D547984
:1004B00070653A20746578742F68746D6C004854C8
:1004C00054502F312E3120323030204F4B00506F9E
:1004D000757A69766174656C736B7920767374755F
:1004E0007020707265206B6C756320666E616D653F
:1004F000322028487973746572657A6129206E69A3
:1005000065206A65206369736C6F2100506F757A8E
:1005100069766174656C736B79207673747570207D
:10052000707265206B6C756320666E616D65202846
:100530004369656C6F7661207465706C6F746129B6
:10054000206E6965206A65206369736C6F21007D88
:10055000002241637475616C5F54656D70657261F2
:1005600074757265223A002C0022546172676574BA
:100570005F54656D7065726174757265223A002C06
:10058000002248797374657265736973223A007B3F
:1005900000436F6E74656E742D547970653A2061F6
:1005A00070706C69636174696F6E2F6A736F6E002F
:1005B000485454502F312E3120323030204F4B00D0
:1005C0003C2F68746D6C3E003C2F626F64793E0076
:1005D0003C2F63656E7465723E003C68343E566520
:1005E000727A69612066726565202D20312E302E69
:1005F00034206275696C643A2031382E205365705E
:100600002E20323032313C2F68343E003C68333E7D
:100610004175746F723A204D617274696E2043683F
:100620006C65626F766563202D206D617274696EF2
:10063000697573393640676D61696C2E636F6D2023
:100640002D2068747470733A2F2F6D617274696E07
:1006500069757339362E6769746875622E696F2FF4
:100660007465726D6F737461742D65746865726EF4
:1006700065742F3C2F68333E00730020006D00200E
:10068000006800200064003C623E557074696D652E
:100690003A203C2F623E003C68723E0020C2B043CC
:1006A000003C623E416B7475C3A16C6E6120746541
:1006B000706C6F74612073656E7A6F726120445341
:1006C00031384232303A3C2F623E20003C64697639
:1006D0002069643D22636F756E74646F776E223E8D
:1006E0003C2F6469763E003C623E3C666F6E74202F
:1006F000636F6C6F723D27726564273E56C3BD738E
:100700007475703A205679706E7574C3BD3C2F664F
:100710006F6E743E3C2F623E003C623E3C666F6EE4
:100720007420636F6C6F723D27677265656E273E3C
:1007300056C3BD737475703A205A61706E7574C378
:10074000BD3C2F666F6E743E3C2F623E003C2F66B0
:100750006F726D3E3C68723E003C696E707574202D
:10076000747970653D277375626D69742720636CB9
:100770006173733D2762746E2062746E2D737563AE
:1007800063657373272076616C75653D275A6170C8
:10079000C3AD7361C5A5273E003C666F726D2061D5
:1007A0006374696F6E3D272F616374696F6E2E6885
:1007B000746D6C27206D6574686F643D2767657480
:1007C000273E003C63656E7465723E3C68333E5A5A
:1007D0006164616A74652064C3A17461207072658C
:1007E000207765627365727665722028627564C3CE
:1007F000BA20756C6FC5BE656EC3A920646F2045B5
:100800004550524F4D293A3C2F68333E003C626FB1
:1008100064793E003C2F686561643E003C746974F5
:100820006C653E48545450207765627365727665F6
:1008300072202D2041726475696E6F202B204574E3
:100840006865726E65743C2F7469746C653E003C1B
:100850002F7363726970743E007D2C20313030300C
:10086000293B0074696D656C656674202D3D2031EF
:100870003B007D00646F63756D656E742E676574F3
:10088000456C656D656E74427949642822636F75A5
:100890006E74646F776E22292E696E6E657248548D
:1008A0004D4C203D2074696D656C656674202B206D
:1008B000222073656BC3BA6E6420646F207265C5B5
:1008C000A17461727475223B007D20656C73652094
:1008D0007B00646F63756D656E742E676574456C1F
:1008E000656D656E74427949642822636F756E7414
:1008F000646F776E22292E696E6E657248544D4C76
:10090000203D20225265C5A1746172742E2E2E22C4
:100910003B00636C656172496E74657276616C2828
:10092000646F776E6C6F616454696D6572293B000A
:1009300069662874696D656C656674203C3D20307D
:10094000297B0076617220646F776E6C6F616454EE
:10095000696D6572203D20736574496E74657276A9
:10096000616C2866756E6374696F6E28297B0076EA
:1009700061722074696D656C656674203D2033304A
:100980003B003C73637269707420747970653D2715
:10099000746578742F6A6176617363726970742705
:1009A0003E003C6C696E6B2072656C3D27737479F8
:1009B0006C6573686565742720687265663D276895
:1009C000747470733A2F2F6D617863646E2E626F4A
:1009D0006F74737472617063646E2E636F6D2F62D7
:1009E0006F6F7473747261702F332E342E312F63D6
:1009F00073732F626F6F7473747261702E6D696E92
:100A00002E637373273E003C6D657461206E616DCB
:100A1000653D2776696577706F72742720636F6E06
:100A200074656E743D2777696474683D64657669A2
:100A300063652D77696474682C20696E69746961D7
:100A40006C2D7363616C653D31273E003C6D6574B0
:100A50006120687474702D65717569763D275265E3
:100A600066726573682720636F6E74656E743D27C8
:100A70003330273B202F3E003C6D657461206E6152
:100A80006D653D27617574686F722720636F6E74A2
:100A9000656E743D274D617274696E2043686C65A4
:100AA000626F766563273E003C6D65746120636804
:100AB00061727365743D277574662D38273E003C5E
:100AC0002F7363726970743E00736D6172746C6F22
:100AD0006F6B2827696E6974272C20273662656141
:100AE00065393766393862393834346237363136E9
:100AF0003732616632336633386663363062393690
:100B00003233333827293B007D2928646F63756DA4
:100B1000656E74293B00632E636861727365743D72
:100B2000277574662D38273B632E7372633D2768E3
:100B3000747470733A2F2F7265632E736D617274C3
:100B40006C6F6F6B2E636F6D2F7265636F72646570
:100B5000722E6A73273B682E617070656E644368FD
:100B6000696C642863293B0076617220633D642EC2
:100B7000637265617465456C656D656E7428277375
:100B8000637269707427293B6F2E6170693D6E65D1
:100B90007720417272617928293B632E6173796EE7
:100BA000633D747275653B632E747970653D27747F
:100BB0006578742F6A617661736372697074273B1C
:100BC00000766172206F3D736D6172746C6F6F6B34
:100BD0003D66756E6374696F6E28297B206F2E6188
:100BE00070692E7075736828617267756D656E74B3
:100BF00073297D2C683D642E676574456C656D6551
:100C00006E747342795461674E616D65282768651B
:100C1000616427295B305D3B0077696E646F772ED6
:100C2000736D6172746C6F6F6B7C7C2866756E631C
:100C300074696F6E286429207B003C73637269704D
:100C40007420747970653D27746578742F6A6176B5
:100C500061736372697074273E003C686561643E2D
:100C6000003C68746D6C3E003C21444F4354595025
:100C7000452068746D6C3E00436F6E74656E742D14
:100C8000547970653A20746578742F68746D6C00BF
:100C9000485454502F312E3120323030204F4B00E9
:100CA000416B7475616C6E7920737461762076790E
:100CB000737475707520707265206B6F746F6C3A09
:100CC0002000526F7A6469656C206369656C6F7689
:100CD000656A206120616B7475C3A16C6E656A20C2
:100CE0007465706C6F7479206E6965206A65206E1A
:100CF00061642C20616E6920706F64206879737460
:100D00006572657A6F752E205374617620767973DB
:100D100074757075207361206E656D656E692E0047
:100D20004B6F746F6C207679706E757479004B6FB1
:100D3000746F6C207A61706E7574790045746865A3
:100D4000726E657420736869656C64206E612049F9
:100D5000503A0000000000240027002A0000000094
:100D600000230026002900040404040404040402EF
:100D70000202020202030303030303010204081038
:100D80002040800102040810200102040810200005
:100D9000ED1A022511241FBECFEFD8E0DEBFCDBF74
:100DA00012E0A0E0B1E0E4E5FBE502C005900D92A1
:100DB000AA3BB107D9F723E0AAEBB2E001C01D922C
:100DC000A13FB207E1F716E0C9ECD6E004C02197D5
:100DD000FE010E947A2BC83CD107C9F70E94C81BAC
:100DE0000C949D2D0C9400000895089521E0FC01C1
:100DF0008485883009F420E0822F0895FC01248145
:100E000035816217730748F480819181009729F03A
:100E1000860F971FFC018081089580E00895DB0113
:100E200014964D915C9115976D917C91DC01ED913B
:100E3000FC910280F381E02D0994EF92FF920F93D1
:100E40001F93CF93DF938C017B01D0E0C0E0F701CB
:100E5000EC0FFD1F6491662361F0D801ED91FC91C8
:100E60000190F081E02DC8010995892B11F02196A0
:100E7000EECFCE01DF91CF911F910F91FF90EF90B8
:100E80000895AF92BF92CF92DF92EF92FF920F93AD
:100E90001F93CF93DF936C017B018B01040F151F10
:100EA000EB015E01AE18BF08C017D10759F0699178
:100EB000D601ED91FC910190F081E02DC6010995DC
:100EC000892B79F7C501DF91CF911F910F91FF9089
:100ED000EF90DF90CF90BF90AF900895FC01538DBD
:100EE000448D252F30E0842F90E0821B930B541704
:100EF00010F0CF96089501970895FC01918D828D91
:100F0000981761F0A28DAE0FBF2FB11D5D968C9129
:100F1000928D9F5F9F73928F90E008958FEF9FEF68
:100F20000895FC01918D828D981731F0828DE80F24
:100F3000F11D858D90E008958FEF9FEF0895FC01DE
:100F4000918D228D892F90E0805C9F4F821B9109AB
:100F50008F739927089580EE92E00E949F0721E009
:100F6000892B09F420E0822F089580E090E0892BFE
:100F700029F00E94AB0781110C9400000895FC0138
:100F8000A48DA80FB92FB11DA35ABF4F2C91848DEA
:100F900090E001968F739927848FA689B7892C9347
:100FA000A089B1898C91837080648C93938D848D9A
:100FB000981306C00288F389E02D80818F7D80839D
:100FC0000895EF92FF920F931F93CF93DF93EC015D
:100FD00081E0888F9B8D8C8D98131AC0E889F989E0
:100FE000808185FF15C09FB7F894EE89FF896083E3
:100FF000E889F98980818370806480839FBF81E064
:1010000090E0DF91CF911F910F91FF90EF900895A5
:10101000F62E0B8D10E00F5F1F4F0F731127E02E80
:101020008C8D8E110CC00FB607FCFACFE889F989B8
:10103000808185FFF5CFCE010E94BF07F1CFEB8DF8
:10104000EC0FFD2FF11DE35AFF4FF0829FB7F8948C
:101050000B8FEA89FB8980818062CFCFCF93DF93AA
:10106000EC01888D8823B9F0AA89BB89E889F989C0
:101070008C9185FD03C0808186FD0DC00FB607FCF5
:10108000F7CF8C9185FFF2CF808185FFEDCFCE0128
:101090000E94BF07E9CFDF91CF91089590E0FC0156
:1010A000E955FD4F2491FC01E558F24F3491FC01C4
:1010B000E959F24FE491EE23C9F0222339F02330AD
:1010C00001F1A8F4213019F1223029F1F0E0EE0FFE
:1010D000FF1FE356FD4FA591B4918FB7F894EC91A3
:1010E000611126C030953E233C938FBF0895273071
:1010F000A9F02830C9F0243049F7809180008F7D15
:1011000003C0809180008F7780938000DFCF84B50B
:101110008F7784BDDBCF84B58F7DFBCF8091B0000E
:101120008F778093B000D2CF8091B0008F7DF9CFC0
:101130003E2BDACFCF93DF9390E0FC01E558F24FDE
:1011400024918959924FFC0184918823D1F090E039
:10115000880F991FFC01ED5AF24FA591B491FC0143
:10116000E356FD4FC591D49161110EC09FB7F8941D
:101170008C91E22FE0958E238C932881E223E883E3
:101180009FBFDF91CF9108958FB7F894EC91E22B38
:10119000EC938FBFF6CF3FB7F8948091C002909147
:1011A000C102A091C202B091C30226B5A89B05C09E
:1011B0002F3F19F00196A11DB11D3FBFBA2FA92FD6
:1011C000982F8827BC01CD01620F711D811D911DD3
:1011D00042E0660F771F881F991F4A95D1F708953F
:1011E0008F929F92AF92BF92CF92DF92EF92FF9237
:1011F0006B017C010E94CB084B015C01C114D1043E
:10120000E104F104B9F00E94CB08681979098A0950
:101210009B09683E73408105910580F321E0C21A65
:10122000D108E108F10888EE880E83E0981EA11C21
:10123000B11CE4CFFF90EF90DF90CF90BF90AF90C4
:101240009F908F9008952FB7F8946091BC02709191
:10125000BD028091BE029091BF022FBF0895DC01B4
:1012600080E0615038F0ED91E827F0E0E356FE4F62
:101270008491F7CF0895DC012C911196ED91FC91AA
:10128000F8948181822B81839281322F3095932330
:10129000928387E090E00197F1F781818323818336
:1012A00083E290E00197F1F790817894EFECF0E021
:1012B0003197F1F7922381E009F480E00895FC0171
:1012C00090810180F281E02D292F209560FF14C0CC
:1012D000F8948281822382838181892B8183A3E296
:1012E000B0E01197F1F78281982B9283789487ED83
:1012F00090E00197F1F70895F89482818223828328
:101300008181892B8183AFEFB0E01197F1F7828162
:10131000982B928378948FE090E0EBCFDF92EF925E
:10132000FF920F931F93CF93DF93EC01D62EE42E01
:1013300008E010E0FF24F39461E08D2D8F2109F483
:1013400060E0CE010E945F09FF0C01501109A1F776
:10135000E11010C0F894E981FA819181888180952B
:1013600089238183E981FA8192818881809589230B
:1013700082837894DF91CF911F910F91FF90EF902E
:10138000DF900895EF92FF920F931F93CF93DF9317
:101390008C017B0140E065E50E948E09E70188E051
:1013A000E80EF11C699140E0C8010E948E09CE153B
:1013B000DF05C1F7DF91CF911F910F91FF90EF9063
:1013C0000895FC0190810180F281E02DF8948181E3
:1013D000292F20958223818378943DE743E050E0D4
:1013E000315029F1DA011197F1F780818923C1F396
:1013F000F8948281822382838181892B81837894EE
:10140000ABE7B7E01197F1F7F894818182238183EC
:10141000A3E1B1E01197F1F78081982381E009F011
:1014200080E07894E3E6F6E03197F1F7089580E004
:101430000895AF92BF92CF92DF92EF92FF920F93F7
:101440001F93CF93DF938B01BC018091C7039091D1
:10145000C8030E94C20940E06EEB8091C7039091DF
:10146000C8030E948E09E801680189E0C80ED11CFA
:10147000A090C703B090C80388E0E82EF12C10E0DC
:1014800001E0C5010E943B098111102B000F81E092
:10149000E81AF108B1F71993CC16DD0649F78091E7
:1014A000C7039091C8030E94E10991E0813009F0DF
:1014B00090E0892FDF91CF911F910F91FF90EF90D6
:1014C000DF90CF90BF90AF9008950F931F93CF936D
:1014D000DF93CDB7DEB729970FB6F894DEBF0FBE06
:1014E000CDBF8C018091C7039091C8030E94E10990
:1014F000811102C080E01FC0BE016F5F7F4FC80135
:101500000E94190A8823B1F368E0CE0101960E9477
:101510002F0999858913EECF8D818F33B9F020F48F
:101520008F3141F789E007C08F3521F08F3711F7F0
:101530008CE001C08BE029960FB6F894DEBF0FBE99
:10154000CDBFDF91CF911F910F9108958AE0F3CF26
:1015500061E08091DD020C944E0860E08091DD0234
:101560000C944E0808958EBD00000DB407FEFDCF0B
:101570008EB508958CBD9DBD0895DF92EF92FF92C8
:101580000F931F93CF93DF93D82FD92EC62F7A01B5
:10159000890180917D0390917E030E94BA0A0E9486
:1015A000AD0A8D2D0E94B30A8D2F0E94B30A8C2F95
:1015B0000E94B30AE701E00EF11E80E00E94B30A28
:1015C0008993EC16FD06C9F70E94A80AC801DF91AD
:1015D000CF911F910F91FF90EF90DF900895CF93DF
:1015E000DF93D82FC62F80917D0390917E030E94B8
:1015F000BA0A0E94AD0A80E00E94B30A8D2F0E94B1
:10160000B30A8C2F0E94B30A80E00E94B30AC82F4D
:101610000E94A80A8C2FDF91CF910895DF92EF925C
:10162000FF920F931F93CF93DF93D82FD92EC62FFE
:101630007A01890180917D0390917E030E94BA0A0C
:101640000E94AD0A8D2D0E94B30A8D2F0E94B30A0D
:101650008C2F0E94B30AE701E00EF11ECE15DF05C4
:1016600021F089910E94B30AF9CF0E94A80AC8010B
:10167000DF91CF911F910F91FF90EF90DF90089530
:101680001F93CF93DF93182FD62FC42F80917D0304
:1016900090917E030E94BA0A0E94AD0A80E00E94E7
:1016A000B30A812F0E94B30A8D2F0E94B30A8C2F98
:1016B0000E94B30A0E94A80A81E0DF91CF911F9196
:1016C0000895CF92DF92EF92FF920F931F93CF93E3
:1016D000DF93CDB7DEB7C254D1090FB6F894DEBFA1
:1016E0000FBECDBFFC0182819381A481B581239679
:1016F0008CAF9DAFAEAFBFAF239721E023962FAF46
:10170000239723964CAD5DAD6EAD7FAD23974BAB6C
:101710005CAB6DAB7EAB89AF9AAFABAFBCAF8DA707
:101720009EA7AFA7B8AB28AB4DA55EA56FA578A9BE
:101730004FA358A769A77AA72EAB4BA95CA96DA99F
:101740007EA949A35AA36BA37CA38B8F9C8FAD8FDB
:10175000BE8F4EE851E05C8B4B8B3FEF3D8B3E8B59
:101760003F8B188E5E874D872AA7CFA0D8A4E9A407
:10177000FAA4CF86D88AE98AFA8A2CA309A11AA1E9
:101780002BA13CA109871A872B873C875A83498361
:101790008B839C83AD83BE831091A3031093DD02E2
:1017A00068EE73E080E090E00E94F00861E0812F35
:1017B0000E949A081FB7F8948091DC02811127C01B
:1017C000E1E7FDE08491E5E8FDE09491E82FF0E0A9
:1017D000EE0FFF1FED5AF24FA591B491EC91E92362
:1017E00021F461E08AE00E944E0861E08AE00E94F4
:1017F0009A088CB580618CBD8CB580648CBD61E02D
:101800008DE00E949A0861E08BE00E949A08809126
:10181000DC028F5F8093DC021FBF60E090E080E01D
:101820000E94EF0A482F406864E090E080E00E9448
:10183000400B1CE088E0E82EF12C42E0612F8EE1A5
:1018400090E00E94400B42E0612F8FE190E00E9407
:10185000400BF1E0EF1AF108105EE114F10469F7B2
:1018600026E030E046E051E064E089E090E00E944C
:101870000E0B24E030E0AE014D5F5F4F64E08FE07F
:1018800090E00E940E0B24E030E0AE01415F5F4F1C
:1018900064E081E090E00E940E0B24E030E0AE01B5
:1018A0004B5E5F4F64E085E090E00E940E0B81E0AC
:1018B0008C8789859A85AB85BC85809399039093A5
:1018C0009A03A0939B03B0939C03CE5BDF4F0FB6AC
:1018D000F894DEBF0FBECDBFDF91CF911F910F9166
:1018E000FF90EF90DF90CF9008959B018295880F35
:1018F000807E6CE0680FC9010C94400BCF93DF939E
:10190000EC01898D9A8D892B41F0E881F98102845F
:10191000F385E02DCE010995F4CFDF91CF910895A5
:10192000CF93DF931F92CDB7DEB76983DC01ED91D2
:10193000FC910280F381E02D41E050E0BE016F5F39
:101940007F4F09950F90DF91CF9108951F93CF930B
:10195000DF93FB01DC0158961C921E92579722815F
:10196000211109C02381211106C02481211103C046
:101970002581222339F14115510521F1EA01DC01CC
:101980001C961C91AF014E5F5F4F612F6295660FF1
:10199000607E645F24E030E08CE090E00E940E0BFB
:1019A0004D2F60E170E0812F0E94750C4C2F61E19A
:1019B00070E0812F0E94750C81E090E0DF91CF9163
:1019C0001F91089590E080E0F9CFFC01818D928D08
:1019D0000895FC018589968908952EE831E0FC017F
:1019E00031832083FB014189528963897489FC0119
:1019F0004283538364837583089580E00895CF9371
:101A0000DF931F92CDB7DEB76983DC01ED91FC91C6
:101A10000280F381E02D41E050E0BE016F5F7F4F17
:101A200009950F90DF91CF9108950895FC01948559
:101A3000FB018485981303C081E0983009F480E0AD
:101A40000895CF93DF931F92CDB7DEB76983DC0192
:101A5000ED91FC910280F381E02D41E050E0BE0168
:101A60006F5F7F4F09950F90DF91CF910895DC0153
:101A7000ED91FC91028CF38DE02D099591E0892781
:101A800008959B018295880F807E68E0680FC901E8
:101A90000C94EF0ACF93C82F462F61E070E00E94AC
:101AA000750C61E070E08C2F0E94410D8111F9CF1F
:101AB000CF910895CF93C82F60E170E00E944A0D46
:101AC0004FEF62E070E08C2FCF910C94750C0F9368
:101AD0001F93CF93DF93C82FD62F8A010E945A0DF0
:101AE0004D2F70E060E08C2F0E94750C01151105E0
:101AF000B9F0412F64E070E08C2F0E94750C402FEC
:101B000065E070E08C2F0E94750C61E070E08C2F16
:101B10000E944A0D81E0DF91CF911F910F910895AE
:101B20000091DE021091DF020F5F1F4F1093DF0262
:101B30000093DE02DECFCF93DF93EC018C858830FB
:101B400061F00E945A0DEC85F0E0EE0FFF1FEC53A0
:101B5000FD4F1182108288E08C87DF91CF9108952C
:101B6000BF92CF92DF92EF92FF920F931F93CF938A
:101B7000DF93B82E6B017A01890164E270E00E9464
:101B8000410DC82F65E270E08B2D0E94410DD0E021
:101B9000DC2FCC278C0D9D2D911DC80FD91F6B2DCF
:101BA0006295660F607E6C5E9801A701CE010E946F
:101BB0000E0BC00FD11F4D2F64E270E08B2D0E94E1
:101BC000750C4C2F65E270E08B2DDF91CF911F914A
:101BD0000F91FF90EF90DF90CF90BF900C94750C19
:101BE000CF92DF92EF92FF920F931F93CF93DF93E9
:101BF000D82E7B018A01C22E68E270E00E94410D5E
:101C0000C82FD0E0DC2FCC2769E270E08D2D0E9438
:101C1000410DC80FD11D6D2D6295660F607E685E07
:101C20009801A701CE010E94BD0AC11016C0C00FC5
:101C3000D11F4D2F68E270E08D2D0E94750C4C2F46
:101C400069E270E08D2DDF91CF911F910F91FF9090
:101C5000EF90DF90CF900C94750CDF91CF911F9196
:101C60000F91FF90EF90DF90CF9008950F931F9307
:101C7000CF93DF931F92CDB7DEB78C01DC01ED91DE
:101C8000FC910084F185E02D0995892B91F021E0EC
:101C900041E050E0BE016F5F7F4FF80184850E94F4
:101CA000F00D898190E00F90DF91CF911F910F91FE
:101CB00008958FEF9FEFF7CFCF93DF931F92CDB7AC
:101CC000DEB7FC01218D328D8FEF9FEF232B59F072
:101CD00021E041E050E0BE016F5F7F4F84850E94AC
:101CE000F00D898190E00F90DF91CF9108951F93BF
:101CF000CF93DF93182F66E270E00E94410DC82F4A
:101D0000D0E0DC2FCC2767E270E0812F0E94410DEC
:101D10008C0F9D2F911DDF91CF911F910895FF9200
:101D20000F931F93CF93DF93F82E10E000E08F2DD9
:101D30000E94770EEC01892B21F08F2D0E94770EE7
:101D40008C01C017D10799F7CE01DF91CF911F9178
:101D50000F91FF900895FC018485883011F00C9458
:101D60008F0E90E080E008951F93CF93DF93182F9C
:101D700060E270E00E94410DC82FD0E0DC2FCC273C
:101D800061E270E0812F0E94410D8C0F9D2F911D0B
:101D9000DF91CF911F910895FF920F931F93CF93DF
:101DA000DF93F82E10E000E08F2D0E94B40EEC01BE
:101DB000892B21F08F2D0E94B40E8C01C017D10702
:101DC00099F7CE01DF91CF911F910F91FF90089568
:101DD000AF92BF92CF92DF92FF920F931F93CF9358
:101DE000DF938C015B01EA01FC01C788D08CF4848D
:101DF0008F2D0E94CC0E8C179D0720F48F2D0E94F2
:101E0000CC0EEC019E01A501B6018F2D0E94B00DF4
:101E1000F8018789908D8C0F9D1F908F878BCE0145
:101E2000DF91CF911F910F91FF90DF90CF90BF90E6
:101E3000AF900895FC018485883021F063E070E064
:101E40000C94410D80E00895CF93DF93FC0124852D
:101E50002830D9F0EC010E941A0F843189F08823D0
:101E600079F0883169F021E08C3159F4E881F98109
:101E70000084F185E02DCE01099521E0892B09F43C
:101E800020E0822FDF91CF91089580E0FBCFCF92A9
:101E9000DF92EF92FF92CF93DF93EC018C85883035
:101EA00089F168E070E00E944A0D0E9423096B01ED
:101EB0007C01CE010E941A0F882391F00E94230911
:101EC0006C197D098E099F09683E73408105910553
:101ED00038F461E070E080E090E00E94F008E9CF23
:101EE000CE010E941A0F882319F08C850E945A0D8A
:101EF000EC85F0E0EE0FFF1FEC53FD4F11821082D6
:101F000088E08C87DF91CF91FF90EF90DF90CF90AA
:101F100008954F925F926F927F928F929F92AF92AD
:101F2000BF92CF92DF92EF92FF921F93CF93DF93F6
:101F3000CDB7DEB72D970FB6F894DEBF0FBECDBF7D
:101F40007C0194ECA92E92E0B92E10E0D12CC12C8A
:101F500028EE422E23E0522E612C712C3EE3832E7C
:101F600031E0932E1C821B824D825E826F827886C6
:101F70009A8289821D87D5012D913D915D01F701DE
:101F80008481958128173907B1F4CE0101960E940A
:101F90001A0F843199F1CE0101960E941A0F8C31EB
:101FA00051F4CE0101960E94AB0E892B21F4CE0193
:101FB00001960E94470F1F5F1830A1F6CD2841F40B
:101FC000D701ED91FC910084F185E02DC7010995C1
:101FD0002D960FB6F894DEBF0FBECDBFDF91CF9127
:101FE0001F91FF90EF90DF90CF90BF90AF909F90A8
:101FF0008F907F906F905F904F900895CC24C39402
:10200000D12CD9CFCF92DF92EF92FF921F93CF9333
:10201000DF93182F6B017A010E948F0EEC0100975D
:10202000D9F463E070E0812F0E94410D843159F0B2
:10203000882349F0C1E0D0E08C3111F4D0E0C0E059
:10204000D195C195D109CE01DF91CF911F91FF901C
:10205000EF90DF90CF900895E816F9060CF4E701B1
:102060001C161D0684F720E0AE01B601812F0E94E8
:10207000F00D60E470E0812F0E944A0DE4CFCF9311
:10208000DF93FC01218D328D2115310529F48FEF6D
:102090009FEFDF91CF910895EC018485421753079C
:1020A00008F0A9010E9402101816190684F7298D5C
:1020B0003A8D281B390B3A8F298FEBCF0F931F9343
:1020C000CF93DF931F92CDB7DEB7FC01218D328D08
:1020D000232B41F48FEF9FEF0F90DF91CF911F9152
:1020E0000F9108958C0141E050E0BE016F5F7F4F7A
:1020F000FC0184850E940210181619065CF7F8018D
:10210000818D928D0197928F818F898190E0E4CFAC
:10211000FC0184850C940210CF93DF931F92CDB7FE
:10212000DEB741E050E0BE016F5F7F4FFC01848568
:102130000E9402101816190634F4898190E00F905D
:10214000DF91CF9108958FEF9FEFF9CF0F931F93FA
:10215000CF93DF93EC010E942309688779878A87F0
:102160009B87CE010E948C1097FF15C00E94230907
:10217000088519852A853B85601B710B820B930BA3
:102180000C811D812E813F816017710782079307A3
:1021900040F38FEF9FEFDF91CF911F910F91089543
:1021A000CF93FC01C48560E270E08C2F0E944A0D41
:1021B00062E070E08C2F0E94410D84FD11C062E04E
:1021C00070E08C2F0E94410D83FFF2CF48E162E066
:1021D00070E08C2F0E94750C90E080E0CF91089504
:1021E00040E162E070E08C2F0E94750C81E090E08D
:1021F000F5CFEF92FF921F93CF93DF93FC012485DD
:10220000283039F080E0DF91CF911F91FF90EF905F
:1022100008957B01EC0110E063E070E0812F0E94E3
:10222000410D81110EC01C878C85883059F3FE86C4
:10223000ED861A8E198EA70162E00E94670D81E07B
:10224000E2CF883181F31F5F183031F7EDCF8F92E5
:102250009F92AF92BF92CF92DF92EF92FF920F9335
:102260001F93CF93DF93CDB7DEB72D970FB6F894BA
:10227000DEBF0FBECDBF7C0110E000E038EE832E44
:1022800033E0932EA12CB12C4EE3C42E41E0D42E8A
:102290001C821B828D829E82AF82B886DA82C982BE
:1022A0000D87CE0101960E941A0F811130C0F701EF
:1022B0004481558161E0802F0E94670D63E070E0EA
:1022C000802F0E94410D833129F462E070E0802F5D
:1022D0000E944A0DF70184819581000F111FF801BA
:1022E000EC53FD4F918380832D960FB6F894DEBF9B
:1022F0000FBECDBFDF91CF911F910F91FF90EF9057
:10230000DF90CF90BF90AF909F908F9008950F5F18
:102310001F4F0830110509F0BBCFE6CF8F929F9277
:10232000AF92BF92CF92DF92EF92FF920F931F93E3
:10233000CF936C015B017A01FC01C485C830A1F424
:1023400081E090E0F60193838283F12CE12CC701B8
:10235000CF911F910F91FF90EF90DF90CF90BF90A2
:10236000AF909F908F9008958A014130584010F0AF
:1023700000E018E08C2F0E94CC0E4C0163E070E06E
:102380008C2F0E94410D873111F08C3109F5801698
:10239000910680F39801A50170E060E08C2F0E9407
:1023A000B00D60E270E08C2F0E944A0D62E070E098
:1023B0008C2F0E94410D84FD0EC063E070E08C2FD5
:1023C0000E94410D8111F2CF8C2F0E945A0DB8CF7F
:1023D00010E000E0DFCF40E162E070E08C2F0E946F
:1023E000750C012B09F0B3CFABCF3F924F925F92A8
:1023F0006F927F928F929F92AF92BF92CF92DF9215
:10240000EF92FF920F931F93CF93DF93CDB7DEB779
:102410002D970FB6F894DEBF0FBECDBF6C015B01E8
:102420004A010E94890F84ECE82E82E0F82E312CBC
:1024300010E000E098EE492E93E0592E612C712CAB
:102440001C821B824D825E826F8278868EE391E0D1
:102450009A8389833D86F701219131917F01F601AD
:10246000848195812817390771F4CE0101960E9465
:102470001A0F873141F4A401B501CE0101960E94E3
:102480008E11080F191F3394F8E03F12D9CFC801FD
:102490002D960FB6F894DEBF0FBECDBFDF91CF9162
:1024A0001F910F91FF90EF90DF90CF90BF90AF9072
:1024B0009F908F907F906F905F904F903F90089586
:1024C000DF92EF92FF920F931F93CF93DF93FC0164
:1024D0002485283051F090E080E0DF91CF911F916A
:1024E0000F91FF90EF90DF9008957A01EB018C013E
:1024F000D12C63E070E08D2D0E94410D811128C028
:10250000F801D486F8018485883029F320910001F0
:10251000309101012F5F3F4F19F13093010120935A
:102520000001409100015091010161E00E94670D9E
:102530008A818F3FC1F48B818F3F01F58C818F3F62
:10254000E9F48D818F3FD1F488E0F8018487C3CF0F
:102550008B7F8831A9F2D394F8E0DF12CACFD2CFB3
:1025600020E034E0DACF811109C08B81811106C0EF
:102570008C81811103C08D81882331F3E114F10432
:1025800019F3F801D484AE014E5F5F4F6D2D629553
:10259000660F607E645F24E030E08CE090E00E9493
:1025A0000E0B4F2D60E170E08D2D0E94750C4E2DAD
:1025B00061E170E08D2D0E94750C64E070E08D2D5E
:1025C0000E944A0DC8010E941A0F873161F061E034
:1025D00070E080E090E00E94F008C8010E941A0FAD
:1025E0008111F0CFB1CF81E090E077CF90E080E033
:1025F0000895DC01ED91FC91048CF58DE02D09949A
:102600008091C7039091C8030E94E10940E06CECFF
:102610008091C7039091C8030E948E094091C20324
:1026200064E48091C7039091C8030E948E09809151
:10263000C4038823A1F0E091C303E9506EEE72E079
:10264000E33038F4F0E0EE0FFF1FEC59FE4F6081ED
:102650007181072E000C880B990B0C94F0080895DB
:10266000BF92CF92DF92EF92FF920F931F93CF937F
:10267000DF93EC01B62EC72EED84E11004C00E945A
:10268000E10981110EC01B861D861C8680E0DF914A
:10269000CF911F910F91FF90EF90DF90CF90BF905F
:1026A000089540E060EFCE010E948E09D12C01E038
:1026B00011E0CE010E943B09F82ECE010E943B0999
:1026C00091E0F91218C0813099F51134E0F2EB86EF
:1026D000E11002C081E08D878B818823A1F22396CF
:1026E000EB2DFC2DCF01089629912193E817F907CE
:1026F000D9F781E0CCCFED2DF0E0F8120FC08B853B
:102700001817A0F4DE01AE0FBF1F13968C91802323
:1027100079F4F12C193008F41C87E12EEC0FFD1F21
:102720008381902F9095892383830AC08113F1CFF1
:10273000FE01ED0DF11D8381802B8383FF24F39433
:102740006F2DCE010E945F091F5F000F11F4D3941B
:1027500001E087E08D1508F0ACCFB7CF0F931F9342
:10276000CF93DF93CDB7DEB728970FB6F894DEBFCF
:102770000FBECDBF8C01DC01ED91FC910680F7818D
:10278000E02D0995F80184850E948F0E892BB1F107
:1027900048E050E0BE016F5F7F4FD8011C968C91DE
:1027A0000E94021018161906F4F4D801519684E01C
:1027B000FE01319601900D928A95E1F78D8190E0AE
:1027C000982F88272E81820F911DF801968B858B7B
:1027D0008F81282F30E0322F22278885820F932F78
:1027E000911D928F818F28960FB6F894DEBF0FBE91
:1027F000CDBFDF91CF911F910F91089590E080E0C0
:10280000F2CF4F925F926F927F928F929F92AF9290
:10281000BF92CF92DF92EF92FF920F931F93CF93CD
:10282000DF93CDB7DEB763970FB6F894DEBF0FBE68
:10283000CDBF7C016B013A01FB01DB018D91811160
:10284000FDCF30E020E090E080E05AE04191442369
:1028500001F1843091050CF042C04E3269F42F3FF3
:10286000310509F0E4F5D301A80FB91F12962C9396
:10287000019630E020E0EACF529FB001539F700DE7
:102880001124242F440F330B20533109260F371FF7
:10289000DDCF2F3F310509F014F584309105FCF4AC
:1028A000680E791EF3012283CC24C394D12CC60177
:1028B00063960FB6F894DEBF0FBECDBFDF91CF9108
:1028C0001F910F91FF90EF90DF90CF90BF90AF904E
:1028D0009F908F907F906F905F904F900895F70139
:1028E00042815381648175818091AC039091AD03E5
:1028F000A091AE03B091AF03481759076A077B0751
:1029000009F400C28701085F1F4F0E9423096F70FE
:1029100077277C5FC8010E94F910813009F0F7C168
:102920008EE891E09A838983F70182819381A48163
:10293000B5818B839C83AD83BE8345E350E0BE01AC
:102940006F5F7F4FC8010E94A60C892B31F4D12CF8
:10295000C12CC8010E949B0DAACF0E942309F70138
:102960007783668342E050E0B7016A5F7F4FC8011A
:102970000E94E80E81E090E09A83898342E050E073
:10298000BE016F5F7F4FC8010E94E80E80E091E0BA
:102990009A83898342E050E0BE016F5F7F4FC80198
:1029A0000E94E80E1A82198242E050E0BE016F5F79
:1029B0007F4FC8010E94E80E42E050E0BE016F5F09
:1029C0007F4FC8010E94E80E42E050E0BE016F5FF9
:1029D0007F4FC8010E94E80E5601F60180818823CE
:1029E00001F16501F60181912F01882311F08E32EA
:1029F000B1F446018A189B081814190474F48D86E2
:102A000041E050E0BE01635F7F4FC8010E94E80EC5
:102A1000A401B501C8010E94E80E5201DECF620197
:102A2000E1CF1D8641E050E0BE01635F7F4FC801EA
:102A30000E94E80EC12CDD24D394DA82C98242E0E0
:102A400050E0BE016F5F7F4FC8010E94E80EDA823E
:102A5000C98242E050E0BE016F5F7F4FC8010E9413
:102A6000E80EC8010E94D010892B09F470CFF3E062
:102A7000AF2EB12C230122E0420E511C43C0F701BE
:102A80004281538164817581818D928DA38DB48D36
:102A9000481759076A077B0709F02AC1858D968D6B
:102AA000C59709F025C181A192A10C970CF425C10D
:102AB0004CE050E0BE016F5F7F4FC8010E943F10A5
:102AC0008B819C819827892798279A8B898BF7017E
:102AD0004681578129813A814217530711F497FDA6
:102AE0002FC0C8010E947E0CECEFCE2EDD24DA94BC
:102AF00081E0A81AB10809F42CCFFFEFCF16DF064A
:102B000009F027CF0E9423093B014C01C8010E9414
:102B1000AE13181619060CF4B2CF0E9423096619D9
:102B2000770988099909693873418105910508F089
:102B3000DBC062E370E080E090E00E94F008E6CF46
:102B40008F709270892B41F0C8010E947E0C7BEF40
:102B5000C72EDD24DA94CCCF6F8078847624672466
:102B60007624D12CC12C61147104D1F4C8010E94C7
:102B70007E0C6AEFC62EDD24DA94BACF8D858111E2
:102B800017C0C8010E945E10C8010E945E10C801F3
:102B90000E945E10C8010E945E10FFEFCF1ADF0A8C
:102BA0008D819E81982789279827C816D906A8F471
:102BB00041E050E0BE01635F7F4FC8010E943F10BB
:102BC0008D858823D9F28D859FEF980F9D87882367
:102BD000A9F2C8010E945E10F6CF912C812C41E031
:102BE00050E0BE016D5E7F4FC8010E943F108B898F
:102BF000982F907C61F4882389F08B899FEF980F40
:102C00009B8B882341F0C8010E945E10F6CFC8015B
:102C10000E945E101B8A8B898111E1CF42E050E057
:102C2000BE01615F7F4FC8010E943F1042E050E04B
:102C3000BE01635F7F4FC8010E943F10C8010E9420
:102C40005E10C8010E945E10C8010E945E10C8019B
:102C50000E945E1042E050E0BE016F5E7F4FC801EF
:102C60000E943F108F85988981159140E9F4CD84A9
:102C7000DE84DC24CD24DC2481E0C816D104A1F458
:102C800089899A898115944041F0C8010E947E0C7F
:102C900057EFC52EDD24DA942BCF44E050E0B2018B
:102CA000C8010E943F1024CFD12CC12C89899A8958
:102CB000982789279827C816D90638F4C8010E9492
:102CC0005E10FFEFCF1ADF0AF1CF2FEF821A920AC0
:102CD0006814790409F083CFC8010E947E0C46EF86
:102CE000C42EDD24DA9404CFCC24CA94DC2C00CF8B
:102CF0002EEFC22EDD24DA94FBCE9DEFC92EDD240B
:102D0000DA94F6CE8EEFC82EDD24DA94D0CDD12C15
:102D1000C12CCDCDCF92DF92EF92FF920F931F93F4
:102D2000CF93DF93CDB7DEB7AF970FB6F894DEBF82
:102D30000FBECDBF7C016A010EE811E01A83098342
:102D40001C861B8688EE93E0A0E0B0E08D879E870E
:102D5000AF87B88B86E191E09A87898788E08D8B71
:102D6000198F088F1A8E1B8E1C8E1D8E1BA70AA70B
:102D70001CA61DA61EA61FA68091990390919A03DA
:102D8000A0919B03B0919C038EA39FA3A8A7B9A772
:102D90008B839C83AD83BE8318861F82AE01465D04
:102DA0005F4FCE0101960E94011481309105B1F46C
:102DB000D701ED91FC910488F589E02D1DA30CA3AA
:102DC0008CA59DA5AEA5BFA58EA39FA3A8A7B9A7B7
:102DD000A601BE016C5D7F4FC7010995AF960FB686
:102DE000F894DEBF0FBECDBFDF91CF911F910F9141
:102DF000FF90EF90DF90CF900895CF92DF92EF9207
:102E0000FF920F931F93CF93DF93CDB7DEB7AF97AA
:102E10000FB6F894DEBF0FBECDBF7C016A010EE88D
:102E200011E01A8309831C861B8688EE93E0A0E0DC
:102E3000B0E08D879E87AF87B88B86E191E09A8757
:102E4000898788E08D8B198F088F1A8E1B8E1C8EB8
:102E50001D8E1BA70AA71CA61DA61EA61FA6809135
:102E6000990390919A03A0919B03B0919C038EA328
:102E70009FA3A8A7B9A78B839C83AD83BE83188625
:102E80001F82AE01465D5F4FCE0101960E94011484
:102E900081309105B1F4D701ED91FC910684F7855D
:102EA000E02D1DA30CA38CA59DA5AEA5BFA58EA34B
:102EB0009FA3A8A7B9A7A601BE016C5D7F4FC7015C
:102EC0000995AF960FB6F894DEBF0FBECDBFDF9168
:102ED000CF911F910F91FF90EF90DF90CF900895C9
:102EE0000E94622DFB0101900020E9F73197AF01AC
:102EF000461B570BDC01ED91FC910280F381E02D24
:102F000009948F929F92AF92BF92EF92FF920F938C
:102F10001F93CF93DF93CDB7DEB7A1970FB6F89489
:102F2000DEBF0FBECDBF7C01FA01CB0119A222305A
:102F300008F42AE08E010F5D1F4F822E912CB12CD8
:102F4000A12CBF01A50194010E947B2AF901CA01AD
:102F50006A300CF5605DD8016E938D01232B242B14
:102F6000252B79F790E080E0109721F0BD01C70193
:102F70000E947217A1960FB6F894DEBF0FBECDBFA8
:102F8000DF91CF911F910F91FF90EF90BF90AF9085
:102F90009F908F900895695CDECF8F929F92AF9241
:102FA000BF92CF92DF92EF92FF920F931F93CF9336
:102FB000DF937C01EB016C0182E0C80ED11C47015C
:102FC000E5E08E0E911C10E000E0F60141916F01EA
:102FD00050E070E060E02AE0CE010E9481175C01C1
:102FE000E881F9810190F081E02D6EE2CE01099532
:102FF0008A0D9B1D080F191FC814D90431F7F7015A
:10300000458150E070E060E02AE0CE010E94811727
:10301000800F911FDF91CF911F910F91FF90EF9043
:10302000DF90CF90BF90AF909F908F90089560E910
:1030300071E00C947217CF93DF9360EE72E00E9400
:10304000CD17EC0180EE92E00E9417188C0F9D1FA7
:10305000DF91CF9108950F931F93CF93DF93EC01EE
:103060000E940F078C01CE010E941718800F911F3C
:10307000DF91CF911F910F9108950F931F93CF93DD
:10308000DF93EC010E941D078C01CE010E941718EE
:10309000800F911FDF91CF911F910F910895FC0137
:1030A00024813581232B31F421E0FB01672B49F486
:1030B000822F0895808191816115710539F421E095
:1030C000FC0180818823A1F320E0F2CF0E94702DC3
:1030D00021E0892B69F3F8CF0F931F93CF93DF93F0
:1030E000EC0188819981009759F02A813B8126174C
:1030F000370730F081E0DF91CF911F910F91089554
:103100008B016F5F7F4F0E94A52C009759F0998328
:1031100088831B830A832C813D81232B59F7FC0173
:103120001082E8CF80E0E7CFEF92FF920F931F93DA
:10313000CF93DF936115710541F480E0DF91CF916A
:103140001F910F91FF90EF90089541155105B1F037
:103150007B01EC010C811D81040F151FB8010E9439
:103160006C18882351F3288139818C819D81B701A6
:10317000820F931F0E94792D1D830C8381E0DECF87
:10318000CF93DF93EC0188819981009711F00E9421
:103190001C2C198218821D821C821B821A82DF91CC
:1031A000CF910895CF93DF93EC01FB0101900020B4
:1031B000E9F73197AF01461B570B0E949418811114
:1031C00003C0CE010E94C018CE01DF91CF910895B7
:1031D000CF93DF93EC01FB014481558160817181C4
:1031E0000E949418811103C0CE010E94C018CE0124
:1031F000DF91CF910895EF92FF920F931F93CF939A
:10320000DF93EC017B018A01BA010E946C188111E5
:103210000BC0CE010E94C018CE01DF91CF911F914B
:103220000F91FF90EF9008951D830C83B701888163
:1032300099810E94792DF0CFFB0101900020E9F7E0
:103240003197AF01461B570B0C94FB18CF93DF93BC
:10325000EC01FB018617970749F0608171816115C8
:10326000710541F0448155810E94FB18CE01DF9128
:10327000CF9108950E94C018F9CFFC0111821082ED
:1032800013821282158214826115710551F0FB01BF
:1032900001900020E9F73197AF01461B570B0C94C2
:1032A000FB180895FC0180819181009711F00C9426
:1032B0001C2C0895CF92DF92FF920F931F93CF9310
:1032C000DF9300D000D000D0CDB7DEB78C0162E92B
:1032D00071E0CE0101960E943D1970E060E0C801E6
:1032E0000E94FE068B3211F08D3281F5F801848147
:1032F0009581029728F06081718161157105F1F463
:103300001092BA026AEB72E0CE0101960E941C197B
:10331000CD80DE8010E000E0F12C0C151D0509F1D8
:10332000B801CE0101960E94FE068E32A9F4F1107A
:1033300016C0FF24F3940F5F1F4FEFCF6F5F7F4FD7
:1033400019F7CE0101960E94C018E2CFB801CE0154
:1033500001960E942619DCCF80538A3060F310E07A
:1033600001C011E0CE0101960E945219812F2696CC
:103370000FB6F894DEBF0FBECDBFDF91CF911F9186
:103380000F91FF90DF90CF900895AF92BF92CF92B0
:10339000DF92EF92FF920F931F93CF93DF93CDB7FE
:1033A000DEB7C456D1090FB6F894DEBF0FBECDBF4D
:1033B0006C01062F660F110BC8010E94232A9E0183
:1033C0002F5F3F4F79015901021B130BF501EE19D5
:1033D000FF09882349F0C8018A0D9B1D0E94232AFA
:1033E000F50181935F01F2CFEE0DFF1D1082B70151
:1033F000C6010E943D19C601CC59DF4F0FB6F894A3
:10340000DEBF0FBECDBFDF91CF911F910F91FF9017
:10341000EF90DF90CF90BF90AF900895CF92DF9262
:10342000EF92FF920F931F93CF93DF937B01DB010A
:103430001496CD90DC90D0E0C0E0082F880F110BDF
:10344000CC15DD05D4F4F70184819581C817D9071F
:1034500028F40190F081E02D309761F41092BA02C7
:10346000EAEBF2E06081C8018C0F9D1F0E942B2ABD
:103470002196E6CFEC0FFD1FF5CF60E0C8018C0D63
:103480009D1DDF91CF911F910F91FF90EF90DF90E5
:10349000CF900C942B2A1F920F920FB60F921124EB
:1034A0002F933F934F935F936F937F938F939F934C
:1034B000AF93BF93EF93FF9380EE92E00E94BF071C
:1034C000FF91EF91BF91AF919F918F917F916F91FC
:1034D0005F914F913F912F910F900FBE0F901F90D2
:1034E00018951F920F920FB60F9211242F938F935E
:1034F0009F93EF93FF93E091F002F091F1028081AE
:10350000E091F602F091F70282FD1BC0908180915C
:10351000F9028F5F8F732091FA02821741F0E091D8
:10352000F902F0E0E052FD4F958F8093F902FF9190
:10353000EF919F918F912F910F900FBE0F901F9041
:1035400018958081F4CF1F920F920FB60F9211241D
:103550002F933F938F939F93AF93BF938091BC0220
:103560009091BD02A091BE02B091BF023091BB020A
:1035700023E0230F2D3758F50196A11DB11D20938F
:10358000BB028093BC029093BD02A093BE02B09395
:10359000BF028091C0029091C102A091C202B0917D
:1035A000C3020196A11DB11D8093C0029093C10278
:1035B000A093C202B093C302BF91AF919F918F912C
:1035C0003F912F910F900FBE0F901F90189526E8F6
:1035D000230F0296A11DB11DD2CFCF93E0EEF2E0F2
:1035E0001382128288EE93E0A0E0B0E0848395839A
:1035F000A683B7838EE691E09183808385EC90E08B
:103600009587848784EC90E09787868780EC90E0AC
:10361000918B808B81EC90E0938B828B82EC90E09D
:10362000958B848B86EC90E0978B868B118E128E17
:10363000138E148EEDE7F3E080E58083C1E0C18353
:10364000EFE7F3E08EE891E09183808312821382AA
:1036500014821582E5E8F3E091838083128213825D
:1036600014821582EBE8F3E0918380831282138247
:1036700014821582E1E9F3E0918380831282138240
:1036800014821582E4EAF3E091838083128213822C
:1036900014821582E7E9F3E091838083128213821A
:1036A00014821582138612862AE02487EAEAF3E060
:1036B000918380831282138214821582E0EBF3E0FF
:1036C000918380831282138214821582E3EEF3E0E9
:1036D00091838083128213821482158260E085E0D8
:1036E0000E949A08E0E8FDE0E491A5EDB3E0EC93D8
:1036F000ECE6FDE0E491F0E0EE0FFF1FE35AF24F3D
:103700008591949112969C938E9311971B961C927F
:103710001B971D961C921D971C961C921C971A961F
:103720001C921A9719961C92199718961C92189722
:1037300017961C92179716961C92169715961C9220
:10374000159714961C92149713961C921397E2ECFB
:10375000F3E084EF96E0928B818BB683A58314828D
:10376000108289E08183C283C383ECEBF3E0138290
:10377000128280E891E09183808380E590E09583D8
:10378000848362E971E086EB93E0CF910C943D195C
:10379000CF93DF93CDB7DEB7C855D1090FB6F894F4
:1037A000DEBF0FBECDBF789484B5826084BD84B582
:1037B000816084BD85B5826085BD85B5816085BD2C
:1037C00080916E00816080936E00109281008091E4
:1037D000810082608093810080918100816080936C
:1037E0008100809180008160809380008091B10091
:1037F00084608093B1008091B00081608093B000BC
:1038000080917A00846080937A0080917A0082604F
:1038100080937A0080917A00816080937A00809111
:103820007A00806880937A001092C1006AE0CE012D
:103830008F960E94C51964E6CE0182960E94C51932
:1038400062E971E0CE018F960E944F18811108C085
:1038500070E060E0CE018F960E944F18882381F0BF
:1038600064E971E0CE0101960E943D19BE016F5FCF
:103870007F4F84E60E940E1ACE0101960E945219D3
:1038800062E971E0CE0182960E944F18811108C052
:1038900070E060E0CE0182960E944F18882381F08C
:1038A00063E971E0CE0101960E943D19BE016F5F90
:1038B0007F4F8AE00E940E1ACE0101960E94521993
:1038C000E091C703F091C80313861586148612860B
:1038D0001186108617821682158214821382109226
:1038E000C60301E0BE016F5F7F4F8091C7039091D7
:1038F000C8030E943013882309F455C067E0CE0145
:1039000001960E942F0998858913ECCF8091C203FC
:10391000811128C08091C7039091C8030E94E109DA
:10392000BE016F5F7F4F8091C7039091C8030E94D3
:10393000C20940E064EB8091C7039091C8030E94E4
:103940008E098091C7039091C8030E943B09182FEC
:103950008091C7039091C8030E94E109111102C030
:103960000093C2031091C3038981803111F40C9438
:10397000FC24CE0101960E94650A811750F48091C3
:10398000C3038093C3038091C6038F5F8093C603F4
:10399000A9CF8981803111F48CE0F3CFCE0101965B
:1039A0000E94650AEECF61E086E00E949A0861E01D
:1039B00086E00E944E08E091F002F091F10282E070
:1039C0008083E091EC02F091ED021082E091EE0232
:1039D000F091EF0280E180831092F802E091F4020E
:1039E000F091F50286E08083E091F202F091F3021B
:1039F000808180618083E091F202F091F302808106
:103A000088608083E091F202F091F3028081806807
:103A10008083E091F202F091F30280818F7D8083B8
:103A20000E94001360ED77E080E090E00E94F008D3
:103A30000EE811E01A83098380910201909103013D
:103A4000A0910401B09105018B839C83AD83BE835B
:103A5000CE0101960E94610B8CEB93E00E9427112E
:103A60006DEE72E080EE92E00E943D1862ED72E031
:103A700080EE92E00E943D186BEB72E080EE92E0E7
:103A80000E943D181A8309831B821C821D821E829C
:103A900024E030E0AE014D5F5F4F60E08FE090E0EA
:103AA0000E94BD0ACE0101960E941B1888E199E28E
:103AB0000FB6F894A895809360000FBE90936000B5
:103AC000CE0182960E945219CE018F960E94521901
:103AD000A8950E942309C090D802D090D902E09006
:103AE000DA02F090DB026C197D098E099F096031C2
:103AF00077428105910528F4CD28CE28CF2809F0FA
:103B00009BC00E9423096093D8027093D9028093CE
:103B1000DA029093DB026CE37DE080EE92E00E949B
:103B20003D188EE891E09A8389831B821C821D8256
:103B30001E8224E030E0AE014D5F5F4F60E08FE019
:103B400090E00E94BD0ACE0101960E941B18E091F0
:103B5000C703F091C8031386158614861286118652
:103B6000108617821682158214821382BE016E5D42
:103B70007F4F8091C7039091C8030E943013811139
:103B8000DCC060E070E08EEF92EC6093D402709342
:103B9000D5028093D6029093D7026AE0CE01829636
:103BA0000E94C51964E6CE0101960E94C5198AA13A
:103BB0009BA1812C912C5401009721F00E94242577
:103BC0004B015C0189819A81C12CD12C760100972F
:103BD00021F00E9424256B017C012091D4023091B8
:103BE000D5024091D6025091D702C501B4010E947E
:103BF000AC2A4B015C01A70196010E94482B1816C4
:103C00000CF0FBC06EE27DE080EE92E00E943D1879
:103C100069E971E086EB93E00E941C1960E086E0A0
:103C20000E944E080E940013CE0101960E94521974
:103C3000CE0182960E9452198CEB93E00E94890F6C
:103C400084ECE82E82E0F82E10E098EE892E93E0C6
:103C5000992EA12CB12C2EE3C22E21E0D22E1C8253
:103C60001B828D829E82AF82B886DA82C9821D87CE
:103C7000F701219131917F018091C0039091C1039F
:103C80002817390709F0EAC0CE0101960E941A0FE1
:103C9000873109F0DCC0CE0101960E94AB0E892B62
:103CA00009F4DCC08B819C819DA38CA38D819E81B6
:103CB000AF81B8858EA39FA3A8A7B9A789859A8548
:103CC000AB85BC858AA79BA7ACA7BDA78EE391E077
:103CD0009BA38AA38D858EA78EA5883009F47FC605
:103CE000CE0182960E94240F882309F478C6CE0163
:103CF00082960E94AB0E892B99F32DB63EB662E9EF
:103D000071E0CE01895B9F4F0E943D19CE018296E2
:103D10000E94A61097FDB6C08A30910509F4B2C082
:103D200089831A8241E050E0BE016F5F7F4FCE0170
:103D3000895B9F4F0E949418E9CF67E0CE0182967D
:103D40000E942F0999A589131CCF8091C7039091D8
:103D5000C8030E94E109882309F413CFBE016F5FF5
:103D60007F4FCE0182960E94190A882309F409CF59
:103D700068E0CE0101960E942F099985891301CF31
:103D80006A8170E0762F6627770F770F770F29818A
:103D900048E0249F90011124262B372B8AA18031E3
:103DA000D1F4688570E08F81FB01E81BF109CF0138
:103DB0009695982F8827979587950E94522BCB012F
:103DC0004097B90153E0660F771F5A95E1F7607885
:103DD0009C01260F371F2138F4EE3F070CF4D1CE9B
:103DE000B901330F880B990B0E94032920E030E0C2
:103DF00040E05CE30E946229C8CEC701B60190583A
:103E0000A50194010E94482B181674F460E27DE02D
:103E100080EE92E00E943D186DE971E086EB93E040
:103E20000E941C1961E0FBCE62EC7CE080EE92E027
:103E30000E943D1860EA7CE080EE92E00E941D073F
:103E400066EB73E080EE92E00E942B18EBCECE0181
:103E500001960E941A0F8C3109F41DCF1F5F183094
:103E600009F0FDCE1DA21CA288EE93E0A0E0B0E018
:103E70008EA39FA3A8A7B9A78EE391E09BA38AA3D3
:103E80001EA72ACF2D96EEACFFAC2D97C701019649
:103E90002DB73EB7281B390B0FB6F8943EBF0FBEA7
:103EA0002DBF4DB75EB74F5F5F4F6A01E114F1045C
:103EB00079F051E0E51AF10829966EAD7FAD2997AA
:103EC000A701C6010E948E2DF601EE0DFF1D108286
:103ED00062E671E0C6010E94282562E671E090E08A
:103EE00080E00E9428257C01BC01CE0101960E9441
:103EF0003D1961EA71E0CE0101960E944F18182F1A
:103F0000CE0101960E945219112309F4EEC20E94BB
:103F1000230920E03CE546E255E00E947B2A6196B9
:103F20002CAF3DAF4EAF5FAF61970E94230920E0F9
:103F30003CE546E255E00E947B2A20E83EEE46E35F
:103F400050E00E947B2A65962CAF3DAF4EAF5FAF2D
:103F500065970E94230920E03CE546E255E00E9477
:103F60007B2A20E83EEE46E350E00E947B2A20E6D2
:103F70003AEE40E050E00E947B2A69962CAF3DAFBC
:103F80004EAF5FAF69970E94230920E03CE546E20F
:103F900055E00E947B2A20E83EEE46E350E00E9476
:103FA0007B2A20E63AEE40E050E00E947B2A28EE91
:103FB00033E040E050E00E947B2A49015A0160E969
:103FC0007CE0CE0182960E943D1868E77CE0CE013D
:103FD00082960E943D18CE0182960E94171868E6CC
:103FE0007CE0CE0182960E943D1861E67CE0CE0125
:103FF00082960E943D186AE57CE0CE0182960E947E
:104000003D186AE37CE0CE0182960E943D1869E18A
:104010007CE0CE0182960E943D1861EC7BE0CE01EF
:1040200082960E943D1868E67BE0CE0182960E944F
:104030003D1866E17BE0CE0182960E943D1868E063
:104040007BE0CE0182960E943D1869EC7AE0CE01B9
:1040500082960E943D186FEB7AE0CE0182960E9414
:104060003D1868EA7AE0CE0182960E943D1868E722
:104070007AE0CE0182960E943D186CE47AE0CE018F
:1040800082960E943D1867E07AE0CE0182960E94F7
:104090003D1862EA79E0CE0182960E943D1862E8FE
:1040A00079E0CE0182960E943D186FE679E0CE015C
:1040B00082960E943D1863E479E0CE0182960E94C8
:1040C0003D1860E379E0CE0182960E943D1862E1DE
:1040D00079E0CE0182960E943D1862ED78E0CE0133
:1040E00082960E943D1869EC78E0CE0182960E948B
:1040F0003D1864E778E0CE0182960E943D1862E7A1
:1041000078E0CE0182960E943D1863E678E0CE0109
:1041100082960E943D1869E578E0CE0182960E9461
:104120003D186FE478E0CE0182960E943D186CE164
:1041300078E0CE0182960E943D1864E178E0CE01DD
:1041400082960E943D186DE078E0CE0182960E9432
:104150003D1863EC77E0CE0182960E943D1869E934
:1041600077E0CE0182960E943D186AE0CE0101966A
:104170000E94C51963EA71E0CE018F960E943D1935
:10418000BE016F5F7F4FCE018F960E94E81865EFEA
:1041900071E00E94D218BC01CE0182960E942B18B9
:1041A000CE018F960E945219CE0101960E9452199B
:1041B00064E6CE0101960E94C5196BEF71E0CE0155
:1041C0008F960E943D19BE016F5F7F4FCE018F9683
:1041D0000E94E81865EF71E00E94D218BC01CE0180
:1041E00082960E942B18CE018F960E945219CE0102
:1041F00001960E94521969E577E0CE0182960E94ED
:104200003D186DE477E0CE0182960E943D1869E981
:1042100071E086EB93E00E944F18882331F069E14A
:1042200077E0CE0182960E943D186DE971E086EB41
:1042300093E00E944F18882331F067EE76E0CE01BC
:1042400082960E943D186CEC76E0CE0182960E9428
:104250003D1861EA76E0CE0182960E941D07C0906B
:10426000D402D090D502E090D602F090D702A701F8
:104270009601C701B6010E944D2B65E472E08111E1
:104280001BC026013701E89477F82FEF3FEF4FE787
:104290005FE7C301B2010E944D2B8111A8C02FEF2F
:1042A0003FEF4FE75FE7C301B2010E94FC281816F9
:1042B0000CF09DC069E472E0CE0182960E947217F4
:1042C0006CE976E0CE0182960E943D1867E976E0BF
:1042D000CE0182960E941D0767E876E0CE018296A5
:1042E0000E941D072AE061964CAD5DAD6EAD7FADBD
:1042F0006197CE0182960E94811765E876E0CE0133
:1043000082960E941D0763E876E0CE0182960E94A5
:104310001D072AE065964CAD5DAD6EAD7FAD65972E
:10432000CE0182960E94811761E876E0CE018296E6
:104330000E941D076FE776E0CE0182960E941D075E
:104340002AE069964CAD5DAD6EAD7FAD6997CE014B
:1043500082960E9481176DE776E0CE0182960E94D8
:104360001D076BE776E0CE0182960E941D072AE0CA
:10437000B501A401CE0182960E94811769E776E01B
:10438000CE0182960E941D076CE076E0CE018296F7
:104390000E943D186AED75E0CE0182960E943D189C
:1043A00060ED75E0CE0182960E943D1868EC75E0E4
:1043B000CE0182960E943D1860EC75E0CE01829697
:1043C0000E943D1861E070E080E090E00E94F008FB
:1043D000CE0182960E94470FCE01895B9F4F0E94BB
:1043E00052190FB6F8943EBE0FBE2DBE79CC2FEFFA
:1043F0003FEF4FE75FE4C701B6010E94482B181654
:104400001CF46DE472E058CF2FEF3FEF4FE75FEC05
:10441000C701B6010E94FC2887FDF3CF20E030E001
:10442000A901C701B6010E94FC2887FF09C06DE2FF
:10443000CE0182960E94210DF7FAF094F7F8F094DD
:104440002AE037ED43EA5BE3C701B6010E94AD2ADB
:104450002B013C010E94192B6B017C010E94012958
:104460009B01AC01C301B2010E94AC2A2B013C01AB
:104470002AE0B701A601CE0182960E9481176EE262
:10448000CE0182960E94210D20E030E040E251E40E
:10449000C301B2010E9462292B013C010E94192B29
:1044A0006B01F12CE12C2AE0B701A601CE01829626
:1044B0000E948117C701B6010E9401299B01AC012E
:1044C000C301B2010E94AC2A20E030E040E251E496
:1044D0000E9462290E94192BAB0170E060E02AE083
:1044E000CE0182960E948117EBCEB701CE010196D4
:1044F0000E943D1961E572E0CE0101960E944F18BD
:10450000182FCE0101960E945219112309F483C07D
:1045100060EB75E0CE0182960E943D1861E975E07E
:10452000CE0182960E943D18CE0182960E941718F5
:104530006FE875E0CE0182960E943D1861E875E053
:10454000CE0182960E941D0764E6CE0101960E946C
:10455000C519BE016F5F7F4FCE0182960E940F0783
:10456000CE0101960E9452196FE775E0CE01829646
:104570000E943D1869E675E0CE0182960E941D07F3
:104580006AE0CE0101960E94C519BE016F5F7F4FA0
:10459000CE0182960E940F07CE0101960E94521909
:1045A00067E675E0CE0182960E943D1861E575E0F0
:1045B000CE0182960E941D076091D4027091D502AF
:1045C0008091D6029091D70218AA1FA61AAA19AAFA
:1045D0001CAA1BAA8E010F5F1F4F22E044E00E941D
:1045E0000625009799F0BC01CE018F960E941C19F8
:1045F000BE01615D7F4FCE0182960E942B18CE01D5
:104600008F960E9452196FE475E0D8CECE018F9636
:104610000E94C018EDCFB701CE0101960E943D194E
:1046200060E672E0CE0101960E944F18182FCE016D
:1046300001960E9452191111CBCEB701CE018F5BAA
:104640009F4F0E943D196DE672E0CE0101960E94D7
:104650003D194D815E8127968EAD9FAD27978417BA
:10466000950788F023968EAD9FAD2397009759F05C
:1046700069817A816115710531F00E94802D11E008
:10468000892B09F010E0CE0101960E9452191123E6
:1046900009F490C160E671E0C7010E9428250097E7
:1046A00029F0BC0180EE92E00E94721780EE92E049
:1046B0000E94171860E671E090E080E00E942825D3
:1046C0006EE571E00E9428256C016EE571E090E0D6
:1046D00080E00E9428257C016CE571E0C6010E9403
:1046E00028256CE571E090E080E00E9428256C01AF
:1046F0006CE571E0C7010E9428256CE571E090E04F
:1047000080E00E9428257C01B601CE01CB960E9454
:104710003D19B701CE01C5960E943D191A82198232
:104720001C821B821E821D82BE01655C7F4FCE01F2
:1047300001960E942619CE0101960E945A19182F3F
:10474000CE0101960E945219112309F4DEC0B60170
:10475000CE0101960E943D19BE016F5F7F4F8AE036
:104760000E940E1ACE0101960E9452191A821982D5
:104770001C821B821E821D82BE016B5C7F4FCE019C
:1047800001960E942619CE0101960E945A19182FEF
:10479000CE0101960E945219112309F4BDC0B70140
:1047A000CE0101960E943D19BE016F5F7F4F84E6E6
:1047B0000E940E1ACE0101960E9452196EEB74E00F
:1047C000CE0182960E943D1866EA74E0CE01829680
:1047D0000E943D18CE0182960E94171866E974E087
:1047E000CE0182960E943D186FE874E0CE01829659
:1047F0000E943D1868E874E0CE0182960E943D1840
:1048000061E774E0CE0182960E943D1860E474E096
:10481000CE0182960E943D186DE074E0CE01829632
:104820000E943D1865E074E0CE0182960E943D181A
:104830006EEF73E0CE0182960E943D186CEC73E03F
:10484000CE0182960E943D181A8219821C821B8218
:104850001E821D82BE016B5C7F4FCE0101960E94BD
:104860002619CE0101960E945A1911E08823B9F049
:1048700018AA1FA61AAA19AA1CAA1BAABE016B5C19
:104880007F4FCE018F960E942619CE018F960E94EF
:104890005A1911E01827CE018F960E945219CE01A5
:1048A00001960E9452191123F1F16CE673E0CE01DA
:1048B00082960E943D186CE373E0CE0182960E94BE
:1048C0003D1864E373E0CE0182960E943D186CE2CD
:1048D00073E0CE0182960E943D1861E070E080E0B6
:1048E00090E00E94F008CE0182960E94470FCE0110
:1048F000C5960E945219CE01CB960E945219CE0144
:104900008F5B9F4F0E94521967CD6CE075E080EE7F
:1049100092E00E943D182ACF6EEC74E080EE92E0A7
:104920000E943D184BCFB601CE0101960E943D1961
:104930006AE772E0CE018F960E943D19BE016F5F5B
:104940007F4FCE018F960E94E8186CE972E00E94BA
:10495000D218BC01CE0182960E942B18CE018F96F0
:104960000E945219CE0101960E945219B701CE0140
:1049700001960E943D1962EA72E0CE018F960E9474
:104980003D19BE016F5F7F4FCE018F960E94E818E0
:104990006CE972E00E94D218BC01CE0182960E949E
:1049A0002B18CE018F960E945219CE0101960E94BB
:1049B000521981CF65E173E0CE0182960E943D18C5
:1049C000CE0182960E94171861E070E080E090E0CE
:1049D0000E94F008CE0182960E94470F90CF80E09F
:1049E00090E0892B09F474C80E94AB07882309F46E
:1049F0006FC80E9400006CC81D3010F00C94BF1CE2
:104A00000C94CC1C86EB93E00C945219EF920F930C
:104A10001F93CF93DF93E80134E047FD34E1042E88
:104A2000000C550B57FF03C0519541955109E32EDA
:104A3000022F242FAE010E945425CE01DF91CF9189
:104A40001F910F91EF900895662777270C94B32656
:104A500049EE53E00E942D250895FA01A191B081FD
:104A6000009719F41097E1F0CD01DC01CD010D9014
:104A7000002011F4C00113C0FB012191222319F081
:104A80002015D9F7F3CFFB012191201519F41E92BF
:104A9000119606C02223C1F70D900020A1F7D00186
:104AA000FA01A193B0830895A9E0B0E0EAE5F5E248
:104AB0000C944A2A6A01F22EB02E102FFBE3AF2E7F
:104AC000A01608F41BE31F5F012F27E0AE014F5F24
:104AD0005F4F0E940328BC018981982F9970913003
:104AE00009F43FC09BE2E1FC04C09E2D9170E0FC04
:104AF0003AC05E2D5071E82FE87083FF46C084E015
:104B0000911101C083E0EF2DE81B8F1508F0E0E064
:104B1000D6018E2F20E2552351F1992329F0D60199
:104B20009C93C60101966C0196012D5F3F4FE2FEFA
:104B300024C08EE4D6018C9391E411969C93119736
:104B400012968C93D9018E2F90E281111BC0E20F37
:104B5000F32FF11D10828EEF9FEF2996ECE00C945D
:104B6000662A9DE2C6CF90E2C4CF2D938150811179
:104B7000FCCFCE0ED11CE0E0D0CF8EE6D6018C93D8
:104B800091E6DBCF9D938150E0CF482F447082FFA8
:104B90003DC084E0911101C083E08F1510F4EF2D2A
:104BA000E81BD6018E2F20E2552309F1992329F025
:104BB000D6019C93C60101966C0196012D5F3F4F73
:104BC000E2FE1BC089E4D6018C938EE411968C938F
:104BD000119786E412968C93D9018E2F90E2882348
:104BE00009F4B5CF9D938150FACF2D938150811157
:104BF000FCCFCE0ED11CE0E0D9CF89E6D6018C9354
:104C00008EE611968C93119786E6E4CF9B0177FF91
:104C100002C030E020E0A1E0B0E0911102C0B0E0BD
:104C2000A0E0F9013196AE0FBF1F8B2C912CBB2059
:104C300009F461C05401EFEFAE1ABE0AAA0DBB1D04
:104C4000FA161B0619F014F04F2D4A1B511188C09B
:104C5000E3FC59C07601A42FB0E2A1114FC0C40EED
:104C6000D11C992309F45BC040E0D6011196F601EE
:104C700090836D01552309F448C0012F060F9A81D6
:104C8000582F507184FF03C0913309F4015010165E
:104C90000CF047C0093008F008E0EEE2FE2E5B01A0
:104CA000A01AB10885019194819491082F3F320791
:104CB00029F4D601FC92F60131966F016217730751
:104CC00094F1021713077CF5DB01A21BB30BAA2496
:104CD000A394B12CAC0EBD1EAA0DBB1D11968C91D8
:104CE00021503109D601119628153905F4F0F60145
:104CF00080836D01DBCFB12CA12CA0CFF701B19344
:104D00007F01A150AACF9111B0CFD601942F50E3CB
:104D100002C05D9391509111FCCFC40ED11C40E0B4
:104D2000ACCF01E0BACF80E3DBCF6217730731F479
:104D3000963388F4953311F4552369F0F601808396
:104D4000FD01842F90E2811108C0A40FB11D1C92B7
:104D500090E080E002CF81E3F1CF91938150F3CFD7
:104D6000911183CF8ACFB0E0A0E0E9EBF6E20C949A
:104D70004A2A5C017B016115710519F0DB018D93F5
:104D80009C9385010F5F1F4FF501D0818D2F90E01F
:104D90000E94DB286C01892BB9F5DD32B9F50F5F74
:104DA0001F4FD5011196DC91C1E05801F1E0AF1A17
:104DB000B10843E050E060E770E0C5010E94E428DC
:104DC000892B69F5680182E0C80ED11C45E050E0EE
:104DD0006BE670E0C6010E94E428892B21F468018B
:104DE00097E0C90ED11CE114F10419F0D701CD925E
:104DF000DC9260E070E080E89FEFC111FFC060E0EE
:104E000070E080E89FE7FAC05801BBCFDB3229F49D
:104E100085010E5F1F4FF501D181C0E0C6CF43E091
:104E200050E068E670E0C5010E94E428892BE9F0B3
:104E3000F80110E000E020E030E0A9015F01B0EDF2
:104E40008B2E8D0E89E08815C8F19C2E689491F800
:104E50008C2F8870C2FF16C0811102C00F5F1F4FD8
:104E60003196D501DC91C92DE9CFE114F10429F087
:104E70000E5F1F4FF7011183008360E070E080EC4C
:104E80009FE7BCC0882311F001501109A5E0B0E0F4
:104E90000E94392A9B01AC01220F331F441F551F6A
:104EA000280D311D411D511D283999E93907490740
:104EB00099E15907A8F2C6609C2ED2CFAEEF8A12B4
:104EC00006C0C3FD3CC09C2E689493F8C9CFDF7D1B
:104ED000D534A9F580818D3239F4C061DF01129695
:104EE000818162E070E006C0DF018B32C1F3119670
:104EF00061E070E080535D01A61AB70A8A30F8F4C9
:104F0000E0E8CE16ECE0DE065CF4B601660F771F33
:104F1000660F771FC60ED71ECC0CDD1CC80ED11C29
:104F20005D01FFEFAF1ABF0A8C9180538A30A8F160
:104F3000C4FF03C0D194C194D1080C0D1D1DC1FF45
:104F400009C0E114F10431F081E0A81AB108D701D9
:104F5000AD92BC92CA01B9010E940129C370C3304D
:104F600009F490584B015C0120E030E0A9010E9457
:104F7000FC28882309F440C0CFE9D0E017FF05C022
:104F8000119501951109C7E8D0E06E01B8E1CB1A7F
:104F9000D10880E2E82EF12C0FC0D501B1CFFE017F
:104FA00025913591459154910E191F09C501B40100
:104FB0000E9462294B015C01D501C4010E151F0539
:104FC00074F72497F594E794CC16DD06A9F78A2F99
:104FD000880F8B2F881F8F3F49F020E030E0A90118
:104FE000C501B4010E94FC28811106C082E290E054
:104FF0009093EC038093EB03C501B401CDB7DEB70A
:10500000ECE00C94662A283008F027E03327DA0118
:10501000990F311D87FD916000966105710539F486
:1050200032602E5F3D9330E32A95E1F708959F3F6C
:1050300030F080387105610509F03C5F3C5F3D93BD
:10504000913008F08068911DDF93CF931F930F93E9
:10505000FF92EF92192F987F9695E92F9695969546
:10506000E90FFF27E350FF4F99273327EE24FF2452
:10507000A701E70105900894079428F4360FE71E6E
:10508000F81E491F511D660F771F881F991F069430
:10509000A1F70590079428F4E70EF81E491F561F44
:1050A000C11D770F881F991F661F0694A1F70590F1
:1050B000079428F4F80E491F561FC71FD11D880FEB
:1050C000991F661F771F0694A1F70590079420F497
:1050D000490F561FC71FD81F990F661F771F881FBC
:1050E0000694A9F784911095177041F0D695C7954D
:1050F00057954795F794E7941A95C1F7E3EAF0E0DE
:1051000068941590159135916591959105907FE280
:105110007395E118F10A430B560BC90BD009C0F780
:10512000E10CF11E431F561FC91FD01D7EF47033C2
:1051300011F48A95E6CFE894015030F0080F0AF494
:105140000027021708F4202F2395022F7A3328F026
:1051500079E37D932A95E9F710C07D932A9589F626
:10516000069497956795379517951794E118F10A66
:10517000430B560BC90BD00998F023957E9173957C
:105180007A3308F070E37C932013B8F77E91706156
:105190007D9330F0839571E37D9370E32A95E1F779
:1051A0001124EF90FF900F911F91CF91DF919927DC
:1051B00087FD9095089591110C94CF29803219F0B4
:1051C00089508550C8F70895FB01DC0141505040DB
:1051D00088F08D9181341CF08B350CF4805E6591E4
:1051E00061341CF06B350CF4605E861B611171F349
:1051F000990B0895881BFCCF0E943E2908F481E09A
:105200000895E89409C097FB3EF4909580957095B9
:1052100061957F4F8F4F9F4F9923A9F0F92F96E902
:10522000BB279395F695879577956795B795F11177
:10523000F8CFFAF4BB0F11F460FF1BC06F5F7F4F14
:105240008F4F9F4F16C0882311F096E911C0772326
:1052500021F09EE8872F762F05C0662371F096E82F
:10526000862F70E060E02AF09A95660F771F881FFE
:10527000DAF7880F9695879597F90895990F0008A2
:10528000550FAA0BE0E8FEEF16161706E807F90718
:10529000C0F012161306E407F50798F0621B730BB3
:1052A000840B950B39F40A2661F0232B242B252B34
:1052B00021F408950A2609F4A140A6958FEF811DD7
:1052C000811D08950E9475290C94E9290E94DB290B
:1052D00038F00E94E22920F0952311F00C94D22995
:1052E0000C94D82911240C941D2A0E94FA2970F3D9
:1052F000959FC1F3950F50E0551F629FF001729F7B
:10530000BB27F00DB11D639FAA27F00DB11DAA1F89
:10531000649F6627B00DA11D661F829F2227B00DD6
:10532000A11D621F739FB00DA11D621F839FA00D61
:10533000611D221F749F3327A00D611D231F849FB1
:10534000600D211D822F762F6A2F11249F57504008
:105350009AF0F1F088234AF0EE0FFF1FBB1F661F83
:10536000771F881F91505040A9F79E3F510580F04C
:105370000C94D2290C941D2A5F3FE4F3983ED4F399
:10538000869577956795B795F795E7959F5FC1F7F0
:10539000FE2B880F911D9695879597F9089599276B
:1053A0008827089597F99F6780E870E060E0089586
:1053B0009FEF80EC089500240A941616170618062D
:1053C0000906089500240A94121613061406050609
:1053D0000895092E0394000C11F4882352F0BB0F9A
:1053E00040F4BF2B11F460FF04C06F5F7F4F8F4FFD
:1053F0009F4F089557FD9058440F551F59F05F3F38
:1054000071F04795880F97FB991F61F09F3F79F0E6
:1054100087950895121613061406551FF2CF469568
:10542000F1DF08C0161617061806991FF1CF8695EA
:105430007105610508940895E894BB2766277727CE
:10544000CB0197F90895F999FECF92BD81BDF89AE5
:10545000992780B50895262FF999FECF1FBA92BDDE
:1054600081BD20BD0FB6F894FA9AF99A0FBE019645
:1054700008950E949D2AA59F900DB49F900DA49F12
:10548000800D911D112408952F923F924F925F92AB
:105490006F927F928F929F92AF92BF92CF92DF9244
:1054A000EF92FF920F931F93CF93DF93CDB7DEB7A9
:1054B000CA1BDB0B0FB6F894DEBF0FBECDBF09943D
:1054C0002A88398848885F846E847D848C849B8494
:1054D000AA84B984C884DF80EE80FD800C811B81A2
:1054E000AA81B981CE0FD11D0FB6F894DEBF0FBED1
:1054F000CDBFED010895A1E21A2EAA1BBB1BFD0131
:105500000DC0AA1FBB1FEE1FFF1FA217B307E407A2
:10551000F50720F0A21BB30BE40BF50B661F771FFA
:10552000881F991F1A9469F76095709580959095DA
:105530009B01AC01BD01CF010895A29FB001B39FB3
:10554000C001A39F700D811D1124911DB29F700D8C
:10555000811D1124911D08955058BB27AA270E9430
:10556000C42A0C94E9290E94DB2938F00E94E22920
:1055700020F039F49F3F19F426F40C94D8290EF446
:10558000E095E7FB0C94D229E92F0E94FA2958F301
:10559000BA17620773078407950720F079F4A6F518
:1055A0000C941C2A0EF4E0950B2EBA2FA02D0B01A3
:1055B000B90190010C01CA01A0011124FF27591B58
:1055C00099F0593F50F4503E68F11A16F040A22F5E
:1055D000232F342F4427585FF3CF469537952795CF
:1055E000A795F0405395C9F77EF41F16BA0B620BCE
:1055F000730B840BBAF09150A1F0FF0FBB1F661F15
:10560000771F881FC2F70EC0BA0F621F731F841F57
:1056100048F4879577956795B795F7959E3F08F07D
:10562000B0CF9395880F08F09927EE0F979587953F
:1056300008950E94022A88F09F5798F0B92F992761
:10564000B751B0F0E1F0660F771F881F991F1AF06D
:10565000BA95C9F714C0B13091F00E941C2AB1E08C
:1056600008950C941C2A672F782F8827B85F39F08B
:10567000B93FCCF3869577956795B395D9F73EF406
:1056800090958095709561957F4F8F4F9F4F0895AE
:105690000E943E2908F48FEF08950E943E29880B4E
:1056A000990B089597FB072E16F4009407D077FD09
:1056B00009D00E94662B07FC05D03EF49095819599
:1056C0009F4F0895709561957F4F0895AA1BBB1B4E
:1056D00051E107C0AA1FBB1FA617B70710F0A61BF2
:1056E000B70B881F991F5A95A9F780959095BC0113
:1056F000CD010895EE0FFF1F0590F491E02D099460
:105700000F931F93CF93DF938230910510F482E0C3
:1057100090E0E091EF03F091F00330E020E0B0E0A2
:10572000A0E0309799F42115310509F44AC0281BEF
:10573000390B24303105D8F58A819B8161157105BB
:1057400089F1FB0193838283FE0111C04081518165
:105750000281138148175907E0F04817590799F457
:10576000109761F012960C93129713961C93329631
:10577000CF01DF91CF911F910F9108950093EF0317
:105780001093F003F4CF2115310551F04217530760
:1057900038F0A901DB019A01BD01DF01F801C1CF99
:1057A000EF01F9CF9093F0038093EF03CDCFFE018B
:1057B000E20FF31F8193919322503109398328839B
:1057C000D7CF2091ED033091EE03232B41F42091AC
:1057D0000E0130910F013093EE032093ED032091E1
:1057E0000C0130910D012115310541F42DB73EB763
:1057F0004091100150911101241B350BE091ED03F4
:10580000F091EE03E217F307A0F42E1B3F0B2817CD
:10581000390778F0AC014E5F5F4F2417350748F029
:105820004E0F5F1F5093EE034093ED0381939193CE
:105830009FCFF0E0E0E09CCFCF93DF930097E9F0BB
:10584000FC01329713821282A091EF03B091F00312
:10585000ED0130E020E01097A1F420813181820F2A
:10586000931F2091ED033091EE032817390709F0BB
:1058700061C0F093EE03E093ED03DF91CF910895C3
:10588000EA01CE17DF07E8F54A815B819E014115E9
:105890005105B1F7E901FB83EA8349915991C40F9E
:1058A000D51FEC17FD0761F4808191810296840F6A
:1058B000951FE90199838883828193819B838A83E1
:1058C000F0E0E0E012968D919C9113970097B9F566
:1058D0002D913C911197CD010296820F931F20913B
:1058E000ED033091EE032817390739F6309751F55B
:1058F0001092F0031092EF03B093EE03A093ED0328
:10590000BCCFD383C28340815181840F951FC817B8
:10591000D90761F44E5F5F4F88819981480F591F05
:10592000518340838A819B81938382832115310532
:1059300009F0B0CFF093F003E093EF039ECFFD01A9
:10594000DC01C0CF13821282D7CFB0E0A0E0EBEA37
:10595000FCE20C94462A8C01009751F4CB010E9482
:10596000802B8C01C801CDB7DEB7E0E10C94622A30
:10597000FC01E60FF71F9C0122503109E217F307E3
:1059800008F49DC0D901CD91DC911197C617D707B6
:1059900098F0C530D10530F3CE01049786179707EC
:1059A00008F3C61BD70B2297C193D1936D937C93B9
:1059B000CF010E941C2CD6CF5B01AC1ABD0A4C0152
:1059C0008C0E9D1EA091EF03B091F003512C412C41
:1059D000F12CE12C109731F58091ED039091EE03BD
:1059E0008815990509F05CC04616570608F058C09E
:1059F00080910C0190910D01009741F48DB79EB7F5
:105A00004091100150911101841B950BE817F90783
:105A100008F055C0F093EE03E093ED03F9017183B4
:105A20006083A0CF8D919C91119712966C901297E4
:105A300013967C901397A815B90559F56C0142E0AF
:105A4000C40ED11CCA14DB0420F1AC014A195B0955
:105A5000DA011296159780F0628273825183408337
:105A6000D9016D937C93E114F10471F0D701139681
:105A7000FC93EE93129776CF22968C0F9D1FF9011F
:105A800091838083F301EFCFF093F003E093EF0372
:105A900069CF4816590608F42C017D01D3019ACF2D
:105AA000CB010E94802B7C01009749F0AE01B80128
:105AB0000E94672DC8010E941C2C870153CF10E063
:105AC00000E050CF81E090E0F8940C949D2DFB0114
:105AD000DC0102C001900D9241505040D8F708956A
